{
	"voilation.sol": {
		"BusViolationsContract": {
			"abi": [
				{
					"inputs": [
						{
							"internalType": "uint256",
							"name": "_roadCharge",
							"type": "uint256"
						}
					],
					"stateMutability": "nonpayable",
					"type": "constructor"
				},
				{
					"anonymous": false,
					"inputs": [
						{
							"indexed": false,
							"internalType": "address",
							"name": "memberAddress",
							"type": "address"
						}
					],
					"name": "AuthorizedMemberAdded",
					"type": "event"
				},
				{
					"anonymous": false,
					"inputs": [
						{
							"indexed": false,
							"internalType": "address",
							"name": "teamAddress",
							"type": "address"
						}
					],
					"name": "AuthorizedTeamAdded",
					"type": "event"
				},
				{
					"anonymous": false,
					"inputs": [
						{
							"indexed": true,
							"internalType": "address",
							"name": "previousOwner",
							"type": "address"
						},
						{
							"indexed": true,
							"internalType": "address",
							"name": "newOwner",
							"type": "address"
						}
					],
					"name": "OwnershipTransferred",
					"type": "event"
				},
				{
					"anonymous": false,
					"inputs": [
						{
							"indexed": false,
							"internalType": "uint256",
							"name": "newRoadCharge",
							"type": "uint256"
						}
					],
					"name": "RoadChargeUpdated",
					"type": "event"
				},
				{
					"anonymous": false,
					"inputs": [
						{
							"indexed": false,
							"internalType": "uint256",
							"name": "companyId",
							"type": "uint256"
						},
						{
							"indexed": false,
							"internalType": "string",
							"name": "category",
							"type": "string"
						}
					],
					"name": "ViolationReported",
					"type": "event"
				},
				{
					"inputs": [
						{
							"internalType": "address",
							"name": "memberAddress",
							"type": "address"
						}
					],
					"name": "addAuthorizedMember",
					"outputs": [],
					"stateMutability": "nonpayable",
					"type": "function"
				},
				{
					"inputs": [
						{
							"internalType": "address",
							"name": "teamAddress",
							"type": "address"
						}
					],
					"name": "addAuthorizedTeam",
					"outputs": [],
					"stateMutability": "nonpayable",
					"type": "function"
				},
				{
					"inputs": [
						{
							"internalType": "address",
							"name": "",
							"type": "address"
						}
					],
					"name": "authorizedMembers",
					"outputs": [
						{
							"internalType": "bool",
							"name": "",
							"type": "bool"
						}
					],
					"stateMutability": "view",
					"type": "function"
				},
				{
					"inputs": [
						{
							"internalType": "address",
							"name": "",
							"type": "address"
						}
					],
					"name": "authorizedTeams",
					"outputs": [
						{
							"internalType": "bool",
							"name": "",
							"type": "bool"
						}
					],
					"stateMutability": "view",
					"type": "function"
				},
				{
					"inputs": [
						{
							"internalType": "uint256",
							"name": "companyId",
							"type": "uint256"
						}
					],
					"name": "calculateTotalPenaltyA",
					"outputs": [
						{
							"internalType": "uint256",
							"name": "",
							"type": "uint256"
						}
					],
					"stateMutability": "view",
					"type": "function"
				},
				{
					"inputs": [
						{
							"internalType": "uint256",
							"name": "companyId",
							"type": "uint256"
						}
					],
					"name": "calculateTotalPenaltyB",
					"outputs": [
						{
							"internalType": "uint256",
							"name": "",
							"type": "uint256"
						}
					],
					"stateMutability": "view",
					"type": "function"
				},
				{
					"inputs": [
						{
							"internalType": "uint256",
							"name": "_companyId",
							"type": "uint256"
						}
					],
					"name": "getViolationsForCompany",
					"outputs": [
						{
							"components": [
								{
									"internalType": "uint256",
									"name": "companyId",
									"type": "uint256"
								},
								{
									"internalType": "string",
									"name": "busCompany",
									"type": "string"
								},
								{
									"internalType": "uint256",
									"name": "busCompanyNumber",
									"type": "uint256"
								},
								{
									"internalType": "string",
									"name": "busPlateNumber",
									"type": "string"
								},
								{
									"internalType": "string",
									"name": "location",
									"type": "string"
								},
								{
									"internalType": "uint256",
									"name": "numberOfPassengers",
									"type": "uint256"
								},
								{
									"internalType": "string",
									"name": "violationsIssuer",
									"type": "string"
								},
								{
									"internalType": "uint256",
									"name": "dateOfViolation",
									"type": "uint256"
								},
								{
									"internalType": "string",
									"name": "category",
									"type": "string"
								}
							],
							"internalType": "struct BusViolationsContract.Violation[]",
							"name": "",
							"type": "tuple[]"
						}
					],
					"stateMutability": "view",
					"type": "function"
				},
				{
					"inputs": [],
					"name": "owner",
					"outputs": [
						{
							"internalType": "address",
							"name": "",
							"type": "address"
						}
					],
					"stateMutability": "view",
					"type": "function"
				},
				{
					"inputs": [
						{
							"internalType": "uint256",
							"name": "_companyId",
							"type": "uint256"
						},
						{
							"internalType": "string",
							"name": "_busCompany",
							"type": "string"
						},
						{
							"internalType": "uint256",
							"name": "_busCompanyNumber",
							"type": "uint256"
						},
						{
							"internalType": "string",
							"name": "_busPlateNumber",
							"type": "string"
						},
						{
							"internalType": "string",
							"name": "_location",
							"type": "string"
						},
						{
							"internalType": "uint256",
							"name": "_numberOfPassengers",
							"type": "uint256"
						},
						{
							"internalType": "string",
							"name": "_violationsIssuer",
							"type": "string"
						},
						{
							"internalType": "uint256",
							"name": "_dateOfViolation",
							"type": "uint256"
						},
						{
							"internalType": "string",
							"name": "_category",
							"type": "string"
						}
					],
					"name": "reportViolation",
					"outputs": [],
					"stateMutability": "nonpayable",
					"type": "function"
				},
				{
					"inputs": [],
					"name": "roadCharge",
					"outputs": [
						{
							"internalType": "uint256",
							"name": "",
							"type": "uint256"
						}
					],
					"stateMutability": "view",
					"type": "function"
				},
				{
					"inputs": [
						{
							"internalType": "address",
							"name": "newOwner",
							"type": "address"
						}
					],
					"name": "transferOwnership",
					"outputs": [],
					"stateMutability": "nonpayable",
					"type": "function"
				},
				{
					"inputs": [
						{
							"internalType": "uint256",
							"name": "_newRoadCharge",
							"type": "uint256"
						}
					],
					"name": "updateRoadCharge",
					"outputs": [],
					"stateMutability": "nonpayable",
					"type": "function"
				},
				{
					"inputs": [
						{
							"internalType": "uint256",
							"name": "",
							"type": "uint256"
						},
						{
							"internalType": "uint256",
							"name": "",
							"type": "uint256"
						}
					],
					"name": "violationsByCompany",
					"outputs": [
						{
							"internalType": "uint256",
							"name": "companyId",
							"type": "uint256"
						},
						{
							"internalType": "string",
							"name": "busCompany",
							"type": "string"
						},
						{
							"internalType": "uint256",
							"name": "busCompanyNumber",
							"type": "uint256"
						},
						{
							"internalType": "string",
							"name": "busPlateNumber",
							"type": "string"
						},
						{
							"internalType": "string",
							"name": "location",
							"type": "string"
						},
						{
							"internalType": "uint256",
							"name": "numberOfPassengers",
							"type": "uint256"
						},
						{
							"internalType": "string",
							"name": "violationsIssuer",
							"type": "string"
						},
						{
							"internalType": "uint256",
							"name": "dateOfViolation",
							"type": "uint256"
						},
						{
							"internalType": "string",
							"name": "category",
							"type": "string"
						}
					],
					"stateMutability": "view",
					"type": "function"
				}
			],
			"devdoc": {
				"kind": "dev",
				"methods": {},
				"version": 1
			},
			"evm": {
				"assembly": "    /* \"voilation.sol\":69:4024  contract BusViolationsContract {... */\n  mstore(0x40, 0x80)\n    /* \"voilation.sol\":980:1082  constructor(uint256 _roadCharge) {... */\n  callvalue\n  dup1\n  iszero\n  tag_1\n  jumpi\n  0x00\n  dup1\n  revert\ntag_1:\n  pop\n  mload(0x40)\n  sub(codesize, bytecodeSize)\n  dup1\n  bytecodeSize\n  dup4\n  codecopy\n  dup2\n  dup2\n  add\n  0x40\n  mstore\n  dup2\n  add\n  swap1\n  tag_2\n  swap2\n  swap1\n  tag_3\n  jump\t// in\ntag_2:\n    /* \"voilation.sol\":1031:1041  msg.sender */\n  caller\n    /* \"voilation.sol\":1023:1028  owner */\n  0x00\n  dup1\n    /* \"voilation.sol\":1023:1041  owner = msg.sender */\n  0x0100\n  exp\n  dup2\n  sload\n  dup2\n  0xffffffffffffffffffffffffffffffffffffffff\n  mul\n  not\n  and\n  swap1\n  dup4\n  0xffffffffffffffffffffffffffffffffffffffff\n  and\n  mul\n  or\n  swap1\n  sstore\n  pop\n    /* \"voilation.sol\":1064:1075  _roadCharge */\n  dup1\n    /* \"voilation.sol\":1051:1061  roadCharge */\n  0x04\n    /* \"voilation.sol\":1051:1075  roadCharge = _roadCharge */\n  dup2\n  swap1\n  sstore\n  pop\n    /* \"voilation.sol\":980:1082  constructor(uint256 _roadCharge) {... */\n  pop\n    /* \"voilation.sol\":69:4024  contract BusViolationsContract {... */\n  jump(tag_6)\n    /* \"#utility.yul\":88:205   */\ntag_8:\n    /* \"#utility.yul\":197:198   */\n  0x00\n    /* \"#utility.yul\":194:195   */\n  dup1\n    /* \"#utility.yul\":187:199   */\n  revert\n    /* \"#utility.yul\":334:411   */\ntag_10:\n    /* \"#utility.yul\":371:378   */\n  0x00\n    /* \"#utility.yul\":400:405   */\n  dup2\n    /* \"#utility.yul\":389:405   */\n  swap1\n  pop\n    /* \"#utility.yul\":334:411   */\n  swap2\n  swap1\n  pop\n  jump\t// out\n    /* \"#utility.yul\":417:539   */\ntag_11:\n    /* \"#utility.yul\":490:514   */\n  tag_19\n    /* \"#utility.yul\":508:513   */\n  dup2\n    /* \"#utility.yul\":490:514   */\n  tag_10\n  jump\t// in\ntag_19:\n    /* \"#utility.yul\":483:488   */\n  dup2\n    /* \"#utility.yul\":480:515   */\n  eq\n    /* \"#utility.yul\":470:533   */\n  tag_20\n  jumpi\n    /* \"#utility.yul\":529:530   */\n  0x00\n    /* \"#utility.yul\":526:527   */\n  dup1\n    /* \"#utility.yul\":519:531   */\n  revert\n    /* \"#utility.yul\":470:533   */\ntag_20:\n    /* \"#utility.yul\":417:539   */\n  pop\n  jump\t// out\n    /* \"#utility.yul\":545:688   */\ntag_12:\n    /* \"#utility.yul\":602:607   */\n  0x00\n    /* \"#utility.yul\":633:639   */\n  dup2\n    /* \"#utility.yul\":627:640   */\n  mload\n    /* \"#utility.yul\":618:640   */\n  swap1\n  pop\n    /* \"#utility.yul\":649:682   */\n  tag_22\n    /* \"#utility.yul\":676:681   */\n  dup2\n    /* \"#utility.yul\":649:682   */\n  tag_11\n  jump\t// in\ntag_22:\n    /* \"#utility.yul\":545:688   */\n  swap3\n  swap2\n  pop\n  pop\n  jump\t// out\n    /* \"#utility.yul\":694:1045   */\ntag_3:\n    /* \"#utility.yul\":764:770   */\n  0x00\n    /* \"#utility.yul\":813:815   */\n  0x20\n    /* \"#utility.yul\":801:810   */\n  dup3\n    /* \"#utility.yul\":792:799   */\n  dup5\n    /* \"#utility.yul\":788:811   */\n  sub\n    /* \"#utility.yul\":784:816   */\n  slt\n    /* \"#utility.yul\":781:900   */\n  iszero\n  tag_24\n  jumpi\n    /* \"#utility.yul\":819:898   */\n  tag_25\n  tag_8\n  jump\t// in\ntag_25:\n    /* \"#utility.yul\":781:900   */\ntag_24:\n    /* \"#utility.yul\":939:940   */\n  0x00\n    /* \"#utility.yul\":964:1028   */\n  tag_26\n    /* \"#utility.yul\":1020:1027   */\n  dup5\n    /* \"#utility.yul\":1011:1017   */\n  dup3\n    /* \"#utility.yul\":1000:1009   */\n  dup6\n    /* \"#utility.yul\":996:1018   */\n  add\n    /* \"#utility.yul\":964:1028   */\n  tag_12\n  jump\t// in\ntag_26:\n    /* \"#utility.yul\":954:1028   */\n  swap2\n  pop\n    /* \"#utility.yul\":910:1038   */\n  pop\n    /* \"#utility.yul\":694:1045   */\n  swap3\n  swap2\n  pop\n  pop\n  jump\t// out\n    /* \"voilation.sol\":69:4024  contract BusViolationsContract {... */\ntag_6:\n  dataSize(sub_0)\n  dup1\n  dataOffset(sub_0)\n  0x00\n  codecopy\n  0x00\n  return\nstop\n\nsub_0: assembly {\n        /* \"voilation.sol\":69:4024  contract BusViolationsContract {... */\n      mstore(0x40, 0x80)\n      callvalue\n      dup1\n      iszero\n      tag_1\n      jumpi\n      0x00\n      dup1\n      revert\n    tag_1:\n      pop\n      jumpi(tag_2, lt(calldatasize, 0x04))\n      shr(0xe0, calldataload(0x00))\n      dup1\n      0x8da5cb5b\n      gt\n      tag_16\n      jumpi\n      dup1\n      0xb75d3192\n      gt\n      tag_17\n      jumpi\n      dup1\n      0xb75d3192\n      eq\n      tag_12\n      jumpi\n      dup1\n      0xf27afa30\n      eq\n      tag_13\n      jumpi\n      dup1\n      0xf2fde38b\n      eq\n      tag_14\n      jumpi\n      dup1\n      0xf386b306\n      eq\n      tag_15\n      jumpi\n      jump(tag_2)\n    tag_17:\n      dup1\n      0x8da5cb5b\n      eq\n      tag_9\n      jumpi\n      dup1\n      0x97c6a46f\n      eq\n      tag_10\n      jumpi\n      dup1\n      0xa245e11e\n      eq\n      tag_11\n      jumpi\n      jump(tag_2)\n    tag_16:\n      dup1\n      0x24649c40\n      eq\n      tag_3\n      jumpi\n      dup1\n      0x2771c997\n      eq\n      tag_4\n      jumpi\n      dup1\n      0x3cb13f6b\n      eq\n      tag_5\n      jumpi\n      dup1\n      0x624b168d\n      eq\n      tag_6\n      jumpi\n      dup1\n      0x7366adcf\n      eq\n      tag_7\n      jumpi\n      dup1\n      0x8c1733e8\n      eq\n      tag_8\n      jumpi\n    tag_2:\n      0x00\n      dup1\n      revert\n        /* \"voilation.sol\":461:508  mapping(address => bool) public authorizedTeams */\n    tag_3:\n      tag_18\n      0x04\n      dup1\n      calldatasize\n      sub\n      dup2\n      add\n      swap1\n      tag_19\n      swap2\n      swap1\n      tag_20\n      jump\t// in\n    tag_19:\n      tag_21\n      jump\t// in\n    tag_18:\n      mload(0x40)\n      tag_22\n      swap2\n      swap1\n      tag_23\n      jump\t// in\n    tag_22:\n      mload(0x40)\n      dup1\n      swap2\n      sub\n      swap1\n      return\n        /* \"voilation.sol\":1784:1971  function addAuthorizedMember(address memberAddress) public onlyAuthorizedMember {... */\n    tag_4:\n      tag_24\n      0x04\n      dup1\n      calldatasize\n      sub\n      dup2\n      add\n      swap1\n      tag_25\n      swap2\n      swap1\n      tag_20\n      jump\t// in\n    tag_25:\n      tag_26\n      jump\t// in\n    tag_24:\n      stop\n        /* \"voilation.sol\":1977:2918  function reportViolation(... */\n    tag_5:\n      tag_27\n      0x04\n      dup1\n      calldatasize\n      sub\n      dup2\n      add\n      swap1\n      tag_28\n      swap2\n      swap1\n      tag_29\n      jump\t// in\n    tag_28:\n      tag_30\n      jump\t// in\n    tag_27:\n      stop\n        /* \"voilation.sol\":633:658  uint256 public roadCharge */\n    tag_6:\n      tag_31\n      tag_32\n      jump\t// in\n    tag_31:\n      mload(0x40)\n      tag_33\n      swap2\n      swap1\n      tag_34\n      jump\t// in\n    tag_33:\n      mload(0x40)\n      dup1\n      swap2\n      sub\n      swap1\n      return\n        /* \"voilation.sol\":2924:3073  function getViolationsForCompany(uint256 _companyId) public view returns (Violation[] memory) {... */\n    tag_7:\n      tag_35\n      0x04\n      dup1\n      calldatasize\n      sub\n      dup2\n      add\n      swap1\n      tag_36\n      swap2\n      swap1\n      tag_37\n      jump\t// in\n    tag_36:\n      tag_38\n      jump\t// in\n    tag_35:\n      mload(0x40)\n      tag_39\n      swap2\n      swap1\n      tag_40\n      jump\t// in\n    tag_39:\n      mload(0x40)\n      dup1\n      swap2\n      sub\n      swap1\n      return\n        /* \"voilation.sol\":3244:3630  function calculateTotalPenaltyA(uint256 companyId) public view returns (uint256) {... */\n    tag_8:\n      tag_41\n      0x04\n      dup1\n      calldatasize\n      sub\n      dup2\n      add\n      swap1\n      tag_42\n      swap2\n      swap1\n      tag_37\n      jump\t// in\n    tag_42:\n      tag_43\n      jump\t// in\n    tag_41:\n      mload(0x40)\n      tag_44\n      swap2\n      swap1\n      tag_34\n      jump\t// in\n    tag_44:\n      mload(0x40)\n      dup1\n      swap2\n      sub\n      swap1\n      return\n        /* \"voilation.sol\":435:455  address public owner */\n    tag_9:\n      tag_45\n      tag_46\n      jump\t// in\n    tag_45:\n      mload(0x40)\n      tag_47\n      swap2\n      swap1\n      tag_48\n      jump\t// in\n    tag_47:\n      mload(0x40)\n      dup1\n      swap2\n      sub\n      swap1\n      return\n        /* \"voilation.sol\":569:627  mapping(uint256 => Violation[]) public violationsByCompany */\n    tag_10:\n      tag_49\n      0x04\n      dup1\n      calldatasize\n      sub\n      dup2\n      add\n      swap1\n      tag_50\n      swap2\n      swap1\n      tag_51\n      jump\t// in\n    tag_50:\n      tag_52\n      jump\t// in\n    tag_49:\n      mload(0x40)\n      tag_53\n      swap10\n      swap9\n      swap8\n      swap7\n      swap6\n      swap5\n      swap4\n      swap3\n      swap2\n      swap1\n      tag_54\n      jump\t// in\n    tag_53:\n      mload(0x40)\n      dup1\n      swap2\n      sub\n      swap1\n      return\n        /* \"voilation.sol\":3636:4022  function calculateTotalPenaltyB(uint256 companyId) public view returns (uint256) {... */\n    tag_11:\n      tag_55\n      0x04\n      dup1\n      calldatasize\n      sub\n      dup2\n      add\n      swap1\n      tag_56\n      swap2\n      swap1\n      tag_37\n      jump\t// in\n    tag_56:\n      tag_57\n      jump\t// in\n    tag_55:\n      mload(0x40)\n      tag_58\n      swap2\n      swap1\n      tag_34\n      jump\t// in\n    tag_58:\n      mload(0x40)\n      dup1\n      swap2\n      sub\n      swap1\n      return\n        /* \"voilation.sol\":1614:1778  function addAuthorizedTeam(address teamAddress) public onlyOwner {... */\n    tag_12:\n      tag_59\n      0x04\n      dup1\n      calldatasize\n      sub\n      dup2\n      add\n      swap1\n      tag_60\n      swap2\n      swap1\n      tag_20\n      jump\t// in\n    tag_60:\n      tag_61\n      jump\t// in\n    tag_59:\n      stop\n        /* \"voilation.sol\":3079:3238  function updateRoadCharge(uint256 _newRoadCharge) public onlyOwner {... */\n    tag_13:\n      tag_62\n      0x04\n      dup1\n      calldatasize\n      sub\n      dup2\n      add\n      swap1\n      tag_63\n      swap2\n      swap1\n      tag_37\n      jump\t// in\n    tag_63:\n      tag_64\n      jump\t// in\n    tag_62:\n      stop\n        /* \"voilation.sol\":1380:1608  function transferOwnership(address newOwner) public onlyOwner {... */\n    tag_14:\n      tag_65\n      0x04\n      dup1\n      calldatasize\n      sub\n      dup2\n      add\n      swap1\n      tag_66\n      swap2\n      swap1\n      tag_20\n      jump\t// in\n    tag_66:\n      tag_67\n      jump\t// in\n    tag_65:\n      stop\n        /* \"voilation.sol\":514:563  mapping(address => bool) public authorizedMembers */\n    tag_15:\n      tag_68\n      0x04\n      dup1\n      calldatasize\n      sub\n      dup2\n      add\n      swap1\n      tag_69\n      swap2\n      swap1\n      tag_20\n      jump\t// in\n    tag_69:\n      tag_70\n      jump\t// in\n    tag_68:\n      mload(0x40)\n      tag_71\n      swap2\n      swap1\n      tag_23\n      jump\t// in\n    tag_71:\n      mload(0x40)\n      dup1\n      swap2\n      sub\n      swap1\n      return\n        /* \"voilation.sol\":461:508  mapping(address => bool) public authorizedTeams */\n    tag_21:\n      mstore(0x20, 0x01)\n      dup1\n      0x00\n      mstore\n      keccak256(0x00, 0x40)\n      0x00\n      swap2\n      pop\n      sload\n      swap1\n      0x0100\n      exp\n      swap1\n      div\n      0xff\n      and\n      dup2\n      jump\t// out\n        /* \"voilation.sol\":1784:1971  function addAuthorizedMember(address memberAddress) public onlyAuthorizedMember {... */\n    tag_26:\n        /* \"voilation.sol\":1273:1290  authorizedMembers */\n      0x02\n        /* \"voilation.sol\":1273:1302  authorizedMembers[msg.sender] */\n      0x00\n        /* \"voilation.sol\":1291:1301  msg.sender */\n      caller\n        /* \"voilation.sol\":1273:1302  authorizedMembers[msg.sender] */\n      0xffffffffffffffffffffffffffffffffffffffff\n      and\n      0xffffffffffffffffffffffffffffffffffffffff\n      and\n      dup2\n      mstore\n      0x20\n      add\n      swap1\n      dup2\n      mstore\n      0x20\n      add\n      0x00\n      keccak256\n      0x00\n      swap1\n      sload\n      swap1\n      0x0100\n      exp\n      swap1\n      div\n      0xff\n      and\n        /* \"voilation.sol\":1265:1356  require(authorizedMembers[msg.sender], \"Unauthorized: Only member can perform this action\") */\n      tag_73\n      jumpi\n      mload(0x40)\n      0x08c379a000000000000000000000000000000000000000000000000000000000\n      dup2\n      mstore\n      0x04\n      add\n      tag_74\n      swap1\n      tag_75\n      jump\t// in\n    tag_74:\n      mload(0x40)\n      dup1\n      swap2\n      sub\n      swap1\n      revert\n    tag_73:\n        /* \"voilation.sol\":1909:1913  true */\n      0x01\n        /* \"voilation.sol\":1874:1891  authorizedMembers */\n      0x02\n        /* \"voilation.sol\":1874:1906  authorizedMembers[memberAddress] */\n      0x00\n        /* \"voilation.sol\":1892:1905  memberAddress */\n      dup4\n        /* \"voilation.sol\":1874:1906  authorizedMembers[memberAddress] */\n      0xffffffffffffffffffffffffffffffffffffffff\n      and\n      0xffffffffffffffffffffffffffffffffffffffff\n      and\n      dup2\n      mstore\n      0x20\n      add\n      swap1\n      dup2\n      mstore\n      0x20\n      add\n      0x00\n      keccak256\n      0x00\n        /* \"voilation.sol\":1874:1913  authorizedMembers[memberAddress] = true */\n      0x0100\n      exp\n      dup2\n      sload\n      dup2\n      0xff\n      mul\n      not\n      and\n      swap1\n      dup4\n      iszero\n      iszero\n      mul\n      or\n      swap1\n      sstore\n      pop\n        /* \"voilation.sol\":1928:1964  AuthorizedMemberAdded(memberAddress) */\n      0xc0a6f706e3079b084ac0ab0ccb0cb52b442de5e969291477bf63cfc3f06c264d\n        /* \"voilation.sol\":1950:1963  memberAddress */\n      dup2\n        /* \"voilation.sol\":1928:1964  AuthorizedMemberAdded(memberAddress) */\n      mload(0x40)\n      tag_77\n      swap2\n      swap1\n      tag_48\n      jump\t// in\n    tag_77:\n      mload(0x40)\n      dup1\n      swap2\n      sub\n      swap1\n      log1\n        /* \"voilation.sol\":1784:1971  function addAuthorizedMember(address memberAddress) public onlyAuthorizedMember {... */\n      pop\n      jump\t// out\n        /* \"voilation.sol\":1977:2918  function reportViolation(... */\n    tag_30:\n        /* \"voilation.sol\":1273:1290  authorizedMembers */\n      0x02\n        /* \"voilation.sol\":1273:1302  authorizedMembers[msg.sender] */\n      0x00\n        /* \"voilation.sol\":1291:1301  msg.sender */\n      caller\n        /* \"voilation.sol\":1273:1302  authorizedMembers[msg.sender] */\n      0xffffffffffffffffffffffffffffffffffffffff\n      and\n      0xffffffffffffffffffffffffffffffffffffffff\n      and\n      dup2\n      mstore\n      0x20\n      add\n      swap1\n      dup2\n      mstore\n      0x20\n      add\n      0x00\n      keccak256\n      0x00\n      swap1\n      sload\n      swap1\n      0x0100\n      exp\n      swap1\n      div\n      0xff\n      and\n        /* \"voilation.sol\":1265:1356  require(authorizedMembers[msg.sender], \"Unauthorized: Only member can perform this action\") */\n      tag_79\n      jumpi\n      mload(0x40)\n      0x08c379a000000000000000000000000000000000000000000000000000000000\n      dup2\n      mstore\n      0x04\n      add\n      tag_80\n      swap1\n      tag_75\n      jump\t// in\n    tag_80:\n      mload(0x40)\n      dup1\n      swap2\n      sub\n      swap1\n      revert\n    tag_79:\n        /* \"voilation.sol\":2361:2390  Violation memory newViolation */\n      0x00\n        /* \"voilation.sol\":2393:2795  Violation({... */\n      mload(0x40)\n      dup1\n      0x0120\n      add\n      0x40\n      mstore\n      dup1\n        /* \"voilation.sol\":2428:2438  _companyId */\n      dup12\n        /* \"voilation.sol\":2393:2795  Violation({... */\n      dup2\n      mstore\n      0x20\n      add\n        /* \"voilation.sol\":2464:2475  _busCompany */\n      dup11\n        /* \"voilation.sol\":2393:2795  Violation({... */\n      dup2\n      mstore\n      0x20\n      add\n        /* \"voilation.sol\":2507:2524  _busCompanyNumber */\n      dup10\n        /* \"voilation.sol\":2393:2795  Violation({... */\n      dup2\n      mstore\n      0x20\n      add\n        /* \"voilation.sol\":2554:2569  _busPlateNumber */\n      dup9\n        /* \"voilation.sol\":2393:2795  Violation({... */\n      dup2\n      mstore\n      0x20\n      add\n        /* \"voilation.sol\":2593:2602  _location */\n      dup8\n        /* \"voilation.sol\":2393:2795  Violation({... */\n      dup2\n      mstore\n      0x20\n      add\n        /* \"voilation.sol\":2636:2655  _numberOfPassengers */\n      dup7\n        /* \"voilation.sol\":2393:2795  Violation({... */\n      dup2\n      mstore\n      0x20\n      add\n        /* \"voilation.sol\":2687:2704  _violationsIssuer */\n      dup6\n        /* \"voilation.sol\":2393:2795  Violation({... */\n      dup2\n      mstore\n      0x20\n      add\n        /* \"voilation.sol\":2735:2751  _dateOfViolation */\n      dup5\n        /* \"voilation.sol\":2393:2795  Violation({... */\n      dup2\n      mstore\n      0x20\n      add\n        /* \"voilation.sol\":2775:2784  _category */\n      dup4\n        /* \"voilation.sol\":2393:2795  Violation({... */\n      dup2\n      mstore\n      pop\n        /* \"voilation.sol\":2361:2795  Violation memory newViolation = Violation({... */\n      swap1\n      pop\n        /* \"voilation.sol\":2806:2825  violationsByCompany */\n      0x03\n        /* \"voilation.sol\":2806:2837  violationsByCompany[_companyId] */\n      0x00\n        /* \"voilation.sol\":2826:2836  _companyId */\n      dup12\n        /* \"voilation.sol\":2806:2837  violationsByCompany[_companyId] */\n      dup2\n      mstore\n      0x20\n      add\n      swap1\n      dup2\n      mstore\n      0x20\n      add\n      0x00\n      keccak256\n        /* \"voilation.sol\":2843:2855  newViolation */\n      dup2\n        /* \"voilation.sol\":2806:2856  violationsByCompany[_companyId].push(newViolation) */\n      swap1\n      dup1\n      0x01\n      dup2\n      sload\n      add\n      dup1\n      dup3\n      sstore\n      dup1\n      swap2\n      pop\n      pop\n      0x01\n      swap1\n      sub\n      swap1\n      0x00\n      mstore\n      keccak256(0x00, 0x20)\n      swap1\n      0x09\n      mul\n      add\n      0x00\n      swap1\n      swap2\n      swap1\n      swap2\n      swap1\n      swap2\n      pop\n      0x00\n      dup3\n      add\n      mload\n      dup2\n      0x00\n      add\n      sstore\n      0x20\n      dup3\n      add\n      mload\n      dup2\n      0x01\n      add\n      swap1\n      dup2\n      tag_83\n      swap2\n      swap1\n      tag_84\n      jump\t// in\n    tag_83:\n      pop\n      0x40\n      dup3\n      add\n      mload\n      dup2\n      0x02\n      add\n      sstore\n      0x60\n      dup3\n      add\n      mload\n      dup2\n      0x03\n      add\n      swap1\n      dup2\n      tag_85\n      swap2\n      swap1\n      tag_84\n      jump\t// in\n    tag_85:\n      pop\n      0x80\n      dup3\n      add\n      mload\n      dup2\n      0x04\n      add\n      swap1\n      dup2\n      tag_86\n      swap2\n      swap1\n      tag_84\n      jump\t// in\n    tag_86:\n      pop\n      0xa0\n      dup3\n      add\n      mload\n      dup2\n      0x05\n      add\n      sstore\n      0xc0\n      dup3\n      add\n      mload\n      dup2\n      0x06\n      add\n      swap1\n      dup2\n      tag_87\n      swap2\n      swap1\n      tag_84\n      jump\t// in\n    tag_87:\n      pop\n      0xe0\n      dup3\n      add\n      mload\n      dup2\n      0x07\n      add\n      sstore\n      0x0100\n      dup3\n      add\n      mload\n      dup2\n      0x08\n      add\n      swap1\n      dup2\n      tag_88\n      swap2\n      swap1\n      tag_84\n      jump\t// in\n    tag_88:\n      pop\n      pop\n      pop\n        /* \"voilation.sol\":2871:2911  ViolationReported(_companyId, _category) */\n      0x9972cb5b577f71380a5a31b132b1cdb1bac44255f5ef6cb82011c94e59c269a0\n        /* \"voilation.sol\":2889:2899  _companyId */\n      dup11\n        /* \"voilation.sol\":2901:2910  _category */\n      dup4\n        /* \"voilation.sol\":2871:2911  ViolationReported(_companyId, _category) */\n      mload(0x40)\n      tag_89\n      swap3\n      swap2\n      swap1\n      tag_90\n      jump\t// in\n    tag_89:\n      mload(0x40)\n      dup1\n      swap2\n      sub\n      swap1\n      log1\n        /* \"voilation.sol\":2351:2918  {... */\n      pop\n        /* \"voilation.sol\":1977:2918  function reportViolation(... */\n      pop\n      pop\n      pop\n      pop\n      pop\n      pop\n      pop\n      pop\n      pop\n      jump\t// out\n        /* \"voilation.sol\":633:658  uint256 public roadCharge */\n    tag_32:\n      sload(0x04)\n      dup2\n      jump\t// out\n        /* \"voilation.sol\":2924:3073  function getViolationsForCompany(uint256 _companyId) public view returns (Violation[] memory) {... */\n    tag_38:\n        /* \"voilation.sol\":2998:3016  Violation[] memory */\n      0x60\n        /* \"voilation.sol\":3035:3054  violationsByCompany */\n      0x03\n        /* \"voilation.sol\":3035:3066  violationsByCompany[_companyId] */\n      0x00\n        /* \"voilation.sol\":3055:3065  _companyId */\n      dup4\n        /* \"voilation.sol\":3035:3066  violationsByCompany[_companyId] */\n      dup2\n      mstore\n      0x20\n      add\n      swap1\n      dup2\n      mstore\n      0x20\n      add\n      0x00\n      keccak256\n        /* \"voilation.sol\":3028:3066  return violationsByCompany[_companyId] */\n      dup1\n      sload\n      dup1\n      0x20\n      mul\n      0x20\n      add\n      mload(0x40)\n      swap1\n      dup2\n      add\n      0x40\n      mstore\n      dup1\n      swap3\n      swap2\n      swap1\n      dup2\n      dup2\n      mstore\n      0x20\n      add\n      0x00\n      swap1\n    tag_92:\n      dup3\n      dup3\n      lt\n      iszero\n      tag_93\n      jumpi\n      dup4\n      dup3\n      swap1\n      0x00\n      mstore\n      keccak256(0x00, 0x20)\n      swap1\n      0x09\n      mul\n      add\n      mload(0x40)\n      dup1\n      0x0120\n      add\n      0x40\n      mstore\n      swap1\n      dup2\n      0x00\n      dup3\n      add\n      sload\n      dup2\n      mstore\n      0x20\n      add\n      0x01\n      dup3\n      add\n      dup1\n      sload\n      tag_95\n      swap1\n      tag_96\n      jump\t// in\n    tag_95:\n      dup1\n      0x1f\n      add\n      0x20\n      dup1\n      swap2\n      div\n      mul\n      0x20\n      add\n      mload(0x40)\n      swap1\n      dup2\n      add\n      0x40\n      mstore\n      dup1\n      swap3\n      swap2\n      swap1\n      dup2\n      dup2\n      mstore\n      0x20\n      add\n      dup3\n      dup1\n      sload\n      tag_97\n      swap1\n      tag_96\n      jump\t// in\n    tag_97:\n      dup1\n      iszero\n      tag_98\n      jumpi\n      dup1\n      0x1f\n      lt\n      tag_99\n      jumpi\n      0x0100\n      dup1\n      dup4\n      sload\n      div\n      mul\n      dup4\n      mstore\n      swap2\n      0x20\n      add\n      swap2\n      jump(tag_98)\n    tag_99:\n      dup3\n      add\n      swap2\n      swap1\n      0x00\n      mstore\n      keccak256(0x00, 0x20)\n      swap1\n    tag_100:\n      dup2\n      sload\n      dup2\n      mstore\n      swap1\n      0x01\n      add\n      swap1\n      0x20\n      add\n      dup1\n      dup4\n      gt\n      tag_100\n      jumpi\n      dup3\n      swap1\n      sub\n      0x1f\n      and\n      dup3\n      add\n      swap2\n    tag_98:\n      pop\n      pop\n      pop\n      pop\n      pop\n      dup2\n      mstore\n      0x20\n      add\n      0x02\n      dup3\n      add\n      sload\n      dup2\n      mstore\n      0x20\n      add\n      0x03\n      dup3\n      add\n      dup1\n      sload\n      tag_101\n      swap1\n      tag_96\n      jump\t// in\n    tag_101:\n      dup1\n      0x1f\n      add\n      0x20\n      dup1\n      swap2\n      div\n      mul\n      0x20\n      add\n      mload(0x40)\n      swap1\n      dup2\n      add\n      0x40\n      mstore\n      dup1\n      swap3\n      swap2\n      swap1\n      dup2\n      dup2\n      mstore\n      0x20\n      add\n      dup3\n      dup1\n      sload\n      tag_102\n      swap1\n      tag_96\n      jump\t// in\n    tag_102:\n      dup1\n      iszero\n      tag_103\n      jumpi\n      dup1\n      0x1f\n      lt\n      tag_104\n      jumpi\n      0x0100\n      dup1\n      dup4\n      sload\n      div\n      mul\n      dup4\n      mstore\n      swap2\n      0x20\n      add\n      swap2\n      jump(tag_103)\n    tag_104:\n      dup3\n      add\n      swap2\n      swap1\n      0x00\n      mstore\n      keccak256(0x00, 0x20)\n      swap1\n    tag_105:\n      dup2\n      sload\n      dup2\n      mstore\n      swap1\n      0x01\n      add\n      swap1\n      0x20\n      add\n      dup1\n      dup4\n      gt\n      tag_105\n      jumpi\n      dup3\n      swap1\n      sub\n      0x1f\n      and\n      dup3\n      add\n      swap2\n    tag_103:\n      pop\n      pop\n      pop\n      pop\n      pop\n      dup2\n      mstore\n      0x20\n      add\n      0x04\n      dup3\n      add\n      dup1\n      sload\n      tag_106\n      swap1\n      tag_96\n      jump\t// in\n    tag_106:\n      dup1\n      0x1f\n      add\n      0x20\n      dup1\n      swap2\n      div\n      mul\n      0x20\n      add\n      mload(0x40)\n      swap1\n      dup2\n      add\n      0x40\n      mstore\n      dup1\n      swap3\n      swap2\n      swap1\n      dup2\n      dup2\n      mstore\n      0x20\n      add\n      dup3\n      dup1\n      sload\n      tag_107\n      swap1\n      tag_96\n      jump\t// in\n    tag_107:\n      dup1\n      iszero\n      tag_108\n      jumpi\n      dup1\n      0x1f\n      lt\n      tag_109\n      jumpi\n      0x0100\n      dup1\n      dup4\n      sload\n      div\n      mul\n      dup4\n      mstore\n      swap2\n      0x20\n      add\n      swap2\n      jump(tag_108)\n    tag_109:\n      dup3\n      add\n      swap2\n      swap1\n      0x00\n      mstore\n      keccak256(0x00, 0x20)\n      swap1\n    tag_110:\n      dup2\n      sload\n      dup2\n      mstore\n      swap1\n      0x01\n      add\n      swap1\n      0x20\n      add\n      dup1\n      dup4\n      gt\n      tag_110\n      jumpi\n      dup3\n      swap1\n      sub\n      0x1f\n      and\n      dup3\n      add\n      swap2\n    tag_108:\n      pop\n      pop\n      pop\n      pop\n      pop\n      dup2\n      mstore\n      0x20\n      add\n      0x05\n      dup3\n      add\n      sload\n      dup2\n      mstore\n      0x20\n      add\n      0x06\n      dup3\n      add\n      dup1\n      sload\n      tag_111\n      swap1\n      tag_96\n      jump\t// in\n    tag_111:\n      dup1\n      0x1f\n      add\n      0x20\n      dup1\n      swap2\n      div\n      mul\n      0x20\n      add\n      mload(0x40)\n      swap1\n      dup2\n      add\n      0x40\n      mstore\n      dup1\n      swap3\n      swap2\n      swap1\n      dup2\n      dup2\n      mstore\n      0x20\n      add\n      dup3\n      dup1\n      sload\n      tag_112\n      swap1\n      tag_96\n      jump\t// in\n    tag_112:\n      dup1\n      iszero\n      tag_113\n      jumpi\n      dup1\n      0x1f\n      lt\n      tag_114\n      jumpi\n      0x0100\n      dup1\n      dup4\n      sload\n      div\n      mul\n      dup4\n      mstore\n      swap2\n      0x20\n      add\n      swap2\n      jump(tag_113)\n    tag_114:\n      dup3\n      add\n      swap2\n      swap1\n      0x00\n      mstore\n      keccak256(0x00, 0x20)\n      swap1\n    tag_115:\n      dup2\n      sload\n      dup2\n      mstore\n      swap1\n      0x01\n      add\n      swap1\n      0x20\n      add\n      dup1\n      dup4\n      gt\n      tag_115\n      jumpi\n      dup3\n      swap1\n      sub\n      0x1f\n      and\n      dup3\n      add\n      swap2\n    tag_113:\n      pop\n      pop\n      pop\n      pop\n      pop\n      dup2\n      mstore\n      0x20\n      add\n      0x07\n      dup3\n      add\n      sload\n      dup2\n      mstore\n      0x20\n      add\n      0x08\n      dup3\n      add\n      dup1\n      sload\n      tag_116\n      swap1\n      tag_96\n      jump\t// in\n    tag_116:\n      dup1\n      0x1f\n      add\n      0x20\n      dup1\n      swap2\n      div\n      mul\n      0x20\n      add\n      mload(0x40)\n      swap1\n      dup2\n      add\n      0x40\n      mstore\n      dup1\n      swap3\n      swap2\n      swap1\n      dup2\n      dup2\n      mstore\n      0x20\n      add\n      dup3\n      dup1\n      sload\n      tag_117\n      swap1\n      tag_96\n      jump\t// in\n    tag_117:\n      dup1\n      iszero\n      tag_118\n      jumpi\n      dup1\n      0x1f\n      lt\n      tag_119\n      jumpi\n      0x0100\n      dup1\n      dup4\n      sload\n      div\n      mul\n      dup4\n      mstore\n      swap2\n      0x20\n      add\n      swap2\n      jump(tag_118)\n    tag_119:\n      dup3\n      add\n      swap2\n      swap1\n      0x00\n      mstore\n      keccak256(0x00, 0x20)\n      swap1\n    tag_120:\n      dup2\n      sload\n      dup2\n      mstore\n      swap1\n      0x01\n      add\n      swap1\n      0x20\n      add\n      dup1\n      dup4\n      gt\n      tag_120\n      jumpi\n      dup3\n      swap1\n      sub\n      0x1f\n      and\n      dup3\n      add\n      swap2\n    tag_118:\n      pop\n      pop\n      pop\n      pop\n      pop\n      dup2\n      mstore\n      pop\n      pop\n      dup2\n      mstore\n      0x20\n      add\n      swap1\n      0x01\n      add\n      swap1\n      jump(tag_92)\n    tag_93:\n      pop\n      pop\n      pop\n      pop\n      swap1\n      pop\n        /* \"voilation.sol\":2924:3073  function getViolationsForCompany(uint256 _companyId) public view returns (Violation[] memory) {... */\n      swap2\n      swap1\n      pop\n      jump\t// out\n        /* \"voilation.sol\":3244:3630  function calculateTotalPenaltyA(uint256 companyId) public view returns (uint256) {... */\n    tag_43:\n        /* \"voilation.sol\":3316:3323  uint256 */\n      0x00\n        /* \"voilation.sol\":3335:3349  uint256 countA */\n      dup1\n        /* \"voilation.sol\":3352:3353  0 */\n      0x00\n        /* \"voilation.sol\":3335:3353  uint256 countA = 0 */\n      swap1\n      pop\n        /* \"voilation.sol\":3368:3374  uint i */\n      0x00\n        /* \"voilation.sol\":3363:3584  for (uint i = 0; i < violationsByCompany[companyId].length; i++) {... */\n    tag_122:\n        /* \"voilation.sol\":3384:3403  violationsByCompany */\n      0x03\n        /* \"voilation.sol\":3384:3414  violationsByCompany[companyId] */\n      0x00\n        /* \"voilation.sol\":3404:3413  companyId */\n      dup6\n        /* \"voilation.sol\":3384:3414  violationsByCompany[companyId] */\n      dup2\n      mstore\n      0x20\n      add\n      swap1\n      dup2\n      mstore\n      0x20\n      add\n      0x00\n      keccak256\n        /* \"voilation.sol\":3384:3421  violationsByCompany[companyId].length */\n      dup1\n      sload\n      swap1\n      pop\n        /* \"voilation.sol\":3380:3381  i */\n      dup2\n        /* \"voilation.sol\":3380:3421  i < violationsByCompany[companyId].length */\n      lt\n        /* \"voilation.sol\":3363:3584  for (uint i = 0; i < violationsByCompany[companyId].length; i++) {... */\n      iszero\n      tag_123\n      jumpi\n        /* \"voilation.sol\":3520:3530  bytes(\"A\") */\n      mload(0x40)\n      dup1\n      0x40\n      add\n      0x40\n      mstore\n      dup1\n      0x01\n      dup2\n      mstore\n      0x20\n      add\n      0x4100000000000000000000000000000000000000000000000000000000000000\n      dup2\n      mstore\n      pop\n        /* \"voilation.sol\":3510:3531  keccak256(bytes(\"A\")) */\n      dup1\n      mload\n      swap1\n      0x20\n      add\n      keccak256\n        /* \"voilation.sol\":3462:3481  violationsByCompany */\n      0x03\n        /* \"voilation.sol\":3462:3492  violationsByCompany[companyId] */\n      0x00\n        /* \"voilation.sol\":3482:3491  companyId */\n      dup7\n        /* \"voilation.sol\":3462:3492  violationsByCompany[companyId] */\n      dup2\n      mstore\n      0x20\n      add\n      swap1\n      dup2\n      mstore\n      0x20\n      add\n      0x00\n      keccak256\n        /* \"voilation.sol\":3493:3494  i */\n      dup3\n        /* \"voilation.sol\":3462:3495  violationsByCompany[companyId][i] */\n      dup2\n      sload\n      dup2\n      lt\n      tag_125\n      jumpi\n      tag_126\n      tag_127\n      jump\t// in\n    tag_126:\n    tag_125:\n      swap1\n      0x00\n      mstore\n      keccak256(0x00, 0x20)\n      swap1\n      0x09\n      mul\n      add\n        /* \"voilation.sol\":3462:3504  violationsByCompany[companyId][i].category */\n      0x08\n      add\n        /* \"voilation.sol\":3446:3506  keccak256(bytes(violationsByCompany[companyId][i].category)) */\n      mload(0x40)\n      tag_129\n      swap2\n      swap1\n      tag_130\n      jump\t// in\n    tag_129:\n      mload(0x40)\n      dup1\n      swap2\n      sub\n      swap1\n      keccak256\n        /* \"voilation.sol\":3446:3531  keccak256(bytes(violationsByCompany[companyId][i].category)) == keccak256(bytes(\"A\")) */\n      sub\n        /* \"voilation.sol\":3442:3574  if (keccak256(bytes(violationsByCompany[companyId][i].category)) == keccak256(bytes(\"A\"))) {... */\n      tag_131\n      jumpi\n        /* \"voilation.sol\":3551:3559  countA++ */\n      dup2\n      dup1\n      tag_132\n      swap1\n      tag_133\n      jump\t// in\n    tag_132:\n      swap3\n      pop\n      pop\n        /* \"voilation.sol\":3442:3574  if (keccak256(bytes(violationsByCompany[companyId][i].category)) == keccak256(bytes(\"A\"))) {... */\n    tag_131:\n        /* \"voilation.sol\":3423:3426  i++ */\n      dup1\n      dup1\n      0x01\n      add\n      swap2\n      pop\n      pop\n        /* \"voilation.sol\":3363:3584  for (uint i = 0; i < violationsByCompany[companyId].length; i++) {... */\n      jump(tag_122)\n    tag_123:\n      pop\n        /* \"voilation.sol\":3613:3623  roadCharge */\n      sload(0x04)\n        /* \"voilation.sol\":3609:3610  5 */\n      0x05\n        /* \"voilation.sol\":3600:3606  countA */\n      dup3\n        /* \"voilation.sol\":3600:3610  countA * 5 */\n      tag_134\n      swap2\n      swap1\n      tag_135\n      jump\t// in\n    tag_134:\n        /* \"voilation.sol\":3600:3623  countA * 5 * roadCharge */\n      tag_136\n      swap2\n      swap1\n      tag_135\n      jump\t// in\n    tag_136:\n        /* \"voilation.sol\":3593:3623  return countA * 5 * roadCharge */\n      swap2\n      pop\n      pop\n        /* \"voilation.sol\":3244:3630  function calculateTotalPenaltyA(uint256 companyId) public view returns (uint256) {... */\n      swap2\n      swap1\n      pop\n      jump\t// out\n        /* \"voilation.sol\":435:455  address public owner */\n    tag_46:\n      0x00\n      dup1\n      sload\n      swap1\n      0x0100\n      exp\n      swap1\n      div\n      0xffffffffffffffffffffffffffffffffffffffff\n      and\n      dup2\n      jump\t// out\n        /* \"voilation.sol\":569:627  mapping(uint256 => Violation[]) public violationsByCompany */\n    tag_52:\n      mstore(0x20, 0x03)\n      dup2\n      0x00\n      mstore\n      keccak256(0x00, 0x40)\n      dup2\n      dup2\n      sload\n      dup2\n      lt\n      tag_137\n      jumpi\n      0x00\n      dup1\n      revert\n    tag_137:\n      swap1\n      0x00\n      mstore\n      keccak256(0x00, 0x20)\n      swap1\n      0x09\n      mul\n      add\n      0x00\n      swap2\n      pop\n      swap2\n      pop\n      pop\n      dup1\n      0x00\n      add\n      sload\n      swap1\n      dup1\n      0x01\n      add\n      dup1\n      sload\n      tag_139\n      swap1\n      tag_96\n      jump\t// in\n    tag_139:\n      dup1\n      0x1f\n      add\n      0x20\n      dup1\n      swap2\n      div\n      mul\n      0x20\n      add\n      mload(0x40)\n      swap1\n      dup2\n      add\n      0x40\n      mstore\n      dup1\n      swap3\n      swap2\n      swap1\n      dup2\n      dup2\n      mstore\n      0x20\n      add\n      dup3\n      dup1\n      sload\n      tag_140\n      swap1\n      tag_96\n      jump\t// in\n    tag_140:\n      dup1\n      iszero\n      tag_141\n      jumpi\n      dup1\n      0x1f\n      lt\n      tag_142\n      jumpi\n      0x0100\n      dup1\n      dup4\n      sload\n      div\n      mul\n      dup4\n      mstore\n      swap2\n      0x20\n      add\n      swap2\n      jump(tag_141)\n    tag_142:\n      dup3\n      add\n      swap2\n      swap1\n      0x00\n      mstore\n      keccak256(0x00, 0x20)\n      swap1\n    tag_143:\n      dup2\n      sload\n      dup2\n      mstore\n      swap1\n      0x01\n      add\n      swap1\n      0x20\n      add\n      dup1\n      dup4\n      gt\n      tag_143\n      jumpi\n      dup3\n      swap1\n      sub\n      0x1f\n      and\n      dup3\n      add\n      swap2\n    tag_141:\n      pop\n      pop\n      pop\n      pop\n      pop\n      swap1\n      dup1\n      0x02\n      add\n      sload\n      swap1\n      dup1\n      0x03\n      add\n      dup1\n      sload\n      tag_144\n      swap1\n      tag_96\n      jump\t// in\n    tag_144:\n      dup1\n      0x1f\n      add\n      0x20\n      dup1\n      swap2\n      div\n      mul\n      0x20\n      add\n      mload(0x40)\n      swap1\n      dup2\n      add\n      0x40\n      mstore\n      dup1\n      swap3\n      swap2\n      swap1\n      dup2\n      dup2\n      mstore\n      0x20\n      add\n      dup3\n      dup1\n      sload\n      tag_145\n      swap1\n      tag_96\n      jump\t// in\n    tag_145:\n      dup1\n      iszero\n      tag_146\n      jumpi\n      dup1\n      0x1f\n      lt\n      tag_147\n      jumpi\n      0x0100\n      dup1\n      dup4\n      sload\n      div\n      mul\n      dup4\n      mstore\n      swap2\n      0x20\n      add\n      swap2\n      jump(tag_146)\n    tag_147:\n      dup3\n      add\n      swap2\n      swap1\n      0x00\n      mstore\n      keccak256(0x00, 0x20)\n      swap1\n    tag_148:\n      dup2\n      sload\n      dup2\n      mstore\n      swap1\n      0x01\n      add\n      swap1\n      0x20\n      add\n      dup1\n      dup4\n      gt\n      tag_148\n      jumpi\n      dup3\n      swap1\n      sub\n      0x1f\n      and\n      dup3\n      add\n      swap2\n    tag_146:\n      pop\n      pop\n      pop\n      pop\n      pop\n      swap1\n      dup1\n      0x04\n      add\n      dup1\n      sload\n      tag_149\n      swap1\n      tag_96\n      jump\t// in\n    tag_149:\n      dup1\n      0x1f\n      add\n      0x20\n      dup1\n      swap2\n      div\n      mul\n      0x20\n      add\n      mload(0x40)\n      swap1\n      dup2\n      add\n      0x40\n      mstore\n      dup1\n      swap3\n      swap2\n      swap1\n      dup2\n      dup2\n      mstore\n      0x20\n      add\n      dup3\n      dup1\n      sload\n      tag_150\n      swap1\n      tag_96\n      jump\t// in\n    tag_150:\n      dup1\n      iszero\n      tag_151\n      jumpi\n      dup1\n      0x1f\n      lt\n      tag_152\n      jumpi\n      0x0100\n      dup1\n      dup4\n      sload\n      div\n      mul\n      dup4\n      mstore\n      swap2\n      0x20\n      add\n      swap2\n      jump(tag_151)\n    tag_152:\n      dup3\n      add\n      swap2\n      swap1\n      0x00\n      mstore\n      keccak256(0x00, 0x20)\n      swap1\n    tag_153:\n      dup2\n      sload\n      dup2\n      mstore\n      swap1\n      0x01\n      add\n      swap1\n      0x20\n      add\n      dup1\n      dup4\n      gt\n      tag_153\n      jumpi\n      dup3\n      swap1\n      sub\n      0x1f\n      and\n      dup3\n      add\n      swap2\n    tag_151:\n      pop\n      pop\n      pop\n      pop\n      pop\n      swap1\n      dup1\n      0x05\n      add\n      sload\n      swap1\n      dup1\n      0x06\n      add\n      dup1\n      sload\n      tag_154\n      swap1\n      tag_96\n      jump\t// in\n    tag_154:\n      dup1\n      0x1f\n      add\n      0x20\n      dup1\n      swap2\n      div\n      mul\n      0x20\n      add\n      mload(0x40)\n      swap1\n      dup2\n      add\n      0x40\n      mstore\n      dup1\n      swap3\n      swap2\n      swap1\n      dup2\n      dup2\n      mstore\n      0x20\n      add\n      dup3\n      dup1\n      sload\n      tag_155\n      swap1\n      tag_96\n      jump\t// in\n    tag_155:\n      dup1\n      iszero\n      tag_156\n      jumpi\n      dup1\n      0x1f\n      lt\n      tag_157\n      jumpi\n      0x0100\n      dup1\n      dup4\n      sload\n      div\n      mul\n      dup4\n      mstore\n      swap2\n      0x20\n      add\n      swap2\n      jump(tag_156)\n    tag_157:\n      dup3\n      add\n      swap2\n      swap1\n      0x00\n      mstore\n      keccak256(0x00, 0x20)\n      swap1\n    tag_158:\n      dup2\n      sload\n      dup2\n      mstore\n      swap1\n      0x01\n      add\n      swap1\n      0x20\n      add\n      dup1\n      dup4\n      gt\n      tag_158\n      jumpi\n      dup3\n      swap1\n      sub\n      0x1f\n      and\n      dup3\n      add\n      swap2\n    tag_156:\n      pop\n      pop\n      pop\n      pop\n      pop\n      swap1\n      dup1\n      0x07\n      add\n      sload\n      swap1\n      dup1\n      0x08\n      add\n      dup1\n      sload\n      tag_159\n      swap1\n      tag_96\n      jump\t// in\n    tag_159:\n      dup1\n      0x1f\n      add\n      0x20\n      dup1\n      swap2\n      div\n      mul\n      0x20\n      add\n      mload(0x40)\n      swap1\n      dup2\n      add\n      0x40\n      mstore\n      dup1\n      swap3\n      swap2\n      swap1\n      dup2\n      dup2\n      mstore\n      0x20\n      add\n      dup3\n      dup1\n      sload\n      tag_160\n      swap1\n      tag_96\n      jump\t// in\n    tag_160:\n      dup1\n      iszero\n      tag_161\n      jumpi\n      dup1\n      0x1f\n      lt\n      tag_162\n      jumpi\n      0x0100\n      dup1\n      dup4\n      sload\n      div\n      mul\n      dup4\n      mstore\n      swap2\n      0x20\n      add\n      swap2\n      jump(tag_161)\n    tag_162:\n      dup3\n      add\n      swap2\n      swap1\n      0x00\n      mstore\n      keccak256(0x00, 0x20)\n      swap1\n    tag_163:\n      dup2\n      sload\n      dup2\n      mstore\n      swap1\n      0x01\n      add\n      swap1\n      0x20\n      add\n      dup1\n      dup4\n      gt\n      tag_163\n      jumpi\n      dup3\n      swap1\n      sub\n      0x1f\n      and\n      dup3\n      add\n      swap2\n    tag_161:\n      pop\n      pop\n      pop\n      pop\n      pop\n      swap1\n      pop\n      dup10\n      jump\t// out\n        /* \"voilation.sol\":3636:4022  function calculateTotalPenaltyB(uint256 companyId) public view returns (uint256) {... */\n    tag_57:\n        /* \"voilation.sol\":3708:3715  uint256 */\n      0x00\n        /* \"voilation.sol\":3727:3741  uint256 countB */\n      dup1\n        /* \"voilation.sol\":3744:3745  0 */\n      0x00\n        /* \"voilation.sol\":3727:3745  uint256 countB = 0 */\n      swap1\n      pop\n        /* \"voilation.sol\":3760:3766  uint i */\n      0x00\n        /* \"voilation.sol\":3755:3976  for (uint i = 0; i < violationsByCompany[companyId].length; i++) {... */\n    tag_165:\n        /* \"voilation.sol\":3776:3795  violationsByCompany */\n      0x03\n        /* \"voilation.sol\":3776:3806  violationsByCompany[companyId] */\n      0x00\n        /* \"voilation.sol\":3796:3805  companyId */\n      dup6\n        /* \"voilation.sol\":3776:3806  violationsByCompany[companyId] */\n      dup2\n      mstore\n      0x20\n      add\n      swap1\n      dup2\n      mstore\n      0x20\n      add\n      0x00\n      keccak256\n        /* \"voilation.sol\":3776:3813  violationsByCompany[companyId].length */\n      dup1\n      sload\n      swap1\n      pop\n        /* \"voilation.sol\":3772:3773  i */\n      dup2\n        /* \"voilation.sol\":3772:3813  i < violationsByCompany[companyId].length */\n      lt\n        /* \"voilation.sol\":3755:3976  for (uint i = 0; i < violationsByCompany[companyId].length; i++) {... */\n      iszero\n      tag_166\n      jumpi\n        /* \"voilation.sol\":3912:3922  bytes(\"B\") */\n      mload(0x40)\n      dup1\n      0x40\n      add\n      0x40\n      mstore\n      dup1\n      0x01\n      dup2\n      mstore\n      0x20\n      add\n      0x4200000000000000000000000000000000000000000000000000000000000000\n      dup2\n      mstore\n      pop\n        /* \"voilation.sol\":3902:3923  keccak256(bytes(\"B\")) */\n      dup1\n      mload\n      swap1\n      0x20\n      add\n      keccak256\n        /* \"voilation.sol\":3854:3873  violationsByCompany */\n      0x03\n        /* \"voilation.sol\":3854:3884  violationsByCompany[companyId] */\n      0x00\n        /* \"voilation.sol\":3874:3883  companyId */\n      dup7\n        /* \"voilation.sol\":3854:3884  violationsByCompany[companyId] */\n      dup2\n      mstore\n      0x20\n      add\n      swap1\n      dup2\n      mstore\n      0x20\n      add\n      0x00\n      keccak256\n        /* \"voilation.sol\":3885:3886  i */\n      dup3\n        /* \"voilation.sol\":3854:3887  violationsByCompany[companyId][i] */\n      dup2\n      sload\n      dup2\n      lt\n      tag_168\n      jumpi\n      tag_169\n      tag_127\n      jump\t// in\n    tag_169:\n    tag_168:\n      swap1\n      0x00\n      mstore\n      keccak256(0x00, 0x20)\n      swap1\n      0x09\n      mul\n      add\n        /* \"voilation.sol\":3854:3896  violationsByCompany[companyId][i].category */\n      0x08\n      add\n        /* \"voilation.sol\":3838:3898  keccak256(bytes(violationsByCompany[companyId][i].category)) */\n      mload(0x40)\n      tag_171\n      swap2\n      swap1\n      tag_130\n      jump\t// in\n    tag_171:\n      mload(0x40)\n      dup1\n      swap2\n      sub\n      swap1\n      keccak256\n        /* \"voilation.sol\":3838:3923  keccak256(bytes(violationsByCompany[companyId][i].category)) == keccak256(bytes(\"B\")) */\n      sub\n        /* \"voilation.sol\":3834:3966  if (keccak256(bytes(violationsByCompany[companyId][i].category)) == keccak256(bytes(\"B\"))) {... */\n      tag_172\n      jumpi\n        /* \"voilation.sol\":3943:3951  countB++ */\n      dup2\n      dup1\n      tag_173\n      swap1\n      tag_133\n      jump\t// in\n    tag_173:\n      swap3\n      pop\n      pop\n        /* \"voilation.sol\":3834:3966  if (keccak256(bytes(violationsByCompany[companyId][i].category)) == keccak256(bytes(\"B\"))) {... */\n    tag_172:\n        /* \"voilation.sol\":3815:3818  i++ */\n      dup1\n      dup1\n      0x01\n      add\n      swap2\n      pop\n      pop\n        /* \"voilation.sol\":3755:3976  for (uint i = 0; i < violationsByCompany[companyId].length; i++) {... */\n      jump(tag_165)\n    tag_166:\n      pop\n        /* \"voilation.sol\":4005:4015  roadCharge */\n      sload(0x04)\n        /* \"voilation.sol\":4001:4002  2 */\n      0x02\n        /* \"voilation.sol\":3992:3998  countB */\n      dup3\n        /* \"voilation.sol\":3992:4002  countB * 2 */\n      tag_174\n      swap2\n      swap1\n      tag_135\n      jump\t// in\n    tag_174:\n        /* \"voilation.sol\":3992:4015  countB * 2 * roadCharge */\n      tag_175\n      swap2\n      swap1\n      tag_135\n      jump\t// in\n    tag_175:\n        /* \"voilation.sol\":3985:4015  return countB * 2 * roadCharge */\n      swap2\n      pop\n      pop\n        /* \"voilation.sol\":3636:4022  function calculateTotalPenaltyB(uint256 companyId) public view returns (uint256) {... */\n      swap2\n      swap1\n      pop\n      jump\t// out\n        /* \"voilation.sol\":1614:1778  function addAuthorizedTeam(address teamAddress) public onlyOwner {... */\n    tag_61:\n        /* \"voilation.sol\":1141:1146  owner */\n      0x00\n      dup1\n      sload\n      swap1\n      0x0100\n      exp\n      swap1\n      div\n      0xffffffffffffffffffffffffffffffffffffffff\n      and\n        /* \"voilation.sol\":1127:1146  msg.sender == owner */\n      0xffffffffffffffffffffffffffffffffffffffff\n      and\n        /* \"voilation.sol\":1127:1137  msg.sender */\n      caller\n        /* \"voilation.sol\":1127:1146  msg.sender == owner */\n      0xffffffffffffffffffffffffffffffffffffffff\n      and\n      eq\n        /* \"voilation.sol\":1119:1199  require(msg.sender == owner, \"Unauthorized: Only owner can perform this action\") */\n      tag_177\n      jumpi\n      mload(0x40)\n      0x08c379a000000000000000000000000000000000000000000000000000000000\n      dup2\n      mstore\n      0x04\n      add\n      tag_178\n      swap1\n      tag_179\n      jump\t// in\n    tag_178:\n      mload(0x40)\n      dup1\n      swap2\n      sub\n      swap1\n      revert\n    tag_177:\n        /* \"voilation.sol\":1720:1724  true */\n      0x01\n        /* \"voilation.sol\":1689:1704  authorizedTeams */\n      dup1\n        /* \"voilation.sol\":1689:1717  authorizedTeams[teamAddress] */\n      0x00\n        /* \"voilation.sol\":1705:1716  teamAddress */\n      dup4\n        /* \"voilation.sol\":1689:1717  authorizedTeams[teamAddress] */\n      0xffffffffffffffffffffffffffffffffffffffff\n      and\n      0xffffffffffffffffffffffffffffffffffffffff\n      and\n      dup2\n      mstore\n      0x20\n      add\n      swap1\n      dup2\n      mstore\n      0x20\n      add\n      0x00\n      keccak256\n      0x00\n        /* \"voilation.sol\":1689:1724  authorizedTeams[teamAddress] = true */\n      0x0100\n      exp\n      dup2\n      sload\n      dup2\n      0xff\n      mul\n      not\n      and\n      swap1\n      dup4\n      iszero\n      iszero\n      mul\n      or\n      swap1\n      sstore\n      pop\n        /* \"voilation.sol\":1739:1771  AuthorizedTeamAdded(teamAddress) */\n      0xc96b482d82830f7e383d0f446c464f3c02249984e5de3574846645e8cb37d7ba\n        /* \"voilation.sol\":1759:1770  teamAddress */\n      dup2\n        /* \"voilation.sol\":1739:1771  AuthorizedTeamAdded(teamAddress) */\n      mload(0x40)\n      tag_181\n      swap2\n      swap1\n      tag_48\n      jump\t// in\n    tag_181:\n      mload(0x40)\n      dup1\n      swap2\n      sub\n      swap1\n      log1\n        /* \"voilation.sol\":1614:1778  function addAuthorizedTeam(address teamAddress) public onlyOwner {... */\n      pop\n      jump\t// out\n        /* \"voilation.sol\":3079:3238  function updateRoadCharge(uint256 _newRoadCharge) public onlyOwner {... */\n    tag_64:\n        /* \"voilation.sol\":1141:1146  owner */\n      0x00\n      dup1\n      sload\n      swap1\n      0x0100\n      exp\n      swap1\n      div\n      0xffffffffffffffffffffffffffffffffffffffff\n      and\n        /* \"voilation.sol\":1127:1146  msg.sender == owner */\n      0xffffffffffffffffffffffffffffffffffffffff\n      and\n        /* \"voilation.sol\":1127:1137  msg.sender */\n      caller\n        /* \"voilation.sol\":1127:1146  msg.sender == owner */\n      0xffffffffffffffffffffffffffffffffffffffff\n      and\n      eq\n        /* \"voilation.sol\":1119:1199  require(msg.sender == owner, \"Unauthorized: Only owner can perform this action\") */\n      tag_183\n      jumpi\n      mload(0x40)\n      0x08c379a000000000000000000000000000000000000000000000000000000000\n      dup2\n      mstore\n      0x04\n      add\n      tag_184\n      swap1\n      tag_179\n      jump\t// in\n    tag_184:\n      mload(0x40)\n      dup1\n      swap2\n      sub\n      swap1\n      revert\n    tag_183:\n        /* \"voilation.sol\":3169:3183  _newRoadCharge */\n      dup1\n        /* \"voilation.sol\":3156:3166  roadCharge */\n      0x04\n        /* \"voilation.sol\":3156:3183  roadCharge = _newRoadCharge */\n      dup2\n      swap1\n      sstore\n      pop\n        /* \"voilation.sol\":3198:3231  RoadChargeUpdated(_newRoadCharge) */\n      0xb5d1625b4fa3506b61c8fb05acf8d2c0b97dc5a3c71927e0b6cecf630b9395a5\n        /* \"voilation.sol\":3216:3230  _newRoadCharge */\n      dup2\n        /* \"voilation.sol\":3198:3231  RoadChargeUpdated(_newRoadCharge) */\n      mload(0x40)\n      tag_186\n      swap2\n      swap1\n      tag_34\n      jump\t// in\n    tag_186:\n      mload(0x40)\n      dup1\n      swap2\n      sub\n      swap1\n      log1\n        /* \"voilation.sol\":3079:3238  function updateRoadCharge(uint256 _newRoadCharge) public onlyOwner {... */\n      pop\n      jump\t// out\n        /* \"voilation.sol\":1380:1608  function transferOwnership(address newOwner) public onlyOwner {... */\n    tag_67:\n        /* \"voilation.sol\":1141:1146  owner */\n      0x00\n      dup1\n      sload\n      swap1\n      0x0100\n      exp\n      swap1\n      div\n      0xffffffffffffffffffffffffffffffffffffffff\n      and\n        /* \"voilation.sol\":1127:1146  msg.sender == owner */\n      0xffffffffffffffffffffffffffffffffffffffff\n      and\n        /* \"voilation.sol\":1127:1137  msg.sender */\n      caller\n        /* \"voilation.sol\":1127:1146  msg.sender == owner */\n      0xffffffffffffffffffffffffffffffffffffffff\n      and\n      eq\n        /* \"voilation.sol\":1119:1199  require(msg.sender == owner, \"Unauthorized: Only owner can perform this action\") */\n      tag_188\n      jumpi\n      mload(0x40)\n      0x08c379a000000000000000000000000000000000000000000000000000000000\n      dup2\n      mstore\n      0x04\n      add\n      tag_189\n      swap1\n      tag_179\n      jump\t// in\n    tag_189:\n      mload(0x40)\n      dup1\n      swap2\n      sub\n      swap1\n      revert\n    tag_188:\n        /* \"voilation.sol\":1480:1481  0 */\n      0x00\n        /* \"voilation.sol\":1460:1482  newOwner != address(0) */\n      0xffffffffffffffffffffffffffffffffffffffff\n      and\n        /* \"voilation.sol\":1460:1468  newOwner */\n      dup2\n        /* \"voilation.sol\":1460:1482  newOwner != address(0) */\n      0xffffffffffffffffffffffffffffffffffffffff\n      and\n      sub\n        /* \"voilation.sol\":1452:1523  require(newOwner != address(0), \"New owner cannot be the zero address\") */\n      tag_191\n      jumpi\n      mload(0x40)\n      0x08c379a000000000000000000000000000000000000000000000000000000000\n      dup2\n      mstore\n      0x04\n      add\n      tag_192\n      swap1\n      tag_193\n      jump\t// in\n    tag_192:\n      mload(0x40)\n      dup1\n      swap2\n      sub\n      swap1\n      revert\n    tag_191:\n        /* \"voilation.sol\":1566:1574  newOwner */\n      dup1\n        /* \"voilation.sol\":1538:1575  OwnershipTransferred(owner, newOwner) */\n      0xffffffffffffffffffffffffffffffffffffffff\n      and\n        /* \"voilation.sol\":1559:1564  owner */\n      0x00\n      dup1\n      sload\n      swap1\n      0x0100\n      exp\n      swap1\n      div\n      0xffffffffffffffffffffffffffffffffffffffff\n      and\n        /* \"voilation.sol\":1538:1575  OwnershipTransferred(owner, newOwner) */\n      0xffffffffffffffffffffffffffffffffffffffff\n      and\n      0x8be0079c531659141344cd1fd0a4f28419497f9722a3daafe3b4186f6b6457e0\n      mload(0x40)\n      mload(0x40)\n      dup1\n      swap2\n      sub\n      swap1\n      log3\n        /* \"voilation.sol\":1593:1601  newOwner */\n      dup1\n        /* \"voilation.sol\":1585:1590  owner */\n      0x00\n      dup1\n        /* \"voilation.sol\":1585:1601  owner = newOwner */\n      0x0100\n      exp\n      dup2\n      sload\n      dup2\n      0xffffffffffffffffffffffffffffffffffffffff\n      mul\n      not\n      and\n      swap1\n      dup4\n      0xffffffffffffffffffffffffffffffffffffffff\n      and\n      mul\n      or\n      swap1\n      sstore\n      pop\n        /* \"voilation.sol\":1380:1608  function transferOwnership(address newOwner) public onlyOwner {... */\n      pop\n      jump\t// out\n        /* \"voilation.sol\":514:563  mapping(address => bool) public authorizedMembers */\n    tag_70:\n      mstore(0x20, 0x02)\n      dup1\n      0x00\n      mstore\n      keccak256(0x00, 0x40)\n      0x00\n      swap2\n      pop\n      sload\n      swap1\n      0x0100\n      exp\n      swap1\n      div\n      0xff\n      and\n      dup2\n      jump\t// out\n        /* \"#utility.yul\":7:82   */\n    tag_194:\n        /* \"#utility.yul\":40:46   */\n      0x00\n        /* \"#utility.yul\":73:75   */\n      0x40\n        /* \"#utility.yul\":67:76   */\n      mload\n        /* \"#utility.yul\":57:76   */\n      swap1\n      pop\n        /* \"#utility.yul\":7:82   */\n      swap1\n      jump\t// out\n        /* \"#utility.yul\":88:205   */\n    tag_195:\n        /* \"#utility.yul\":197:198   */\n      0x00\n        /* \"#utility.yul\":194:195   */\n      dup1\n        /* \"#utility.yul\":187:199   */\n      revert\n        /* \"#utility.yul\":211:328   */\n    tag_196:\n        /* \"#utility.yul\":320:321   */\n      0x00\n        /* \"#utility.yul\":317:318   */\n      dup1\n        /* \"#utility.yul\":310:322   */\n      revert\n        /* \"#utility.yul\":334:460   */\n    tag_197:\n        /* \"#utility.yul\":371:378   */\n      0x00\n        /* \"#utility.yul\":411:453   */\n      0xffffffffffffffffffffffffffffffffffffffff\n        /* \"#utility.yul\":404:409   */\n      dup3\n        /* \"#utility.yul\":400:454   */\n      and\n        /* \"#utility.yul\":389:454   */\n      swap1\n      pop\n        /* \"#utility.yul\":334:460   */\n      swap2\n      swap1\n      pop\n      jump\t// out\n        /* \"#utility.yul\":466:562   */\n    tag_198:\n        /* \"#utility.yul\":503:510   */\n      0x00\n        /* \"#utility.yul\":532:556   */\n      tag_264\n        /* \"#utility.yul\":550:555   */\n      dup3\n        /* \"#utility.yul\":532:556   */\n      tag_197\n      jump\t// in\n    tag_264:\n        /* \"#utility.yul\":521:556   */\n      swap1\n      pop\n        /* \"#utility.yul\":466:562   */\n      swap2\n      swap1\n      pop\n      jump\t// out\n        /* \"#utility.yul\":568:690   */\n    tag_199:\n        /* \"#utility.yul\":641:665   */\n      tag_266\n        /* \"#utility.yul\":659:664   */\n      dup2\n        /* \"#utility.yul\":641:665   */\n      tag_198\n      jump\t// in\n    tag_266:\n        /* \"#utility.yul\":634:639   */\n      dup2\n        /* \"#utility.yul\":631:666   */\n      eq\n        /* \"#utility.yul\":621:684   */\n      tag_267\n      jumpi\n        /* \"#utility.yul\":680:681   */\n      0x00\n        /* \"#utility.yul\":677:678   */\n      dup1\n        /* \"#utility.yul\":670:682   */\n      revert\n        /* \"#utility.yul\":621:684   */\n    tag_267:\n        /* \"#utility.yul\":568:690   */\n      pop\n      jump\t// out\n        /* \"#utility.yul\":696:835   */\n    tag_200:\n        /* \"#utility.yul\":742:747   */\n      0x00\n        /* \"#utility.yul\":780:786   */\n      dup2\n        /* \"#utility.yul\":767:787   */\n      calldataload\n        /* \"#utility.yul\":758:787   */\n      swap1\n      pop\n        /* \"#utility.yul\":796:829   */\n      tag_269\n        /* \"#utility.yul\":823:828   */\n      dup2\n        /* \"#utility.yul\":796:829   */\n      tag_199\n      jump\t// in\n    tag_269:\n        /* \"#utility.yul\":696:835   */\n      swap3\n      swap2\n      pop\n      pop\n      jump\t// out\n        /* \"#utility.yul\":841:1170   */\n    tag_20:\n        /* \"#utility.yul\":900:906   */\n      0x00\n        /* \"#utility.yul\":949:951   */\n      0x20\n        /* \"#utility.yul\":937:946   */\n      dup3\n        /* \"#utility.yul\":928:935   */\n      dup5\n        /* \"#utility.yul\":924:947   */\n      sub\n        /* \"#utility.yul\":920:952   */\n      slt\n        /* \"#utility.yul\":917:1036   */\n      iszero\n      tag_271\n      jumpi\n        /* \"#utility.yul\":955:1034   */\n      tag_272\n      tag_195\n      jump\t// in\n    tag_272:\n        /* \"#utility.yul\":917:1036   */\n    tag_271:\n        /* \"#utility.yul\":1075:1076   */\n      0x00\n        /* \"#utility.yul\":1100:1153   */\n      tag_273\n        /* \"#utility.yul\":1145:1152   */\n      dup5\n        /* \"#utility.yul\":1136:1142   */\n      dup3\n        /* \"#utility.yul\":1125:1134   */\n      dup6\n        /* \"#utility.yul\":1121:1143   */\n      add\n        /* \"#utility.yul\":1100:1153   */\n      tag_200\n      jump\t// in\n    tag_273:\n        /* \"#utility.yul\":1090:1153   */\n      swap2\n      pop\n        /* \"#utility.yul\":1046:1163   */\n      pop\n        /* \"#utility.yul\":841:1170   */\n      swap3\n      swap2\n      pop\n      pop\n      jump\t// out\n        /* \"#utility.yul\":1176:1266   */\n    tag_201:\n        /* \"#utility.yul\":1210:1217   */\n      0x00\n        /* \"#utility.yul\":1253:1258   */\n      dup2\n        /* \"#utility.yul\":1246:1259   */\n      iszero\n        /* \"#utility.yul\":1239:1260   */\n      iszero\n        /* \"#utility.yul\":1228:1260   */\n      swap1\n      pop\n        /* \"#utility.yul\":1176:1266   */\n      swap2\n      swap1\n      pop\n      jump\t// out\n        /* \"#utility.yul\":1272:1381   */\n    tag_202:\n        /* \"#utility.yul\":1353:1374   */\n      tag_276\n        /* \"#utility.yul\":1368:1373   */\n      dup2\n        /* \"#utility.yul\":1353:1374   */\n      tag_201\n      jump\t// in\n    tag_276:\n        /* \"#utility.yul\":1348:1351   */\n      dup3\n        /* \"#utility.yul\":1341:1375   */\n      mstore\n        /* \"#utility.yul\":1272:1381   */\n      pop\n      pop\n      jump\t// out\n        /* \"#utility.yul\":1387:1597   */\n    tag_23:\n        /* \"#utility.yul\":1474:1478   */\n      0x00\n        /* \"#utility.yul\":1512:1514   */\n      0x20\n        /* \"#utility.yul\":1501:1510   */\n      dup3\n        /* \"#utility.yul\":1497:1515   */\n      add\n        /* \"#utility.yul\":1489:1515   */\n      swap1\n      pop\n        /* \"#utility.yul\":1525:1590   */\n      tag_278\n        /* \"#utility.yul\":1587:1588   */\n      0x00\n        /* \"#utility.yul\":1576:1585   */\n      dup4\n        /* \"#utility.yul\":1572:1589   */\n      add\n        /* \"#utility.yul\":1563:1569   */\n      dup5\n        /* \"#utility.yul\":1525:1590   */\n      tag_202\n      jump\t// in\n    tag_278:\n        /* \"#utility.yul\":1387:1597   */\n      swap3\n      swap2\n      pop\n      pop\n      jump\t// out\n        /* \"#utility.yul\":1603:1680   */\n    tag_203:\n        /* \"#utility.yul\":1640:1647   */\n      0x00\n        /* \"#utility.yul\":1669:1674   */\n      dup2\n        /* \"#utility.yul\":1658:1674   */\n      swap1\n      pop\n        /* \"#utility.yul\":1603:1680   */\n      swap2\n      swap1\n      pop\n      jump\t// out\n        /* \"#utility.yul\":1686:1808   */\n    tag_204:\n        /* \"#utility.yul\":1759:1783   */\n      tag_281\n        /* \"#utility.yul\":1777:1782   */\n      dup2\n        /* \"#utility.yul\":1759:1783   */\n      tag_203\n      jump\t// in\n    tag_281:\n        /* \"#utility.yul\":1752:1757   */\n      dup2\n        /* \"#utility.yul\":1749:1784   */\n      eq\n        /* \"#utility.yul\":1739:1802   */\n      tag_282\n      jumpi\n        /* \"#utility.yul\":1798:1799   */\n      0x00\n        /* \"#utility.yul\":1795:1796   */\n      dup1\n        /* \"#utility.yul\":1788:1800   */\n      revert\n        /* \"#utility.yul\":1739:1802   */\n    tag_282:\n        /* \"#utility.yul\":1686:1808   */\n      pop\n      jump\t// out\n        /* \"#utility.yul\":1814:1953   */\n    tag_205:\n        /* \"#utility.yul\":1860:1865   */\n      0x00\n        /* \"#utility.yul\":1898:1904   */\n      dup2\n        /* \"#utility.yul\":1885:1905   */\n      calldataload\n        /* \"#utility.yul\":1876:1905   */\n      swap1\n      pop\n        /* \"#utility.yul\":1914:1947   */\n      tag_284\n        /* \"#utility.yul\":1941:1946   */\n      dup2\n        /* \"#utility.yul\":1914:1947   */\n      tag_204\n      jump\t// in\n    tag_284:\n        /* \"#utility.yul\":1814:1953   */\n      swap3\n      swap2\n      pop\n      pop\n      jump\t// out\n        /* \"#utility.yul\":1959:2076   */\n    tag_206:\n        /* \"#utility.yul\":2068:2069   */\n      0x00\n        /* \"#utility.yul\":2065:2066   */\n      dup1\n        /* \"#utility.yul\":2058:2070   */\n      revert\n        /* \"#utility.yul\":2082:2199   */\n    tag_207:\n        /* \"#utility.yul\":2191:2192   */\n      0x00\n        /* \"#utility.yul\":2188:2189   */\n      dup1\n        /* \"#utility.yul\":2181:2193   */\n      revert\n        /* \"#utility.yul\":2205:2307   */\n    tag_208:\n        /* \"#utility.yul\":2246:2252   */\n      0x00\n        /* \"#utility.yul\":2297:2299   */\n      0x1f\n        /* \"#utility.yul\":2293:2300   */\n      not\n        /* \"#utility.yul\":2288:2290   */\n      0x1f\n        /* \"#utility.yul\":2281:2286   */\n      dup4\n        /* \"#utility.yul\":2277:2291   */\n      add\n        /* \"#utility.yul\":2273:2301   */\n      and\n        /* \"#utility.yul\":2263:2301   */\n      swap1\n      pop\n        /* \"#utility.yul\":2205:2307   */\n      swap2\n      swap1\n      pop\n      jump\t// out\n        /* \"#utility.yul\":2313:2493   */\n    tag_209:\n        /* \"#utility.yul\":2361:2438   */\n      0x4e487b7100000000000000000000000000000000000000000000000000000000\n        /* \"#utility.yul\":2358:2359   */\n      0x00\n        /* \"#utility.yul\":2351:2439   */\n      mstore\n        /* \"#utility.yul\":2458:2462   */\n      0x41\n        /* \"#utility.yul\":2455:2456   */\n      0x04\n        /* \"#utility.yul\":2448:2463   */\n      mstore\n        /* \"#utility.yul\":2482:2486   */\n      0x24\n        /* \"#utility.yul\":2479:2480   */\n      0x00\n        /* \"#utility.yul\":2472:2487   */\n      revert\n        /* \"#utility.yul\":2499:2780   */\n    tag_210:\n        /* \"#utility.yul\":2582:2609   */\n      tag_290\n        /* \"#utility.yul\":2604:2608   */\n      dup3\n        /* \"#utility.yul\":2582:2609   */\n      tag_208\n      jump\t// in\n    tag_290:\n        /* \"#utility.yul\":2574:2580   */\n      dup2\n        /* \"#utility.yul\":2570:2610   */\n      add\n        /* \"#utility.yul\":2712:2718   */\n      dup2\n        /* \"#utility.yul\":2700:2710   */\n      dup2\n        /* \"#utility.yul\":2697:2719   */\n      lt\n        /* \"#utility.yul\":2676:2694   */\n      0xffffffffffffffff\n        /* \"#utility.yul\":2664:2674   */\n      dup3\n        /* \"#utility.yul\":2661:2695   */\n      gt\n        /* \"#utility.yul\":2658:2720   */\n      or\n        /* \"#utility.yul\":2655:2743   */\n      iszero\n      tag_291\n      jumpi\n        /* \"#utility.yul\":2723:2741   */\n      tag_292\n      tag_209\n      jump\t// in\n    tag_292:\n        /* \"#utility.yul\":2655:2743   */\n    tag_291:\n        /* \"#utility.yul\":2763:2773   */\n      dup1\n        /* \"#utility.yul\":2759:2761   */\n      0x40\n        /* \"#utility.yul\":2752:2774   */\n      mstore\n        /* \"#utility.yul\":2542:2780   */\n      pop\n        /* \"#utility.yul\":2499:2780   */\n      pop\n      pop\n      jump\t// out\n        /* \"#utility.yul\":2786:2915   */\n    tag_211:\n        /* \"#utility.yul\":2820:2826   */\n      0x00\n        /* \"#utility.yul\":2847:2867   */\n      tag_294\n      tag_194\n      jump\t// in\n    tag_294:\n        /* \"#utility.yul\":2837:2867   */\n      swap1\n      pop\n        /* \"#utility.yul\":2876:2909   */\n      tag_295\n        /* \"#utility.yul\":2904:2908   */\n      dup3\n        /* \"#utility.yul\":2896:2902   */\n      dup3\n        /* \"#utility.yul\":2876:2909   */\n      tag_210\n      jump\t// in\n    tag_295:\n        /* \"#utility.yul\":2786:2915   */\n      swap2\n      swap1\n      pop\n      jump\t// out\n        /* \"#utility.yul\":2921:3229   */\n    tag_212:\n        /* \"#utility.yul\":2983:2987   */\n      0x00\n        /* \"#utility.yul\":3073:3091   */\n      0xffffffffffffffff\n        /* \"#utility.yul\":3065:3071   */\n      dup3\n        /* \"#utility.yul\":3062:3092   */\n      gt\n        /* \"#utility.yul\":3059:3115   */\n      iszero\n      tag_297\n      jumpi\n        /* \"#utility.yul\":3095:3113   */\n      tag_298\n      tag_209\n      jump\t// in\n    tag_298:\n        /* \"#utility.yul\":3059:3115   */\n    tag_297:\n        /* \"#utility.yul\":3133:3162   */\n      tag_299\n        /* \"#utility.yul\":3155:3161   */\n      dup3\n        /* \"#utility.yul\":3133:3162   */\n      tag_208\n      jump\t// in\n    tag_299:\n        /* \"#utility.yul\":3125:3162   */\n      swap1\n      pop\n        /* \"#utility.yul\":3217:3221   */\n      0x20\n        /* \"#utility.yul\":3211:3215   */\n      dup2\n        /* \"#utility.yul\":3207:3222   */\n      add\n        /* \"#utility.yul\":3199:3222   */\n      swap1\n      pop\n        /* \"#utility.yul\":2921:3229   */\n      swap2\n      swap1\n      pop\n      jump\t// out\n        /* \"#utility.yul\":3235:3381   */\n    tag_213:\n        /* \"#utility.yul\":3332:3338   */\n      dup3\n        /* \"#utility.yul\":3327:3330   */\n      dup2\n        /* \"#utility.yul\":3322:3325   */\n      dup4\n        /* \"#utility.yul\":3309:3339   */\n      calldatacopy\n        /* \"#utility.yul\":3373:3374   */\n      0x00\n        /* \"#utility.yul\":3364:3370   */\n      dup4\n        /* \"#utility.yul\":3359:3362   */\n      dup4\n        /* \"#utility.yul\":3355:3371   */\n      add\n        /* \"#utility.yul\":3348:3375   */\n      mstore\n        /* \"#utility.yul\":3235:3381   */\n      pop\n      pop\n      pop\n      jump\t// out\n        /* \"#utility.yul\":3387:3812   */\n    tag_214:\n        /* \"#utility.yul\":3465:3470   */\n      0x00\n        /* \"#utility.yul\":3490:3556   */\n      tag_302\n        /* \"#utility.yul\":3506:3555   */\n      tag_303\n        /* \"#utility.yul\":3548:3554   */\n      dup5\n        /* \"#utility.yul\":3506:3555   */\n      tag_212\n      jump\t// in\n    tag_303:\n        /* \"#utility.yul\":3490:3556   */\n      tag_211\n      jump\t// in\n    tag_302:\n        /* \"#utility.yul\":3481:3556   */\n      swap1\n      pop\n        /* \"#utility.yul\":3579:3585   */\n      dup3\n        /* \"#utility.yul\":3572:3577   */\n      dup2\n        /* \"#utility.yul\":3565:3586   */\n      mstore\n        /* \"#utility.yul\":3617:3621   */\n      0x20\n        /* \"#utility.yul\":3610:3615   */\n      dup2\n        /* \"#utility.yul\":3606:3622   */\n      add\n        /* \"#utility.yul\":3655:3658   */\n      dup5\n        /* \"#utility.yul\":3646:3652   */\n      dup5\n        /* \"#utility.yul\":3641:3644   */\n      dup5\n        /* \"#utility.yul\":3637:3653   */\n      add\n        /* \"#utility.yul\":3634:3659   */\n      gt\n        /* \"#utility.yul\":3631:3743   */\n      iszero\n      tag_304\n      jumpi\n        /* \"#utility.yul\":3662:3741   */\n      tag_305\n      tag_207\n      jump\t// in\n    tag_305:\n        /* \"#utility.yul\":3631:3743   */\n    tag_304:\n        /* \"#utility.yul\":3752:3806   */\n      tag_306\n        /* \"#utility.yul\":3799:3805   */\n      dup5\n        /* \"#utility.yul\":3794:3797   */\n      dup3\n        /* \"#utility.yul\":3789:3792   */\n      dup6\n        /* \"#utility.yul\":3752:3806   */\n      tag_213\n      jump\t// in\n    tag_306:\n        /* \"#utility.yul\":3471:3812   */\n      pop\n        /* \"#utility.yul\":3387:3812   */\n      swap4\n      swap3\n      pop\n      pop\n      pop\n      jump\t// out\n        /* \"#utility.yul\":3832:4172   */\n    tag_215:\n        /* \"#utility.yul\":3888:3893   */\n      0x00\n        /* \"#utility.yul\":3937:3940   */\n      dup3\n        /* \"#utility.yul\":3930:3934   */\n      0x1f\n        /* \"#utility.yul\":3922:3928   */\n      dup4\n        /* \"#utility.yul\":3918:3935   */\n      add\n        /* \"#utility.yul\":3914:3941   */\n      slt\n        /* \"#utility.yul\":3904:4026   */\n      tag_308\n      jumpi\n        /* \"#utility.yul\":3945:4024   */\n      tag_309\n      tag_206\n      jump\t// in\n    tag_309:\n        /* \"#utility.yul\":3904:4026   */\n    tag_308:\n        /* \"#utility.yul\":4062:4068   */\n      dup2\n        /* \"#utility.yul\":4049:4069   */\n      calldataload\n        /* \"#utility.yul\":4087:4166   */\n      tag_310\n        /* \"#utility.yul\":4162:4165   */\n      dup5\n        /* \"#utility.yul\":4154:4160   */\n      dup3\n        /* \"#utility.yul\":4147:4151   */\n      0x20\n        /* \"#utility.yul\":4139:4145   */\n      dup7\n        /* \"#utility.yul\":4135:4152   */\n      add\n        /* \"#utility.yul\":4087:4166   */\n      tag_214\n      jump\t// in\n    tag_310:\n        /* \"#utility.yul\":4078:4166   */\n      swap2\n      pop\n        /* \"#utility.yul\":3894:4172   */\n      pop\n        /* \"#utility.yul\":3832:4172   */\n      swap3\n      swap2\n      pop\n      pop\n      jump\t// out\n        /* \"#utility.yul\":4178:6573   */\n    tag_29:\n        /* \"#utility.yul\":4359:4365   */\n      0x00\n        /* \"#utility.yul\":4367:4373   */\n      dup1\n        /* \"#utility.yul\":4375:4381   */\n      0x00\n        /* \"#utility.yul\":4383:4389   */\n      dup1\n        /* \"#utility.yul\":4391:4397   */\n      0x00\n        /* \"#utility.yul\":4399:4405   */\n      dup1\n        /* \"#utility.yul\":4407:4413   */\n      0x00\n        /* \"#utility.yul\":4415:4421   */\n      dup1\n        /* \"#utility.yul\":4423:4429   */\n      0x00\n        /* \"#utility.yul\":4472:4475   */\n      0x0120\n        /* \"#utility.yul\":4460:4469   */\n      dup11\n        /* \"#utility.yul\":4451:4458   */\n      dup13\n        /* \"#utility.yul\":4447:4470   */\n      sub\n        /* \"#utility.yul\":4443:4476   */\n      slt\n        /* \"#utility.yul\":4440:4560   */\n      iszero\n      tag_312\n      jumpi\n        /* \"#utility.yul\":4479:4558   */\n      tag_313\n      tag_195\n      jump\t// in\n    tag_313:\n        /* \"#utility.yul\":4440:4560   */\n    tag_312:\n        /* \"#utility.yul\":4599:4600   */\n      0x00\n        /* \"#utility.yul\":4624:4677   */\n      tag_314\n        /* \"#utility.yul\":4669:4676   */\n      dup13\n        /* \"#utility.yul\":4660:4666   */\n      dup3\n        /* \"#utility.yul\":4649:4658   */\n      dup14\n        /* \"#utility.yul\":4645:4667   */\n      add\n        /* \"#utility.yul\":4624:4677   */\n      tag_205\n      jump\t// in\n    tag_314:\n        /* \"#utility.yul\":4614:4677   */\n      swap10\n      pop\n        /* \"#utility.yul\":4570:4687   */\n      pop\n        /* \"#utility.yul\":4754:4756   */\n      0x20\n        /* \"#utility.yul\":4743:4752   */\n      dup11\n        /* \"#utility.yul\":4739:4757   */\n      add\n        /* \"#utility.yul\":4726:4758   */\n      calldataload\n        /* \"#utility.yul\":4785:4803   */\n      0xffffffffffffffff\n        /* \"#utility.yul\":4777:4783   */\n      dup2\n        /* \"#utility.yul\":4774:4804   */\n      gt\n        /* \"#utility.yul\":4771:4888   */\n      iszero\n      tag_315\n      jumpi\n        /* \"#utility.yul\":4807:4886   */\n      tag_316\n      tag_196\n      jump\t// in\n    tag_316:\n        /* \"#utility.yul\":4771:4888   */\n    tag_315:\n        /* \"#utility.yul\":4912:4975   */\n      tag_317\n        /* \"#utility.yul\":4967:4974   */\n      dup13\n        /* \"#utility.yul\":4958:4964   */\n      dup3\n        /* \"#utility.yul\":4947:4956   */\n      dup14\n        /* \"#utility.yul\":4943:4965   */\n      add\n        /* \"#utility.yul\":4912:4975   */\n      tag_215\n      jump\t// in\n    tag_317:\n        /* \"#utility.yul\":4902:4975   */\n      swap9\n      pop\n        /* \"#utility.yul\":4697:4985   */\n      pop\n        /* \"#utility.yul\":5024:5026   */\n      0x40\n        /* \"#utility.yul\":5050:5103   */\n      tag_318\n        /* \"#utility.yul\":5095:5102   */\n      dup13\n        /* \"#utility.yul\":5086:5092   */\n      dup3\n        /* \"#utility.yul\":5075:5084   */\n      dup14\n        /* \"#utility.yul\":5071:5093   */\n      add\n        /* \"#utility.yul\":5050:5103   */\n      tag_205\n      jump\t// in\n    tag_318:\n        /* \"#utility.yul\":5040:5103   */\n      swap8\n      pop\n        /* \"#utility.yul\":4995:5113   */\n      pop\n        /* \"#utility.yul\":5180:5182   */\n      0x60\n        /* \"#utility.yul\":5169:5178   */\n      dup11\n        /* \"#utility.yul\":5165:5183   */\n      add\n        /* \"#utility.yul\":5152:5184   */\n      calldataload\n        /* \"#utility.yul\":5211:5229   */\n      0xffffffffffffffff\n        /* \"#utility.yul\":5203:5209   */\n      dup2\n        /* \"#utility.yul\":5200:5230   */\n      gt\n        /* \"#utility.yul\":5197:5314   */\n      iszero\n      tag_319\n      jumpi\n        /* \"#utility.yul\":5233:5312   */\n      tag_320\n      tag_196\n      jump\t// in\n    tag_320:\n        /* \"#utility.yul\":5197:5314   */\n    tag_319:\n        /* \"#utility.yul\":5338:5401   */\n      tag_321\n        /* \"#utility.yul\":5393:5400   */\n      dup13\n        /* \"#utility.yul\":5384:5390   */\n      dup3\n        /* \"#utility.yul\":5373:5382   */\n      dup14\n        /* \"#utility.yul\":5369:5391   */\n      add\n        /* \"#utility.yul\":5338:5401   */\n      tag_215\n      jump\t// in\n    tag_321:\n        /* \"#utility.yul\":5328:5401   */\n      swap7\n      pop\n        /* \"#utility.yul\":5123:5411   */\n      pop\n        /* \"#utility.yul\":5478:5481   */\n      0x80\n        /* \"#utility.yul\":5467:5476   */\n      dup11\n        /* \"#utility.yul\":5463:5482   */\n      add\n        /* \"#utility.yul\":5450:5483   */\n      calldataload\n        /* \"#utility.yul\":5510:5528   */\n      0xffffffffffffffff\n        /* \"#utility.yul\":5502:5508   */\n      dup2\n        /* \"#utility.yul\":5499:5529   */\n      gt\n        /* \"#utility.yul\":5496:5613   */\n      iszero\n      tag_322\n      jumpi\n        /* \"#utility.yul\":5532:5611   */\n      tag_323\n      tag_196\n      jump\t// in\n    tag_323:\n        /* \"#utility.yul\":5496:5613   */\n    tag_322:\n        /* \"#utility.yul\":5637:5700   */\n      tag_324\n        /* \"#utility.yul\":5692:5699   */\n      dup13\n        /* \"#utility.yul\":5683:5689   */\n      dup3\n        /* \"#utility.yul\":5672:5681   */\n      dup14\n        /* \"#utility.yul\":5668:5690   */\n      add\n        /* \"#utility.yul\":5637:5700   */\n      tag_215\n      jump\t// in\n    tag_324:\n        /* \"#utility.yul\":5627:5700   */\n      swap6\n      pop\n        /* \"#utility.yul\":5421:5710   */\n      pop\n        /* \"#utility.yul\":5749:5752   */\n      0xa0\n        /* \"#utility.yul\":5776:5829   */\n      tag_325\n        /* \"#utility.yul\":5821:5828   */\n      dup13\n        /* \"#utility.yul\":5812:5818   */\n      dup3\n        /* \"#utility.yul\":5801:5810   */\n      dup14\n        /* \"#utility.yul\":5797:5819   */\n      add\n        /* \"#utility.yul\":5776:5829   */\n      tag_205\n      jump\t// in\n    tag_325:\n        /* \"#utility.yul\":5766:5829   */\n      swap5\n      pop\n        /* \"#utility.yul\":5720:5839   */\n      pop\n        /* \"#utility.yul\":5906:5909   */\n      0xc0\n        /* \"#utility.yul\":5895:5904   */\n      dup11\n        /* \"#utility.yul\":5891:5910   */\n      add\n        /* \"#utility.yul\":5878:5911   */\n      calldataload\n        /* \"#utility.yul\":5938:5956   */\n      0xffffffffffffffff\n        /* \"#utility.yul\":5930:5936   */\n      dup2\n        /* \"#utility.yul\":5927:5957   */\n      gt\n        /* \"#utility.yul\":5924:6041   */\n      iszero\n      tag_326\n      jumpi\n        /* \"#utility.yul\":5960:6039   */\n      tag_327\n      tag_196\n      jump\t// in\n    tag_327:\n        /* \"#utility.yul\":5924:6041   */\n    tag_326:\n        /* \"#utility.yul\":6065:6128   */\n      tag_328\n        /* \"#utility.yul\":6120:6127   */\n      dup13\n        /* \"#utility.yul\":6111:6117   */\n      dup3\n        /* \"#utility.yul\":6100:6109   */\n      dup14\n        /* \"#utility.yul\":6096:6118   */\n      add\n        /* \"#utility.yul\":6065:6128   */\n      tag_215\n      jump\t// in\n    tag_328:\n        /* \"#utility.yul\":6055:6128   */\n      swap4\n      pop\n        /* \"#utility.yul\":5849:6138   */\n      pop\n        /* \"#utility.yul\":6177:6180   */\n      0xe0\n        /* \"#utility.yul\":6204:6257   */\n      tag_329\n        /* \"#utility.yul\":6249:6256   */\n      dup13\n        /* \"#utility.yul\":6240:6246   */\n      dup3\n        /* \"#utility.yul\":6229:6238   */\n      dup14\n        /* \"#utility.yul\":6225:6247   */\n      add\n        /* \"#utility.yul\":6204:6257   */\n      tag_205\n      jump\t// in\n    tag_329:\n        /* \"#utility.yul\":6194:6257   */\n      swap3\n      pop\n        /* \"#utility.yul\":6148:6267   */\n      pop\n        /* \"#utility.yul\":6334:6337   */\n      0x0100\n        /* \"#utility.yul\":6323:6332   */\n      dup11\n        /* \"#utility.yul\":6319:6338   */\n      add\n        /* \"#utility.yul\":6306:6339   */\n      calldataload\n        /* \"#utility.yul\":6366:6384   */\n      0xffffffffffffffff\n        /* \"#utility.yul\":6358:6364   */\n      dup2\n        /* \"#utility.yul\":6355:6385   */\n      gt\n        /* \"#utility.yul\":6352:6469   */\n      iszero\n      tag_330\n      jumpi\n        /* \"#utility.yul\":6388:6467   */\n      tag_331\n      tag_196\n      jump\t// in\n    tag_331:\n        /* \"#utility.yul\":6352:6469   */\n    tag_330:\n        /* \"#utility.yul\":6493:6556   */\n      tag_332\n        /* \"#utility.yul\":6548:6555   */\n      dup13\n        /* \"#utility.yul\":6539:6545   */\n      dup3\n        /* \"#utility.yul\":6528:6537   */\n      dup14\n        /* \"#utility.yul\":6524:6546   */\n      add\n        /* \"#utility.yul\":6493:6556   */\n      tag_215\n      jump\t// in\n    tag_332:\n        /* \"#utility.yul\":6483:6556   */\n      swap2\n      pop\n        /* \"#utility.yul\":6277:6566   */\n      pop\n        /* \"#utility.yul\":4178:6573   */\n      swap3\n      swap6\n      swap9\n      pop\n      swap3\n      swap6\n      swap9\n      pop\n      swap3\n      swap6\n      swap9\n      jump\t// out\n        /* \"#utility.yul\":6579:6697   */\n    tag_216:\n        /* \"#utility.yul\":6666:6690   */\n      tag_334\n        /* \"#utility.yul\":6684:6689   */\n      dup2\n        /* \"#utility.yul\":6666:6690   */\n      tag_203\n      jump\t// in\n    tag_334:\n        /* \"#utility.yul\":6661:6664   */\n      dup3\n        /* \"#utility.yul\":6654:6691   */\n      mstore\n        /* \"#utility.yul\":6579:6697   */\n      pop\n      pop\n      jump\t// out\n        /* \"#utility.yul\":6703:6925   */\n    tag_34:\n        /* \"#utility.yul\":6796:6800   */\n      0x00\n        /* \"#utility.yul\":6834:6836   */\n      0x20\n        /* \"#utility.yul\":6823:6832   */\n      dup3\n        /* \"#utility.yul\":6819:6837   */\n      add\n        /* \"#utility.yul\":6811:6837   */\n      swap1\n      pop\n        /* \"#utility.yul\":6847:6918   */\n      tag_336\n        /* \"#utility.yul\":6915:6916   */\n      0x00\n        /* \"#utility.yul\":6904:6913   */\n      dup4\n        /* \"#utility.yul\":6900:6917   */\n      add\n        /* \"#utility.yul\":6891:6897   */\n      dup5\n        /* \"#utility.yul\":6847:6918   */\n      tag_216\n      jump\t// in\n    tag_336:\n        /* \"#utility.yul\":6703:6925   */\n      swap3\n      swap2\n      pop\n      pop\n      jump\t// out\n        /* \"#utility.yul\":6931:7260   */\n    tag_37:\n        /* \"#utility.yul\":6990:6996   */\n      0x00\n        /* \"#utility.yul\":7039:7041   */\n      0x20\n        /* \"#utility.yul\":7027:7036   */\n      dup3\n        /* \"#utility.yul\":7018:7025   */\n      dup5\n        /* \"#utility.yul\":7014:7037   */\n      sub\n        /* \"#utility.yul\":7010:7042   */\n      slt\n        /* \"#utility.yul\":7007:7126   */\n      iszero\n      tag_338\n      jumpi\n        /* \"#utility.yul\":7045:7124   */\n      tag_339\n      tag_195\n      jump\t// in\n    tag_339:\n        /* \"#utility.yul\":7007:7126   */\n    tag_338:\n        /* \"#utility.yul\":7165:7166   */\n      0x00\n        /* \"#utility.yul\":7190:7243   */\n      tag_340\n        /* \"#utility.yul\":7235:7242   */\n      dup5\n        /* \"#utility.yul\":7226:7232   */\n      dup3\n        /* \"#utility.yul\":7215:7224   */\n      dup6\n        /* \"#utility.yul\":7211:7233   */\n      add\n        /* \"#utility.yul\":7190:7243   */\n      tag_205\n      jump\t// in\n    tag_340:\n        /* \"#utility.yul\":7180:7243   */\n      swap2\n      pop\n        /* \"#utility.yul\":7136:7253   */\n      pop\n        /* \"#utility.yul\":6931:7260   */\n      swap3\n      swap2\n      pop\n      pop\n      jump\t// out\n        /* \"#utility.yul\":7266:7405   */\n    tag_217:\n        /* \"#utility.yul\":7358:7364   */\n      0x00\n        /* \"#utility.yul\":7392:7397   */\n      dup2\n        /* \"#utility.yul\":7386:7398   */\n      mload\n        /* \"#utility.yul\":7376:7398   */\n      swap1\n      pop\n        /* \"#utility.yul\":7266:7405   */\n      swap2\n      swap1\n      pop\n      jump\t// out\n        /* \"#utility.yul\":7411:7620   */\n    tag_218:\n        /* \"#utility.yul\":7535:7546   */\n      0x00\n        /* \"#utility.yul\":7569:7575   */\n      dup3\n        /* \"#utility.yul\":7564:7567   */\n      dup3\n        /* \"#utility.yul\":7557:7576   */\n      mstore\n        /* \"#utility.yul\":7609:7613   */\n      0x20\n        /* \"#utility.yul\":7604:7607   */\n      dup3\n        /* \"#utility.yul\":7600:7614   */\n      add\n        /* \"#utility.yul\":7585:7614   */\n      swap1\n      pop\n        /* \"#utility.yul\":7411:7620   */\n      swap3\n      swap2\n      pop\n      pop\n      jump\t// out\n        /* \"#utility.yul\":7626:7783   */\n    tag_219:\n        /* \"#utility.yul\":7718:7722   */\n      0x00\n        /* \"#utility.yul\":7741:7744   */\n      dup2\n        /* \"#utility.yul\":7733:7744   */\n      swap1\n      pop\n        /* \"#utility.yul\":7771:7775   */\n      0x20\n        /* \"#utility.yul\":7766:7769   */\n      dup3\n        /* \"#utility.yul\":7762:7776   */\n      add\n        /* \"#utility.yul\":7754:7776   */\n      swap1\n      pop\n        /* \"#utility.yul\":7626:7783   */\n      swap2\n      swap1\n      pop\n      jump\t// out\n        /* \"#utility.yul\":7789:7897   */\n    tag_220:\n        /* \"#utility.yul\":7866:7890   */\n      tag_345\n        /* \"#utility.yul\":7884:7889   */\n      dup2\n        /* \"#utility.yul\":7866:7890   */\n      tag_203\n      jump\t// in\n    tag_345:\n        /* \"#utility.yul\":7861:7864   */\n      dup3\n        /* \"#utility.yul\":7854:7891   */\n      mstore\n        /* \"#utility.yul\":7789:7897   */\n      pop\n      pop\n      jump\t// out\n        /* \"#utility.yul\":7903:8002   */\n    tag_221:\n        /* \"#utility.yul\":7955:7961   */\n      0x00\n        /* \"#utility.yul\":7989:7994   */\n      dup2\n        /* \"#utility.yul\":7983:7995   */\n      mload\n        /* \"#utility.yul\":7973:7995   */\n      swap1\n      pop\n        /* \"#utility.yul\":7903:8002   */\n      swap2\n      swap1\n      pop\n      jump\t// out\n        /* \"#utility.yul\":8008:8167   */\n    tag_222:\n        /* \"#utility.yul\":8082:8093   */\n      0x00\n        /* \"#utility.yul\":8116:8122   */\n      dup3\n        /* \"#utility.yul\":8111:8114   */\n      dup3\n        /* \"#utility.yul\":8104:8123   */\n      mstore\n        /* \"#utility.yul\":8156:8160   */\n      0x20\n        /* \"#utility.yul\":8151:8154   */\n      dup3\n        /* \"#utility.yul\":8147:8161   */\n      add\n        /* \"#utility.yul\":8132:8161   */\n      swap1\n      pop\n        /* \"#utility.yul\":8008:8167   */\n      swap3\n      swap2\n      pop\n      pop\n      jump\t// out\n        /* \"#utility.yul\":8173:8419   */\n    tag_223:\n        /* \"#utility.yul\":8254:8255   */\n      0x00\n        /* \"#utility.yul\":8264:8377   */\n    tag_349:\n        /* \"#utility.yul\":8278:8284   */\n      dup4\n        /* \"#utility.yul\":8275:8276   */\n      dup2\n        /* \"#utility.yul\":8272:8285   */\n      lt\n        /* \"#utility.yul\":8264:8377   */\n      iszero\n      tag_351\n      jumpi\n        /* \"#utility.yul\":8363:8364   */\n      dup1\n        /* \"#utility.yul\":8358:8361   */\n      dup3\n        /* \"#utility.yul\":8354:8365   */\n      add\n        /* \"#utility.yul\":8348:8366   */\n      mload\n        /* \"#utility.yul\":8344:8345   */\n      dup2\n        /* \"#utility.yul\":8339:8342   */\n      dup5\n        /* \"#utility.yul\":8335:8346   */\n      add\n        /* \"#utility.yul\":8328:8367   */\n      mstore\n        /* \"#utility.yul\":8300:8302   */\n      0x20\n        /* \"#utility.yul\":8297:8298   */\n      dup2\n        /* \"#utility.yul\":8293:8303   */\n      add\n        /* \"#utility.yul\":8288:8303   */\n      swap1\n      pop\n        /* \"#utility.yul\":8264:8377   */\n      jump(tag_349)\n    tag_351:\n        /* \"#utility.yul\":8411:8412   */\n      0x00\n        /* \"#utility.yul\":8402:8408   */\n      dup5\n        /* \"#utility.yul\":8397:8400   */\n      dup5\n        /* \"#utility.yul\":8393:8409   */\n      add\n        /* \"#utility.yul\":8386:8413   */\n      mstore\n        /* \"#utility.yul\":8235:8419   */\n      pop\n        /* \"#utility.yul\":8173:8419   */\n      pop\n      pop\n      pop\n      jump\t// out\n        /* \"#utility.yul\":8425:8782   */\n    tag_224:\n        /* \"#utility.yul\":8503:8506   */\n      0x00\n        /* \"#utility.yul\":8531:8570   */\n      tag_353\n        /* \"#utility.yul\":8564:8569   */\n      dup3\n        /* \"#utility.yul\":8531:8570   */\n      tag_221\n      jump\t// in\n    tag_353:\n        /* \"#utility.yul\":8586:8647   */\n      tag_354\n        /* \"#utility.yul\":8640:8646   */\n      dup2\n        /* \"#utility.yul\":8635:8638   */\n      dup6\n        /* \"#utility.yul\":8586:8647   */\n      tag_222\n      jump\t// in\n    tag_354:\n        /* \"#utility.yul\":8579:8647   */\n      swap4\n      pop\n        /* \"#utility.yul\":8656:8721   */\n      tag_355\n        /* \"#utility.yul\":8714:8720   */\n      dup2\n        /* \"#utility.yul\":8709:8712   */\n      dup6\n        /* \"#utility.yul\":8702:8706   */\n      0x20\n        /* \"#utility.yul\":8695:8700   */\n      dup7\n        /* \"#utility.yul\":8691:8707   */\n      add\n        /* \"#utility.yul\":8656:8721   */\n      tag_223\n      jump\t// in\n    tag_355:\n        /* \"#utility.yul\":8746:8775   */\n      tag_356\n        /* \"#utility.yul\":8768:8774   */\n      dup2\n        /* \"#utility.yul\":8746:8775   */\n      tag_208\n      jump\t// in\n    tag_356:\n        /* \"#utility.yul\":8741:8744   */\n      dup5\n        /* \"#utility.yul\":8737:8776   */\n      add\n        /* \"#utility.yul\":8730:8776   */\n      swap2\n      pop\n        /* \"#utility.yul\":8507:8782   */\n      pop\n        /* \"#utility.yul\":8425:8782   */\n      swap3\n      swap2\n      pop\n      pop\n      jump\t// out\n        /* \"#utility.yul\":8876:11058   */\n    tag_225:\n        /* \"#utility.yul\":8985:8988   */\n      0x00\n        /* \"#utility.yul\":9021:9027   */\n      0x0120\n        /* \"#utility.yul\":9016:9019   */\n      dup4\n        /* \"#utility.yul\":9012:9028   */\n      add\n        /* \"#utility.yul\":9115:9119   */\n      0x00\n        /* \"#utility.yul\":9108:9113   */\n      dup4\n        /* \"#utility.yul\":9104:9120   */\n      add\n        /* \"#utility.yul\":9098:9121   */\n      mload\n        /* \"#utility.yul\":9134:9197   */\n      tag_358\n        /* \"#utility.yul\":9191:9195   */\n      0x00\n        /* \"#utility.yul\":9186:9189   */\n      dup7\n        /* \"#utility.yul\":9182:9196   */\n      add\n        /* \"#utility.yul\":9168:9180   */\n      dup3\n        /* \"#utility.yul\":9134:9197   */\n      tag_220\n      jump\t// in\n    tag_358:\n        /* \"#utility.yul\":9038:9207   */\n      pop\n        /* \"#utility.yul\":9295:9299   */\n      0x20\n        /* \"#utility.yul\":9288:9293   */\n      dup4\n        /* \"#utility.yul\":9284:9300   */\n      add\n        /* \"#utility.yul\":9278:9301   */\n      mload\n        /* \"#utility.yul\":9348:9351   */\n      dup5\n        /* \"#utility.yul\":9342:9346   */\n      dup3\n        /* \"#utility.yul\":9338:9352   */\n      sub\n        /* \"#utility.yul\":9331:9335   */\n      0x20\n        /* \"#utility.yul\":9326:9329   */\n      dup7\n        /* \"#utility.yul\":9322:9336   */\n      add\n        /* \"#utility.yul\":9315:9353   */\n      mstore\n        /* \"#utility.yul\":9374:9447   */\n      tag_359\n        /* \"#utility.yul\":9442:9446   */\n      dup3\n        /* \"#utility.yul\":9428:9440   */\n      dup3\n        /* \"#utility.yul\":9374:9447   */\n      tag_224\n      jump\t// in\n    tag_359:\n        /* \"#utility.yul\":9366:9447   */\n      swap2\n      pop\n        /* \"#utility.yul\":9217:9458   */\n      pop\n        /* \"#utility.yul\":9552:9556   */\n      0x40\n        /* \"#utility.yul\":9545:9550   */\n      dup4\n        /* \"#utility.yul\":9541:9557   */\n      add\n        /* \"#utility.yul\":9535:9558   */\n      mload\n        /* \"#utility.yul\":9571:9634   */\n      tag_360\n        /* \"#utility.yul\":9628:9632   */\n      0x40\n        /* \"#utility.yul\":9623:9626   */\n      dup7\n        /* \"#utility.yul\":9619:9633   */\n      add\n        /* \"#utility.yul\":9605:9617   */\n      dup3\n        /* \"#utility.yul\":9571:9634   */\n      tag_220\n      jump\t// in\n    tag_360:\n        /* \"#utility.yul\":9468:9644   */\n      pop\n        /* \"#utility.yul\":9736:9740   */\n      0x60\n        /* \"#utility.yul\":9729:9734   */\n      dup4\n        /* \"#utility.yul\":9725:9741   */\n      add\n        /* \"#utility.yul\":9719:9742   */\n      mload\n        /* \"#utility.yul\":9789:9792   */\n      dup5\n        /* \"#utility.yul\":9783:9787   */\n      dup3\n        /* \"#utility.yul\":9779:9793   */\n      sub\n        /* \"#utility.yul\":9772:9776   */\n      0x60\n        /* \"#utility.yul\":9767:9770   */\n      dup7\n        /* \"#utility.yul\":9763:9777   */\n      add\n        /* \"#utility.yul\":9756:9794   */\n      mstore\n        /* \"#utility.yul\":9815:9888   */\n      tag_361\n        /* \"#utility.yul\":9883:9887   */\n      dup3\n        /* \"#utility.yul\":9869:9881   */\n      dup3\n        /* \"#utility.yul\":9815:9888   */\n      tag_224\n      jump\t// in\n    tag_361:\n        /* \"#utility.yul\":9807:9888   */\n      swap2\n      pop\n        /* \"#utility.yul\":9654:9899   */\n      pop\n        /* \"#utility.yul\":9985:9989   */\n      0x80\n        /* \"#utility.yul\":9978:9983   */\n      dup4\n        /* \"#utility.yul\":9974:9990   */\n      add\n        /* \"#utility.yul\":9968:9991   */\n      mload\n        /* \"#utility.yul\":10038:10041   */\n      dup5\n        /* \"#utility.yul\":10032:10036   */\n      dup3\n        /* \"#utility.yul\":10028:10042   */\n      sub\n        /* \"#utility.yul\":10021:10025   */\n      0x80\n        /* \"#utility.yul\":10016:10019   */\n      dup7\n        /* \"#utility.yul\":10012:10026   */\n      add\n        /* \"#utility.yul\":10005:10043   */\n      mstore\n        /* \"#utility.yul\":10064:10137   */\n      tag_362\n        /* \"#utility.yul\":10132:10136   */\n      dup3\n        /* \"#utility.yul\":10118:10130   */\n      dup3\n        /* \"#utility.yul\":10064:10137   */\n      tag_224\n      jump\t// in\n    tag_362:\n        /* \"#utility.yul\":10056:10137   */\n      swap2\n      pop\n        /* \"#utility.yul\":9909:10148   */\n      pop\n        /* \"#utility.yul\":10244:10248   */\n      0xa0\n        /* \"#utility.yul\":10237:10242   */\n      dup4\n        /* \"#utility.yul\":10233:10249   */\n      add\n        /* \"#utility.yul\":10227:10250   */\n      mload\n        /* \"#utility.yul\":10263:10326   */\n      tag_363\n        /* \"#utility.yul\":10320:10324   */\n      0xa0\n        /* \"#utility.yul\":10315:10318   */\n      dup7\n        /* \"#utility.yul\":10311:10325   */\n      add\n        /* \"#utility.yul\":10297:10309   */\n      dup3\n        /* \"#utility.yul\":10263:10326   */\n      tag_220\n      jump\t// in\n    tag_363:\n        /* \"#utility.yul\":10158:10336   */\n      pop\n        /* \"#utility.yul\":10430:10434   */\n      0xc0\n        /* \"#utility.yul\":10423:10428   */\n      dup4\n        /* \"#utility.yul\":10419:10435   */\n      add\n        /* \"#utility.yul\":10413:10436   */\n      mload\n        /* \"#utility.yul\":10483:10486   */\n      dup5\n        /* \"#utility.yul\":10477:10481   */\n      dup3\n        /* \"#utility.yul\":10473:10487   */\n      sub\n        /* \"#utility.yul\":10466:10470   */\n      0xc0\n        /* \"#utility.yul\":10461:10464   */\n      dup7\n        /* \"#utility.yul\":10457:10471   */\n      add\n        /* \"#utility.yul\":10450:10488   */\n      mstore\n        /* \"#utility.yul\":10509:10582   */\n      tag_364\n        /* \"#utility.yul\":10577:10581   */\n      dup3\n        /* \"#utility.yul\":10563:10575   */\n      dup3\n        /* \"#utility.yul\":10509:10582   */\n      tag_224\n      jump\t// in\n    tag_364:\n        /* \"#utility.yul\":10501:10582   */\n      swap2\n      pop\n        /* \"#utility.yul\":10346:10593   */\n      pop\n        /* \"#utility.yul\":10686:10690   */\n      0xe0\n        /* \"#utility.yul\":10679:10684   */\n      dup4\n        /* \"#utility.yul\":10675:10691   */\n      add\n        /* \"#utility.yul\":10669:10692   */\n      mload\n        /* \"#utility.yul\":10705:10768   */\n      tag_365\n        /* \"#utility.yul\":10762:10766   */\n      0xe0\n        /* \"#utility.yul\":10757:10760   */\n      dup7\n        /* \"#utility.yul\":10753:10767   */\n      add\n        /* \"#utility.yul\":10739:10751   */\n      dup3\n        /* \"#utility.yul\":10705:10768   */\n      tag_220\n      jump\t// in\n    tag_365:\n        /* \"#utility.yul\":10603:10778   */\n      pop\n        /* \"#utility.yul\":10864:10870   */\n      0x0100\n        /* \"#utility.yul\":10857:10862   */\n      dup4\n        /* \"#utility.yul\":10853:10871   */\n      add\n        /* \"#utility.yul\":10847:10872   */\n      mload\n        /* \"#utility.yul\":10921:10924   */\n      dup5\n        /* \"#utility.yul\":10915:10919   */\n      dup3\n        /* \"#utility.yul\":10911:10925   */\n      sub\n        /* \"#utility.yul\":10902:10908   */\n      0x0100\n        /* \"#utility.yul\":10897:10900   */\n      dup7\n        /* \"#utility.yul\":10893:10909   */\n      add\n        /* \"#utility.yul\":10886:10926   */\n      mstore\n        /* \"#utility.yul\":10947:11020   */\n      tag_366\n        /* \"#utility.yul\":11015:11019   */\n      dup3\n        /* \"#utility.yul\":11001:11013   */\n      dup3\n        /* \"#utility.yul\":10947:11020   */\n      tag_224\n      jump\t// in\n    tag_366:\n        /* \"#utility.yul\":10939:11020   */\n      swap2\n      pop\n        /* \"#utility.yul\":10788:11031   */\n      pop\n        /* \"#utility.yul\":11048:11052   */\n      dup1\n        /* \"#utility.yul\":11041:11052   */\n      swap2\n      pop\n        /* \"#utility.yul\":8990:11058   */\n      pop\n        /* \"#utility.yul\":8876:11058   */\n      swap3\n      swap2\n      pop\n      pop\n      jump\t// out\n        /* \"#utility.yul\":11064:11320   */\n    tag_226:\n        /* \"#utility.yul\":11183:11193   */\n      0x00\n        /* \"#utility.yul\":11218:11314   */\n      tag_368\n        /* \"#utility.yul\":11310:11313   */\n      dup4\n        /* \"#utility.yul\":11302:11308   */\n      dup4\n        /* \"#utility.yul\":11218:11314   */\n      tag_225\n      jump\t// in\n    tag_368:\n        /* \"#utility.yul\":11204:11314   */\n      swap1\n      pop\n        /* \"#utility.yul\":11064:11320   */\n      swap3\n      swap2\n      pop\n      pop\n      jump\t// out\n        /* \"#utility.yul\":11326:11464   */\n    tag_227:\n        /* \"#utility.yul\":11421:11425   */\n      0x00\n        /* \"#utility.yul\":11453:11457   */\n      0x20\n        /* \"#utility.yul\":11448:11451   */\n      dup3\n        /* \"#utility.yul\":11444:11458   */\n      add\n        /* \"#utility.yul\":11436:11458   */\n      swap1\n      pop\n        /* \"#utility.yul\":11326:11464   */\n      swap2\n      swap1\n      pop\n      jump\t// out\n        /* \"#utility.yul\":11562:12673   */\n    tag_228:\n        /* \"#utility.yul\":11731:11734   */\n      0x00\n        /* \"#utility.yul\":11760:11839   */\n      tag_371\n        /* \"#utility.yul\":11833:11838   */\n      dup3\n        /* \"#utility.yul\":11760:11839   */\n      tag_217\n      jump\t// in\n    tag_371:\n        /* \"#utility.yul\":11855:11966   */\n      tag_372\n        /* \"#utility.yul\":11959:11965   */\n      dup2\n        /* \"#utility.yul\":11954:11957   */\n      dup6\n        /* \"#utility.yul\":11855:11966   */\n      tag_218\n      jump\t// in\n    tag_372:\n        /* \"#utility.yul\":11848:11966   */\n      swap4\n      pop\n        /* \"#utility.yul\":11992:11995   */\n      dup4\n        /* \"#utility.yul\":12037:12041   */\n      0x20\n        /* \"#utility.yul\":12029:12035   */\n      dup3\n        /* \"#utility.yul\":12025:12042   */\n      mul\n        /* \"#utility.yul\":12020:12023   */\n      dup6\n        /* \"#utility.yul\":12016:12043   */\n      add\n        /* \"#utility.yul\":12067:12148   */\n      tag_373\n        /* \"#utility.yul\":12142:12147   */\n      dup6\n        /* \"#utility.yul\":12067:12148   */\n      tag_219\n      jump\t// in\n    tag_373:\n        /* \"#utility.yul\":12171:12178   */\n      dup1\n        /* \"#utility.yul\":12202:12203   */\n      0x00\n        /* \"#utility.yul\":12187:12628   */\n    tag_374:\n        /* \"#utility.yul\":12212:12218   */\n      dup6\n        /* \"#utility.yul\":12209:12210   */\n      dup2\n        /* \"#utility.yul\":12206:12219   */\n      lt\n        /* \"#utility.yul\":12187:12628   */\n      iszero\n      tag_376\n      jumpi\n        /* \"#utility.yul\":12283:12292   */\n      dup5\n        /* \"#utility.yul\":12277:12281   */\n      dup5\n        /* \"#utility.yul\":12273:12293   */\n      sub\n        /* \"#utility.yul\":12268:12271   */\n      dup10\n        /* \"#utility.yul\":12261:12294   */\n      mstore\n        /* \"#utility.yul\":12334:12340   */\n      dup2\n        /* \"#utility.yul\":12328:12341   */\n      mload\n        /* \"#utility.yul\":12362:12476   */\n      tag_377\n        /* \"#utility.yul\":12471:12475   */\n      dup6\n        /* \"#utility.yul\":12456:12469   */\n      dup3\n        /* \"#utility.yul\":12362:12476   */\n      tag_226\n      jump\t// in\n    tag_377:\n        /* \"#utility.yul\":12354:12476   */\n      swap5\n      pop\n        /* \"#utility.yul\":12499:12584   */\n      tag_378\n        /* \"#utility.yul\":12577:12583   */\n      dup4\n        /* \"#utility.yul\":12499:12584   */\n      tag_227\n      jump\t// in\n    tag_378:\n        /* \"#utility.yul\":12489:12584   */\n      swap3\n      pop\n        /* \"#utility.yul\":12613:12617   */\n      0x20\n        /* \"#utility.yul\":12608:12611   */\n      dup11\n        /* \"#utility.yul\":12604:12618   */\n      add\n        /* \"#utility.yul\":12597:12618   */\n      swap10\n      pop\n        /* \"#utility.yul\":12247:12628   */\n      pop\n        /* \"#utility.yul\":12234:12235   */\n      0x01\n        /* \"#utility.yul\":12231:12232   */\n      dup2\n        /* \"#utility.yul\":12227:12236   */\n      add\n        /* \"#utility.yul\":12222:12236   */\n      swap1\n      pop\n        /* \"#utility.yul\":12187:12628   */\n      jump(tag_374)\n    tag_376:\n        /* \"#utility.yul\":12191:12205   */\n      pop\n        /* \"#utility.yul\":12644:12648   */\n      dup3\n        /* \"#utility.yul\":12637:12648   */\n      swap8\n      pop\n        /* \"#utility.yul\":12664:12667   */\n      dup8\n        /* \"#utility.yul\":12657:12667   */\n      swap6\n      pop\n        /* \"#utility.yul\":11736:12673   */\n      pop\n      pop\n      pop\n      pop\n      pop\n        /* \"#utility.yul\":11562:12673   */\n      swap3\n      swap2\n      pop\n      pop\n      jump\t// out\n        /* \"#utility.yul\":12679:13152   */\n    tag_40:\n        /* \"#utility.yul\":12872:12876   */\n      0x00\n        /* \"#utility.yul\":12910:12912   */\n      0x20\n        /* \"#utility.yul\":12899:12908   */\n      dup3\n        /* \"#utility.yul\":12895:12913   */\n      add\n        /* \"#utility.yul\":12887:12913   */\n      swap1\n      pop\n        /* \"#utility.yul\":12959:12968   */\n      dup2\n        /* \"#utility.yul\":12953:12957   */\n      dup2\n        /* \"#utility.yul\":12949:12969   */\n      sub\n        /* \"#utility.yul\":12945:12946   */\n      0x00\n        /* \"#utility.yul\":12934:12943   */\n      dup4\n        /* \"#utility.yul\":12930:12947   */\n      add\n        /* \"#utility.yul\":12923:12970   */\n      mstore\n        /* \"#utility.yul\":12987:13145   */\n      tag_380\n        /* \"#utility.yul\":13140:13144   */\n      dup2\n        /* \"#utility.yul\":13131:13137   */\n      dup5\n        /* \"#utility.yul\":12987:13145   */\n      tag_228\n      jump\t// in\n    tag_380:\n        /* \"#utility.yul\":12979:13145   */\n      swap1\n      pop\n        /* \"#utility.yul\":12679:13152   */\n      swap3\n      swap2\n      pop\n      pop\n      jump\t// out\n        /* \"#utility.yul\":13158:13276   */\n    tag_229:\n        /* \"#utility.yul\":13245:13269   */\n      tag_382\n        /* \"#utility.yul\":13263:13268   */\n      dup2\n        /* \"#utility.yul\":13245:13269   */\n      tag_198\n      jump\t// in\n    tag_382:\n        /* \"#utility.yul\":13240:13243   */\n      dup3\n        /* \"#utility.yul\":13233:13270   */\n      mstore\n        /* \"#utility.yul\":13158:13276   */\n      pop\n      pop\n      jump\t// out\n        /* \"#utility.yul\":13282:13504   */\n    tag_48:\n        /* \"#utility.yul\":13375:13379   */\n      0x00\n        /* \"#utility.yul\":13413:13415   */\n      0x20\n        /* \"#utility.yul\":13402:13411   */\n      dup3\n        /* \"#utility.yul\":13398:13416   */\n      add\n        /* \"#utility.yul\":13390:13416   */\n      swap1\n      pop\n        /* \"#utility.yul\":13426:13497   */\n      tag_384\n        /* \"#utility.yul\":13494:13495   */\n      0x00\n        /* \"#utility.yul\":13483:13492   */\n      dup4\n        /* \"#utility.yul\":13479:13496   */\n      add\n        /* \"#utility.yul\":13470:13476   */\n      dup5\n        /* \"#utility.yul\":13426:13497   */\n      tag_229\n      jump\t// in\n    tag_384:\n        /* \"#utility.yul\":13282:13504   */\n      swap3\n      swap2\n      pop\n      pop\n      jump\t// out\n        /* \"#utility.yul\":13510:13984   */\n    tag_51:\n        /* \"#utility.yul\":13578:13584   */\n      0x00\n        /* \"#utility.yul\":13586:13592   */\n      dup1\n        /* \"#utility.yul\":13635:13637   */\n      0x40\n        /* \"#utility.yul\":13623:13632   */\n      dup4\n        /* \"#utility.yul\":13614:13621   */\n      dup6\n        /* \"#utility.yul\":13610:13633   */\n      sub\n        /* \"#utility.yul\":13606:13638   */\n      slt\n        /* \"#utility.yul\":13603:13722   */\n      iszero\n      tag_386\n      jumpi\n        /* \"#utility.yul\":13641:13720   */\n      tag_387\n      tag_195\n      jump\t// in\n    tag_387:\n        /* \"#utility.yul\":13603:13722   */\n    tag_386:\n        /* \"#utility.yul\":13761:13762   */\n      0x00\n        /* \"#utility.yul\":13786:13839   */\n      tag_388\n        /* \"#utility.yul\":13831:13838   */\n      dup6\n        /* \"#utility.yul\":13822:13828   */\n      dup3\n        /* \"#utility.yul\":13811:13820   */\n      dup7\n        /* \"#utility.yul\":13807:13829   */\n      add\n        /* \"#utility.yul\":13786:13839   */\n      tag_205\n      jump\t// in\n    tag_388:\n        /* \"#utility.yul\":13776:13839   */\n      swap3\n      pop\n        /* \"#utility.yul\":13732:13849   */\n      pop\n        /* \"#utility.yul\":13888:13890   */\n      0x20\n        /* \"#utility.yul\":13914:13967   */\n      tag_389\n        /* \"#utility.yul\":13959:13966   */\n      dup6\n        /* \"#utility.yul\":13950:13956   */\n      dup3\n        /* \"#utility.yul\":13939:13948   */\n      dup7\n        /* \"#utility.yul\":13935:13957   */\n      add\n        /* \"#utility.yul\":13914:13967   */\n      tag_205\n      jump\t// in\n    tag_389:\n        /* \"#utility.yul\":13904:13967   */\n      swap2\n      pop\n        /* \"#utility.yul\":13859:13977   */\n      pop\n        /* \"#utility.yul\":13510:13984   */\n      swap3\n      pop\n      swap3\n      swap1\n      pop\n      jump\t// out\n        /* \"#utility.yul\":13990:14159   */\n    tag_230:\n        /* \"#utility.yul\":14074:14085   */\n      0x00\n        /* \"#utility.yul\":14108:14114   */\n      dup3\n        /* \"#utility.yul\":14103:14106   */\n      dup3\n        /* \"#utility.yul\":14096:14115   */\n      mstore\n        /* \"#utility.yul\":14148:14152   */\n      0x20\n        /* \"#utility.yul\":14143:14146   */\n      dup3\n        /* \"#utility.yul\":14139:14153   */\n      add\n        /* \"#utility.yul\":14124:14153   */\n      swap1\n      pop\n        /* \"#utility.yul\":13990:14159   */\n      swap3\n      swap2\n      pop\n      pop\n      jump\t// out\n        /* \"#utility.yul\":14165:14542   */\n    tag_231:\n        /* \"#utility.yul\":14253:14256   */\n      0x00\n        /* \"#utility.yul\":14281:14320   */\n      tag_392\n        /* \"#utility.yul\":14314:14319   */\n      dup3\n        /* \"#utility.yul\":14281:14320   */\n      tag_221\n      jump\t// in\n    tag_392:\n        /* \"#utility.yul\":14336:14407   */\n      tag_393\n        /* \"#utility.yul\":14400:14406   */\n      dup2\n        /* \"#utility.yul\":14395:14398   */\n      dup6\n        /* \"#utility.yul\":14336:14407   */\n      tag_230\n      jump\t// in\n    tag_393:\n        /* \"#utility.yul\":14329:14407   */\n      swap4\n      pop\n        /* \"#utility.yul\":14416:14481   */\n      tag_394\n        /* \"#utility.yul\":14474:14480   */\n      dup2\n        /* \"#utility.yul\":14469:14472   */\n      dup6\n        /* \"#utility.yul\":14462:14466   */\n      0x20\n        /* \"#utility.yul\":14455:14460   */\n      dup7\n        /* \"#utility.yul\":14451:14467   */\n      add\n        /* \"#utility.yul\":14416:14481   */\n      tag_223\n      jump\t// in\n    tag_394:\n        /* \"#utility.yul\":14506:14535   */\n      tag_395\n        /* \"#utility.yul\":14528:14534   */\n      dup2\n        /* \"#utility.yul\":14506:14535   */\n      tag_208\n      jump\t// in\n    tag_395:\n        /* \"#utility.yul\":14501:14504   */\n      dup5\n        /* \"#utility.yul\":14497:14536   */\n      add\n        /* \"#utility.yul\":14490:14536   */\n      swap2\n      pop\n        /* \"#utility.yul\":14257:14542   */\n      pop\n        /* \"#utility.yul\":14165:14542   */\n      swap3\n      swap2\n      pop\n      pop\n      jump\t// out\n        /* \"#utility.yul\":14548:16111   */\n    tag_54:\n        /* \"#utility.yul\":14965:14969   */\n      0x00\n        /* \"#utility.yul\":15003:15006   */\n      0x0120\n        /* \"#utility.yul\":14992:15001   */\n      dup3\n        /* \"#utility.yul\":14988:15007   */\n      add\n        /* \"#utility.yul\":14980:15007   */\n      swap1\n      pop\n        /* \"#utility.yul\":15017:15088   */\n      tag_397\n        /* \"#utility.yul\":15085:15086   */\n      0x00\n        /* \"#utility.yul\":15074:15083   */\n      dup4\n        /* \"#utility.yul\":15070:15087   */\n      add\n        /* \"#utility.yul\":15061:15067   */\n      dup13\n        /* \"#utility.yul\":15017:15088   */\n      tag_216\n      jump\t// in\n    tag_397:\n        /* \"#utility.yul\":15135:15144   */\n      dup2\n        /* \"#utility.yul\":15129:15133   */\n      dup2\n        /* \"#utility.yul\":15125:15145   */\n      sub\n        /* \"#utility.yul\":15120:15122   */\n      0x20\n        /* \"#utility.yul\":15109:15118   */\n      dup4\n        /* \"#utility.yul\":15105:15123   */\n      add\n        /* \"#utility.yul\":15098:15146   */\n      mstore\n        /* \"#utility.yul\":15163:15241   */\n      tag_398\n        /* \"#utility.yul\":15236:15240   */\n      dup2\n        /* \"#utility.yul\":15227:15233   */\n      dup12\n        /* \"#utility.yul\":15163:15241   */\n      tag_231\n      jump\t// in\n    tag_398:\n        /* \"#utility.yul\":15155:15241   */\n      swap1\n      pop\n        /* \"#utility.yul\":15251:15323   */\n      tag_399\n        /* \"#utility.yul\":15319:15321   */\n      0x40\n        /* \"#utility.yul\":15308:15317   */\n      dup4\n        /* \"#utility.yul\":15304:15322   */\n      add\n        /* \"#utility.yul\":15295:15301   */\n      dup11\n        /* \"#utility.yul\":15251:15323   */\n      tag_216\n      jump\t// in\n    tag_399:\n        /* \"#utility.yul\":15370:15379   */\n      dup2\n        /* \"#utility.yul\":15364:15368   */\n      dup2\n        /* \"#utility.yul\":15360:15380   */\n      sub\n        /* \"#utility.yul\":15355:15357   */\n      0x60\n        /* \"#utility.yul\":15344:15353   */\n      dup4\n        /* \"#utility.yul\":15340:15358   */\n      add\n        /* \"#utility.yul\":15333:15381   */\n      mstore\n        /* \"#utility.yul\":15398:15476   */\n      tag_400\n        /* \"#utility.yul\":15471:15475   */\n      dup2\n        /* \"#utility.yul\":15462:15468   */\n      dup10\n        /* \"#utility.yul\":15398:15476   */\n      tag_231\n      jump\t// in\n    tag_400:\n        /* \"#utility.yul\":15390:15476   */\n      swap1\n      pop\n        /* \"#utility.yul\":15524:15533   */\n      dup2\n        /* \"#utility.yul\":15518:15522   */\n      dup2\n        /* \"#utility.yul\":15514:15534   */\n      sub\n        /* \"#utility.yul\":15508:15511   */\n      0x80\n        /* \"#utility.yul\":15497:15506   */\n      dup4\n        /* \"#utility.yul\":15493:15512   */\n      add\n        /* \"#utility.yul\":15486:15535   */\n      mstore\n        /* \"#utility.yul\":15552:15630   */\n      tag_401\n        /* \"#utility.yul\":15625:15629   */\n      dup2\n        /* \"#utility.yul\":15616:15622   */\n      dup9\n        /* \"#utility.yul\":15552:15630   */\n      tag_231\n      jump\t// in\n    tag_401:\n        /* \"#utility.yul\":15544:15630   */\n      swap1\n      pop\n        /* \"#utility.yul\":15640:15713   */\n      tag_402\n        /* \"#utility.yul\":15708:15711   */\n      0xa0\n        /* \"#utility.yul\":15697:15706   */\n      dup4\n        /* \"#utility.yul\":15693:15712   */\n      add\n        /* \"#utility.yul\":15684:15690   */\n      dup8\n        /* \"#utility.yul\":15640:15713   */\n      tag_216\n      jump\t// in\n    tag_402:\n        /* \"#utility.yul\":15761:15770   */\n      dup2\n        /* \"#utility.yul\":15755:15759   */\n      dup2\n        /* \"#utility.yul\":15751:15771   */\n      sub\n        /* \"#utility.yul\":15745:15748   */\n      0xc0\n        /* \"#utility.yul\":15734:15743   */\n      dup4\n        /* \"#utility.yul\":15730:15749   */\n      add\n        /* \"#utility.yul\":15723:15772   */\n      mstore\n        /* \"#utility.yul\":15789:15867   */\n      tag_403\n        /* \"#utility.yul\":15862:15866   */\n      dup2\n        /* \"#utility.yul\":15853:15859   */\n      dup7\n        /* \"#utility.yul\":15789:15867   */\n      tag_231\n      jump\t// in\n    tag_403:\n        /* \"#utility.yul\":15781:15867   */\n      swap1\n      pop\n        /* \"#utility.yul\":15877:15950   */\n      tag_404\n        /* \"#utility.yul\":15945:15948   */\n      0xe0\n        /* \"#utility.yul\":15934:15943   */\n      dup4\n        /* \"#utility.yul\":15930:15949   */\n      add\n        /* \"#utility.yul\":15921:15927   */\n      dup6\n        /* \"#utility.yul\":15877:15950   */\n      tag_216\n      jump\t// in\n    tag_404:\n        /* \"#utility.yul\":15998:16007   */\n      dup2\n        /* \"#utility.yul\":15992:15996   */\n      dup2\n        /* \"#utility.yul\":15988:16008   */\n      sub\n        /* \"#utility.yul\":15982:15985   */\n      0x0100\n        /* \"#utility.yul\":15971:15980   */\n      dup4\n        /* \"#utility.yul\":15967:15986   */\n      add\n        /* \"#utility.yul\":15960:16009   */\n      mstore\n        /* \"#utility.yul\":16026:16104   */\n      tag_405\n        /* \"#utility.yul\":16099:16103   */\n      dup2\n        /* \"#utility.yul\":16090:16096   */\n      dup5\n        /* \"#utility.yul\":16026:16104   */\n      tag_231\n      jump\t// in\n    tag_405:\n        /* \"#utility.yul\":16018:16104   */\n      swap1\n      pop\n        /* \"#utility.yul\":14548:16111   */\n      swap11\n      swap10\n      pop\n      pop\n      pop\n      pop\n      pop\n      pop\n      pop\n      pop\n      pop\n      pop\n      jump\t// out\n        /* \"#utility.yul\":16117:16353   */\n    tag_232:\n        /* \"#utility.yul\":16257:16291   */\n      0x556e617574686f72697a65643a204f6e6c79206d656d6265722063616e207065\n        /* \"#utility.yul\":16253:16254   */\n      0x00\n        /* \"#utility.yul\":16245:16251   */\n      dup3\n        /* \"#utility.yul\":16241:16255   */\n      add\n        /* \"#utility.yul\":16234:16292   */\n      mstore\n        /* \"#utility.yul\":16326:16345   */\n      0x72666f726d207468697320616374696f6e000000000000000000000000000000\n        /* \"#utility.yul\":16321:16323   */\n      0x20\n        /* \"#utility.yul\":16313:16319   */\n      dup3\n        /* \"#utility.yul\":16309:16324   */\n      add\n        /* \"#utility.yul\":16302:16346   */\n      mstore\n        /* \"#utility.yul\":16117:16353   */\n      pop\n      jump\t// out\n        /* \"#utility.yul\":16359:16725   */\n    tag_233:\n        /* \"#utility.yul\":16501:16504   */\n      0x00\n        /* \"#utility.yul\":16522:16589   */\n      tag_408\n        /* \"#utility.yul\":16586:16588   */\n      0x31\n        /* \"#utility.yul\":16581:16584   */\n      dup4\n        /* \"#utility.yul\":16522:16589   */\n      tag_230\n      jump\t// in\n    tag_408:\n        /* \"#utility.yul\":16515:16589   */\n      swap2\n      pop\n        /* \"#utility.yul\":16598:16691   */\n      tag_409\n        /* \"#utility.yul\":16687:16690   */\n      dup3\n        /* \"#utility.yul\":16598:16691   */\n      tag_232\n      jump\t// in\n    tag_409:\n        /* \"#utility.yul\":16716:16718   */\n      0x40\n        /* \"#utility.yul\":16711:16714   */\n      dup3\n        /* \"#utility.yul\":16707:16719   */\n      add\n        /* \"#utility.yul\":16700:16719   */\n      swap1\n      pop\n        /* \"#utility.yul\":16359:16725   */\n      swap2\n      swap1\n      pop\n      jump\t// out\n        /* \"#utility.yul\":16731:17150   */\n    tag_75:\n        /* \"#utility.yul\":16897:16901   */\n      0x00\n        /* \"#utility.yul\":16935:16937   */\n      0x20\n        /* \"#utility.yul\":16924:16933   */\n      dup3\n        /* \"#utility.yul\":16920:16938   */\n      add\n        /* \"#utility.yul\":16912:16938   */\n      swap1\n      pop\n        /* \"#utility.yul\":16984:16993   */\n      dup2\n        /* \"#utility.yul\":16978:16982   */\n      dup2\n        /* \"#utility.yul\":16974:16994   */\n      sub\n        /* \"#utility.yul\":16970:16971   */\n      0x00\n        /* \"#utility.yul\":16959:16968   */\n      dup4\n        /* \"#utility.yul\":16955:16972   */\n      add\n        /* \"#utility.yul\":16948:16995   */\n      mstore\n        /* \"#utility.yul\":17012:17143   */\n      tag_411\n        /* \"#utility.yul\":17138:17142   */\n      dup2\n        /* \"#utility.yul\":17012:17143   */\n      tag_233\n      jump\t// in\n    tag_411:\n        /* \"#utility.yul\":17004:17143   */\n      swap1\n      pop\n        /* \"#utility.yul\":16731:17150   */\n      swap2\n      swap1\n      pop\n      jump\t// out\n        /* \"#utility.yul\":17156:17336   */\n    tag_234:\n        /* \"#utility.yul\":17204:17281   */\n      0x4e487b7100000000000000000000000000000000000000000000000000000000\n        /* \"#utility.yul\":17201:17202   */\n      0x00\n        /* \"#utility.yul\":17194:17282   */\n      mstore\n        /* \"#utility.yul\":17301:17305   */\n      0x22\n        /* \"#utility.yul\":17298:17299   */\n      0x04\n        /* \"#utility.yul\":17291:17306   */\n      mstore\n        /* \"#utility.yul\":17325:17329   */\n      0x24\n        /* \"#utility.yul\":17322:17323   */\n      0x00\n        /* \"#utility.yul\":17315:17330   */\n      revert\n        /* \"#utility.yul\":17342:17662   */\n    tag_96:\n        /* \"#utility.yul\":17386:17392   */\n      0x00\n        /* \"#utility.yul\":17423:17424   */\n      0x02\n        /* \"#utility.yul\":17417:17421   */\n      dup3\n        /* \"#utility.yul\":17413:17425   */\n      div\n        /* \"#utility.yul\":17403:17425   */\n      swap1\n      pop\n        /* \"#utility.yul\":17470:17471   */\n      0x01\n        /* \"#utility.yul\":17464:17468   */\n      dup3\n        /* \"#utility.yul\":17460:17472   */\n      and\n        /* \"#utility.yul\":17491:17509   */\n      dup1\n        /* \"#utility.yul\":17481:17562   */\n      tag_414\n      jumpi\n        /* \"#utility.yul\":17547:17551   */\n      0x7f\n        /* \"#utility.yul\":17539:17545   */\n      dup3\n        /* \"#utility.yul\":17535:17552   */\n      and\n        /* \"#utility.yul\":17525:17552   */\n      swap2\n      pop\n        /* \"#utility.yul\":17481:17562   */\n    tag_414:\n        /* \"#utility.yul\":17609:17611   */\n      0x20\n        /* \"#utility.yul\":17601:17607   */\n      dup3\n        /* \"#utility.yul\":17598:17612   */\n      lt\n        /* \"#utility.yul\":17578:17596   */\n      dup2\n        /* \"#utility.yul\":17575:17613   */\n      sub\n        /* \"#utility.yul\":17572:17656   */\n      tag_415\n      jumpi\n        /* \"#utility.yul\":17628:17646   */\n      tag_416\n      tag_234\n      jump\t// in\n    tag_416:\n        /* \"#utility.yul\":17572:17656   */\n    tag_415:\n        /* \"#utility.yul\":17393:17662   */\n      pop\n        /* \"#utility.yul\":17342:17662   */\n      swap2\n      swap1\n      pop\n      jump\t// out\n        /* \"#utility.yul\":17668:17809   */\n    tag_235:\n        /* \"#utility.yul\":17717:17721   */\n      0x00\n        /* \"#utility.yul\":17740:17743   */\n      dup2\n        /* \"#utility.yul\":17732:17743   */\n      swap1\n      pop\n        /* \"#utility.yul\":17763:17766   */\n      dup2\n        /* \"#utility.yul\":17760:17761   */\n      0x00\n        /* \"#utility.yul\":17753:17767   */\n      mstore\n        /* \"#utility.yul\":17797:17801   */\n      0x20\n        /* \"#utility.yul\":17794:17795   */\n      0x00\n        /* \"#utility.yul\":17784:17802   */\n      keccak256\n        /* \"#utility.yul\":17776:17802   */\n      swap1\n      pop\n        /* \"#utility.yul\":17668:17809   */\n      swap2\n      swap1\n      pop\n      jump\t// out\n        /* \"#utility.yul\":17815:17908   */\n    tag_236:\n        /* \"#utility.yul\":17852:17858   */\n      0x00\n        /* \"#utility.yul\":17899:17901   */\n      0x20\n        /* \"#utility.yul\":17894:17896   */\n      0x1f\n        /* \"#utility.yul\":17887:17892   */\n      dup4\n        /* \"#utility.yul\":17883:17897   */\n      add\n        /* \"#utility.yul\":17879:17902   */\n      div\n        /* \"#utility.yul\":17869:17902   */\n      swap1\n      pop\n        /* \"#utility.yul\":17815:17908   */\n      swap2\n      swap1\n      pop\n      jump\t// out\n        /* \"#utility.yul\":17914:18021   */\n    tag_237:\n        /* \"#utility.yul\":17958:17966   */\n      0x00\n        /* \"#utility.yul\":18008:18013   */\n      dup3\n        /* \"#utility.yul\":18002:18006   */\n      dup3\n        /* \"#utility.yul\":17998:18014   */\n      shl\n        /* \"#utility.yul\":17977:18014   */\n      swap1\n      pop\n        /* \"#utility.yul\":17914:18021   */\n      swap3\n      swap2\n      pop\n      pop\n      jump\t// out\n        /* \"#utility.yul\":18027:18420   */\n    tag_238:\n        /* \"#utility.yul\":18096:18102   */\n      0x00\n        /* \"#utility.yul\":18146:18147   */\n      0x08\n        /* \"#utility.yul\":18134:18144   */\n      dup4\n        /* \"#utility.yul\":18130:18148   */\n      mul\n        /* \"#utility.yul\":18169:18266   */\n      tag_421\n        /* \"#utility.yul\":18199:18265   */\n      0xffffffffffffffffffffffffffffffffffffffffffffffffffffffffffffffff\n        /* \"#utility.yul\":18188:18197   */\n      dup3\n        /* \"#utility.yul\":18169:18266   */\n      tag_237\n      jump\t// in\n    tag_421:\n        /* \"#utility.yul\":18287:18326   */\n      tag_422\n        /* \"#utility.yul\":18317:18325   */\n      dup7\n        /* \"#utility.yul\":18306:18315   */\n      dup4\n        /* \"#utility.yul\":18287:18326   */\n      tag_237\n      jump\t// in\n    tag_422:\n        /* \"#utility.yul\":18275:18326   */\n      swap6\n      pop\n        /* \"#utility.yul\":18359:18363   */\n      dup1\n        /* \"#utility.yul\":18355:18364   */\n      not\n        /* \"#utility.yul\":18348:18353   */\n      dup5\n        /* \"#utility.yul\":18344:18365   */\n      and\n        /* \"#utility.yul\":18335:18365   */\n      swap4\n      pop\n        /* \"#utility.yul\":18408:18412   */\n      dup1\n        /* \"#utility.yul\":18398:18406   */\n      dup7\n        /* \"#utility.yul\":18394:18413   */\n      and\n        /* \"#utility.yul\":18387:18392   */\n      dup5\n        /* \"#utility.yul\":18384:18414   */\n      or\n        /* \"#utility.yul\":18374:18414   */\n      swap3\n      pop\n        /* \"#utility.yul\":18103:18420   */\n      pop\n      pop\n        /* \"#utility.yul\":18027:18420   */\n      swap4\n      swap3\n      pop\n      pop\n      pop\n      jump\t// out\n        /* \"#utility.yul\":18426:18486   */\n    tag_239:\n        /* \"#utility.yul\":18454:18457   */\n      0x00\n        /* \"#utility.yul\":18475:18480   */\n      dup2\n        /* \"#utility.yul\":18468:18480   */\n      swap1\n      pop\n        /* \"#utility.yul\":18426:18486   */\n      swap2\n      swap1\n      pop\n      jump\t// out\n        /* \"#utility.yul\":18492:18634   */\n    tag_240:\n        /* \"#utility.yul\":18542:18551   */\n      0x00\n        /* \"#utility.yul\":18575:18628   */\n      tag_425\n        /* \"#utility.yul\":18593:18627   */\n      tag_426\n        /* \"#utility.yul\":18602:18626   */\n      tag_427\n        /* \"#utility.yul\":18620:18625   */\n      dup5\n        /* \"#utility.yul\":18602:18626   */\n      tag_203\n      jump\t// in\n    tag_427:\n        /* \"#utility.yul\":18593:18627   */\n      tag_239\n      jump\t// in\n    tag_426:\n        /* \"#utility.yul\":18575:18628   */\n      tag_203\n      jump\t// in\n    tag_425:\n        /* \"#utility.yul\":18562:18628   */\n      swap1\n      pop\n        /* \"#utility.yul\":18492:18634   */\n      swap2\n      swap1\n      pop\n      jump\t// out\n        /* \"#utility.yul\":18640:18715   */\n    tag_241:\n        /* \"#utility.yul\":18683:18686   */\n      0x00\n        /* \"#utility.yul\":18704:18709   */\n      dup2\n        /* \"#utility.yul\":18697:18709   */\n      swap1\n      pop\n        /* \"#utility.yul\":18640:18715   */\n      swap2\n      swap1\n      pop\n      jump\t// out\n        /* \"#utility.yul\":18721:18990   */\n    tag_242:\n        /* \"#utility.yul\":18831:18870   */\n      tag_430\n        /* \"#utility.yul\":18862:18869   */\n      dup4\n        /* \"#utility.yul\":18831:18870   */\n      tag_240\n      jump\t// in\n    tag_430:\n        /* \"#utility.yul\":18892:18983   */\n      tag_431\n        /* \"#utility.yul\":18941:18982   */\n      tag_432\n        /* \"#utility.yul\":18965:18981   */\n      dup3\n        /* \"#utility.yul\":18941:18982   */\n      tag_241\n      jump\t// in\n    tag_432:\n        /* \"#utility.yul\":18933:18939   */\n      dup5\n        /* \"#utility.yul\":18926:18930   */\n      dup5\n        /* \"#utility.yul\":18920:18931   */\n      sload\n        /* \"#utility.yul\":18892:18983   */\n      tag_238\n      jump\t// in\n    tag_431:\n        /* \"#utility.yul\":18886:18890   */\n      dup3\n        /* \"#utility.yul\":18879:18984   */\n      sstore\n        /* \"#utility.yul\":18797:18990   */\n      pop\n        /* \"#utility.yul\":18721:18990   */\n      pop\n      pop\n      pop\n      jump\t// out\n        /* \"#utility.yul\":18996:19069   */\n    tag_243:\n        /* \"#utility.yul\":19041:19044   */\n      0x00\n        /* \"#utility.yul\":18996:19069   */\n      swap1\n      jump\t// out\n        /* \"#utility.yul\":19075:19264   */\n    tag_244:\n        /* \"#utility.yul\":19152:19184   */\n      tag_435\n      tag_243\n      jump\t// in\n    tag_435:\n        /* \"#utility.yul\":19193:19258   */\n      tag_436\n        /* \"#utility.yul\":19251:19257   */\n      dup2\n        /* \"#utility.yul\":19243:19249   */\n      dup5\n        /* \"#utility.yul\":19237:19241   */\n      dup5\n        /* \"#utility.yul\":19193:19258   */\n      tag_242\n      jump\t// in\n    tag_436:\n        /* \"#utility.yul\":19128:19264   */\n      pop\n        /* \"#utility.yul\":19075:19264   */\n      pop\n      pop\n      jump\t// out\n        /* \"#utility.yul\":19270:19456   */\n    tag_245:\n        /* \"#utility.yul\":19330:19450   */\n    tag_438:\n        /* \"#utility.yul\":19347:19350   */\n      dup2\n        /* \"#utility.yul\":19340:19345   */\n      dup2\n        /* \"#utility.yul\":19337:19351   */\n      lt\n        /* \"#utility.yul\":19330:19450   */\n      iszero\n      tag_440\n      jumpi\n        /* \"#utility.yul\":19401:19440   */\n      tag_441\n        /* \"#utility.yul\":19438:19439   */\n      0x00\n        /* \"#utility.yul\":19431:19436   */\n      dup3\n        /* \"#utility.yul\":19401:19440   */\n      tag_244\n      jump\t// in\n    tag_441:\n        /* \"#utility.yul\":19374:19375   */\n      0x01\n        /* \"#utility.yul\":19367:19372   */\n      dup2\n        /* \"#utility.yul\":19363:19376   */\n      add\n        /* \"#utility.yul\":19354:19376   */\n      swap1\n      pop\n        /* \"#utility.yul\":19330:19450   */\n      jump(tag_438)\n    tag_440:\n        /* \"#utility.yul\":19270:19456   */\n      pop\n      pop\n      jump\t// out\n        /* \"#utility.yul\":19462:20005   */\n    tag_246:\n        /* \"#utility.yul\":19563:19565   */\n      0x1f\n        /* \"#utility.yul\":19558:19561   */\n      dup3\n        /* \"#utility.yul\":19555:19566   */\n      gt\n        /* \"#utility.yul\":19552:19998   */\n      iszero\n      tag_443\n      jumpi\n        /* \"#utility.yul\":19597:19635   */\n      tag_444\n        /* \"#utility.yul\":19629:19634   */\n      dup2\n        /* \"#utility.yul\":19597:19635   */\n      tag_235\n      jump\t// in\n    tag_444:\n        /* \"#utility.yul\":19681:19710   */\n      tag_445\n        /* \"#utility.yul\":19699:19709   */\n      dup5\n        /* \"#utility.yul\":19681:19710   */\n      tag_236\n      jump\t// in\n    tag_445:\n        /* \"#utility.yul\":19671:19679   */\n      dup2\n        /* \"#utility.yul\":19667:19711   */\n      add\n        /* \"#utility.yul\":19864:19866   */\n      0x20\n        /* \"#utility.yul\":19852:19862   */\n      dup6\n        /* \"#utility.yul\":19849:19867   */\n      lt\n        /* \"#utility.yul\":19846:19895   */\n      iszero\n      tag_446\n      jumpi\n        /* \"#utility.yul\":19885:19893   */\n      dup2\n        /* \"#utility.yul\":19870:19893   */\n      swap1\n      pop\n        /* \"#utility.yul\":19846:19895   */\n    tag_446:\n        /* \"#utility.yul\":19908:19988   */\n      tag_447\n        /* \"#utility.yul\":19964:19986   */\n      tag_448\n        /* \"#utility.yul\":19982:19985   */\n      dup6\n        /* \"#utility.yul\":19964:19986   */\n      tag_236\n      jump\t// in\n    tag_448:\n        /* \"#utility.yul\":19954:19962   */\n      dup4\n        /* \"#utility.yul\":19950:19987   */\n      add\n        /* \"#utility.yul\":19937:19948   */\n      dup3\n        /* \"#utility.yul\":19908:19988   */\n      tag_245\n      jump\t// in\n    tag_447:\n        /* \"#utility.yul\":19567:19998   */\n      pop\n      pop\n        /* \"#utility.yul\":19552:19998   */\n    tag_443:\n        /* \"#utility.yul\":19462:20005   */\n      pop\n      pop\n      pop\n      jump\t// out\n        /* \"#utility.yul\":20011:20128   */\n    tag_247:\n        /* \"#utility.yul\":20065:20073   */\n      0x00\n        /* \"#utility.yul\":20115:20120   */\n      dup3\n        /* \"#utility.yul\":20109:20113   */\n      dup3\n        /* \"#utility.yul\":20105:20121   */\n      shr\n        /* \"#utility.yul\":20084:20121   */\n      swap1\n      pop\n        /* \"#utility.yul\":20011:20128   */\n      swap3\n      swap2\n      pop\n      pop\n      jump\t// out\n        /* \"#utility.yul\":20134:20303   */\n    tag_248:\n        /* \"#utility.yul\":20178:20184   */\n      0x00\n        /* \"#utility.yul\":20211:20262   */\n      tag_451\n        /* \"#utility.yul\":20259:20260   */\n      0x00\n        /* \"#utility.yul\":20255:20261   */\n      not\n        /* \"#utility.yul\":20247:20252   */\n      dup5\n        /* \"#utility.yul\":20244:20245   */\n      0x08\n        /* \"#utility.yul\":20240:20253   */\n      mul\n        /* \"#utility.yul\":20211:20262   */\n      tag_247\n      jump\t// in\n    tag_451:\n        /* \"#utility.yul\":20207:20263   */\n      not\n        /* \"#utility.yul\":20292:20296   */\n      dup1\n        /* \"#utility.yul\":20286:20290   */\n      dup4\n        /* \"#utility.yul\":20282:20297   */\n      and\n        /* \"#utility.yul\":20272:20297   */\n      swap2\n      pop\n        /* \"#utility.yul\":20185:20303   */\n      pop\n        /* \"#utility.yul\":20134:20303   */\n      swap3\n      swap2\n      pop\n      pop\n      jump\t// out\n        /* \"#utility.yul\":20308:20603   */\n    tag_249:\n        /* \"#utility.yul\":20384:20388   */\n      0x00\n        /* \"#utility.yul\":20530:20559   */\n      tag_453\n        /* \"#utility.yul\":20555:20558   */\n      dup4\n        /* \"#utility.yul\":20549:20553   */\n      dup4\n        /* \"#utility.yul\":20530:20559   */\n      tag_248\n      jump\t// in\n    tag_453:\n        /* \"#utility.yul\":20522:20559   */\n      swap2\n      pop\n        /* \"#utility.yul\":20592:20595   */\n      dup3\n        /* \"#utility.yul\":20589:20590   */\n      0x02\n        /* \"#utility.yul\":20585:20596   */\n      mul\n        /* \"#utility.yul\":20579:20583   */\n      dup3\n        /* \"#utility.yul\":20576:20597   */\n      or\n        /* \"#utility.yul\":20568:20597   */\n      swap1\n      pop\n        /* \"#utility.yul\":20308:20603   */\n      swap3\n      swap2\n      pop\n      pop\n      jump\t// out\n        /* \"#utility.yul\":20608:22003   */\n    tag_84:\n        /* \"#utility.yul\":20725:20762   */\n      tag_455\n        /* \"#utility.yul\":20758:20761   */\n      dup3\n        /* \"#utility.yul\":20725:20762   */\n      tag_221\n      jump\t// in\n    tag_455:\n        /* \"#utility.yul\":20827:20845   */\n      0xffffffffffffffff\n        /* \"#utility.yul\":20819:20825   */\n      dup2\n        /* \"#utility.yul\":20816:20846   */\n      gt\n        /* \"#utility.yul\":20813:20869   */\n      iszero\n      tag_456\n      jumpi\n        /* \"#utility.yul\":20849:20867   */\n      tag_457\n      tag_209\n      jump\t// in\n    tag_457:\n        /* \"#utility.yul\":20813:20869   */\n    tag_456:\n        /* \"#utility.yul\":20893:20931   */\n      tag_458\n        /* \"#utility.yul\":20925:20929   */\n      dup3\n        /* \"#utility.yul\":20919:20930   */\n      sload\n        /* \"#utility.yul\":20893:20931   */\n      tag_96\n      jump\t// in\n    tag_458:\n        /* \"#utility.yul\":20978:21045   */\n      tag_459\n        /* \"#utility.yul\":21038:21044   */\n      dup3\n        /* \"#utility.yul\":21030:21036   */\n      dup3\n        /* \"#utility.yul\":21024:21028   */\n      dup6\n        /* \"#utility.yul\":20978:21045   */\n      tag_246\n      jump\t// in\n    tag_459:\n        /* \"#utility.yul\":21072:21073   */\n      0x00\n        /* \"#utility.yul\":21096:21100   */\n      0x20\n        /* \"#utility.yul\":21083:21100   */\n      swap1\n      pop\n        /* \"#utility.yul\":21128:21130   */\n      0x1f\n        /* \"#utility.yul\":21120:21126   */\n      dup4\n        /* \"#utility.yul\":21117:21131   */\n      gt\n        /* \"#utility.yul\":21145:21146   */\n      0x01\n        /* \"#utility.yul\":21140:21758   */\n      dup2\n      eq\n      tag_461\n      jumpi\n        /* \"#utility.yul\":21802:21803   */\n      0x00\n        /* \"#utility.yul\":21819:21825   */\n      dup5\n        /* \"#utility.yul\":21816:21893   */\n      iszero\n      tag_462\n      jumpi\n        /* \"#utility.yul\":21868:21877   */\n      dup3\n        /* \"#utility.yul\":21863:21866   */\n      dup8\n        /* \"#utility.yul\":21859:21878   */\n      add\n        /* \"#utility.yul\":21853:21879   */\n      mload\n        /* \"#utility.yul\":21844:21879   */\n      swap1\n      pop\n        /* \"#utility.yul\":21816:21893   */\n    tag_462:\n        /* \"#utility.yul\":21919:21986   */\n      tag_463\n        /* \"#utility.yul\":21979:21985   */\n      dup6\n        /* \"#utility.yul\":21972:21977   */\n      dup3\n        /* \"#utility.yul\":21919:21986   */\n      tag_249\n      jump\t// in\n    tag_463:\n        /* \"#utility.yul\":21913:21917   */\n      dup7\n        /* \"#utility.yul\":21906:21987   */\n      sstore\n        /* \"#utility.yul\":21775:21997   */\n      pop\n        /* \"#utility.yul\":21110:21997   */\n      jump(tag_460)\n        /* \"#utility.yul\":21140:21758   */\n    tag_461:\n        /* \"#utility.yul\":21192:21196   */\n      0x1f\n        /* \"#utility.yul\":21188:21197   */\n      not\n        /* \"#utility.yul\":21180:21186   */\n      dup5\n        /* \"#utility.yul\":21176:21198   */\n      and\n        /* \"#utility.yul\":21226:21263   */\n      tag_464\n        /* \"#utility.yul\":21258:21262   */\n      dup7\n        /* \"#utility.yul\":21226:21263   */\n      tag_235\n      jump\t// in\n    tag_464:\n        /* \"#utility.yul\":21285:21286   */\n      0x00\n        /* \"#utility.yul\":21299:21507   */\n    tag_465:\n        /* \"#utility.yul\":21313:21320   */\n      dup3\n        /* \"#utility.yul\":21310:21311   */\n      dup2\n        /* \"#utility.yul\":21307:21321   */\n      lt\n        /* \"#utility.yul\":21299:21507   */\n      iszero\n      tag_467\n      jumpi\n        /* \"#utility.yul\":21392:21401   */\n      dup5\n        /* \"#utility.yul\":21387:21390   */\n      dup10\n        /* \"#utility.yul\":21383:21402   */\n      add\n        /* \"#utility.yul\":21377:21403   */\n      mload\n        /* \"#utility.yul\":21369:21375   */\n      dup3\n        /* \"#utility.yul\":21362:21404   */\n      sstore\n        /* \"#utility.yul\":21443:21444   */\n      0x01\n        /* \"#utility.yul\":21435:21441   */\n      dup3\n        /* \"#utility.yul\":21431:21445   */\n      add\n        /* \"#utility.yul\":21421:21445   */\n      swap2\n      pop\n        /* \"#utility.yul\":21490:21492   */\n      0x20\n        /* \"#utility.yul\":21479:21488   */\n      dup6\n        /* \"#utility.yul\":21475:21493   */\n      add\n        /* \"#utility.yul\":21462:21493   */\n      swap5\n      pop\n        /* \"#utility.yul\":21336:21340   */\n      0x20\n        /* \"#utility.yul\":21333:21334   */\n      dup2\n        /* \"#utility.yul\":21329:21341   */\n      add\n        /* \"#utility.yul\":21324:21341   */\n      swap1\n      pop\n        /* \"#utility.yul\":21299:21507   */\n      jump(tag_465)\n    tag_467:\n        /* \"#utility.yul\":21535:21541   */\n      dup7\n        /* \"#utility.yul\":21526:21533   */\n      dup4\n        /* \"#utility.yul\":21523:21542   */\n      lt\n        /* \"#utility.yul\":21520:21699   */\n      iszero\n      tag_468\n      jumpi\n        /* \"#utility.yul\":21593:21602   */\n      dup5\n        /* \"#utility.yul\":21588:21591   */\n      dup10\n        /* \"#utility.yul\":21584:21603   */\n      add\n        /* \"#utility.yul\":21578:21604   */\n      mload\n        /* \"#utility.yul\":21636:21684   */\n      tag_469\n        /* \"#utility.yul\":21678:21682   */\n      0x1f\n        /* \"#utility.yul\":21670:21676   */\n      dup10\n        /* \"#utility.yul\":21666:21683   */\n      and\n        /* \"#utility.yul\":21655:21664   */\n      dup3\n        /* \"#utility.yul\":21636:21684   */\n      tag_248\n      jump\t// in\n    tag_469:\n        /* \"#utility.yul\":21628:21634   */\n      dup4\n        /* \"#utility.yul\":21621:21685   */\n      sstore\n        /* \"#utility.yul\":21543:21699   */\n      pop\n        /* \"#utility.yul\":21520:21699   */\n    tag_468:\n        /* \"#utility.yul\":21745:21746   */\n      0x01\n        /* \"#utility.yul\":21741:21742   */\n      0x02\n        /* \"#utility.yul\":21733:21739   */\n      dup9\n        /* \"#utility.yul\":21729:21743   */\n      mul\n        /* \"#utility.yul\":21725:21747   */\n      add\n        /* \"#utility.yul\":21719:21723   */\n      dup9\n        /* \"#utility.yul\":21712:21748   */\n      sstore\n        /* \"#utility.yul\":21147:21758   */\n      pop\n      pop\n      pop\n        /* \"#utility.yul\":21110:21997   */\n    tag_460:\n      pop\n        /* \"#utility.yul\":20700:22003   */\n      pop\n      pop\n      pop\n        /* \"#utility.yul\":20608:22003   */\n      pop\n      pop\n      jump\t// out\n        /* \"#utility.yul\":22009:22432   */\n    tag_90:\n        /* \"#utility.yul\":22150:22154   */\n      0x00\n        /* \"#utility.yul\":22188:22190   */\n      0x40\n        /* \"#utility.yul\":22177:22186   */\n      dup3\n        /* \"#utility.yul\":22173:22191   */\n      add\n        /* \"#utility.yul\":22165:22191   */\n      swap1\n      pop\n        /* \"#utility.yul\":22201:22272   */\n      tag_471\n        /* \"#utility.yul\":22269:22270   */\n      0x00\n        /* \"#utility.yul\":22258:22267   */\n      dup4\n        /* \"#utility.yul\":22254:22271   */\n      add\n        /* \"#utility.yul\":22245:22251   */\n      dup6\n        /* \"#utility.yul\":22201:22272   */\n      tag_216\n      jump\t// in\n    tag_471:\n        /* \"#utility.yul\":22319:22328   */\n      dup2\n        /* \"#utility.yul\":22313:22317   */\n      dup2\n        /* \"#utility.yul\":22309:22329   */\n      sub\n        /* \"#utility.yul\":22304:22306   */\n      0x20\n        /* \"#utility.yul\":22293:22302   */\n      dup4\n        /* \"#utility.yul\":22289:22307   */\n      add\n        /* \"#utility.yul\":22282:22330   */\n      mstore\n        /* \"#utility.yul\":22347:22425   */\n      tag_472\n        /* \"#utility.yul\":22420:22424   */\n      dup2\n        /* \"#utility.yul\":22411:22417   */\n      dup5\n        /* \"#utility.yul\":22347:22425   */\n      tag_231\n      jump\t// in\n    tag_472:\n        /* \"#utility.yul\":22339:22425   */\n      swap1\n      pop\n        /* \"#utility.yul\":22009:22432   */\n      swap4\n      swap3\n      pop\n      pop\n      pop\n      jump\t// out\n        /* \"#utility.yul\":22438:22618   */\n    tag_127:\n        /* \"#utility.yul\":22486:22563   */\n      0x4e487b7100000000000000000000000000000000000000000000000000000000\n        /* \"#utility.yul\":22483:22484   */\n      0x00\n        /* \"#utility.yul\":22476:22564   */\n      mstore\n        /* \"#utility.yul\":22583:22587   */\n      0x32\n        /* \"#utility.yul\":22580:22581   */\n      0x04\n        /* \"#utility.yul\":22573:22588   */\n      mstore\n        /* \"#utility.yul\":22607:22611   */\n      0x24\n        /* \"#utility.yul\":22604:22605   */\n      0x00\n        /* \"#utility.yul\":22597:22612   */\n      revert\n        /* \"#utility.yul\":22624:22771   */\n    tag_250:\n        /* \"#utility.yul\":22725:22736   */\n      0x00\n        /* \"#utility.yul\":22762:22765   */\n      dup2\n        /* \"#utility.yul\":22747:22765   */\n      swap1\n      pop\n        /* \"#utility.yul\":22624:22771   */\n      swap3\n      swap2\n      pop\n      pop\n      jump\t// out\n        /* \"#utility.yul\":22777:22921   */\n    tag_251:\n        /* \"#utility.yul\":22829:22833   */\n      0x00\n        /* \"#utility.yul\":22852:22855   */\n      dup2\n        /* \"#utility.yul\":22844:22855   */\n      swap1\n      pop\n        /* \"#utility.yul\":22875:22878   */\n      dup2\n        /* \"#utility.yul\":22872:22873   */\n      0x00\n        /* \"#utility.yul\":22865:22879   */\n      mstore\n        /* \"#utility.yul\":22909:22913   */\n      0x20\n        /* \"#utility.yul\":22906:22907   */\n      0x00\n        /* \"#utility.yul\":22896:22914   */\n      keccak256\n        /* \"#utility.yul\":22888:22914   */\n      swap1\n      pop\n        /* \"#utility.yul\":22777:22921   */\n      swap2\n      swap1\n      pop\n      jump\t// out\n        /* \"#utility.yul\":22949:23827   */\n    tag_252:\n        /* \"#utility.yul\":23054:23057   */\n      0x00\n        /* \"#utility.yul\":23091:23096   */\n      dup2\n        /* \"#utility.yul\":23085:23097   */\n      sload\n        /* \"#utility.yul\":23120:23156   */\n      tag_477\n        /* \"#utility.yul\":23146:23155   */\n      dup2\n        /* \"#utility.yul\":23120:23156   */\n      tag_96\n      jump\t// in\n    tag_477:\n        /* \"#utility.yul\":23172:23260   */\n      tag_478\n        /* \"#utility.yul\":23253:23259   */\n      dup2\n        /* \"#utility.yul\":23248:23251   */\n      dup7\n        /* \"#utility.yul\":23172:23260   */\n      tag_250\n      jump\t// in\n    tag_478:\n        /* \"#utility.yul\":23165:23260   */\n      swap5\n      pop\n        /* \"#utility.yul\":23291:23292   */\n      0x01\n        /* \"#utility.yul\":23280:23289   */\n      dup3\n        /* \"#utility.yul\":23276:23293   */\n      and\n        /* \"#utility.yul\":23307:23308   */\n      0x00\n        /* \"#utility.yul\":23302:23468   */\n      dup2\n      eq\n      tag_480\n      jumpi\n        /* \"#utility.yul\":23482:23483   */\n      0x01\n        /* \"#utility.yul\":23477:23821   */\n      dup2\n      eq\n      tag_481\n      jumpi\n        /* \"#utility.yul\":23269:23821   */\n      jump(tag_479)\n        /* \"#utility.yul\":23302:23468   */\n    tag_480:\n        /* \"#utility.yul\":23386:23390   */\n      0xff\n        /* \"#utility.yul\":23382:23391   */\n      not\n        /* \"#utility.yul\":23371:23380   */\n      dup4\n        /* \"#utility.yul\":23367:23392   */\n      and\n        /* \"#utility.yul\":23362:23365   */\n      dup7\n        /* \"#utility.yul\":23355:23393   */\n      mstore\n        /* \"#utility.yul\":23448:23454   */\n      dup2\n        /* \"#utility.yul\":23441:23455   */\n      iszero\n        /* \"#utility.yul\":23434:23456   */\n      iszero\n        /* \"#utility.yul\":23426:23432   */\n      dup3\n        /* \"#utility.yul\":23422:23457   */\n      mul\n        /* \"#utility.yul\":23417:23420   */\n      dup7\n        /* \"#utility.yul\":23413:23458   */\n      add\n        /* \"#utility.yul\":23406:23458   */\n      swap4\n      pop\n        /* \"#utility.yul\":23302:23468   */\n      jump(tag_479)\n        /* \"#utility.yul\":23477:23821   */\n    tag_481:\n        /* \"#utility.yul\":23544:23585   */\n      tag_482\n        /* \"#utility.yul\":23579:23584   */\n      dup6\n        /* \"#utility.yul\":23544:23585   */\n      tag_251\n      jump\t// in\n    tag_482:\n        /* \"#utility.yul\":23607:23608   */\n      0x00\n        /* \"#utility.yul\":23621:23775   */\n    tag_483:\n        /* \"#utility.yul\":23635:23641   */\n      dup4\n        /* \"#utility.yul\":23632:23633   */\n      dup2\n        /* \"#utility.yul\":23629:23642   */\n      lt\n        /* \"#utility.yul\":23621:23775   */\n      iszero\n      tag_485\n      jumpi\n        /* \"#utility.yul\":23709:23716   */\n      dup2\n        /* \"#utility.yul\":23703:23717   */\n      sload\n        /* \"#utility.yul\":23699:23700   */\n      dup2\n        /* \"#utility.yul\":23694:23697   */\n      dup10\n        /* \"#utility.yul\":23690:23701   */\n      add\n        /* \"#utility.yul\":23683:23718   */\n      mstore\n        /* \"#utility.yul\":23759:23760   */\n      0x01\n        /* \"#utility.yul\":23750:23757   */\n      dup3\n        /* \"#utility.yul\":23746:23761   */\n      add\n        /* \"#utility.yul\":23735:23761   */\n      swap2\n      pop\n        /* \"#utility.yul\":23657:23661   */\n      0x20\n        /* \"#utility.yul\":23654:23655   */\n      dup2\n        /* \"#utility.yul\":23650:23662   */\n      add\n        /* \"#utility.yul\":23645:23662   */\n      swap1\n      pop\n        /* \"#utility.yul\":23621:23775   */\n      jump(tag_483)\n    tag_485:\n        /* \"#utility.yul\":23804:23810   */\n      dup4\n        /* \"#utility.yul\":23799:23802   */\n      dup9\n        /* \"#utility.yul\":23795:23811   */\n      add\n        /* \"#utility.yul\":23788:23811   */\n      swap6\n      pop\n        /* \"#utility.yul\":23484:23821   */\n      pop\n      pop\n        /* \"#utility.yul\":23269:23821   */\n    tag_479:\n      pop\n        /* \"#utility.yul\":23058:23827   */\n      pop\n      pop\n        /* \"#utility.yul\":22949:23827   */\n      swap3\n      swap2\n      pop\n      pop\n      jump\t// out\n        /* \"#utility.yul\":23833:24106   */\n    tag_130:\n        /* \"#utility.yul\":23964:23967   */\n      0x00\n        /* \"#utility.yul\":23986:24080   */\n      tag_487\n        /* \"#utility.yul\":24076:24079   */\n      dup3\n        /* \"#utility.yul\":24067:24073   */\n      dup5\n        /* \"#utility.yul\":23986:24080   */\n      tag_252\n      jump\t// in\n    tag_487:\n        /* \"#utility.yul\":23979:24080   */\n      swap2\n      pop\n        /* \"#utility.yul\":24097:24100   */\n      dup2\n        /* \"#utility.yul\":24090:24100   */\n      swap1\n      pop\n        /* \"#utility.yul\":23833:24106   */\n      swap3\n      swap2\n      pop\n      pop\n      jump\t// out\n        /* \"#utility.yul\":24112:24292   */\n    tag_253:\n        /* \"#utility.yul\":24160:24237   */\n      0x4e487b7100000000000000000000000000000000000000000000000000000000\n        /* \"#utility.yul\":24157:24158   */\n      0x00\n        /* \"#utility.yul\":24150:24238   */\n      mstore\n        /* \"#utility.yul\":24257:24261   */\n      0x11\n        /* \"#utility.yul\":24254:24255   */\n      0x04\n        /* \"#utility.yul\":24247:24262   */\n      mstore\n        /* \"#utility.yul\":24281:24285   */\n      0x24\n        /* \"#utility.yul\":24278:24279   */\n      0x00\n        /* \"#utility.yul\":24271:24286   */\n      revert\n        /* \"#utility.yul\":24298:24531   */\n    tag_133:\n        /* \"#utility.yul\":24337:24340   */\n      0x00\n        /* \"#utility.yul\":24360:24384   */\n      tag_490\n        /* \"#utility.yul\":24378:24383   */\n      dup3\n        /* \"#utility.yul\":24360:24384   */\n      tag_203\n      jump\t// in\n    tag_490:\n        /* \"#utility.yul\":24351:24384   */\n      swap2\n      pop\n        /* \"#utility.yul\":24406:24472   */\n      0xffffffffffffffffffffffffffffffffffffffffffffffffffffffffffffffff\n        /* \"#utility.yul\":24399:24404   */\n      dup3\n        /* \"#utility.yul\":24396:24473   */\n      sub\n        /* \"#utility.yul\":24393:24496   */\n      tag_491\n      jumpi\n        /* \"#utility.yul\":24476:24494   */\n      tag_492\n      tag_253\n      jump\t// in\n    tag_492:\n        /* \"#utility.yul\":24393:24496   */\n    tag_491:\n        /* \"#utility.yul\":24523:24524   */\n      0x01\n        /* \"#utility.yul\":24516:24521   */\n      dup3\n        /* \"#utility.yul\":24512:24525   */\n      add\n        /* \"#utility.yul\":24505:24525   */\n      swap1\n      pop\n        /* \"#utility.yul\":24298:24531   */\n      swap2\n      swap1\n      pop\n      jump\t// out\n        /* \"#utility.yul\":24537:24947   */\n    tag_135:\n        /* \"#utility.yul\":24577:24584   */\n      0x00\n        /* \"#utility.yul\":24600:24620   */\n      tag_494\n        /* \"#utility.yul\":24618:24619   */\n      dup3\n        /* \"#utility.yul\":24600:24620   */\n      tag_203\n      jump\t// in\n    tag_494:\n        /* \"#utility.yul\":24595:24620   */\n      swap2\n      pop\n        /* \"#utility.yul\":24634:24654   */\n      tag_495\n        /* \"#utility.yul\":24652:24653   */\n      dup4\n        /* \"#utility.yul\":24634:24654   */\n      tag_203\n      jump\t// in\n    tag_495:\n        /* \"#utility.yul\":24629:24654   */\n      swap3\n      pop\n        /* \"#utility.yul\":24689:24690   */\n      dup3\n        /* \"#utility.yul\":24686:24687   */\n      dup3\n        /* \"#utility.yul\":24682:24691   */\n      mul\n        /* \"#utility.yul\":24711:24741   */\n      tag_496\n        /* \"#utility.yul\":24729:24740   */\n      dup2\n        /* \"#utility.yul\":24711:24741   */\n      tag_203\n      jump\t// in\n    tag_496:\n        /* \"#utility.yul\":24700:24741   */\n      swap2\n      pop\n        /* \"#utility.yul\":24890:24891   */\n      dup3\n        /* \"#utility.yul\":24881:24888   */\n      dup3\n        /* \"#utility.yul\":24877:24892   */\n      div\n        /* \"#utility.yul\":24874:24875   */\n      dup5\n        /* \"#utility.yul\":24871:24893   */\n      eq\n        /* \"#utility.yul\":24851:24852   */\n      dup4\n        /* \"#utility.yul\":24844:24853   */\n      iszero\n        /* \"#utility.yul\":24824:24907   */\n      or\n        /* \"#utility.yul\":24801:24940   */\n      tag_497\n      jumpi\n        /* \"#utility.yul\":24920:24938   */\n      tag_498\n      tag_253\n      jump\t// in\n    tag_498:\n        /* \"#utility.yul\":24801:24940   */\n    tag_497:\n        /* \"#utility.yul\":24585:24947   */\n      pop\n        /* \"#utility.yul\":24537:24947   */\n      swap3\n      swap2\n      pop\n      pop\n      jump\t// out\n        /* \"#utility.yul\":24953:25188   */\n    tag_254:\n        /* \"#utility.yul\":25093:25127   */\n      0x556e617574686f72697a65643a204f6e6c79206f776e65722063616e20706572\n        /* \"#utility.yul\":25089:25090   */\n      0x00\n        /* \"#utility.yul\":25081:25087   */\n      dup3\n        /* \"#utility.yul\":25077:25091   */\n      add\n        /* \"#utility.yul\":25070:25128   */\n      mstore\n        /* \"#utility.yul\":25162:25180   */\n      0x666f726d207468697320616374696f6e00000000000000000000000000000000\n        /* \"#utility.yul\":25157:25159   */\n      0x20\n        /* \"#utility.yul\":25149:25155   */\n      dup3\n        /* \"#utility.yul\":25145:25160   */\n      add\n        /* \"#utility.yul\":25138:25181   */\n      mstore\n        /* \"#utility.yul\":24953:25188   */\n      pop\n      jump\t// out\n        /* \"#utility.yul\":25194:25560   */\n    tag_255:\n        /* \"#utility.yul\":25336:25339   */\n      0x00\n        /* \"#utility.yul\":25357:25424   */\n      tag_501\n        /* \"#utility.yul\":25421:25423   */\n      0x30\n        /* \"#utility.yul\":25416:25419   */\n      dup4\n        /* \"#utility.yul\":25357:25424   */\n      tag_230\n      jump\t// in\n    tag_501:\n        /* \"#utility.yul\":25350:25424   */\n      swap2\n      pop\n        /* \"#utility.yul\":25433:25526   */\n      tag_502\n        /* \"#utility.yul\":25522:25525   */\n      dup3\n        /* \"#utility.yul\":25433:25526   */\n      tag_254\n      jump\t// in\n    tag_502:\n        /* \"#utility.yul\":25551:25553   */\n      0x40\n        /* \"#utility.yul\":25546:25549   */\n      dup3\n        /* \"#utility.yul\":25542:25554   */\n      add\n        /* \"#utility.yul\":25535:25554   */\n      swap1\n      pop\n        /* \"#utility.yul\":25194:25560   */\n      swap2\n      swap1\n      pop\n      jump\t// out\n        /* \"#utility.yul\":25566:25985   */\n    tag_179:\n        /* \"#utility.yul\":25732:25736   */\n      0x00\n        /* \"#utility.yul\":25770:25772   */\n      0x20\n        /* \"#utility.yul\":25759:25768   */\n      dup3\n        /* \"#utility.yul\":25755:25773   */\n      add\n        /* \"#utility.yul\":25747:25773   */\n      swap1\n      pop\n        /* \"#utility.yul\":25819:25828   */\n      dup2\n        /* \"#utility.yul\":25813:25817   */\n      dup2\n        /* \"#utility.yul\":25809:25829   */\n      sub\n        /* \"#utility.yul\":25805:25806   */\n      0x00\n        /* \"#utility.yul\":25794:25803   */\n      dup4\n        /* \"#utility.yul\":25790:25807   */\n      add\n        /* \"#utility.yul\":25783:25830   */\n      mstore\n        /* \"#utility.yul\":25847:25978   */\n      tag_504\n        /* \"#utility.yul\":25973:25977   */\n      dup2\n        /* \"#utility.yul\":25847:25978   */\n      tag_255\n      jump\t// in\n    tag_504:\n        /* \"#utility.yul\":25839:25978   */\n      swap1\n      pop\n        /* \"#utility.yul\":25566:25985   */\n      swap2\n      swap1\n      pop\n      jump\t// out\n        /* \"#utility.yul\":25991:26214   */\n    tag_256:\n        /* \"#utility.yul\":26131:26165   */\n      0x4e6577206f776e65722063616e6e6f7420626520746865207a65726f20616464\n        /* \"#utility.yul\":26127:26128   */\n      0x00\n        /* \"#utility.yul\":26119:26125   */\n      dup3\n        /* \"#utility.yul\":26115:26129   */\n      add\n        /* \"#utility.yul\":26108:26166   */\n      mstore\n        /* \"#utility.yul\":26200:26206   */\n      0x7265737300000000000000000000000000000000000000000000000000000000\n        /* \"#utility.yul\":26195:26197   */\n      0x20\n        /* \"#utility.yul\":26187:26193   */\n      dup3\n        /* \"#utility.yul\":26183:26198   */\n      add\n        /* \"#utility.yul\":26176:26207   */\n      mstore\n        /* \"#utility.yul\":25991:26214   */\n      pop\n      jump\t// out\n        /* \"#utility.yul\":26220:26586   */\n    tag_257:\n        /* \"#utility.yul\":26362:26365   */\n      0x00\n        /* \"#utility.yul\":26383:26450   */\n      tag_507\n        /* \"#utility.yul\":26447:26449   */\n      0x24\n        /* \"#utility.yul\":26442:26445   */\n      dup4\n        /* \"#utility.yul\":26383:26450   */\n      tag_230\n      jump\t// in\n    tag_507:\n        /* \"#utility.yul\":26376:26450   */\n      swap2\n      pop\n        /* \"#utility.yul\":26459:26552   */\n      tag_508\n        /* \"#utility.yul\":26548:26551   */\n      dup3\n        /* \"#utility.yul\":26459:26552   */\n      tag_256\n      jump\t// in\n    tag_508:\n        /* \"#utility.yul\":26577:26579   */\n      0x40\n        /* \"#utility.yul\":26572:26575   */\n      dup3\n        /* \"#utility.yul\":26568:26580   */\n      add\n        /* \"#utility.yul\":26561:26580   */\n      swap1\n      pop\n        /* \"#utility.yul\":26220:26586   */\n      swap2\n      swap1\n      pop\n      jump\t// out\n        /* \"#utility.yul\":26592:27011   */\n    tag_193:\n        /* \"#utility.yul\":26758:26762   */\n      0x00\n        /* \"#utility.yul\":26796:26798   */\n      0x20\n        /* \"#utility.yul\":26785:26794   */\n      dup3\n        /* \"#utility.yul\":26781:26799   */\n      add\n        /* \"#utility.yul\":26773:26799   */\n      swap1\n      pop\n        /* \"#utility.yul\":26845:26854   */\n      dup2\n        /* \"#utility.yul\":26839:26843   */\n      dup2\n        /* \"#utility.yul\":26835:26855   */\n      sub\n        /* \"#utility.yul\":26831:26832   */\n      0x00\n        /* \"#utility.yul\":26820:26829   */\n      dup4\n        /* \"#utility.yul\":26816:26833   */\n      add\n        /* \"#utility.yul\":26809:26856   */\n      mstore\n        /* \"#utility.yul\":26873:27004   */\n      tag_510\n        /* \"#utility.yul\":26999:27003   */\n      dup2\n        /* \"#utility.yul\":26873:27004   */\n      tag_257\n      jump\t// in\n    tag_510:\n        /* \"#utility.yul\":26865:27004   */\n      swap1\n      pop\n        /* \"#utility.yul\":26592:27011   */\n      swap2\n      swap1\n      pop\n      jump\t// out\n\n    auxdata: 0xa2646970667358221220bb136cb14b9e5624f6b9c7fd969a6ae64d85914015931db475f871bb95670f5a64736f6c63430008160033\n}\n",
				"bytecode": {
					"linkReferences": {},
					"object": "608060405234801562000010575f80fd5b50604051620020d9380380620020d98339818101604052810190620000369190620000bf565b335f806101000a81548173ffffffffffffffffffffffffffffffffffffffff021916908373ffffffffffffffffffffffffffffffffffffffff1602179055508060048190555050620000ef565b5f80fd5b5f819050919050565b6200009b8162000087565b8114620000a6575f80fd5b50565b5f81519050620000b98162000090565b92915050565b5f60208284031215620000d757620000d662000083565b5b5f620000e684828501620000a9565b91505092915050565b611fdc80620000fd5f395ff3fe608060405234801561000f575f80fd5b50600436106100cd575f3560e01c80638da5cb5b1161008a578063b75d319211610064578063b75d31921461023d578063f27afa3014610259578063f2fde38b14610275578063f386b30614610291576100cd565b80638da5cb5b146101b757806397c6a46f146101d5578063a245e11e1461020d576100cd565b806324649c40146100d15780632771c997146101015780633cb13f6b1461011d578063624b168d146101395780637366adcf146101575780638c1733e814610187575b5f80fd5b6100eb60048036038101906100e69190611263565b6102c1565b6040516100f891906112a8565b60405180910390f35b61011b60048036038101906101169190611263565b6102de565b005b61013760048036038101906101329190611430565b6103f6565b005b6101416105d6565b60405161014e919061158f565b60405180910390f35b610171600480360381019061016c91906115a8565b6105dc565b60405161017e91906117f5565b60405180910390f35b6101a1600480360381019061019c91906115a8565b610941565b6040516101ae919061158f565b60405180910390f35b6101bf610a2c565b6040516101cc9190611824565b60405180910390f35b6101ef60048036038101906101ea919061183d565b610a4f565b604051610204999897969594939291906118c3565b60405180910390f35b610227600480360381019061022291906115a8565b610d51565b604051610234919061158f565b60405180910390f35b61025760048036038101906102529190611263565b610e3c565b005b610273600480360381019061026e91906115a8565b610f57565b005b61028f600480360381019061028a9190611263565b611025565b005b6102ab60048036038101906102a69190611263565b6111db565b6040516102b891906112a8565b60405180910390f35b6001602052805f5260405f205f915054906101000a900460ff1681565b60025f3373ffffffffffffffffffffffffffffffffffffffff1673ffffffffffffffffffffffffffffffffffffffff1681526020019081526020015f205f9054906101000a900460ff16610367576040517f08c379a000000000000000000000000000000000000000000000000000000000815260040161035e906119e1565b60405180910390fd5b600160025f8373ffffffffffffffffffffffffffffffffffffffff1673ffffffffffffffffffffffffffffffffffffffff1681526020019081526020015f205f6101000a81548160ff0219169083151502179055507fc0a6f706e3079b084ac0ab0ccb0cb52b442de5e969291477bf63cfc3f06c264d816040516103eb9190611824565b60405180910390a150565b60025f3373ffffffffffffffffffffffffffffffffffffffff1673ffffffffffffffffffffffffffffffffffffffff1681526020019081526020015f205f9054906101000a900460ff1661047f576040517f08c379a0000000000000000000000000000000000000000000000000000000008152600401610476906119e1565b60405180910390fd5b5f6040518061012001604052808b81526020018a815260200189815260200188815260200187815260200186815260200185815260200184815260200183815250905060035f8b81526020019081526020015f2081908060018154018082558091505060019003905f5260205f2090600902015f909190919091505f820151815f015560208201518160010190816105179190611bf9565b506040820151816002015560608201518160030190816105379190611bf9565b50608082015181600401908161054d9190611bf9565b5060a0820151816005015560c082015181600601908161056d9190611bf9565b5060e0820151816007015561010082015181600801908161058e9190611bf9565b5050507f9972cb5b577f71380a5a31b132b1cdb1bac44255f5ef6cb82011c94e59c269a08a836040516105c2929190611cc8565b60405180910390a150505050505050505050565b60045481565b606060035f8381526020019081526020015f20805480602002602001604051908101604052809291908181526020015f905b82821015610936578382905f5260205f209060090201604051806101200160405290815f820154815260200160018201805461064990611a2c565b80601f016020809104026020016040519081016040528092919081815260200182805461067590611a2c565b80156106c05780601f10610697576101008083540402835291602001916106c0565b820191905f5260205f20905b8154815290600101906020018083116106a357829003601f168201915b50505050508152602001600282015481526020016003820180546106e390611a2c565b80601f016020809104026020016040519081016040528092919081815260200182805461070f90611a2c565b801561075a5780601f106107315761010080835404028352916020019161075a565b820191905f5260205f20905b81548152906001019060200180831161073d57829003601f168201915b5050505050815260200160048201805461077390611a2c565b80601f016020809104026020016040519081016040528092919081815260200182805461079f90611a2c565b80156107ea5780601f106107c1576101008083540402835291602001916107ea565b820191905f5260205f20905b8154815290600101906020018083116107cd57829003601f168201915b505050505081526020016005820154815260200160068201805461080d90611a2c565b80601f016020809104026020016040519081016040528092919081815260200182805461083990611a2c565b80156108845780601f1061085b57610100808354040283529160200191610884565b820191905f5260205f20905b81548152906001019060200180831161086757829003601f168201915b50505050508152602001600782015481526020016008820180546108a790611a2c565b80601f01602080910402602001604051908101604052809291908181526020018280546108d390611a2c565b801561091e5780601f106108f55761010080835404028352916020019161091e565b820191905f5260205f20905b81548152906001019060200180831161090157829003601f168201915b5050505050815250508152602001906001019061060e565b505050509050919050565b5f805f90505f5b60035f8581526020019081526020015f2080549050811015610a09576040518060400160405280600181526020017f41000000000000000000000000000000000000000000000000000000000000008152508051906020012060035f8681526020019081526020015f2082815481106109c4576109c3611cf6565b5b905f5260205f2090600902016008016040516109e09190611dbf565b6040518091039020036109fc5781806109f890611e02565b9250505b8080600101915050610948565b50600454600582610a1a9190611e49565b610a249190611e49565b915050919050565b5f8054906101000a900473ffffffffffffffffffffffffffffffffffffffff1681565b6003602052815f5260405f208181548110610a68575f80fd5b905f5260205f2090600902015f9150915050805f015490806001018054610a8e90611a2c565b80601f0160208091040260200160405190810160405280929190818152602001828054610aba90611a2c565b8015610b055780601f10610adc57610100808354040283529160200191610b05565b820191905f5260205f20905b815481529060010190602001808311610ae857829003601f168201915b505050505090806002015490806003018054610b2090611a2c565b80601f0160208091040260200160405190810160405280929190818152602001828054610b4c90611a2c565b8015610b975780601f10610b6e57610100808354040283529160200191610b97565b820191905f5260205f20905b815481529060010190602001808311610b7a57829003601f168201915b505050505090806004018054610bac90611a2c565b80601f0160208091040260200160405190810160405280929190818152602001828054610bd890611a2c565b8015610c235780601f10610bfa57610100808354040283529160200191610c23565b820191905f5260205f20905b815481529060010190602001808311610c0657829003601f168201915b505050505090806005015490806006018054610c3e90611a2c565b80601f0160208091040260200160405190810160405280929190818152602001828054610c6a90611a2c565b8015610cb55780601f10610c8c57610100808354040283529160200191610cb5565b820191905f5260205f20905b815481529060010190602001808311610c9857829003601f168201915b505050505090806007015490806008018054610cd090611a2c565b80601f0160208091040260200160405190810160405280929190818152602001828054610cfc90611a2c565b8015610d475780601f10610d1e57610100808354040283529160200191610d47565b820191905f5260205f20905b815481529060010190602001808311610d2a57829003601f168201915b5050505050905089565b5f805f90505f5b60035f8581526020019081526020015f2080549050811015610e19576040518060400160405280600181526020017f42000000000000000000000000000000000000000000000000000000000000008152508051906020012060035f8681526020019081526020015f208281548110610dd457610dd3611cf6565b5b905f5260205f209060090201600801604051610df09190611dbf565b604051809103902003610e0c578180610e0890611e02565b9250505b8080600101915050610d58565b50600454600282610e2a9190611e49565b610e349190611e49565b915050919050565b5f8054906101000a900473ffffffffffffffffffffffffffffffffffffffff1673ffffffffffffffffffffffffffffffffffffffff163373ffffffffffffffffffffffffffffffffffffffff1614610ec9576040517f08c379a0000000000000000000000000000000000000000000000000000000008152600401610ec090611efa565b60405180910390fd5b6001805f8373ffffffffffffffffffffffffffffffffffffffff1673ffffffffffffffffffffffffffffffffffffffff1681526020019081526020015f205f6101000a81548160ff0219169083151502179055507fc96b482d82830f7e383d0f446c464f3c02249984e5de3574846645e8cb37d7ba81604051610f4c9190611824565b60405180910390a150565b5f8054906101000a900473ffffffffffffffffffffffffffffffffffffffff1673ffffffffffffffffffffffffffffffffffffffff163373ffffffffffffffffffffffffffffffffffffffff1614610fe4576040517f08c379a0000000000000000000000000000000000000000000000000000000008152600401610fdb90611efa565b60405180910390fd5b806004819055507fb5d1625b4fa3506b61c8fb05acf8d2c0b97dc5a3c71927e0b6cecf630b9395a58160405161101a919061158f565b60405180910390a150565b5f8054906101000a900473ffffffffffffffffffffffffffffffffffffffff1673ffffffffffffffffffffffffffffffffffffffff163373ffffffffffffffffffffffffffffffffffffffff16146110b2576040517f08c379a00000000000000000000000000000000000000000000000000000000081526004016110a990611efa565b60405180910390fd5b5f73ffffffffffffffffffffffffffffffffffffffff168173ffffffffffffffffffffffffffffffffffffffff1603611120576040517f08c379a000000000000000000000000000000000000000000000000000000000815260040161111790611f88565b60405180910390fd5b8073ffffffffffffffffffffffffffffffffffffffff165f8054906101000a900473ffffffffffffffffffffffffffffffffffffffff1673ffffffffffffffffffffffffffffffffffffffff167f8be0079c531659141344cd1fd0a4f28419497f9722a3daafe3b4186f6b6457e060405160405180910390a3805f806101000a81548173ffffffffffffffffffffffffffffffffffffffff021916908373ffffffffffffffffffffffffffffffffffffffff16021790555050565b6002602052805f5260405f205f915054906101000a900460ff1681565b5f604051905090565b5f80fd5b5f80fd5b5f73ffffffffffffffffffffffffffffffffffffffff82169050919050565b5f61123282611209565b9050919050565b61124281611228565b811461124c575f80fd5b50565b5f8135905061125d81611239565b92915050565b5f6020828403121561127857611277611201565b5b5f6112858482850161124f565b91505092915050565b5f8115159050919050565b6112a28161128e565b82525050565b5f6020820190506112bb5f830184611299565b92915050565b5f819050919050565b6112d3816112c1565b81146112dd575f80fd5b50565b5f813590506112ee816112ca565b92915050565b5f80fd5b5f80fd5b5f601f19601f8301169050919050565b7f4e487b71000000000000000000000000000000000000000000000000000000005f52604160045260245ffd5b611342826112fc565b810181811067ffffffffffffffff821117156113615761136061130c565b5b80604052505050565b5f6113736111f8565b905061137f8282611339565b919050565b5f67ffffffffffffffff82111561139e5761139d61130c565b5b6113a7826112fc565b9050602081019050919050565b828183375f83830152505050565b5f6113d46113cf84611384565b61136a565b9050828152602081018484840111156113f0576113ef6112f8565b5b6113fb8482856113b4565b509392505050565b5f82601f830112611417576114166112f4565b5b81356114278482602086016113c2565b91505092915050565b5f805f805f805f805f6101208a8c03121561144e5761144d611201565b5b5f61145b8c828d016112e0565b99505060208a013567ffffffffffffffff81111561147c5761147b611205565b5b6114888c828d01611403565b98505060406114998c828d016112e0565b97505060608a013567ffffffffffffffff8111156114ba576114b9611205565b5b6114c68c828d01611403565b96505060808a013567ffffffffffffffff8111156114e7576114e6611205565b5b6114f38c828d01611403565b95505060a06115048c828d016112e0565b94505060c08a013567ffffffffffffffff81111561152557611524611205565b5b6115318c828d01611403565b93505060e06115428c828d016112e0565b9250506101008a013567ffffffffffffffff81111561156457611563611205565b5b6115708c828d01611403565b9150509295985092959850929598565b611589816112c1565b82525050565b5f6020820190506115a25f830184611580565b92915050565b5f602082840312156115bd576115bc611201565b5b5f6115ca848285016112e0565b91505092915050565b5f81519050919050565b5f82825260208201905092915050565b5f819050602082019050919050565b611605816112c1565b82525050565b5f81519050919050565b5f82825260208201905092915050565b5f5b83811015611642578082015181840152602081019050611627565b5f8484015250505050565b5f6116578261160b565b6116618185611615565b9350611671818560208601611625565b61167a816112fc565b840191505092915050565b5f61012083015f83015161169b5f8601826115fc565b50602083015184820360208601526116b3828261164d565b91505060408301516116c860408601826115fc565b50606083015184820360608601526116e0828261164d565b915050608083015184820360808601526116fa828261164d565b91505060a083015161170f60a08601826115fc565b5060c083015184820360c0860152611727828261164d565b91505060e083015161173c60e08601826115fc565b50610100830151848203610100860152611756828261164d565b9150508091505092915050565b5f61176e8383611685565b905092915050565b5f602082019050919050565b5f61178c826115d3565b61179681856115dd565b9350836020820285016117a8856115ed565b805f5b858110156117e357848403895281516117c48582611763565b94506117cf83611776565b925060208a019950506001810190506117ab565b50829750879550505050505092915050565b5f6020820190508181035f83015261180d8184611782565b905092915050565b61181e81611228565b82525050565b5f6020820190506118375f830184611815565b92915050565b5f806040838503121561185357611852611201565b5b5f611860858286016112e0565b9250506020611871858286016112e0565b9150509250929050565b5f82825260208201905092915050565b5f6118958261160b565b61189f818561187b565b93506118af818560208601611625565b6118b8816112fc565b840191505092915050565b5f610120820190506118d75f83018c611580565b81810360208301526118e9818b61188b565b90506118f8604083018a611580565b818103606083015261190a818961188b565b9050818103608083015261191e818861188b565b905061192d60a0830187611580565b81810360c083015261193f818661188b565b905061194e60e0830185611580565b818103610100830152611961818461188b565b90509a9950505050505050505050565b7f556e617574686f72697a65643a204f6e6c79206d656d6265722063616e2070655f8201527f72666f726d207468697320616374696f6e000000000000000000000000000000602082015250565b5f6119cb60318361187b565b91506119d682611971565b604082019050919050565b5f6020820190508181035f8301526119f8816119bf565b9050919050565b7f4e487b71000000000000000000000000000000000000000000000000000000005f52602260045260245ffd5b5f6002820490506001821680611a4357607f821691505b602082108103611a5657611a556119ff565b5b50919050565b5f819050815f5260205f209050919050565b5f6020601f8301049050919050565b5f82821b905092915050565b5f60088302611ab87fffffffffffffffffffffffffffffffffffffffffffffffffffffffffffffffff82611a7d565b611ac28683611a7d565b95508019841693508086168417925050509392505050565b5f819050919050565b5f611afd611af8611af3846112c1565b611ada565b6112c1565b9050919050565b5f819050919050565b611b1683611ae3565b611b2a611b2282611b04565b848454611a89565b825550505050565b5f90565b611b3e611b32565b611b49818484611b0d565b505050565b5b81811015611b6c57611b615f82611b36565b600181019050611b4f565b5050565b601f821115611bb157611b8281611a5c565b611b8b84611a6e565b81016020851015611b9a578190505b611bae611ba685611a6e565b830182611b4e565b50505b505050565b5f82821c905092915050565b5f611bd15f1984600802611bb6565b1980831691505092915050565b5f611be98383611bc2565b9150826002028217905092915050565b611c028261160b565b67ffffffffffffffff811115611c1b57611c1a61130c565b5b611c258254611a2c565b611c30828285611b70565b5f60209050601f831160018114611c61575f8415611c4f578287015190505b611c598582611bde565b865550611cc0565b601f198416611c6f86611a5c565b5f5b82811015611c9657848901518255600182019150602085019450602081019050611c71565b86831015611cb35784890151611caf601f891682611bc2565b8355505b6001600288020188555050505b505050505050565b5f604082019050611cdb5f830185611580565b8181036020830152611ced818461188b565b90509392505050565b7f4e487b71000000000000000000000000000000000000000000000000000000005f52603260045260245ffd5b5f81905092915050565b5f819050815f5260205f209050919050565b5f8154611d4b81611a2c565b611d558186611d23565b9450600182165f8114611d6f5760018114611d8457611db6565b60ff1983168652811515820286019350611db6565b611d8d85611d2d565b5f5b83811015611dae57815481890152600182019150602081019050611d8f565b838801955050505b50505092915050565b5f611dca8284611d3f565b915081905092915050565b7f4e487b71000000000000000000000000000000000000000000000000000000005f52601160045260245ffd5b5f611e0c826112c1565b91507fffffffffffffffffffffffffffffffffffffffffffffffffffffffffffffffff8203611e3e57611e3d611dd5565b5b600182019050919050565b5f611e53826112c1565b9150611e5e836112c1565b9250828202611e6c816112c1565b91508282048414831517611e8357611e82611dd5565b5b5092915050565b7f556e617574686f72697a65643a204f6e6c79206f776e65722063616e207065725f8201527f666f726d207468697320616374696f6e00000000000000000000000000000000602082015250565b5f611ee460308361187b565b9150611eef82611e8a565b604082019050919050565b5f6020820190508181035f830152611f1181611ed8565b9050919050565b7f4e6577206f776e65722063616e6e6f7420626520746865207a65726f206164645f8201527f7265737300000000000000000000000000000000000000000000000000000000602082015250565b5f611f7260248361187b565b9150611f7d82611f18565b604082019050919050565b5f6020820190508181035f830152611f9f81611f66565b905091905056fea2646970667358221220bb136cb14b9e5624f6b9c7fd969a6ae64d85914015931db475f871bb95670f5a64736f6c63430008160033",
					"opcodes": "PUSH1 0x80 PUSH1 0x40 MSTORE CALLVALUE DUP1 ISZERO PUSH3 0x10 JUMPI PUSH0 DUP1 REVERT JUMPDEST POP PUSH1 0x40 MLOAD PUSH3 0x20D9 CODESIZE SUB DUP1 PUSH3 0x20D9 DUP4 CODECOPY DUP2 DUP2 ADD PUSH1 0x40 MSTORE DUP2 ADD SWAP1 PUSH3 0x36 SWAP2 SWAP1 PUSH3 0xBF JUMP JUMPDEST CALLER PUSH0 DUP1 PUSH2 0x100 EXP DUP2 SLOAD DUP2 PUSH20 0xFFFFFFFFFFFFFFFFFFFFFFFFFFFFFFFFFFFFFFFF MUL NOT AND SWAP1 DUP4 PUSH20 0xFFFFFFFFFFFFFFFFFFFFFFFFFFFFFFFFFFFFFFFF AND MUL OR SWAP1 SSTORE POP DUP1 PUSH1 0x4 DUP2 SWAP1 SSTORE POP POP PUSH3 0xEF JUMP JUMPDEST PUSH0 DUP1 REVERT JUMPDEST PUSH0 DUP2 SWAP1 POP SWAP2 SWAP1 POP JUMP JUMPDEST PUSH3 0x9B DUP2 PUSH3 0x87 JUMP JUMPDEST DUP2 EQ PUSH3 0xA6 JUMPI PUSH0 DUP1 REVERT JUMPDEST POP JUMP JUMPDEST PUSH0 DUP2 MLOAD SWAP1 POP PUSH3 0xB9 DUP2 PUSH3 0x90 JUMP JUMPDEST SWAP3 SWAP2 POP POP JUMP JUMPDEST PUSH0 PUSH1 0x20 DUP3 DUP5 SUB SLT ISZERO PUSH3 0xD7 JUMPI PUSH3 0xD6 PUSH3 0x83 JUMP JUMPDEST JUMPDEST PUSH0 PUSH3 0xE6 DUP5 DUP3 DUP6 ADD PUSH3 0xA9 JUMP JUMPDEST SWAP2 POP POP SWAP3 SWAP2 POP POP JUMP JUMPDEST PUSH2 0x1FDC DUP1 PUSH3 0xFD PUSH0 CODECOPY PUSH0 RETURN INVALID PUSH1 0x80 PUSH1 0x40 MSTORE CALLVALUE DUP1 ISZERO PUSH2 0xF JUMPI PUSH0 DUP1 REVERT JUMPDEST POP PUSH1 0x4 CALLDATASIZE LT PUSH2 0xCD JUMPI PUSH0 CALLDATALOAD PUSH1 0xE0 SHR DUP1 PUSH4 0x8DA5CB5B GT PUSH2 0x8A JUMPI DUP1 PUSH4 0xB75D3192 GT PUSH2 0x64 JUMPI DUP1 PUSH4 0xB75D3192 EQ PUSH2 0x23D JUMPI DUP1 PUSH4 0xF27AFA30 EQ PUSH2 0x259 JUMPI DUP1 PUSH4 0xF2FDE38B EQ PUSH2 0x275 JUMPI DUP1 PUSH4 0xF386B306 EQ PUSH2 0x291 JUMPI PUSH2 0xCD JUMP JUMPDEST DUP1 PUSH4 0x8DA5CB5B EQ PUSH2 0x1B7 JUMPI DUP1 PUSH4 0x97C6A46F EQ PUSH2 0x1D5 JUMPI DUP1 PUSH4 0xA245E11E EQ PUSH2 0x20D JUMPI PUSH2 0xCD JUMP JUMPDEST DUP1 PUSH4 0x24649C40 EQ PUSH2 0xD1 JUMPI DUP1 PUSH4 0x2771C997 EQ PUSH2 0x101 JUMPI DUP1 PUSH4 0x3CB13F6B EQ PUSH2 0x11D JUMPI DUP1 PUSH4 0x624B168D EQ PUSH2 0x139 JUMPI DUP1 PUSH4 0x7366ADCF EQ PUSH2 0x157 JUMPI DUP1 PUSH4 0x8C1733E8 EQ PUSH2 0x187 JUMPI JUMPDEST PUSH0 DUP1 REVERT JUMPDEST PUSH2 0xEB PUSH1 0x4 DUP1 CALLDATASIZE SUB DUP2 ADD SWAP1 PUSH2 0xE6 SWAP2 SWAP1 PUSH2 0x1263 JUMP JUMPDEST PUSH2 0x2C1 JUMP JUMPDEST PUSH1 0x40 MLOAD PUSH2 0xF8 SWAP2 SWAP1 PUSH2 0x12A8 JUMP JUMPDEST PUSH1 0x40 MLOAD DUP1 SWAP2 SUB SWAP1 RETURN JUMPDEST PUSH2 0x11B PUSH1 0x4 DUP1 CALLDATASIZE SUB DUP2 ADD SWAP1 PUSH2 0x116 SWAP2 SWAP1 PUSH2 0x1263 JUMP JUMPDEST PUSH2 0x2DE JUMP JUMPDEST STOP JUMPDEST PUSH2 0x137 PUSH1 0x4 DUP1 CALLDATASIZE SUB DUP2 ADD SWAP1 PUSH2 0x132 SWAP2 SWAP1 PUSH2 0x1430 JUMP JUMPDEST PUSH2 0x3F6 JUMP JUMPDEST STOP JUMPDEST PUSH2 0x141 PUSH2 0x5D6 JUMP JUMPDEST PUSH1 0x40 MLOAD PUSH2 0x14E SWAP2 SWAP1 PUSH2 0x158F JUMP JUMPDEST PUSH1 0x40 MLOAD DUP1 SWAP2 SUB SWAP1 RETURN JUMPDEST PUSH2 0x171 PUSH1 0x4 DUP1 CALLDATASIZE SUB DUP2 ADD SWAP1 PUSH2 0x16C SWAP2 SWAP1 PUSH2 0x15A8 JUMP JUMPDEST PUSH2 0x5DC JUMP JUMPDEST PUSH1 0x40 MLOAD PUSH2 0x17E SWAP2 SWAP1 PUSH2 0x17F5 JUMP JUMPDEST PUSH1 0x40 MLOAD DUP1 SWAP2 SUB SWAP1 RETURN JUMPDEST PUSH2 0x1A1 PUSH1 0x4 DUP1 CALLDATASIZE SUB DUP2 ADD SWAP1 PUSH2 0x19C SWAP2 SWAP1 PUSH2 0x15A8 JUMP JUMPDEST PUSH2 0x941 JUMP JUMPDEST PUSH1 0x40 MLOAD PUSH2 0x1AE SWAP2 SWAP1 PUSH2 0x158F JUMP JUMPDEST PUSH1 0x40 MLOAD DUP1 SWAP2 SUB SWAP1 RETURN JUMPDEST PUSH2 0x1BF PUSH2 0xA2C JUMP JUMPDEST PUSH1 0x40 MLOAD PUSH2 0x1CC SWAP2 SWAP1 PUSH2 0x1824 JUMP JUMPDEST PUSH1 0x40 MLOAD DUP1 SWAP2 SUB SWAP1 RETURN JUMPDEST PUSH2 0x1EF PUSH1 0x4 DUP1 CALLDATASIZE SUB DUP2 ADD SWAP1 PUSH2 0x1EA SWAP2 SWAP1 PUSH2 0x183D JUMP JUMPDEST PUSH2 0xA4F JUMP JUMPDEST PUSH1 0x40 MLOAD PUSH2 0x204 SWAP10 SWAP9 SWAP8 SWAP7 SWAP6 SWAP5 SWAP4 SWAP3 SWAP2 SWAP1 PUSH2 0x18C3 JUMP JUMPDEST PUSH1 0x40 MLOAD DUP1 SWAP2 SUB SWAP1 RETURN JUMPDEST PUSH2 0x227 PUSH1 0x4 DUP1 CALLDATASIZE SUB DUP2 ADD SWAP1 PUSH2 0x222 SWAP2 SWAP1 PUSH2 0x15A8 JUMP JUMPDEST PUSH2 0xD51 JUMP JUMPDEST PUSH1 0x40 MLOAD PUSH2 0x234 SWAP2 SWAP1 PUSH2 0x158F JUMP JUMPDEST PUSH1 0x40 MLOAD DUP1 SWAP2 SUB SWAP1 RETURN JUMPDEST PUSH2 0x257 PUSH1 0x4 DUP1 CALLDATASIZE SUB DUP2 ADD SWAP1 PUSH2 0x252 SWAP2 SWAP1 PUSH2 0x1263 JUMP JUMPDEST PUSH2 0xE3C JUMP JUMPDEST STOP JUMPDEST PUSH2 0x273 PUSH1 0x4 DUP1 CALLDATASIZE SUB DUP2 ADD SWAP1 PUSH2 0x26E SWAP2 SWAP1 PUSH2 0x15A8 JUMP JUMPDEST PUSH2 0xF57 JUMP JUMPDEST STOP JUMPDEST PUSH2 0x28F PUSH1 0x4 DUP1 CALLDATASIZE SUB DUP2 ADD SWAP1 PUSH2 0x28A SWAP2 SWAP1 PUSH2 0x1263 JUMP JUMPDEST PUSH2 0x1025 JUMP JUMPDEST STOP JUMPDEST PUSH2 0x2AB PUSH1 0x4 DUP1 CALLDATASIZE SUB DUP2 ADD SWAP1 PUSH2 0x2A6 SWAP2 SWAP1 PUSH2 0x1263 JUMP JUMPDEST PUSH2 0x11DB JUMP JUMPDEST PUSH1 0x40 MLOAD PUSH2 0x2B8 SWAP2 SWAP1 PUSH2 0x12A8 JUMP JUMPDEST PUSH1 0x40 MLOAD DUP1 SWAP2 SUB SWAP1 RETURN JUMPDEST PUSH1 0x1 PUSH1 0x20 MSTORE DUP1 PUSH0 MSTORE PUSH1 0x40 PUSH0 KECCAK256 PUSH0 SWAP2 POP SLOAD SWAP1 PUSH2 0x100 EXP SWAP1 DIV PUSH1 0xFF AND DUP2 JUMP JUMPDEST PUSH1 0x2 PUSH0 CALLER PUSH20 0xFFFFFFFFFFFFFFFFFFFFFFFFFFFFFFFFFFFFFFFF AND PUSH20 0xFFFFFFFFFFFFFFFFFFFFFFFFFFFFFFFFFFFFFFFF AND DUP2 MSTORE PUSH1 0x20 ADD SWAP1 DUP2 MSTORE PUSH1 0x20 ADD PUSH0 KECCAK256 PUSH0 SWAP1 SLOAD SWAP1 PUSH2 0x100 EXP SWAP1 DIV PUSH1 0xFF AND PUSH2 0x367 JUMPI PUSH1 0x40 MLOAD PUSH32 0x8C379A000000000000000000000000000000000000000000000000000000000 DUP2 MSTORE PUSH1 0x4 ADD PUSH2 0x35E SWAP1 PUSH2 0x19E1 JUMP JUMPDEST PUSH1 0x40 MLOAD DUP1 SWAP2 SUB SWAP1 REVERT JUMPDEST PUSH1 0x1 PUSH1 0x2 PUSH0 DUP4 PUSH20 0xFFFFFFFFFFFFFFFFFFFFFFFFFFFFFFFFFFFFFFFF AND PUSH20 0xFFFFFFFFFFFFFFFFFFFFFFFFFFFFFFFFFFFFFFFF AND DUP2 MSTORE PUSH1 0x20 ADD SWAP1 DUP2 MSTORE PUSH1 0x20 ADD PUSH0 KECCAK256 PUSH0 PUSH2 0x100 EXP DUP2 SLOAD DUP2 PUSH1 0xFF MUL NOT AND SWAP1 DUP4 ISZERO ISZERO MUL OR SWAP1 SSTORE POP PUSH32 0xC0A6F706E3079B084AC0AB0CCB0CB52B442DE5E969291477BF63CFC3F06C264D DUP2 PUSH1 0x40 MLOAD PUSH2 0x3EB SWAP2 SWAP1 PUSH2 0x1824 JUMP JUMPDEST PUSH1 0x40 MLOAD DUP1 SWAP2 SUB SWAP1 LOG1 POP JUMP JUMPDEST PUSH1 0x2 PUSH0 CALLER PUSH20 0xFFFFFFFFFFFFFFFFFFFFFFFFFFFFFFFFFFFFFFFF AND PUSH20 0xFFFFFFFFFFFFFFFFFFFFFFFFFFFFFFFFFFFFFFFF AND DUP2 MSTORE PUSH1 0x20 ADD SWAP1 DUP2 MSTORE PUSH1 0x20 ADD PUSH0 KECCAK256 PUSH0 SWAP1 SLOAD SWAP1 PUSH2 0x100 EXP SWAP1 DIV PUSH1 0xFF AND PUSH2 0x47F JUMPI PUSH1 0x40 MLOAD PUSH32 0x8C379A000000000000000000000000000000000000000000000000000000000 DUP2 MSTORE PUSH1 0x4 ADD PUSH2 0x476 SWAP1 PUSH2 0x19E1 JUMP JUMPDEST PUSH1 0x40 MLOAD DUP1 SWAP2 SUB SWAP1 REVERT JUMPDEST PUSH0 PUSH1 0x40 MLOAD DUP1 PUSH2 0x120 ADD PUSH1 0x40 MSTORE DUP1 DUP12 DUP2 MSTORE PUSH1 0x20 ADD DUP11 DUP2 MSTORE PUSH1 0x20 ADD DUP10 DUP2 MSTORE PUSH1 0x20 ADD DUP9 DUP2 MSTORE PUSH1 0x20 ADD DUP8 DUP2 MSTORE PUSH1 0x20 ADD DUP7 DUP2 MSTORE PUSH1 0x20 ADD DUP6 DUP2 MSTORE PUSH1 0x20 ADD DUP5 DUP2 MSTORE PUSH1 0x20 ADD DUP4 DUP2 MSTORE POP SWAP1 POP PUSH1 0x3 PUSH0 DUP12 DUP2 MSTORE PUSH1 0x20 ADD SWAP1 DUP2 MSTORE PUSH1 0x20 ADD PUSH0 KECCAK256 DUP2 SWAP1 DUP1 PUSH1 0x1 DUP2 SLOAD ADD DUP1 DUP3 SSTORE DUP1 SWAP2 POP POP PUSH1 0x1 SWAP1 SUB SWAP1 PUSH0 MSTORE PUSH1 0x20 PUSH0 KECCAK256 SWAP1 PUSH1 0x9 MUL ADD PUSH0 SWAP1 SWAP2 SWAP1 SWAP2 SWAP1 SWAP2 POP PUSH0 DUP3 ADD MLOAD DUP2 PUSH0 ADD SSTORE PUSH1 0x20 DUP3 ADD MLOAD DUP2 PUSH1 0x1 ADD SWAP1 DUP2 PUSH2 0x517 SWAP2 SWAP1 PUSH2 0x1BF9 JUMP JUMPDEST POP PUSH1 0x40 DUP3 ADD MLOAD DUP2 PUSH1 0x2 ADD SSTORE PUSH1 0x60 DUP3 ADD MLOAD DUP2 PUSH1 0x3 ADD SWAP1 DUP2 PUSH2 0x537 SWAP2 SWAP1 PUSH2 0x1BF9 JUMP JUMPDEST POP PUSH1 0x80 DUP3 ADD MLOAD DUP2 PUSH1 0x4 ADD SWAP1 DUP2 PUSH2 0x54D SWAP2 SWAP1 PUSH2 0x1BF9 JUMP JUMPDEST POP PUSH1 0xA0 DUP3 ADD MLOAD DUP2 PUSH1 0x5 ADD SSTORE PUSH1 0xC0 DUP3 ADD MLOAD DUP2 PUSH1 0x6 ADD SWAP1 DUP2 PUSH2 0x56D SWAP2 SWAP1 PUSH2 0x1BF9 JUMP JUMPDEST POP PUSH1 0xE0 DUP3 ADD MLOAD DUP2 PUSH1 0x7 ADD SSTORE PUSH2 0x100 DUP3 ADD MLOAD DUP2 PUSH1 0x8 ADD SWAP1 DUP2 PUSH2 0x58E SWAP2 SWAP1 PUSH2 0x1BF9 JUMP JUMPDEST POP POP POP PUSH32 0x9972CB5B577F71380A5A31B132B1CDB1BAC44255F5EF6CB82011C94E59C269A0 DUP11 DUP4 PUSH1 0x40 MLOAD PUSH2 0x5C2 SWAP3 SWAP2 SWAP1 PUSH2 0x1CC8 JUMP JUMPDEST PUSH1 0x40 MLOAD DUP1 SWAP2 SUB SWAP1 LOG1 POP POP POP POP POP POP POP POP POP POP JUMP JUMPDEST PUSH1 0x4 SLOAD DUP2 JUMP JUMPDEST PUSH1 0x60 PUSH1 0x3 PUSH0 DUP4 DUP2 MSTORE PUSH1 0x20 ADD SWAP1 DUP2 MSTORE PUSH1 0x20 ADD PUSH0 KECCAK256 DUP1 SLOAD DUP1 PUSH1 0x20 MUL PUSH1 0x20 ADD PUSH1 0x40 MLOAD SWAP1 DUP2 ADD PUSH1 0x40 MSTORE DUP1 SWAP3 SWAP2 SWAP1 DUP2 DUP2 MSTORE PUSH1 0x20 ADD PUSH0 SWAP1 JUMPDEST DUP3 DUP3 LT ISZERO PUSH2 0x936 JUMPI DUP4 DUP3 SWAP1 PUSH0 MSTORE PUSH1 0x20 PUSH0 KECCAK256 SWAP1 PUSH1 0x9 MUL ADD PUSH1 0x40 MLOAD DUP1 PUSH2 0x120 ADD PUSH1 0x40 MSTORE SWAP1 DUP2 PUSH0 DUP3 ADD SLOAD DUP2 MSTORE PUSH1 0x20 ADD PUSH1 0x1 DUP3 ADD DUP1 SLOAD PUSH2 0x649 SWAP1 PUSH2 0x1A2C JUMP JUMPDEST DUP1 PUSH1 0x1F ADD PUSH1 0x20 DUP1 SWAP2 DIV MUL PUSH1 0x20 ADD PUSH1 0x40 MLOAD SWAP1 DUP2 ADD PUSH1 0x40 MSTORE DUP1 SWAP3 SWAP2 SWAP1 DUP2 DUP2 MSTORE PUSH1 0x20 ADD DUP3 DUP1 SLOAD PUSH2 0x675 SWAP1 PUSH2 0x1A2C JUMP JUMPDEST DUP1 ISZERO PUSH2 0x6C0 JUMPI DUP1 PUSH1 0x1F LT PUSH2 0x697 JUMPI PUSH2 0x100 DUP1 DUP4 SLOAD DIV MUL DUP4 MSTORE SWAP2 PUSH1 0x20 ADD SWAP2 PUSH2 0x6C0 JUMP JUMPDEST DUP3 ADD SWAP2 SWAP1 PUSH0 MSTORE PUSH1 0x20 PUSH0 KECCAK256 SWAP1 JUMPDEST DUP2 SLOAD DUP2 MSTORE SWAP1 PUSH1 0x1 ADD SWAP1 PUSH1 0x20 ADD DUP1 DUP4 GT PUSH2 0x6A3 JUMPI DUP3 SWAP1 SUB PUSH1 0x1F AND DUP3 ADD SWAP2 JUMPDEST POP POP POP POP POP DUP2 MSTORE PUSH1 0x20 ADD PUSH1 0x2 DUP3 ADD SLOAD DUP2 MSTORE PUSH1 0x20 ADD PUSH1 0x3 DUP3 ADD DUP1 SLOAD PUSH2 0x6E3 SWAP1 PUSH2 0x1A2C JUMP JUMPDEST DUP1 PUSH1 0x1F ADD PUSH1 0x20 DUP1 SWAP2 DIV MUL PUSH1 0x20 ADD PUSH1 0x40 MLOAD SWAP1 DUP2 ADD PUSH1 0x40 MSTORE DUP1 SWAP3 SWAP2 SWAP1 DUP2 DUP2 MSTORE PUSH1 0x20 ADD DUP3 DUP1 SLOAD PUSH2 0x70F SWAP1 PUSH2 0x1A2C JUMP JUMPDEST DUP1 ISZERO PUSH2 0x75A JUMPI DUP1 PUSH1 0x1F LT PUSH2 0x731 JUMPI PUSH2 0x100 DUP1 DUP4 SLOAD DIV MUL DUP4 MSTORE SWAP2 PUSH1 0x20 ADD SWAP2 PUSH2 0x75A JUMP JUMPDEST DUP3 ADD SWAP2 SWAP1 PUSH0 MSTORE PUSH1 0x20 PUSH0 KECCAK256 SWAP1 JUMPDEST DUP2 SLOAD DUP2 MSTORE SWAP1 PUSH1 0x1 ADD SWAP1 PUSH1 0x20 ADD DUP1 DUP4 GT PUSH2 0x73D JUMPI DUP3 SWAP1 SUB PUSH1 0x1F AND DUP3 ADD SWAP2 JUMPDEST POP POP POP POP POP DUP2 MSTORE PUSH1 0x20 ADD PUSH1 0x4 DUP3 ADD DUP1 SLOAD PUSH2 0x773 SWAP1 PUSH2 0x1A2C JUMP JUMPDEST DUP1 PUSH1 0x1F ADD PUSH1 0x20 DUP1 SWAP2 DIV MUL PUSH1 0x20 ADD PUSH1 0x40 MLOAD SWAP1 DUP2 ADD PUSH1 0x40 MSTORE DUP1 SWAP3 SWAP2 SWAP1 DUP2 DUP2 MSTORE PUSH1 0x20 ADD DUP3 DUP1 SLOAD PUSH2 0x79F SWAP1 PUSH2 0x1A2C JUMP JUMPDEST DUP1 ISZERO PUSH2 0x7EA JUMPI DUP1 PUSH1 0x1F LT PUSH2 0x7C1 JUMPI PUSH2 0x100 DUP1 DUP4 SLOAD DIV MUL DUP4 MSTORE SWAP2 PUSH1 0x20 ADD SWAP2 PUSH2 0x7EA JUMP JUMPDEST DUP3 ADD SWAP2 SWAP1 PUSH0 MSTORE PUSH1 0x20 PUSH0 KECCAK256 SWAP1 JUMPDEST DUP2 SLOAD DUP2 MSTORE SWAP1 PUSH1 0x1 ADD SWAP1 PUSH1 0x20 ADD DUP1 DUP4 GT PUSH2 0x7CD JUMPI DUP3 SWAP1 SUB PUSH1 0x1F AND DUP3 ADD SWAP2 JUMPDEST POP POP POP POP POP DUP2 MSTORE PUSH1 0x20 ADD PUSH1 0x5 DUP3 ADD SLOAD DUP2 MSTORE PUSH1 0x20 ADD PUSH1 0x6 DUP3 ADD DUP1 SLOAD PUSH2 0x80D SWAP1 PUSH2 0x1A2C JUMP JUMPDEST DUP1 PUSH1 0x1F ADD PUSH1 0x20 DUP1 SWAP2 DIV MUL PUSH1 0x20 ADD PUSH1 0x40 MLOAD SWAP1 DUP2 ADD PUSH1 0x40 MSTORE DUP1 SWAP3 SWAP2 SWAP1 DUP2 DUP2 MSTORE PUSH1 0x20 ADD DUP3 DUP1 SLOAD PUSH2 0x839 SWAP1 PUSH2 0x1A2C JUMP JUMPDEST DUP1 ISZERO PUSH2 0x884 JUMPI DUP1 PUSH1 0x1F LT PUSH2 0x85B JUMPI PUSH2 0x100 DUP1 DUP4 SLOAD DIV MUL DUP4 MSTORE SWAP2 PUSH1 0x20 ADD SWAP2 PUSH2 0x884 JUMP JUMPDEST DUP3 ADD SWAP2 SWAP1 PUSH0 MSTORE PUSH1 0x20 PUSH0 KECCAK256 SWAP1 JUMPDEST DUP2 SLOAD DUP2 MSTORE SWAP1 PUSH1 0x1 ADD SWAP1 PUSH1 0x20 ADD DUP1 DUP4 GT PUSH2 0x867 JUMPI DUP3 SWAP1 SUB PUSH1 0x1F AND DUP3 ADD SWAP2 JUMPDEST POP POP POP POP POP DUP2 MSTORE PUSH1 0x20 ADD PUSH1 0x7 DUP3 ADD SLOAD DUP2 MSTORE PUSH1 0x20 ADD PUSH1 0x8 DUP3 ADD DUP1 SLOAD PUSH2 0x8A7 SWAP1 PUSH2 0x1A2C JUMP JUMPDEST DUP1 PUSH1 0x1F ADD PUSH1 0x20 DUP1 SWAP2 DIV MUL PUSH1 0x20 ADD PUSH1 0x40 MLOAD SWAP1 DUP2 ADD PUSH1 0x40 MSTORE DUP1 SWAP3 SWAP2 SWAP1 DUP2 DUP2 MSTORE PUSH1 0x20 ADD DUP3 DUP1 SLOAD PUSH2 0x8D3 SWAP1 PUSH2 0x1A2C JUMP JUMPDEST DUP1 ISZERO PUSH2 0x91E JUMPI DUP1 PUSH1 0x1F LT PUSH2 0x8F5 JUMPI PUSH2 0x100 DUP1 DUP4 SLOAD DIV MUL DUP4 MSTORE SWAP2 PUSH1 0x20 ADD SWAP2 PUSH2 0x91E JUMP JUMPDEST DUP3 ADD SWAP2 SWAP1 PUSH0 MSTORE PUSH1 0x20 PUSH0 KECCAK256 SWAP1 JUMPDEST DUP2 SLOAD DUP2 MSTORE SWAP1 PUSH1 0x1 ADD SWAP1 PUSH1 0x20 ADD DUP1 DUP4 GT PUSH2 0x901 JUMPI DUP3 SWAP1 SUB PUSH1 0x1F AND DUP3 ADD SWAP2 JUMPDEST POP POP POP POP POP DUP2 MSTORE POP POP DUP2 MSTORE PUSH1 0x20 ADD SWAP1 PUSH1 0x1 ADD SWAP1 PUSH2 0x60E JUMP JUMPDEST POP POP POP POP SWAP1 POP SWAP2 SWAP1 POP JUMP JUMPDEST PUSH0 DUP1 PUSH0 SWAP1 POP PUSH0 JUMPDEST PUSH1 0x3 PUSH0 DUP6 DUP2 MSTORE PUSH1 0x20 ADD SWAP1 DUP2 MSTORE PUSH1 0x20 ADD PUSH0 KECCAK256 DUP1 SLOAD SWAP1 POP DUP2 LT ISZERO PUSH2 0xA09 JUMPI PUSH1 0x40 MLOAD DUP1 PUSH1 0x40 ADD PUSH1 0x40 MSTORE DUP1 PUSH1 0x1 DUP2 MSTORE PUSH1 0x20 ADD PUSH32 0x4100000000000000000000000000000000000000000000000000000000000000 DUP2 MSTORE POP DUP1 MLOAD SWAP1 PUSH1 0x20 ADD KECCAK256 PUSH1 0x3 PUSH0 DUP7 DUP2 MSTORE PUSH1 0x20 ADD SWAP1 DUP2 MSTORE PUSH1 0x20 ADD PUSH0 KECCAK256 DUP3 DUP2 SLOAD DUP2 LT PUSH2 0x9C4 JUMPI PUSH2 0x9C3 PUSH2 0x1CF6 JUMP JUMPDEST JUMPDEST SWAP1 PUSH0 MSTORE PUSH1 0x20 PUSH0 KECCAK256 SWAP1 PUSH1 0x9 MUL ADD PUSH1 0x8 ADD PUSH1 0x40 MLOAD PUSH2 0x9E0 SWAP2 SWAP1 PUSH2 0x1DBF JUMP JUMPDEST PUSH1 0x40 MLOAD DUP1 SWAP2 SUB SWAP1 KECCAK256 SUB PUSH2 0x9FC JUMPI DUP2 DUP1 PUSH2 0x9F8 SWAP1 PUSH2 0x1E02 JUMP JUMPDEST SWAP3 POP POP JUMPDEST DUP1 DUP1 PUSH1 0x1 ADD SWAP2 POP POP PUSH2 0x948 JUMP JUMPDEST POP PUSH1 0x4 SLOAD PUSH1 0x5 DUP3 PUSH2 0xA1A SWAP2 SWAP1 PUSH2 0x1E49 JUMP JUMPDEST PUSH2 0xA24 SWAP2 SWAP1 PUSH2 0x1E49 JUMP JUMPDEST SWAP2 POP POP SWAP2 SWAP1 POP JUMP JUMPDEST PUSH0 DUP1 SLOAD SWAP1 PUSH2 0x100 EXP SWAP1 DIV PUSH20 0xFFFFFFFFFFFFFFFFFFFFFFFFFFFFFFFFFFFFFFFF AND DUP2 JUMP JUMPDEST PUSH1 0x3 PUSH1 0x20 MSTORE DUP2 PUSH0 MSTORE PUSH1 0x40 PUSH0 KECCAK256 DUP2 DUP2 SLOAD DUP2 LT PUSH2 0xA68 JUMPI PUSH0 DUP1 REVERT JUMPDEST SWAP1 PUSH0 MSTORE PUSH1 0x20 PUSH0 KECCAK256 SWAP1 PUSH1 0x9 MUL ADD PUSH0 SWAP2 POP SWAP2 POP POP DUP1 PUSH0 ADD SLOAD SWAP1 DUP1 PUSH1 0x1 ADD DUP1 SLOAD PUSH2 0xA8E SWAP1 PUSH2 0x1A2C JUMP JUMPDEST DUP1 PUSH1 0x1F ADD PUSH1 0x20 DUP1 SWAP2 DIV MUL PUSH1 0x20 ADD PUSH1 0x40 MLOAD SWAP1 DUP2 ADD PUSH1 0x40 MSTORE DUP1 SWAP3 SWAP2 SWAP1 DUP2 DUP2 MSTORE PUSH1 0x20 ADD DUP3 DUP1 SLOAD PUSH2 0xABA SWAP1 PUSH2 0x1A2C JUMP JUMPDEST DUP1 ISZERO PUSH2 0xB05 JUMPI DUP1 PUSH1 0x1F LT PUSH2 0xADC JUMPI PUSH2 0x100 DUP1 DUP4 SLOAD DIV MUL DUP4 MSTORE SWAP2 PUSH1 0x20 ADD SWAP2 PUSH2 0xB05 JUMP JUMPDEST DUP3 ADD SWAP2 SWAP1 PUSH0 MSTORE PUSH1 0x20 PUSH0 KECCAK256 SWAP1 JUMPDEST DUP2 SLOAD DUP2 MSTORE SWAP1 PUSH1 0x1 ADD SWAP1 PUSH1 0x20 ADD DUP1 DUP4 GT PUSH2 0xAE8 JUMPI DUP3 SWAP1 SUB PUSH1 0x1F AND DUP3 ADD SWAP2 JUMPDEST POP POP POP POP POP SWAP1 DUP1 PUSH1 0x2 ADD SLOAD SWAP1 DUP1 PUSH1 0x3 ADD DUP1 SLOAD PUSH2 0xB20 SWAP1 PUSH2 0x1A2C JUMP JUMPDEST DUP1 PUSH1 0x1F ADD PUSH1 0x20 DUP1 SWAP2 DIV MUL PUSH1 0x20 ADD PUSH1 0x40 MLOAD SWAP1 DUP2 ADD PUSH1 0x40 MSTORE DUP1 SWAP3 SWAP2 SWAP1 DUP2 DUP2 MSTORE PUSH1 0x20 ADD DUP3 DUP1 SLOAD PUSH2 0xB4C SWAP1 PUSH2 0x1A2C JUMP JUMPDEST DUP1 ISZERO PUSH2 0xB97 JUMPI DUP1 PUSH1 0x1F LT PUSH2 0xB6E JUMPI PUSH2 0x100 DUP1 DUP4 SLOAD DIV MUL DUP4 MSTORE SWAP2 PUSH1 0x20 ADD SWAP2 PUSH2 0xB97 JUMP JUMPDEST DUP3 ADD SWAP2 SWAP1 PUSH0 MSTORE PUSH1 0x20 PUSH0 KECCAK256 SWAP1 JUMPDEST DUP2 SLOAD DUP2 MSTORE SWAP1 PUSH1 0x1 ADD SWAP1 PUSH1 0x20 ADD DUP1 DUP4 GT PUSH2 0xB7A JUMPI DUP3 SWAP1 SUB PUSH1 0x1F AND DUP3 ADD SWAP2 JUMPDEST POP POP POP POP POP SWAP1 DUP1 PUSH1 0x4 ADD DUP1 SLOAD PUSH2 0xBAC SWAP1 PUSH2 0x1A2C JUMP JUMPDEST DUP1 PUSH1 0x1F ADD PUSH1 0x20 DUP1 SWAP2 DIV MUL PUSH1 0x20 ADD PUSH1 0x40 MLOAD SWAP1 DUP2 ADD PUSH1 0x40 MSTORE DUP1 SWAP3 SWAP2 SWAP1 DUP2 DUP2 MSTORE PUSH1 0x20 ADD DUP3 DUP1 SLOAD PUSH2 0xBD8 SWAP1 PUSH2 0x1A2C JUMP JUMPDEST DUP1 ISZERO PUSH2 0xC23 JUMPI DUP1 PUSH1 0x1F LT PUSH2 0xBFA JUMPI PUSH2 0x100 DUP1 DUP4 SLOAD DIV MUL DUP4 MSTORE SWAP2 PUSH1 0x20 ADD SWAP2 PUSH2 0xC23 JUMP JUMPDEST DUP3 ADD SWAP2 SWAP1 PUSH0 MSTORE PUSH1 0x20 PUSH0 KECCAK256 SWAP1 JUMPDEST DUP2 SLOAD DUP2 MSTORE SWAP1 PUSH1 0x1 ADD SWAP1 PUSH1 0x20 ADD DUP1 DUP4 GT PUSH2 0xC06 JUMPI DUP3 SWAP1 SUB PUSH1 0x1F AND DUP3 ADD SWAP2 JUMPDEST POP POP POP POP POP SWAP1 DUP1 PUSH1 0x5 ADD SLOAD SWAP1 DUP1 PUSH1 0x6 ADD DUP1 SLOAD PUSH2 0xC3E SWAP1 PUSH2 0x1A2C JUMP JUMPDEST DUP1 PUSH1 0x1F ADD PUSH1 0x20 DUP1 SWAP2 DIV MUL PUSH1 0x20 ADD PUSH1 0x40 MLOAD SWAP1 DUP2 ADD PUSH1 0x40 MSTORE DUP1 SWAP3 SWAP2 SWAP1 DUP2 DUP2 MSTORE PUSH1 0x20 ADD DUP3 DUP1 SLOAD PUSH2 0xC6A SWAP1 PUSH2 0x1A2C JUMP JUMPDEST DUP1 ISZERO PUSH2 0xCB5 JUMPI DUP1 PUSH1 0x1F LT PUSH2 0xC8C JUMPI PUSH2 0x100 DUP1 DUP4 SLOAD DIV MUL DUP4 MSTORE SWAP2 PUSH1 0x20 ADD SWAP2 PUSH2 0xCB5 JUMP JUMPDEST DUP3 ADD SWAP2 SWAP1 PUSH0 MSTORE PUSH1 0x20 PUSH0 KECCAK256 SWAP1 JUMPDEST DUP2 SLOAD DUP2 MSTORE SWAP1 PUSH1 0x1 ADD SWAP1 PUSH1 0x20 ADD DUP1 DUP4 GT PUSH2 0xC98 JUMPI DUP3 SWAP1 SUB PUSH1 0x1F AND DUP3 ADD SWAP2 JUMPDEST POP POP POP POP POP SWAP1 DUP1 PUSH1 0x7 ADD SLOAD SWAP1 DUP1 PUSH1 0x8 ADD DUP1 SLOAD PUSH2 0xCD0 SWAP1 PUSH2 0x1A2C JUMP JUMPDEST DUP1 PUSH1 0x1F ADD PUSH1 0x20 DUP1 SWAP2 DIV MUL PUSH1 0x20 ADD PUSH1 0x40 MLOAD SWAP1 DUP2 ADD PUSH1 0x40 MSTORE DUP1 SWAP3 SWAP2 SWAP1 DUP2 DUP2 MSTORE PUSH1 0x20 ADD DUP3 DUP1 SLOAD PUSH2 0xCFC SWAP1 PUSH2 0x1A2C JUMP JUMPDEST DUP1 ISZERO PUSH2 0xD47 JUMPI DUP1 PUSH1 0x1F LT PUSH2 0xD1E JUMPI PUSH2 0x100 DUP1 DUP4 SLOAD DIV MUL DUP4 MSTORE SWAP2 PUSH1 0x20 ADD SWAP2 PUSH2 0xD47 JUMP JUMPDEST DUP3 ADD SWAP2 SWAP1 PUSH0 MSTORE PUSH1 0x20 PUSH0 KECCAK256 SWAP1 JUMPDEST DUP2 SLOAD DUP2 MSTORE SWAP1 PUSH1 0x1 ADD SWAP1 PUSH1 0x20 ADD DUP1 DUP4 GT PUSH2 0xD2A JUMPI DUP3 SWAP1 SUB PUSH1 0x1F AND DUP3 ADD SWAP2 JUMPDEST POP POP POP POP POP SWAP1 POP DUP10 JUMP JUMPDEST PUSH0 DUP1 PUSH0 SWAP1 POP PUSH0 JUMPDEST PUSH1 0x3 PUSH0 DUP6 DUP2 MSTORE PUSH1 0x20 ADD SWAP1 DUP2 MSTORE PUSH1 0x20 ADD PUSH0 KECCAK256 DUP1 SLOAD SWAP1 POP DUP2 LT ISZERO PUSH2 0xE19 JUMPI PUSH1 0x40 MLOAD DUP1 PUSH1 0x40 ADD PUSH1 0x40 MSTORE DUP1 PUSH1 0x1 DUP2 MSTORE PUSH1 0x20 ADD PUSH32 0x4200000000000000000000000000000000000000000000000000000000000000 DUP2 MSTORE POP DUP1 MLOAD SWAP1 PUSH1 0x20 ADD KECCAK256 PUSH1 0x3 PUSH0 DUP7 DUP2 MSTORE PUSH1 0x20 ADD SWAP1 DUP2 MSTORE PUSH1 0x20 ADD PUSH0 KECCAK256 DUP3 DUP2 SLOAD DUP2 LT PUSH2 0xDD4 JUMPI PUSH2 0xDD3 PUSH2 0x1CF6 JUMP JUMPDEST JUMPDEST SWAP1 PUSH0 MSTORE PUSH1 0x20 PUSH0 KECCAK256 SWAP1 PUSH1 0x9 MUL ADD PUSH1 0x8 ADD PUSH1 0x40 MLOAD PUSH2 0xDF0 SWAP2 SWAP1 PUSH2 0x1DBF JUMP JUMPDEST PUSH1 0x40 MLOAD DUP1 SWAP2 SUB SWAP1 KECCAK256 SUB PUSH2 0xE0C JUMPI DUP2 DUP1 PUSH2 0xE08 SWAP1 PUSH2 0x1E02 JUMP JUMPDEST SWAP3 POP POP JUMPDEST DUP1 DUP1 PUSH1 0x1 ADD SWAP2 POP POP PUSH2 0xD58 JUMP JUMPDEST POP PUSH1 0x4 SLOAD PUSH1 0x2 DUP3 PUSH2 0xE2A SWAP2 SWAP1 PUSH2 0x1E49 JUMP JUMPDEST PUSH2 0xE34 SWAP2 SWAP1 PUSH2 0x1E49 JUMP JUMPDEST SWAP2 POP POP SWAP2 SWAP1 POP JUMP JUMPDEST PUSH0 DUP1 SLOAD SWAP1 PUSH2 0x100 EXP SWAP1 DIV PUSH20 0xFFFFFFFFFFFFFFFFFFFFFFFFFFFFFFFFFFFFFFFF AND PUSH20 0xFFFFFFFFFFFFFFFFFFFFFFFFFFFFFFFFFFFFFFFF AND CALLER PUSH20 0xFFFFFFFFFFFFFFFFFFFFFFFFFFFFFFFFFFFFFFFF AND EQ PUSH2 0xEC9 JUMPI PUSH1 0x40 MLOAD PUSH32 0x8C379A000000000000000000000000000000000000000000000000000000000 DUP2 MSTORE PUSH1 0x4 ADD PUSH2 0xEC0 SWAP1 PUSH2 0x1EFA JUMP JUMPDEST PUSH1 0x40 MLOAD DUP1 SWAP2 SUB SWAP1 REVERT JUMPDEST PUSH1 0x1 DUP1 PUSH0 DUP4 PUSH20 0xFFFFFFFFFFFFFFFFFFFFFFFFFFFFFFFFFFFFFFFF AND PUSH20 0xFFFFFFFFFFFFFFFFFFFFFFFFFFFFFFFFFFFFFFFF AND DUP2 MSTORE PUSH1 0x20 ADD SWAP1 DUP2 MSTORE PUSH1 0x20 ADD PUSH0 KECCAK256 PUSH0 PUSH2 0x100 EXP DUP2 SLOAD DUP2 PUSH1 0xFF MUL NOT AND SWAP1 DUP4 ISZERO ISZERO MUL OR SWAP1 SSTORE POP PUSH32 0xC96B482D82830F7E383D0F446C464F3C02249984E5DE3574846645E8CB37D7BA DUP2 PUSH1 0x40 MLOAD PUSH2 0xF4C SWAP2 SWAP1 PUSH2 0x1824 JUMP JUMPDEST PUSH1 0x40 MLOAD DUP1 SWAP2 SUB SWAP1 LOG1 POP JUMP JUMPDEST PUSH0 DUP1 SLOAD SWAP1 PUSH2 0x100 EXP SWAP1 DIV PUSH20 0xFFFFFFFFFFFFFFFFFFFFFFFFFFFFFFFFFFFFFFFF AND PUSH20 0xFFFFFFFFFFFFFFFFFFFFFFFFFFFFFFFFFFFFFFFF AND CALLER PUSH20 0xFFFFFFFFFFFFFFFFFFFFFFFFFFFFFFFFFFFFFFFF AND EQ PUSH2 0xFE4 JUMPI PUSH1 0x40 MLOAD PUSH32 0x8C379A000000000000000000000000000000000000000000000000000000000 DUP2 MSTORE PUSH1 0x4 ADD PUSH2 0xFDB SWAP1 PUSH2 0x1EFA JUMP JUMPDEST PUSH1 0x40 MLOAD DUP1 SWAP2 SUB SWAP1 REVERT JUMPDEST DUP1 PUSH1 0x4 DUP2 SWAP1 SSTORE POP PUSH32 0xB5D1625B4FA3506B61C8FB05ACF8D2C0B97DC5A3C71927E0B6CECF630B9395A5 DUP2 PUSH1 0x40 MLOAD PUSH2 0x101A SWAP2 SWAP1 PUSH2 0x158F JUMP JUMPDEST PUSH1 0x40 MLOAD DUP1 SWAP2 SUB SWAP1 LOG1 POP JUMP JUMPDEST PUSH0 DUP1 SLOAD SWAP1 PUSH2 0x100 EXP SWAP1 DIV PUSH20 0xFFFFFFFFFFFFFFFFFFFFFFFFFFFFFFFFFFFFFFFF AND PUSH20 0xFFFFFFFFFFFFFFFFFFFFFFFFFFFFFFFFFFFFFFFF AND CALLER PUSH20 0xFFFFFFFFFFFFFFFFFFFFFFFFFFFFFFFFFFFFFFFF AND EQ PUSH2 0x10B2 JUMPI PUSH1 0x40 MLOAD PUSH32 0x8C379A000000000000000000000000000000000000000000000000000000000 DUP2 MSTORE PUSH1 0x4 ADD PUSH2 0x10A9 SWAP1 PUSH2 0x1EFA JUMP JUMPDEST PUSH1 0x40 MLOAD DUP1 SWAP2 SUB SWAP1 REVERT JUMPDEST PUSH0 PUSH20 0xFFFFFFFFFFFFFFFFFFFFFFFFFFFFFFFFFFFFFFFF AND DUP2 PUSH20 0xFFFFFFFFFFFFFFFFFFFFFFFFFFFFFFFFFFFFFFFF AND SUB PUSH2 0x1120 JUMPI PUSH1 0x40 MLOAD PUSH32 0x8C379A000000000000000000000000000000000000000000000000000000000 DUP2 MSTORE PUSH1 0x4 ADD PUSH2 0x1117 SWAP1 PUSH2 0x1F88 JUMP JUMPDEST PUSH1 0x40 MLOAD DUP1 SWAP2 SUB SWAP1 REVERT JUMPDEST DUP1 PUSH20 0xFFFFFFFFFFFFFFFFFFFFFFFFFFFFFFFFFFFFFFFF AND PUSH0 DUP1 SLOAD SWAP1 PUSH2 0x100 EXP SWAP1 DIV PUSH20 0xFFFFFFFFFFFFFFFFFFFFFFFFFFFFFFFFFFFFFFFF AND PUSH20 0xFFFFFFFFFFFFFFFFFFFFFFFFFFFFFFFFFFFFFFFF AND PUSH32 0x8BE0079C531659141344CD1FD0A4F28419497F9722A3DAAFE3B4186F6B6457E0 PUSH1 0x40 MLOAD PUSH1 0x40 MLOAD DUP1 SWAP2 SUB SWAP1 LOG3 DUP1 PUSH0 DUP1 PUSH2 0x100 EXP DUP2 SLOAD DUP2 PUSH20 0xFFFFFFFFFFFFFFFFFFFFFFFFFFFFFFFFFFFFFFFF MUL NOT AND SWAP1 DUP4 PUSH20 0xFFFFFFFFFFFFFFFFFFFFFFFFFFFFFFFFFFFFFFFF AND MUL OR SWAP1 SSTORE POP POP JUMP JUMPDEST PUSH1 0x2 PUSH1 0x20 MSTORE DUP1 PUSH0 MSTORE PUSH1 0x40 PUSH0 KECCAK256 PUSH0 SWAP2 POP SLOAD SWAP1 PUSH2 0x100 EXP SWAP1 DIV PUSH1 0xFF AND DUP2 JUMP JUMPDEST PUSH0 PUSH1 0x40 MLOAD SWAP1 POP SWAP1 JUMP JUMPDEST PUSH0 DUP1 REVERT JUMPDEST PUSH0 DUP1 REVERT JUMPDEST PUSH0 PUSH20 0xFFFFFFFFFFFFFFFFFFFFFFFFFFFFFFFFFFFFFFFF DUP3 AND SWAP1 POP SWAP2 SWAP1 POP JUMP JUMPDEST PUSH0 PUSH2 0x1232 DUP3 PUSH2 0x1209 JUMP JUMPDEST SWAP1 POP SWAP2 SWAP1 POP JUMP JUMPDEST PUSH2 0x1242 DUP2 PUSH2 0x1228 JUMP JUMPDEST DUP2 EQ PUSH2 0x124C JUMPI PUSH0 DUP1 REVERT JUMPDEST POP JUMP JUMPDEST PUSH0 DUP2 CALLDATALOAD SWAP1 POP PUSH2 0x125D DUP2 PUSH2 0x1239 JUMP JUMPDEST SWAP3 SWAP2 POP POP JUMP JUMPDEST PUSH0 PUSH1 0x20 DUP3 DUP5 SUB SLT ISZERO PUSH2 0x1278 JUMPI PUSH2 0x1277 PUSH2 0x1201 JUMP JUMPDEST JUMPDEST PUSH0 PUSH2 0x1285 DUP5 DUP3 DUP6 ADD PUSH2 0x124F JUMP JUMPDEST SWAP2 POP POP SWAP3 SWAP2 POP POP JUMP JUMPDEST PUSH0 DUP2 ISZERO ISZERO SWAP1 POP SWAP2 SWAP1 POP JUMP JUMPDEST PUSH2 0x12A2 DUP2 PUSH2 0x128E JUMP JUMPDEST DUP3 MSTORE POP POP JUMP JUMPDEST PUSH0 PUSH1 0x20 DUP3 ADD SWAP1 POP PUSH2 0x12BB PUSH0 DUP4 ADD DUP5 PUSH2 0x1299 JUMP JUMPDEST SWAP3 SWAP2 POP POP JUMP JUMPDEST PUSH0 DUP2 SWAP1 POP SWAP2 SWAP1 POP JUMP JUMPDEST PUSH2 0x12D3 DUP2 PUSH2 0x12C1 JUMP JUMPDEST DUP2 EQ PUSH2 0x12DD JUMPI PUSH0 DUP1 REVERT JUMPDEST POP JUMP JUMPDEST PUSH0 DUP2 CALLDATALOAD SWAP1 POP PUSH2 0x12EE DUP2 PUSH2 0x12CA JUMP JUMPDEST SWAP3 SWAP2 POP POP JUMP JUMPDEST PUSH0 DUP1 REVERT JUMPDEST PUSH0 DUP1 REVERT JUMPDEST PUSH0 PUSH1 0x1F NOT PUSH1 0x1F DUP4 ADD AND SWAP1 POP SWAP2 SWAP1 POP JUMP JUMPDEST PUSH32 0x4E487B7100000000000000000000000000000000000000000000000000000000 PUSH0 MSTORE PUSH1 0x41 PUSH1 0x4 MSTORE PUSH1 0x24 PUSH0 REVERT JUMPDEST PUSH2 0x1342 DUP3 PUSH2 0x12FC JUMP JUMPDEST DUP2 ADD DUP2 DUP2 LT PUSH8 0xFFFFFFFFFFFFFFFF DUP3 GT OR ISZERO PUSH2 0x1361 JUMPI PUSH2 0x1360 PUSH2 0x130C JUMP JUMPDEST JUMPDEST DUP1 PUSH1 0x40 MSTORE POP POP POP JUMP JUMPDEST PUSH0 PUSH2 0x1373 PUSH2 0x11F8 JUMP JUMPDEST SWAP1 POP PUSH2 0x137F DUP3 DUP3 PUSH2 0x1339 JUMP JUMPDEST SWAP2 SWAP1 POP JUMP JUMPDEST PUSH0 PUSH8 0xFFFFFFFFFFFFFFFF DUP3 GT ISZERO PUSH2 0x139E JUMPI PUSH2 0x139D PUSH2 0x130C JUMP JUMPDEST JUMPDEST PUSH2 0x13A7 DUP3 PUSH2 0x12FC JUMP JUMPDEST SWAP1 POP PUSH1 0x20 DUP2 ADD SWAP1 POP SWAP2 SWAP1 POP JUMP JUMPDEST DUP3 DUP2 DUP4 CALLDATACOPY PUSH0 DUP4 DUP4 ADD MSTORE POP POP POP JUMP JUMPDEST PUSH0 PUSH2 0x13D4 PUSH2 0x13CF DUP5 PUSH2 0x1384 JUMP JUMPDEST PUSH2 0x136A JUMP JUMPDEST SWAP1 POP DUP3 DUP2 MSTORE PUSH1 0x20 DUP2 ADD DUP5 DUP5 DUP5 ADD GT ISZERO PUSH2 0x13F0 JUMPI PUSH2 0x13EF PUSH2 0x12F8 JUMP JUMPDEST JUMPDEST PUSH2 0x13FB DUP5 DUP3 DUP6 PUSH2 0x13B4 JUMP JUMPDEST POP SWAP4 SWAP3 POP POP POP JUMP JUMPDEST PUSH0 DUP3 PUSH1 0x1F DUP4 ADD SLT PUSH2 0x1417 JUMPI PUSH2 0x1416 PUSH2 0x12F4 JUMP JUMPDEST JUMPDEST DUP2 CALLDATALOAD PUSH2 0x1427 DUP5 DUP3 PUSH1 0x20 DUP7 ADD PUSH2 0x13C2 JUMP JUMPDEST SWAP2 POP POP SWAP3 SWAP2 POP POP JUMP JUMPDEST PUSH0 DUP1 PUSH0 DUP1 PUSH0 DUP1 PUSH0 DUP1 PUSH0 PUSH2 0x120 DUP11 DUP13 SUB SLT ISZERO PUSH2 0x144E JUMPI PUSH2 0x144D PUSH2 0x1201 JUMP JUMPDEST JUMPDEST PUSH0 PUSH2 0x145B DUP13 DUP3 DUP14 ADD PUSH2 0x12E0 JUMP JUMPDEST SWAP10 POP POP PUSH1 0x20 DUP11 ADD CALLDATALOAD PUSH8 0xFFFFFFFFFFFFFFFF DUP2 GT ISZERO PUSH2 0x147C JUMPI PUSH2 0x147B PUSH2 0x1205 JUMP JUMPDEST JUMPDEST PUSH2 0x1488 DUP13 DUP3 DUP14 ADD PUSH2 0x1403 JUMP JUMPDEST SWAP9 POP POP PUSH1 0x40 PUSH2 0x1499 DUP13 DUP3 DUP14 ADD PUSH2 0x12E0 JUMP JUMPDEST SWAP8 POP POP PUSH1 0x60 DUP11 ADD CALLDATALOAD PUSH8 0xFFFFFFFFFFFFFFFF DUP2 GT ISZERO PUSH2 0x14BA JUMPI PUSH2 0x14B9 PUSH2 0x1205 JUMP JUMPDEST JUMPDEST PUSH2 0x14C6 DUP13 DUP3 DUP14 ADD PUSH2 0x1403 JUMP JUMPDEST SWAP7 POP POP PUSH1 0x80 DUP11 ADD CALLDATALOAD PUSH8 0xFFFFFFFFFFFFFFFF DUP2 GT ISZERO PUSH2 0x14E7 JUMPI PUSH2 0x14E6 PUSH2 0x1205 JUMP JUMPDEST JUMPDEST PUSH2 0x14F3 DUP13 DUP3 DUP14 ADD PUSH2 0x1403 JUMP JUMPDEST SWAP6 POP POP PUSH1 0xA0 PUSH2 0x1504 DUP13 DUP3 DUP14 ADD PUSH2 0x12E0 JUMP JUMPDEST SWAP5 POP POP PUSH1 0xC0 DUP11 ADD CALLDATALOAD PUSH8 0xFFFFFFFFFFFFFFFF DUP2 GT ISZERO PUSH2 0x1525 JUMPI PUSH2 0x1524 PUSH2 0x1205 JUMP JUMPDEST JUMPDEST PUSH2 0x1531 DUP13 DUP3 DUP14 ADD PUSH2 0x1403 JUMP JUMPDEST SWAP4 POP POP PUSH1 0xE0 PUSH2 0x1542 DUP13 DUP3 DUP14 ADD PUSH2 0x12E0 JUMP JUMPDEST SWAP3 POP POP PUSH2 0x100 DUP11 ADD CALLDATALOAD PUSH8 0xFFFFFFFFFFFFFFFF DUP2 GT ISZERO PUSH2 0x1564 JUMPI PUSH2 0x1563 PUSH2 0x1205 JUMP JUMPDEST JUMPDEST PUSH2 0x1570 DUP13 DUP3 DUP14 ADD PUSH2 0x1403 JUMP JUMPDEST SWAP2 POP POP SWAP3 SWAP6 SWAP9 POP SWAP3 SWAP6 SWAP9 POP SWAP3 SWAP6 SWAP9 JUMP JUMPDEST PUSH2 0x1589 DUP2 PUSH2 0x12C1 JUMP JUMPDEST DUP3 MSTORE POP POP JUMP JUMPDEST PUSH0 PUSH1 0x20 DUP3 ADD SWAP1 POP PUSH2 0x15A2 PUSH0 DUP4 ADD DUP5 PUSH2 0x1580 JUMP JUMPDEST SWAP3 SWAP2 POP POP JUMP JUMPDEST PUSH0 PUSH1 0x20 DUP3 DUP5 SUB SLT ISZERO PUSH2 0x15BD JUMPI PUSH2 0x15BC PUSH2 0x1201 JUMP JUMPDEST JUMPDEST PUSH0 PUSH2 0x15CA DUP5 DUP3 DUP6 ADD PUSH2 0x12E0 JUMP JUMPDEST SWAP2 POP POP SWAP3 SWAP2 POP POP JUMP JUMPDEST PUSH0 DUP2 MLOAD SWAP1 POP SWAP2 SWAP1 POP JUMP JUMPDEST PUSH0 DUP3 DUP3 MSTORE PUSH1 0x20 DUP3 ADD SWAP1 POP SWAP3 SWAP2 POP POP JUMP JUMPDEST PUSH0 DUP2 SWAP1 POP PUSH1 0x20 DUP3 ADD SWAP1 POP SWAP2 SWAP1 POP JUMP JUMPDEST PUSH2 0x1605 DUP2 PUSH2 0x12C1 JUMP JUMPDEST DUP3 MSTORE POP POP JUMP JUMPDEST PUSH0 DUP2 MLOAD SWAP1 POP SWAP2 SWAP1 POP JUMP JUMPDEST PUSH0 DUP3 DUP3 MSTORE PUSH1 0x20 DUP3 ADD SWAP1 POP SWAP3 SWAP2 POP POP JUMP JUMPDEST PUSH0 JUMPDEST DUP4 DUP2 LT ISZERO PUSH2 0x1642 JUMPI DUP1 DUP3 ADD MLOAD DUP2 DUP5 ADD MSTORE PUSH1 0x20 DUP2 ADD SWAP1 POP PUSH2 0x1627 JUMP JUMPDEST PUSH0 DUP5 DUP5 ADD MSTORE POP POP POP POP JUMP JUMPDEST PUSH0 PUSH2 0x1657 DUP3 PUSH2 0x160B JUMP JUMPDEST PUSH2 0x1661 DUP2 DUP6 PUSH2 0x1615 JUMP JUMPDEST SWAP4 POP PUSH2 0x1671 DUP2 DUP6 PUSH1 0x20 DUP7 ADD PUSH2 0x1625 JUMP JUMPDEST PUSH2 0x167A DUP2 PUSH2 0x12FC JUMP JUMPDEST DUP5 ADD SWAP2 POP POP SWAP3 SWAP2 POP POP JUMP JUMPDEST PUSH0 PUSH2 0x120 DUP4 ADD PUSH0 DUP4 ADD MLOAD PUSH2 0x169B PUSH0 DUP7 ADD DUP3 PUSH2 0x15FC JUMP JUMPDEST POP PUSH1 0x20 DUP4 ADD MLOAD DUP5 DUP3 SUB PUSH1 0x20 DUP7 ADD MSTORE PUSH2 0x16B3 DUP3 DUP3 PUSH2 0x164D JUMP JUMPDEST SWAP2 POP POP PUSH1 0x40 DUP4 ADD MLOAD PUSH2 0x16C8 PUSH1 0x40 DUP7 ADD DUP3 PUSH2 0x15FC JUMP JUMPDEST POP PUSH1 0x60 DUP4 ADD MLOAD DUP5 DUP3 SUB PUSH1 0x60 DUP7 ADD MSTORE PUSH2 0x16E0 DUP3 DUP3 PUSH2 0x164D JUMP JUMPDEST SWAP2 POP POP PUSH1 0x80 DUP4 ADD MLOAD DUP5 DUP3 SUB PUSH1 0x80 DUP7 ADD MSTORE PUSH2 0x16FA DUP3 DUP3 PUSH2 0x164D JUMP JUMPDEST SWAP2 POP POP PUSH1 0xA0 DUP4 ADD MLOAD PUSH2 0x170F PUSH1 0xA0 DUP7 ADD DUP3 PUSH2 0x15FC JUMP JUMPDEST POP PUSH1 0xC0 DUP4 ADD MLOAD DUP5 DUP3 SUB PUSH1 0xC0 DUP7 ADD MSTORE PUSH2 0x1727 DUP3 DUP3 PUSH2 0x164D JUMP JUMPDEST SWAP2 POP POP PUSH1 0xE0 DUP4 ADD MLOAD PUSH2 0x173C PUSH1 0xE0 DUP7 ADD DUP3 PUSH2 0x15FC JUMP JUMPDEST POP PUSH2 0x100 DUP4 ADD MLOAD DUP5 DUP3 SUB PUSH2 0x100 DUP7 ADD MSTORE PUSH2 0x1756 DUP3 DUP3 PUSH2 0x164D JUMP JUMPDEST SWAP2 POP POP DUP1 SWAP2 POP POP SWAP3 SWAP2 POP POP JUMP JUMPDEST PUSH0 PUSH2 0x176E DUP4 DUP4 PUSH2 0x1685 JUMP JUMPDEST SWAP1 POP SWAP3 SWAP2 POP POP JUMP JUMPDEST PUSH0 PUSH1 0x20 DUP3 ADD SWAP1 POP SWAP2 SWAP1 POP JUMP JUMPDEST PUSH0 PUSH2 0x178C DUP3 PUSH2 0x15D3 JUMP JUMPDEST PUSH2 0x1796 DUP2 DUP6 PUSH2 0x15DD JUMP JUMPDEST SWAP4 POP DUP4 PUSH1 0x20 DUP3 MUL DUP6 ADD PUSH2 0x17A8 DUP6 PUSH2 0x15ED JUMP JUMPDEST DUP1 PUSH0 JUMPDEST DUP6 DUP2 LT ISZERO PUSH2 0x17E3 JUMPI DUP5 DUP5 SUB DUP10 MSTORE DUP2 MLOAD PUSH2 0x17C4 DUP6 DUP3 PUSH2 0x1763 JUMP JUMPDEST SWAP5 POP PUSH2 0x17CF DUP4 PUSH2 0x1776 JUMP JUMPDEST SWAP3 POP PUSH1 0x20 DUP11 ADD SWAP10 POP POP PUSH1 0x1 DUP2 ADD SWAP1 POP PUSH2 0x17AB JUMP JUMPDEST POP DUP3 SWAP8 POP DUP8 SWAP6 POP POP POP POP POP POP SWAP3 SWAP2 POP POP JUMP JUMPDEST PUSH0 PUSH1 0x20 DUP3 ADD SWAP1 POP DUP2 DUP2 SUB PUSH0 DUP4 ADD MSTORE PUSH2 0x180D DUP2 DUP5 PUSH2 0x1782 JUMP JUMPDEST SWAP1 POP SWAP3 SWAP2 POP POP JUMP JUMPDEST PUSH2 0x181E DUP2 PUSH2 0x1228 JUMP JUMPDEST DUP3 MSTORE POP POP JUMP JUMPDEST PUSH0 PUSH1 0x20 DUP3 ADD SWAP1 POP PUSH2 0x1837 PUSH0 DUP4 ADD DUP5 PUSH2 0x1815 JUMP JUMPDEST SWAP3 SWAP2 POP POP JUMP JUMPDEST PUSH0 DUP1 PUSH1 0x40 DUP4 DUP6 SUB SLT ISZERO PUSH2 0x1853 JUMPI PUSH2 0x1852 PUSH2 0x1201 JUMP JUMPDEST JUMPDEST PUSH0 PUSH2 0x1860 DUP6 DUP3 DUP7 ADD PUSH2 0x12E0 JUMP JUMPDEST SWAP3 POP POP PUSH1 0x20 PUSH2 0x1871 DUP6 DUP3 DUP7 ADD PUSH2 0x12E0 JUMP JUMPDEST SWAP2 POP POP SWAP3 POP SWAP3 SWAP1 POP JUMP JUMPDEST PUSH0 DUP3 DUP3 MSTORE PUSH1 0x20 DUP3 ADD SWAP1 POP SWAP3 SWAP2 POP POP JUMP JUMPDEST PUSH0 PUSH2 0x1895 DUP3 PUSH2 0x160B JUMP JUMPDEST PUSH2 0x189F DUP2 DUP6 PUSH2 0x187B JUMP JUMPDEST SWAP4 POP PUSH2 0x18AF DUP2 DUP6 PUSH1 0x20 DUP7 ADD PUSH2 0x1625 JUMP JUMPDEST PUSH2 0x18B8 DUP2 PUSH2 0x12FC JUMP JUMPDEST DUP5 ADD SWAP2 POP POP SWAP3 SWAP2 POP POP JUMP JUMPDEST PUSH0 PUSH2 0x120 DUP3 ADD SWAP1 POP PUSH2 0x18D7 PUSH0 DUP4 ADD DUP13 PUSH2 0x1580 JUMP JUMPDEST DUP2 DUP2 SUB PUSH1 0x20 DUP4 ADD MSTORE PUSH2 0x18E9 DUP2 DUP12 PUSH2 0x188B JUMP JUMPDEST SWAP1 POP PUSH2 0x18F8 PUSH1 0x40 DUP4 ADD DUP11 PUSH2 0x1580 JUMP JUMPDEST DUP2 DUP2 SUB PUSH1 0x60 DUP4 ADD MSTORE PUSH2 0x190A DUP2 DUP10 PUSH2 0x188B JUMP JUMPDEST SWAP1 POP DUP2 DUP2 SUB PUSH1 0x80 DUP4 ADD MSTORE PUSH2 0x191E DUP2 DUP9 PUSH2 0x188B JUMP JUMPDEST SWAP1 POP PUSH2 0x192D PUSH1 0xA0 DUP4 ADD DUP8 PUSH2 0x1580 JUMP JUMPDEST DUP2 DUP2 SUB PUSH1 0xC0 DUP4 ADD MSTORE PUSH2 0x193F DUP2 DUP7 PUSH2 0x188B JUMP JUMPDEST SWAP1 POP PUSH2 0x194E PUSH1 0xE0 DUP4 ADD DUP6 PUSH2 0x1580 JUMP JUMPDEST DUP2 DUP2 SUB PUSH2 0x100 DUP4 ADD MSTORE PUSH2 0x1961 DUP2 DUP5 PUSH2 0x188B JUMP JUMPDEST SWAP1 POP SWAP11 SWAP10 POP POP POP POP POP POP POP POP POP POP JUMP JUMPDEST PUSH32 0x556E617574686F72697A65643A204F6E6C79206D656D6265722063616E207065 PUSH0 DUP3 ADD MSTORE PUSH32 0x72666F726D207468697320616374696F6E000000000000000000000000000000 PUSH1 0x20 DUP3 ADD MSTORE POP JUMP JUMPDEST PUSH0 PUSH2 0x19CB PUSH1 0x31 DUP4 PUSH2 0x187B JUMP JUMPDEST SWAP2 POP PUSH2 0x19D6 DUP3 PUSH2 0x1971 JUMP JUMPDEST PUSH1 0x40 DUP3 ADD SWAP1 POP SWAP2 SWAP1 POP JUMP JUMPDEST PUSH0 PUSH1 0x20 DUP3 ADD SWAP1 POP DUP2 DUP2 SUB PUSH0 DUP4 ADD MSTORE PUSH2 0x19F8 DUP2 PUSH2 0x19BF JUMP JUMPDEST SWAP1 POP SWAP2 SWAP1 POP JUMP JUMPDEST PUSH32 0x4E487B7100000000000000000000000000000000000000000000000000000000 PUSH0 MSTORE PUSH1 0x22 PUSH1 0x4 MSTORE PUSH1 0x24 PUSH0 REVERT JUMPDEST PUSH0 PUSH1 0x2 DUP3 DIV SWAP1 POP PUSH1 0x1 DUP3 AND DUP1 PUSH2 0x1A43 JUMPI PUSH1 0x7F DUP3 AND SWAP2 POP JUMPDEST PUSH1 0x20 DUP3 LT DUP2 SUB PUSH2 0x1A56 JUMPI PUSH2 0x1A55 PUSH2 0x19FF JUMP JUMPDEST JUMPDEST POP SWAP2 SWAP1 POP JUMP JUMPDEST PUSH0 DUP2 SWAP1 POP DUP2 PUSH0 MSTORE PUSH1 0x20 PUSH0 KECCAK256 SWAP1 POP SWAP2 SWAP1 POP JUMP JUMPDEST PUSH0 PUSH1 0x20 PUSH1 0x1F DUP4 ADD DIV SWAP1 POP SWAP2 SWAP1 POP JUMP JUMPDEST PUSH0 DUP3 DUP3 SHL SWAP1 POP SWAP3 SWAP2 POP POP JUMP JUMPDEST PUSH0 PUSH1 0x8 DUP4 MUL PUSH2 0x1AB8 PUSH32 0xFFFFFFFFFFFFFFFFFFFFFFFFFFFFFFFFFFFFFFFFFFFFFFFFFFFFFFFFFFFFFFFF DUP3 PUSH2 0x1A7D JUMP JUMPDEST PUSH2 0x1AC2 DUP7 DUP4 PUSH2 0x1A7D JUMP JUMPDEST SWAP6 POP DUP1 NOT DUP5 AND SWAP4 POP DUP1 DUP7 AND DUP5 OR SWAP3 POP POP POP SWAP4 SWAP3 POP POP POP JUMP JUMPDEST PUSH0 DUP2 SWAP1 POP SWAP2 SWAP1 POP JUMP JUMPDEST PUSH0 PUSH2 0x1AFD PUSH2 0x1AF8 PUSH2 0x1AF3 DUP5 PUSH2 0x12C1 JUMP JUMPDEST PUSH2 0x1ADA JUMP JUMPDEST PUSH2 0x12C1 JUMP JUMPDEST SWAP1 POP SWAP2 SWAP1 POP JUMP JUMPDEST PUSH0 DUP2 SWAP1 POP SWAP2 SWAP1 POP JUMP JUMPDEST PUSH2 0x1B16 DUP4 PUSH2 0x1AE3 JUMP JUMPDEST PUSH2 0x1B2A PUSH2 0x1B22 DUP3 PUSH2 0x1B04 JUMP JUMPDEST DUP5 DUP5 SLOAD PUSH2 0x1A89 JUMP JUMPDEST DUP3 SSTORE POP POP POP POP JUMP JUMPDEST PUSH0 SWAP1 JUMP JUMPDEST PUSH2 0x1B3E PUSH2 0x1B32 JUMP JUMPDEST PUSH2 0x1B49 DUP2 DUP5 DUP5 PUSH2 0x1B0D JUMP JUMPDEST POP POP POP JUMP JUMPDEST JUMPDEST DUP2 DUP2 LT ISZERO PUSH2 0x1B6C JUMPI PUSH2 0x1B61 PUSH0 DUP3 PUSH2 0x1B36 JUMP JUMPDEST PUSH1 0x1 DUP2 ADD SWAP1 POP PUSH2 0x1B4F JUMP JUMPDEST POP POP JUMP JUMPDEST PUSH1 0x1F DUP3 GT ISZERO PUSH2 0x1BB1 JUMPI PUSH2 0x1B82 DUP2 PUSH2 0x1A5C JUMP JUMPDEST PUSH2 0x1B8B DUP5 PUSH2 0x1A6E JUMP JUMPDEST DUP2 ADD PUSH1 0x20 DUP6 LT ISZERO PUSH2 0x1B9A JUMPI DUP2 SWAP1 POP JUMPDEST PUSH2 0x1BAE PUSH2 0x1BA6 DUP6 PUSH2 0x1A6E JUMP JUMPDEST DUP4 ADD DUP3 PUSH2 0x1B4E JUMP JUMPDEST POP POP JUMPDEST POP POP POP JUMP JUMPDEST PUSH0 DUP3 DUP3 SHR SWAP1 POP SWAP3 SWAP2 POP POP JUMP JUMPDEST PUSH0 PUSH2 0x1BD1 PUSH0 NOT DUP5 PUSH1 0x8 MUL PUSH2 0x1BB6 JUMP JUMPDEST NOT DUP1 DUP4 AND SWAP2 POP POP SWAP3 SWAP2 POP POP JUMP JUMPDEST PUSH0 PUSH2 0x1BE9 DUP4 DUP4 PUSH2 0x1BC2 JUMP JUMPDEST SWAP2 POP DUP3 PUSH1 0x2 MUL DUP3 OR SWAP1 POP SWAP3 SWAP2 POP POP JUMP JUMPDEST PUSH2 0x1C02 DUP3 PUSH2 0x160B JUMP JUMPDEST PUSH8 0xFFFFFFFFFFFFFFFF DUP2 GT ISZERO PUSH2 0x1C1B JUMPI PUSH2 0x1C1A PUSH2 0x130C JUMP JUMPDEST JUMPDEST PUSH2 0x1C25 DUP3 SLOAD PUSH2 0x1A2C JUMP JUMPDEST PUSH2 0x1C30 DUP3 DUP3 DUP6 PUSH2 0x1B70 JUMP JUMPDEST PUSH0 PUSH1 0x20 SWAP1 POP PUSH1 0x1F DUP4 GT PUSH1 0x1 DUP2 EQ PUSH2 0x1C61 JUMPI PUSH0 DUP5 ISZERO PUSH2 0x1C4F JUMPI DUP3 DUP8 ADD MLOAD SWAP1 POP JUMPDEST PUSH2 0x1C59 DUP6 DUP3 PUSH2 0x1BDE JUMP JUMPDEST DUP7 SSTORE POP PUSH2 0x1CC0 JUMP JUMPDEST PUSH1 0x1F NOT DUP5 AND PUSH2 0x1C6F DUP7 PUSH2 0x1A5C JUMP JUMPDEST PUSH0 JUMPDEST DUP3 DUP2 LT ISZERO PUSH2 0x1C96 JUMPI DUP5 DUP10 ADD MLOAD DUP3 SSTORE PUSH1 0x1 DUP3 ADD SWAP2 POP PUSH1 0x20 DUP6 ADD SWAP5 POP PUSH1 0x20 DUP2 ADD SWAP1 POP PUSH2 0x1C71 JUMP JUMPDEST DUP7 DUP4 LT ISZERO PUSH2 0x1CB3 JUMPI DUP5 DUP10 ADD MLOAD PUSH2 0x1CAF PUSH1 0x1F DUP10 AND DUP3 PUSH2 0x1BC2 JUMP JUMPDEST DUP4 SSTORE POP JUMPDEST PUSH1 0x1 PUSH1 0x2 DUP9 MUL ADD DUP9 SSTORE POP POP POP JUMPDEST POP POP POP POP POP POP JUMP JUMPDEST PUSH0 PUSH1 0x40 DUP3 ADD SWAP1 POP PUSH2 0x1CDB PUSH0 DUP4 ADD DUP6 PUSH2 0x1580 JUMP JUMPDEST DUP2 DUP2 SUB PUSH1 0x20 DUP4 ADD MSTORE PUSH2 0x1CED DUP2 DUP5 PUSH2 0x188B JUMP JUMPDEST SWAP1 POP SWAP4 SWAP3 POP POP POP JUMP JUMPDEST PUSH32 0x4E487B7100000000000000000000000000000000000000000000000000000000 PUSH0 MSTORE PUSH1 0x32 PUSH1 0x4 MSTORE PUSH1 0x24 PUSH0 REVERT JUMPDEST PUSH0 DUP2 SWAP1 POP SWAP3 SWAP2 POP POP JUMP JUMPDEST PUSH0 DUP2 SWAP1 POP DUP2 PUSH0 MSTORE PUSH1 0x20 PUSH0 KECCAK256 SWAP1 POP SWAP2 SWAP1 POP JUMP JUMPDEST PUSH0 DUP2 SLOAD PUSH2 0x1D4B DUP2 PUSH2 0x1A2C JUMP JUMPDEST PUSH2 0x1D55 DUP2 DUP7 PUSH2 0x1D23 JUMP JUMPDEST SWAP5 POP PUSH1 0x1 DUP3 AND PUSH0 DUP2 EQ PUSH2 0x1D6F JUMPI PUSH1 0x1 DUP2 EQ PUSH2 0x1D84 JUMPI PUSH2 0x1DB6 JUMP JUMPDEST PUSH1 0xFF NOT DUP4 AND DUP7 MSTORE DUP2 ISZERO ISZERO DUP3 MUL DUP7 ADD SWAP4 POP PUSH2 0x1DB6 JUMP JUMPDEST PUSH2 0x1D8D DUP6 PUSH2 0x1D2D JUMP JUMPDEST PUSH0 JUMPDEST DUP4 DUP2 LT ISZERO PUSH2 0x1DAE JUMPI DUP2 SLOAD DUP2 DUP10 ADD MSTORE PUSH1 0x1 DUP3 ADD SWAP2 POP PUSH1 0x20 DUP2 ADD SWAP1 POP PUSH2 0x1D8F JUMP JUMPDEST DUP4 DUP9 ADD SWAP6 POP POP POP JUMPDEST POP POP POP SWAP3 SWAP2 POP POP JUMP JUMPDEST PUSH0 PUSH2 0x1DCA DUP3 DUP5 PUSH2 0x1D3F JUMP JUMPDEST SWAP2 POP DUP2 SWAP1 POP SWAP3 SWAP2 POP POP JUMP JUMPDEST PUSH32 0x4E487B7100000000000000000000000000000000000000000000000000000000 PUSH0 MSTORE PUSH1 0x11 PUSH1 0x4 MSTORE PUSH1 0x24 PUSH0 REVERT JUMPDEST PUSH0 PUSH2 0x1E0C DUP3 PUSH2 0x12C1 JUMP JUMPDEST SWAP2 POP PUSH32 0xFFFFFFFFFFFFFFFFFFFFFFFFFFFFFFFFFFFFFFFFFFFFFFFFFFFFFFFFFFFFFFFF DUP3 SUB PUSH2 0x1E3E JUMPI PUSH2 0x1E3D PUSH2 0x1DD5 JUMP JUMPDEST JUMPDEST PUSH1 0x1 DUP3 ADD SWAP1 POP SWAP2 SWAP1 POP JUMP JUMPDEST PUSH0 PUSH2 0x1E53 DUP3 PUSH2 0x12C1 JUMP JUMPDEST SWAP2 POP PUSH2 0x1E5E DUP4 PUSH2 0x12C1 JUMP JUMPDEST SWAP3 POP DUP3 DUP3 MUL PUSH2 0x1E6C DUP2 PUSH2 0x12C1 JUMP JUMPDEST SWAP2 POP DUP3 DUP3 DIV DUP5 EQ DUP4 ISZERO OR PUSH2 0x1E83 JUMPI PUSH2 0x1E82 PUSH2 0x1DD5 JUMP JUMPDEST JUMPDEST POP SWAP3 SWAP2 POP POP JUMP JUMPDEST PUSH32 0x556E617574686F72697A65643A204F6E6C79206F776E65722063616E20706572 PUSH0 DUP3 ADD MSTORE PUSH32 0x666F726D207468697320616374696F6E00000000000000000000000000000000 PUSH1 0x20 DUP3 ADD MSTORE POP JUMP JUMPDEST PUSH0 PUSH2 0x1EE4 PUSH1 0x30 DUP4 PUSH2 0x187B JUMP JUMPDEST SWAP2 POP PUSH2 0x1EEF DUP3 PUSH2 0x1E8A JUMP JUMPDEST PUSH1 0x40 DUP3 ADD SWAP1 POP SWAP2 SWAP1 POP JUMP JUMPDEST PUSH0 PUSH1 0x20 DUP3 ADD SWAP1 POP DUP2 DUP2 SUB PUSH0 DUP4 ADD MSTORE PUSH2 0x1F11 DUP2 PUSH2 0x1ED8 JUMP JUMPDEST SWAP1 POP SWAP2 SWAP1 POP JUMP JUMPDEST PUSH32 0x4E6577206F776E65722063616E6E6F7420626520746865207A65726F20616464 PUSH0 DUP3 ADD MSTORE PUSH32 0x7265737300000000000000000000000000000000000000000000000000000000 PUSH1 0x20 DUP3 ADD MSTORE POP JUMP JUMPDEST PUSH0 PUSH2 0x1F72 PUSH1 0x24 DUP4 PUSH2 0x187B JUMP JUMPDEST SWAP2 POP PUSH2 0x1F7D DUP3 PUSH2 0x1F18 JUMP JUMPDEST PUSH1 0x40 DUP3 ADD SWAP1 POP SWAP2 SWAP1 POP JUMP JUMPDEST PUSH0 PUSH1 0x20 DUP3 ADD SWAP1 POP DUP2 DUP2 SUB PUSH0 DUP4 ADD MSTORE PUSH2 0x1F9F DUP2 PUSH2 0x1F66 JUMP JUMPDEST SWAP1 POP SWAP2 SWAP1 POP JUMP INVALID LOG2 PUSH5 0x6970667358 0x22 SLT KECCAK256 0xBB SGT PUSH13 0xB14B9E5624F6B9C7FD969A6AE6 0x4D DUP6 SWAP2 BLOCKHASH ISZERO SWAP4 SAR 0xB4 PUSH22 0xF871BB95670F5A64736F6C6343000816003300000000 "
				},
				"gasEstimates": {
					"creation": {
						"codeDepositCost": "1631200",
						"executionCost": "infinite",
						"totalCost": "infinite"
					},
					"external": {
						"addAuthorizedMember(address)": "infinite",
						"addAuthorizedTeam(address)": "infinite",
						"authorizedMembers(address)": "2921",
						"authorizedTeams(address)": "2834",
						"calculateTotalPenaltyA(uint256)": "infinite",
						"calculateTotalPenaltyB(uint256)": "infinite",
						"getViolationsForCompany(uint256)": "infinite",
						"owner()": "2528",
						"reportViolation(uint256,string,uint256,string,string,uint256,string,uint256,string)": "infinite",
						"roadCharge()": "2492",
						"transferOwnership(address)": "30658",
						"updateRoadCharge(uint256)": "infinite",
						"violationsByCompany(uint256,uint256)": "infinite"
					}
				},
				"methodIdentifiers": {
					"addAuthorizedMember(address)": "2771c997",
					"addAuthorizedTeam(address)": "b75d3192",
					"authorizedMembers(address)": "f386b306",
					"authorizedTeams(address)": "24649c40",
					"calculateTotalPenaltyA(uint256)": "8c1733e8",
					"calculateTotalPenaltyB(uint256)": "a245e11e",
					"getViolationsForCompany(uint256)": "7366adcf",
					"owner()": "8da5cb5b",
					"reportViolation(uint256,string,uint256,string,string,uint256,string,uint256,string)": "3cb13f6b",
					"roadCharge()": "624b168d",
					"transferOwnership(address)": "f2fde38b",
					"updateRoadCharge(uint256)": "f27afa30",
					"violationsByCompany(uint256,uint256)": "97c6a46f"
				}
			},
			"storageLayout": {
				"storage": [
					{
						"astId": 25,
						"contract": "voilation.sol:BusViolationsContract",
						"label": "owner",
						"offset": 0,
						"slot": "0",
						"type": "t_address"
					},
					{
						"astId": 29,
						"contract": "voilation.sol:BusViolationsContract",
						"label": "authorizedTeams",
						"offset": 0,
						"slot": "1",
						"type": "t_mapping(t_address,t_bool)"
					},
					{
						"astId": 33,
						"contract": "voilation.sol:BusViolationsContract",
						"label": "authorizedMembers",
						"offset": 0,
						"slot": "2",
						"type": "t_mapping(t_address,t_bool)"
					},
					{
						"astId": 39,
						"contract": "voilation.sol:BusViolationsContract",
						"label": "violationsByCompany",
						"offset": 0,
						"slot": "3",
						"type": "t_mapping(t_uint256,t_array(t_struct(Violation)20_storage)dyn_storage)"
					},
					{
						"astId": 41,
						"contract": "voilation.sol:BusViolationsContract",
						"label": "roadCharge",
						"offset": 0,
						"slot": "4",
						"type": "t_uint256"
					}
				],
				"types": {
					"t_address": {
						"encoding": "inplace",
						"label": "address",
						"numberOfBytes": "20"
					},
					"t_array(t_struct(Violation)20_storage)dyn_storage": {
						"base": "t_struct(Violation)20_storage",
						"encoding": "dynamic_array",
						"label": "struct BusViolationsContract.Violation[]",
						"numberOfBytes": "32"
					},
					"t_bool": {
						"encoding": "inplace",
						"label": "bool",
						"numberOfBytes": "1"
					},
					"t_mapping(t_address,t_bool)": {
						"encoding": "mapping",
						"key": "t_address",
						"label": "mapping(address => bool)",
						"numberOfBytes": "32",
						"value": "t_bool"
					},
					"t_mapping(t_uint256,t_array(t_struct(Violation)20_storage)dyn_storage)": {
						"encoding": "mapping",
						"key": "t_uint256",
						"label": "mapping(uint256 => struct BusViolationsContract.Violation[])",
						"numberOfBytes": "32",
						"value": "t_array(t_struct(Violation)20_storage)dyn_storage"
					},
					"t_string_storage": {
						"encoding": "bytes",
						"label": "string",
						"numberOfBytes": "32"
					},
					"t_struct(Violation)20_storage": {
						"encoding": "inplace",
						"label": "struct BusViolationsContract.Violation",
						"members": [
							{
								"astId": 3,
								"contract": "voilation.sol:BusViolationsContract",
								"label": "companyId",
								"offset": 0,
								"slot": "0",
								"type": "t_uint256"
							},
							{
								"astId": 5,
								"contract": "voilation.sol:BusViolationsContract",
								"label": "busCompany",
								"offset": 0,
								"slot": "1",
								"type": "t_string_storage"
							},
							{
								"astId": 7,
								"contract": "voilation.sol:BusViolationsContract",
								"label": "busCompanyNumber",
								"offset": 0,
								"slot": "2",
								"type": "t_uint256"
							},
							{
								"astId": 9,
								"contract": "voilation.sol:BusViolationsContract",
								"label": "busPlateNumber",
								"offset": 0,
								"slot": "3",
								"type": "t_string_storage"
							},
							{
								"astId": 11,
								"contract": "voilation.sol:BusViolationsContract",
								"label": "location",
								"offset": 0,
								"slot": "4",
								"type": "t_string_storage"
							},
							{
								"astId": 13,
								"contract": "voilation.sol:BusViolationsContract",
								"label": "numberOfPassengers",
								"offset": 0,
								"slot": "5",
								"type": "t_uint256"
							},
							{
								"astId": 15,
								"contract": "voilation.sol:BusViolationsContract",
								"label": "violationsIssuer",
								"offset": 0,
								"slot": "6",
								"type": "t_string_storage"
							},
							{
								"astId": 17,
								"contract": "voilation.sol:BusViolationsContract",
								"label": "dateOfViolation",
								"offset": 0,
								"slot": "7",
								"type": "t_uint256"
							},
							{
								"astId": 19,
								"contract": "voilation.sol:BusViolationsContract",
								"label": "category",
								"offset": 0,
								"slot": "8",
								"type": "t_string_storage"
							}
						],
						"numberOfBytes": "288"
					},
					"t_uint256": {
						"encoding": "inplace",
						"label": "uint256",
						"numberOfBytes": "32"
					}
				}
			},
			"userdoc": {
				"kind": "user",
				"methods": {},
				"version": 1
			}
		}
	}
}