{
	"data": {
		"bytecode": {
			"linkReferences": {},
			"object": "60806040526001600d55348015610014575f80fd5b50611ae1806100225f395ff3fe608060405234801561000f575f80fd5b5060043610610055575f3560e01c80631d0476d4146100595780633c1e87721461007557806394b665f014610091578063cc0266f7146100ba578063f2c24032146100d6575b5f80fd5b610073600480360381019061006e9190610e95565b610106565b005b61008f600480360381019061008a9190610f19565b610253565b005b610099610599565b6040516100b19c9b9a999897969594939291906110eb565b60405180910390f35b6100d460048036038101906100cf91906111b8565b6107e0565b005b6100f060048036038101906100eb91906111f6565b610933565b6040516100fd91906113a5565b60405180910390f35b845f600c5f8381526020019081526020015f205f01540361015c576040517f08c379a000000000000000000000000000000000000000000000000000000000815260040161015390611435565b60405180910390fd5b84600c5f8881526020019081526020015f206006015f6101000a81548160ff0219169083600581111561019257610191611069565b5b02179055508383600c5f8981526020019081526020015f2060070191826101ba929190611684565b5081600c5f8881526020019081526020015f206008015f6101000a81548173ffffffffffffffffffffffffffffffffffffffff021916908373ffffffffffffffffffffffffffffffffffffffff160217905550857fdad1eb2f26e1deae81185f40d91508b624e27982264501b3328ce68b7a929b1f86868686604051610243949392919061178b565b60405180910390a2505050505050565b5f600a8861026191906117f6565b9050604051806101800160405280600d54815260200189815260200188888080601f0160208091040260200160405190810160405280939291908181526020018383808284375f81840152601f19601f82011690508083019250505050505050815260200186815260200185858080601f0160208091040260200160405190810160405280939291908181526020018383808284375f81840152601f19601f8201169050808301925050505050505081526020018281526020015f600581111561032e5761032d611069565b5b815260200160405180602001604052805f81525081526020015f73ffffffffffffffffffffffffffffffffffffffff1681526020018373ffffffffffffffffffffffffffffffffffffffff1681526020018373ffffffffffffffffffffffffffffffffffffffff1681526020015f815250600c5f600d5481526020019081526020015f205f820151815f01556020820151816001015560408201518160020190816103d99190611829565b506060820151816003015560808201518160040190816103f99190611829565b5060a0820151816005015560c0820151816006015f6101000a81548160ff0219169083600581111561042e5761042d611069565b5b021790555060e08201518160070190816104489190611829565b50610100820151816008015f6101000a81548173ffffffffffffffffffffffffffffffffffffffff021916908373ffffffffffffffffffffffffffffffffffffffff160217905550610120820151816009015f6101000a81548173ffffffffffffffffffffffffffffffffffffffff021916908373ffffffffffffffffffffffffffffffffffffffff16021790555061014082015181600a015f6101000a81548173ffffffffffffffffffffffffffffffffffffffff021916908373ffffffffffffffffffffffffffffffffffffffff16021790555061016082015181600b0155905050600d547f1abc9e9bfdd1f5dfe8ee8d23f3795617729ab362c66586546476d365dfe55bc7898989898989885f8b8c6040516105709a9998979695949392919061191b565b60405180910390a2600d5f81548092919061058a906119bd565b91905055505050505050505050565b5f805f0154908060010154908060020180546105b4906114b7565b80601f01602080910402602001604051908101604052809291908181526020018280546105e0906114b7565b801561062b5780601f106106025761010080835404028352916020019161062b565b820191905f5260205f20905b81548152906001019060200180831161060e57829003601f168201915b505050505090806003015490806004018054610646906114b7565b80601f0160208091040260200160405190810160405280929190818152602001828054610672906114b7565b80156106bd5780601f10610694576101008083540402835291602001916106bd565b820191905f5260205f20905b8154815290600101906020018083116106a057829003601f168201915b505050505090806005015490806006015f9054906101000a900460ff16908060070180546106ea906114b7565b80601f0160208091040260200160405190810160405280929190818152602001828054610716906114b7565b80156107615780601f1061073857610100808354040283529160200191610761565b820191905f5260205f20905b81548152906001019060200180831161074457829003601f168201915b505050505090806008015f9054906101000a900473ffffffffffffffffffffffffffffffffffffffff1690806009015f9054906101000a900473ffffffffffffffffffffffffffffffffffffffff169080600a015f9054906101000a900473ffffffffffffffffffffffffffffffffffffffff169080600b015490508c565b815f600c5f8381526020019081526020015f205f015403610836576040517f08c379a000000000000000000000000000000000000000000000000000000000815260040161082d90611435565b60405180910390fd5b5f73ffffffffffffffffffffffffffffffffffffffff168273ffffffffffffffffffffffffffffffffffffffff16036108a4576040517f08c379a000000000000000000000000000000000000000000000000000000000815260040161089b90611a74565b60405180910390fd5b81600c5f8581526020019081526020015f206009015f6101000a81548173ffffffffffffffffffffffffffffffffffffffff021916908373ffffffffffffffffffffffffffffffffffffffff160217905550827fb21ea7d7f8a2d11e8be5ec996fd26c23eb88986dc696f00f36adb1b8d5da5650836040516109269190611a92565b60405180910390a2505050565b61093b610cd0565b815f600c5f8381526020019081526020015f205f015403610991576040517f08c379a000000000000000000000000000000000000000000000000000000000815260040161098890611435565b60405180910390fd5b600c5f8481526020019081526020015f20604051806101800160405290815f8201548152602001600182015481526020016002820180546109d1906114b7565b80601f01602080910402602001604051908101604052809291908181526020018280546109fd906114b7565b8015610a485780601f10610a1f57610100808354040283529160200191610a48565b820191905f5260205f20905b815481529060010190602001808311610a2b57829003601f168201915b5050505050815260200160038201548152602001600482018054610a6b906114b7565b80601f0160208091040260200160405190810160405280929190818152602001828054610a97906114b7565b8015610ae25780601f10610ab957610100808354040283529160200191610ae2565b820191905f5260205f20905b815481529060010190602001808311610ac557829003601f168201915b5050505050815260200160058201548152602001600682015f9054906101000a900460ff166005811115610b1957610b18611069565b5b6005811115610b2b57610b2a611069565b5b8152602001600782018054610b3f906114b7565b80601f0160208091040260200160405190810160405280929190818152602001828054610b6b906114b7565b8015610bb65780601f10610b8d57610100808354040283529160200191610bb6565b820191905f5260205f20905b815481529060010190602001808311610b9957829003601f168201915b50505050508152602001600882015f9054906101000a900473ffffffffffffffffffffffffffffffffffffffff1673ffffffffffffffffffffffffffffffffffffffff1673ffffffffffffffffffffffffffffffffffffffff168152602001600982015f9054906101000a900473ffffffffffffffffffffffffffffffffffffffff1673ffffffffffffffffffffffffffffffffffffffff1673ffffffffffffffffffffffffffffffffffffffff168152602001600a82015f9054906101000a900473ffffffffffffffffffffffffffffffffffffffff1673ffffffffffffffffffffffffffffffffffffffff1673ffffffffffffffffffffffffffffffffffffffff168152602001600b82015481525050915050919050565b6040518061018001604052805f81526020015f8152602001606081526020015f8152602001606081526020015f81526020015f6005811115610d1557610d14611069565b5b8152602001606081526020015f73ffffffffffffffffffffffffffffffffffffffff1681526020015f73ffffffffffffffffffffffffffffffffffffffff1681526020015f73ffffffffffffffffffffffffffffffffffffffff1681526020015f81525090565b5f80fd5b5f80fd5b5f819050919050565b610d9681610d84565b8114610da0575f80fd5b50565b5f81359050610db181610d8d565b92915050565b60068110610dc3575f80fd5b50565b5f81359050610dd481610db7565b92915050565b5f80fd5b5f80fd5b5f80fd5b5f8083601f840112610dfb57610dfa610dda565b5b8235905067ffffffffffffffff811115610e1857610e17610dde565b5b602083019150836001820283011115610e3457610e33610de2565b5b9250929050565b5f73ffffffffffffffffffffffffffffffffffffffff82169050919050565b5f610e6482610e3b565b9050919050565b610e7481610e5a565b8114610e7e575f80fd5b50565b5f81359050610e8f81610e6b565b92915050565b5f805f805f60808688031215610eae57610ead610d7c565b5b5f610ebb88828901610da3565b9550506020610ecc88828901610dc6565b945050604086013567ffffffffffffffff811115610eed57610eec610d80565b5b610ef988828901610de6565b93509350506060610f0c88828901610e81565b9150509295509295909350565b5f805f805f805f60a0888a031215610f3457610f33610d7c565b5b5f610f418a828b01610da3565b975050602088013567ffffffffffffffff811115610f6257610f61610d80565b5b610f6e8a828b01610de6565b96509650506040610f818a828b01610da3565b945050606088013567ffffffffffffffff811115610fa257610fa1610d80565b5b610fae8a828b01610de6565b93509350506080610fc18a828b01610e81565b91505092959891949750929550565b610fd981610d84565b82525050565b5f81519050919050565b5f82825260208201905092915050565b5f5b83811015611016578082015181840152602081019050610ffb565b5f8484015250505050565b5f601f19601f8301169050919050565b5f61103b82610fdf565b6110458185610fe9565b9350611055818560208601610ff9565b61105e81611021565b840191505092915050565b7f4e487b71000000000000000000000000000000000000000000000000000000005f52602160045260245ffd5b600681106110a7576110a6611069565b5b50565b5f8190506110b782611096565b919050565b5f6110c6826110aa565b9050919050565b6110d6816110bc565b82525050565b6110e581610e5a565b82525050565b5f610180820190506110ff5f83018f610fd0565b61110c602083018e610fd0565b818103604083015261111e818d611031565b905061112d606083018c610fd0565b818103608083015261113f818b611031565b905061114e60a083018a610fd0565b61115b60c08301896110cd565b81810360e083015261116d8188611031565b905061117d6101008301876110dc565b61118b6101208301866110dc565b6111996101408301856110dc565b6111a7610160830184610fd0565b9d9c50505050505050505050505050565b5f80604083850312156111ce576111cd610d7c565b5b5f6111db85828601610da3565b92505060206111ec85828601610e81565b9150509250929050565b5f6020828403121561120b5761120a610d7c565b5b5f61121884828501610da3565b91505092915050565b61122a81610d84565b82525050565b5f82825260208201905092915050565b5f61124a82610fdf565b6112548185611230565b9350611264818560208601610ff9565b61126d81611021565b840191505092915050565b611281816110bc565b82525050565b61129081610e5a565b82525050565b5f61018083015f8301516112ac5f860182611221565b5060208301516112bf6020860182611221565b50604083015184820360408601526112d78282611240565b91505060608301516112ec6060860182611221565b50608083015184820360808601526113048282611240565b91505060a083015161131960a0860182611221565b5060c083015161132c60c0860182611278565b5060e083015184820360e08601526113448282611240565b91505061010083015161135b610100860182611287565b50610120830151611370610120860182611287565b50610140830151611385610140860182611287565b5061016083015161139a610160860182611221565b508091505092915050565b5f6020820190508181035f8301526113bd8184611296565b905092915050565b7f53686172656453746f726167653a2042757320646f6573206e6f7420657869735f8201527f742e000000000000000000000000000000000000000000000000000000000000602082015250565b5f61141f602283610fe9565b915061142a826113c5565b604082019050919050565b5f6020820190508181035f83015261144c81611413565b9050919050565b5f82905092915050565b7f4e487b71000000000000000000000000000000000000000000000000000000005f52604160045260245ffd5b7f4e487b71000000000000000000000000000000000000000000000000000000005f52602260045260245ffd5b5f60028204905060018216806114ce57607f821691505b6020821081036114e1576114e061148a565b5b50919050565b5f819050815f5260205f209050919050565b5f6020601f8301049050919050565b5f82821b905092915050565b5f600883026115437fffffffffffffffffffffffffffffffffffffffffffffffffffffffffffffffff82611508565b61154d8683611508565b95508019841693508086168417925050509392505050565b5f819050919050565b5f61158861158361157e84610d84565b611565565b610d84565b9050919050565b5f819050919050565b6115a18361156e565b6115b56115ad8261158f565b848454611514565b825550505050565b5f90565b6115c96115bd565b6115d4818484611598565b505050565b5b818110156115f7576115ec5f826115c1565b6001810190506115da565b5050565b601f82111561163c5761160d816114e7565b611616846114f9565b81016020851015611625578190505b611639611631856114f9565b8301826115d9565b50505b505050565b5f82821c905092915050565b5f61165c5f1984600802611641565b1980831691505092915050565b5f611674838361164d565b9150826002028217905092915050565b61168e8383611453565b67ffffffffffffffff8111156116a7576116a661145d565b5b6116b182546114b7565b6116bc8282856115fb565b5f601f8311600181146116e9575f84156116d7578287013590505b6116e18582611669565b865550611748565b601f1984166116f7866114e7565b5f5b8281101561171e578489013582556001820191506020850194506020810190506116f9565b8683101561173b5784890135611737601f89168261164d565b8355505b6001600288020188555050505b50505050505050565b828183375f83830152505050565b5f61176a8385610fe9565b9350611777838584611751565b61178083611021565b840190509392505050565b5f60608201905061179e5f8301876110cd565b81810360208301526117b181858761175f565b90506117c060408301846110dc565b95945050505050565b7f4e487b71000000000000000000000000000000000000000000000000000000005f52601160045260245ffd5b5f61180082610d84565b915061180b83610d84565b9250828201905080821115611823576118226117c9565b5b92915050565b61183282610fdf565b67ffffffffffffffff81111561184b5761184a61145d565b5b61185582546114b7565b6118608282856115fb565b5f60209050601f831160018114611891575f841561187f578287015190505b6118898582611669565b8655506118f0565b601f19841661189f866114e7565b5f5b828110156118c6578489015182556001820191506020850194506020810190506118a1565b868310156118e357848901516118df601f89168261164d565b8355505b6001600288020188555050505b505050505050565b50565b5f6119065f83610fe9565b9150611911826118f8565b5f82019050919050565b5f6101208201905061192f5f83018d610fd0565b8181036020830152611942818b8d61175f565b9050611951604083018a610fd0565b818103606083015261196481888a61175f565b90506119736080830187610fd0565b61198060a08301866110cd565b81810360c0830152611991816118fb565b90506119a060e08301856110dc565b6119ae6101008301846110dc565b9b9a5050505050505050505050565b5f6119c782610d84565b91507fffffffffffffffffffffffffffffffffffffffffffffffffffffffffffffffff82036119f9576119f86117c9565b5b600182019050919050565b7f53686172656453746f726167653a204e6577206f776e65722063616e6e6f74205f8201527f6265207a65726f20616464726573732e00000000000000000000000000000000602082015250565b5f611a5e603083610fe9565b9150611a6982611a04565b604082019050919050565b5f6020820190508181035f830152611a8b81611a52565b9050919050565b5f602082019050611aa55f8301846110dc565b9291505056fea264697066735822122066a117312e1ba0a4486a28630deb76282f88cfa7f5ffb762f88c6eb8218edadd64736f6c63430008160033",
			"opcodes": "PUSH1 0x80 PUSH1 0x40 MSTORE PUSH1 0x1 PUSH1 0xD SSTORE CALLVALUE DUP1 ISZERO PUSH2 0x14 JUMPI PUSH0 DUP1 REVERT JUMPDEST POP PUSH2 0x1AE1 DUP1 PUSH2 0x22 PUSH0 CODECOPY PUSH0 RETURN INVALID PUSH1 0x80 PUSH1 0x40 MSTORE CALLVALUE DUP1 ISZERO PUSH2 0xF JUMPI PUSH0 DUP1 REVERT JUMPDEST POP PUSH1 0x4 CALLDATASIZE LT PUSH2 0x55 JUMPI PUSH0 CALLDATALOAD PUSH1 0xE0 SHR DUP1 PUSH4 0x1D0476D4 EQ PUSH2 0x59 JUMPI DUP1 PUSH4 0x3C1E8772 EQ PUSH2 0x75 JUMPI DUP1 PUSH4 0x94B665F0 EQ PUSH2 0x91 JUMPI DUP1 PUSH4 0xCC0266F7 EQ PUSH2 0xBA JUMPI DUP1 PUSH4 0xF2C24032 EQ PUSH2 0xD6 JUMPI JUMPDEST PUSH0 DUP1 REVERT JUMPDEST PUSH2 0x73 PUSH1 0x4 DUP1 CALLDATASIZE SUB DUP2 ADD SWAP1 PUSH2 0x6E SWAP2 SWAP1 PUSH2 0xE95 JUMP JUMPDEST PUSH2 0x106 JUMP JUMPDEST STOP JUMPDEST PUSH2 0x8F PUSH1 0x4 DUP1 CALLDATASIZE SUB DUP2 ADD SWAP1 PUSH2 0x8A SWAP2 SWAP1 PUSH2 0xF19 JUMP JUMPDEST PUSH2 0x253 JUMP JUMPDEST STOP JUMPDEST PUSH2 0x99 PUSH2 0x599 JUMP JUMPDEST PUSH1 0x40 MLOAD PUSH2 0xB1 SWAP13 SWAP12 SWAP11 SWAP10 SWAP9 SWAP8 SWAP7 SWAP6 SWAP5 SWAP4 SWAP3 SWAP2 SWAP1 PUSH2 0x10EB JUMP JUMPDEST PUSH1 0x40 MLOAD DUP1 SWAP2 SUB SWAP1 RETURN JUMPDEST PUSH2 0xD4 PUSH1 0x4 DUP1 CALLDATASIZE SUB DUP2 ADD SWAP1 PUSH2 0xCF SWAP2 SWAP1 PUSH2 0x11B8 JUMP JUMPDEST PUSH2 0x7E0 JUMP JUMPDEST STOP JUMPDEST PUSH2 0xF0 PUSH1 0x4 DUP1 CALLDATASIZE SUB DUP2 ADD SWAP1 PUSH2 0xEB SWAP2 SWAP1 PUSH2 0x11F6 JUMP JUMPDEST PUSH2 0x933 JUMP JUMPDEST PUSH1 0x40 MLOAD PUSH2 0xFD SWAP2 SWAP1 PUSH2 0x13A5 JUMP JUMPDEST PUSH1 0x40 MLOAD DUP1 SWAP2 SUB SWAP1 RETURN JUMPDEST DUP5 PUSH0 PUSH1 0xC PUSH0 DUP4 DUP2 MSTORE PUSH1 0x20 ADD SWAP1 DUP2 MSTORE PUSH1 0x20 ADD PUSH0 KECCAK256 PUSH0 ADD SLOAD SUB PUSH2 0x15C JUMPI PUSH1 0x40 MLOAD PUSH32 0x8C379A000000000000000000000000000000000000000000000000000000000 DUP2 MSTORE PUSH1 0x4 ADD PUSH2 0x153 SWAP1 PUSH2 0x1435 JUMP JUMPDEST PUSH1 0x40 MLOAD DUP1 SWAP2 SUB SWAP1 REVERT JUMPDEST DUP5 PUSH1 0xC PUSH0 DUP9 DUP2 MSTORE PUSH1 0x20 ADD SWAP1 DUP2 MSTORE PUSH1 0x20 ADD PUSH0 KECCAK256 PUSH1 0x6 ADD PUSH0 PUSH2 0x100 EXP DUP2 SLOAD DUP2 PUSH1 0xFF MUL NOT AND SWAP1 DUP4 PUSH1 0x5 DUP2 GT ISZERO PUSH2 0x192 JUMPI PUSH2 0x191 PUSH2 0x1069 JUMP JUMPDEST JUMPDEST MUL OR SWAP1 SSTORE POP DUP4 DUP4 PUSH1 0xC PUSH0 DUP10 DUP2 MSTORE PUSH1 0x20 ADD SWAP1 DUP2 MSTORE PUSH1 0x20 ADD PUSH0 KECCAK256 PUSH1 0x7 ADD SWAP2 DUP3 PUSH2 0x1BA SWAP3 SWAP2 SWAP1 PUSH2 0x1684 JUMP JUMPDEST POP DUP2 PUSH1 0xC PUSH0 DUP9 DUP2 MSTORE PUSH1 0x20 ADD SWAP1 DUP2 MSTORE PUSH1 0x20 ADD PUSH0 KECCAK256 PUSH1 0x8 ADD PUSH0 PUSH2 0x100 EXP DUP2 SLOAD DUP2 PUSH20 0xFFFFFFFFFFFFFFFFFFFFFFFFFFFFFFFFFFFFFFFF MUL NOT AND SWAP1 DUP4 PUSH20 0xFFFFFFFFFFFFFFFFFFFFFFFFFFFFFFFFFFFFFFFF AND MUL OR SWAP1 SSTORE POP DUP6 PUSH32 0xDAD1EB2F26E1DEAE81185F40D91508B624E27982264501B3328CE68B7A929B1F DUP7 DUP7 DUP7 DUP7 PUSH1 0x40 MLOAD PUSH2 0x243 SWAP5 SWAP4 SWAP3 SWAP2 SWAP1 PUSH2 0x178B JUMP JUMPDEST PUSH1 0x40 MLOAD DUP1 SWAP2 SUB SWAP1 LOG2 POP POP POP POP POP POP JUMP JUMPDEST PUSH0 PUSH1 0xA DUP9 PUSH2 0x261 SWAP2 SWAP1 PUSH2 0x17F6 JUMP JUMPDEST SWAP1 POP PUSH1 0x40 MLOAD DUP1 PUSH2 0x180 ADD PUSH1 0x40 MSTORE DUP1 PUSH1 0xD SLOAD DUP2 MSTORE PUSH1 0x20 ADD DUP10 DUP2 MSTORE PUSH1 0x20 ADD DUP9 DUP9 DUP1 DUP1 PUSH1 0x1F ADD PUSH1 0x20 DUP1 SWAP2 DIV MUL PUSH1 0x20 ADD PUSH1 0x40 MLOAD SWAP1 DUP2 ADD PUSH1 0x40 MSTORE DUP1 SWAP4 SWAP3 SWAP2 SWAP1 DUP2 DUP2 MSTORE PUSH1 0x20 ADD DUP4 DUP4 DUP1 DUP3 DUP5 CALLDATACOPY PUSH0 DUP2 DUP5 ADD MSTORE PUSH1 0x1F NOT PUSH1 0x1F DUP3 ADD AND SWAP1 POP DUP1 DUP4 ADD SWAP3 POP POP POP POP POP POP POP DUP2 MSTORE PUSH1 0x20 ADD DUP7 DUP2 MSTORE PUSH1 0x20 ADD DUP6 DUP6 DUP1 DUP1 PUSH1 0x1F ADD PUSH1 0x20 DUP1 SWAP2 DIV MUL PUSH1 0x20 ADD PUSH1 0x40 MLOAD SWAP1 DUP2 ADD PUSH1 0x40 MSTORE DUP1 SWAP4 SWAP3 SWAP2 SWAP1 DUP2 DUP2 MSTORE PUSH1 0x20 ADD DUP4 DUP4 DUP1 DUP3 DUP5 CALLDATACOPY PUSH0 DUP2 DUP5 ADD MSTORE PUSH1 0x1F NOT PUSH1 0x1F DUP3 ADD AND SWAP1 POP DUP1 DUP4 ADD SWAP3 POP POP POP POP POP POP POP DUP2 MSTORE PUSH1 0x20 ADD DUP3 DUP2 MSTORE PUSH1 0x20 ADD PUSH0 PUSH1 0x5 DUP2 GT ISZERO PUSH2 0x32E JUMPI PUSH2 0x32D PUSH2 0x1069 JUMP JUMPDEST JUMPDEST DUP2 MSTORE PUSH1 0x20 ADD PUSH1 0x40 MLOAD DUP1 PUSH1 0x20 ADD PUSH1 0x40 MSTORE DUP1 PUSH0 DUP2 MSTORE POP DUP2 MSTORE PUSH1 0x20 ADD PUSH0 PUSH20 0xFFFFFFFFFFFFFFFFFFFFFFFFFFFFFFFFFFFFFFFF AND DUP2 MSTORE PUSH1 0x20 ADD DUP4 PUSH20 0xFFFFFFFFFFFFFFFFFFFFFFFFFFFFFFFFFFFFFFFF AND DUP2 MSTORE PUSH1 0x20 ADD DUP4 PUSH20 0xFFFFFFFFFFFFFFFFFFFFFFFFFFFFFFFFFFFFFFFF AND DUP2 MSTORE PUSH1 0x20 ADD PUSH0 DUP2 MSTORE POP PUSH1 0xC PUSH0 PUSH1 0xD SLOAD DUP2 MSTORE PUSH1 0x20 ADD SWAP1 DUP2 MSTORE PUSH1 0x20 ADD PUSH0 KECCAK256 PUSH0 DUP3 ADD MLOAD DUP2 PUSH0 ADD SSTORE PUSH1 0x20 DUP3 ADD MLOAD DUP2 PUSH1 0x1 ADD SSTORE PUSH1 0x40 DUP3 ADD MLOAD DUP2 PUSH1 0x2 ADD SWAP1 DUP2 PUSH2 0x3D9 SWAP2 SWAP1 PUSH2 0x1829 JUMP JUMPDEST POP PUSH1 0x60 DUP3 ADD MLOAD DUP2 PUSH1 0x3 ADD SSTORE PUSH1 0x80 DUP3 ADD MLOAD DUP2 PUSH1 0x4 ADD SWAP1 DUP2 PUSH2 0x3F9 SWAP2 SWAP1 PUSH2 0x1829 JUMP JUMPDEST POP PUSH1 0xA0 DUP3 ADD MLOAD DUP2 PUSH1 0x5 ADD SSTORE PUSH1 0xC0 DUP3 ADD MLOAD DUP2 PUSH1 0x6 ADD PUSH0 PUSH2 0x100 EXP DUP2 SLOAD DUP2 PUSH1 0xFF MUL NOT AND SWAP1 DUP4 PUSH1 0x5 DUP2 GT ISZERO PUSH2 0x42E JUMPI PUSH2 0x42D PUSH2 0x1069 JUMP JUMPDEST JUMPDEST MUL OR SWAP1 SSTORE POP PUSH1 0xE0 DUP3 ADD MLOAD DUP2 PUSH1 0x7 ADD SWAP1 DUP2 PUSH2 0x448 SWAP2 SWAP1 PUSH2 0x1829 JUMP JUMPDEST POP PUSH2 0x100 DUP3 ADD MLOAD DUP2 PUSH1 0x8 ADD PUSH0 PUSH2 0x100 EXP DUP2 SLOAD DUP2 PUSH20 0xFFFFFFFFFFFFFFFFFFFFFFFFFFFFFFFFFFFFFFFF MUL NOT AND SWAP1 DUP4 PUSH20 0xFFFFFFFFFFFFFFFFFFFFFFFFFFFFFFFFFFFFFFFF AND MUL OR SWAP1 SSTORE POP PUSH2 0x120 DUP3 ADD MLOAD DUP2 PUSH1 0x9 ADD PUSH0 PUSH2 0x100 EXP DUP2 SLOAD DUP2 PUSH20 0xFFFFFFFFFFFFFFFFFFFFFFFFFFFFFFFFFFFFFFFF MUL NOT AND SWAP1 DUP4 PUSH20 0xFFFFFFFFFFFFFFFFFFFFFFFFFFFFFFFFFFFFFFFF AND MUL OR SWAP1 SSTORE POP PUSH2 0x140 DUP3 ADD MLOAD DUP2 PUSH1 0xA ADD PUSH0 PUSH2 0x100 EXP DUP2 SLOAD DUP2 PUSH20 0xFFFFFFFFFFFFFFFFFFFFFFFFFFFFFFFFFFFFFFFF MUL NOT AND SWAP1 DUP4 PUSH20 0xFFFFFFFFFFFFFFFFFFFFFFFFFFFFFFFFFFFFFFFF AND MUL OR SWAP1 SSTORE POP PUSH2 0x160 DUP3 ADD MLOAD DUP2 PUSH1 0xB ADD SSTORE SWAP1 POP POP PUSH1 0xD SLOAD PUSH32 0x1ABC9E9BFDD1F5DFE8EE8D23F3795617729AB362C66586546476D365DFE55BC7 DUP10 DUP10 DUP10 DUP10 DUP10 DUP10 DUP9 PUSH0 DUP12 DUP13 PUSH1 0x40 MLOAD PUSH2 0x570 SWAP11 SWAP10 SWAP9 SWAP8 SWAP7 SWAP6 SWAP5 SWAP4 SWAP3 SWAP2 SWAP1 PUSH2 0x191B JUMP JUMPDEST PUSH1 0x40 MLOAD DUP1 SWAP2 SUB SWAP1 LOG2 PUSH1 0xD PUSH0 DUP2 SLOAD DUP1 SWAP3 SWAP2 SWAP1 PUSH2 0x58A SWAP1 PUSH2 0x19BD JUMP JUMPDEST SWAP2 SWAP1 POP SSTORE POP POP POP POP POP POP POP POP POP JUMP JUMPDEST PUSH0 DUP1 PUSH0 ADD SLOAD SWAP1 DUP1 PUSH1 0x1 ADD SLOAD SWAP1 DUP1 PUSH1 0x2 ADD DUP1 SLOAD PUSH2 0x5B4 SWAP1 PUSH2 0x14B7 JUMP JUMPDEST DUP1 PUSH1 0x1F ADD PUSH1 0x20 DUP1 SWAP2 DIV MUL PUSH1 0x20 ADD PUSH1 0x40 MLOAD SWAP1 DUP2 ADD PUSH1 0x40 MSTORE DUP1 SWAP3 SWAP2 SWAP1 DUP2 DUP2 MSTORE PUSH1 0x20 ADD DUP3 DUP1 SLOAD PUSH2 0x5E0 SWAP1 PUSH2 0x14B7 JUMP JUMPDEST DUP1 ISZERO PUSH2 0x62B JUMPI DUP1 PUSH1 0x1F LT PUSH2 0x602 JUMPI PUSH2 0x100 DUP1 DUP4 SLOAD DIV MUL DUP4 MSTORE SWAP2 PUSH1 0x20 ADD SWAP2 PUSH2 0x62B JUMP JUMPDEST DUP3 ADD SWAP2 SWAP1 PUSH0 MSTORE PUSH1 0x20 PUSH0 KECCAK256 SWAP1 JUMPDEST DUP2 SLOAD DUP2 MSTORE SWAP1 PUSH1 0x1 ADD SWAP1 PUSH1 0x20 ADD DUP1 DUP4 GT PUSH2 0x60E JUMPI DUP3 SWAP1 SUB PUSH1 0x1F AND DUP3 ADD SWAP2 JUMPDEST POP POP POP POP POP SWAP1 DUP1 PUSH1 0x3 ADD SLOAD SWAP1 DUP1 PUSH1 0x4 ADD DUP1 SLOAD PUSH2 0x646 SWAP1 PUSH2 0x14B7 JUMP JUMPDEST DUP1 PUSH1 0x1F ADD PUSH1 0x20 DUP1 SWAP2 DIV MUL PUSH1 0x20 ADD PUSH1 0x40 MLOAD SWAP1 DUP2 ADD PUSH1 0x40 MSTORE DUP1 SWAP3 SWAP2 SWAP1 DUP2 DUP2 MSTORE PUSH1 0x20 ADD DUP3 DUP1 SLOAD PUSH2 0x672 SWAP1 PUSH2 0x14B7 JUMP JUMPDEST DUP1 ISZERO PUSH2 0x6BD JUMPI DUP1 PUSH1 0x1F LT PUSH2 0x694 JUMPI PUSH2 0x100 DUP1 DUP4 SLOAD DIV MUL DUP4 MSTORE SWAP2 PUSH1 0x20 ADD SWAP2 PUSH2 0x6BD JUMP JUMPDEST DUP3 ADD SWAP2 SWAP1 PUSH0 MSTORE PUSH1 0x20 PUSH0 KECCAK256 SWAP1 JUMPDEST DUP2 SLOAD DUP2 MSTORE SWAP1 PUSH1 0x1 ADD SWAP1 PUSH1 0x20 ADD DUP1 DUP4 GT PUSH2 0x6A0 JUMPI DUP3 SWAP1 SUB PUSH1 0x1F AND DUP3 ADD SWAP2 JUMPDEST POP POP POP POP POP SWAP1 DUP1 PUSH1 0x5 ADD SLOAD SWAP1 DUP1 PUSH1 0x6 ADD PUSH0 SWAP1 SLOAD SWAP1 PUSH2 0x100 EXP SWAP1 DIV PUSH1 0xFF AND SWAP1 DUP1 PUSH1 0x7 ADD DUP1 SLOAD PUSH2 0x6EA SWAP1 PUSH2 0x14B7 JUMP JUMPDEST DUP1 PUSH1 0x1F ADD PUSH1 0x20 DUP1 SWAP2 DIV MUL PUSH1 0x20 ADD PUSH1 0x40 MLOAD SWAP1 DUP2 ADD PUSH1 0x40 MSTORE DUP1 SWAP3 SWAP2 SWAP1 DUP2 DUP2 MSTORE PUSH1 0x20 ADD DUP3 DUP1 SLOAD PUSH2 0x716 SWAP1 PUSH2 0x14B7 JUMP JUMPDEST DUP1 ISZERO PUSH2 0x761 JUMPI DUP1 PUSH1 0x1F LT PUSH2 0x738 JUMPI PUSH2 0x100 DUP1 DUP4 SLOAD DIV MUL DUP4 MSTORE SWAP2 PUSH1 0x20 ADD SWAP2 PUSH2 0x761 JUMP JUMPDEST DUP3 ADD SWAP2 SWAP1 PUSH0 MSTORE PUSH1 0x20 PUSH0 KECCAK256 SWAP1 JUMPDEST DUP2 SLOAD DUP2 MSTORE SWAP1 PUSH1 0x1 ADD SWAP1 PUSH1 0x20 ADD DUP1 DUP4 GT PUSH2 0x744 JUMPI DUP3 SWAP1 SUB PUSH1 0x1F AND DUP3 ADD SWAP2 JUMPDEST POP POP POP POP POP SWAP1 DUP1 PUSH1 0x8 ADD PUSH0 SWAP1 SLOAD SWAP1 PUSH2 0x100 EXP SWAP1 DIV PUSH20 0xFFFFFFFFFFFFFFFFFFFFFFFFFFFFFFFFFFFFFFFF AND SWAP1 DUP1 PUSH1 0x9 ADD PUSH0 SWAP1 SLOAD SWAP1 PUSH2 0x100 EXP SWAP1 DIV PUSH20 0xFFFFFFFFFFFFFFFFFFFFFFFFFFFFFFFFFFFFFFFF AND SWAP1 DUP1 PUSH1 0xA ADD PUSH0 SWAP1 SLOAD SWAP1 PUSH2 0x100 EXP SWAP1 DIV PUSH20 0xFFFFFFFFFFFFFFFFFFFFFFFFFFFFFFFFFFFFFFFF AND SWAP1 DUP1 PUSH1 0xB ADD SLOAD SWAP1 POP DUP13 JUMP JUMPDEST DUP2 PUSH0 PUSH1 0xC PUSH0 DUP4 DUP2 MSTORE PUSH1 0x20 ADD SWAP1 DUP2 MSTORE PUSH1 0x20 ADD PUSH0 KECCAK256 PUSH0 ADD SLOAD SUB PUSH2 0x836 JUMPI PUSH1 0x40 MLOAD PUSH32 0x8C379A000000000000000000000000000000000000000000000000000000000 DUP2 MSTORE PUSH1 0x4 ADD PUSH2 0x82D SWAP1 PUSH2 0x1435 JUMP JUMPDEST PUSH1 0x40 MLOAD DUP1 SWAP2 SUB SWAP1 REVERT JUMPDEST PUSH0 PUSH20 0xFFFFFFFFFFFFFFFFFFFFFFFFFFFFFFFFFFFFFFFF AND DUP3 PUSH20 0xFFFFFFFFFFFFFFFFFFFFFFFFFFFFFFFFFFFFFFFF AND SUB PUSH2 0x8A4 JUMPI PUSH1 0x40 MLOAD PUSH32 0x8C379A000000000000000000000000000000000000000000000000000000000 DUP2 MSTORE PUSH1 0x4 ADD PUSH2 0x89B SWAP1 PUSH2 0x1A74 JUMP JUMPDEST PUSH1 0x40 MLOAD DUP1 SWAP2 SUB SWAP1 REVERT JUMPDEST DUP2 PUSH1 0xC PUSH0 DUP6 DUP2 MSTORE PUSH1 0x20 ADD SWAP1 DUP2 MSTORE PUSH1 0x20 ADD PUSH0 KECCAK256 PUSH1 0x9 ADD PUSH0 PUSH2 0x100 EXP DUP2 SLOAD DUP2 PUSH20 0xFFFFFFFFFFFFFFFFFFFFFFFFFFFFFFFFFFFFFFFF MUL NOT AND SWAP1 DUP4 PUSH20 0xFFFFFFFFFFFFFFFFFFFFFFFFFFFFFFFFFFFFFFFF AND MUL OR SWAP1 SSTORE POP DUP3 PUSH32 0xB21EA7D7F8A2D11E8BE5EC996FD26C23EB88986DC696F00F36ADB1B8D5DA5650 DUP4 PUSH1 0x40 MLOAD PUSH2 0x926 SWAP2 SWAP1 PUSH2 0x1A92 JUMP JUMPDEST PUSH1 0x40 MLOAD DUP1 SWAP2 SUB SWAP1 LOG2 POP POP POP JUMP JUMPDEST PUSH2 0x93B PUSH2 0xCD0 JUMP JUMPDEST DUP2 PUSH0 PUSH1 0xC PUSH0 DUP4 DUP2 MSTORE PUSH1 0x20 ADD SWAP1 DUP2 MSTORE PUSH1 0x20 ADD PUSH0 KECCAK256 PUSH0 ADD SLOAD SUB PUSH2 0x991 JUMPI PUSH1 0x40 MLOAD PUSH32 0x8C379A000000000000000000000000000000000000000000000000000000000 DUP2 MSTORE PUSH1 0x4 ADD PUSH2 0x988 SWAP1 PUSH2 0x1435 JUMP JUMPDEST PUSH1 0x40 MLOAD DUP1 SWAP2 SUB SWAP1 REVERT JUMPDEST PUSH1 0xC PUSH0 DUP5 DUP2 MSTORE PUSH1 0x20 ADD SWAP1 DUP2 MSTORE PUSH1 0x20 ADD PUSH0 KECCAK256 PUSH1 0x40 MLOAD DUP1 PUSH2 0x180 ADD PUSH1 0x40 MSTORE SWAP1 DUP2 PUSH0 DUP3 ADD SLOAD DUP2 MSTORE PUSH1 0x20 ADD PUSH1 0x1 DUP3 ADD SLOAD DUP2 MSTORE PUSH1 0x20 ADD PUSH1 0x2 DUP3 ADD DUP1 SLOAD PUSH2 0x9D1 SWAP1 PUSH2 0x14B7 JUMP JUMPDEST DUP1 PUSH1 0x1F ADD PUSH1 0x20 DUP1 SWAP2 DIV MUL PUSH1 0x20 ADD PUSH1 0x40 MLOAD SWAP1 DUP2 ADD PUSH1 0x40 MSTORE DUP1 SWAP3 SWAP2 SWAP1 DUP2 DUP2 MSTORE PUSH1 0x20 ADD DUP3 DUP1 SLOAD PUSH2 0x9FD SWAP1 PUSH2 0x14B7 JUMP JUMPDEST DUP1 ISZERO PUSH2 0xA48 JUMPI DUP1 PUSH1 0x1F LT PUSH2 0xA1F JUMPI PUSH2 0x100 DUP1 DUP4 SLOAD DIV MUL DUP4 MSTORE SWAP2 PUSH1 0x20 ADD SWAP2 PUSH2 0xA48 JUMP JUMPDEST DUP3 ADD SWAP2 SWAP1 PUSH0 MSTORE PUSH1 0x20 PUSH0 KECCAK256 SWAP1 JUMPDEST DUP2 SLOAD DUP2 MSTORE SWAP1 PUSH1 0x1 ADD SWAP1 PUSH1 0x20 ADD DUP1 DUP4 GT PUSH2 0xA2B JUMPI DUP3 SWAP1 SUB PUSH1 0x1F AND DUP3 ADD SWAP2 JUMPDEST POP POP POP POP POP DUP2 MSTORE PUSH1 0x20 ADD PUSH1 0x3 DUP3 ADD SLOAD DUP2 MSTORE PUSH1 0x20 ADD PUSH1 0x4 DUP3 ADD DUP1 SLOAD PUSH2 0xA6B SWAP1 PUSH2 0x14B7 JUMP JUMPDEST DUP1 PUSH1 0x1F ADD PUSH1 0x20 DUP1 SWAP2 DIV MUL PUSH1 0x20 ADD PUSH1 0x40 MLOAD SWAP1 DUP2 ADD PUSH1 0x40 MSTORE DUP1 SWAP3 SWAP2 SWAP1 DUP2 DUP2 MSTORE PUSH1 0x20 ADD DUP3 DUP1 SLOAD PUSH2 0xA97 SWAP1 PUSH2 0x14B7 JUMP JUMPDEST DUP1 ISZERO PUSH2 0xAE2 JUMPI DUP1 PUSH1 0x1F LT PUSH2 0xAB9 JUMPI PUSH2 0x100 DUP1 DUP4 SLOAD DIV MUL DUP4 MSTORE SWAP2 PUSH1 0x20 ADD SWAP2 PUSH2 0xAE2 JUMP JUMPDEST DUP3 ADD SWAP2 SWAP1 PUSH0 MSTORE PUSH1 0x20 PUSH0 KECCAK256 SWAP1 JUMPDEST DUP2 SLOAD DUP2 MSTORE SWAP1 PUSH1 0x1 ADD SWAP1 PUSH1 0x20 ADD DUP1 DUP4 GT PUSH2 0xAC5 JUMPI DUP3 SWAP1 SUB PUSH1 0x1F AND DUP3 ADD SWAP2 JUMPDEST POP POP POP POP POP DUP2 MSTORE PUSH1 0x20 ADD PUSH1 0x5 DUP3 ADD SLOAD DUP2 MSTORE PUSH1 0x20 ADD PUSH1 0x6 DUP3 ADD PUSH0 SWAP1 SLOAD SWAP1 PUSH2 0x100 EXP SWAP1 DIV PUSH1 0xFF AND PUSH1 0x5 DUP2 GT ISZERO PUSH2 0xB19 JUMPI PUSH2 0xB18 PUSH2 0x1069 JUMP JUMPDEST JUMPDEST PUSH1 0x5 DUP2 GT ISZERO PUSH2 0xB2B JUMPI PUSH2 0xB2A PUSH2 0x1069 JUMP JUMPDEST JUMPDEST DUP2 MSTORE PUSH1 0x20 ADD PUSH1 0x7 DUP3 ADD DUP1 SLOAD PUSH2 0xB3F SWAP1 PUSH2 0x14B7 JUMP JUMPDEST DUP1 PUSH1 0x1F ADD PUSH1 0x20 DUP1 SWAP2 DIV MUL PUSH1 0x20 ADD PUSH1 0x40 MLOAD SWAP1 DUP2 ADD PUSH1 0x40 MSTORE DUP1 SWAP3 SWAP2 SWAP1 DUP2 DUP2 MSTORE PUSH1 0x20 ADD DUP3 DUP1 SLOAD PUSH2 0xB6B SWAP1 PUSH2 0x14B7 JUMP JUMPDEST DUP1 ISZERO PUSH2 0xBB6 JUMPI DUP1 PUSH1 0x1F LT PUSH2 0xB8D JUMPI PUSH2 0x100 DUP1 DUP4 SLOAD DIV MUL DUP4 MSTORE SWAP2 PUSH1 0x20 ADD SWAP2 PUSH2 0xBB6 JUMP JUMPDEST DUP3 ADD SWAP2 SWAP1 PUSH0 MSTORE PUSH1 0x20 PUSH0 KECCAK256 SWAP1 JUMPDEST DUP2 SLOAD DUP2 MSTORE SWAP1 PUSH1 0x1 ADD SWAP1 PUSH1 0x20 ADD DUP1 DUP4 GT PUSH2 0xB99 JUMPI DUP3 SWAP1 SUB PUSH1 0x1F AND DUP3 ADD SWAP2 JUMPDEST POP POP POP POP POP DUP2 MSTORE PUSH1 0x20 ADD PUSH1 0x8 DUP3 ADD PUSH0 SWAP1 SLOAD SWAP1 PUSH2 0x100 EXP SWAP1 DIV PUSH20 0xFFFFFFFFFFFFFFFFFFFFFFFFFFFFFFFFFFFFFFFF AND PUSH20 0xFFFFFFFFFFFFFFFFFFFFFFFFFFFFFFFFFFFFFFFF AND PUSH20 0xFFFFFFFFFFFFFFFFFFFFFFFFFFFFFFFFFFFFFFFF AND DUP2 MSTORE PUSH1 0x20 ADD PUSH1 0x9 DUP3 ADD PUSH0 SWAP1 SLOAD SWAP1 PUSH2 0x100 EXP SWAP1 DIV PUSH20 0xFFFFFFFFFFFFFFFFFFFFFFFFFFFFFFFFFFFFFFFF AND PUSH20 0xFFFFFFFFFFFFFFFFFFFFFFFFFFFFFFFFFFFFFFFF AND PUSH20 0xFFFFFFFFFFFFFFFFFFFFFFFFFFFFFFFFFFFFFFFF AND DUP2 MSTORE PUSH1 0x20 ADD PUSH1 0xA DUP3 ADD PUSH0 SWAP1 SLOAD SWAP1 PUSH2 0x100 EXP SWAP1 DIV PUSH20 0xFFFFFFFFFFFFFFFFFFFFFFFFFFFFFFFFFFFFFFFF AND PUSH20 0xFFFFFFFFFFFFFFFFFFFFFFFFFFFFFFFFFFFFFFFF AND PUSH20 0xFFFFFFFFFFFFFFFFFFFFFFFFFFFFFFFFFFFFFFFF AND DUP2 MSTORE PUSH1 0x20 ADD PUSH1 0xB DUP3 ADD SLOAD DUP2 MSTORE POP POP SWAP2 POP POP SWAP2 SWAP1 POP JUMP JUMPDEST PUSH1 0x40 MLOAD DUP1 PUSH2 0x180 ADD PUSH1 0x40 MSTORE DUP1 PUSH0 DUP2 MSTORE PUSH1 0x20 ADD PUSH0 DUP2 MSTORE PUSH1 0x20 ADD PUSH1 0x60 DUP2 MSTORE PUSH1 0x20 ADD PUSH0 DUP2 MSTORE PUSH1 0x20 ADD PUSH1 0x60 DUP2 MSTORE PUSH1 0x20 ADD PUSH0 DUP2 MSTORE PUSH1 0x20 ADD PUSH0 PUSH1 0x5 DUP2 GT ISZERO PUSH2 0xD15 JUMPI PUSH2 0xD14 PUSH2 0x1069 JUMP JUMPDEST JUMPDEST DUP2 MSTORE PUSH1 0x20 ADD PUSH1 0x60 DUP2 MSTORE PUSH1 0x20 ADD PUSH0 PUSH20 0xFFFFFFFFFFFFFFFFFFFFFFFFFFFFFFFFFFFFFFFF AND DUP2 MSTORE PUSH1 0x20 ADD PUSH0 PUSH20 0xFFFFFFFFFFFFFFFFFFFFFFFFFFFFFFFFFFFFFFFF AND DUP2 MSTORE PUSH1 0x20 ADD PUSH0 PUSH20 0xFFFFFFFFFFFFFFFFFFFFFFFFFFFFFFFFFFFFFFFF AND DUP2 MSTORE PUSH1 0x20 ADD PUSH0 DUP2 MSTORE POP SWAP1 JUMP JUMPDEST PUSH0 DUP1 REVERT JUMPDEST PUSH0 DUP1 REVERT JUMPDEST PUSH0 DUP2 SWAP1 POP SWAP2 SWAP1 POP JUMP JUMPDEST PUSH2 0xD96 DUP2 PUSH2 0xD84 JUMP JUMPDEST DUP2 EQ PUSH2 0xDA0 JUMPI PUSH0 DUP1 REVERT JUMPDEST POP JUMP JUMPDEST PUSH0 DUP2 CALLDATALOAD SWAP1 POP PUSH2 0xDB1 DUP2 PUSH2 0xD8D JUMP JUMPDEST SWAP3 SWAP2 POP POP JUMP JUMPDEST PUSH1 0x6 DUP2 LT PUSH2 0xDC3 JUMPI PUSH0 DUP1 REVERT JUMPDEST POP JUMP JUMPDEST PUSH0 DUP2 CALLDATALOAD SWAP1 POP PUSH2 0xDD4 DUP2 PUSH2 0xDB7 JUMP JUMPDEST SWAP3 SWAP2 POP POP JUMP JUMPDEST PUSH0 DUP1 REVERT JUMPDEST PUSH0 DUP1 REVERT JUMPDEST PUSH0 DUP1 REVERT JUMPDEST PUSH0 DUP1 DUP4 PUSH1 0x1F DUP5 ADD SLT PUSH2 0xDFB JUMPI PUSH2 0xDFA PUSH2 0xDDA JUMP JUMPDEST JUMPDEST DUP3 CALLDATALOAD SWAP1 POP PUSH8 0xFFFFFFFFFFFFFFFF DUP2 GT ISZERO PUSH2 0xE18 JUMPI PUSH2 0xE17 PUSH2 0xDDE JUMP JUMPDEST JUMPDEST PUSH1 0x20 DUP4 ADD SWAP2 POP DUP4 PUSH1 0x1 DUP3 MUL DUP4 ADD GT ISZERO PUSH2 0xE34 JUMPI PUSH2 0xE33 PUSH2 0xDE2 JUMP JUMPDEST JUMPDEST SWAP3 POP SWAP3 SWAP1 POP JUMP JUMPDEST PUSH0 PUSH20 0xFFFFFFFFFFFFFFFFFFFFFFFFFFFFFFFFFFFFFFFF DUP3 AND SWAP1 POP SWAP2 SWAP1 POP JUMP JUMPDEST PUSH0 PUSH2 0xE64 DUP3 PUSH2 0xE3B JUMP JUMPDEST SWAP1 POP SWAP2 SWAP1 POP JUMP JUMPDEST PUSH2 0xE74 DUP2 PUSH2 0xE5A JUMP JUMPDEST DUP2 EQ PUSH2 0xE7E JUMPI PUSH0 DUP1 REVERT JUMPDEST POP JUMP JUMPDEST PUSH0 DUP2 CALLDATALOAD SWAP1 POP PUSH2 0xE8F DUP2 PUSH2 0xE6B JUMP JUMPDEST SWAP3 SWAP2 POP POP JUMP JUMPDEST PUSH0 DUP1 PUSH0 DUP1 PUSH0 PUSH1 0x80 DUP7 DUP9 SUB SLT ISZERO PUSH2 0xEAE JUMPI PUSH2 0xEAD PUSH2 0xD7C JUMP JUMPDEST JUMPDEST PUSH0 PUSH2 0xEBB DUP9 DUP3 DUP10 ADD PUSH2 0xDA3 JUMP JUMPDEST SWAP6 POP POP PUSH1 0x20 PUSH2 0xECC DUP9 DUP3 DUP10 ADD PUSH2 0xDC6 JUMP JUMPDEST SWAP5 POP POP PUSH1 0x40 DUP7 ADD CALLDATALOAD PUSH8 0xFFFFFFFFFFFFFFFF DUP2 GT ISZERO PUSH2 0xEED JUMPI PUSH2 0xEEC PUSH2 0xD80 JUMP JUMPDEST JUMPDEST PUSH2 0xEF9 DUP9 DUP3 DUP10 ADD PUSH2 0xDE6 JUMP JUMPDEST SWAP4 POP SWAP4 POP POP PUSH1 0x60 PUSH2 0xF0C DUP9 DUP3 DUP10 ADD PUSH2 0xE81 JUMP JUMPDEST SWAP2 POP POP SWAP3 SWAP6 POP SWAP3 SWAP6 SWAP1 SWAP4 POP JUMP JUMPDEST PUSH0 DUP1 PUSH0 DUP1 PUSH0 DUP1 PUSH0 PUSH1 0xA0 DUP9 DUP11 SUB SLT ISZERO PUSH2 0xF34 JUMPI PUSH2 0xF33 PUSH2 0xD7C JUMP JUMPDEST JUMPDEST PUSH0 PUSH2 0xF41 DUP11 DUP3 DUP12 ADD PUSH2 0xDA3 JUMP JUMPDEST SWAP8 POP POP PUSH1 0x20 DUP9 ADD CALLDATALOAD PUSH8 0xFFFFFFFFFFFFFFFF DUP2 GT ISZERO PUSH2 0xF62 JUMPI PUSH2 0xF61 PUSH2 0xD80 JUMP JUMPDEST JUMPDEST PUSH2 0xF6E DUP11 DUP3 DUP12 ADD PUSH2 0xDE6 JUMP JUMPDEST SWAP7 POP SWAP7 POP POP PUSH1 0x40 PUSH2 0xF81 DUP11 DUP3 DUP12 ADD PUSH2 0xDA3 JUMP JUMPDEST SWAP5 POP POP PUSH1 0x60 DUP9 ADD CALLDATALOAD PUSH8 0xFFFFFFFFFFFFFFFF DUP2 GT ISZERO PUSH2 0xFA2 JUMPI PUSH2 0xFA1 PUSH2 0xD80 JUMP JUMPDEST JUMPDEST PUSH2 0xFAE DUP11 DUP3 DUP12 ADD PUSH2 0xDE6 JUMP JUMPDEST SWAP4 POP SWAP4 POP POP PUSH1 0x80 PUSH2 0xFC1 DUP11 DUP3 DUP12 ADD PUSH2 0xE81 JUMP JUMPDEST SWAP2 POP POP SWAP3 SWAP6 SWAP9 SWAP2 SWAP5 SWAP8 POP SWAP3 SWAP6 POP JUMP JUMPDEST PUSH2 0xFD9 DUP2 PUSH2 0xD84 JUMP JUMPDEST DUP3 MSTORE POP POP JUMP JUMPDEST PUSH0 DUP2 MLOAD SWAP1 POP SWAP2 SWAP1 POP JUMP JUMPDEST PUSH0 DUP3 DUP3 MSTORE PUSH1 0x20 DUP3 ADD SWAP1 POP SWAP3 SWAP2 POP POP JUMP JUMPDEST PUSH0 JUMPDEST DUP4 DUP2 LT ISZERO PUSH2 0x1016 JUMPI DUP1 DUP3 ADD MLOAD DUP2 DUP5 ADD MSTORE PUSH1 0x20 DUP2 ADD SWAP1 POP PUSH2 0xFFB JUMP JUMPDEST PUSH0 DUP5 DUP5 ADD MSTORE POP POP POP POP JUMP JUMPDEST PUSH0 PUSH1 0x1F NOT PUSH1 0x1F DUP4 ADD AND SWAP1 POP SWAP2 SWAP1 POP JUMP JUMPDEST PUSH0 PUSH2 0x103B DUP3 PUSH2 0xFDF JUMP JUMPDEST PUSH2 0x1045 DUP2 DUP6 PUSH2 0xFE9 JUMP JUMPDEST SWAP4 POP PUSH2 0x1055 DUP2 DUP6 PUSH1 0x20 DUP7 ADD PUSH2 0xFF9 JUMP JUMPDEST PUSH2 0x105E DUP2 PUSH2 0x1021 JUMP JUMPDEST DUP5 ADD SWAP2 POP POP SWAP3 SWAP2 POP POP JUMP JUMPDEST PUSH32 0x4E487B7100000000000000000000000000000000000000000000000000000000 PUSH0 MSTORE PUSH1 0x21 PUSH1 0x4 MSTORE PUSH1 0x24 PUSH0 REVERT JUMPDEST PUSH1 0x6 DUP2 LT PUSH2 0x10A7 JUMPI PUSH2 0x10A6 PUSH2 0x1069 JUMP JUMPDEST JUMPDEST POP JUMP JUMPDEST PUSH0 DUP2 SWAP1 POP PUSH2 0x10B7 DUP3 PUSH2 0x1096 JUMP JUMPDEST SWAP2 SWAP1 POP JUMP JUMPDEST PUSH0 PUSH2 0x10C6 DUP3 PUSH2 0x10AA JUMP JUMPDEST SWAP1 POP SWAP2 SWAP1 POP JUMP JUMPDEST PUSH2 0x10D6 DUP2 PUSH2 0x10BC JUMP JUMPDEST DUP3 MSTORE POP POP JUMP JUMPDEST PUSH2 0x10E5 DUP2 PUSH2 0xE5A JUMP JUMPDEST DUP3 MSTORE POP POP JUMP JUMPDEST PUSH0 PUSH2 0x180 DUP3 ADD SWAP1 POP PUSH2 0x10FF PUSH0 DUP4 ADD DUP16 PUSH2 0xFD0 JUMP JUMPDEST PUSH2 0x110C PUSH1 0x20 DUP4 ADD DUP15 PUSH2 0xFD0 JUMP JUMPDEST DUP2 DUP2 SUB PUSH1 0x40 DUP4 ADD MSTORE PUSH2 0x111E DUP2 DUP14 PUSH2 0x1031 JUMP JUMPDEST SWAP1 POP PUSH2 0x112D PUSH1 0x60 DUP4 ADD DUP13 PUSH2 0xFD0 JUMP JUMPDEST DUP2 DUP2 SUB PUSH1 0x80 DUP4 ADD MSTORE PUSH2 0x113F DUP2 DUP12 PUSH2 0x1031 JUMP JUMPDEST SWAP1 POP PUSH2 0x114E PUSH1 0xA0 DUP4 ADD DUP11 PUSH2 0xFD0 JUMP JUMPDEST PUSH2 0x115B PUSH1 0xC0 DUP4 ADD DUP10 PUSH2 0x10CD JUMP JUMPDEST DUP2 DUP2 SUB PUSH1 0xE0 DUP4 ADD MSTORE PUSH2 0x116D DUP2 DUP9 PUSH2 0x1031 JUMP JUMPDEST SWAP1 POP PUSH2 0x117D PUSH2 0x100 DUP4 ADD DUP8 PUSH2 0x10DC JUMP JUMPDEST PUSH2 0x118B PUSH2 0x120 DUP4 ADD DUP7 PUSH2 0x10DC JUMP JUMPDEST PUSH2 0x1199 PUSH2 0x140 DUP4 ADD DUP6 PUSH2 0x10DC JUMP JUMPDEST PUSH2 0x11A7 PUSH2 0x160 DUP4 ADD DUP5 PUSH2 0xFD0 JUMP JUMPDEST SWAP14 SWAP13 POP POP POP POP POP POP POP POP POP POP POP POP POP JUMP JUMPDEST PUSH0 DUP1 PUSH1 0x40 DUP4 DUP6 SUB SLT ISZERO PUSH2 0x11CE JUMPI PUSH2 0x11CD PUSH2 0xD7C JUMP JUMPDEST JUMPDEST PUSH0 PUSH2 0x11DB DUP6 DUP3 DUP7 ADD PUSH2 0xDA3 JUMP JUMPDEST SWAP3 POP POP PUSH1 0x20 PUSH2 0x11EC DUP6 DUP3 DUP7 ADD PUSH2 0xE81 JUMP JUMPDEST SWAP2 POP POP SWAP3 POP SWAP3 SWAP1 POP JUMP JUMPDEST PUSH0 PUSH1 0x20 DUP3 DUP5 SUB SLT ISZERO PUSH2 0x120B JUMPI PUSH2 0x120A PUSH2 0xD7C JUMP JUMPDEST JUMPDEST PUSH0 PUSH2 0x1218 DUP5 DUP3 DUP6 ADD PUSH2 0xDA3 JUMP JUMPDEST SWAP2 POP POP SWAP3 SWAP2 POP POP JUMP JUMPDEST PUSH2 0x122A DUP2 PUSH2 0xD84 JUMP JUMPDEST DUP3 MSTORE POP POP JUMP JUMPDEST PUSH0 DUP3 DUP3 MSTORE PUSH1 0x20 DUP3 ADD SWAP1 POP SWAP3 SWAP2 POP POP JUMP JUMPDEST PUSH0 PUSH2 0x124A DUP3 PUSH2 0xFDF JUMP JUMPDEST PUSH2 0x1254 DUP2 DUP6 PUSH2 0x1230 JUMP JUMPDEST SWAP4 POP PUSH2 0x1264 DUP2 DUP6 PUSH1 0x20 DUP7 ADD PUSH2 0xFF9 JUMP JUMPDEST PUSH2 0x126D DUP2 PUSH2 0x1021 JUMP JUMPDEST DUP5 ADD SWAP2 POP POP SWAP3 SWAP2 POP POP JUMP JUMPDEST PUSH2 0x1281 DUP2 PUSH2 0x10BC JUMP JUMPDEST DUP3 MSTORE POP POP JUMP JUMPDEST PUSH2 0x1290 DUP2 PUSH2 0xE5A JUMP JUMPDEST DUP3 MSTORE POP POP JUMP JUMPDEST PUSH0 PUSH2 0x180 DUP4 ADD PUSH0 DUP4 ADD MLOAD PUSH2 0x12AC PUSH0 DUP7 ADD DUP3 PUSH2 0x1221 JUMP JUMPDEST POP PUSH1 0x20 DUP4 ADD MLOAD PUSH2 0x12BF PUSH1 0x20 DUP7 ADD DUP3 PUSH2 0x1221 JUMP JUMPDEST POP PUSH1 0x40 DUP4 ADD MLOAD DUP5 DUP3 SUB PUSH1 0x40 DUP7 ADD MSTORE PUSH2 0x12D7 DUP3 DUP3 PUSH2 0x1240 JUMP JUMPDEST SWAP2 POP POP PUSH1 0x60 DUP4 ADD MLOAD PUSH2 0x12EC PUSH1 0x60 DUP7 ADD DUP3 PUSH2 0x1221 JUMP JUMPDEST POP PUSH1 0x80 DUP4 ADD MLOAD DUP5 DUP3 SUB PUSH1 0x80 DUP7 ADD MSTORE PUSH2 0x1304 DUP3 DUP3 PUSH2 0x1240 JUMP JUMPDEST SWAP2 POP POP PUSH1 0xA0 DUP4 ADD MLOAD PUSH2 0x1319 PUSH1 0xA0 DUP7 ADD DUP3 PUSH2 0x1221 JUMP JUMPDEST POP PUSH1 0xC0 DUP4 ADD MLOAD PUSH2 0x132C PUSH1 0xC0 DUP7 ADD DUP3 PUSH2 0x1278 JUMP JUMPDEST POP PUSH1 0xE0 DUP4 ADD MLOAD DUP5 DUP3 SUB PUSH1 0xE0 DUP7 ADD MSTORE PUSH2 0x1344 DUP3 DUP3 PUSH2 0x1240 JUMP JUMPDEST SWAP2 POP POP PUSH2 0x100 DUP4 ADD MLOAD PUSH2 0x135B PUSH2 0x100 DUP7 ADD DUP3 PUSH2 0x1287 JUMP JUMPDEST POP PUSH2 0x120 DUP4 ADD MLOAD PUSH2 0x1370 PUSH2 0x120 DUP7 ADD DUP3 PUSH2 0x1287 JUMP JUMPDEST POP PUSH2 0x140 DUP4 ADD MLOAD PUSH2 0x1385 PUSH2 0x140 DUP7 ADD DUP3 PUSH2 0x1287 JUMP JUMPDEST POP PUSH2 0x160 DUP4 ADD MLOAD PUSH2 0x139A PUSH2 0x160 DUP7 ADD DUP3 PUSH2 0x1221 JUMP JUMPDEST POP DUP1 SWAP2 POP POP SWAP3 SWAP2 POP POP JUMP JUMPDEST PUSH0 PUSH1 0x20 DUP3 ADD SWAP1 POP DUP2 DUP2 SUB PUSH0 DUP4 ADD MSTORE PUSH2 0x13BD DUP2 DUP5 PUSH2 0x1296 JUMP JUMPDEST SWAP1 POP SWAP3 SWAP2 POP POP JUMP JUMPDEST PUSH32 0x53686172656453746F726167653A2042757320646F6573206E6F742065786973 PUSH0 DUP3 ADD MSTORE PUSH32 0x742E000000000000000000000000000000000000000000000000000000000000 PUSH1 0x20 DUP3 ADD MSTORE POP JUMP JUMPDEST PUSH0 PUSH2 0x141F PUSH1 0x22 DUP4 PUSH2 0xFE9 JUMP JUMPDEST SWAP2 POP PUSH2 0x142A DUP3 PUSH2 0x13C5 JUMP JUMPDEST PUSH1 0x40 DUP3 ADD SWAP1 POP SWAP2 SWAP1 POP JUMP JUMPDEST PUSH0 PUSH1 0x20 DUP3 ADD SWAP1 POP DUP2 DUP2 SUB PUSH0 DUP4 ADD MSTORE PUSH2 0x144C DUP2 PUSH2 0x1413 JUMP JUMPDEST SWAP1 POP SWAP2 SWAP1 POP JUMP JUMPDEST PUSH0 DUP3 SWAP1 POP SWAP3 SWAP2 POP POP JUMP JUMPDEST PUSH32 0x4E487B7100000000000000000000000000000000000000000000000000000000 PUSH0 MSTORE PUSH1 0x41 PUSH1 0x4 MSTORE PUSH1 0x24 PUSH0 REVERT JUMPDEST PUSH32 0x4E487B7100000000000000000000000000000000000000000000000000000000 PUSH0 MSTORE PUSH1 0x22 PUSH1 0x4 MSTORE PUSH1 0x24 PUSH0 REVERT JUMPDEST PUSH0 PUSH1 0x2 DUP3 DIV SWAP1 POP PUSH1 0x1 DUP3 AND DUP1 PUSH2 0x14CE JUMPI PUSH1 0x7F DUP3 AND SWAP2 POP JUMPDEST PUSH1 0x20 DUP3 LT DUP2 SUB PUSH2 0x14E1 JUMPI PUSH2 0x14E0 PUSH2 0x148A JUMP JUMPDEST JUMPDEST POP SWAP2 SWAP1 POP JUMP JUMPDEST PUSH0 DUP2 SWAP1 POP DUP2 PUSH0 MSTORE PUSH1 0x20 PUSH0 KECCAK256 SWAP1 POP SWAP2 SWAP1 POP JUMP JUMPDEST PUSH0 PUSH1 0x20 PUSH1 0x1F DUP4 ADD DIV SWAP1 POP SWAP2 SWAP1 POP JUMP JUMPDEST PUSH0 DUP3 DUP3 SHL SWAP1 POP SWAP3 SWAP2 POP POP JUMP JUMPDEST PUSH0 PUSH1 0x8 DUP4 MUL PUSH2 0x1543 PUSH32 0xFFFFFFFFFFFFFFFFFFFFFFFFFFFFFFFFFFFFFFFFFFFFFFFFFFFFFFFFFFFFFFFF DUP3 PUSH2 0x1508 JUMP JUMPDEST PUSH2 0x154D DUP7 DUP4 PUSH2 0x1508 JUMP JUMPDEST SWAP6 POP DUP1 NOT DUP5 AND SWAP4 POP DUP1 DUP7 AND DUP5 OR SWAP3 POP POP POP SWAP4 SWAP3 POP POP POP JUMP JUMPDEST PUSH0 DUP2 SWAP1 POP SWAP2 SWAP1 POP JUMP JUMPDEST PUSH0 PUSH2 0x1588 PUSH2 0x1583 PUSH2 0x157E DUP5 PUSH2 0xD84 JUMP JUMPDEST PUSH2 0x1565 JUMP JUMPDEST PUSH2 0xD84 JUMP JUMPDEST SWAP1 POP SWAP2 SWAP1 POP JUMP JUMPDEST PUSH0 DUP2 SWAP1 POP SWAP2 SWAP1 POP JUMP JUMPDEST PUSH2 0x15A1 DUP4 PUSH2 0x156E JUMP JUMPDEST PUSH2 0x15B5 PUSH2 0x15AD DUP3 PUSH2 0x158F JUMP JUMPDEST DUP5 DUP5 SLOAD PUSH2 0x1514 JUMP JUMPDEST DUP3 SSTORE POP POP POP POP JUMP JUMPDEST PUSH0 SWAP1 JUMP JUMPDEST PUSH2 0x15C9 PUSH2 0x15BD JUMP JUMPDEST PUSH2 0x15D4 DUP2 DUP5 DUP5 PUSH2 0x1598 JUMP JUMPDEST POP POP POP JUMP JUMPDEST JUMPDEST DUP2 DUP2 LT ISZERO PUSH2 0x15F7 JUMPI PUSH2 0x15EC PUSH0 DUP3 PUSH2 0x15C1 JUMP JUMPDEST PUSH1 0x1 DUP2 ADD SWAP1 POP PUSH2 0x15DA JUMP JUMPDEST POP POP JUMP JUMPDEST PUSH1 0x1F DUP3 GT ISZERO PUSH2 0x163C JUMPI PUSH2 0x160D DUP2 PUSH2 0x14E7 JUMP JUMPDEST PUSH2 0x1616 DUP5 PUSH2 0x14F9 JUMP JUMPDEST DUP2 ADD PUSH1 0x20 DUP6 LT ISZERO PUSH2 0x1625 JUMPI DUP2 SWAP1 POP JUMPDEST PUSH2 0x1639 PUSH2 0x1631 DUP6 PUSH2 0x14F9 JUMP JUMPDEST DUP4 ADD DUP3 PUSH2 0x15D9 JUMP JUMPDEST POP POP JUMPDEST POP POP POP JUMP JUMPDEST PUSH0 DUP3 DUP3 SHR SWAP1 POP SWAP3 SWAP2 POP POP JUMP JUMPDEST PUSH0 PUSH2 0x165C PUSH0 NOT DUP5 PUSH1 0x8 MUL PUSH2 0x1641 JUMP JUMPDEST NOT DUP1 DUP4 AND SWAP2 POP POP SWAP3 SWAP2 POP POP JUMP JUMPDEST PUSH0 PUSH2 0x1674 DUP4 DUP4 PUSH2 0x164D JUMP JUMPDEST SWAP2 POP DUP3 PUSH1 0x2 MUL DUP3 OR SWAP1 POP SWAP3 SWAP2 POP POP JUMP JUMPDEST PUSH2 0x168E DUP4 DUP4 PUSH2 0x1453 JUMP JUMPDEST PUSH8 0xFFFFFFFFFFFFFFFF DUP2 GT ISZERO PUSH2 0x16A7 JUMPI PUSH2 0x16A6 PUSH2 0x145D JUMP JUMPDEST JUMPDEST PUSH2 0x16B1 DUP3 SLOAD PUSH2 0x14B7 JUMP JUMPDEST PUSH2 0x16BC DUP3 DUP3 DUP6 PUSH2 0x15FB JUMP JUMPDEST PUSH0 PUSH1 0x1F DUP4 GT PUSH1 0x1 DUP2 EQ PUSH2 0x16E9 JUMPI PUSH0 DUP5 ISZERO PUSH2 0x16D7 JUMPI DUP3 DUP8 ADD CALLDATALOAD SWAP1 POP JUMPDEST PUSH2 0x16E1 DUP6 DUP3 PUSH2 0x1669 JUMP JUMPDEST DUP7 SSTORE POP PUSH2 0x1748 JUMP JUMPDEST PUSH1 0x1F NOT DUP5 AND PUSH2 0x16F7 DUP7 PUSH2 0x14E7 JUMP JUMPDEST PUSH0 JUMPDEST DUP3 DUP2 LT ISZERO PUSH2 0x171E JUMPI DUP5 DUP10 ADD CALLDATALOAD DUP3 SSTORE PUSH1 0x1 DUP3 ADD SWAP2 POP PUSH1 0x20 DUP6 ADD SWAP5 POP PUSH1 0x20 DUP2 ADD SWAP1 POP PUSH2 0x16F9 JUMP JUMPDEST DUP7 DUP4 LT ISZERO PUSH2 0x173B JUMPI DUP5 DUP10 ADD CALLDATALOAD PUSH2 0x1737 PUSH1 0x1F DUP10 AND DUP3 PUSH2 0x164D JUMP JUMPDEST DUP4 SSTORE POP JUMPDEST PUSH1 0x1 PUSH1 0x2 DUP9 MUL ADD DUP9 SSTORE POP POP POP JUMPDEST POP POP POP POP POP POP POP JUMP JUMPDEST DUP3 DUP2 DUP4 CALLDATACOPY PUSH0 DUP4 DUP4 ADD MSTORE POP POP POP JUMP JUMPDEST PUSH0 PUSH2 0x176A DUP4 DUP6 PUSH2 0xFE9 JUMP JUMPDEST SWAP4 POP PUSH2 0x1777 DUP4 DUP6 DUP5 PUSH2 0x1751 JUMP JUMPDEST PUSH2 0x1780 DUP4 PUSH2 0x1021 JUMP JUMPDEST DUP5 ADD SWAP1 POP SWAP4 SWAP3 POP POP POP JUMP JUMPDEST PUSH0 PUSH1 0x60 DUP3 ADD SWAP1 POP PUSH2 0x179E PUSH0 DUP4 ADD DUP8 PUSH2 0x10CD JUMP JUMPDEST DUP2 DUP2 SUB PUSH1 0x20 DUP4 ADD MSTORE PUSH2 0x17B1 DUP2 DUP6 DUP8 PUSH2 0x175F JUMP JUMPDEST SWAP1 POP PUSH2 0x17C0 PUSH1 0x40 DUP4 ADD DUP5 PUSH2 0x10DC JUMP JUMPDEST SWAP6 SWAP5 POP POP POP POP POP JUMP JUMPDEST PUSH32 0x4E487B7100000000000000000000000000000000000000000000000000000000 PUSH0 MSTORE PUSH1 0x11 PUSH1 0x4 MSTORE PUSH1 0x24 PUSH0 REVERT JUMPDEST PUSH0 PUSH2 0x1800 DUP3 PUSH2 0xD84 JUMP JUMPDEST SWAP2 POP PUSH2 0x180B DUP4 PUSH2 0xD84 JUMP JUMPDEST SWAP3 POP DUP3 DUP3 ADD SWAP1 POP DUP1 DUP3 GT ISZERO PUSH2 0x1823 JUMPI PUSH2 0x1822 PUSH2 0x17C9 JUMP JUMPDEST JUMPDEST SWAP3 SWAP2 POP POP JUMP JUMPDEST PUSH2 0x1832 DUP3 PUSH2 0xFDF JUMP JUMPDEST PUSH8 0xFFFFFFFFFFFFFFFF DUP2 GT ISZERO PUSH2 0x184B JUMPI PUSH2 0x184A PUSH2 0x145D JUMP JUMPDEST JUMPDEST PUSH2 0x1855 DUP3 SLOAD PUSH2 0x14B7 JUMP JUMPDEST PUSH2 0x1860 DUP3 DUP3 DUP6 PUSH2 0x15FB JUMP JUMPDEST PUSH0 PUSH1 0x20 SWAP1 POP PUSH1 0x1F DUP4 GT PUSH1 0x1 DUP2 EQ PUSH2 0x1891 JUMPI PUSH0 DUP5 ISZERO PUSH2 0x187F JUMPI DUP3 DUP8 ADD MLOAD SWAP1 POP JUMPDEST PUSH2 0x1889 DUP6 DUP3 PUSH2 0x1669 JUMP JUMPDEST DUP7 SSTORE POP PUSH2 0x18F0 JUMP JUMPDEST PUSH1 0x1F NOT DUP5 AND PUSH2 0x189F DUP7 PUSH2 0x14E7 JUMP JUMPDEST PUSH0 JUMPDEST DUP3 DUP2 LT ISZERO PUSH2 0x18C6 JUMPI DUP5 DUP10 ADD MLOAD DUP3 SSTORE PUSH1 0x1 DUP3 ADD SWAP2 POP PUSH1 0x20 DUP6 ADD SWAP5 POP PUSH1 0x20 DUP2 ADD SWAP1 POP PUSH2 0x18A1 JUMP JUMPDEST DUP7 DUP4 LT ISZERO PUSH2 0x18E3 JUMPI DUP5 DUP10 ADD MLOAD PUSH2 0x18DF PUSH1 0x1F DUP10 AND DUP3 PUSH2 0x164D JUMP JUMPDEST DUP4 SSTORE POP JUMPDEST PUSH1 0x1 PUSH1 0x2 DUP9 MUL ADD DUP9 SSTORE POP POP POP JUMPDEST POP POP POP POP POP POP JUMP JUMPDEST POP JUMP JUMPDEST PUSH0 PUSH2 0x1906 PUSH0 DUP4 PUSH2 0xFE9 JUMP JUMPDEST SWAP2 POP PUSH2 0x1911 DUP3 PUSH2 0x18F8 JUMP JUMPDEST PUSH0 DUP3 ADD SWAP1 POP SWAP2 SWAP1 POP JUMP JUMPDEST PUSH0 PUSH2 0x120 DUP3 ADD SWAP1 POP PUSH2 0x192F PUSH0 DUP4 ADD DUP14 PUSH2 0xFD0 JUMP JUMPDEST DUP2 DUP2 SUB PUSH1 0x20 DUP4 ADD MSTORE PUSH2 0x1942 DUP2 DUP12 DUP14 PUSH2 0x175F JUMP JUMPDEST SWAP1 POP PUSH2 0x1951 PUSH1 0x40 DUP4 ADD DUP11 PUSH2 0xFD0 JUMP JUMPDEST DUP2 DUP2 SUB PUSH1 0x60 DUP4 ADD MSTORE PUSH2 0x1964 DUP2 DUP9 DUP11 PUSH2 0x175F JUMP JUMPDEST SWAP1 POP PUSH2 0x1973 PUSH1 0x80 DUP4 ADD DUP8 PUSH2 0xFD0 JUMP JUMPDEST PUSH2 0x1980 PUSH1 0xA0 DUP4 ADD DUP7 PUSH2 0x10CD JUMP JUMPDEST DUP2 DUP2 SUB PUSH1 0xC0 DUP4 ADD MSTORE PUSH2 0x1991 DUP2 PUSH2 0x18FB JUMP JUMPDEST SWAP1 POP PUSH2 0x19A0 PUSH1 0xE0 DUP4 ADD DUP6 PUSH2 0x10DC JUMP JUMPDEST PUSH2 0x19AE PUSH2 0x100 DUP4 ADD DUP5 PUSH2 0x10DC JUMP JUMPDEST SWAP12 SWAP11 POP POP POP POP POP POP POP POP POP POP POP JUMP JUMPDEST PUSH0 PUSH2 0x19C7 DUP3 PUSH2 0xD84 JUMP JUMPDEST SWAP2 POP PUSH32 0xFFFFFFFFFFFFFFFFFFFFFFFFFFFFFFFFFFFFFFFFFFFFFFFFFFFFFFFFFFFFFFFF DUP3 SUB PUSH2 0x19F9 JUMPI PUSH2 0x19F8 PUSH2 0x17C9 JUMP JUMPDEST JUMPDEST PUSH1 0x1 DUP3 ADD SWAP1 POP SWAP2 SWAP1 POP JUMP JUMPDEST PUSH32 0x53686172656453746F726167653A204E6577206F776E65722063616E6E6F7420 PUSH0 DUP3 ADD MSTORE PUSH32 0x6265207A65726F20616464726573732E00000000000000000000000000000000 PUSH1 0x20 DUP3 ADD MSTORE POP JUMP JUMPDEST PUSH0 PUSH2 0x1A5E PUSH1 0x30 DUP4 PUSH2 0xFE9 JUMP JUMPDEST SWAP2 POP PUSH2 0x1A69 DUP3 PUSH2 0x1A04 JUMP JUMPDEST PUSH1 0x40 DUP3 ADD SWAP1 POP SWAP2 SWAP1 POP JUMP JUMPDEST PUSH0 PUSH1 0x20 DUP3 ADD SWAP1 POP DUP2 DUP2 SUB PUSH0 DUP4 ADD MSTORE PUSH2 0x1A8B DUP2 PUSH2 0x1A52 JUMP JUMPDEST SWAP1 POP SWAP2 SWAP1 POP JUMP JUMPDEST PUSH0 PUSH1 0x20 DUP3 ADD SWAP1 POP PUSH2 0x1AA5 PUSH0 DUP4 ADD DUP5 PUSH2 0x10DC JUMP JUMPDEST SWAP3 SWAP2 POP POP JUMP INVALID LOG2 PUSH5 0x6970667358 0x22 SLT KECCAK256 PUSH7 0xA117312E1BA0A4 BASEFEE PUSH11 0x28630DEB76282F88CFA7F5 SELFDESTRUCT 0xB7 PUSH3 0xF88C6E 0xB8 0x21 DUP15 0xDA 0xDD PUSH5 0x736F6C6343 STOP ADDMOD AND STOP CALLER "
		},
		"gasEstimates": {
			"creation": {
				"codeDepositCost": "1376200",
				"executionCost": "23542",
				"totalCost": "1399742"
			},
			"external": {
				"addBus(uint256,string,uint256,string,address)": "infinite",
				"busItem()": "infinite",
				"getBusData(uint256)": "infinite",
				"updateBusStatus(uint256,uint8,string,address)": "infinite",
				"updateOwnership(uint256,address)": "infinite"
			}
		},
		"methodIdentifiers": {
			"addBus(uint256,string,uint256,string,address)": "3c1e8772",
			"busItem()": "94b665f0",
			"getBusData(uint256)": "f2c24032",
			"updateBusStatus(uint256,uint8,string,address)": "1d0476d4",
			"updateOwnership(uint256,address)": "cc0266f7"
		}
	},
	"abi": [
		{
			"anonymous": false,
			"inputs": [
				{
					"indexed": true,
					"internalType": "uint256",
					"name": "id",
					"type": "uint256"
				},
				{
					"indexed": false,
					"internalType": "uint256",
					"name": "model",
					"type": "uint256"
				},
				{
					"indexed": false,
					"internalType": "string",
					"name": "vim_number",
					"type": "string"
				},
				{
					"indexed": false,
					"internalType": "uint256",
					"name": "company_number",
					"type": "uint256"
				},
				{
					"indexed": false,
					"internalType": "string",
					"name": "plate_number",
					"type": "string"
				},
				{
					"indexed": false,
					"internalType": "uint256",
					"name": "expireYear",
					"type": "uint256"
				},
				{
					"indexed": false,
					"internalType": "enum DataStr.BusStatus",
					"name": "status",
					"type": "uint8"
				},
				{
					"indexed": false,
					"internalType": "string",
					"name": "rejectNote",
					"type": "string"
				},
				{
					"indexed": false,
					"internalType": "address",
					"name": "owner",
					"type": "address"
				},
				{
					"indexed": false,
					"internalType": "address",
					"name": "creator",
					"type": "address"
				}
			],
			"name": "BusAdded",
			"type": "event"
		},
		{
			"anonymous": false,
			"inputs": [
				{
					"indexed": true,
					"internalType": "uint256",
					"name": "id",
					"type": "uint256"
				},
				{
					"indexed": false,
					"internalType": "address",
					"name": "newOwner",
					"type": "address"
				}
			],
			"name": "BusOwnershipUpdated",
			"type": "event"
		},
		{
			"anonymous": false,
			"inputs": [
				{
					"indexed": true,
					"internalType": "uint256",
					"name": "id",
					"type": "uint256"
				},
				{
					"indexed": false,
					"internalType": "enum DataStr.BusStatus",
					"name": "newStatus",
					"type": "uint8"
				},
				{
					"indexed": false,
					"internalType": "string",
					"name": "note",
					"type": "string"
				},
				{
					"indexed": false,
					"internalType": "address",
					"name": "updatedBy",
					"type": "address"
				}
			],
			"name": "BusStatusUpdated",
			"type": "event"
		},
		{
			"inputs": [
				{
					"internalType": "uint256",
					"name": "model",
					"type": "uint256"
				},
				{
					"internalType": "string",
					"name": "vim_number",
					"type": "string"
				},
				{
					"internalType": "uint256",
					"name": "company_number",
					"type": "uint256"
				},
				{
					"internalType": "string",
					"name": "plate_number",
					"type": "string"
				},
				{
					"internalType": "address",
					"name": "creator",
					"type": "address"
				}
			],
			"name": "addBus",
			"outputs": [],
			"stateMutability": "nonpayable",
			"type": "function"
		},
		{
			"inputs": [],
			"name": "busItem",
			"outputs": [
				{
					"internalType": "uint256",
					"name": "id",
					"type": "uint256"
				},
				{
					"internalType": "uint256",
					"name": "model",
					"type": "uint256"
				},
				{
					"internalType": "string",
					"name": "vim_number",
					"type": "string"
				},
				{
					"internalType": "uint256",
					"name": "company_number",
					"type": "uint256"
				},
				{
					"internalType": "string",
					"name": "plate_number",
					"type": "string"
				},
				{
					"internalType": "uint256",
					"name": "expireYear",
					"type": "uint256"
				},
				{
					"internalType": "enum DataStr.BusStatus",
					"name": "status",
					"type": "uint8"
				},
				{
					"internalType": "string",
					"name": "rejectNote",
					"type": "string"
				},
				{
					"internalType": "address",
					"name": "rejectBy",
					"type": "address"
				},
				{
					"internalType": "address",
					"name": "owner",
					"type": "address"
				},
				{
					"internalType": "address",
					"name": "creator",
					"type": "address"
				},
				{
					"internalType": "uint256",
					"name": "nftTokenId",
					"type": "uint256"
				}
			],
			"stateMutability": "view",
			"type": "function"
		},
		{
			"inputs": [
				{
					"internalType": "uint256",
					"name": "id",
					"type": "uint256"
				}
			],
			"name": "getBusData",
			"outputs": [
				{
					"components": [
						{
							"internalType": "uint256",
							"name": "id",
							"type": "uint256"
						},
						{
							"internalType": "uint256",
							"name": "model",
							"type": "uint256"
						},
						{
							"internalType": "string",
							"name": "vim_number",
							"type": "string"
						},
						{
							"internalType": "uint256",
							"name": "company_number",
							"type": "uint256"
						},
						{
							"internalType": "string",
							"name": "plate_number",
							"type": "string"
						},
						{
							"internalType": "uint256",
							"name": "expireYear",
							"type": "uint256"
						},
						{
							"internalType": "enum DataStr.BusStatus",
							"name": "status",
							"type": "uint8"
						},
						{
							"internalType": "string",
							"name": "rejectNote",
							"type": "string"
						},
						{
							"internalType": "address",
							"name": "rejectBy",
							"type": "address"
						},
						{
							"internalType": "address",
							"name": "owner",
							"type": "address"
						},
						{
							"internalType": "address",
							"name": "creator",
							"type": "address"
						},
						{
							"internalType": "uint256",
							"name": "nftTokenId",
							"type": "uint256"
						}
					],
					"internalType": "struct DataStr.BusItem",
					"name": "",
					"type": "tuple"
				}
			],
			"stateMutability": "view",
			"type": "function"
		},
		{
			"inputs": [
				{
					"internalType": "uint256",
					"name": "id",
					"type": "uint256"
				},
				{
					"internalType": "enum DataStr.BusStatus",
					"name": "newStatus",
					"type": "uint8"
				},
				{
					"internalType": "string",
					"name": "note",
					"type": "string"
				},
				{
					"internalType": "address",
					"name": "updatedBy",
					"type": "address"
				}
			],
			"name": "updateBusStatus",
			"outputs": [],
			"stateMutability": "nonpayable",
			"type": "function"
		},
		{
			"inputs": [
				{
					"internalType": "uint256",
					"name": "id",
					"type": "uint256"
				},
				{
					"internalType": "address",
					"name": "newOwner",
					"type": "address"
				}
			],
			"name": "updateOwnership",
			"outputs": [],
			"stateMutability": "nonpayable",
			"type": "function"
		}
	]
}