{
	"data": {
		"bytecode": {
			"linkReferences": {},
			"object": "608060405234801562000010575f80fd5b5062000023600d6200002960201b60201c565b6200003d565b6001815f015f828254019250508190555050565b613441806200004b5f395ff3fe608060405234801561000f575f80fd5b50600436106100b2575f3560e01c806394b665f01161006f57806394b665f01461019c578063baccba66146101c4578063cc0266f7146101f4578063cf61625c14610210578063f2c240321461022e578063ff900c501461025e576100b2565b806317c1e71a146100b65780631d0476d4146100e65780633ab76e9f146101025780636162074c146101205780637bc395cd1461013c5780637f1e5de71461016c575b5f80fd5b6100d060048036038101906100cb9190611ec0565b61027a565b6040516100dd9190611f5e565b60405180910390f35b61010060048036038101906100fb9190612055565b6102f9565b005b61010a6104b4565b6040516101179190612134565b60405180910390f35b61013a6004803603810190610135919061214d565b6104d9565b005b6101566004803603810190610151919061218b565b61065e565b6040516101639190612422565b60405180910390f35b61018660048036038101906101819190612442565b610b3f565b6040516101939190612422565b60405180910390f35b6101a46110c1565b6040516101bb9b9a999897969594939291906124e6565b60405180910390f35b6101de60048036038101906101d9919061218b565b611302565b6040516101eb9190612422565b60405180910390f35b61020e600480360381019061020991906125a4565b61151e565b005b61021861167d565b60405161022591906125e2565b60405180910390f35b61024860048036038101906102439190611ec0565b6116e4565b60405161025591906126f5565b60405180910390f35b61027860048036038101906102739190612715565b611a77565b005b5f80600c5f8481526020019081526020015f205f015410156102d1576040517f08c379a00000000000000000000000000000000000000000000000000000000081526004016102c89061284f565b60405180910390fd5b600c5f8381526020019081526020015f206005015f9054906101000a900460ff169050919050565b845f600c5f8381526020019081526020015f205f01541161034f576040517f08c379a0000000000000000000000000000000000000000000000000000000008152600401610346906128dd565b60405180910390fd5b84600c5f8881526020019081526020015f206005015f6101000a81548160ff0219169083600681111561038557610384611eeb565b5b02179055506002600681111561039e5761039d611eeb565b5b8560068111156103b1576103b0611eeb565b5b14806103e15750600360068111156103cc576103cb611eeb565b5b8560068111156103df576103de611eeb565b5b145b1561045d578383600c5f8981526020019081526020015f206006019182610409929190612b23565b5081600c5f8881526020019081526020015f206007015f6101000a81548173ffffffffffffffffffffffffffffffffffffffff021916908373ffffffffffffffffffffffffffffffffffffffff1602179055505b8460068111156104705761046f611eeb565b5b867fdad1eb2f26e1deae81185f40d91508b624e27982264501b3328ce68b7a929b1f8686866040516104a493929190612c2a565b60405180910390a3505050505050565b600b5f9054906101000a900473ffffffffffffffffffffffffffffffffffffffff1681565b600b5f9054906101000a900473ffffffffffffffffffffffffffffffffffffffff1673ffffffffffffffffffffffffffffffffffffffff1663fd8cdd32336040518263ffffffff1660e01b81526004016105339190612c5a565b602060405180830381865afa15801561054e573d5f803e3d5ffd5b505050506040513d601f19601f820116820180604052508101906105729190612ca8565b6105b1576040517f08c379a00000000000000000000000000000000000000000000000000000000081526004016105a890612d43565b60405180910390fd5b815f600c5f8381526020019081526020015f205f015411610607576040517f08c379a00000000000000000000000000000000000000000000000000000000081526004016105fe906128dd565b60405180910390fd5b81600c5f8581526020019081526020015f20600a01819055507f2360bfa7a3154a307ef95bd0ce61c1e8e734578c9829efd159da5f46ae0e2a268383604051610651929190612d61565b60405180910390a1505050565b60605f61066b600d611db6565b90505f80600190505b828110156106fe578473ffffffffffffffffffffffffffffffffffffffff16600c5f8381526020019081526020015f206009015f9054906101000a900473ffffffffffffffffffffffffffffffffffffffff1673ffffffffffffffffffffffffffffffffffffffff16036106f15781806106ed90612db5565b9250505b8080600101915050610674565b505f8167ffffffffffffffff81111561071a57610719612905565b5b60405190808252806020026020018201604052801561075357816020015b610740611dd6565b8152602001906001900390816107385790505b5090505f80600190505b84811015610b32578673ffffffffffffffffffffffffffffffffffffffff16600c5f8381526020019081526020015f206009015f9054906101000a900473ffffffffffffffffffffffffffffffffffffffff1673ffffffffffffffffffffffffffffffffffffffff1603610b2557600c5f8281526020019081526020015f20604051806101600160405290815f82015481526020016001820154815260200160028201805461080b9061295f565b80601f01602080910402602001604051908101604052809291908181526020018280546108379061295f565b80156108825780601f1061085957610100808354040283529160200191610882565b820191905f5260205f20905b81548152906001019060200180831161086557829003601f168201915b50505050508152602001600382015481526020016004820180546108a59061295f565b80601f01602080910402602001604051908101604052809291908181526020018280546108d19061295f565b801561091c5780601f106108f35761010080835404028352916020019161091c565b820191905f5260205f20905b8154815290600101906020018083116108ff57829003601f168201915b50505050508152602001600582015f9054906101000a900460ff16600681111561094957610948611eeb565b5b600681111561095b5761095a611eeb565b5b815260200160068201805461096f9061295f565b80601f016020809104026020016040519081016040528092919081815260200182805461099b9061295f565b80156109e65780601f106109bd576101008083540402835291602001916109e6565b820191905f5260205f20905b8154815290600101906020018083116109c957829003601f168201915b50505050508152602001600782015f9054906101000a900473ffffffffffffffffffffffffffffffffffffffff1673ffffffffffffffffffffffffffffffffffffffff1673ffffffffffffffffffffffffffffffffffffffff168152602001600882015f9054906101000a900473ffffffffffffffffffffffffffffffffffffffff1673ffffffffffffffffffffffffffffffffffffffff1673ffffffffffffffffffffffffffffffffffffffff168152602001600982015f9054906101000a900473ffffffffffffffffffffffffffffffffffffffff1673ffffffffffffffffffffffffffffffffffffffff1673ffffffffffffffffffffffffffffffffffffffff168152602001600a82015481525050838381518110610b0b57610b0a612dfc565b5b60200260200101819052508180610b2190612db5565b9250505b808060010191505061075d565b5081945050505050919050565b60605f610b4c600d611db6565b90505f80600190505b82811015610c2f578573ffffffffffffffffffffffffffffffffffffffff16600c5f8381526020019081526020015f206009015f9054906101000a900473ffffffffffffffffffffffffffffffffffffffff1673ffffffffffffffffffffffffffffffffffffffff16148015610c0e5750846006811115610bd957610bd8611eeb565b5b600c5f8381526020019081526020015f206005015f9054906101000a900460ff166006811115610c0c57610c0b611eeb565b5b145b15610c22578180610c1e90612db5565b9250505b8080600101915050610b55565b505f8167ffffffffffffffff811115610c4b57610c4a612905565b5b604051908082528060200260200182016040528015610c8457816020015b610c71611dd6565b815260200190600190039081610c695790505b5090505f80600190505b848110156110b3578773ffffffffffffffffffffffffffffffffffffffff16600c5f8381526020019081526020015f206009015f9054906101000a900473ffffffffffffffffffffffffffffffffffffffff1673ffffffffffffffffffffffffffffffffffffffff16148015610d475750866006811115610d1257610d11611eeb565b5b600c5f8381526020019081526020015f206005015f9054906101000a900460ff166006811115610d4557610d44611eeb565b5b145b156110a657600c5f8281526020019081526020015f20604051806101600160405290815f820154815260200160018201548152602001600282018054610d8c9061295f565b80601f0160208091040260200160405190810160405280929190818152602001828054610db89061295f565b8015610e035780601f10610dda57610100808354040283529160200191610e03565b820191905f5260205f20905b815481529060010190602001808311610de657829003601f168201915b5050505050815260200160038201548152602001600482018054610e269061295f565b80601f0160208091040260200160405190810160405280929190818152602001828054610e529061295f565b8015610e9d5780601f10610e7457610100808354040283529160200191610e9d565b820191905f5260205f20905b815481529060010190602001808311610e8057829003601f168201915b50505050508152602001600582015f9054906101000a900460ff166006811115610eca57610ec9611eeb565b5b6006811115610edc57610edb611eeb565b5b8152602001600682018054610ef09061295f565b80601f0160208091040260200160405190810160405280929190818152602001828054610f1c9061295f565b8015610f675780601f10610f3e57610100808354040283529160200191610f67565b820191905f5260205f20905b815481529060010190602001808311610f4a57829003601f168201915b50505050508152602001600782015f9054906101000a900473ffffffffffffffffffffffffffffffffffffffff1673ffffffffffffffffffffffffffffffffffffffff1673ffffffffffffffffffffffffffffffffffffffff168152602001600882015f9054906101000a900473ffffffffffffffffffffffffffffffffffffffff1673ffffffffffffffffffffffffffffffffffffffff1673ffffffffffffffffffffffffffffffffffffffff168152602001600982015f9054906101000a900473ffffffffffffffffffffffffffffffffffffffff1673ffffffffffffffffffffffffffffffffffffffff1673ffffffffffffffffffffffffffffffffffffffff168152602001600a8201548152505083838151811061108c5761108b612dfc565b5b602002602001018190525081806110a290612db5565b9250505b8080600101915050610c8e565b508194505050505092915050565b5f805f0154908060010154908060020180546110dc9061295f565b80601f01602080910402602001604051908101604052809291908181526020018280546111089061295f565b80156111535780601f1061112a57610100808354040283529160200191611153565b820191905f5260205f20905b81548152906001019060200180831161113657829003601f168201915b50505050509080600301549080600401805461116e9061295f565b80601f016020809104026020016040519081016040528092919081815260200182805461119a9061295f565b80156111e55780601f106111bc576101008083540402835291602001916111e5565b820191905f5260205f20905b8154815290600101906020018083116111c857829003601f168201915b505050505090806005015f9054906101000a900460ff169080600601805461120c9061295f565b80601f01602080910402602001604051908101604052809291908181526020018280546112389061295f565b80156112835780601f1061125a57610100808354040283529160200191611283565b820191905f5260205f20905b81548152906001019060200180831161126657829003601f168201915b505050505090806007015f9054906101000a900473ffffffffffffffffffffffffffffffffffffffff1690806008015f9054906101000a900473ffffffffffffffffffffffffffffffffffffffff1690806009015f9054906101000a900473ffffffffffffffffffffffffffffffffffffffff169080600a015490508b565b60605f61130f600d611db6565b90505f8167ffffffffffffffff81111561132c5761132b612905565b5b60405190808252806020026020018201604052801561136557816020015b611352611dd6565b81526020019060019003908161134a5790505b5090505f80600190505b83811015611469575f3073ffffffffffffffffffffffffffffffffffffffff1663f2c24032836040518263ffffffff1660e01b81526004016113b191906125e2565b5f60405180830381865afa1580156113cb573d5f803e3d5ffd5b505050506040513d5f823e3d601f19601f820116820180604052508101906113f391906130b7565b90508673ffffffffffffffffffffffffffffffffffffffff1681610100015173ffffffffffffffffffffffffffffffffffffffff160361145b578084848151811061144157611440612dfc565b5b6020026020010181905250828061145790612db5565b9350505b50808060010191505061136f565b505f8167ffffffffffffffff81111561148557611484612905565b5b6040519080825280602002602001820160405280156114be57816020015b6114ab611dd6565b8152602001906001900390816114a35790505b5090505f5b82811015611511578381815181106114de576114dd612dfc565b5b60200260200101518282815181106114f9576114f8612dfc565b5b602002602001018190525080806001019150506114c3565b5080945050505050919050565b815f600c5f8381526020019081526020015f205f015411611574576040517f08c379a000000000000000000000000000000000000000000000000000000000815260040161156b906128dd565b60405180910390fd5b5f73ffffffffffffffffffffffffffffffffffffffff168273ffffffffffffffffffffffffffffffffffffffff16036115e2576040517f08c379a00000000000000000000000000000000000000000000000000000000081526004016115d99061316e565b60405180910390fd5b81600c5f8581526020019081526020015f206008015f6101000a81548173ffffffffffffffffffffffffffffffffffffffff021916908373ffffffffffffffffffffffffffffffffffffffff1602179055508173ffffffffffffffffffffffffffffffffffffffff16837f17f6791f79c251dfe73501956852b1099624d6a4c5ce9744ad98825c5b8dd91a60405160405180910390a3505050565b5f80611689600d611db6565b116116c9576040517f08c379a00000000000000000000000000000000000000000000000000000000081526004016116c0906131fc565b60405180910390fd5b60016116d5600d611db6565b6116df919061321a565b905090565b6116ec611dd6565b815f600c5f8381526020019081526020015f205f015411611742576040517f08c379a0000000000000000000000000000000000000000000000000000000008152600401611739906128dd565b60405180910390fd5b600c5f8481526020019081526020015f20604051806101600160405290815f8201548152602001600182015481526020016002820180546117829061295f565b80601f01602080910402602001604051908101604052809291908181526020018280546117ae9061295f565b80156117f95780601f106117d0576101008083540402835291602001916117f9565b820191905f5260205f20905b8154815290600101906020018083116117dc57829003601f168201915b505050505081526020016003820154815260200160048201805461181c9061295f565b80601f01602080910402602001604051908101604052809291908181526020018280546118489061295f565b80156118935780601f1061186a57610100808354040283529160200191611893565b820191905f5260205f20905b81548152906001019060200180831161187657829003601f168201915b50505050508152602001600582015f9054906101000a900460ff1660068111156118c0576118bf611eeb565b5b60068111156118d2576118d1611eeb565b5b81526020016006820180546118e69061295f565b80601f01602080910402602001604051908101604052809291908181526020018280546119129061295f565b801561195d5780601f106119345761010080835404028352916020019161195d565b820191905f5260205f20905b81548152906001019060200180831161194057829003601f168201915b50505050508152602001600782015f9054906101000a900473ffffffffffffffffffffffffffffffffffffffff1673ffffffffffffffffffffffffffffffffffffffff1673ffffffffffffffffffffffffffffffffffffffff168152602001600882015f9054906101000a900473ffffffffffffffffffffffffffffffffffffffff1673ffffffffffffffffffffffffffffffffffffffff1673ffffffffffffffffffffffffffffffffffffffff168152602001600982015f9054906101000a900473ffffffffffffffffffffffffffffffffffffffff1673ffffffffffffffffffffffffffffffffffffffff1673ffffffffffffffffffffffffffffffffffffffff168152602001600a82015481525050915050919050565b604051806101600160405280611a8d600d611db6565b815260200189815260200188888080601f0160208091040260200160405190810160405280939291908181526020018383808284375f81840152601f19601f82011690508083019250505050505050815260200186815260200185858080601f0160208091040260200160405190810160405280939291908181526020018383808284375f81840152601f19601f820116905080830192505050505050508152602001600680811115611b4357611b42611eeb565b5b815260200160405180602001604052805f81525081526020015f73ffffffffffffffffffffffffffffffffffffffff1681526020018273ffffffffffffffffffffffffffffffffffffffff1681526020018373ffffffffffffffffffffffffffffffffffffffff1681526020015f815250600c5f611bc1600d611db6565b81526020019081526020015f205f820151815f0155602082015181600101556040820151816002019081611bf5919061324d565b50606082015181600301556080820151816004019081611c15919061324d565b5060a0820151816005015f6101000a81548160ff02191690836006811115611c4057611c3f611eeb565b5b021790555060c0820151816006019081611c5a919061324d565b5060e0820151816007015f6101000a81548173ffffffffffffffffffffffffffffffffffffffff021916908373ffffffffffffffffffffffffffffffffffffffff160217905550610100820151816008015f6101000a81548173ffffffffffffffffffffffffffffffffffffffff021916908373ffffffffffffffffffffffffffffffffffffffff160217905550610120820151816009015f6101000a81548173ffffffffffffffffffffffffffffffffffffffff021916908373ffffffffffffffffffffffffffffffffffffffff16021790555061014082015181600a0155905050600680811115611d5057611d4f611eeb565b5b85611d5b600d611db6565b7fe5e5008647cfeca8fc7aff626b87e8d5bfe90d172b86545be3c31f3c4680b7c48b8b8b8a8a5f8a8c5f604051611d9a99989796959493929190613378565b60405180910390a4611dac600d611dc2565b5050505050505050565b5f815f01549050919050565b6001815f015f828254019250508190555050565b6040518061016001604052805f81526020015f8152602001606081526020015f8152602001606081526020015f6006811115611e1557611e14611eeb565b5b8152602001606081526020015f73ffffffffffffffffffffffffffffffffffffffff1681526020015f73ffffffffffffffffffffffffffffffffffffffff1681526020015f73ffffffffffffffffffffffffffffffffffffffff1681526020015f81525090565b5f604051905090565b5f80fd5b5f80fd5b5f819050919050565b611e9f81611e8d565b8114611ea9575f80fd5b50565b5f81359050611eba81611e96565b92915050565b5f60208284031215611ed557611ed4611e85565b5b5f611ee284828501611eac565b91505092915050565b7f4e487b71000000000000000000000000000000000000000000000000000000005f52602160045260245ffd5b60078110611f2957611f28611eeb565b5b50565b5f819050611f3982611f18565b919050565b5f611f4882611f2c565b9050919050565b611f5881611f3e565b82525050565b5f602082019050611f715f830184611f4f565b92915050565b60078110611f83575f80fd5b50565b5f81359050611f9481611f77565b92915050565b5f80fd5b5f80fd5b5f80fd5b5f8083601f840112611fbb57611fba611f9a565b5b8235905067ffffffffffffffff811115611fd857611fd7611f9e565b5b602083019150836001820283011115611ff457611ff3611fa2565b5b9250929050565b5f73ffffffffffffffffffffffffffffffffffffffff82169050919050565b5f61202482611ffb565b9050919050565b6120348161201a565b811461203e575f80fd5b50565b5f8135905061204f8161202b565b92915050565b5f805f805f6080868803121561206e5761206d611e85565b5b5f61207b88828901611eac565b955050602061208c88828901611f86565b945050604086013567ffffffffffffffff8111156120ad576120ac611e89565b5b6120b988828901611fa6565b935093505060606120cc88828901612041565b9150509295509295909350565b5f819050919050565b5f6120fc6120f76120f284611ffb565b6120d9565b611ffb565b9050919050565b5f61210d826120e2565b9050919050565b5f61211e82612103565b9050919050565b61212e81612114565b82525050565b5f6020820190506121475f830184612125565b92915050565b5f806040838503121561216357612162611e85565b5b5f61217085828601611eac565b925050602061218185828601611eac565b9150509250929050565b5f602082840312156121a05761219f611e85565b5b5f6121ad84828501612041565b91505092915050565b5f81519050919050565b5f82825260208201905092915050565b5f819050602082019050919050565b6121e881611e8d565b82525050565b5f81519050919050565b5f82825260208201905092915050565b5f5b8381101561222557808201518184015260208101905061220a565b5f8484015250505050565b5f601f19601f8301169050919050565b5f61224a826121ee565b61225481856121f8565b9350612264818560208601612208565b61226d81612230565b840191505092915050565b61228181611f3e565b82525050565b6122908161201a565b82525050565b5f61016083015f8301516122ac5f8601826121df565b5060208301516122bf60208601826121df565b50604083015184820360408601526122d78282612240565b91505060608301516122ec60608601826121df565b50608083015184820360808601526123048282612240565b91505060a083015161231960a0860182612278565b5060c083015184820360c08601526123318282612240565b91505060e083015161234660e0860182612287565b5061010083015161235b610100860182612287565b50610120830151612370610120860182612287565b506101408301516123856101408601826121df565b508091505092915050565b5f61239b8383612296565b905092915050565b5f602082019050919050565b5f6123b9826121b6565b6123c381856121c0565b9350836020820285016123d5856121d0565b805f5b8581101561241057848403895281516123f18582612390565b94506123fc836123a3565b925060208a019950506001810190506123d8565b50829750879550505050505092915050565b5f6020820190508181035f83015261243a81846123af565b905092915050565b5f806040838503121561245857612457611e85565b5b5f61246585828601612041565b925050602061247685828601611f86565b9150509250929050565b61248981611e8d565b82525050565b5f82825260208201905092915050565b5f6124a9826121ee565b6124b3818561248f565b93506124c3818560208601612208565b6124cc81612230565b840191505092915050565b6124e08161201a565b82525050565b5f610160820190506124fa5f83018e612480565b612507602083018d612480565b8181036040830152612519818c61249f565b9050612528606083018b612480565b818103608083015261253a818a61249f565b905061254960a0830189611f4f565b81810360c083015261255b818861249f565b905061256a60e08301876124d7565b6125786101008301866124d7565b6125866101208301856124d7565b612594610140830184612480565b9c9b505050505050505050505050565b5f80604083850312156125ba576125b9611e85565b5b5f6125c785828601611eac565b92505060206125d885828601612041565b9150509250929050565b5f6020820190506125f55f830184612480565b92915050565b5f61016083015f8301516126115f8601826121df565b50602083015161262460208601826121df565b506040830151848203604086015261263c8282612240565b915050606083015161265160608601826121df565b50608083015184820360808601526126698282612240565b91505060a083015161267e60a0860182612278565b5060c083015184820360c08601526126968282612240565b91505060e08301516126ab60e0860182612287565b506101008301516126c0610100860182612287565b506101208301516126d5610120860182612287565b506101408301516126ea6101408601826121df565b508091505092915050565b5f6020820190508181035f83015261270d81846125fb565b905092915050565b5f805f805f805f8060c0898b03121561273157612730611e85565b5b5f61273e8b828c01611eac565b985050602089013567ffffffffffffffff81111561275f5761275e611e89565b5b61276b8b828c01611fa6565b9750975050604061277e8b828c01611eac565b955050606089013567ffffffffffffffff81111561279f5761279e611e89565b5b6127ab8b828c01611fa6565b945094505060806127be8b828c01612041565b92505060a06127cf8b828c01612041565b9150509295985092959890939650565b7f42757320646f6573206e6f7420657869737420776974682074686520494420795f8201527f6f75207772697465206974212121000000000000000000000000000000000000602082015250565b5f612839602e8361248f565b9150612844826127df565b604082019050919050565b5f6020820190508181035f8301526128668161282d565b9050919050565b7f54484520594f5520417265204c4f4f4b494e4720464f5220646f6573206e6f745f8201527f2065786973742121212100000000000000000000000000000000000000000000602082015250565b5f6128c7602a8361248f565b91506128d28261286d565b604082019050919050565b5f6020820190508181035f8301526128f4816128bb565b9050919050565b5f82905092915050565b7f4e487b71000000000000000000000000000000000000000000000000000000005f52604160045260245ffd5b7f4e487b71000000000000000000000000000000000000000000000000000000005f52602260045260245ffd5b5f600282049050600182168061297657607f821691505b60208210810361298957612988612932565b5b50919050565b5f819050815f5260205f209050919050565b5f6020601f8301049050919050565b5f82821b905092915050565b5f600883026129eb7fffffffffffffffffffffffffffffffffffffffffffffffffffffffffffffffff826129b0565b6129f586836129b0565b95508019841693508086168417925050509392505050565b5f612a27612a22612a1d84611e8d565b6120d9565b611e8d565b9050919050565b5f819050919050565b612a4083612a0d565b612a54612a4c82612a2e565b8484546129bc565b825550505050565b5f90565b612a68612a5c565b612a73818484612a37565b505050565b5b81811015612a9657612a8b5f82612a60565b600181019050612a79565b5050565b601f821115612adb57612aac8161298f565b612ab5846129a1565b81016020851015612ac4578190505b612ad8612ad0856129a1565b830182612a78565b50505b505050565b5f82821c905092915050565b5f612afb5f1984600802612ae0565b1980831691505092915050565b5f612b138383612aec565b9150826002028217905092915050565b612b2d83836128fb565b67ffffffffffffffff811115612b4657612b45612905565b5b612b50825461295f565b612b5b828285612a9a565b5f601f831160018114612b88575f8415612b76578287013590505b612b808582612b08565b865550612be7565b601f198416612b968661298f565b5f5b82811015612bbd57848901358255600182019150602085019450602081019050612b98565b86831015612bda5784890135612bd6601f891682612aec565b8355505b6001600288020188555050505b50505050505050565b828183375f83830152505050565b5f612c09838561248f565b9350612c16838584612bf0565b612c1f83612230565b840190509392505050565b5f6040820190508181035f830152612c43818587612bfe565b9050612c5260208301846124d7565b949350505050565b5f602082019050612c6d5f8301846124d7565b92915050565b5f8115159050919050565b612c8781612c73565b8114612c91575f80fd5b50565b5f81519050612ca281612c7e565b92915050565b5f60208284031215612cbd57612cbc611e85565b5b5f612cca84828501612c94565b91505092915050565b7f476f7665726e6d656e74206973206e6f7420617574686f72697a6564206173205f8201527f676f7665726e6d656e742e000000000000000000000000000000000000000000602082015250565b5f612d2d602b8361248f565b9150612d3882612cd3565b604082019050919050565b5f6020820190508181035f830152612d5a81612d21565b9050919050565b5f604082019050612d745f830185612480565b612d816020830184612480565b9392505050565b7f4e487b71000000000000000000000000000000000000000000000000000000005f52601160045260245ffd5b5f612dbf82611e8d565b91507fffffffffffffffffffffffffffffffffffffffffffffffffffffffffffffffff8203612df157612df0612d88565b5b600182019050919050565b7f4e487b71000000000000000000000000000000000000000000000000000000005f52603260045260245ffd5b5f80fd5b612e3682612230565b810181811067ffffffffffffffff82111715612e5557612e54612905565b5b80604052505050565b5f612e67611e7c565b9050612e738282612e2d565b919050565b5f80fd5b5f81519050612e8a81611e96565b92915050565b5f80fd5b5f67ffffffffffffffff821115612eae57612ead612905565b5b612eb782612230565b9050602081019050919050565b5f612ed6612ed184612e94565b612e5e565b905082815260208101848484011115612ef257612ef1612e90565b5b612efd848285612208565b509392505050565b5f82601f830112612f1957612f18611f9a565b5b8151612f29848260208601612ec4565b91505092915050565b5f81519050612f4081611f77565b92915050565b5f81519050612f548161202b565b92915050565b5f6101608284031215612f7057612f6f612e29565b5b612f7b610160612e5e565b90505f612f8a84828501612e7c565b5f830152506020612f9d84828501612e7c565b602083015250604082015167ffffffffffffffff811115612fc157612fc0612e78565b5b612fcd84828501612f05565b6040830152506060612fe184828501612e7c565b606083015250608082015167ffffffffffffffff81111561300557613004612e78565b5b61301184828501612f05565b60808301525060a061302584828501612f32565b60a08301525060c082015167ffffffffffffffff81111561304957613048612e78565b5b61305584828501612f05565b60c08301525060e061306984828501612f46565b60e08301525061010061307e84828501612f46565b6101008301525061012061309484828501612f46565b610120830152506101406130aa84828501612e7c565b6101408301525092915050565b5f602082840312156130cc576130cb611e85565b5b5f82015167ffffffffffffffff8111156130e9576130e8611e89565b5b6130f584828501612f5a565b91505092915050565b7f53686172656453746f726167653a204e6577206f776e65722063616e6e6f74205f8201527f6265207a65726f20616464726573732e00000000000000000000000000000000602082015250565b5f61315860308361248f565b9150613163826130fe565b604082019050919050565b5f6020820190508181035f8301526131858161314c565b9050919050565b7f61206d6573736167652066726f6d2053746f7261676520636f6e74726163743a5f8201527f20436f756e74657220696e206e6f742073746172746564207965742100000000602082015250565b5f6131e6603c8361248f565b91506131f18261318c565b604082019050919050565b5f6020820190508181035f830152613213816131da565b9050919050565b5f61322482611e8d565b915061322f83611e8d565b925082820390508181111561324757613246612d88565b5b92915050565b613256826121ee565b67ffffffffffffffff81111561326f5761326e612905565b5b613279825461295f565b613284828285612a9a565b5f60209050601f8311600181146132b5575f84156132a3578287015190505b6132ad8582612b08565b865550613314565b601f1984166132c38661298f565b5f5b828110156132ea578489015182556001820191506020850194506020810190506132c5565b868310156133075784890151613303601f891682612aec565b8355505b6001600288020188555050505b505050505050565b50565b5f61332a5f8361248f565b91506133358261331c565b5f82019050919050565b5f819050919050565b5f61336261335d6133588461333f565b6120d9565b611e8d565b9050919050565b61337281613348565b82525050565b5f6101008201905061338c5f83018c612480565b818103602083015261339f818a8c612bfe565b905081810360408301526133b481888a612bfe565b905081810360608301526133c78161331f565b90506133d660808301876124d7565b6133e360a08301866124d7565b6133f060c08301856124d7565b6133fd60e0830184613369565b9a995050505050505050505056fea2646970667358221220c87edbdb6373481671968e267ece8d95e633a6833f9ab36fd29f9b9d444e582c64736f6c63430008160033",
			"opcodes": "PUSH1 0x80 PUSH1 0x40 MSTORE CALLVALUE DUP1 ISZERO PUSH3 0x10 JUMPI PUSH0 DUP1 REVERT JUMPDEST POP PUSH3 0x23 PUSH1 0xD PUSH3 0x29 PUSH1 0x20 SHL PUSH1 0x20 SHR JUMP JUMPDEST PUSH3 0x3D JUMP JUMPDEST PUSH1 0x1 DUP2 PUSH0 ADD PUSH0 DUP3 DUP3 SLOAD ADD SWAP3 POP POP DUP2 SWAP1 SSTORE POP POP JUMP JUMPDEST PUSH2 0x3441 DUP1 PUSH3 0x4B PUSH0 CODECOPY PUSH0 RETURN INVALID PUSH1 0x80 PUSH1 0x40 MSTORE CALLVALUE DUP1 ISZERO PUSH2 0xF JUMPI PUSH0 DUP1 REVERT JUMPDEST POP PUSH1 0x4 CALLDATASIZE LT PUSH2 0xB2 JUMPI PUSH0 CALLDATALOAD PUSH1 0xE0 SHR DUP1 PUSH4 0x94B665F0 GT PUSH2 0x6F JUMPI DUP1 PUSH4 0x94B665F0 EQ PUSH2 0x19C JUMPI DUP1 PUSH4 0xBACCBA66 EQ PUSH2 0x1C4 JUMPI DUP1 PUSH4 0xCC0266F7 EQ PUSH2 0x1F4 JUMPI DUP1 PUSH4 0xCF61625C EQ PUSH2 0x210 JUMPI DUP1 PUSH4 0xF2C24032 EQ PUSH2 0x22E JUMPI DUP1 PUSH4 0xFF900C50 EQ PUSH2 0x25E JUMPI PUSH2 0xB2 JUMP JUMPDEST DUP1 PUSH4 0x17C1E71A EQ PUSH2 0xB6 JUMPI DUP1 PUSH4 0x1D0476D4 EQ PUSH2 0xE6 JUMPI DUP1 PUSH4 0x3AB76E9F EQ PUSH2 0x102 JUMPI DUP1 PUSH4 0x6162074C EQ PUSH2 0x120 JUMPI DUP1 PUSH4 0x7BC395CD EQ PUSH2 0x13C JUMPI DUP1 PUSH4 0x7F1E5DE7 EQ PUSH2 0x16C JUMPI JUMPDEST PUSH0 DUP1 REVERT JUMPDEST PUSH2 0xD0 PUSH1 0x4 DUP1 CALLDATASIZE SUB DUP2 ADD SWAP1 PUSH2 0xCB SWAP2 SWAP1 PUSH2 0x1EC0 JUMP JUMPDEST PUSH2 0x27A JUMP JUMPDEST PUSH1 0x40 MLOAD PUSH2 0xDD SWAP2 SWAP1 PUSH2 0x1F5E JUMP JUMPDEST PUSH1 0x40 MLOAD DUP1 SWAP2 SUB SWAP1 RETURN JUMPDEST PUSH2 0x100 PUSH1 0x4 DUP1 CALLDATASIZE SUB DUP2 ADD SWAP1 PUSH2 0xFB SWAP2 SWAP1 PUSH2 0x2055 JUMP JUMPDEST PUSH2 0x2F9 JUMP JUMPDEST STOP JUMPDEST PUSH2 0x10A PUSH2 0x4B4 JUMP JUMPDEST PUSH1 0x40 MLOAD PUSH2 0x117 SWAP2 SWAP1 PUSH2 0x2134 JUMP JUMPDEST PUSH1 0x40 MLOAD DUP1 SWAP2 SUB SWAP1 RETURN JUMPDEST PUSH2 0x13A PUSH1 0x4 DUP1 CALLDATASIZE SUB DUP2 ADD SWAP1 PUSH2 0x135 SWAP2 SWAP1 PUSH2 0x214D JUMP JUMPDEST PUSH2 0x4D9 JUMP JUMPDEST STOP JUMPDEST PUSH2 0x156 PUSH1 0x4 DUP1 CALLDATASIZE SUB DUP2 ADD SWAP1 PUSH2 0x151 SWAP2 SWAP1 PUSH2 0x218B JUMP JUMPDEST PUSH2 0x65E JUMP JUMPDEST PUSH1 0x40 MLOAD PUSH2 0x163 SWAP2 SWAP1 PUSH2 0x2422 JUMP JUMPDEST PUSH1 0x40 MLOAD DUP1 SWAP2 SUB SWAP1 RETURN JUMPDEST PUSH2 0x186 PUSH1 0x4 DUP1 CALLDATASIZE SUB DUP2 ADD SWAP1 PUSH2 0x181 SWAP2 SWAP1 PUSH2 0x2442 JUMP JUMPDEST PUSH2 0xB3F JUMP JUMPDEST PUSH1 0x40 MLOAD PUSH2 0x193 SWAP2 SWAP1 PUSH2 0x2422 JUMP JUMPDEST PUSH1 0x40 MLOAD DUP1 SWAP2 SUB SWAP1 RETURN JUMPDEST PUSH2 0x1A4 PUSH2 0x10C1 JUMP JUMPDEST PUSH1 0x40 MLOAD PUSH2 0x1BB SWAP12 SWAP11 SWAP10 SWAP9 SWAP8 SWAP7 SWAP6 SWAP5 SWAP4 SWAP3 SWAP2 SWAP1 PUSH2 0x24E6 JUMP JUMPDEST PUSH1 0x40 MLOAD DUP1 SWAP2 SUB SWAP1 RETURN JUMPDEST PUSH2 0x1DE PUSH1 0x4 DUP1 CALLDATASIZE SUB DUP2 ADD SWAP1 PUSH2 0x1D9 SWAP2 SWAP1 PUSH2 0x218B JUMP JUMPDEST PUSH2 0x1302 JUMP JUMPDEST PUSH1 0x40 MLOAD PUSH2 0x1EB SWAP2 SWAP1 PUSH2 0x2422 JUMP JUMPDEST PUSH1 0x40 MLOAD DUP1 SWAP2 SUB SWAP1 RETURN JUMPDEST PUSH2 0x20E PUSH1 0x4 DUP1 CALLDATASIZE SUB DUP2 ADD SWAP1 PUSH2 0x209 SWAP2 SWAP1 PUSH2 0x25A4 JUMP JUMPDEST PUSH2 0x151E JUMP JUMPDEST STOP JUMPDEST PUSH2 0x218 PUSH2 0x167D JUMP JUMPDEST PUSH1 0x40 MLOAD PUSH2 0x225 SWAP2 SWAP1 PUSH2 0x25E2 JUMP JUMPDEST PUSH1 0x40 MLOAD DUP1 SWAP2 SUB SWAP1 RETURN JUMPDEST PUSH2 0x248 PUSH1 0x4 DUP1 CALLDATASIZE SUB DUP2 ADD SWAP1 PUSH2 0x243 SWAP2 SWAP1 PUSH2 0x1EC0 JUMP JUMPDEST PUSH2 0x16E4 JUMP JUMPDEST PUSH1 0x40 MLOAD PUSH2 0x255 SWAP2 SWAP1 PUSH2 0x26F5 JUMP JUMPDEST PUSH1 0x40 MLOAD DUP1 SWAP2 SUB SWAP1 RETURN JUMPDEST PUSH2 0x278 PUSH1 0x4 DUP1 CALLDATASIZE SUB DUP2 ADD SWAP1 PUSH2 0x273 SWAP2 SWAP1 PUSH2 0x2715 JUMP JUMPDEST PUSH2 0x1A77 JUMP JUMPDEST STOP JUMPDEST PUSH0 DUP1 PUSH1 0xC PUSH0 DUP5 DUP2 MSTORE PUSH1 0x20 ADD SWAP1 DUP2 MSTORE PUSH1 0x20 ADD PUSH0 KECCAK256 PUSH0 ADD SLOAD LT ISZERO PUSH2 0x2D1 JUMPI PUSH1 0x40 MLOAD PUSH32 0x8C379A000000000000000000000000000000000000000000000000000000000 DUP2 MSTORE PUSH1 0x4 ADD PUSH2 0x2C8 SWAP1 PUSH2 0x284F JUMP JUMPDEST PUSH1 0x40 MLOAD DUP1 SWAP2 SUB SWAP1 REVERT JUMPDEST PUSH1 0xC PUSH0 DUP4 DUP2 MSTORE PUSH1 0x20 ADD SWAP1 DUP2 MSTORE PUSH1 0x20 ADD PUSH0 KECCAK256 PUSH1 0x5 ADD PUSH0 SWAP1 SLOAD SWAP1 PUSH2 0x100 EXP SWAP1 DIV PUSH1 0xFF AND SWAP1 POP SWAP2 SWAP1 POP JUMP JUMPDEST DUP5 PUSH0 PUSH1 0xC PUSH0 DUP4 DUP2 MSTORE PUSH1 0x20 ADD SWAP1 DUP2 MSTORE PUSH1 0x20 ADD PUSH0 KECCAK256 PUSH0 ADD SLOAD GT PUSH2 0x34F JUMPI PUSH1 0x40 MLOAD PUSH32 0x8C379A000000000000000000000000000000000000000000000000000000000 DUP2 MSTORE PUSH1 0x4 ADD PUSH2 0x346 SWAP1 PUSH2 0x28DD JUMP JUMPDEST PUSH1 0x40 MLOAD DUP1 SWAP2 SUB SWAP1 REVERT JUMPDEST DUP5 PUSH1 0xC PUSH0 DUP9 DUP2 MSTORE PUSH1 0x20 ADD SWAP1 DUP2 MSTORE PUSH1 0x20 ADD PUSH0 KECCAK256 PUSH1 0x5 ADD PUSH0 PUSH2 0x100 EXP DUP2 SLOAD DUP2 PUSH1 0xFF MUL NOT AND SWAP1 DUP4 PUSH1 0x6 DUP2 GT ISZERO PUSH2 0x385 JUMPI PUSH2 0x384 PUSH2 0x1EEB JUMP JUMPDEST JUMPDEST MUL OR SWAP1 SSTORE POP PUSH1 0x2 PUSH1 0x6 DUP2 GT ISZERO PUSH2 0x39E JUMPI PUSH2 0x39D PUSH2 0x1EEB JUMP JUMPDEST JUMPDEST DUP6 PUSH1 0x6 DUP2 GT ISZERO PUSH2 0x3B1 JUMPI PUSH2 0x3B0 PUSH2 0x1EEB JUMP JUMPDEST JUMPDEST EQ DUP1 PUSH2 0x3E1 JUMPI POP PUSH1 0x3 PUSH1 0x6 DUP2 GT ISZERO PUSH2 0x3CC JUMPI PUSH2 0x3CB PUSH2 0x1EEB JUMP JUMPDEST JUMPDEST DUP6 PUSH1 0x6 DUP2 GT ISZERO PUSH2 0x3DF JUMPI PUSH2 0x3DE PUSH2 0x1EEB JUMP JUMPDEST JUMPDEST EQ JUMPDEST ISZERO PUSH2 0x45D JUMPI DUP4 DUP4 PUSH1 0xC PUSH0 DUP10 DUP2 MSTORE PUSH1 0x20 ADD SWAP1 DUP2 MSTORE PUSH1 0x20 ADD PUSH0 KECCAK256 PUSH1 0x6 ADD SWAP2 DUP3 PUSH2 0x409 SWAP3 SWAP2 SWAP1 PUSH2 0x2B23 JUMP JUMPDEST POP DUP2 PUSH1 0xC PUSH0 DUP9 DUP2 MSTORE PUSH1 0x20 ADD SWAP1 DUP2 MSTORE PUSH1 0x20 ADD PUSH0 KECCAK256 PUSH1 0x7 ADD PUSH0 PUSH2 0x100 EXP DUP2 SLOAD DUP2 PUSH20 0xFFFFFFFFFFFFFFFFFFFFFFFFFFFFFFFFFFFFFFFF MUL NOT AND SWAP1 DUP4 PUSH20 0xFFFFFFFFFFFFFFFFFFFFFFFFFFFFFFFFFFFFFFFF AND MUL OR SWAP1 SSTORE POP JUMPDEST DUP5 PUSH1 0x6 DUP2 GT ISZERO PUSH2 0x470 JUMPI PUSH2 0x46F PUSH2 0x1EEB JUMP JUMPDEST JUMPDEST DUP7 PUSH32 0xDAD1EB2F26E1DEAE81185F40D91508B624E27982264501B3328CE68B7A929B1F DUP7 DUP7 DUP7 PUSH1 0x40 MLOAD PUSH2 0x4A4 SWAP4 SWAP3 SWAP2 SWAP1 PUSH2 0x2C2A JUMP JUMPDEST PUSH1 0x40 MLOAD DUP1 SWAP2 SUB SWAP1 LOG3 POP POP POP POP POP POP JUMP JUMPDEST PUSH1 0xB PUSH0 SWAP1 SLOAD SWAP1 PUSH2 0x100 EXP SWAP1 DIV PUSH20 0xFFFFFFFFFFFFFFFFFFFFFFFFFFFFFFFFFFFFFFFF AND DUP2 JUMP JUMPDEST PUSH1 0xB PUSH0 SWAP1 SLOAD SWAP1 PUSH2 0x100 EXP SWAP1 DIV PUSH20 0xFFFFFFFFFFFFFFFFFFFFFFFFFFFFFFFFFFFFFFFF AND PUSH20 0xFFFFFFFFFFFFFFFFFFFFFFFFFFFFFFFFFFFFFFFF AND PUSH4 0xFD8CDD32 CALLER PUSH1 0x40 MLOAD DUP3 PUSH4 0xFFFFFFFF AND PUSH1 0xE0 SHL DUP2 MSTORE PUSH1 0x4 ADD PUSH2 0x533 SWAP2 SWAP1 PUSH2 0x2C5A JUMP JUMPDEST PUSH1 0x20 PUSH1 0x40 MLOAD DUP1 DUP4 SUB DUP2 DUP7 GAS STATICCALL ISZERO DUP1 ISZERO PUSH2 0x54E JUMPI RETURNDATASIZE PUSH0 DUP1 RETURNDATACOPY RETURNDATASIZE PUSH0 REVERT JUMPDEST POP POP POP POP PUSH1 0x40 MLOAD RETURNDATASIZE PUSH1 0x1F NOT PUSH1 0x1F DUP3 ADD AND DUP3 ADD DUP1 PUSH1 0x40 MSTORE POP DUP2 ADD SWAP1 PUSH2 0x572 SWAP2 SWAP1 PUSH2 0x2CA8 JUMP JUMPDEST PUSH2 0x5B1 JUMPI PUSH1 0x40 MLOAD PUSH32 0x8C379A000000000000000000000000000000000000000000000000000000000 DUP2 MSTORE PUSH1 0x4 ADD PUSH2 0x5A8 SWAP1 PUSH2 0x2D43 JUMP JUMPDEST PUSH1 0x40 MLOAD DUP1 SWAP2 SUB SWAP1 REVERT JUMPDEST DUP2 PUSH0 PUSH1 0xC PUSH0 DUP4 DUP2 MSTORE PUSH1 0x20 ADD SWAP1 DUP2 MSTORE PUSH1 0x20 ADD PUSH0 KECCAK256 PUSH0 ADD SLOAD GT PUSH2 0x607 JUMPI PUSH1 0x40 MLOAD PUSH32 0x8C379A000000000000000000000000000000000000000000000000000000000 DUP2 MSTORE PUSH1 0x4 ADD PUSH2 0x5FE SWAP1 PUSH2 0x28DD JUMP JUMPDEST PUSH1 0x40 MLOAD DUP1 SWAP2 SUB SWAP1 REVERT JUMPDEST DUP2 PUSH1 0xC PUSH0 DUP6 DUP2 MSTORE PUSH1 0x20 ADD SWAP1 DUP2 MSTORE PUSH1 0x20 ADD PUSH0 KECCAK256 PUSH1 0xA ADD DUP2 SWAP1 SSTORE POP PUSH32 0x2360BFA7A3154A307EF95BD0CE61C1E8E734578C9829EFD159DA5F46AE0E2A26 DUP4 DUP4 PUSH1 0x40 MLOAD PUSH2 0x651 SWAP3 SWAP2 SWAP1 PUSH2 0x2D61 JUMP JUMPDEST PUSH1 0x40 MLOAD DUP1 SWAP2 SUB SWAP1 LOG1 POP POP POP JUMP JUMPDEST PUSH1 0x60 PUSH0 PUSH2 0x66B PUSH1 0xD PUSH2 0x1DB6 JUMP JUMPDEST SWAP1 POP PUSH0 DUP1 PUSH1 0x1 SWAP1 POP JUMPDEST DUP3 DUP2 LT ISZERO PUSH2 0x6FE JUMPI DUP5 PUSH20 0xFFFFFFFFFFFFFFFFFFFFFFFFFFFFFFFFFFFFFFFF AND PUSH1 0xC PUSH0 DUP4 DUP2 MSTORE PUSH1 0x20 ADD SWAP1 DUP2 MSTORE PUSH1 0x20 ADD PUSH0 KECCAK256 PUSH1 0x9 ADD PUSH0 SWAP1 SLOAD SWAP1 PUSH2 0x100 EXP SWAP1 DIV PUSH20 0xFFFFFFFFFFFFFFFFFFFFFFFFFFFFFFFFFFFFFFFF AND PUSH20 0xFFFFFFFFFFFFFFFFFFFFFFFFFFFFFFFFFFFFFFFF AND SUB PUSH2 0x6F1 JUMPI DUP2 DUP1 PUSH2 0x6ED SWAP1 PUSH2 0x2DB5 JUMP JUMPDEST SWAP3 POP POP JUMPDEST DUP1 DUP1 PUSH1 0x1 ADD SWAP2 POP POP PUSH2 0x674 JUMP JUMPDEST POP PUSH0 DUP2 PUSH8 0xFFFFFFFFFFFFFFFF DUP2 GT ISZERO PUSH2 0x71A JUMPI PUSH2 0x719 PUSH2 0x2905 JUMP JUMPDEST JUMPDEST PUSH1 0x40 MLOAD SWAP1 DUP1 DUP3 MSTORE DUP1 PUSH1 0x20 MUL PUSH1 0x20 ADD DUP3 ADD PUSH1 0x40 MSTORE DUP1 ISZERO PUSH2 0x753 JUMPI DUP2 PUSH1 0x20 ADD JUMPDEST PUSH2 0x740 PUSH2 0x1DD6 JUMP JUMPDEST DUP2 MSTORE PUSH1 0x20 ADD SWAP1 PUSH1 0x1 SWAP1 SUB SWAP1 DUP2 PUSH2 0x738 JUMPI SWAP1 POP JUMPDEST POP SWAP1 POP PUSH0 DUP1 PUSH1 0x1 SWAP1 POP JUMPDEST DUP5 DUP2 LT ISZERO PUSH2 0xB32 JUMPI DUP7 PUSH20 0xFFFFFFFFFFFFFFFFFFFFFFFFFFFFFFFFFFFFFFFF AND PUSH1 0xC PUSH0 DUP4 DUP2 MSTORE PUSH1 0x20 ADD SWAP1 DUP2 MSTORE PUSH1 0x20 ADD PUSH0 KECCAK256 PUSH1 0x9 ADD PUSH0 SWAP1 SLOAD SWAP1 PUSH2 0x100 EXP SWAP1 DIV PUSH20 0xFFFFFFFFFFFFFFFFFFFFFFFFFFFFFFFFFFFFFFFF AND PUSH20 0xFFFFFFFFFFFFFFFFFFFFFFFFFFFFFFFFFFFFFFFF AND SUB PUSH2 0xB25 JUMPI PUSH1 0xC PUSH0 DUP3 DUP2 MSTORE PUSH1 0x20 ADD SWAP1 DUP2 MSTORE PUSH1 0x20 ADD PUSH0 KECCAK256 PUSH1 0x40 MLOAD DUP1 PUSH2 0x160 ADD PUSH1 0x40 MSTORE SWAP1 DUP2 PUSH0 DUP3 ADD SLOAD DUP2 MSTORE PUSH1 0x20 ADD PUSH1 0x1 DUP3 ADD SLOAD DUP2 MSTORE PUSH1 0x20 ADD PUSH1 0x2 DUP3 ADD DUP1 SLOAD PUSH2 0x80B SWAP1 PUSH2 0x295F JUMP JUMPDEST DUP1 PUSH1 0x1F ADD PUSH1 0x20 DUP1 SWAP2 DIV MUL PUSH1 0x20 ADD PUSH1 0x40 MLOAD SWAP1 DUP2 ADD PUSH1 0x40 MSTORE DUP1 SWAP3 SWAP2 SWAP1 DUP2 DUP2 MSTORE PUSH1 0x20 ADD DUP3 DUP1 SLOAD PUSH2 0x837 SWAP1 PUSH2 0x295F JUMP JUMPDEST DUP1 ISZERO PUSH2 0x882 JUMPI DUP1 PUSH1 0x1F LT PUSH2 0x859 JUMPI PUSH2 0x100 DUP1 DUP4 SLOAD DIV MUL DUP4 MSTORE SWAP2 PUSH1 0x20 ADD SWAP2 PUSH2 0x882 JUMP JUMPDEST DUP3 ADD SWAP2 SWAP1 PUSH0 MSTORE PUSH1 0x20 PUSH0 KECCAK256 SWAP1 JUMPDEST DUP2 SLOAD DUP2 MSTORE SWAP1 PUSH1 0x1 ADD SWAP1 PUSH1 0x20 ADD DUP1 DUP4 GT PUSH2 0x865 JUMPI DUP3 SWAP1 SUB PUSH1 0x1F AND DUP3 ADD SWAP2 JUMPDEST POP POP POP POP POP DUP2 MSTORE PUSH1 0x20 ADD PUSH1 0x3 DUP3 ADD SLOAD DUP2 MSTORE PUSH1 0x20 ADD PUSH1 0x4 DUP3 ADD DUP1 SLOAD PUSH2 0x8A5 SWAP1 PUSH2 0x295F JUMP JUMPDEST DUP1 PUSH1 0x1F ADD PUSH1 0x20 DUP1 SWAP2 DIV MUL PUSH1 0x20 ADD PUSH1 0x40 MLOAD SWAP1 DUP2 ADD PUSH1 0x40 MSTORE DUP1 SWAP3 SWAP2 SWAP1 DUP2 DUP2 MSTORE PUSH1 0x20 ADD DUP3 DUP1 SLOAD PUSH2 0x8D1 SWAP1 PUSH2 0x295F JUMP JUMPDEST DUP1 ISZERO PUSH2 0x91C JUMPI DUP1 PUSH1 0x1F LT PUSH2 0x8F3 JUMPI PUSH2 0x100 DUP1 DUP4 SLOAD DIV MUL DUP4 MSTORE SWAP2 PUSH1 0x20 ADD SWAP2 PUSH2 0x91C JUMP JUMPDEST DUP3 ADD SWAP2 SWAP1 PUSH0 MSTORE PUSH1 0x20 PUSH0 KECCAK256 SWAP1 JUMPDEST DUP2 SLOAD DUP2 MSTORE SWAP1 PUSH1 0x1 ADD SWAP1 PUSH1 0x20 ADD DUP1 DUP4 GT PUSH2 0x8FF JUMPI DUP3 SWAP1 SUB PUSH1 0x1F AND DUP3 ADD SWAP2 JUMPDEST POP POP POP POP POP DUP2 MSTORE PUSH1 0x20 ADD PUSH1 0x5 DUP3 ADD PUSH0 SWAP1 SLOAD SWAP1 PUSH2 0x100 EXP SWAP1 DIV PUSH1 0xFF AND PUSH1 0x6 DUP2 GT ISZERO PUSH2 0x949 JUMPI PUSH2 0x948 PUSH2 0x1EEB JUMP JUMPDEST JUMPDEST PUSH1 0x6 DUP2 GT ISZERO PUSH2 0x95B JUMPI PUSH2 0x95A PUSH2 0x1EEB JUMP JUMPDEST JUMPDEST DUP2 MSTORE PUSH1 0x20 ADD PUSH1 0x6 DUP3 ADD DUP1 SLOAD PUSH2 0x96F SWAP1 PUSH2 0x295F JUMP JUMPDEST DUP1 PUSH1 0x1F ADD PUSH1 0x20 DUP1 SWAP2 DIV MUL PUSH1 0x20 ADD PUSH1 0x40 MLOAD SWAP1 DUP2 ADD PUSH1 0x40 MSTORE DUP1 SWAP3 SWAP2 SWAP1 DUP2 DUP2 MSTORE PUSH1 0x20 ADD DUP3 DUP1 SLOAD PUSH2 0x99B SWAP1 PUSH2 0x295F JUMP JUMPDEST DUP1 ISZERO PUSH2 0x9E6 JUMPI DUP1 PUSH1 0x1F LT PUSH2 0x9BD JUMPI PUSH2 0x100 DUP1 DUP4 SLOAD DIV MUL DUP4 MSTORE SWAP2 PUSH1 0x20 ADD SWAP2 PUSH2 0x9E6 JUMP JUMPDEST DUP3 ADD SWAP2 SWAP1 PUSH0 MSTORE PUSH1 0x20 PUSH0 KECCAK256 SWAP1 JUMPDEST DUP2 SLOAD DUP2 MSTORE SWAP1 PUSH1 0x1 ADD SWAP1 PUSH1 0x20 ADD DUP1 DUP4 GT PUSH2 0x9C9 JUMPI DUP3 SWAP1 SUB PUSH1 0x1F AND DUP3 ADD SWAP2 JUMPDEST POP POP POP POP POP DUP2 MSTORE PUSH1 0x20 ADD PUSH1 0x7 DUP3 ADD PUSH0 SWAP1 SLOAD SWAP1 PUSH2 0x100 EXP SWAP1 DIV PUSH20 0xFFFFFFFFFFFFFFFFFFFFFFFFFFFFFFFFFFFFFFFF AND PUSH20 0xFFFFFFFFFFFFFFFFFFFFFFFFFFFFFFFFFFFFFFFF AND PUSH20 0xFFFFFFFFFFFFFFFFFFFFFFFFFFFFFFFFFFFFFFFF AND DUP2 MSTORE PUSH1 0x20 ADD PUSH1 0x8 DUP3 ADD PUSH0 SWAP1 SLOAD SWAP1 PUSH2 0x100 EXP SWAP1 DIV PUSH20 0xFFFFFFFFFFFFFFFFFFFFFFFFFFFFFFFFFFFFFFFF AND PUSH20 0xFFFFFFFFFFFFFFFFFFFFFFFFFFFFFFFFFFFFFFFF AND PUSH20 0xFFFFFFFFFFFFFFFFFFFFFFFFFFFFFFFFFFFFFFFF AND DUP2 MSTORE PUSH1 0x20 ADD PUSH1 0x9 DUP3 ADD PUSH0 SWAP1 SLOAD SWAP1 PUSH2 0x100 EXP SWAP1 DIV PUSH20 0xFFFFFFFFFFFFFFFFFFFFFFFFFFFFFFFFFFFFFFFF AND PUSH20 0xFFFFFFFFFFFFFFFFFFFFFFFFFFFFFFFFFFFFFFFF AND PUSH20 0xFFFFFFFFFFFFFFFFFFFFFFFFFFFFFFFFFFFFFFFF AND DUP2 MSTORE PUSH1 0x20 ADD PUSH1 0xA DUP3 ADD SLOAD DUP2 MSTORE POP POP DUP4 DUP4 DUP2 MLOAD DUP2 LT PUSH2 0xB0B JUMPI PUSH2 0xB0A PUSH2 0x2DFC JUMP JUMPDEST JUMPDEST PUSH1 0x20 MUL PUSH1 0x20 ADD ADD DUP2 SWAP1 MSTORE POP DUP2 DUP1 PUSH2 0xB21 SWAP1 PUSH2 0x2DB5 JUMP JUMPDEST SWAP3 POP POP JUMPDEST DUP1 DUP1 PUSH1 0x1 ADD SWAP2 POP POP PUSH2 0x75D JUMP JUMPDEST POP DUP2 SWAP5 POP POP POP POP POP SWAP2 SWAP1 POP JUMP JUMPDEST PUSH1 0x60 PUSH0 PUSH2 0xB4C PUSH1 0xD PUSH2 0x1DB6 JUMP JUMPDEST SWAP1 POP PUSH0 DUP1 PUSH1 0x1 SWAP1 POP JUMPDEST DUP3 DUP2 LT ISZERO PUSH2 0xC2F JUMPI DUP6 PUSH20 0xFFFFFFFFFFFFFFFFFFFFFFFFFFFFFFFFFFFFFFFF AND PUSH1 0xC PUSH0 DUP4 DUP2 MSTORE PUSH1 0x20 ADD SWAP1 DUP2 MSTORE PUSH1 0x20 ADD PUSH0 KECCAK256 PUSH1 0x9 ADD PUSH0 SWAP1 SLOAD SWAP1 PUSH2 0x100 EXP SWAP1 DIV PUSH20 0xFFFFFFFFFFFFFFFFFFFFFFFFFFFFFFFFFFFFFFFF AND PUSH20 0xFFFFFFFFFFFFFFFFFFFFFFFFFFFFFFFFFFFFFFFF AND EQ DUP1 ISZERO PUSH2 0xC0E JUMPI POP DUP5 PUSH1 0x6 DUP2 GT ISZERO PUSH2 0xBD9 JUMPI PUSH2 0xBD8 PUSH2 0x1EEB JUMP JUMPDEST JUMPDEST PUSH1 0xC PUSH0 DUP4 DUP2 MSTORE PUSH1 0x20 ADD SWAP1 DUP2 MSTORE PUSH1 0x20 ADD PUSH0 KECCAK256 PUSH1 0x5 ADD PUSH0 SWAP1 SLOAD SWAP1 PUSH2 0x100 EXP SWAP1 DIV PUSH1 0xFF AND PUSH1 0x6 DUP2 GT ISZERO PUSH2 0xC0C JUMPI PUSH2 0xC0B PUSH2 0x1EEB JUMP JUMPDEST JUMPDEST EQ JUMPDEST ISZERO PUSH2 0xC22 JUMPI DUP2 DUP1 PUSH2 0xC1E SWAP1 PUSH2 0x2DB5 JUMP JUMPDEST SWAP3 POP POP JUMPDEST DUP1 DUP1 PUSH1 0x1 ADD SWAP2 POP POP PUSH2 0xB55 JUMP JUMPDEST POP PUSH0 DUP2 PUSH8 0xFFFFFFFFFFFFFFFF DUP2 GT ISZERO PUSH2 0xC4B JUMPI PUSH2 0xC4A PUSH2 0x2905 JUMP JUMPDEST JUMPDEST PUSH1 0x40 MLOAD SWAP1 DUP1 DUP3 MSTORE DUP1 PUSH1 0x20 MUL PUSH1 0x20 ADD DUP3 ADD PUSH1 0x40 MSTORE DUP1 ISZERO PUSH2 0xC84 JUMPI DUP2 PUSH1 0x20 ADD JUMPDEST PUSH2 0xC71 PUSH2 0x1DD6 JUMP JUMPDEST DUP2 MSTORE PUSH1 0x20 ADD SWAP1 PUSH1 0x1 SWAP1 SUB SWAP1 DUP2 PUSH2 0xC69 JUMPI SWAP1 POP JUMPDEST POP SWAP1 POP PUSH0 DUP1 PUSH1 0x1 SWAP1 POP JUMPDEST DUP5 DUP2 LT ISZERO PUSH2 0x10B3 JUMPI DUP8 PUSH20 0xFFFFFFFFFFFFFFFFFFFFFFFFFFFFFFFFFFFFFFFF AND PUSH1 0xC PUSH0 DUP4 DUP2 MSTORE PUSH1 0x20 ADD SWAP1 DUP2 MSTORE PUSH1 0x20 ADD PUSH0 KECCAK256 PUSH1 0x9 ADD PUSH0 SWAP1 SLOAD SWAP1 PUSH2 0x100 EXP SWAP1 DIV PUSH20 0xFFFFFFFFFFFFFFFFFFFFFFFFFFFFFFFFFFFFFFFF AND PUSH20 0xFFFFFFFFFFFFFFFFFFFFFFFFFFFFFFFFFFFFFFFF AND EQ DUP1 ISZERO PUSH2 0xD47 JUMPI POP DUP7 PUSH1 0x6 DUP2 GT ISZERO PUSH2 0xD12 JUMPI PUSH2 0xD11 PUSH2 0x1EEB JUMP JUMPDEST JUMPDEST PUSH1 0xC PUSH0 DUP4 DUP2 MSTORE PUSH1 0x20 ADD SWAP1 DUP2 MSTORE PUSH1 0x20 ADD PUSH0 KECCAK256 PUSH1 0x5 ADD PUSH0 SWAP1 SLOAD SWAP1 PUSH2 0x100 EXP SWAP1 DIV PUSH1 0xFF AND PUSH1 0x6 DUP2 GT ISZERO PUSH2 0xD45 JUMPI PUSH2 0xD44 PUSH2 0x1EEB JUMP JUMPDEST JUMPDEST EQ JUMPDEST ISZERO PUSH2 0x10A6 JUMPI PUSH1 0xC PUSH0 DUP3 DUP2 MSTORE PUSH1 0x20 ADD SWAP1 DUP2 MSTORE PUSH1 0x20 ADD PUSH0 KECCAK256 PUSH1 0x40 MLOAD DUP1 PUSH2 0x160 ADD PUSH1 0x40 MSTORE SWAP1 DUP2 PUSH0 DUP3 ADD SLOAD DUP2 MSTORE PUSH1 0x20 ADD PUSH1 0x1 DUP3 ADD SLOAD DUP2 MSTORE PUSH1 0x20 ADD PUSH1 0x2 DUP3 ADD DUP1 SLOAD PUSH2 0xD8C SWAP1 PUSH2 0x295F JUMP JUMPDEST DUP1 PUSH1 0x1F ADD PUSH1 0x20 DUP1 SWAP2 DIV MUL PUSH1 0x20 ADD PUSH1 0x40 MLOAD SWAP1 DUP2 ADD PUSH1 0x40 MSTORE DUP1 SWAP3 SWAP2 SWAP1 DUP2 DUP2 MSTORE PUSH1 0x20 ADD DUP3 DUP1 SLOAD PUSH2 0xDB8 SWAP1 PUSH2 0x295F JUMP JUMPDEST DUP1 ISZERO PUSH2 0xE03 JUMPI DUP1 PUSH1 0x1F LT PUSH2 0xDDA JUMPI PUSH2 0x100 DUP1 DUP4 SLOAD DIV MUL DUP4 MSTORE SWAP2 PUSH1 0x20 ADD SWAP2 PUSH2 0xE03 JUMP JUMPDEST DUP3 ADD SWAP2 SWAP1 PUSH0 MSTORE PUSH1 0x20 PUSH0 KECCAK256 SWAP1 JUMPDEST DUP2 SLOAD DUP2 MSTORE SWAP1 PUSH1 0x1 ADD SWAP1 PUSH1 0x20 ADD DUP1 DUP4 GT PUSH2 0xDE6 JUMPI DUP3 SWAP1 SUB PUSH1 0x1F AND DUP3 ADD SWAP2 JUMPDEST POP POP POP POP POP DUP2 MSTORE PUSH1 0x20 ADD PUSH1 0x3 DUP3 ADD SLOAD DUP2 MSTORE PUSH1 0x20 ADD PUSH1 0x4 DUP3 ADD DUP1 SLOAD PUSH2 0xE26 SWAP1 PUSH2 0x295F JUMP JUMPDEST DUP1 PUSH1 0x1F ADD PUSH1 0x20 DUP1 SWAP2 DIV MUL PUSH1 0x20 ADD PUSH1 0x40 MLOAD SWAP1 DUP2 ADD PUSH1 0x40 MSTORE DUP1 SWAP3 SWAP2 SWAP1 DUP2 DUP2 MSTORE PUSH1 0x20 ADD DUP3 DUP1 SLOAD PUSH2 0xE52 SWAP1 PUSH2 0x295F JUMP JUMPDEST DUP1 ISZERO PUSH2 0xE9D JUMPI DUP1 PUSH1 0x1F LT PUSH2 0xE74 JUMPI PUSH2 0x100 DUP1 DUP4 SLOAD DIV MUL DUP4 MSTORE SWAP2 PUSH1 0x20 ADD SWAP2 PUSH2 0xE9D JUMP JUMPDEST DUP3 ADD SWAP2 SWAP1 PUSH0 MSTORE PUSH1 0x20 PUSH0 KECCAK256 SWAP1 JUMPDEST DUP2 SLOAD DUP2 MSTORE SWAP1 PUSH1 0x1 ADD SWAP1 PUSH1 0x20 ADD DUP1 DUP4 GT PUSH2 0xE80 JUMPI DUP3 SWAP1 SUB PUSH1 0x1F AND DUP3 ADD SWAP2 JUMPDEST POP POP POP POP POP DUP2 MSTORE PUSH1 0x20 ADD PUSH1 0x5 DUP3 ADD PUSH0 SWAP1 SLOAD SWAP1 PUSH2 0x100 EXP SWAP1 DIV PUSH1 0xFF AND PUSH1 0x6 DUP2 GT ISZERO PUSH2 0xECA JUMPI PUSH2 0xEC9 PUSH2 0x1EEB JUMP JUMPDEST JUMPDEST PUSH1 0x6 DUP2 GT ISZERO PUSH2 0xEDC JUMPI PUSH2 0xEDB PUSH2 0x1EEB JUMP JUMPDEST JUMPDEST DUP2 MSTORE PUSH1 0x20 ADD PUSH1 0x6 DUP3 ADD DUP1 SLOAD PUSH2 0xEF0 SWAP1 PUSH2 0x295F JUMP JUMPDEST DUP1 PUSH1 0x1F ADD PUSH1 0x20 DUP1 SWAP2 DIV MUL PUSH1 0x20 ADD PUSH1 0x40 MLOAD SWAP1 DUP2 ADD PUSH1 0x40 MSTORE DUP1 SWAP3 SWAP2 SWAP1 DUP2 DUP2 MSTORE PUSH1 0x20 ADD DUP3 DUP1 SLOAD PUSH2 0xF1C SWAP1 PUSH2 0x295F JUMP JUMPDEST DUP1 ISZERO PUSH2 0xF67 JUMPI DUP1 PUSH1 0x1F LT PUSH2 0xF3E JUMPI PUSH2 0x100 DUP1 DUP4 SLOAD DIV MUL DUP4 MSTORE SWAP2 PUSH1 0x20 ADD SWAP2 PUSH2 0xF67 JUMP JUMPDEST DUP3 ADD SWAP2 SWAP1 PUSH0 MSTORE PUSH1 0x20 PUSH0 KECCAK256 SWAP1 JUMPDEST DUP2 SLOAD DUP2 MSTORE SWAP1 PUSH1 0x1 ADD SWAP1 PUSH1 0x20 ADD DUP1 DUP4 GT PUSH2 0xF4A JUMPI DUP3 SWAP1 SUB PUSH1 0x1F AND DUP3 ADD SWAP2 JUMPDEST POP POP POP POP POP DUP2 MSTORE PUSH1 0x20 ADD PUSH1 0x7 DUP3 ADD PUSH0 SWAP1 SLOAD SWAP1 PUSH2 0x100 EXP SWAP1 DIV PUSH20 0xFFFFFFFFFFFFFFFFFFFFFFFFFFFFFFFFFFFFFFFF AND PUSH20 0xFFFFFFFFFFFFFFFFFFFFFFFFFFFFFFFFFFFFFFFF AND PUSH20 0xFFFFFFFFFFFFFFFFFFFFFFFFFFFFFFFFFFFFFFFF AND DUP2 MSTORE PUSH1 0x20 ADD PUSH1 0x8 DUP3 ADD PUSH0 SWAP1 SLOAD SWAP1 PUSH2 0x100 EXP SWAP1 DIV PUSH20 0xFFFFFFFFFFFFFFFFFFFFFFFFFFFFFFFFFFFFFFFF AND PUSH20 0xFFFFFFFFFFFFFFFFFFFFFFFFFFFFFFFFFFFFFFFF AND PUSH20 0xFFFFFFFFFFFFFFFFFFFFFFFFFFFFFFFFFFFFFFFF AND DUP2 MSTORE PUSH1 0x20 ADD PUSH1 0x9 DUP3 ADD PUSH0 SWAP1 SLOAD SWAP1 PUSH2 0x100 EXP SWAP1 DIV PUSH20 0xFFFFFFFFFFFFFFFFFFFFFFFFFFFFFFFFFFFFFFFF AND PUSH20 0xFFFFFFFFFFFFFFFFFFFFFFFFFFFFFFFFFFFFFFFF AND PUSH20 0xFFFFFFFFFFFFFFFFFFFFFFFFFFFFFFFFFFFFFFFF AND DUP2 MSTORE PUSH1 0x20 ADD PUSH1 0xA DUP3 ADD SLOAD DUP2 MSTORE POP POP DUP4 DUP4 DUP2 MLOAD DUP2 LT PUSH2 0x108C JUMPI PUSH2 0x108B PUSH2 0x2DFC JUMP JUMPDEST JUMPDEST PUSH1 0x20 MUL PUSH1 0x20 ADD ADD DUP2 SWAP1 MSTORE POP DUP2 DUP1 PUSH2 0x10A2 SWAP1 PUSH2 0x2DB5 JUMP JUMPDEST SWAP3 POP POP JUMPDEST DUP1 DUP1 PUSH1 0x1 ADD SWAP2 POP POP PUSH2 0xC8E JUMP JUMPDEST POP DUP2 SWAP5 POP POP POP POP POP SWAP3 SWAP2 POP POP JUMP JUMPDEST PUSH0 DUP1 PUSH0 ADD SLOAD SWAP1 DUP1 PUSH1 0x1 ADD SLOAD SWAP1 DUP1 PUSH1 0x2 ADD DUP1 SLOAD PUSH2 0x10DC SWAP1 PUSH2 0x295F JUMP JUMPDEST DUP1 PUSH1 0x1F ADD PUSH1 0x20 DUP1 SWAP2 DIV MUL PUSH1 0x20 ADD PUSH1 0x40 MLOAD SWAP1 DUP2 ADD PUSH1 0x40 MSTORE DUP1 SWAP3 SWAP2 SWAP1 DUP2 DUP2 MSTORE PUSH1 0x20 ADD DUP3 DUP1 SLOAD PUSH2 0x1108 SWAP1 PUSH2 0x295F JUMP JUMPDEST DUP1 ISZERO PUSH2 0x1153 JUMPI DUP1 PUSH1 0x1F LT PUSH2 0x112A JUMPI PUSH2 0x100 DUP1 DUP4 SLOAD DIV MUL DUP4 MSTORE SWAP2 PUSH1 0x20 ADD SWAP2 PUSH2 0x1153 JUMP JUMPDEST DUP3 ADD SWAP2 SWAP1 PUSH0 MSTORE PUSH1 0x20 PUSH0 KECCAK256 SWAP1 JUMPDEST DUP2 SLOAD DUP2 MSTORE SWAP1 PUSH1 0x1 ADD SWAP1 PUSH1 0x20 ADD DUP1 DUP4 GT PUSH2 0x1136 JUMPI DUP3 SWAP1 SUB PUSH1 0x1F AND DUP3 ADD SWAP2 JUMPDEST POP POP POP POP POP SWAP1 DUP1 PUSH1 0x3 ADD SLOAD SWAP1 DUP1 PUSH1 0x4 ADD DUP1 SLOAD PUSH2 0x116E SWAP1 PUSH2 0x295F JUMP JUMPDEST DUP1 PUSH1 0x1F ADD PUSH1 0x20 DUP1 SWAP2 DIV MUL PUSH1 0x20 ADD PUSH1 0x40 MLOAD SWAP1 DUP2 ADD PUSH1 0x40 MSTORE DUP1 SWAP3 SWAP2 SWAP1 DUP2 DUP2 MSTORE PUSH1 0x20 ADD DUP3 DUP1 SLOAD PUSH2 0x119A SWAP1 PUSH2 0x295F JUMP JUMPDEST DUP1 ISZERO PUSH2 0x11E5 JUMPI DUP1 PUSH1 0x1F LT PUSH2 0x11BC JUMPI PUSH2 0x100 DUP1 DUP4 SLOAD DIV MUL DUP4 MSTORE SWAP2 PUSH1 0x20 ADD SWAP2 PUSH2 0x11E5 JUMP JUMPDEST DUP3 ADD SWAP2 SWAP1 PUSH0 MSTORE PUSH1 0x20 PUSH0 KECCAK256 SWAP1 JUMPDEST DUP2 SLOAD DUP2 MSTORE SWAP1 PUSH1 0x1 ADD SWAP1 PUSH1 0x20 ADD DUP1 DUP4 GT PUSH2 0x11C8 JUMPI DUP3 SWAP1 SUB PUSH1 0x1F AND DUP3 ADD SWAP2 JUMPDEST POP POP POP POP POP SWAP1 DUP1 PUSH1 0x5 ADD PUSH0 SWAP1 SLOAD SWAP1 PUSH2 0x100 EXP SWAP1 DIV PUSH1 0xFF AND SWAP1 DUP1 PUSH1 0x6 ADD DUP1 SLOAD PUSH2 0x120C SWAP1 PUSH2 0x295F JUMP JUMPDEST DUP1 PUSH1 0x1F ADD PUSH1 0x20 DUP1 SWAP2 DIV MUL PUSH1 0x20 ADD PUSH1 0x40 MLOAD SWAP1 DUP2 ADD PUSH1 0x40 MSTORE DUP1 SWAP3 SWAP2 SWAP1 DUP2 DUP2 MSTORE PUSH1 0x20 ADD DUP3 DUP1 SLOAD PUSH2 0x1238 SWAP1 PUSH2 0x295F JUMP JUMPDEST DUP1 ISZERO PUSH2 0x1283 JUMPI DUP1 PUSH1 0x1F LT PUSH2 0x125A JUMPI PUSH2 0x100 DUP1 DUP4 SLOAD DIV MUL DUP4 MSTORE SWAP2 PUSH1 0x20 ADD SWAP2 PUSH2 0x1283 JUMP JUMPDEST DUP3 ADD SWAP2 SWAP1 PUSH0 MSTORE PUSH1 0x20 PUSH0 KECCAK256 SWAP1 JUMPDEST DUP2 SLOAD DUP2 MSTORE SWAP1 PUSH1 0x1 ADD SWAP1 PUSH1 0x20 ADD DUP1 DUP4 GT PUSH2 0x1266 JUMPI DUP3 SWAP1 SUB PUSH1 0x1F AND DUP3 ADD SWAP2 JUMPDEST POP POP POP POP POP SWAP1 DUP1 PUSH1 0x7 ADD PUSH0 SWAP1 SLOAD SWAP1 PUSH2 0x100 EXP SWAP1 DIV PUSH20 0xFFFFFFFFFFFFFFFFFFFFFFFFFFFFFFFFFFFFFFFF AND SWAP1 DUP1 PUSH1 0x8 ADD PUSH0 SWAP1 SLOAD SWAP1 PUSH2 0x100 EXP SWAP1 DIV PUSH20 0xFFFFFFFFFFFFFFFFFFFFFFFFFFFFFFFFFFFFFFFF AND SWAP1 DUP1 PUSH1 0x9 ADD PUSH0 SWAP1 SLOAD SWAP1 PUSH2 0x100 EXP SWAP1 DIV PUSH20 0xFFFFFFFFFFFFFFFFFFFFFFFFFFFFFFFFFFFFFFFF AND SWAP1 DUP1 PUSH1 0xA ADD SLOAD SWAP1 POP DUP12 JUMP JUMPDEST PUSH1 0x60 PUSH0 PUSH2 0x130F PUSH1 0xD PUSH2 0x1DB6 JUMP JUMPDEST SWAP1 POP PUSH0 DUP2 PUSH8 0xFFFFFFFFFFFFFFFF DUP2 GT ISZERO PUSH2 0x132C JUMPI PUSH2 0x132B PUSH2 0x2905 JUMP JUMPDEST JUMPDEST PUSH1 0x40 MLOAD SWAP1 DUP1 DUP3 MSTORE DUP1 PUSH1 0x20 MUL PUSH1 0x20 ADD DUP3 ADD PUSH1 0x40 MSTORE DUP1 ISZERO PUSH2 0x1365 JUMPI DUP2 PUSH1 0x20 ADD JUMPDEST PUSH2 0x1352 PUSH2 0x1DD6 JUMP JUMPDEST DUP2 MSTORE PUSH1 0x20 ADD SWAP1 PUSH1 0x1 SWAP1 SUB SWAP1 DUP2 PUSH2 0x134A JUMPI SWAP1 POP JUMPDEST POP SWAP1 POP PUSH0 DUP1 PUSH1 0x1 SWAP1 POP JUMPDEST DUP4 DUP2 LT ISZERO PUSH2 0x1469 JUMPI PUSH0 ADDRESS PUSH20 0xFFFFFFFFFFFFFFFFFFFFFFFFFFFFFFFFFFFFFFFF AND PUSH4 0xF2C24032 DUP4 PUSH1 0x40 MLOAD DUP3 PUSH4 0xFFFFFFFF AND PUSH1 0xE0 SHL DUP2 MSTORE PUSH1 0x4 ADD PUSH2 0x13B1 SWAP2 SWAP1 PUSH2 0x25E2 JUMP JUMPDEST PUSH0 PUSH1 0x40 MLOAD DUP1 DUP4 SUB DUP2 DUP7 GAS STATICCALL ISZERO DUP1 ISZERO PUSH2 0x13CB JUMPI RETURNDATASIZE PUSH0 DUP1 RETURNDATACOPY RETURNDATASIZE PUSH0 REVERT JUMPDEST POP POP POP POP PUSH1 0x40 MLOAD RETURNDATASIZE PUSH0 DUP3 RETURNDATACOPY RETURNDATASIZE PUSH1 0x1F NOT PUSH1 0x1F DUP3 ADD AND DUP3 ADD DUP1 PUSH1 0x40 MSTORE POP DUP2 ADD SWAP1 PUSH2 0x13F3 SWAP2 SWAP1 PUSH2 0x30B7 JUMP JUMPDEST SWAP1 POP DUP7 PUSH20 0xFFFFFFFFFFFFFFFFFFFFFFFFFFFFFFFFFFFFFFFF AND DUP2 PUSH2 0x100 ADD MLOAD PUSH20 0xFFFFFFFFFFFFFFFFFFFFFFFFFFFFFFFFFFFFFFFF AND SUB PUSH2 0x145B JUMPI DUP1 DUP5 DUP5 DUP2 MLOAD DUP2 LT PUSH2 0x1441 JUMPI PUSH2 0x1440 PUSH2 0x2DFC JUMP JUMPDEST JUMPDEST PUSH1 0x20 MUL PUSH1 0x20 ADD ADD DUP2 SWAP1 MSTORE POP DUP3 DUP1 PUSH2 0x1457 SWAP1 PUSH2 0x2DB5 JUMP JUMPDEST SWAP4 POP POP JUMPDEST POP DUP1 DUP1 PUSH1 0x1 ADD SWAP2 POP POP PUSH2 0x136F JUMP JUMPDEST POP PUSH0 DUP2 PUSH8 0xFFFFFFFFFFFFFFFF DUP2 GT ISZERO PUSH2 0x1485 JUMPI PUSH2 0x1484 PUSH2 0x2905 JUMP JUMPDEST JUMPDEST PUSH1 0x40 MLOAD SWAP1 DUP1 DUP3 MSTORE DUP1 PUSH1 0x20 MUL PUSH1 0x20 ADD DUP3 ADD PUSH1 0x40 MSTORE DUP1 ISZERO PUSH2 0x14BE JUMPI DUP2 PUSH1 0x20 ADD JUMPDEST PUSH2 0x14AB PUSH2 0x1DD6 JUMP JUMPDEST DUP2 MSTORE PUSH1 0x20 ADD SWAP1 PUSH1 0x1 SWAP1 SUB SWAP1 DUP2 PUSH2 0x14A3 JUMPI SWAP1 POP JUMPDEST POP SWAP1 POP PUSH0 JUMPDEST DUP3 DUP2 LT ISZERO PUSH2 0x1511 JUMPI DUP4 DUP2 DUP2 MLOAD DUP2 LT PUSH2 0x14DE JUMPI PUSH2 0x14DD PUSH2 0x2DFC JUMP JUMPDEST JUMPDEST PUSH1 0x20 MUL PUSH1 0x20 ADD ADD MLOAD DUP3 DUP3 DUP2 MLOAD DUP2 LT PUSH2 0x14F9 JUMPI PUSH2 0x14F8 PUSH2 0x2DFC JUMP JUMPDEST JUMPDEST PUSH1 0x20 MUL PUSH1 0x20 ADD ADD DUP2 SWAP1 MSTORE POP DUP1 DUP1 PUSH1 0x1 ADD SWAP2 POP POP PUSH2 0x14C3 JUMP JUMPDEST POP DUP1 SWAP5 POP POP POP POP POP SWAP2 SWAP1 POP JUMP JUMPDEST DUP2 PUSH0 PUSH1 0xC PUSH0 DUP4 DUP2 MSTORE PUSH1 0x20 ADD SWAP1 DUP2 MSTORE PUSH1 0x20 ADD PUSH0 KECCAK256 PUSH0 ADD SLOAD GT PUSH2 0x1574 JUMPI PUSH1 0x40 MLOAD PUSH32 0x8C379A000000000000000000000000000000000000000000000000000000000 DUP2 MSTORE PUSH1 0x4 ADD PUSH2 0x156B SWAP1 PUSH2 0x28DD JUMP JUMPDEST PUSH1 0x40 MLOAD DUP1 SWAP2 SUB SWAP1 REVERT JUMPDEST PUSH0 PUSH20 0xFFFFFFFFFFFFFFFFFFFFFFFFFFFFFFFFFFFFFFFF AND DUP3 PUSH20 0xFFFFFFFFFFFFFFFFFFFFFFFFFFFFFFFFFFFFFFFF AND SUB PUSH2 0x15E2 JUMPI PUSH1 0x40 MLOAD PUSH32 0x8C379A000000000000000000000000000000000000000000000000000000000 DUP2 MSTORE PUSH1 0x4 ADD PUSH2 0x15D9 SWAP1 PUSH2 0x316E JUMP JUMPDEST PUSH1 0x40 MLOAD DUP1 SWAP2 SUB SWAP1 REVERT JUMPDEST DUP2 PUSH1 0xC PUSH0 DUP6 DUP2 MSTORE PUSH1 0x20 ADD SWAP1 DUP2 MSTORE PUSH1 0x20 ADD PUSH0 KECCAK256 PUSH1 0x8 ADD PUSH0 PUSH2 0x100 EXP DUP2 SLOAD DUP2 PUSH20 0xFFFFFFFFFFFFFFFFFFFFFFFFFFFFFFFFFFFFFFFF MUL NOT AND SWAP1 DUP4 PUSH20 0xFFFFFFFFFFFFFFFFFFFFFFFFFFFFFFFFFFFFFFFF AND MUL OR SWAP1 SSTORE POP DUP2 PUSH20 0xFFFFFFFFFFFFFFFFFFFFFFFFFFFFFFFFFFFFFFFF AND DUP4 PUSH32 0x17F6791F79C251DFE73501956852B1099624D6A4C5CE9744AD98825C5B8DD91A PUSH1 0x40 MLOAD PUSH1 0x40 MLOAD DUP1 SWAP2 SUB SWAP1 LOG3 POP POP POP JUMP JUMPDEST PUSH0 DUP1 PUSH2 0x1689 PUSH1 0xD PUSH2 0x1DB6 JUMP JUMPDEST GT PUSH2 0x16C9 JUMPI PUSH1 0x40 MLOAD PUSH32 0x8C379A000000000000000000000000000000000000000000000000000000000 DUP2 MSTORE PUSH1 0x4 ADD PUSH2 0x16C0 SWAP1 PUSH2 0x31FC JUMP JUMPDEST PUSH1 0x40 MLOAD DUP1 SWAP2 SUB SWAP1 REVERT JUMPDEST PUSH1 0x1 PUSH2 0x16D5 PUSH1 0xD PUSH2 0x1DB6 JUMP JUMPDEST PUSH2 0x16DF SWAP2 SWAP1 PUSH2 0x321A JUMP JUMPDEST SWAP1 POP SWAP1 JUMP JUMPDEST PUSH2 0x16EC PUSH2 0x1DD6 JUMP JUMPDEST DUP2 PUSH0 PUSH1 0xC PUSH0 DUP4 DUP2 MSTORE PUSH1 0x20 ADD SWAP1 DUP2 MSTORE PUSH1 0x20 ADD PUSH0 KECCAK256 PUSH0 ADD SLOAD GT PUSH2 0x1742 JUMPI PUSH1 0x40 MLOAD PUSH32 0x8C379A000000000000000000000000000000000000000000000000000000000 DUP2 MSTORE PUSH1 0x4 ADD PUSH2 0x1739 SWAP1 PUSH2 0x28DD JUMP JUMPDEST PUSH1 0x40 MLOAD DUP1 SWAP2 SUB SWAP1 REVERT JUMPDEST PUSH1 0xC PUSH0 DUP5 DUP2 MSTORE PUSH1 0x20 ADD SWAP1 DUP2 MSTORE PUSH1 0x20 ADD PUSH0 KECCAK256 PUSH1 0x40 MLOAD DUP1 PUSH2 0x160 ADD PUSH1 0x40 MSTORE SWAP1 DUP2 PUSH0 DUP3 ADD SLOAD DUP2 MSTORE PUSH1 0x20 ADD PUSH1 0x1 DUP3 ADD SLOAD DUP2 MSTORE PUSH1 0x20 ADD PUSH1 0x2 DUP3 ADD DUP1 SLOAD PUSH2 0x1782 SWAP1 PUSH2 0x295F JUMP JUMPDEST DUP1 PUSH1 0x1F ADD PUSH1 0x20 DUP1 SWAP2 DIV MUL PUSH1 0x20 ADD PUSH1 0x40 MLOAD SWAP1 DUP2 ADD PUSH1 0x40 MSTORE DUP1 SWAP3 SWAP2 SWAP1 DUP2 DUP2 MSTORE PUSH1 0x20 ADD DUP3 DUP1 SLOAD PUSH2 0x17AE SWAP1 PUSH2 0x295F JUMP JUMPDEST DUP1 ISZERO PUSH2 0x17F9 JUMPI DUP1 PUSH1 0x1F LT PUSH2 0x17D0 JUMPI PUSH2 0x100 DUP1 DUP4 SLOAD DIV MUL DUP4 MSTORE SWAP2 PUSH1 0x20 ADD SWAP2 PUSH2 0x17F9 JUMP JUMPDEST DUP3 ADD SWAP2 SWAP1 PUSH0 MSTORE PUSH1 0x20 PUSH0 KECCAK256 SWAP1 JUMPDEST DUP2 SLOAD DUP2 MSTORE SWAP1 PUSH1 0x1 ADD SWAP1 PUSH1 0x20 ADD DUP1 DUP4 GT PUSH2 0x17DC JUMPI DUP3 SWAP1 SUB PUSH1 0x1F AND DUP3 ADD SWAP2 JUMPDEST POP POP POP POP POP DUP2 MSTORE PUSH1 0x20 ADD PUSH1 0x3 DUP3 ADD SLOAD DUP2 MSTORE PUSH1 0x20 ADD PUSH1 0x4 DUP3 ADD DUP1 SLOAD PUSH2 0x181C SWAP1 PUSH2 0x295F JUMP JUMPDEST DUP1 PUSH1 0x1F ADD PUSH1 0x20 DUP1 SWAP2 DIV MUL PUSH1 0x20 ADD PUSH1 0x40 MLOAD SWAP1 DUP2 ADD PUSH1 0x40 MSTORE DUP1 SWAP3 SWAP2 SWAP1 DUP2 DUP2 MSTORE PUSH1 0x20 ADD DUP3 DUP1 SLOAD PUSH2 0x1848 SWAP1 PUSH2 0x295F JUMP JUMPDEST DUP1 ISZERO PUSH2 0x1893 JUMPI DUP1 PUSH1 0x1F LT PUSH2 0x186A JUMPI PUSH2 0x100 DUP1 DUP4 SLOAD DIV MUL DUP4 MSTORE SWAP2 PUSH1 0x20 ADD SWAP2 PUSH2 0x1893 JUMP JUMPDEST DUP3 ADD SWAP2 SWAP1 PUSH0 MSTORE PUSH1 0x20 PUSH0 KECCAK256 SWAP1 JUMPDEST DUP2 SLOAD DUP2 MSTORE SWAP1 PUSH1 0x1 ADD SWAP1 PUSH1 0x20 ADD DUP1 DUP4 GT PUSH2 0x1876 JUMPI DUP3 SWAP1 SUB PUSH1 0x1F AND DUP3 ADD SWAP2 JUMPDEST POP POP POP POP POP DUP2 MSTORE PUSH1 0x20 ADD PUSH1 0x5 DUP3 ADD PUSH0 SWAP1 SLOAD SWAP1 PUSH2 0x100 EXP SWAP1 DIV PUSH1 0xFF AND PUSH1 0x6 DUP2 GT ISZERO PUSH2 0x18C0 JUMPI PUSH2 0x18BF PUSH2 0x1EEB JUMP JUMPDEST JUMPDEST PUSH1 0x6 DUP2 GT ISZERO PUSH2 0x18D2 JUMPI PUSH2 0x18D1 PUSH2 0x1EEB JUMP JUMPDEST JUMPDEST DUP2 MSTORE PUSH1 0x20 ADD PUSH1 0x6 DUP3 ADD DUP1 SLOAD PUSH2 0x18E6 SWAP1 PUSH2 0x295F JUMP JUMPDEST DUP1 PUSH1 0x1F ADD PUSH1 0x20 DUP1 SWAP2 DIV MUL PUSH1 0x20 ADD PUSH1 0x40 MLOAD SWAP1 DUP2 ADD PUSH1 0x40 MSTORE DUP1 SWAP3 SWAP2 SWAP1 DUP2 DUP2 MSTORE PUSH1 0x20 ADD DUP3 DUP1 SLOAD PUSH2 0x1912 SWAP1 PUSH2 0x295F JUMP JUMPDEST DUP1 ISZERO PUSH2 0x195D JUMPI DUP1 PUSH1 0x1F LT PUSH2 0x1934 JUMPI PUSH2 0x100 DUP1 DUP4 SLOAD DIV MUL DUP4 MSTORE SWAP2 PUSH1 0x20 ADD SWAP2 PUSH2 0x195D JUMP JUMPDEST DUP3 ADD SWAP2 SWAP1 PUSH0 MSTORE PUSH1 0x20 PUSH0 KECCAK256 SWAP1 JUMPDEST DUP2 SLOAD DUP2 MSTORE SWAP1 PUSH1 0x1 ADD SWAP1 PUSH1 0x20 ADD DUP1 DUP4 GT PUSH2 0x1940 JUMPI DUP3 SWAP1 SUB PUSH1 0x1F AND DUP3 ADD SWAP2 JUMPDEST POP POP POP POP POP DUP2 MSTORE PUSH1 0x20 ADD PUSH1 0x7 DUP3 ADD PUSH0 SWAP1 SLOAD SWAP1 PUSH2 0x100 EXP SWAP1 DIV PUSH20 0xFFFFFFFFFFFFFFFFFFFFFFFFFFFFFFFFFFFFFFFF AND PUSH20 0xFFFFFFFFFFFFFFFFFFFFFFFFFFFFFFFFFFFFFFFF AND PUSH20 0xFFFFFFFFFFFFFFFFFFFFFFFFFFFFFFFFFFFFFFFF AND DUP2 MSTORE PUSH1 0x20 ADD PUSH1 0x8 DUP3 ADD PUSH0 SWAP1 SLOAD SWAP1 PUSH2 0x100 EXP SWAP1 DIV PUSH20 0xFFFFFFFFFFFFFFFFFFFFFFFFFFFFFFFFFFFFFFFF AND PUSH20 0xFFFFFFFFFFFFFFFFFFFFFFFFFFFFFFFFFFFFFFFF AND PUSH20 0xFFFFFFFFFFFFFFFFFFFFFFFFFFFFFFFFFFFFFFFF AND DUP2 MSTORE PUSH1 0x20 ADD PUSH1 0x9 DUP3 ADD PUSH0 SWAP1 SLOAD SWAP1 PUSH2 0x100 EXP SWAP1 DIV PUSH20 0xFFFFFFFFFFFFFFFFFFFFFFFFFFFFFFFFFFFFFFFF AND PUSH20 0xFFFFFFFFFFFFFFFFFFFFFFFFFFFFFFFFFFFFFFFF AND PUSH20 0xFFFFFFFFFFFFFFFFFFFFFFFFFFFFFFFFFFFFFFFF AND DUP2 MSTORE PUSH1 0x20 ADD PUSH1 0xA DUP3 ADD SLOAD DUP2 MSTORE POP POP SWAP2 POP POP SWAP2 SWAP1 POP JUMP JUMPDEST PUSH1 0x40 MLOAD DUP1 PUSH2 0x160 ADD PUSH1 0x40 MSTORE DUP1 PUSH2 0x1A8D PUSH1 0xD PUSH2 0x1DB6 JUMP JUMPDEST DUP2 MSTORE PUSH1 0x20 ADD DUP10 DUP2 MSTORE PUSH1 0x20 ADD DUP9 DUP9 DUP1 DUP1 PUSH1 0x1F ADD PUSH1 0x20 DUP1 SWAP2 DIV MUL PUSH1 0x20 ADD PUSH1 0x40 MLOAD SWAP1 DUP2 ADD PUSH1 0x40 MSTORE DUP1 SWAP4 SWAP3 SWAP2 SWAP1 DUP2 DUP2 MSTORE PUSH1 0x20 ADD DUP4 DUP4 DUP1 DUP3 DUP5 CALLDATACOPY PUSH0 DUP2 DUP5 ADD MSTORE PUSH1 0x1F NOT PUSH1 0x1F DUP3 ADD AND SWAP1 POP DUP1 DUP4 ADD SWAP3 POP POP POP POP POP POP POP DUP2 MSTORE PUSH1 0x20 ADD DUP7 DUP2 MSTORE PUSH1 0x20 ADD DUP6 DUP6 DUP1 DUP1 PUSH1 0x1F ADD PUSH1 0x20 DUP1 SWAP2 DIV MUL PUSH1 0x20 ADD PUSH1 0x40 MLOAD SWAP1 DUP2 ADD PUSH1 0x40 MSTORE DUP1 SWAP4 SWAP3 SWAP2 SWAP1 DUP2 DUP2 MSTORE PUSH1 0x20 ADD DUP4 DUP4 DUP1 DUP3 DUP5 CALLDATACOPY PUSH0 DUP2 DUP5 ADD MSTORE PUSH1 0x1F NOT PUSH1 0x1F DUP3 ADD AND SWAP1 POP DUP1 DUP4 ADD SWAP3 POP POP POP POP POP POP POP DUP2 MSTORE PUSH1 0x20 ADD PUSH1 0x6 DUP1 DUP2 GT ISZERO PUSH2 0x1B43 JUMPI PUSH2 0x1B42 PUSH2 0x1EEB JUMP JUMPDEST JUMPDEST DUP2 MSTORE PUSH1 0x20 ADD PUSH1 0x40 MLOAD DUP1 PUSH1 0x20 ADD PUSH1 0x40 MSTORE DUP1 PUSH0 DUP2 MSTORE POP DUP2 MSTORE PUSH1 0x20 ADD PUSH0 PUSH20 0xFFFFFFFFFFFFFFFFFFFFFFFFFFFFFFFFFFFFFFFF AND DUP2 MSTORE PUSH1 0x20 ADD DUP3 PUSH20 0xFFFFFFFFFFFFFFFFFFFFFFFFFFFFFFFFFFFFFFFF AND DUP2 MSTORE PUSH1 0x20 ADD DUP4 PUSH20 0xFFFFFFFFFFFFFFFFFFFFFFFFFFFFFFFFFFFFFFFF AND DUP2 MSTORE PUSH1 0x20 ADD PUSH0 DUP2 MSTORE POP PUSH1 0xC PUSH0 PUSH2 0x1BC1 PUSH1 0xD PUSH2 0x1DB6 JUMP JUMPDEST DUP2 MSTORE PUSH1 0x20 ADD SWAP1 DUP2 MSTORE PUSH1 0x20 ADD PUSH0 KECCAK256 PUSH0 DUP3 ADD MLOAD DUP2 PUSH0 ADD SSTORE PUSH1 0x20 DUP3 ADD MLOAD DUP2 PUSH1 0x1 ADD SSTORE PUSH1 0x40 DUP3 ADD MLOAD DUP2 PUSH1 0x2 ADD SWAP1 DUP2 PUSH2 0x1BF5 SWAP2 SWAP1 PUSH2 0x324D JUMP JUMPDEST POP PUSH1 0x60 DUP3 ADD MLOAD DUP2 PUSH1 0x3 ADD SSTORE PUSH1 0x80 DUP3 ADD MLOAD DUP2 PUSH1 0x4 ADD SWAP1 DUP2 PUSH2 0x1C15 SWAP2 SWAP1 PUSH2 0x324D JUMP JUMPDEST POP PUSH1 0xA0 DUP3 ADD MLOAD DUP2 PUSH1 0x5 ADD PUSH0 PUSH2 0x100 EXP DUP2 SLOAD DUP2 PUSH1 0xFF MUL NOT AND SWAP1 DUP4 PUSH1 0x6 DUP2 GT ISZERO PUSH2 0x1C40 JUMPI PUSH2 0x1C3F PUSH2 0x1EEB JUMP JUMPDEST JUMPDEST MUL OR SWAP1 SSTORE POP PUSH1 0xC0 DUP3 ADD MLOAD DUP2 PUSH1 0x6 ADD SWAP1 DUP2 PUSH2 0x1C5A SWAP2 SWAP1 PUSH2 0x324D JUMP JUMPDEST POP PUSH1 0xE0 DUP3 ADD MLOAD DUP2 PUSH1 0x7 ADD PUSH0 PUSH2 0x100 EXP DUP2 SLOAD DUP2 PUSH20 0xFFFFFFFFFFFFFFFFFFFFFFFFFFFFFFFFFFFFFFFF MUL NOT AND SWAP1 DUP4 PUSH20 0xFFFFFFFFFFFFFFFFFFFFFFFFFFFFFFFFFFFFFFFF AND MUL OR SWAP1 SSTORE POP PUSH2 0x100 DUP3 ADD MLOAD DUP2 PUSH1 0x8 ADD PUSH0 PUSH2 0x100 EXP DUP2 SLOAD DUP2 PUSH20 0xFFFFFFFFFFFFFFFFFFFFFFFFFFFFFFFFFFFFFFFF MUL NOT AND SWAP1 DUP4 PUSH20 0xFFFFFFFFFFFFFFFFFFFFFFFFFFFFFFFFFFFFFFFF AND MUL OR SWAP1 SSTORE POP PUSH2 0x120 DUP3 ADD MLOAD DUP2 PUSH1 0x9 ADD PUSH0 PUSH2 0x100 EXP DUP2 SLOAD DUP2 PUSH20 0xFFFFFFFFFFFFFFFFFFFFFFFFFFFFFFFFFFFFFFFF MUL NOT AND SWAP1 DUP4 PUSH20 0xFFFFFFFFFFFFFFFFFFFFFFFFFFFFFFFFFFFFFFFF AND MUL OR SWAP1 SSTORE POP PUSH2 0x140 DUP3 ADD MLOAD DUP2 PUSH1 0xA ADD SSTORE SWAP1 POP POP PUSH1 0x6 DUP1 DUP2 GT ISZERO PUSH2 0x1D50 JUMPI PUSH2 0x1D4F PUSH2 0x1EEB JUMP JUMPDEST JUMPDEST DUP6 PUSH2 0x1D5B PUSH1 0xD PUSH2 0x1DB6 JUMP JUMPDEST PUSH32 0xE5E5008647CFECA8FC7AFF626B87E8D5BFE90D172B86545BE3C31F3C4680B7C4 DUP12 DUP12 DUP12 DUP11 DUP11 PUSH0 DUP11 DUP13 PUSH0 PUSH1 0x40 MLOAD PUSH2 0x1D9A SWAP10 SWAP9 SWAP8 SWAP7 SWAP6 SWAP5 SWAP4 SWAP3 SWAP2 SWAP1 PUSH2 0x3378 JUMP JUMPDEST PUSH1 0x40 MLOAD DUP1 SWAP2 SUB SWAP1 LOG4 PUSH2 0x1DAC PUSH1 0xD PUSH2 0x1DC2 JUMP JUMPDEST POP POP POP POP POP POP POP POP JUMP JUMPDEST PUSH0 DUP2 PUSH0 ADD SLOAD SWAP1 POP SWAP2 SWAP1 POP JUMP JUMPDEST PUSH1 0x1 DUP2 PUSH0 ADD PUSH0 DUP3 DUP3 SLOAD ADD SWAP3 POP POP DUP2 SWAP1 SSTORE POP POP JUMP JUMPDEST PUSH1 0x40 MLOAD DUP1 PUSH2 0x160 ADD PUSH1 0x40 MSTORE DUP1 PUSH0 DUP2 MSTORE PUSH1 0x20 ADD PUSH0 DUP2 MSTORE PUSH1 0x20 ADD PUSH1 0x60 DUP2 MSTORE PUSH1 0x20 ADD PUSH0 DUP2 MSTORE PUSH1 0x20 ADD PUSH1 0x60 DUP2 MSTORE PUSH1 0x20 ADD PUSH0 PUSH1 0x6 DUP2 GT ISZERO PUSH2 0x1E15 JUMPI PUSH2 0x1E14 PUSH2 0x1EEB JUMP JUMPDEST JUMPDEST DUP2 MSTORE PUSH1 0x20 ADD PUSH1 0x60 DUP2 MSTORE PUSH1 0x20 ADD PUSH0 PUSH20 0xFFFFFFFFFFFFFFFFFFFFFFFFFFFFFFFFFFFFFFFF AND DUP2 MSTORE PUSH1 0x20 ADD PUSH0 PUSH20 0xFFFFFFFFFFFFFFFFFFFFFFFFFFFFFFFFFFFFFFFF AND DUP2 MSTORE PUSH1 0x20 ADD PUSH0 PUSH20 0xFFFFFFFFFFFFFFFFFFFFFFFFFFFFFFFFFFFFFFFF AND DUP2 MSTORE PUSH1 0x20 ADD PUSH0 DUP2 MSTORE POP SWAP1 JUMP JUMPDEST PUSH0 PUSH1 0x40 MLOAD SWAP1 POP SWAP1 JUMP JUMPDEST PUSH0 DUP1 REVERT JUMPDEST PUSH0 DUP1 REVERT JUMPDEST PUSH0 DUP2 SWAP1 POP SWAP2 SWAP1 POP JUMP JUMPDEST PUSH2 0x1E9F DUP2 PUSH2 0x1E8D JUMP JUMPDEST DUP2 EQ PUSH2 0x1EA9 JUMPI PUSH0 DUP1 REVERT JUMPDEST POP JUMP JUMPDEST PUSH0 DUP2 CALLDATALOAD SWAP1 POP PUSH2 0x1EBA DUP2 PUSH2 0x1E96 JUMP JUMPDEST SWAP3 SWAP2 POP POP JUMP JUMPDEST PUSH0 PUSH1 0x20 DUP3 DUP5 SUB SLT ISZERO PUSH2 0x1ED5 JUMPI PUSH2 0x1ED4 PUSH2 0x1E85 JUMP JUMPDEST JUMPDEST PUSH0 PUSH2 0x1EE2 DUP5 DUP3 DUP6 ADD PUSH2 0x1EAC JUMP JUMPDEST SWAP2 POP POP SWAP3 SWAP2 POP POP JUMP JUMPDEST PUSH32 0x4E487B7100000000000000000000000000000000000000000000000000000000 PUSH0 MSTORE PUSH1 0x21 PUSH1 0x4 MSTORE PUSH1 0x24 PUSH0 REVERT JUMPDEST PUSH1 0x7 DUP2 LT PUSH2 0x1F29 JUMPI PUSH2 0x1F28 PUSH2 0x1EEB JUMP JUMPDEST JUMPDEST POP JUMP JUMPDEST PUSH0 DUP2 SWAP1 POP PUSH2 0x1F39 DUP3 PUSH2 0x1F18 JUMP JUMPDEST SWAP2 SWAP1 POP JUMP JUMPDEST PUSH0 PUSH2 0x1F48 DUP3 PUSH2 0x1F2C JUMP JUMPDEST SWAP1 POP SWAP2 SWAP1 POP JUMP JUMPDEST PUSH2 0x1F58 DUP2 PUSH2 0x1F3E JUMP JUMPDEST DUP3 MSTORE POP POP JUMP JUMPDEST PUSH0 PUSH1 0x20 DUP3 ADD SWAP1 POP PUSH2 0x1F71 PUSH0 DUP4 ADD DUP5 PUSH2 0x1F4F JUMP JUMPDEST SWAP3 SWAP2 POP POP JUMP JUMPDEST PUSH1 0x7 DUP2 LT PUSH2 0x1F83 JUMPI PUSH0 DUP1 REVERT JUMPDEST POP JUMP JUMPDEST PUSH0 DUP2 CALLDATALOAD SWAP1 POP PUSH2 0x1F94 DUP2 PUSH2 0x1F77 JUMP JUMPDEST SWAP3 SWAP2 POP POP JUMP JUMPDEST PUSH0 DUP1 REVERT JUMPDEST PUSH0 DUP1 REVERT JUMPDEST PUSH0 DUP1 REVERT JUMPDEST PUSH0 DUP1 DUP4 PUSH1 0x1F DUP5 ADD SLT PUSH2 0x1FBB JUMPI PUSH2 0x1FBA PUSH2 0x1F9A JUMP JUMPDEST JUMPDEST DUP3 CALLDATALOAD SWAP1 POP PUSH8 0xFFFFFFFFFFFFFFFF DUP2 GT ISZERO PUSH2 0x1FD8 JUMPI PUSH2 0x1FD7 PUSH2 0x1F9E JUMP JUMPDEST JUMPDEST PUSH1 0x20 DUP4 ADD SWAP2 POP DUP4 PUSH1 0x1 DUP3 MUL DUP4 ADD GT ISZERO PUSH2 0x1FF4 JUMPI PUSH2 0x1FF3 PUSH2 0x1FA2 JUMP JUMPDEST JUMPDEST SWAP3 POP SWAP3 SWAP1 POP JUMP JUMPDEST PUSH0 PUSH20 0xFFFFFFFFFFFFFFFFFFFFFFFFFFFFFFFFFFFFFFFF DUP3 AND SWAP1 POP SWAP2 SWAP1 POP JUMP JUMPDEST PUSH0 PUSH2 0x2024 DUP3 PUSH2 0x1FFB JUMP JUMPDEST SWAP1 POP SWAP2 SWAP1 POP JUMP JUMPDEST PUSH2 0x2034 DUP2 PUSH2 0x201A JUMP JUMPDEST DUP2 EQ PUSH2 0x203E JUMPI PUSH0 DUP1 REVERT JUMPDEST POP JUMP JUMPDEST PUSH0 DUP2 CALLDATALOAD SWAP1 POP PUSH2 0x204F DUP2 PUSH2 0x202B JUMP JUMPDEST SWAP3 SWAP2 POP POP JUMP JUMPDEST PUSH0 DUP1 PUSH0 DUP1 PUSH0 PUSH1 0x80 DUP7 DUP9 SUB SLT ISZERO PUSH2 0x206E JUMPI PUSH2 0x206D PUSH2 0x1E85 JUMP JUMPDEST JUMPDEST PUSH0 PUSH2 0x207B DUP9 DUP3 DUP10 ADD PUSH2 0x1EAC JUMP JUMPDEST SWAP6 POP POP PUSH1 0x20 PUSH2 0x208C DUP9 DUP3 DUP10 ADD PUSH2 0x1F86 JUMP JUMPDEST SWAP5 POP POP PUSH1 0x40 DUP7 ADD CALLDATALOAD PUSH8 0xFFFFFFFFFFFFFFFF DUP2 GT ISZERO PUSH2 0x20AD JUMPI PUSH2 0x20AC PUSH2 0x1E89 JUMP JUMPDEST JUMPDEST PUSH2 0x20B9 DUP9 DUP3 DUP10 ADD PUSH2 0x1FA6 JUMP JUMPDEST SWAP4 POP SWAP4 POP POP PUSH1 0x60 PUSH2 0x20CC DUP9 DUP3 DUP10 ADD PUSH2 0x2041 JUMP JUMPDEST SWAP2 POP POP SWAP3 SWAP6 POP SWAP3 SWAP6 SWAP1 SWAP4 POP JUMP JUMPDEST PUSH0 DUP2 SWAP1 POP SWAP2 SWAP1 POP JUMP JUMPDEST PUSH0 PUSH2 0x20FC PUSH2 0x20F7 PUSH2 0x20F2 DUP5 PUSH2 0x1FFB JUMP JUMPDEST PUSH2 0x20D9 JUMP JUMPDEST PUSH2 0x1FFB JUMP JUMPDEST SWAP1 POP SWAP2 SWAP1 POP JUMP JUMPDEST PUSH0 PUSH2 0x210D DUP3 PUSH2 0x20E2 JUMP JUMPDEST SWAP1 POP SWAP2 SWAP1 POP JUMP JUMPDEST PUSH0 PUSH2 0x211E DUP3 PUSH2 0x2103 JUMP JUMPDEST SWAP1 POP SWAP2 SWAP1 POP JUMP JUMPDEST PUSH2 0x212E DUP2 PUSH2 0x2114 JUMP JUMPDEST DUP3 MSTORE POP POP JUMP JUMPDEST PUSH0 PUSH1 0x20 DUP3 ADD SWAP1 POP PUSH2 0x2147 PUSH0 DUP4 ADD DUP5 PUSH2 0x2125 JUMP JUMPDEST SWAP3 SWAP2 POP POP JUMP JUMPDEST PUSH0 DUP1 PUSH1 0x40 DUP4 DUP6 SUB SLT ISZERO PUSH2 0x2163 JUMPI PUSH2 0x2162 PUSH2 0x1E85 JUMP JUMPDEST JUMPDEST PUSH0 PUSH2 0x2170 DUP6 DUP3 DUP7 ADD PUSH2 0x1EAC JUMP JUMPDEST SWAP3 POP POP PUSH1 0x20 PUSH2 0x2181 DUP6 DUP3 DUP7 ADD PUSH2 0x1EAC JUMP JUMPDEST SWAP2 POP POP SWAP3 POP SWAP3 SWAP1 POP JUMP JUMPDEST PUSH0 PUSH1 0x20 DUP3 DUP5 SUB SLT ISZERO PUSH2 0x21A0 JUMPI PUSH2 0x219F PUSH2 0x1E85 JUMP JUMPDEST JUMPDEST PUSH0 PUSH2 0x21AD DUP5 DUP3 DUP6 ADD PUSH2 0x2041 JUMP JUMPDEST SWAP2 POP POP SWAP3 SWAP2 POP POP JUMP JUMPDEST PUSH0 DUP2 MLOAD SWAP1 POP SWAP2 SWAP1 POP JUMP JUMPDEST PUSH0 DUP3 DUP3 MSTORE PUSH1 0x20 DUP3 ADD SWAP1 POP SWAP3 SWAP2 POP POP JUMP JUMPDEST PUSH0 DUP2 SWAP1 POP PUSH1 0x20 DUP3 ADD SWAP1 POP SWAP2 SWAP1 POP JUMP JUMPDEST PUSH2 0x21E8 DUP2 PUSH2 0x1E8D JUMP JUMPDEST DUP3 MSTORE POP POP JUMP JUMPDEST PUSH0 DUP2 MLOAD SWAP1 POP SWAP2 SWAP1 POP JUMP JUMPDEST PUSH0 DUP3 DUP3 MSTORE PUSH1 0x20 DUP3 ADD SWAP1 POP SWAP3 SWAP2 POP POP JUMP JUMPDEST PUSH0 JUMPDEST DUP4 DUP2 LT ISZERO PUSH2 0x2225 JUMPI DUP1 DUP3 ADD MLOAD DUP2 DUP5 ADD MSTORE PUSH1 0x20 DUP2 ADD SWAP1 POP PUSH2 0x220A JUMP JUMPDEST PUSH0 DUP5 DUP5 ADD MSTORE POP POP POP POP JUMP JUMPDEST PUSH0 PUSH1 0x1F NOT PUSH1 0x1F DUP4 ADD AND SWAP1 POP SWAP2 SWAP1 POP JUMP JUMPDEST PUSH0 PUSH2 0x224A DUP3 PUSH2 0x21EE JUMP JUMPDEST PUSH2 0x2254 DUP2 DUP6 PUSH2 0x21F8 JUMP JUMPDEST SWAP4 POP PUSH2 0x2264 DUP2 DUP6 PUSH1 0x20 DUP7 ADD PUSH2 0x2208 JUMP JUMPDEST PUSH2 0x226D DUP2 PUSH2 0x2230 JUMP JUMPDEST DUP5 ADD SWAP2 POP POP SWAP3 SWAP2 POP POP JUMP JUMPDEST PUSH2 0x2281 DUP2 PUSH2 0x1F3E JUMP JUMPDEST DUP3 MSTORE POP POP JUMP JUMPDEST PUSH2 0x2290 DUP2 PUSH2 0x201A JUMP JUMPDEST DUP3 MSTORE POP POP JUMP JUMPDEST PUSH0 PUSH2 0x160 DUP4 ADD PUSH0 DUP4 ADD MLOAD PUSH2 0x22AC PUSH0 DUP7 ADD DUP3 PUSH2 0x21DF JUMP JUMPDEST POP PUSH1 0x20 DUP4 ADD MLOAD PUSH2 0x22BF PUSH1 0x20 DUP7 ADD DUP3 PUSH2 0x21DF JUMP JUMPDEST POP PUSH1 0x40 DUP4 ADD MLOAD DUP5 DUP3 SUB PUSH1 0x40 DUP7 ADD MSTORE PUSH2 0x22D7 DUP3 DUP3 PUSH2 0x2240 JUMP JUMPDEST SWAP2 POP POP PUSH1 0x60 DUP4 ADD MLOAD PUSH2 0x22EC PUSH1 0x60 DUP7 ADD DUP3 PUSH2 0x21DF JUMP JUMPDEST POP PUSH1 0x80 DUP4 ADD MLOAD DUP5 DUP3 SUB PUSH1 0x80 DUP7 ADD MSTORE PUSH2 0x2304 DUP3 DUP3 PUSH2 0x2240 JUMP JUMPDEST SWAP2 POP POP PUSH1 0xA0 DUP4 ADD MLOAD PUSH2 0x2319 PUSH1 0xA0 DUP7 ADD DUP3 PUSH2 0x2278 JUMP JUMPDEST POP PUSH1 0xC0 DUP4 ADD MLOAD DUP5 DUP3 SUB PUSH1 0xC0 DUP7 ADD MSTORE PUSH2 0x2331 DUP3 DUP3 PUSH2 0x2240 JUMP JUMPDEST SWAP2 POP POP PUSH1 0xE0 DUP4 ADD MLOAD PUSH2 0x2346 PUSH1 0xE0 DUP7 ADD DUP3 PUSH2 0x2287 JUMP JUMPDEST POP PUSH2 0x100 DUP4 ADD MLOAD PUSH2 0x235B PUSH2 0x100 DUP7 ADD DUP3 PUSH2 0x2287 JUMP JUMPDEST POP PUSH2 0x120 DUP4 ADD MLOAD PUSH2 0x2370 PUSH2 0x120 DUP7 ADD DUP3 PUSH2 0x2287 JUMP JUMPDEST POP PUSH2 0x140 DUP4 ADD MLOAD PUSH2 0x2385 PUSH2 0x140 DUP7 ADD DUP3 PUSH2 0x21DF JUMP JUMPDEST POP DUP1 SWAP2 POP POP SWAP3 SWAP2 POP POP JUMP JUMPDEST PUSH0 PUSH2 0x239B DUP4 DUP4 PUSH2 0x2296 JUMP JUMPDEST SWAP1 POP SWAP3 SWAP2 POP POP JUMP JUMPDEST PUSH0 PUSH1 0x20 DUP3 ADD SWAP1 POP SWAP2 SWAP1 POP JUMP JUMPDEST PUSH0 PUSH2 0x23B9 DUP3 PUSH2 0x21B6 JUMP JUMPDEST PUSH2 0x23C3 DUP2 DUP6 PUSH2 0x21C0 JUMP JUMPDEST SWAP4 POP DUP4 PUSH1 0x20 DUP3 MUL DUP6 ADD PUSH2 0x23D5 DUP6 PUSH2 0x21D0 JUMP JUMPDEST DUP1 PUSH0 JUMPDEST DUP6 DUP2 LT ISZERO PUSH2 0x2410 JUMPI DUP5 DUP5 SUB DUP10 MSTORE DUP2 MLOAD PUSH2 0x23F1 DUP6 DUP3 PUSH2 0x2390 JUMP JUMPDEST SWAP5 POP PUSH2 0x23FC DUP4 PUSH2 0x23A3 JUMP JUMPDEST SWAP3 POP PUSH1 0x20 DUP11 ADD SWAP10 POP POP PUSH1 0x1 DUP2 ADD SWAP1 POP PUSH2 0x23D8 JUMP JUMPDEST POP DUP3 SWAP8 POP DUP8 SWAP6 POP POP POP POP POP POP SWAP3 SWAP2 POP POP JUMP JUMPDEST PUSH0 PUSH1 0x20 DUP3 ADD SWAP1 POP DUP2 DUP2 SUB PUSH0 DUP4 ADD MSTORE PUSH2 0x243A DUP2 DUP5 PUSH2 0x23AF JUMP JUMPDEST SWAP1 POP SWAP3 SWAP2 POP POP JUMP JUMPDEST PUSH0 DUP1 PUSH1 0x40 DUP4 DUP6 SUB SLT ISZERO PUSH2 0x2458 JUMPI PUSH2 0x2457 PUSH2 0x1E85 JUMP JUMPDEST JUMPDEST PUSH0 PUSH2 0x2465 DUP6 DUP3 DUP7 ADD PUSH2 0x2041 JUMP JUMPDEST SWAP3 POP POP PUSH1 0x20 PUSH2 0x2476 DUP6 DUP3 DUP7 ADD PUSH2 0x1F86 JUMP JUMPDEST SWAP2 POP POP SWAP3 POP SWAP3 SWAP1 POP JUMP JUMPDEST PUSH2 0x2489 DUP2 PUSH2 0x1E8D JUMP JUMPDEST DUP3 MSTORE POP POP JUMP JUMPDEST PUSH0 DUP3 DUP3 MSTORE PUSH1 0x20 DUP3 ADD SWAP1 POP SWAP3 SWAP2 POP POP JUMP JUMPDEST PUSH0 PUSH2 0x24A9 DUP3 PUSH2 0x21EE JUMP JUMPDEST PUSH2 0x24B3 DUP2 DUP6 PUSH2 0x248F JUMP JUMPDEST SWAP4 POP PUSH2 0x24C3 DUP2 DUP6 PUSH1 0x20 DUP7 ADD PUSH2 0x2208 JUMP JUMPDEST PUSH2 0x24CC DUP2 PUSH2 0x2230 JUMP JUMPDEST DUP5 ADD SWAP2 POP POP SWAP3 SWAP2 POP POP JUMP JUMPDEST PUSH2 0x24E0 DUP2 PUSH2 0x201A JUMP JUMPDEST DUP3 MSTORE POP POP JUMP JUMPDEST PUSH0 PUSH2 0x160 DUP3 ADD SWAP1 POP PUSH2 0x24FA PUSH0 DUP4 ADD DUP15 PUSH2 0x2480 JUMP JUMPDEST PUSH2 0x2507 PUSH1 0x20 DUP4 ADD DUP14 PUSH2 0x2480 JUMP JUMPDEST DUP2 DUP2 SUB PUSH1 0x40 DUP4 ADD MSTORE PUSH2 0x2519 DUP2 DUP13 PUSH2 0x249F JUMP JUMPDEST SWAP1 POP PUSH2 0x2528 PUSH1 0x60 DUP4 ADD DUP12 PUSH2 0x2480 JUMP JUMPDEST DUP2 DUP2 SUB PUSH1 0x80 DUP4 ADD MSTORE PUSH2 0x253A DUP2 DUP11 PUSH2 0x249F JUMP JUMPDEST SWAP1 POP PUSH2 0x2549 PUSH1 0xA0 DUP4 ADD DUP10 PUSH2 0x1F4F JUMP JUMPDEST DUP2 DUP2 SUB PUSH1 0xC0 DUP4 ADD MSTORE PUSH2 0x255B DUP2 DUP9 PUSH2 0x249F JUMP JUMPDEST SWAP1 POP PUSH2 0x256A PUSH1 0xE0 DUP4 ADD DUP8 PUSH2 0x24D7 JUMP JUMPDEST PUSH2 0x2578 PUSH2 0x100 DUP4 ADD DUP7 PUSH2 0x24D7 JUMP JUMPDEST PUSH2 0x2586 PUSH2 0x120 DUP4 ADD DUP6 PUSH2 0x24D7 JUMP JUMPDEST PUSH2 0x2594 PUSH2 0x140 DUP4 ADD DUP5 PUSH2 0x2480 JUMP JUMPDEST SWAP13 SWAP12 POP POP POP POP POP POP POP POP POP POP POP POP JUMP JUMPDEST PUSH0 DUP1 PUSH1 0x40 DUP4 DUP6 SUB SLT ISZERO PUSH2 0x25BA JUMPI PUSH2 0x25B9 PUSH2 0x1E85 JUMP JUMPDEST JUMPDEST PUSH0 PUSH2 0x25C7 DUP6 DUP3 DUP7 ADD PUSH2 0x1EAC JUMP JUMPDEST SWAP3 POP POP PUSH1 0x20 PUSH2 0x25D8 DUP6 DUP3 DUP7 ADD PUSH2 0x2041 JUMP JUMPDEST SWAP2 POP POP SWAP3 POP SWAP3 SWAP1 POP JUMP JUMPDEST PUSH0 PUSH1 0x20 DUP3 ADD SWAP1 POP PUSH2 0x25F5 PUSH0 DUP4 ADD DUP5 PUSH2 0x2480 JUMP JUMPDEST SWAP3 SWAP2 POP POP JUMP JUMPDEST PUSH0 PUSH2 0x160 DUP4 ADD PUSH0 DUP4 ADD MLOAD PUSH2 0x2611 PUSH0 DUP7 ADD DUP3 PUSH2 0x21DF JUMP JUMPDEST POP PUSH1 0x20 DUP4 ADD MLOAD PUSH2 0x2624 PUSH1 0x20 DUP7 ADD DUP3 PUSH2 0x21DF JUMP JUMPDEST POP PUSH1 0x40 DUP4 ADD MLOAD DUP5 DUP3 SUB PUSH1 0x40 DUP7 ADD MSTORE PUSH2 0x263C DUP3 DUP3 PUSH2 0x2240 JUMP JUMPDEST SWAP2 POP POP PUSH1 0x60 DUP4 ADD MLOAD PUSH2 0x2651 PUSH1 0x60 DUP7 ADD DUP3 PUSH2 0x21DF JUMP JUMPDEST POP PUSH1 0x80 DUP4 ADD MLOAD DUP5 DUP3 SUB PUSH1 0x80 DUP7 ADD MSTORE PUSH2 0x2669 DUP3 DUP3 PUSH2 0x2240 JUMP JUMPDEST SWAP2 POP POP PUSH1 0xA0 DUP4 ADD MLOAD PUSH2 0x267E PUSH1 0xA0 DUP7 ADD DUP3 PUSH2 0x2278 JUMP JUMPDEST POP PUSH1 0xC0 DUP4 ADD MLOAD DUP5 DUP3 SUB PUSH1 0xC0 DUP7 ADD MSTORE PUSH2 0x2696 DUP3 DUP3 PUSH2 0x2240 JUMP JUMPDEST SWAP2 POP POP PUSH1 0xE0 DUP4 ADD MLOAD PUSH2 0x26AB PUSH1 0xE0 DUP7 ADD DUP3 PUSH2 0x2287 JUMP JUMPDEST POP PUSH2 0x100 DUP4 ADD MLOAD PUSH2 0x26C0 PUSH2 0x100 DUP7 ADD DUP3 PUSH2 0x2287 JUMP JUMPDEST POP PUSH2 0x120 DUP4 ADD MLOAD PUSH2 0x26D5 PUSH2 0x120 DUP7 ADD DUP3 PUSH2 0x2287 JUMP JUMPDEST POP PUSH2 0x140 DUP4 ADD MLOAD PUSH2 0x26EA PUSH2 0x140 DUP7 ADD DUP3 PUSH2 0x21DF JUMP JUMPDEST POP DUP1 SWAP2 POP POP SWAP3 SWAP2 POP POP JUMP JUMPDEST PUSH0 PUSH1 0x20 DUP3 ADD SWAP1 POP DUP2 DUP2 SUB PUSH0 DUP4 ADD MSTORE PUSH2 0x270D DUP2 DUP5 PUSH2 0x25FB JUMP JUMPDEST SWAP1 POP SWAP3 SWAP2 POP POP JUMP JUMPDEST PUSH0 DUP1 PUSH0 DUP1 PUSH0 DUP1 PUSH0 DUP1 PUSH1 0xC0 DUP10 DUP12 SUB SLT ISZERO PUSH2 0x2731 JUMPI PUSH2 0x2730 PUSH2 0x1E85 JUMP JUMPDEST JUMPDEST PUSH0 PUSH2 0x273E DUP12 DUP3 DUP13 ADD PUSH2 0x1EAC JUMP JUMPDEST SWAP9 POP POP PUSH1 0x20 DUP10 ADD CALLDATALOAD PUSH8 0xFFFFFFFFFFFFFFFF DUP2 GT ISZERO PUSH2 0x275F JUMPI PUSH2 0x275E PUSH2 0x1E89 JUMP JUMPDEST JUMPDEST PUSH2 0x276B DUP12 DUP3 DUP13 ADD PUSH2 0x1FA6 JUMP JUMPDEST SWAP8 POP SWAP8 POP POP PUSH1 0x40 PUSH2 0x277E DUP12 DUP3 DUP13 ADD PUSH2 0x1EAC JUMP JUMPDEST SWAP6 POP POP PUSH1 0x60 DUP10 ADD CALLDATALOAD PUSH8 0xFFFFFFFFFFFFFFFF DUP2 GT ISZERO PUSH2 0x279F JUMPI PUSH2 0x279E PUSH2 0x1E89 JUMP JUMPDEST JUMPDEST PUSH2 0x27AB DUP12 DUP3 DUP13 ADD PUSH2 0x1FA6 JUMP JUMPDEST SWAP5 POP SWAP5 POP POP PUSH1 0x80 PUSH2 0x27BE DUP12 DUP3 DUP13 ADD PUSH2 0x2041 JUMP JUMPDEST SWAP3 POP POP PUSH1 0xA0 PUSH2 0x27CF DUP12 DUP3 DUP13 ADD PUSH2 0x2041 JUMP JUMPDEST SWAP2 POP POP SWAP3 SWAP6 SWAP9 POP SWAP3 SWAP6 SWAP9 SWAP1 SWAP4 SWAP7 POP JUMP JUMPDEST PUSH32 0x42757320646F6573206E6F742065786973742077697468207468652049442079 PUSH0 DUP3 ADD MSTORE PUSH32 0x6F75207772697465206974212121000000000000000000000000000000000000 PUSH1 0x20 DUP3 ADD MSTORE POP JUMP JUMPDEST PUSH0 PUSH2 0x2839 PUSH1 0x2E DUP4 PUSH2 0x248F JUMP JUMPDEST SWAP2 POP PUSH2 0x2844 DUP3 PUSH2 0x27DF JUMP JUMPDEST PUSH1 0x40 DUP3 ADD SWAP1 POP SWAP2 SWAP1 POP JUMP JUMPDEST PUSH0 PUSH1 0x20 DUP3 ADD SWAP1 POP DUP2 DUP2 SUB PUSH0 DUP4 ADD MSTORE PUSH2 0x2866 DUP2 PUSH2 0x282D JUMP JUMPDEST SWAP1 POP SWAP2 SWAP1 POP JUMP JUMPDEST PUSH32 0x54484520594F5520417265204C4F4F4B494E4720464F5220646F6573206E6F74 PUSH0 DUP3 ADD MSTORE PUSH32 0x2065786973742121212100000000000000000000000000000000000000000000 PUSH1 0x20 DUP3 ADD MSTORE POP JUMP JUMPDEST PUSH0 PUSH2 0x28C7 PUSH1 0x2A DUP4 PUSH2 0x248F JUMP JUMPDEST SWAP2 POP PUSH2 0x28D2 DUP3 PUSH2 0x286D JUMP JUMPDEST PUSH1 0x40 DUP3 ADD SWAP1 POP SWAP2 SWAP1 POP JUMP JUMPDEST PUSH0 PUSH1 0x20 DUP3 ADD SWAP1 POP DUP2 DUP2 SUB PUSH0 DUP4 ADD MSTORE PUSH2 0x28F4 DUP2 PUSH2 0x28BB JUMP JUMPDEST SWAP1 POP SWAP2 SWAP1 POP JUMP JUMPDEST PUSH0 DUP3 SWAP1 POP SWAP3 SWAP2 POP POP JUMP JUMPDEST PUSH32 0x4E487B7100000000000000000000000000000000000000000000000000000000 PUSH0 MSTORE PUSH1 0x41 PUSH1 0x4 MSTORE PUSH1 0x24 PUSH0 REVERT JUMPDEST PUSH32 0x4E487B7100000000000000000000000000000000000000000000000000000000 PUSH0 MSTORE PUSH1 0x22 PUSH1 0x4 MSTORE PUSH1 0x24 PUSH0 REVERT JUMPDEST PUSH0 PUSH1 0x2 DUP3 DIV SWAP1 POP PUSH1 0x1 DUP3 AND DUP1 PUSH2 0x2976 JUMPI PUSH1 0x7F DUP3 AND SWAP2 POP JUMPDEST PUSH1 0x20 DUP3 LT DUP2 SUB PUSH2 0x2989 JUMPI PUSH2 0x2988 PUSH2 0x2932 JUMP JUMPDEST JUMPDEST POP SWAP2 SWAP1 POP JUMP JUMPDEST PUSH0 DUP2 SWAP1 POP DUP2 PUSH0 MSTORE PUSH1 0x20 PUSH0 KECCAK256 SWAP1 POP SWAP2 SWAP1 POP JUMP JUMPDEST PUSH0 PUSH1 0x20 PUSH1 0x1F DUP4 ADD DIV SWAP1 POP SWAP2 SWAP1 POP JUMP JUMPDEST PUSH0 DUP3 DUP3 SHL SWAP1 POP SWAP3 SWAP2 POP POP JUMP JUMPDEST PUSH0 PUSH1 0x8 DUP4 MUL PUSH2 0x29EB PUSH32 0xFFFFFFFFFFFFFFFFFFFFFFFFFFFFFFFFFFFFFFFFFFFFFFFFFFFFFFFFFFFFFFFF DUP3 PUSH2 0x29B0 JUMP JUMPDEST PUSH2 0x29F5 DUP7 DUP4 PUSH2 0x29B0 JUMP JUMPDEST SWAP6 POP DUP1 NOT DUP5 AND SWAP4 POP DUP1 DUP7 AND DUP5 OR SWAP3 POP POP POP SWAP4 SWAP3 POP POP POP JUMP JUMPDEST PUSH0 PUSH2 0x2A27 PUSH2 0x2A22 PUSH2 0x2A1D DUP5 PUSH2 0x1E8D JUMP JUMPDEST PUSH2 0x20D9 JUMP JUMPDEST PUSH2 0x1E8D JUMP JUMPDEST SWAP1 POP SWAP2 SWAP1 POP JUMP JUMPDEST PUSH0 DUP2 SWAP1 POP SWAP2 SWAP1 POP JUMP JUMPDEST PUSH2 0x2A40 DUP4 PUSH2 0x2A0D JUMP JUMPDEST PUSH2 0x2A54 PUSH2 0x2A4C DUP3 PUSH2 0x2A2E JUMP JUMPDEST DUP5 DUP5 SLOAD PUSH2 0x29BC JUMP JUMPDEST DUP3 SSTORE POP POP POP POP JUMP JUMPDEST PUSH0 SWAP1 JUMP JUMPDEST PUSH2 0x2A68 PUSH2 0x2A5C JUMP JUMPDEST PUSH2 0x2A73 DUP2 DUP5 DUP5 PUSH2 0x2A37 JUMP JUMPDEST POP POP POP JUMP JUMPDEST JUMPDEST DUP2 DUP2 LT ISZERO PUSH2 0x2A96 JUMPI PUSH2 0x2A8B PUSH0 DUP3 PUSH2 0x2A60 JUMP JUMPDEST PUSH1 0x1 DUP2 ADD SWAP1 POP PUSH2 0x2A79 JUMP JUMPDEST POP POP JUMP JUMPDEST PUSH1 0x1F DUP3 GT ISZERO PUSH2 0x2ADB JUMPI PUSH2 0x2AAC DUP2 PUSH2 0x298F JUMP JUMPDEST PUSH2 0x2AB5 DUP5 PUSH2 0x29A1 JUMP JUMPDEST DUP2 ADD PUSH1 0x20 DUP6 LT ISZERO PUSH2 0x2AC4 JUMPI DUP2 SWAP1 POP JUMPDEST PUSH2 0x2AD8 PUSH2 0x2AD0 DUP6 PUSH2 0x29A1 JUMP JUMPDEST DUP4 ADD DUP3 PUSH2 0x2A78 JUMP JUMPDEST POP POP JUMPDEST POP POP POP JUMP JUMPDEST PUSH0 DUP3 DUP3 SHR SWAP1 POP SWAP3 SWAP2 POP POP JUMP JUMPDEST PUSH0 PUSH2 0x2AFB PUSH0 NOT DUP5 PUSH1 0x8 MUL PUSH2 0x2AE0 JUMP JUMPDEST NOT DUP1 DUP4 AND SWAP2 POP POP SWAP3 SWAP2 POP POP JUMP JUMPDEST PUSH0 PUSH2 0x2B13 DUP4 DUP4 PUSH2 0x2AEC JUMP JUMPDEST SWAP2 POP DUP3 PUSH1 0x2 MUL DUP3 OR SWAP1 POP SWAP3 SWAP2 POP POP JUMP JUMPDEST PUSH2 0x2B2D DUP4 DUP4 PUSH2 0x28FB JUMP JUMPDEST PUSH8 0xFFFFFFFFFFFFFFFF DUP2 GT ISZERO PUSH2 0x2B46 JUMPI PUSH2 0x2B45 PUSH2 0x2905 JUMP JUMPDEST JUMPDEST PUSH2 0x2B50 DUP3 SLOAD PUSH2 0x295F JUMP JUMPDEST PUSH2 0x2B5B DUP3 DUP3 DUP6 PUSH2 0x2A9A JUMP JUMPDEST PUSH0 PUSH1 0x1F DUP4 GT PUSH1 0x1 DUP2 EQ PUSH2 0x2B88 JUMPI PUSH0 DUP5 ISZERO PUSH2 0x2B76 JUMPI DUP3 DUP8 ADD CALLDATALOAD SWAP1 POP JUMPDEST PUSH2 0x2B80 DUP6 DUP3 PUSH2 0x2B08 JUMP JUMPDEST DUP7 SSTORE POP PUSH2 0x2BE7 JUMP JUMPDEST PUSH1 0x1F NOT DUP5 AND PUSH2 0x2B96 DUP7 PUSH2 0x298F JUMP JUMPDEST PUSH0 JUMPDEST DUP3 DUP2 LT ISZERO PUSH2 0x2BBD JUMPI DUP5 DUP10 ADD CALLDATALOAD DUP3 SSTORE PUSH1 0x1 DUP3 ADD SWAP2 POP PUSH1 0x20 DUP6 ADD SWAP5 POP PUSH1 0x20 DUP2 ADD SWAP1 POP PUSH2 0x2B98 JUMP JUMPDEST DUP7 DUP4 LT ISZERO PUSH2 0x2BDA JUMPI DUP5 DUP10 ADD CALLDATALOAD PUSH2 0x2BD6 PUSH1 0x1F DUP10 AND DUP3 PUSH2 0x2AEC JUMP JUMPDEST DUP4 SSTORE POP JUMPDEST PUSH1 0x1 PUSH1 0x2 DUP9 MUL ADD DUP9 SSTORE POP POP POP JUMPDEST POP POP POP POP POP POP POP JUMP JUMPDEST DUP3 DUP2 DUP4 CALLDATACOPY PUSH0 DUP4 DUP4 ADD MSTORE POP POP POP JUMP JUMPDEST PUSH0 PUSH2 0x2C09 DUP4 DUP6 PUSH2 0x248F JUMP JUMPDEST SWAP4 POP PUSH2 0x2C16 DUP4 DUP6 DUP5 PUSH2 0x2BF0 JUMP JUMPDEST PUSH2 0x2C1F DUP4 PUSH2 0x2230 JUMP JUMPDEST DUP5 ADD SWAP1 POP SWAP4 SWAP3 POP POP POP JUMP JUMPDEST PUSH0 PUSH1 0x40 DUP3 ADD SWAP1 POP DUP2 DUP2 SUB PUSH0 DUP4 ADD MSTORE PUSH2 0x2C43 DUP2 DUP6 DUP8 PUSH2 0x2BFE JUMP JUMPDEST SWAP1 POP PUSH2 0x2C52 PUSH1 0x20 DUP4 ADD DUP5 PUSH2 0x24D7 JUMP JUMPDEST SWAP5 SWAP4 POP POP POP POP JUMP JUMPDEST PUSH0 PUSH1 0x20 DUP3 ADD SWAP1 POP PUSH2 0x2C6D PUSH0 DUP4 ADD DUP5 PUSH2 0x24D7 JUMP JUMPDEST SWAP3 SWAP2 POP POP JUMP JUMPDEST PUSH0 DUP2 ISZERO ISZERO SWAP1 POP SWAP2 SWAP1 POP JUMP JUMPDEST PUSH2 0x2C87 DUP2 PUSH2 0x2C73 JUMP JUMPDEST DUP2 EQ PUSH2 0x2C91 JUMPI PUSH0 DUP1 REVERT JUMPDEST POP JUMP JUMPDEST PUSH0 DUP2 MLOAD SWAP1 POP PUSH2 0x2CA2 DUP2 PUSH2 0x2C7E JUMP JUMPDEST SWAP3 SWAP2 POP POP JUMP JUMPDEST PUSH0 PUSH1 0x20 DUP3 DUP5 SUB SLT ISZERO PUSH2 0x2CBD JUMPI PUSH2 0x2CBC PUSH2 0x1E85 JUMP JUMPDEST JUMPDEST PUSH0 PUSH2 0x2CCA DUP5 DUP3 DUP6 ADD PUSH2 0x2C94 JUMP JUMPDEST SWAP2 POP POP SWAP3 SWAP2 POP POP JUMP JUMPDEST PUSH32 0x476F7665726E6D656E74206973206E6F7420617574686F72697A656420617320 PUSH0 DUP3 ADD MSTORE PUSH32 0x676F7665726E6D656E742E000000000000000000000000000000000000000000 PUSH1 0x20 DUP3 ADD MSTORE POP JUMP JUMPDEST PUSH0 PUSH2 0x2D2D PUSH1 0x2B DUP4 PUSH2 0x248F JUMP JUMPDEST SWAP2 POP PUSH2 0x2D38 DUP3 PUSH2 0x2CD3 JUMP JUMPDEST PUSH1 0x40 DUP3 ADD SWAP1 POP SWAP2 SWAP1 POP JUMP JUMPDEST PUSH0 PUSH1 0x20 DUP3 ADD SWAP1 POP DUP2 DUP2 SUB PUSH0 DUP4 ADD MSTORE PUSH2 0x2D5A DUP2 PUSH2 0x2D21 JUMP JUMPDEST SWAP1 POP SWAP2 SWAP1 POP JUMP JUMPDEST PUSH0 PUSH1 0x40 DUP3 ADD SWAP1 POP PUSH2 0x2D74 PUSH0 DUP4 ADD DUP6 PUSH2 0x2480 JUMP JUMPDEST PUSH2 0x2D81 PUSH1 0x20 DUP4 ADD DUP5 PUSH2 0x2480 JUMP JUMPDEST SWAP4 SWAP3 POP POP POP JUMP JUMPDEST PUSH32 0x4E487B7100000000000000000000000000000000000000000000000000000000 PUSH0 MSTORE PUSH1 0x11 PUSH1 0x4 MSTORE PUSH1 0x24 PUSH0 REVERT JUMPDEST PUSH0 PUSH2 0x2DBF DUP3 PUSH2 0x1E8D JUMP JUMPDEST SWAP2 POP PUSH32 0xFFFFFFFFFFFFFFFFFFFFFFFFFFFFFFFFFFFFFFFFFFFFFFFFFFFFFFFFFFFFFFFF DUP3 SUB PUSH2 0x2DF1 JUMPI PUSH2 0x2DF0 PUSH2 0x2D88 JUMP JUMPDEST JUMPDEST PUSH1 0x1 DUP3 ADD SWAP1 POP SWAP2 SWAP1 POP JUMP JUMPDEST PUSH32 0x4E487B7100000000000000000000000000000000000000000000000000000000 PUSH0 MSTORE PUSH1 0x32 PUSH1 0x4 MSTORE PUSH1 0x24 PUSH0 REVERT JUMPDEST PUSH0 DUP1 REVERT JUMPDEST PUSH2 0x2E36 DUP3 PUSH2 0x2230 JUMP JUMPDEST DUP2 ADD DUP2 DUP2 LT PUSH8 0xFFFFFFFFFFFFFFFF DUP3 GT OR ISZERO PUSH2 0x2E55 JUMPI PUSH2 0x2E54 PUSH2 0x2905 JUMP JUMPDEST JUMPDEST DUP1 PUSH1 0x40 MSTORE POP POP POP JUMP JUMPDEST PUSH0 PUSH2 0x2E67 PUSH2 0x1E7C JUMP JUMPDEST SWAP1 POP PUSH2 0x2E73 DUP3 DUP3 PUSH2 0x2E2D JUMP JUMPDEST SWAP2 SWAP1 POP JUMP JUMPDEST PUSH0 DUP1 REVERT JUMPDEST PUSH0 DUP2 MLOAD SWAP1 POP PUSH2 0x2E8A DUP2 PUSH2 0x1E96 JUMP JUMPDEST SWAP3 SWAP2 POP POP JUMP JUMPDEST PUSH0 DUP1 REVERT JUMPDEST PUSH0 PUSH8 0xFFFFFFFFFFFFFFFF DUP3 GT ISZERO PUSH2 0x2EAE JUMPI PUSH2 0x2EAD PUSH2 0x2905 JUMP JUMPDEST JUMPDEST PUSH2 0x2EB7 DUP3 PUSH2 0x2230 JUMP JUMPDEST SWAP1 POP PUSH1 0x20 DUP2 ADD SWAP1 POP SWAP2 SWAP1 POP JUMP JUMPDEST PUSH0 PUSH2 0x2ED6 PUSH2 0x2ED1 DUP5 PUSH2 0x2E94 JUMP JUMPDEST PUSH2 0x2E5E JUMP JUMPDEST SWAP1 POP DUP3 DUP2 MSTORE PUSH1 0x20 DUP2 ADD DUP5 DUP5 DUP5 ADD GT ISZERO PUSH2 0x2EF2 JUMPI PUSH2 0x2EF1 PUSH2 0x2E90 JUMP JUMPDEST JUMPDEST PUSH2 0x2EFD DUP5 DUP3 DUP6 PUSH2 0x2208 JUMP JUMPDEST POP SWAP4 SWAP3 POP POP POP JUMP JUMPDEST PUSH0 DUP3 PUSH1 0x1F DUP4 ADD SLT PUSH2 0x2F19 JUMPI PUSH2 0x2F18 PUSH2 0x1F9A JUMP JUMPDEST JUMPDEST DUP2 MLOAD PUSH2 0x2F29 DUP5 DUP3 PUSH1 0x20 DUP7 ADD PUSH2 0x2EC4 JUMP JUMPDEST SWAP2 POP POP SWAP3 SWAP2 POP POP JUMP JUMPDEST PUSH0 DUP2 MLOAD SWAP1 POP PUSH2 0x2F40 DUP2 PUSH2 0x1F77 JUMP JUMPDEST SWAP3 SWAP2 POP POP JUMP JUMPDEST PUSH0 DUP2 MLOAD SWAP1 POP PUSH2 0x2F54 DUP2 PUSH2 0x202B JUMP JUMPDEST SWAP3 SWAP2 POP POP JUMP JUMPDEST PUSH0 PUSH2 0x160 DUP3 DUP5 SUB SLT ISZERO PUSH2 0x2F70 JUMPI PUSH2 0x2F6F PUSH2 0x2E29 JUMP JUMPDEST JUMPDEST PUSH2 0x2F7B PUSH2 0x160 PUSH2 0x2E5E JUMP JUMPDEST SWAP1 POP PUSH0 PUSH2 0x2F8A DUP5 DUP3 DUP6 ADD PUSH2 0x2E7C JUMP JUMPDEST PUSH0 DUP4 ADD MSTORE POP PUSH1 0x20 PUSH2 0x2F9D DUP5 DUP3 DUP6 ADD PUSH2 0x2E7C JUMP JUMPDEST PUSH1 0x20 DUP4 ADD MSTORE POP PUSH1 0x40 DUP3 ADD MLOAD PUSH8 0xFFFFFFFFFFFFFFFF DUP2 GT ISZERO PUSH2 0x2FC1 JUMPI PUSH2 0x2FC0 PUSH2 0x2E78 JUMP JUMPDEST JUMPDEST PUSH2 0x2FCD DUP5 DUP3 DUP6 ADD PUSH2 0x2F05 JUMP JUMPDEST PUSH1 0x40 DUP4 ADD MSTORE POP PUSH1 0x60 PUSH2 0x2FE1 DUP5 DUP3 DUP6 ADD PUSH2 0x2E7C JUMP JUMPDEST PUSH1 0x60 DUP4 ADD MSTORE POP PUSH1 0x80 DUP3 ADD MLOAD PUSH8 0xFFFFFFFFFFFFFFFF DUP2 GT ISZERO PUSH2 0x3005 JUMPI PUSH2 0x3004 PUSH2 0x2E78 JUMP JUMPDEST JUMPDEST PUSH2 0x3011 DUP5 DUP3 DUP6 ADD PUSH2 0x2F05 JUMP JUMPDEST PUSH1 0x80 DUP4 ADD MSTORE POP PUSH1 0xA0 PUSH2 0x3025 DUP5 DUP3 DUP6 ADD PUSH2 0x2F32 JUMP JUMPDEST PUSH1 0xA0 DUP4 ADD MSTORE POP PUSH1 0xC0 DUP3 ADD MLOAD PUSH8 0xFFFFFFFFFFFFFFFF DUP2 GT ISZERO PUSH2 0x3049 JUMPI PUSH2 0x3048 PUSH2 0x2E78 JUMP JUMPDEST JUMPDEST PUSH2 0x3055 DUP5 DUP3 DUP6 ADD PUSH2 0x2F05 JUMP JUMPDEST PUSH1 0xC0 DUP4 ADD MSTORE POP PUSH1 0xE0 PUSH2 0x3069 DUP5 DUP3 DUP6 ADD PUSH2 0x2F46 JUMP JUMPDEST PUSH1 0xE0 DUP4 ADD MSTORE POP PUSH2 0x100 PUSH2 0x307E DUP5 DUP3 DUP6 ADD PUSH2 0x2F46 JUMP JUMPDEST PUSH2 0x100 DUP4 ADD MSTORE POP PUSH2 0x120 PUSH2 0x3094 DUP5 DUP3 DUP6 ADD PUSH2 0x2F46 JUMP JUMPDEST PUSH2 0x120 DUP4 ADD MSTORE POP PUSH2 0x140 PUSH2 0x30AA DUP5 DUP3 DUP6 ADD PUSH2 0x2E7C JUMP JUMPDEST PUSH2 0x140 DUP4 ADD MSTORE POP SWAP3 SWAP2 POP POP JUMP JUMPDEST PUSH0 PUSH1 0x20 DUP3 DUP5 SUB SLT ISZERO PUSH2 0x30CC JUMPI PUSH2 0x30CB PUSH2 0x1E85 JUMP JUMPDEST JUMPDEST PUSH0 DUP3 ADD MLOAD PUSH8 0xFFFFFFFFFFFFFFFF DUP2 GT ISZERO PUSH2 0x30E9 JUMPI PUSH2 0x30E8 PUSH2 0x1E89 JUMP JUMPDEST JUMPDEST PUSH2 0x30F5 DUP5 DUP3 DUP6 ADD PUSH2 0x2F5A JUMP JUMPDEST SWAP2 POP POP SWAP3 SWAP2 POP POP JUMP JUMPDEST PUSH32 0x53686172656453746F726167653A204E6577206F776E65722063616E6E6F7420 PUSH0 DUP3 ADD MSTORE PUSH32 0x6265207A65726F20616464726573732E00000000000000000000000000000000 PUSH1 0x20 DUP3 ADD MSTORE POP JUMP JUMPDEST PUSH0 PUSH2 0x3158 PUSH1 0x30 DUP4 PUSH2 0x248F JUMP JUMPDEST SWAP2 POP PUSH2 0x3163 DUP3 PUSH2 0x30FE JUMP JUMPDEST PUSH1 0x40 DUP3 ADD SWAP1 POP SWAP2 SWAP1 POP JUMP JUMPDEST PUSH0 PUSH1 0x20 DUP3 ADD SWAP1 POP DUP2 DUP2 SUB PUSH0 DUP4 ADD MSTORE PUSH2 0x3185 DUP2 PUSH2 0x314C JUMP JUMPDEST SWAP1 POP SWAP2 SWAP1 POP JUMP JUMPDEST PUSH32 0x61206D6573736167652066726F6D2053746F7261676520636F6E74726163743A PUSH0 DUP3 ADD MSTORE PUSH32 0x20436F756E74657220696E206E6F742073746172746564207965742100000000 PUSH1 0x20 DUP3 ADD MSTORE POP JUMP JUMPDEST PUSH0 PUSH2 0x31E6 PUSH1 0x3C DUP4 PUSH2 0x248F JUMP JUMPDEST SWAP2 POP PUSH2 0x31F1 DUP3 PUSH2 0x318C JUMP JUMPDEST PUSH1 0x40 DUP3 ADD SWAP1 POP SWAP2 SWAP1 POP JUMP JUMPDEST PUSH0 PUSH1 0x20 DUP3 ADD SWAP1 POP DUP2 DUP2 SUB PUSH0 DUP4 ADD MSTORE PUSH2 0x3213 DUP2 PUSH2 0x31DA JUMP JUMPDEST SWAP1 POP SWAP2 SWAP1 POP JUMP JUMPDEST PUSH0 PUSH2 0x3224 DUP3 PUSH2 0x1E8D JUMP JUMPDEST SWAP2 POP PUSH2 0x322F DUP4 PUSH2 0x1E8D JUMP JUMPDEST SWAP3 POP DUP3 DUP3 SUB SWAP1 POP DUP2 DUP2 GT ISZERO PUSH2 0x3247 JUMPI PUSH2 0x3246 PUSH2 0x2D88 JUMP JUMPDEST JUMPDEST SWAP3 SWAP2 POP POP JUMP JUMPDEST PUSH2 0x3256 DUP3 PUSH2 0x21EE JUMP JUMPDEST PUSH8 0xFFFFFFFFFFFFFFFF DUP2 GT ISZERO PUSH2 0x326F JUMPI PUSH2 0x326E PUSH2 0x2905 JUMP JUMPDEST JUMPDEST PUSH2 0x3279 DUP3 SLOAD PUSH2 0x295F JUMP JUMPDEST PUSH2 0x3284 DUP3 DUP3 DUP6 PUSH2 0x2A9A JUMP JUMPDEST PUSH0 PUSH1 0x20 SWAP1 POP PUSH1 0x1F DUP4 GT PUSH1 0x1 DUP2 EQ PUSH2 0x32B5 JUMPI PUSH0 DUP5 ISZERO PUSH2 0x32A3 JUMPI DUP3 DUP8 ADD MLOAD SWAP1 POP JUMPDEST PUSH2 0x32AD DUP6 DUP3 PUSH2 0x2B08 JUMP JUMPDEST DUP7 SSTORE POP PUSH2 0x3314 JUMP JUMPDEST PUSH1 0x1F NOT DUP5 AND PUSH2 0x32C3 DUP7 PUSH2 0x298F JUMP JUMPDEST PUSH0 JUMPDEST DUP3 DUP2 LT ISZERO PUSH2 0x32EA JUMPI DUP5 DUP10 ADD MLOAD DUP3 SSTORE PUSH1 0x1 DUP3 ADD SWAP2 POP PUSH1 0x20 DUP6 ADD SWAP5 POP PUSH1 0x20 DUP2 ADD SWAP1 POP PUSH2 0x32C5 JUMP JUMPDEST DUP7 DUP4 LT ISZERO PUSH2 0x3307 JUMPI DUP5 DUP10 ADD MLOAD PUSH2 0x3303 PUSH1 0x1F DUP10 AND DUP3 PUSH2 0x2AEC JUMP JUMPDEST DUP4 SSTORE POP JUMPDEST PUSH1 0x1 PUSH1 0x2 DUP9 MUL ADD DUP9 SSTORE POP POP POP JUMPDEST POP POP POP POP POP POP JUMP JUMPDEST POP JUMP JUMPDEST PUSH0 PUSH2 0x332A PUSH0 DUP4 PUSH2 0x248F JUMP JUMPDEST SWAP2 POP PUSH2 0x3335 DUP3 PUSH2 0x331C JUMP JUMPDEST PUSH0 DUP3 ADD SWAP1 POP SWAP2 SWAP1 POP JUMP JUMPDEST PUSH0 DUP2 SWAP1 POP SWAP2 SWAP1 POP JUMP JUMPDEST PUSH0 PUSH2 0x3362 PUSH2 0x335D PUSH2 0x3358 DUP5 PUSH2 0x333F JUMP JUMPDEST PUSH2 0x20D9 JUMP JUMPDEST PUSH2 0x1E8D JUMP JUMPDEST SWAP1 POP SWAP2 SWAP1 POP JUMP JUMPDEST PUSH2 0x3372 DUP2 PUSH2 0x3348 JUMP JUMPDEST DUP3 MSTORE POP POP JUMP JUMPDEST PUSH0 PUSH2 0x100 DUP3 ADD SWAP1 POP PUSH2 0x338C PUSH0 DUP4 ADD DUP13 PUSH2 0x2480 JUMP JUMPDEST DUP2 DUP2 SUB PUSH1 0x20 DUP4 ADD MSTORE PUSH2 0x339F DUP2 DUP11 DUP13 PUSH2 0x2BFE JUMP JUMPDEST SWAP1 POP DUP2 DUP2 SUB PUSH1 0x40 DUP4 ADD MSTORE PUSH2 0x33B4 DUP2 DUP9 DUP11 PUSH2 0x2BFE JUMP JUMPDEST SWAP1 POP DUP2 DUP2 SUB PUSH1 0x60 DUP4 ADD MSTORE PUSH2 0x33C7 DUP2 PUSH2 0x331F JUMP JUMPDEST SWAP1 POP PUSH2 0x33D6 PUSH1 0x80 DUP4 ADD DUP8 PUSH2 0x24D7 JUMP JUMPDEST PUSH2 0x33E3 PUSH1 0xA0 DUP4 ADD DUP7 PUSH2 0x24D7 JUMP JUMPDEST PUSH2 0x33F0 PUSH1 0xC0 DUP4 ADD DUP6 PUSH2 0x24D7 JUMP JUMPDEST PUSH2 0x33FD PUSH1 0xE0 DUP4 ADD DUP5 PUSH2 0x3369 JUMP JUMPDEST SWAP11 SWAP10 POP POP POP POP POP POP POP POP POP POP JUMP INVALID LOG2 PUSH5 0x6970667358 0x22 SLT KECCAK256 0xC8 PUSH31 0xDBDB6373481671968E267ECE8D95E633A6833F9AB36FD29F9B9D444E582C64 PUSH20 0x6F6C634300081600330000000000000000000000 "
		},
		"gasEstimates": {
			"creation": {
				"codeDepositCost": "2675400",
				"executionCost": "infinite",
				"totalCost": "infinite"
			},
			"external": {
				"addBus(uint256,string,uint256,string,address,address)": "infinite",
				"addressManager()": "infinite",
				"busItem()": "infinite",
				"getBusData(uint256)": "infinite",
				"getBusStatus(uint256)": "5112",
				"getBusesByCompany(address)": "infinite",
				"getBusesOwnedBy(address)": "infinite",
				"getBuses_Company_Status(address,uint8)": "infinite",
				"getTotalNumberOfBuses()": "infinite",
				"updateBusStatus(uint256,uint8,string,address)": "infinite",
				"updateNft(uint256,uint256)": "infinite",
				"updateOwnership(uint256,address)": "28793"
			}
		},
		"methodIdentifiers": {
			"addBus(uint256,string,uint256,string,address,address)": "ff900c50",
			"addressManager()": "3ab76e9f",
			"busItem()": "94b665f0",
			"getBusData(uint256)": "f2c24032",
			"getBusStatus(uint256)": "17c1e71a",
			"getBusesByCompany(address)": "7bc395cd",
			"getBusesOwnedBy(address)": "baccba66",
			"getBuses_Company_Status(address,uint8)": "7f1e5de7",
			"getTotalNumberOfBuses()": "cf61625c",
			"updateBusStatus(uint256,uint8,string,address)": "1d0476d4",
			"updateNft(uint256,uint256)": "6162074c",
			"updateOwnership(uint256,address)": "cc0266f7"
		}
	},
	"abi": [
		{
			"inputs": [],
			"stateMutability": "nonpayable",
			"type": "constructor"
		},
		{
			"anonymous": false,
			"inputs": [
				{
					"indexed": true,
					"internalType": "uint256",
					"name": "id",
					"type": "uint256"
				},
				{
					"indexed": false,
					"internalType": "uint256",
					"name": "model",
					"type": "uint256"
				},
				{
					"indexed": false,
					"internalType": "string",
					"name": "vim_number",
					"type": "string"
				},
				{
					"indexed": true,
					"internalType": "uint256",
					"name": "company_ID",
					"type": "uint256"
				},
				{
					"indexed": false,
					"internalType": "string",
					"name": "plate_number",
					"type": "string"
				},
				{
					"indexed": true,
					"internalType": "enum DataStr.BusStatus",
					"name": "status",
					"type": "uint8"
				},
				{
					"indexed": false,
					"internalType": "string",
					"name": "rejectNote",
					"type": "string"
				},
				{
					"indexed": false,
					"internalType": "address",
					"name": "rejectBy",
					"type": "address"
				},
				{
					"indexed": false,
					"internalType": "address",
					"name": "owner",
					"type": "address"
				},
				{
					"indexed": false,
					"internalType": "address",
					"name": "creator",
					"type": "address"
				},
				{
					"indexed": false,
					"internalType": "uint256",
					"name": "nftTokenId",
					"type": "uint256"
				}
			],
			"name": "BusCreated",
			"type": "event"
		},
		{
			"anonymous": false,
			"inputs": [
				{
					"indexed": true,
					"internalType": "uint256",
					"name": "id",
					"type": "uint256"
				},
				{
					"indexed": true,
					"internalType": "enum DataStr.BusStatus",
					"name": "newStatus",
					"type": "uint8"
				},
				{
					"indexed": false,
					"internalType": "string",
					"name": "note",
					"type": "string"
				},
				{
					"indexed": false,
					"internalType": "address",
					"name": "updatedBy",
					"type": "address"
				}
			],
			"name": "BusStatusUpdated",
			"type": "event"
		},
		{
			"anonymous": false,
			"inputs": [
				{
					"indexed": false,
					"internalType": "uint256",
					"name": "busId",
					"type": "uint256"
				},
				{
					"indexed": false,
					"internalType": "uint256",
					"name": "nftTokenId",
					"type": "uint256"
				}
			],
			"name": "NftTokenIdUpdated",
			"type": "event"
		},
		{
			"anonymous": false,
			"inputs": [
				{
					"indexed": true,
					"internalType": "uint256",
					"name": "busId",
					"type": "uint256"
				},
				{
					"indexed": true,
					"internalType": "address",
					"name": "newOwner",
					"type": "address"
				}
			],
			"name": "OwnershipUpdated",
			"type": "event"
		},
		{
			"inputs": [
				{
					"internalType": "uint256",
					"name": "model",
					"type": "uint256"
				},
				{
					"internalType": "string",
					"name": "vim_number",
					"type": "string"
				},
				{
					"internalType": "uint256",
					"name": "company_ID",
					"type": "uint256"
				},
				{
					"internalType": "string",
					"name": "plate_number",
					"type": "string"
				},
				{
					"internalType": "address",
					"name": "creator",
					"type": "address"
				},
				{
					"internalType": "address",
					"name": "companyContractAddress",
					"type": "address"
				}
			],
			"name": "addBus",
			"outputs": [],
			"stateMutability": "nonpayable",
			"type": "function"
		},
		{
			"inputs": [],
			"name": "addressManager",
			"outputs": [
				{
					"internalType": "contract AddressManager",
					"name": "",
					"type": "address"
				}
			],
			"stateMutability": "view",
			"type": "function"
		},
		{
			"inputs": [],
			"name": "busItem",
			"outputs": [
				{
					"internalType": "uint256",
					"name": "id",
					"type": "uint256"
				},
				{
					"internalType": "uint256",
					"name": "model",
					"type": "uint256"
				},
				{
					"internalType": "string",
					"name": "vim_number",
					"type": "string"
				},
				{
					"internalType": "uint256",
					"name": "company_ID",
					"type": "uint256"
				},
				{
					"internalType": "string",
					"name": "plate_number",
					"type": "string"
				},
				{
					"internalType": "enum DataStr.BusStatus",
					"name": "status",
					"type": "uint8"
				},
				{
					"internalType": "string",
					"name": "rejectNote",
					"type": "string"
				},
				{
					"internalType": "address",
					"name": "rejectBy",
					"type": "address"
				},
				{
					"internalType": "address",
					"name": "owner",
					"type": "address"
				},
				{
					"internalType": "address",
					"name": "creator",
					"type": "address"
				},
				{
					"internalType": "uint256",
					"name": "nftTokenId",
					"type": "uint256"
				}
			],
			"stateMutability": "view",
			"type": "function"
		},
		{
			"inputs": [
				{
					"internalType": "uint256",
					"name": "id",
					"type": "uint256"
				}
			],
			"name": "getBusData",
			"outputs": [
				{
					"components": [
						{
							"internalType": "uint256",
							"name": "id",
							"type": "uint256"
						},
						{
							"internalType": "uint256",
							"name": "model",
							"type": "uint256"
						},
						{
							"internalType": "string",
							"name": "vim_number",
							"type": "string"
						},
						{
							"internalType": "uint256",
							"name": "company_ID",
							"type": "uint256"
						},
						{
							"internalType": "string",
							"name": "plate_number",
							"type": "string"
						},
						{
							"internalType": "enum DataStr.BusStatus",
							"name": "status",
							"type": "uint8"
						},
						{
							"internalType": "string",
							"name": "rejectNote",
							"type": "string"
						},
						{
							"internalType": "address",
							"name": "rejectBy",
							"type": "address"
						},
						{
							"internalType": "address",
							"name": "owner",
							"type": "address"
						},
						{
							"internalType": "address",
							"name": "creator",
							"type": "address"
						},
						{
							"internalType": "uint256",
							"name": "nftTokenId",
							"type": "uint256"
						}
					],
					"internalType": "struct DataStr.BusItem",
					"name": "",
					"type": "tuple"
				}
			],
			"stateMutability": "view",
			"type": "function"
		},
		{
			"inputs": [
				{
					"internalType": "uint256",
					"name": "busId",
					"type": "uint256"
				}
			],
			"name": "getBusStatus",
			"outputs": [
				{
					"internalType": "enum DataStr.BusStatus",
					"name": "",
					"type": "uint8"
				}
			],
			"stateMutability": "view",
			"type": "function"
		},
		{
			"inputs": [
				{
					"internalType": "address",
					"name": "companyAddress",
					"type": "address"
				}
			],
			"name": "getBusesByCompany",
			"outputs": [
				{
					"components": [
						{
							"internalType": "uint256",
							"name": "id",
							"type": "uint256"
						},
						{
							"internalType": "uint256",
							"name": "model",
							"type": "uint256"
						},
						{
							"internalType": "string",
							"name": "vim_number",
							"type": "string"
						},
						{
							"internalType": "uint256",
							"name": "company_ID",
							"type": "uint256"
						},
						{
							"internalType": "string",
							"name": "plate_number",
							"type": "string"
						},
						{
							"internalType": "enum DataStr.BusStatus",
							"name": "status",
							"type": "uint8"
						},
						{
							"internalType": "string",
							"name": "rejectNote",
							"type": "string"
						},
						{
							"internalType": "address",
							"name": "rejectBy",
							"type": "address"
						},
						{
							"internalType": "address",
							"name": "owner",
							"type": "address"
						},
						{
							"internalType": "address",
							"name": "creator",
							"type": "address"
						},
						{
							"internalType": "uint256",
							"name": "nftTokenId",
							"type": "uint256"
						}
					],
					"internalType": "struct DataStr.BusItem[]",
					"name": "",
					"type": "tuple[]"
				}
			],
			"stateMutability": "view",
			"type": "function"
		},
		{
			"inputs": [
				{
					"internalType": "address",
					"name": "entityAddress",
					"type": "address"
				}
			],
			"name": "getBusesOwnedBy",
			"outputs": [
				{
					"components": [
						{
							"internalType": "uint256",
							"name": "id",
							"type": "uint256"
						},
						{
							"internalType": "uint256",
							"name": "model",
							"type": "uint256"
						},
						{
							"internalType": "string",
							"name": "vim_number",
							"type": "string"
						},
						{
							"internalType": "uint256",
							"name": "company_ID",
							"type": "uint256"
						},
						{
							"internalType": "string",
							"name": "plate_number",
							"type": "string"
						},
						{
							"internalType": "enum DataStr.BusStatus",
							"name": "status",
							"type": "uint8"
						},
						{
							"internalType": "string",
							"name": "rejectNote",
							"type": "string"
						},
						{
							"internalType": "address",
							"name": "rejectBy",
							"type": "address"
						},
						{
							"internalType": "address",
							"name": "owner",
							"type": "address"
						},
						{
							"internalType": "address",
							"name": "creator",
							"type": "address"
						},
						{
							"internalType": "uint256",
							"name": "nftTokenId",
							"type": "uint256"
						}
					],
					"internalType": "struct DataStr.BusItem[]",
					"name": "",
					"type": "tuple[]"
				}
			],
			"stateMutability": "view",
			"type": "function"
		},
		{
			"inputs": [
				{
					"internalType": "address",
					"name": "companyAddress",
					"type": "address"
				},
				{
					"internalType": "enum DataStr.BusStatus",
					"name": "status",
					"type": "uint8"
				}
			],
			"name": "getBuses_Company_Status",
			"outputs": [
				{
					"components": [
						{
							"internalType": "uint256",
							"name": "id",
							"type": "uint256"
						},
						{
							"internalType": "uint256",
							"name": "model",
							"type": "uint256"
						},
						{
							"internalType": "string",
							"name": "vim_number",
							"type": "string"
						},
						{
							"internalType": "uint256",
							"name": "company_ID",
							"type": "uint256"
						},
						{
							"internalType": "string",
							"name": "plate_number",
							"type": "string"
						},
						{
							"internalType": "enum DataStr.BusStatus",
							"name": "status",
							"type": "uint8"
						},
						{
							"internalType": "string",
							"name": "rejectNote",
							"type": "string"
						},
						{
							"internalType": "address",
							"name": "rejectBy",
							"type": "address"
						},
						{
							"internalType": "address",
							"name": "owner",
							"type": "address"
						},
						{
							"internalType": "address",
							"name": "creator",
							"type": "address"
						},
						{
							"internalType": "uint256",
							"name": "nftTokenId",
							"type": "uint256"
						}
					],
					"internalType": "struct DataStr.BusItem[]",
					"name": "",
					"type": "tuple[]"
				}
			],
			"stateMutability": "view",
			"type": "function"
		},
		{
			"inputs": [],
			"name": "getTotalNumberOfBuses",
			"outputs": [
				{
					"internalType": "uint256",
					"name": "",
					"type": "uint256"
				}
			],
			"stateMutability": "view",
			"type": "function"
		},
		{
			"inputs": [
				{
					"internalType": "uint256",
					"name": "id",
					"type": "uint256"
				},
				{
					"internalType": "enum DataStr.BusStatus",
					"name": "newStatus",
					"type": "uint8"
				},
				{
					"internalType": "string",
					"name": "note",
					"type": "string"
				},
				{
					"internalType": "address",
					"name": "updatedBy",
					"type": "address"
				}
			],
			"name": "updateBusStatus",
			"outputs": [],
			"stateMutability": "nonpayable",
			"type": "function"
		},
		{
			"inputs": [
				{
					"internalType": "uint256",
					"name": "busId",
					"type": "uint256"
				},
				{
					"internalType": "uint256",
					"name": "nftTokenId",
					"type": "uint256"
				}
			],
			"name": "updateNft",
			"outputs": [],
			"stateMutability": "nonpayable",
			"type": "function"
		},
		{
			"inputs": [
				{
					"internalType": "uint256",
					"name": "id",
					"type": "uint256"
				},
				{
					"internalType": "address",
					"name": "newOwner",
					"type": "address"
				}
			],
			"name": "updateOwnership",
			"outputs": [],
			"stateMutability": "nonpayable",
			"type": "function"
		}
	]
}