{
	"contracts/Cars.sol": {
		"CarAgency": {
			"abi": [
				{
					"inputs": [],
					"stateMutability": "nonpayable",
					"type": "constructor"
				},
				{
					"anonymous": false,
					"inputs": [
						{
							"indexed": false,
							"internalType": "uint256",
							"name": "Car_id",
							"type": "uint256"
						},
						{
							"indexed": false,
							"internalType": "uint256",
							"name": "Car_model",
							"type": "uint256"
						},
						{
							"indexed": false,
							"internalType": "string",
							"name": "Car_color",
							"type": "string"
						},
						{
							"indexed": false,
							"internalType": "uint256",
							"name": "Car_Price",
							"type": "uint256"
						},
						{
							"indexed": false,
							"internalType": "string",
							"name": "Car_Name",
							"type": "string"
						},
						{
							"indexed": false,
							"internalType": "address",
							"name": "OwnedBy",
							"type": "address"
						},
						{
							"indexed": false,
							"internalType": "bool",
							"name": "Car_State",
							"type": "bool"
						}
					],
					"name": "EvntNewCarAdd",
					"type": "event"
				},
				{
					"anonymous": false,
					"inputs": [
						{
							"indexed": false,
							"internalType": "uint256",
							"name": "CarID",
							"type": "uint256"
						},
						{
							"indexed": false,
							"internalType": "uint256",
							"name": "CarPrice",
							"type": "uint256"
						}
					],
					"name": "EvntSellingCar",
					"type": "event"
				},
				{
					"inputs": [
						{
							"internalType": "uint256",
							"name": "_Car_model",
							"type": "uint256"
						},
						{
							"internalType": "string",
							"name": "_Car_color",
							"type": "string"
						},
						{
							"internalType": "uint256",
							"name": "_Car_Price",
							"type": "uint256"
						},
						{
							"internalType": "string",
							"name": "_Car_Name",
							"type": "string"
						},
						{
							"internalType": "address",
							"name": "",
							"type": "address"
						},
						{
							"internalType": "bool",
							"name": "",
							"type": "bool"
						}
					],
					"name": "AddCar",
					"outputs": [],
					"stateMutability": "nonpayable",
					"type": "function"
				},
				{
					"inputs": [],
					"name": "AllCars",
					"outputs": [
						{
							"components": [
								{
									"internalType": "uint256",
									"name": "Car_id",
									"type": "uint256"
								},
								{
									"internalType": "uint256",
									"name": "Car_model",
									"type": "uint256"
								},
								{
									"internalType": "string",
									"name": "Car_color",
									"type": "string"
								},
								{
									"internalType": "uint256",
									"name": "Car_Price",
									"type": "uint256"
								},
								{
									"internalType": "string",
									"name": "Car_Name",
									"type": "string"
								},
								{
									"internalType": "address payable",
									"name": "OwnedBy",
									"type": "address"
								},
								{
									"internalType": "bool",
									"name": "Car_State",
									"type": "bool"
								}
							],
							"internalType": "struct CarAgency.Struct_Car[]",
							"name": "",
							"type": "tuple[]"
						}
					],
					"stateMutability": "view",
					"type": "function"
				},
				{
					"inputs": [
						{
							"internalType": "uint256",
							"name": "",
							"type": "uint256"
						}
					],
					"name": "ListCars",
					"outputs": [
						{
							"internalType": "uint256",
							"name": "",
							"type": "uint256"
						}
					],
					"stateMutability": "view",
					"type": "function"
				},
				{
					"inputs": [
						{
							"internalType": "uint256",
							"name": "",
							"type": "uint256"
						}
					],
					"name": "MapCars",
					"outputs": [
						{
							"internalType": "uint256",
							"name": "Car_id",
							"type": "uint256"
						},
						{
							"internalType": "uint256",
							"name": "Car_model",
							"type": "uint256"
						},
						{
							"internalType": "string",
							"name": "Car_color",
							"type": "string"
						},
						{
							"internalType": "uint256",
							"name": "Car_Price",
							"type": "uint256"
						},
						{
							"internalType": "string",
							"name": "Car_Name",
							"type": "string"
						},
						{
							"internalType": "address payable",
							"name": "OwnedBy",
							"type": "address"
						},
						{
							"internalType": "bool",
							"name": "Car_State",
							"type": "bool"
						}
					],
					"stateMutability": "view",
					"type": "function"
				},
				{
					"inputs": [
						{
							"internalType": "uint256",
							"name": "_CarID",
							"type": "uint256"
						},
						{
							"internalType": "uint256",
							"name": "_CarPrice",
							"type": "uint256"
						}
					],
					"name": "SellCar",
					"outputs": [],
					"stateMutability": "payable",
					"type": "function"
				}
			],
			"devdoc": {
				"kind": "dev",
				"methods": {},
				"version": 1
			},
			"evm": {
				"assembly": "    /* \"contracts/Cars.sol\":123:3286  contract CarAgency {... */\n  mstore(0x40, 0x80)\n    /* \"contracts/Cars.sol\":1030:1088  constructor()... */\n  callvalue\n  dup1\n  iszero\n  tag_1\n  jumpi\n  0x00\n  dup1\n  revert\ntag_1:\n  pop\n    /* \"contracts/Cars.sol\":1071:1081  msg.sender */\n  caller\n    /* \"contracts/Cars.sol\":1058:1069  AgencyOwner */\n  0x01\n  0x00\n    /* \"contracts/Cars.sol\":1058:1081  AgencyOwner= msg.sender */\n  0x0100\n  exp\n  dup2\n  sload\n  dup2\n  0xffffffffffffffffffffffffffffffffffffffff\n  mul\n  not\n  and\n  swap1\n  dup4\n  0xffffffffffffffffffffffffffffffffffffffff\n  and\n  mul\n  or\n  swap1\n  sstore\n  pop\n    /* \"contracts/Cars.sol\":123:3286  contract CarAgency {... */\n  dataSize(sub_0)\n  dup1\n  dataOffset(sub_0)\n  0x00\n  codecopy\n  0x00\n  return\nstop\n\nsub_0: assembly {\n        /* \"contracts/Cars.sol\":123:3286  contract CarAgency {... */\n      mstore(0x40, 0x80)\n      jumpi(tag_1, lt(calldatasize, 0x04))\n      shr(0xe0, calldataload(0x00))\n      dup1\n      0x9537d6cf\n      eq\n      tag_2\n      jumpi\n      dup1\n      0x9abb94d4\n      eq\n      tag_3\n      jumpi\n      dup1\n      0xd923b3d8\n      eq\n      tag_4\n      jumpi\n      dup1\n      0xe98d8383\n      eq\n      tag_5\n      jumpi\n      dup1\n      0xfadbb1e1\n      eq\n      tag_6\n      jumpi\n    tag_1:\n      0x00\n      dup1\n      revert\n        /* \"contracts/Cars.sol\":2220:2568  function AllCars() public view returns (Struct_Car[] memory) {... */\n    tag_2:\n      callvalue\n      dup1\n      iszero\n      tag_7\n      jumpi\n      0x00\n      dup1\n      revert\n    tag_7:\n      pop\n      tag_8\n      tag_9\n      jump\t// in\n    tag_8:\n      mload(0x40)\n      tag_10\n      swap2\n      swap1\n      tag_11\n      jump\t// in\n    tag_10:\n      mload(0x40)\n      dup1\n      swap2\n      sub\n      swap1\n      return\n        /* \"contracts/Cars.sol\":1094:1139  mapping(uint256 => Struct_Car) public MapCars */\n    tag_3:\n      callvalue\n      dup1\n      iszero\n      tag_12\n      jumpi\n      0x00\n      dup1\n      revert\n    tag_12:\n      pop\n      tag_13\n      0x04\n      dup1\n      calldatasize\n      sub\n      dup2\n      add\n      swap1\n      tag_14\n      swap2\n      swap1\n      tag_15\n      jump\t// in\n    tag_14:\n      tag_16\n      jump\t// in\n    tag_13:\n      mload(0x40)\n      tag_17\n      swap8\n      swap7\n      swap6\n      swap5\n      swap4\n      swap3\n      swap2\n      swap1\n      tag_18\n      jump\t// in\n    tag_17:\n      mload(0x40)\n      dup1\n      swap2\n      sub\n      swap1\n      return\n        /* \"contracts/Cars.sol\":1145:1170  uint256[] public ListCars */\n    tag_4:\n      callvalue\n      dup1\n      iszero\n      tag_19\n      jumpi\n      0x00\n      dup1\n      revert\n    tag_19:\n      pop\n      tag_20\n      0x04\n      dup1\n      calldatasize\n      sub\n      dup2\n      add\n      swap1\n      tag_21\n      swap2\n      swap1\n      tag_15\n      jump\t// in\n    tag_21:\n      tag_22\n      jump\t// in\n    tag_20:\n      mload(0x40)\n      tag_23\n      swap2\n      swap1\n      tag_24\n      jump\t// in\n    tag_23:\n      mload(0x40)\n      dup1\n      swap2\n      sub\n      swap1\n      return\n        /* \"contracts/Cars.sol\":1459:2117  function AddCar(uint256 _Car_model,string memory _Car_color,uint256 _Car_Price,string memory _Car_Name, address,bool) public OnlyAgencyOwner {... */\n    tag_5:\n      callvalue\n      dup1\n      iszero\n      tag_25\n      jumpi\n      0x00\n      dup1\n      revert\n    tag_25:\n      pop\n      tag_26\n      0x04\n      dup1\n      calldatasize\n      sub\n      dup2\n      add\n      swap1\n      tag_27\n      swap2\n      swap1\n      tag_28\n      jump\t// in\n    tag_27:\n      tag_29\n      jump\t// in\n    tag_26:\n      stop\n        /* \"contracts/Cars.sol\":2674:3283  function SellCar (uint256 _CarID, uint256 _CarPrice) public  payable ... */\n    tag_6:\n      tag_30\n      0x04\n      dup1\n      calldatasize\n      sub\n      dup2\n      add\n      swap1\n      tag_31\n      swap2\n      swap1\n      tag_32\n      jump\t// in\n    tag_31:\n      tag_33\n      jump\t// in\n    tag_30:\n      stop\n        /* \"contracts/Cars.sol\":2220:2568  function AllCars() public view returns (Struct_Car[] memory) {... */\n    tag_9:\n        /* \"contracts/Cars.sol\":2260:2279  Struct_Car[] memory */\n      0x60\n        /* \"contracts/Cars.sol\":2291:2307  uint SizeOfArrat */\n      0x00\n        /* \"contracts/Cars.sol\":2310:2318  ListCars */\n      0x03\n        /* \"contracts/Cars.sol\":2310:2325  ListCars.length */\n      dup1\n      sload\n      swap1\n      pop\n        /* \"contracts/Cars.sol\":2291:2325  uint SizeOfArrat = ListCars.length */\n      swap1\n      pop\n        /* \"contracts/Cars.sol\":2335:2362  Struct_Car[] memory GetCars */\n      0x00\n        /* \"contracts/Cars.sol\":2382:2393  SizeOfArrat */\n      dup2\n        /* \"contracts/Cars.sol\":2365:2394  new Struct_Car[](SizeOfArrat) */\n      0xffffffffffffffff\n      dup2\n      gt\n      iszero\n      tag_35\n      jumpi\n      tag_36\n      tag_37\n      jump\t// in\n    tag_36:\n    tag_35:\n      mload(0x40)\n      swap1\n      dup1\n      dup3\n      mstore\n      dup1\n      0x20\n      mul\n      0x20\n      add\n      dup3\n      add\n      0x40\n      mstore\n      dup1\n      iszero\n      tag_38\n      jumpi\n      dup2\n      0x20\n      add\n    tag_39:\n      tag_40\n      tag_41\n      jump\t// in\n    tag_40:\n      dup2\n      mstore\n      0x20\n      add\n      swap1\n      0x01\n      swap1\n      sub\n      swap1\n      dup2\n      tag_39\n      jumpi\n      swap1\n      pop\n    tag_38:\n      pop\n        /* \"contracts/Cars.sol\":2335:2394  Struct_Car[] memory GetCars = new Struct_Car[](SizeOfArrat) */\n      swap1\n      pop\n        /* \"contracts/Cars.sol\":2409:2415  uint i */\n      0x00\n        /* \"contracts/Cars.sol\":2404:2538  for (uint i = 0; i < SizeOfArrat; i++) {... */\n    tag_42:\n        /* \"contracts/Cars.sol\":2425:2436  SizeOfArrat */\n      dup3\n        /* \"contracts/Cars.sol\":2421:2422  i */\n      dup2\n        /* \"contracts/Cars.sol\":2421:2436  i < SizeOfArrat */\n      lt\n        /* \"contracts/Cars.sol\":2404:2538  for (uint i = 0; i < SizeOfArrat; i++) {... */\n      iszero\n      tag_43\n      jumpi\n        /* \"contracts/Cars.sol\":2457:2471  uint256 CarIDs */\n      0x00\n        /* \"contracts/Cars.sol\":2474:2482  ListCars */\n      0x03\n        /* \"contracts/Cars.sol\":2483:2484  i */\n      dup3\n        /* \"contracts/Cars.sol\":2474:2485  ListCars[i] */\n      dup2\n      sload\n      dup2\n      lt\n      tag_45\n      jumpi\n      tag_46\n      tag_47\n      jump\t// in\n    tag_46:\n    tag_45:\n      swap1\n      0x00\n      mstore\n      keccak256(0x00, 0x20)\n      add\n      sload\n        /* \"contracts/Cars.sol\":2457:2485  uint256 CarIDs = ListCars[i] */\n      swap1\n      pop\n        /* \"contracts/Cars.sol\":2512:2519  MapCars */\n      0x02\n        /* \"contracts/Cars.sol\":2512:2527  MapCars[CarIDs] */\n      0x00\n        /* \"contracts/Cars.sol\":2520:2526  CarIDs */\n      dup3\n        /* \"contracts/Cars.sol\":2512:2527  MapCars[CarIDs] */\n      dup2\n      mstore\n      0x20\n      add\n      swap1\n      dup2\n      mstore\n      0x20\n      add\n      0x00\n      keccak256\n        /* \"contracts/Cars.sol\":2499:2527  GetCars[i] = MapCars[CarIDs] */\n      mload(0x40)\n      dup1\n      0xe0\n      add\n      0x40\n      mstore\n      swap1\n      dup2\n      0x00\n      dup3\n      add\n      sload\n      dup2\n      mstore\n      0x20\n      add\n      0x01\n      dup3\n      add\n      sload\n      dup2\n      mstore\n      0x20\n      add\n      0x02\n      dup3\n      add\n      dup1\n      sload\n      tag_49\n      swap1\n      tag_50\n      jump\t// in\n    tag_49:\n      dup1\n      0x1f\n      add\n      0x20\n      dup1\n      swap2\n      div\n      mul\n      0x20\n      add\n      mload(0x40)\n      swap1\n      dup2\n      add\n      0x40\n      mstore\n      dup1\n      swap3\n      swap2\n      swap1\n      dup2\n      dup2\n      mstore\n      0x20\n      add\n      dup3\n      dup1\n      sload\n      tag_51\n      swap1\n      tag_50\n      jump\t// in\n    tag_51:\n      dup1\n      iszero\n      tag_52\n      jumpi\n      dup1\n      0x1f\n      lt\n      tag_53\n      jumpi\n      0x0100\n      dup1\n      dup4\n      sload\n      div\n      mul\n      dup4\n      mstore\n      swap2\n      0x20\n      add\n      swap2\n      jump(tag_52)\n    tag_53:\n      dup3\n      add\n      swap2\n      swap1\n      0x00\n      mstore\n      keccak256(0x00, 0x20)\n      swap1\n    tag_54:\n      dup2\n      sload\n      dup2\n      mstore\n      swap1\n      0x01\n      add\n      swap1\n      0x20\n      add\n      dup1\n      dup4\n      gt\n      tag_54\n      jumpi\n      dup3\n      swap1\n      sub\n      0x1f\n      and\n      dup3\n      add\n      swap2\n    tag_52:\n      pop\n      pop\n      pop\n      pop\n      pop\n      dup2\n      mstore\n      0x20\n      add\n      0x03\n      dup3\n      add\n      sload\n      dup2\n      mstore\n      0x20\n      add\n      0x04\n      dup3\n      add\n      dup1\n      sload\n      tag_55\n      swap1\n      tag_50\n      jump\t// in\n    tag_55:\n      dup1\n      0x1f\n      add\n      0x20\n      dup1\n      swap2\n      div\n      mul\n      0x20\n      add\n      mload(0x40)\n      swap1\n      dup2\n      add\n      0x40\n      mstore\n      dup1\n      swap3\n      swap2\n      swap1\n      dup2\n      dup2\n      mstore\n      0x20\n      add\n      dup3\n      dup1\n      sload\n      tag_56\n      swap1\n      tag_50\n      jump\t// in\n    tag_56:\n      dup1\n      iszero\n      tag_57\n      jumpi\n      dup1\n      0x1f\n      lt\n      tag_58\n      jumpi\n      0x0100\n      dup1\n      dup4\n      sload\n      div\n      mul\n      dup4\n      mstore\n      swap2\n      0x20\n      add\n      swap2\n      jump(tag_57)\n    tag_58:\n      dup3\n      add\n      swap2\n      swap1\n      0x00\n      mstore\n      keccak256(0x00, 0x20)\n      swap1\n    tag_59:\n      dup2\n      sload\n      dup2\n      mstore\n      swap1\n      0x01\n      add\n      swap1\n      0x20\n      add\n      dup1\n      dup4\n      gt\n      tag_59\n      jumpi\n      dup3\n      swap1\n      sub\n      0x1f\n      and\n      dup3\n      add\n      swap2\n    tag_57:\n      pop\n      pop\n      pop\n      pop\n      pop\n      dup2\n      mstore\n      0x20\n      add\n      0x05\n      dup3\n      add\n      0x00\n      swap1\n      sload\n      swap1\n      0x0100\n      exp\n      swap1\n      div\n      0xffffffffffffffffffffffffffffffffffffffff\n      and\n      0xffffffffffffffffffffffffffffffffffffffff\n      and\n      0xffffffffffffffffffffffffffffffffffffffff\n      and\n      dup2\n      mstore\n      0x20\n      add\n      0x05\n      dup3\n      add\n      0x14\n      swap1\n      sload\n      swap1\n      0x0100\n      exp\n      swap1\n      div\n      0xff\n      and\n      iszero\n      iszero\n      iszero\n      iszero\n      dup2\n      mstore\n      pop\n      pop\n        /* \"contracts/Cars.sol\":2499:2506  GetCars */\n      dup4\n        /* \"contracts/Cars.sol\":2507:2508  i */\n      dup4\n        /* \"contracts/Cars.sol\":2499:2509  GetCars[i] */\n      dup2\n      mload\n      dup2\n      lt\n      tag_60\n      jumpi\n      tag_61\n      tag_47\n      jump\t// in\n    tag_61:\n    tag_60:\n      0x20\n      mul\n      0x20\n      add\n      add\n        /* \"contracts/Cars.sol\":2499:2527  GetCars[i] = MapCars[CarIDs] */\n      dup2\n      swap1\n      mstore\n      pop\n        /* \"contracts/Cars.sol\":2443:2538  {... */\n      pop\n        /* \"contracts/Cars.sol\":2438:2441  i++ */\n      dup1\n      dup1\n      0x01\n      add\n      swap2\n      pop\n      pop\n        /* \"contracts/Cars.sol\":2404:2538  for (uint i = 0; i < SizeOfArrat; i++) {... */\n      jump(tag_42)\n    tag_43:\n      pop\n        /* \"contracts/Cars.sol\":2554:2561  GetCars */\n      dup1\n        /* \"contracts/Cars.sol\":2547:2561  return GetCars */\n      swap3\n      pop\n      pop\n      pop\n        /* \"contracts/Cars.sol\":2220:2568  function AllCars() public view returns (Struct_Car[] memory) {... */\n      swap1\n      jump\t// out\n        /* \"contracts/Cars.sol\":1094:1139  mapping(uint256 => Struct_Car) public MapCars */\n    tag_16:\n      mstore(0x20, 0x02)\n      dup1\n      0x00\n      mstore\n      keccak256(0x00, 0x40)\n      0x00\n      swap2\n      pop\n      swap1\n      pop\n      dup1\n      0x00\n      add\n      sload\n      swap1\n      dup1\n      0x01\n      add\n      sload\n      swap1\n      dup1\n      0x02\n      add\n      dup1\n      sload\n      tag_62\n      swap1\n      tag_50\n      jump\t// in\n    tag_62:\n      dup1\n      0x1f\n      add\n      0x20\n      dup1\n      swap2\n      div\n      mul\n      0x20\n      add\n      mload(0x40)\n      swap1\n      dup2\n      add\n      0x40\n      mstore\n      dup1\n      swap3\n      swap2\n      swap1\n      dup2\n      dup2\n      mstore\n      0x20\n      add\n      dup3\n      dup1\n      sload\n      tag_63\n      swap1\n      tag_50\n      jump\t// in\n    tag_63:\n      dup1\n      iszero\n      tag_64\n      jumpi\n      dup1\n      0x1f\n      lt\n      tag_65\n      jumpi\n      0x0100\n      dup1\n      dup4\n      sload\n      div\n      mul\n      dup4\n      mstore\n      swap2\n      0x20\n      add\n      swap2\n      jump(tag_64)\n    tag_65:\n      dup3\n      add\n      swap2\n      swap1\n      0x00\n      mstore\n      keccak256(0x00, 0x20)\n      swap1\n    tag_66:\n      dup2\n      sload\n      dup2\n      mstore\n      swap1\n      0x01\n      add\n      swap1\n      0x20\n      add\n      dup1\n      dup4\n      gt\n      tag_66\n      jumpi\n      dup3\n      swap1\n      sub\n      0x1f\n      and\n      dup3\n      add\n      swap2\n    tag_64:\n      pop\n      pop\n      pop\n      pop\n      pop\n      swap1\n      dup1\n      0x03\n      add\n      sload\n      swap1\n      dup1\n      0x04\n      add\n      dup1\n      sload\n      tag_67\n      swap1\n      tag_50\n      jump\t// in\n    tag_67:\n      dup1\n      0x1f\n      add\n      0x20\n      dup1\n      swap2\n      div\n      mul\n      0x20\n      add\n      mload(0x40)\n      swap1\n      dup2\n      add\n      0x40\n      mstore\n      dup1\n      swap3\n      swap2\n      swap1\n      dup2\n      dup2\n      mstore\n      0x20\n      add\n      dup3\n      dup1\n      sload\n      tag_68\n      swap1\n      tag_50\n      jump\t// in\n    tag_68:\n      dup1\n      iszero\n      tag_69\n      jumpi\n      dup1\n      0x1f\n      lt\n      tag_70\n      jumpi\n      0x0100\n      dup1\n      dup4\n      sload\n      div\n      mul\n      dup4\n      mstore\n      swap2\n      0x20\n      add\n      swap2\n      jump(tag_69)\n    tag_70:\n      dup3\n      add\n      swap2\n      swap1\n      0x00\n      mstore\n      keccak256(0x00, 0x20)\n      swap1\n    tag_71:\n      dup2\n      sload\n      dup2\n      mstore\n      swap1\n      0x01\n      add\n      swap1\n      0x20\n      add\n      dup1\n      dup4\n      gt\n      tag_71\n      jumpi\n      dup3\n      swap1\n      sub\n      0x1f\n      and\n      dup3\n      add\n      swap2\n    tag_69:\n      pop\n      pop\n      pop\n      pop\n      pop\n      swap1\n      dup1\n      0x05\n      add\n      0x00\n      swap1\n      sload\n      swap1\n      0x0100\n      exp\n      swap1\n      div\n      0xffffffffffffffffffffffffffffffffffffffff\n      and\n      swap1\n      dup1\n      0x05\n      add\n      0x14\n      swap1\n      sload\n      swap1\n      0x0100\n      exp\n      swap1\n      div\n      0xff\n      and\n      swap1\n      pop\n      dup8\n      jump\t// out\n        /* \"contracts/Cars.sol\":1145:1170  uint256[] public ListCars */\n    tag_22:\n      0x03\n      dup2\n      dup2\n      sload\n      dup2\n      lt\n      tag_72\n      jumpi\n      0x00\n      dup1\n      revert\n    tag_72:\n      swap1\n      0x00\n      mstore\n      keccak256(0x00, 0x20)\n      add\n      0x00\n      swap2\n      pop\n      swap1\n      pop\n      sload\n      dup2\n      jump\t// out\n        /* \"contracts/Cars.sol\":1459:2117  function AddCar(uint256 _Car_model,string memory _Car_color,uint256 _Car_Price,string memory _Car_Name, address,bool) public OnlyAgencyOwner {... */\n    tag_29:\n        /* \"contracts/Cars.sol\":1283:1294  AgencyOwner */\n      0x01\n      0x00\n      swap1\n      sload\n      swap1\n      0x0100\n      exp\n      swap1\n      div\n      0xffffffffffffffffffffffffffffffffffffffff\n      and\n        /* \"contracts/Cars.sol\":1269:1294  msg.sender == AgencyOwner */\n      0xffffffffffffffffffffffffffffffffffffffff\n      and\n        /* \"contracts/Cars.sol\":1269:1279  msg.sender */\n      caller\n        /* \"contracts/Cars.sol\":1269:1294  msg.sender == AgencyOwner */\n      0xffffffffffffffffffffffffffffffffffffffff\n      and\n      eq\n        /* \"contracts/Cars.sol\":1261:1335  require(msg.sender == AgencyOwner,\"Only The Agency Owner Can Add cars!!!\") */\n      tag_75\n      jumpi\n      mload(0x40)\n      0x08c379a000000000000000000000000000000000000000000000000000000000\n      dup2\n      mstore\n      0x04\n      add\n      tag_76\n      swap1\n      tag_77\n      jump\t// in\n    tag_76:\n      mload(0x40)\n      dup1\n      swap2\n      sub\n      swap1\n      revert\n    tag_75:\n        /* \"contracts/Cars.sol\":1610:1635  _CurrentCarID.increment() */\n      tag_79\n        /* \"contracts/Cars.sol\":1610:1623  _CurrentCarID */\n      0x00\n        /* \"contracts/Cars.sol\":1610:1633  _CurrentCarID.increment */\n      tag_80\n        /* \"contracts/Cars.sol\":1610:1635  _CurrentCarID.increment() */\n      jump\t// in\n    tag_79:\n        /* \"contracts/Cars.sol\":1760:1784  Struct_Car memory newCar */\n      0x00\n        /* \"contracts/Cars.sol\":1787:1892  Struct_Car(_CurrentCarID.current(),_Car_model,_Car_color,_Car_Price,_Car_Name,payable (AgencyOwner),true) */\n      mload(0x40)\n      dup1\n      0xe0\n      add\n      0x40\n      mstore\n      dup1\n        /* \"contracts/Cars.sol\":1798:1821  _CurrentCarID.current() */\n      tag_81\n        /* \"contracts/Cars.sol\":1798:1811  _CurrentCarID */\n      0x00\n        /* \"contracts/Cars.sol\":1798:1819  _CurrentCarID.current */\n      tag_82\n        /* \"contracts/Cars.sol\":1798:1821  _CurrentCarID.current() */\n      jump\t// in\n    tag_81:\n        /* \"contracts/Cars.sol\":1787:1892  Struct_Car(_CurrentCarID.current(),_Car_model,_Car_color,_Car_Price,_Car_Name,payable (AgencyOwner),true) */\n      dup2\n      mstore\n      0x20\n      add\n        /* \"contracts/Cars.sol\":1822:1832  _Car_model */\n      dup9\n        /* \"contracts/Cars.sol\":1787:1892  Struct_Car(_CurrentCarID.current(),_Car_model,_Car_color,_Car_Price,_Car_Name,payable (AgencyOwner),true) */\n      dup2\n      mstore\n      0x20\n      add\n        /* \"contracts/Cars.sol\":1833:1843  _Car_color */\n      dup8\n        /* \"contracts/Cars.sol\":1787:1892  Struct_Car(_CurrentCarID.current(),_Car_model,_Car_color,_Car_Price,_Car_Name,payable (AgencyOwner),true) */\n      dup2\n      mstore\n      0x20\n      add\n        /* \"contracts/Cars.sol\":1844:1854  _Car_Price */\n      dup7\n        /* \"contracts/Cars.sol\":1787:1892  Struct_Car(_CurrentCarID.current(),_Car_model,_Car_color,_Car_Price,_Car_Name,payable (AgencyOwner),true) */\n      dup2\n      mstore\n      0x20\n      add\n        /* \"contracts/Cars.sol\":1855:1864  _Car_Name */\n      dup6\n        /* \"contracts/Cars.sol\":1787:1892  Struct_Car(_CurrentCarID.current(),_Car_model,_Car_color,_Car_Price,_Car_Name,payable (AgencyOwner),true) */\n      dup2\n      mstore\n      0x20\n      add\n        /* \"contracts/Cars.sol\":1874:1885  AgencyOwner */\n      0x01\n      0x00\n      swap1\n      sload\n      swap1\n      0x0100\n      exp\n      swap1\n      div\n      0xffffffffffffffffffffffffffffffffffffffff\n      and\n        /* \"contracts/Cars.sol\":1787:1892  Struct_Car(_CurrentCarID.current(),_Car_model,_Car_color,_Car_Price,_Car_Name,payable (AgencyOwner),true) */\n      0xffffffffffffffffffffffffffffffffffffffff\n      and\n      dup2\n      mstore\n      0x20\n      add\n        /* \"contracts/Cars.sol\":1887:1891  true */\n      0x01\n        /* \"contracts/Cars.sol\":1787:1892  Struct_Car(_CurrentCarID.current(),_Car_model,_Car_color,_Car_Price,_Car_Name,payable (AgencyOwner),true) */\n      iszero\n      iszero\n      dup2\n      mstore\n      pop\n        /* \"contracts/Cars.sol\":1760:1892  Struct_Car memory newCar = Struct_Car(_CurrentCarID.current(),_Car_model,_Car_color,_Car_Price,_Car_Name,payable (AgencyOwner),true) */\n      swap1\n      pop\n        /* \"contracts/Cars.sol\":1937:1943  newCar */\n      dup1\n        /* \"contracts/Cars.sol\":1902:1909  MapCars */\n      0x02\n        /* \"contracts/Cars.sol\":1902:1934  MapCars[_CurrentCarID.current()] */\n      0x00\n        /* \"contracts/Cars.sol\":1910:1933  _CurrentCarID.current() */\n      tag_83\n        /* \"contracts/Cars.sol\":1910:1923  _CurrentCarID */\n      0x00\n        /* \"contracts/Cars.sol\":1910:1931  _CurrentCarID.current */\n      tag_82\n        /* \"contracts/Cars.sol\":1910:1933  _CurrentCarID.current() */\n      jump\t// in\n    tag_83:\n        /* \"contracts/Cars.sol\":1902:1934  MapCars[_CurrentCarID.current()] */\n      dup2\n      mstore\n      0x20\n      add\n      swap1\n      dup2\n      mstore\n      0x20\n      add\n      0x00\n      keccak256\n        /* \"contracts/Cars.sol\":1902:1943  MapCars[_CurrentCarID.current()] = newCar */\n      0x00\n      dup3\n      add\n      mload\n      dup2\n      0x00\n      add\n      sstore\n      0x20\n      dup3\n      add\n      mload\n      dup2\n      0x01\n      add\n      sstore\n      0x40\n      dup3\n      add\n      mload\n      dup2\n      0x02\n      add\n      swap1\n      dup2\n      tag_84\n      swap2\n      swap1\n      tag_85\n      jump\t// in\n    tag_84:\n      pop\n      0x60\n      dup3\n      add\n      mload\n      dup2\n      0x03\n      add\n      sstore\n      0x80\n      dup3\n      add\n      mload\n      dup2\n      0x04\n      add\n      swap1\n      dup2\n      tag_86\n      swap2\n      swap1\n      tag_85\n      jump\t// in\n    tag_86:\n      pop\n      0xa0\n      dup3\n      add\n      mload\n      dup2\n      0x05\n      add\n      exp(0x0100, 0x00)\n      dup2\n      sload\n      dup2\n      0xffffffffffffffffffffffffffffffffffffffff\n      mul\n      not\n      and\n      swap1\n      dup4\n      0xffffffffffffffffffffffffffffffffffffffff\n      and\n      mul\n      or\n      swap1\n      sstore\n      pop\n      0xc0\n      dup3\n      add\n      mload\n      dup2\n      0x05\n      add\n      exp(0x0100, 0x14)\n      dup2\n      sload\n      dup2\n      0xff\n      mul\n      not\n      and\n      swap1\n      dup4\n      iszero\n      iszero\n      mul\n      or\n      swap1\n      sstore\n      pop\n      swap1\n      pop\n      pop\n        /* \"contracts/Cars.sol\":1953:1961  ListCars */\n      0x03\n        /* \"contracts/Cars.sol\":1967:1990  _CurrentCarID.current() */\n      tag_87\n        /* \"contracts/Cars.sol\":1967:1980  _CurrentCarID */\n      0x00\n        /* \"contracts/Cars.sol\":1967:1988  _CurrentCarID.current */\n      tag_82\n        /* \"contracts/Cars.sol\":1967:1990  _CurrentCarID.current() */\n      jump\t// in\n    tag_87:\n        /* \"contracts/Cars.sol\":1953:1991  ListCars.push(_CurrentCarID.current()) */\n      swap1\n      dup1\n      0x01\n      dup2\n      sload\n      add\n      dup1\n      dup3\n      sstore\n      dup1\n      swap2\n      pop\n      pop\n      0x01\n      swap1\n      sub\n      swap1\n      0x00\n      mstore\n      keccak256(0x00, 0x20)\n      add\n      0x00\n      swap1\n      swap2\n      swap1\n      swap2\n      swap1\n      swap2\n      pop\n      sstore\n        /* \"contracts/Cars.sol\":2006:2109  EvntNewCarAdd(_CurrentCarID.current(), _Car_model, _Car_color, _Car_Price, _Car_Name, AgencyOwner,true) */\n      0xd37f8caa8cbf6ba249a853b50d83a4b0916cb52d083755767c3d4d086f9e3df4\n        /* \"contracts/Cars.sol\":2020:2043  _CurrentCarID.current() */\n      tag_89\n        /* \"contracts/Cars.sol\":2020:2033  _CurrentCarID */\n      0x00\n        /* \"contracts/Cars.sol\":2020:2041  _CurrentCarID.current */\n      tag_82\n        /* \"contracts/Cars.sol\":2020:2043  _CurrentCarID.current() */\n      jump\t// in\n    tag_89:\n        /* \"contracts/Cars.sol\":2045:2055  _Car_model */\n      dup9\n        /* \"contracts/Cars.sol\":2057:2067  _Car_color */\n      dup9\n        /* \"contracts/Cars.sol\":2069:2079  _Car_Price */\n      dup9\n        /* \"contracts/Cars.sol\":2081:2090  _Car_Name */\n      dup9\n        /* \"contracts/Cars.sol\":2092:2103  AgencyOwner */\n      0x01\n      0x00\n      swap1\n      sload\n      swap1\n      0x0100\n      exp\n      swap1\n      div\n      0xffffffffffffffffffffffffffffffffffffffff\n      and\n        /* \"contracts/Cars.sol\":2104:2108  true */\n      0x01\n        /* \"contracts/Cars.sol\":2006:2109  EvntNewCarAdd(_CurrentCarID.current(), _Car_model, _Car_color, _Car_Price, _Car_Name, AgencyOwner,true) */\n      mload(0x40)\n      tag_90\n      swap8\n      swap7\n      swap6\n      swap5\n      swap4\n      swap3\n      swap2\n      swap1\n      tag_91\n      jump\t// in\n    tag_90:\n      mload(0x40)\n      dup1\n      swap2\n      sub\n      swap1\n      log1\n        /* \"contracts/Cars.sol\":1600:2117  {... */\n      pop\n        /* \"contracts/Cars.sol\":1459:2117  function AddCar(uint256 _Car_model,string memory _Car_color,uint256 _Car_Price,string memory _Car_Name, address,bool) public OnlyAgencyOwner {... */\n      pop\n      pop\n      pop\n      pop\n      pop\n      pop\n      jump\t// out\n        /* \"contracts/Cars.sol\":2674:3283  function SellCar (uint256 _CarID, uint256 _CarPrice) public  payable ... */\n    tag_33:\n        /* \"contracts/Cars.sol\":2869:2896  Struct_Car memory CarToSold */\n      0x00\n        /* \"contracts/Cars.sol\":2899:2906  MapCars */\n      0x02\n        /* \"contracts/Cars.sol\":2899:2914  MapCars[_CarID] */\n      0x00\n        /* \"contracts/Cars.sol\":2907:2913  _CarID */\n      dup5\n        /* \"contracts/Cars.sol\":2899:2914  MapCars[_CarID] */\n      dup2\n      mstore\n      0x20\n      add\n      swap1\n      dup2\n      mstore\n      0x20\n      add\n      0x00\n      keccak256\n        /* \"contracts/Cars.sol\":2869:2914  Struct_Car memory CarToSold = MapCars[_CarID] */\n      mload(0x40)\n      dup1\n      0xe0\n      add\n      0x40\n      mstore\n      swap1\n      dup2\n      0x00\n      dup3\n      add\n      sload\n      dup2\n      mstore\n      0x20\n      add\n      0x01\n      dup3\n      add\n      sload\n      dup2\n      mstore\n      0x20\n      add\n      0x02\n      dup3\n      add\n      dup1\n      sload\n      tag_93\n      swap1\n      tag_50\n      jump\t// in\n    tag_93:\n      dup1\n      0x1f\n      add\n      0x20\n      dup1\n      swap2\n      div\n      mul\n      0x20\n      add\n      mload(0x40)\n      swap1\n      dup2\n      add\n      0x40\n      mstore\n      dup1\n      swap3\n      swap2\n      swap1\n      dup2\n      dup2\n      mstore\n      0x20\n      add\n      dup3\n      dup1\n      sload\n      tag_94\n      swap1\n      tag_50\n      jump\t// in\n    tag_94:\n      dup1\n      iszero\n      tag_95\n      jumpi\n      dup1\n      0x1f\n      lt\n      tag_96\n      jumpi\n      0x0100\n      dup1\n      dup4\n      sload\n      div\n      mul\n      dup4\n      mstore\n      swap2\n      0x20\n      add\n      swap2\n      jump(tag_95)\n    tag_96:\n      dup3\n      add\n      swap2\n      swap1\n      0x00\n      mstore\n      keccak256(0x00, 0x20)\n      swap1\n    tag_97:\n      dup2\n      sload\n      dup2\n      mstore\n      swap1\n      0x01\n      add\n      swap1\n      0x20\n      add\n      dup1\n      dup4\n      gt\n      tag_97\n      jumpi\n      dup3\n      swap1\n      sub\n      0x1f\n      and\n      dup3\n      add\n      swap2\n    tag_95:\n      pop\n      pop\n      pop\n      pop\n      pop\n      dup2\n      mstore\n      0x20\n      add\n      0x03\n      dup3\n      add\n      sload\n      dup2\n      mstore\n      0x20\n      add\n      0x04\n      dup3\n      add\n      dup1\n      sload\n      tag_98\n      swap1\n      tag_50\n      jump\t// in\n    tag_98:\n      dup1\n      0x1f\n      add\n      0x20\n      dup1\n      swap2\n      div\n      mul\n      0x20\n      add\n      mload(0x40)\n      swap1\n      dup2\n      add\n      0x40\n      mstore\n      dup1\n      swap3\n      swap2\n      swap1\n      dup2\n      dup2\n      mstore\n      0x20\n      add\n      dup3\n      dup1\n      sload\n      tag_99\n      swap1\n      tag_50\n      jump\t// in\n    tag_99:\n      dup1\n      iszero\n      tag_100\n      jumpi\n      dup1\n      0x1f\n      lt\n      tag_101\n      jumpi\n      0x0100\n      dup1\n      dup4\n      sload\n      div\n      mul\n      dup4\n      mstore\n      swap2\n      0x20\n      add\n      swap2\n      jump(tag_100)\n    tag_101:\n      dup3\n      add\n      swap2\n      swap1\n      0x00\n      mstore\n      keccak256(0x00, 0x20)\n      swap1\n    tag_102:\n      dup2\n      sload\n      dup2\n      mstore\n      swap1\n      0x01\n      add\n      swap1\n      0x20\n      add\n      dup1\n      dup4\n      gt\n      tag_102\n      jumpi\n      dup3\n      swap1\n      sub\n      0x1f\n      and\n      dup3\n      add\n      swap2\n    tag_100:\n      pop\n      pop\n      pop\n      pop\n      pop\n      dup2\n      mstore\n      0x20\n      add\n      0x05\n      dup3\n      add\n      0x00\n      swap1\n      sload\n      swap1\n      0x0100\n      exp\n      swap1\n      div\n      0xffffffffffffffffffffffffffffffffffffffff\n      and\n      0xffffffffffffffffffffffffffffffffffffffff\n      and\n      0xffffffffffffffffffffffffffffffffffffffff\n      and\n      dup2\n      mstore\n      0x20\n      add\n      0x05\n      dup3\n      add\n      0x14\n      swap1\n      sload\n      swap1\n      0x0100\n      exp\n      swap1\n      div\n      0xff\n      and\n      iszero\n      iszero\n      iszero\n      iszero\n      dup2\n      mstore\n      pop\n      pop\n      swap1\n      pop\n        /* \"contracts/Cars.sol\":2932:2941  CarToSold */\n      dup1\n        /* \"contracts/Cars.sol\":2932:2951  CarToSold.Car_State */\n      0xc0\n      add\n      mload\n        /* \"contracts/Cars.sol\":2924:2975  require(CarToSold.Car_State, \"Car is already Sold\") */\n      tag_103\n      jumpi\n      mload(0x40)\n      0x08c379a000000000000000000000000000000000000000000000000000000000\n      dup2\n      mstore\n      0x04\n      add\n      tag_104\n      swap1\n      tag_105\n      jump\t// in\n    tag_104:\n      mload(0x40)\n      dup1\n      swap2\n      sub\n      swap1\n      revert\n    tag_103:\n        /* \"contracts/Cars.sol\":3016:3025  _CarPrice */\n      dup2\n        /* \"contracts/Cars.sol\":2993:3002  CarToSold */\n      dup2\n        /* \"contracts/Cars.sol\":2993:3012  CarToSold.Car_Price */\n      0x60\n      add\n      mload\n        /* \"contracts/Cars.sol\":2993:3025  CarToSold.Car_Price >= _CarPrice */\n      lt\n      iszero\n        /* \"contracts/Cars.sol\":2985:3046  require(CarToSold.Car_Price >= _CarPrice, \"Wrong Car value \") */\n      tag_106\n      jumpi\n      mload(0x40)\n      0x08c379a000000000000000000000000000000000000000000000000000000000\n      dup2\n      mstore\n      0x04\n      add\n      tag_107\n      swap1\n      tag_108\n      jump\t// in\n    tag_107:\n      mload(0x40)\n      dup1\n      swap2\n      sub\n      swap1\n      revert\n    tag_106:\n        /* \"contracts/Cars.sol\":3098:3107  CarToSold */\n      dup1\n        /* \"contracts/Cars.sol\":3098:3115  CarToSold.OwnedBy */\n      0xa0\n      add\n      mload\n        /* \"contracts/Cars.sol\":3098:3124  CarToSold.OwnedBy.transfer */\n      0xffffffffffffffffffffffffffffffffffffffff\n      and\n        /* \"contracts/Cars.sol\":3098:3145  CarToSold.OwnedBy.transfer(CarToSold.Car_Price) */\n      0x08fc\n        /* \"contracts/Cars.sol\":3125:3134  CarToSold */\n      dup3\n        /* \"contracts/Cars.sol\":3125:3144  CarToSold.Car_Price */\n      0x60\n      add\n      mload\n        /* \"contracts/Cars.sol\":3098:3145  CarToSold.OwnedBy.transfer(CarToSold.Car_Price) */\n      swap1\n      dup2\n      iszero\n      mul\n      swap1\n      mload(0x40)\n      0x00\n      mload(0x40)\n      dup1\n      dup4\n      sub\n      dup2\n      dup6\n      dup9\n      dup9\n      call\n      swap4\n      pop\n      pop\n      pop\n      pop\n      iszero\n      dup1\n      iszero\n      tag_110\n      jumpi\n      returndatasize\n      0x00\n      dup1\n      returndatacopy\n      revert(0x00, returndatasize)\n    tag_110:\n      pop\n        /* \"contracts/Cars.sol\":3182:3192  msg.sender */\n      caller\n        /* \"contracts/Cars.sol\":3155:3164  CarToSold */\n      dup2\n        /* \"contracts/Cars.sol\":3155:3172  CarToSold.OwnedBy */\n      0xa0\n      add\n        /* \"contracts/Cars.sol\":3155:3193  CarToSold.OwnedBy=payable (msg.sender) */\n      swap1\n      0xffffffffffffffffffffffffffffffffffffffff\n      and\n      swap1\n      dup2\n      0xffffffffffffffffffffffffffffffffffffffff\n      and\n      dup2\n      mstore\n      pop\n      pop\n        /* \"contracts/Cars.sol\":3223:3228  false */\n      0x00\n        /* \"contracts/Cars.sol\":3203:3212  CarToSold */\n      dup2\n        /* \"contracts/Cars.sol\":3203:3222  CarToSold.Car_State */\n      0xc0\n      add\n        /* \"contracts/Cars.sol\":3203:3228  CarToSold.Car_State=false */\n      swap1\n      iszero\n      iszero\n      swap1\n      dup2\n      iszero\n      iszero\n      dup2\n      mstore\n      pop\n      pop\n        /* \"contracts/Cars.sol\":3243:3276  EvntSellingCar(_CarID, _CarPrice) */\n      0x05551ddf6a1ecdd82b8af6e580ff1a9af7760b48836d4a8e413eac87da1a2c94\n        /* \"contracts/Cars.sol\":3258:3264  _CarID */\n      dup4\n        /* \"contracts/Cars.sol\":3266:3275  _CarPrice */\n      dup4\n        /* \"contracts/Cars.sol\":3243:3276  EvntSellingCar(_CarID, _CarPrice) */\n      mload(0x40)\n      tag_111\n      swap3\n      swap2\n      swap1\n      tag_112\n      jump\t// in\n    tag_111:\n      mload(0x40)\n      dup1\n      swap2\n      sub\n      swap1\n      log1\n        /* \"contracts/Cars.sol\":2748:3283  {... */\n      pop\n        /* \"contracts/Cars.sol\":2674:3283  function SellCar (uint256 _CarID, uint256 _CarPrice) public  payable ... */\n      pop\n      pop\n      jump\t// out\n        /* \"@openzeppelin/contracts/utils/Counters.sol\":945:1068  function increment(Counter storage counter) internal {... */\n    tag_80:\n        /* \"@openzeppelin/contracts/utils/Counters.sol\":1050:1051  1 */\n      0x01\n        /* \"@openzeppelin/contracts/utils/Counters.sol\":1032:1039  counter */\n      dup2\n        /* \"@openzeppelin/contracts/utils/Counters.sol\":1032:1046  counter._value */\n      0x00\n      add\n      0x00\n        /* \"@openzeppelin/contracts/utils/Counters.sol\":1032:1051  counter._value += 1 */\n      dup3\n      dup3\n      sload\n      add\n      swap3\n      pop\n      pop\n      dup2\n      swap1\n      sstore\n      pop\n        /* \"@openzeppelin/contracts/utils/Counters.sol\":945:1068  function increment(Counter storage counter) internal {... */\n      pop\n      jump\t// out\n        /* \"@openzeppelin/contracts/utils/Counters.sol\":827:939  function current(Counter storage counter) internal view returns (uint256) {... */\n    tag_82:\n        /* \"@openzeppelin/contracts/utils/Counters.sol\":892:899  uint256 */\n      0x00\n        /* \"@openzeppelin/contracts/utils/Counters.sol\":918:925  counter */\n      dup2\n        /* \"@openzeppelin/contracts/utils/Counters.sol\":918:932  counter._value */\n      0x00\n      add\n      sload\n        /* \"@openzeppelin/contracts/utils/Counters.sol\":911:932  return counter._value */\n      swap1\n      pop\n        /* \"@openzeppelin/contracts/utils/Counters.sol\":827:939  function current(Counter storage counter) internal view returns (uint256) {... */\n      swap2\n      swap1\n      pop\n      jump\t// out\n    tag_41:\n      mload(0x40)\n      dup1\n      0xe0\n      add\n      0x40\n      mstore\n      dup1\n      0x00\n      dup2\n      mstore\n      0x20\n      add\n      0x00\n      dup2\n      mstore\n      0x20\n      add\n      0x60\n      dup2\n      mstore\n      0x20\n      add\n      0x00\n      dup2\n      mstore\n      0x20\n      add\n      0x60\n      dup2\n      mstore\n      0x20\n      add\n      and(0xffffffffffffffffffffffffffffffffffffffff, 0x00)\n      dup2\n      mstore\n      0x20\n      add\n      iszero(iszero(0x00))\n      dup2\n      mstore\n      pop\n      swap1\n      jump\t// out\n        /* \"#utility.yul\":7:147   */\n    tag_115:\n        /* \"#utility.yul\":100:106   */\n      0x00\n        /* \"#utility.yul\":134:139   */\n      dup2\n        /* \"#utility.yul\":128:140   */\n      mload\n        /* \"#utility.yul\":118:140   */\n      swap1\n      pop\n        /* \"#utility.yul\":7:147   */\n      swap2\n      swap1\n      pop\n      jump\t// out\n        /* \"#utility.yul\":153:363   */\n    tag_116:\n        /* \"#utility.yul\":278:289   */\n      0x00\n        /* \"#utility.yul\":312:318   */\n      dup3\n        /* \"#utility.yul\":307:310   */\n      dup3\n        /* \"#utility.yul\":300:319   */\n      mstore\n        /* \"#utility.yul\":352:356   */\n      0x20\n        /* \"#utility.yul\":347:350   */\n      dup3\n        /* \"#utility.yul\":343:357   */\n      add\n        /* \"#utility.yul\":328:357   */\n      swap1\n      pop\n        /* \"#utility.yul\":153:363   */\n      swap3\n      swap2\n      pop\n      pop\n      jump\t// out\n        /* \"#utility.yul\":369:527   */\n    tag_117:\n        /* \"#utility.yul\":462:466   */\n      0x00\n        /* \"#utility.yul\":485:488   */\n      dup2\n        /* \"#utility.yul\":477:488   */\n      swap1\n      pop\n        /* \"#utility.yul\":515:519   */\n      0x20\n        /* \"#utility.yul\":510:513   */\n      dup3\n        /* \"#utility.yul\":506:520   */\n      add\n        /* \"#utility.yul\":498:520   */\n      swap1\n      pop\n        /* \"#utility.yul\":369:527   */\n      swap2\n      swap1\n      pop\n      jump\t// out\n        /* \"#utility.yul\":533:610   */\n    tag_118:\n        /* \"#utility.yul\":570:577   */\n      0x00\n        /* \"#utility.yul\":599:604   */\n      dup2\n        /* \"#utility.yul\":588:604   */\n      swap1\n      pop\n        /* \"#utility.yul\":533:610   */\n      swap2\n      swap1\n      pop\n      jump\t// out\n        /* \"#utility.yul\":616:724   */\n    tag_119:\n        /* \"#utility.yul\":693:717   */\n      tag_186\n        /* \"#utility.yul\":711:716   */\n      dup2\n        /* \"#utility.yul\":693:717   */\n      tag_118\n      jump\t// in\n    tag_186:\n        /* \"#utility.yul\":688:691   */\n      dup3\n        /* \"#utility.yul\":681:718   */\n      mstore\n        /* \"#utility.yul\":616:724   */\n      pop\n      pop\n      jump\t// out\n        /* \"#utility.yul\":730:829   */\n    tag_120:\n        /* \"#utility.yul\":782:788   */\n      0x00\n        /* \"#utility.yul\":816:821   */\n      dup2\n        /* \"#utility.yul\":810:822   */\n      mload\n        /* \"#utility.yul\":800:822   */\n      swap1\n      pop\n        /* \"#utility.yul\":730:829   */\n      swap2\n      swap1\n      pop\n      jump\t// out\n        /* \"#utility.yul\":835:994   */\n    tag_121:\n        /* \"#utility.yul\":909:920   */\n      0x00\n        /* \"#utility.yul\":943:949   */\n      dup3\n        /* \"#utility.yul\":938:941   */\n      dup3\n        /* \"#utility.yul\":931:950   */\n      mstore\n        /* \"#utility.yul\":983:987   */\n      0x20\n        /* \"#utility.yul\":978:981   */\n      dup3\n        /* \"#utility.yul\":974:988   */\n      add\n        /* \"#utility.yul\":959:988   */\n      swap1\n      pop\n        /* \"#utility.yul\":835:994   */\n      swap3\n      swap2\n      pop\n      pop\n      jump\t// out\n        /* \"#utility.yul\":1000:1246   */\n    tag_122:\n        /* \"#utility.yul\":1081:1082   */\n      0x00\n        /* \"#utility.yul\":1091:1204   */\n    tag_190:\n        /* \"#utility.yul\":1105:1111   */\n      dup4\n        /* \"#utility.yul\":1102:1103   */\n      dup2\n        /* \"#utility.yul\":1099:1112   */\n      lt\n        /* \"#utility.yul\":1091:1204   */\n      iszero\n      tag_192\n      jumpi\n        /* \"#utility.yul\":1190:1191   */\n      dup1\n        /* \"#utility.yul\":1185:1188   */\n      dup3\n        /* \"#utility.yul\":1181:1192   */\n      add\n        /* \"#utility.yul\":1175:1193   */\n      mload\n        /* \"#utility.yul\":1171:1172   */\n      dup2\n        /* \"#utility.yul\":1166:1169   */\n      dup5\n        /* \"#utility.yul\":1162:1173   */\n      add\n        /* \"#utility.yul\":1155:1194   */\n      mstore\n        /* \"#utility.yul\":1127:1129   */\n      0x20\n        /* \"#utility.yul\":1124:1125   */\n      dup2\n        /* \"#utility.yul\":1120:1130   */\n      add\n        /* \"#utility.yul\":1115:1130   */\n      swap1\n      pop\n        /* \"#utility.yul\":1091:1204   */\n      jump(tag_190)\n    tag_192:\n        /* \"#utility.yul\":1238:1239   */\n      0x00\n        /* \"#utility.yul\":1229:1235   */\n      dup5\n        /* \"#utility.yul\":1224:1227   */\n      dup5\n        /* \"#utility.yul\":1220:1236   */\n      add\n        /* \"#utility.yul\":1213:1240   */\n      mstore\n        /* \"#utility.yul\":1062:1246   */\n      pop\n        /* \"#utility.yul\":1000:1246   */\n      pop\n      pop\n      pop\n      jump\t// out\n        /* \"#utility.yul\":1252:1354   */\n    tag_123:\n        /* \"#utility.yul\":1293:1299   */\n      0x00\n        /* \"#utility.yul\":1344:1346   */\n      0x1f\n        /* \"#utility.yul\":1340:1347   */\n      not\n        /* \"#utility.yul\":1335:1337   */\n      0x1f\n        /* \"#utility.yul\":1328:1333   */\n      dup4\n        /* \"#utility.yul\":1324:1338   */\n      add\n        /* \"#utility.yul\":1320:1348   */\n      and\n        /* \"#utility.yul\":1310:1348   */\n      swap1\n      pop\n        /* \"#utility.yul\":1252:1354   */\n      swap2\n      swap1\n      pop\n      jump\t// out\n        /* \"#utility.yul\":1360:1717   */\n    tag_124:\n        /* \"#utility.yul\":1438:1441   */\n      0x00\n        /* \"#utility.yul\":1466:1505   */\n      tag_195\n        /* \"#utility.yul\":1499:1504   */\n      dup3\n        /* \"#utility.yul\":1466:1505   */\n      tag_120\n      jump\t// in\n    tag_195:\n        /* \"#utility.yul\":1521:1582   */\n      tag_196\n        /* \"#utility.yul\":1575:1581   */\n      dup2\n        /* \"#utility.yul\":1570:1573   */\n      dup6\n        /* \"#utility.yul\":1521:1582   */\n      tag_121\n      jump\t// in\n    tag_196:\n        /* \"#utility.yul\":1514:1582   */\n      swap4\n      pop\n        /* \"#utility.yul\":1591:1656   */\n      tag_197\n        /* \"#utility.yul\":1649:1655   */\n      dup2\n        /* \"#utility.yul\":1644:1647   */\n      dup6\n        /* \"#utility.yul\":1637:1641   */\n      0x20\n        /* \"#utility.yul\":1630:1635   */\n      dup7\n        /* \"#utility.yul\":1626:1642   */\n      add\n        /* \"#utility.yul\":1591:1656   */\n      tag_122\n      jump\t// in\n    tag_197:\n        /* \"#utility.yul\":1681:1710   */\n      tag_198\n        /* \"#utility.yul\":1703:1709   */\n      dup2\n        /* \"#utility.yul\":1681:1710   */\n      tag_123\n      jump\t// in\n    tag_198:\n        /* \"#utility.yul\":1676:1679   */\n      dup5\n        /* \"#utility.yul\":1672:1711   */\n      add\n        /* \"#utility.yul\":1665:1711   */\n      swap2\n      pop\n        /* \"#utility.yul\":1442:1717   */\n      pop\n        /* \"#utility.yul\":1360:1717   */\n      swap3\n      swap2\n      pop\n      pop\n      jump\t// out\n        /* \"#utility.yul\":1723:1849   */\n    tag_125:\n        /* \"#utility.yul\":1760:1767   */\n      0x00\n        /* \"#utility.yul\":1800:1842   */\n      0xffffffffffffffffffffffffffffffffffffffff\n        /* \"#utility.yul\":1793:1798   */\n      dup3\n        /* \"#utility.yul\":1789:1843   */\n      and\n        /* \"#utility.yul\":1778:1843   */\n      swap1\n      pop\n        /* \"#utility.yul\":1723:1849   */\n      swap2\n      swap1\n      pop\n      jump\t// out\n        /* \"#utility.yul\":1855:1959   */\n    tag_126:\n        /* \"#utility.yul\":1900:1907   */\n      0x00\n        /* \"#utility.yul\":1929:1953   */\n      tag_201\n        /* \"#utility.yul\":1947:1952   */\n      dup3\n        /* \"#utility.yul\":1929:1953   */\n      tag_125\n      jump\t// in\n    tag_201:\n        /* \"#utility.yul\":1918:1953   */\n      swap1\n      pop\n        /* \"#utility.yul\":1855:1959   */\n      swap2\n      swap1\n      pop\n      jump\t// out\n        /* \"#utility.yul\":1965:2097   */\n    tag_127:\n        /* \"#utility.yul\":2058:2090   */\n      tag_203\n        /* \"#utility.yul\":2084:2089   */\n      dup2\n        /* \"#utility.yul\":2058:2090   */\n      tag_126\n      jump\t// in\n    tag_203:\n        /* \"#utility.yul\":2053:2056   */\n      dup3\n        /* \"#utility.yul\":2046:2091   */\n      mstore\n        /* \"#utility.yul\":1965:2097   */\n      pop\n      pop\n      jump\t// out\n        /* \"#utility.yul\":2103:2193   */\n    tag_128:\n        /* \"#utility.yul\":2137:2144   */\n      0x00\n        /* \"#utility.yul\":2180:2185   */\n      dup2\n        /* \"#utility.yul\":2173:2186   */\n      iszero\n        /* \"#utility.yul\":2166:2187   */\n      iszero\n        /* \"#utility.yul\":2155:2187   */\n      swap1\n      pop\n        /* \"#utility.yul\":2103:2193   */\n      swap2\n      swap1\n      pop\n      jump\t// out\n        /* \"#utility.yul\":2199:2298   */\n    tag_129:\n        /* \"#utility.yul\":2270:2291   */\n      tag_206\n        /* \"#utility.yul\":2285:2290   */\n      dup2\n        /* \"#utility.yul\":2270:2291   */\n      tag_128\n      jump\t// in\n    tag_206:\n        /* \"#utility.yul\":2265:2268   */\n      dup3\n        /* \"#utility.yul\":2258:2292   */\n      mstore\n        /* \"#utility.yul\":2199:2298   */\n      pop\n      pop\n      jump\t// out\n        /* \"#utility.yul\":2370:3948   */\n    tag_130:\n        /* \"#utility.yul\":2481:2484   */\n      0x00\n        /* \"#utility.yul\":2517:2521   */\n      0xe0\n        /* \"#utility.yul\":2512:2515   */\n      dup4\n        /* \"#utility.yul\":2508:2522   */\n      add\n        /* \"#utility.yul\":2606:2610   */\n      0x00\n        /* \"#utility.yul\":2599:2604   */\n      dup4\n        /* \"#utility.yul\":2595:2611   */\n      add\n        /* \"#utility.yul\":2589:2612   */\n      mload\n        /* \"#utility.yul\":2625:2688   */\n      tag_208\n        /* \"#utility.yul\":2682:2686   */\n      0x00\n        /* \"#utility.yul\":2677:2680   */\n      dup7\n        /* \"#utility.yul\":2673:2687   */\n      add\n        /* \"#utility.yul\":2659:2671   */\n      dup3\n        /* \"#utility.yul\":2625:2688   */\n      tag_119\n      jump\t// in\n    tag_208:\n        /* \"#utility.yul\":2532:2698   */\n      pop\n        /* \"#utility.yul\":2785:2789   */\n      0x20\n        /* \"#utility.yul\":2778:2783   */\n      dup4\n        /* \"#utility.yul\":2774:2790   */\n      add\n        /* \"#utility.yul\":2768:2791   */\n      mload\n        /* \"#utility.yul\":2804:2867   */\n      tag_209\n        /* \"#utility.yul\":2861:2865   */\n      0x20\n        /* \"#utility.yul\":2856:2859   */\n      dup7\n        /* \"#utility.yul\":2852:2866   */\n      add\n        /* \"#utility.yul\":2838:2850   */\n      dup3\n        /* \"#utility.yul\":2804:2867   */\n      tag_119\n      jump\t// in\n    tag_209:\n        /* \"#utility.yul\":2708:2877   */\n      pop\n        /* \"#utility.yul\":2964:2968   */\n      0x40\n        /* \"#utility.yul\":2957:2962   */\n      dup4\n        /* \"#utility.yul\":2953:2969   */\n      add\n        /* \"#utility.yul\":2947:2970   */\n      mload\n        /* \"#utility.yul\":3017:3020   */\n      dup5\n        /* \"#utility.yul\":3011:3015   */\n      dup3\n        /* \"#utility.yul\":3007:3021   */\n      sub\n        /* \"#utility.yul\":3000:3004   */\n      0x40\n        /* \"#utility.yul\":2995:2998   */\n      dup7\n        /* \"#utility.yul\":2991:3005   */\n      add\n        /* \"#utility.yul\":2984:3022   */\n      mstore\n        /* \"#utility.yul\":3043:3116   */\n      tag_210\n        /* \"#utility.yul\":3111:3115   */\n      dup3\n        /* \"#utility.yul\":3097:3109   */\n      dup3\n        /* \"#utility.yul\":3043:3116   */\n      tag_124\n      jump\t// in\n    tag_210:\n        /* \"#utility.yul\":3035:3116   */\n      swap2\n      pop\n        /* \"#utility.yul\":2887:3127   */\n      pop\n        /* \"#utility.yul\":3214:3218   */\n      0x60\n        /* \"#utility.yul\":3207:3212   */\n      dup4\n        /* \"#utility.yul\":3203:3219   */\n      add\n        /* \"#utility.yul\":3197:3220   */\n      mload\n        /* \"#utility.yul\":3233:3296   */\n      tag_211\n        /* \"#utility.yul\":3290:3294   */\n      0x60\n        /* \"#utility.yul\":3285:3288   */\n      dup7\n        /* \"#utility.yul\":3281:3295   */\n      add\n        /* \"#utility.yul\":3267:3279   */\n      dup3\n        /* \"#utility.yul\":3233:3296   */\n      tag_119\n      jump\t// in\n    tag_211:\n        /* \"#utility.yul\":3137:3306   */\n      pop\n        /* \"#utility.yul\":3392:3396   */\n      0x80\n        /* \"#utility.yul\":3385:3390   */\n      dup4\n        /* \"#utility.yul\":3381:3397   */\n      add\n        /* \"#utility.yul\":3375:3398   */\n      mload\n        /* \"#utility.yul\":3445:3448   */\n      dup5\n        /* \"#utility.yul\":3439:3443   */\n      dup3\n        /* \"#utility.yul\":3435:3449   */\n      sub\n        /* \"#utility.yul\":3428:3432   */\n      0x80\n        /* \"#utility.yul\":3423:3426   */\n      dup7\n        /* \"#utility.yul\":3419:3433   */\n      add\n        /* \"#utility.yul\":3412:3450   */\n      mstore\n        /* \"#utility.yul\":3471:3544   */\n      tag_212\n        /* \"#utility.yul\":3539:3543   */\n      dup3\n        /* \"#utility.yul\":3525:3537   */\n      dup3\n        /* \"#utility.yul\":3471:3544   */\n      tag_124\n      jump\t// in\n    tag_212:\n        /* \"#utility.yul\":3463:3544   */\n      swap2\n      pop\n        /* \"#utility.yul\":3316:3555   */\n      pop\n        /* \"#utility.yul\":3640:3644   */\n      0xa0\n        /* \"#utility.yul\":3633:3638   */\n      dup4\n        /* \"#utility.yul\":3629:3645   */\n      add\n        /* \"#utility.yul\":3623:3646   */\n      mload\n        /* \"#utility.yul\":3659:3738   */\n      tag_213\n        /* \"#utility.yul\":3732:3736   */\n      0xa0\n        /* \"#utility.yul\":3727:3730   */\n      dup7\n        /* \"#utility.yul\":3723:3737   */\n      add\n        /* \"#utility.yul\":3709:3721   */\n      dup3\n        /* \"#utility.yul\":3659:3738   */\n      tag_127\n      jump\t// in\n    tag_213:\n        /* \"#utility.yul\":3565:3748   */\n      pop\n        /* \"#utility.yul\":3835:3839   */\n      0xc0\n        /* \"#utility.yul\":3828:3833   */\n      dup4\n        /* \"#utility.yul\":3824:3840   */\n      add\n        /* \"#utility.yul\":3818:3841   */\n      mload\n        /* \"#utility.yul\":3854:3911   */\n      tag_214\n        /* \"#utility.yul\":3905:3909   */\n      0xc0\n        /* \"#utility.yul\":3900:3903   */\n      dup7\n        /* \"#utility.yul\":3896:3910   */\n      add\n        /* \"#utility.yul\":3882:3894   */\n      dup3\n        /* \"#utility.yul\":3854:3911   */\n      tag_129\n      jump\t// in\n    tag_214:\n        /* \"#utility.yul\":3758:3921   */\n      pop\n        /* \"#utility.yul\":3938:3942   */\n      dup1\n        /* \"#utility.yul\":3931:3942   */\n      swap2\n      pop\n        /* \"#utility.yul\":2486:3948   */\n      pop\n        /* \"#utility.yul\":2370:3948   */\n      swap3\n      swap2\n      pop\n      pop\n      jump\t// out\n        /* \"#utility.yul\":3954:4214   */\n    tag_131:\n        /* \"#utility.yul\":4075:4085   */\n      0x00\n        /* \"#utility.yul\":4110:4208   */\n      tag_216\n        /* \"#utility.yul\":4204:4207   */\n      dup4\n        /* \"#utility.yul\":4196:4202   */\n      dup4\n        /* \"#utility.yul\":4110:4208   */\n      tag_130\n      jump\t// in\n    tag_216:\n        /* \"#utility.yul\":4096:4208   */\n      swap1\n      pop\n        /* \"#utility.yul\":3954:4214   */\n      swap3\n      swap2\n      pop\n      pop\n      jump\t// out\n        /* \"#utility.yul\":4220:4359   */\n    tag_132:\n        /* \"#utility.yul\":4316:4320   */\n      0x00\n        /* \"#utility.yul\":4348:4352   */\n      0x20\n        /* \"#utility.yul\":4343:4346   */\n      dup3\n        /* \"#utility.yul\":4339:4353   */\n      add\n        /* \"#utility.yul\":4331:4353   */\n      swap1\n      pop\n        /* \"#utility.yul\":4220:4359   */\n      swap2\n      swap1\n      pop\n      jump\t// out\n        /* \"#utility.yul\":4435:5554   */\n    tag_133:\n        /* \"#utility.yul\":4606:4609   */\n      0x00\n        /* \"#utility.yul\":4635:4715   */\n      tag_219\n        /* \"#utility.yul\":4709:4714   */\n      dup3\n        /* \"#utility.yul\":4635:4715   */\n      tag_115\n      jump\t// in\n    tag_219:\n        /* \"#utility.yul\":4731:4843   */\n      tag_220\n        /* \"#utility.yul\":4836:4842   */\n      dup2\n        /* \"#utility.yul\":4831:4834   */\n      dup6\n        /* \"#utility.yul\":4731:4843   */\n      tag_116\n      jump\t// in\n    tag_220:\n        /* \"#utility.yul\":4724:4843   */\n      swap4\n      pop\n        /* \"#utility.yul\":4869:4872   */\n      dup4\n        /* \"#utility.yul\":4914:4918   */\n      0x20\n        /* \"#utility.yul\":4906:4912   */\n      dup3\n        /* \"#utility.yul\":4902:4919   */\n      mul\n        /* \"#utility.yul\":4897:4900   */\n      dup6\n        /* \"#utility.yul\":4893:4920   */\n      add\n        /* \"#utility.yul\":4944:5026   */\n      tag_221\n        /* \"#utility.yul\":5020:5025   */\n      dup6\n        /* \"#utility.yul\":4944:5026   */\n      tag_117\n      jump\t// in\n    tag_221:\n        /* \"#utility.yul\":5049:5056   */\n      dup1\n        /* \"#utility.yul\":5080:5081   */\n      0x00\n        /* \"#utility.yul\":5065:5509   */\n    tag_222:\n        /* \"#utility.yul\":5090:5096   */\n      dup6\n        /* \"#utility.yul\":5087:5088   */\n      dup2\n        /* \"#utility.yul\":5084:5097   */\n      lt\n        /* \"#utility.yul\":5065:5509   */\n      iszero\n      tag_224\n      jumpi\n        /* \"#utility.yul\":5161:5170   */\n      dup5\n        /* \"#utility.yul\":5155:5159   */\n      dup5\n        /* \"#utility.yul\":5151:5171   */\n      sub\n        /* \"#utility.yul\":5146:5149   */\n      dup10\n        /* \"#utility.yul\":5139:5172   */\n      mstore\n        /* \"#utility.yul\":5212:5218   */\n      dup2\n        /* \"#utility.yul\":5206:5219   */\n      mload\n        /* \"#utility.yul\":5240:5356   */\n      tag_225\n        /* \"#utility.yul\":5351:5355   */\n      dup6\n        /* \"#utility.yul\":5336:5349   */\n      dup3\n        /* \"#utility.yul\":5240:5356   */\n      tag_131\n      jump\t// in\n    tag_225:\n        /* \"#utility.yul\":5232:5356   */\n      swap5\n      pop\n        /* \"#utility.yul\":5379:5465   */\n      tag_226\n        /* \"#utility.yul\":5458:5464   */\n      dup4\n        /* \"#utility.yul\":5379:5465   */\n      tag_132\n      jump\t// in\n    tag_226:\n        /* \"#utility.yul\":5369:5465   */\n      swap3\n      pop\n        /* \"#utility.yul\":5494:5498   */\n      0x20\n        /* \"#utility.yul\":5489:5492   */\n      dup11\n        /* \"#utility.yul\":5485:5499   */\n      add\n        /* \"#utility.yul\":5478:5499   */\n      swap10\n      pop\n        /* \"#utility.yul\":5125:5509   */\n      pop\n        /* \"#utility.yul\":5112:5113   */\n      0x01\n        /* \"#utility.yul\":5109:5110   */\n      dup2\n        /* \"#utility.yul\":5105:5114   */\n      add\n        /* \"#utility.yul\":5100:5114   */\n      swap1\n      pop\n        /* \"#utility.yul\":5065:5509   */\n      jump(tag_222)\n    tag_224:\n        /* \"#utility.yul\":5069:5083   */\n      pop\n        /* \"#utility.yul\":5525:5529   */\n      dup3\n        /* \"#utility.yul\":5518:5529   */\n      swap8\n      pop\n        /* \"#utility.yul\":5545:5548   */\n      dup8\n        /* \"#utility.yul\":5538:5548   */\n      swap6\n      pop\n        /* \"#utility.yul\":4611:5554   */\n      pop\n      pop\n      pop\n      pop\n      pop\n        /* \"#utility.yul\":4435:5554   */\n      swap3\n      swap2\n      pop\n      pop\n      jump\t// out\n        /* \"#utility.yul\":5560:6037   */\n    tag_11:\n        /* \"#utility.yul\":5755:5759   */\n      0x00\n        /* \"#utility.yul\":5793:5795   */\n      0x20\n        /* \"#utility.yul\":5782:5791   */\n      dup3\n        /* \"#utility.yul\":5778:5796   */\n      add\n        /* \"#utility.yul\":5770:5796   */\n      swap1\n      pop\n        /* \"#utility.yul\":5842:5851   */\n      dup2\n        /* \"#utility.yul\":5836:5840   */\n      dup2\n        /* \"#utility.yul\":5832:5852   */\n      sub\n        /* \"#utility.yul\":5828:5829   */\n      0x00\n        /* \"#utility.yul\":5817:5826   */\n      dup4\n        /* \"#utility.yul\":5813:5830   */\n      add\n        /* \"#utility.yul\":5806:5853   */\n      mstore\n        /* \"#utility.yul\":5870:6030   */\n      tag_228\n        /* \"#utility.yul\":6025:6029   */\n      dup2\n        /* \"#utility.yul\":6016:6022   */\n      dup5\n        /* \"#utility.yul\":5870:6030   */\n      tag_133\n      jump\t// in\n    tag_228:\n        /* \"#utility.yul\":5862:6030   */\n      swap1\n      pop\n        /* \"#utility.yul\":5560:6037   */\n      swap3\n      swap2\n      pop\n      pop\n      jump\t// out\n        /* \"#utility.yul\":6043:6118   */\n    tag_134:\n        /* \"#utility.yul\":6076:6082   */\n      0x00\n        /* \"#utility.yul\":6109:6111   */\n      0x40\n        /* \"#utility.yul\":6103:6112   */\n      mload\n        /* \"#utility.yul\":6093:6112   */\n      swap1\n      pop\n        /* \"#utility.yul\":6043:6118   */\n      swap1\n      jump\t// out\n        /* \"#utility.yul\":6124:6241   */\n    tag_135:\n        /* \"#utility.yul\":6233:6234   */\n      0x00\n        /* \"#utility.yul\":6230:6231   */\n      dup1\n        /* \"#utility.yul\":6223:6235   */\n      revert\n        /* \"#utility.yul\":6247:6364   */\n    tag_136:\n        /* \"#utility.yul\":6356:6357   */\n      0x00\n        /* \"#utility.yul\":6353:6354   */\n      dup1\n        /* \"#utility.yul\":6346:6358   */\n      revert\n        /* \"#utility.yul\":6370:6492   */\n    tag_137:\n        /* \"#utility.yul\":6443:6467   */\n      tag_233\n        /* \"#utility.yul\":6461:6466   */\n      dup2\n        /* \"#utility.yul\":6443:6467   */\n      tag_118\n      jump\t// in\n    tag_233:\n        /* \"#utility.yul\":6436:6441   */\n      dup2\n        /* \"#utility.yul\":6433:6468   */\n      eq\n        /* \"#utility.yul\":6423:6486   */\n      tag_234\n      jumpi\n        /* \"#utility.yul\":6482:6483   */\n      0x00\n        /* \"#utility.yul\":6479:6480   */\n      dup1\n        /* \"#utility.yul\":6472:6484   */\n      revert\n        /* \"#utility.yul\":6423:6486   */\n    tag_234:\n        /* \"#utility.yul\":6370:6492   */\n      pop\n      jump\t// out\n        /* \"#utility.yul\":6498:6637   */\n    tag_138:\n        /* \"#utility.yul\":6544:6549   */\n      0x00\n        /* \"#utility.yul\":6582:6588   */\n      dup2\n        /* \"#utility.yul\":6569:6589   */\n      calldataload\n        /* \"#utility.yul\":6560:6589   */\n      swap1\n      pop\n        /* \"#utility.yul\":6598:6631   */\n      tag_236\n        /* \"#utility.yul\":6625:6630   */\n      dup2\n        /* \"#utility.yul\":6598:6631   */\n      tag_137\n      jump\t// in\n    tag_236:\n        /* \"#utility.yul\":6498:6637   */\n      swap3\n      swap2\n      pop\n      pop\n      jump\t// out\n        /* \"#utility.yul\":6643:6972   */\n    tag_15:\n        /* \"#utility.yul\":6702:6708   */\n      0x00\n        /* \"#utility.yul\":6751:6753   */\n      0x20\n        /* \"#utility.yul\":6739:6748   */\n      dup3\n        /* \"#utility.yul\":6730:6737   */\n      dup5\n        /* \"#utility.yul\":6726:6749   */\n      sub\n        /* \"#utility.yul\":6722:6754   */\n      slt\n        /* \"#utility.yul\":6719:6838   */\n      iszero\n      tag_238\n      jumpi\n        /* \"#utility.yul\":6757:6836   */\n      tag_239\n      tag_135\n      jump\t// in\n    tag_239:\n        /* \"#utility.yul\":6719:6838   */\n    tag_238:\n        /* \"#utility.yul\":6877:6878   */\n      0x00\n        /* \"#utility.yul\":6902:6955   */\n      tag_240\n        /* \"#utility.yul\":6947:6954   */\n      dup5\n        /* \"#utility.yul\":6938:6944   */\n      dup3\n        /* \"#utility.yul\":6927:6936   */\n      dup6\n        /* \"#utility.yul\":6923:6945   */\n      add\n        /* \"#utility.yul\":6902:6955   */\n      tag_138\n      jump\t// in\n    tag_240:\n        /* \"#utility.yul\":6892:6955   */\n      swap2\n      pop\n        /* \"#utility.yul\":6848:6965   */\n      pop\n        /* \"#utility.yul\":6643:6972   */\n      swap3\n      swap2\n      pop\n      pop\n      jump\t// out\n        /* \"#utility.yul\":6978:7096   */\n    tag_139:\n        /* \"#utility.yul\":7065:7089   */\n      tag_242\n        /* \"#utility.yul\":7083:7088   */\n      dup2\n        /* \"#utility.yul\":7065:7089   */\n      tag_118\n      jump\t// in\n    tag_242:\n        /* \"#utility.yul\":7060:7063   */\n      dup3\n        /* \"#utility.yul\":7053:7090   */\n      mstore\n        /* \"#utility.yul\":6978:7096   */\n      pop\n      pop\n      jump\t// out\n        /* \"#utility.yul\":7102:7271   */\n    tag_140:\n        /* \"#utility.yul\":7186:7197   */\n      0x00\n        /* \"#utility.yul\":7220:7226   */\n      dup3\n        /* \"#utility.yul\":7215:7218   */\n      dup3\n        /* \"#utility.yul\":7208:7227   */\n      mstore\n        /* \"#utility.yul\":7260:7264   */\n      0x20\n        /* \"#utility.yul\":7255:7258   */\n      dup3\n        /* \"#utility.yul\":7251:7265   */\n      add\n        /* \"#utility.yul\":7236:7265   */\n      swap1\n      pop\n        /* \"#utility.yul\":7102:7271   */\n      swap3\n      swap2\n      pop\n      pop\n      jump\t// out\n        /* \"#utility.yul\":7277:7654   */\n    tag_141:\n        /* \"#utility.yul\":7365:7368   */\n      0x00\n        /* \"#utility.yul\":7393:7432   */\n      tag_245\n        /* \"#utility.yul\":7426:7431   */\n      dup3\n        /* \"#utility.yul\":7393:7432   */\n      tag_120\n      jump\t// in\n    tag_245:\n        /* \"#utility.yul\":7448:7519   */\n      tag_246\n        /* \"#utility.yul\":7512:7518   */\n      dup2\n        /* \"#utility.yul\":7507:7510   */\n      dup6\n        /* \"#utility.yul\":7448:7519   */\n      tag_140\n      jump\t// in\n    tag_246:\n        /* \"#utility.yul\":7441:7519   */\n      swap4\n      pop\n        /* \"#utility.yul\":7528:7593   */\n      tag_247\n        /* \"#utility.yul\":7586:7592   */\n      dup2\n        /* \"#utility.yul\":7581:7584   */\n      dup6\n        /* \"#utility.yul\":7574:7578   */\n      0x20\n        /* \"#utility.yul\":7567:7572   */\n      dup7\n        /* \"#utility.yul\":7563:7579   */\n      add\n        /* \"#utility.yul\":7528:7593   */\n      tag_122\n      jump\t// in\n    tag_247:\n        /* \"#utility.yul\":7618:7647   */\n      tag_248\n        /* \"#utility.yul\":7640:7646   */\n      dup2\n        /* \"#utility.yul\":7618:7647   */\n      tag_123\n      jump\t// in\n    tag_248:\n        /* \"#utility.yul\":7613:7616   */\n      dup5\n        /* \"#utility.yul\":7609:7648   */\n      add\n        /* \"#utility.yul\":7602:7648   */\n      swap2\n      pop\n        /* \"#utility.yul\":7369:7654   */\n      pop\n        /* \"#utility.yul\":7277:7654   */\n      swap3\n      swap2\n      pop\n      pop\n      jump\t// out\n        /* \"#utility.yul\":7660:7802   */\n    tag_142:\n        /* \"#utility.yul\":7763:7795   */\n      tag_250\n        /* \"#utility.yul\":7789:7794   */\n      dup2\n        /* \"#utility.yul\":7763:7795   */\n      tag_126\n      jump\t// in\n    tag_250:\n        /* \"#utility.yul\":7758:7761   */\n      dup3\n        /* \"#utility.yul\":7751:7796   */\n      mstore\n        /* \"#utility.yul\":7660:7802   */\n      pop\n      pop\n      jump\t// out\n        /* \"#utility.yul\":7808:7917   */\n    tag_143:\n        /* \"#utility.yul\":7889:7910   */\n      tag_252\n        /* \"#utility.yul\":7904:7909   */\n      dup2\n        /* \"#utility.yul\":7889:7910   */\n      tag_128\n      jump\t// in\n    tag_252:\n        /* \"#utility.yul\":7884:7887   */\n      dup3\n        /* \"#utility.yul\":7877:7911   */\n      mstore\n        /* \"#utility.yul\":7808:7917   */\n      pop\n      pop\n      jump\t// out\n        /* \"#utility.yul\":7923:9011   */\n    tag_18:\n        /* \"#utility.yul\":8234:8238   */\n      0x00\n        /* \"#utility.yul\":8272:8275   */\n      0xe0\n        /* \"#utility.yul\":8261:8270   */\n      dup3\n        /* \"#utility.yul\":8257:8276   */\n      add\n        /* \"#utility.yul\":8249:8276   */\n      swap1\n      pop\n        /* \"#utility.yul\":8286:8357   */\n      tag_254\n        /* \"#utility.yul\":8354:8355   */\n      0x00\n        /* \"#utility.yul\":8343:8352   */\n      dup4\n        /* \"#utility.yul\":8339:8356   */\n      add\n        /* \"#utility.yul\":8330:8336   */\n      dup11\n        /* \"#utility.yul\":8286:8357   */\n      tag_139\n      jump\t// in\n    tag_254:\n        /* \"#utility.yul\":8367:8439   */\n      tag_255\n        /* \"#utility.yul\":8435:8437   */\n      0x20\n        /* \"#utility.yul\":8424:8433   */\n      dup4\n        /* \"#utility.yul\":8420:8438   */\n      add\n        /* \"#utility.yul\":8411:8417   */\n      dup10\n        /* \"#utility.yul\":8367:8439   */\n      tag_139\n      jump\t// in\n    tag_255:\n        /* \"#utility.yul\":8486:8495   */\n      dup2\n        /* \"#utility.yul\":8480:8484   */\n      dup2\n        /* \"#utility.yul\":8476:8496   */\n      sub\n        /* \"#utility.yul\":8471:8473   */\n      0x40\n        /* \"#utility.yul\":8460:8469   */\n      dup4\n        /* \"#utility.yul\":8456:8474   */\n      add\n        /* \"#utility.yul\":8449:8497   */\n      mstore\n        /* \"#utility.yul\":8514:8592   */\n      tag_256\n        /* \"#utility.yul\":8587:8591   */\n      dup2\n        /* \"#utility.yul\":8578:8584   */\n      dup9\n        /* \"#utility.yul\":8514:8592   */\n      tag_141\n      jump\t// in\n    tag_256:\n        /* \"#utility.yul\":8506:8592   */\n      swap1\n      pop\n        /* \"#utility.yul\":8602:8674   */\n      tag_257\n        /* \"#utility.yul\":8670:8672   */\n      0x60\n        /* \"#utility.yul\":8659:8668   */\n      dup4\n        /* \"#utility.yul\":8655:8673   */\n      add\n        /* \"#utility.yul\":8646:8652   */\n      dup8\n        /* \"#utility.yul\":8602:8674   */\n      tag_139\n      jump\t// in\n    tag_257:\n        /* \"#utility.yul\":8722:8731   */\n      dup2\n        /* \"#utility.yul\":8716:8720   */\n      dup2\n        /* \"#utility.yul\":8712:8732   */\n      sub\n        /* \"#utility.yul\":8706:8709   */\n      0x80\n        /* \"#utility.yul\":8695:8704   */\n      dup4\n        /* \"#utility.yul\":8691:8710   */\n      add\n        /* \"#utility.yul\":8684:8733   */\n      mstore\n        /* \"#utility.yul\":8750:8828   */\n      tag_258\n        /* \"#utility.yul\":8823:8827   */\n      dup2\n        /* \"#utility.yul\":8814:8820   */\n      dup7\n        /* \"#utility.yul\":8750:8828   */\n      tag_141\n      jump\t// in\n    tag_258:\n        /* \"#utility.yul\":8742:8828   */\n      swap1\n      pop\n        /* \"#utility.yul\":8838:8927   */\n      tag_259\n        /* \"#utility.yul\":8922:8925   */\n      0xa0\n        /* \"#utility.yul\":8911:8920   */\n      dup4\n        /* \"#utility.yul\":8907:8926   */\n      add\n        /* \"#utility.yul\":8898:8904   */\n      dup6\n        /* \"#utility.yul\":8838:8927   */\n      tag_142\n      jump\t// in\n    tag_259:\n        /* \"#utility.yul\":8937:9004   */\n      tag_260\n        /* \"#utility.yul\":8999:9002   */\n      0xc0\n        /* \"#utility.yul\":8988:8997   */\n      dup4\n        /* \"#utility.yul\":8984:9003   */\n      add\n        /* \"#utility.yul\":8975:8981   */\n      dup5\n        /* \"#utility.yul\":8937:9004   */\n      tag_143\n      jump\t// in\n    tag_260:\n        /* \"#utility.yul\":7923:9011   */\n      swap9\n      swap8\n      pop\n      pop\n      pop\n      pop\n      pop\n      pop\n      pop\n      pop\n      jump\t// out\n        /* \"#utility.yul\":9017:9239   */\n    tag_24:\n        /* \"#utility.yul\":9110:9114   */\n      0x00\n        /* \"#utility.yul\":9148:9150   */\n      0x20\n        /* \"#utility.yul\":9137:9146   */\n      dup3\n        /* \"#utility.yul\":9133:9151   */\n      add\n        /* \"#utility.yul\":9125:9151   */\n      swap1\n      pop\n        /* \"#utility.yul\":9161:9232   */\n      tag_262\n        /* \"#utility.yul\":9229:9230   */\n      0x00\n        /* \"#utility.yul\":9218:9227   */\n      dup4\n        /* \"#utility.yul\":9214:9231   */\n      add\n        /* \"#utility.yul\":9205:9211   */\n      dup5\n        /* \"#utility.yul\":9161:9232   */\n      tag_139\n      jump\t// in\n    tag_262:\n        /* \"#utility.yul\":9017:9239   */\n      swap3\n      swap2\n      pop\n      pop\n      jump\t// out\n        /* \"#utility.yul\":9245:9362   */\n    tag_144:\n        /* \"#utility.yul\":9354:9355   */\n      0x00\n        /* \"#utility.yul\":9351:9352   */\n      dup1\n        /* \"#utility.yul\":9344:9356   */\n      revert\n        /* \"#utility.yul\":9368:9485   */\n    tag_145:\n        /* \"#utility.yul\":9477:9478   */\n      0x00\n        /* \"#utility.yul\":9474:9475   */\n      dup1\n        /* \"#utility.yul\":9467:9479   */\n      revert\n        /* \"#utility.yul\":9491:9671   */\n    tag_37:\n        /* \"#utility.yul\":9539:9616   */\n      0x4e487b7100000000000000000000000000000000000000000000000000000000\n        /* \"#utility.yul\":9536:9537   */\n      0x00\n        /* \"#utility.yul\":9529:9617   */\n      mstore\n        /* \"#utility.yul\":9636:9640   */\n      0x41\n        /* \"#utility.yul\":9633:9634   */\n      0x04\n        /* \"#utility.yul\":9626:9641   */\n      mstore\n        /* \"#utility.yul\":9660:9664   */\n      0x24\n        /* \"#utility.yul\":9657:9658   */\n      0x00\n        /* \"#utility.yul\":9650:9665   */\n      revert\n        /* \"#utility.yul\":9677:9958   */\n    tag_146:\n        /* \"#utility.yul\":9760:9787   */\n      tag_267\n        /* \"#utility.yul\":9782:9786   */\n      dup3\n        /* \"#utility.yul\":9760:9787   */\n      tag_123\n      jump\t// in\n    tag_267:\n        /* \"#utility.yul\":9752:9758   */\n      dup2\n        /* \"#utility.yul\":9748:9788   */\n      add\n        /* \"#utility.yul\":9890:9896   */\n      dup2\n        /* \"#utility.yul\":9878:9888   */\n      dup2\n        /* \"#utility.yul\":9875:9897   */\n      lt\n        /* \"#utility.yul\":9854:9872   */\n      0xffffffffffffffff\n        /* \"#utility.yul\":9842:9852   */\n      dup3\n        /* \"#utility.yul\":9839:9873   */\n      gt\n        /* \"#utility.yul\":9836:9898   */\n      or\n        /* \"#utility.yul\":9833:9921   */\n      iszero\n      tag_268\n      jumpi\n        /* \"#utility.yul\":9901:9919   */\n      tag_269\n      tag_37\n      jump\t// in\n    tag_269:\n        /* \"#utility.yul\":9833:9921   */\n    tag_268:\n        /* \"#utility.yul\":9941:9951   */\n      dup1\n        /* \"#utility.yul\":9937:9939   */\n      0x40\n        /* \"#utility.yul\":9930:9952   */\n      mstore\n        /* \"#utility.yul\":9720:9958   */\n      pop\n        /* \"#utility.yul\":9677:9958   */\n      pop\n      pop\n      jump\t// out\n        /* \"#utility.yul\":9964:10093   */\n    tag_147:\n        /* \"#utility.yul\":9998:10004   */\n      0x00\n        /* \"#utility.yul\":10025:10045   */\n      tag_271\n      tag_134\n      jump\t// in\n    tag_271:\n        /* \"#utility.yul\":10015:10045   */\n      swap1\n      pop\n        /* \"#utility.yul\":10054:10087   */\n      tag_272\n        /* \"#utility.yul\":10082:10086   */\n      dup3\n        /* \"#utility.yul\":10074:10080   */\n      dup3\n        /* \"#utility.yul\":10054:10087   */\n      tag_146\n      jump\t// in\n    tag_272:\n        /* \"#utility.yul\":9964:10093   */\n      swap2\n      swap1\n      pop\n      jump\t// out\n        /* \"#utility.yul\":10099:10407   */\n    tag_148:\n        /* \"#utility.yul\":10161:10165   */\n      0x00\n        /* \"#utility.yul\":10251:10269   */\n      0xffffffffffffffff\n        /* \"#utility.yul\":10243:10249   */\n      dup3\n        /* \"#utility.yul\":10240:10270   */\n      gt\n        /* \"#utility.yul\":10237:10293   */\n      iszero\n      tag_274\n      jumpi\n        /* \"#utility.yul\":10273:10291   */\n      tag_275\n      tag_37\n      jump\t// in\n    tag_275:\n        /* \"#utility.yul\":10237:10293   */\n    tag_274:\n        /* \"#utility.yul\":10311:10340   */\n      tag_276\n        /* \"#utility.yul\":10333:10339   */\n      dup3\n        /* \"#utility.yul\":10311:10340   */\n      tag_123\n      jump\t// in\n    tag_276:\n        /* \"#utility.yul\":10303:10340   */\n      swap1\n      pop\n        /* \"#utility.yul\":10395:10399   */\n      0x20\n        /* \"#utility.yul\":10389:10393   */\n      dup2\n        /* \"#utility.yul\":10385:10400   */\n      add\n        /* \"#utility.yul\":10377:10400   */\n      swap1\n      pop\n        /* \"#utility.yul\":10099:10407   */\n      swap2\n      swap1\n      pop\n      jump\t// out\n        /* \"#utility.yul\":10413:10559   */\n    tag_149:\n        /* \"#utility.yul\":10510:10516   */\n      dup3\n        /* \"#utility.yul\":10505:10508   */\n      dup2\n        /* \"#utility.yul\":10500:10503   */\n      dup4\n        /* \"#utility.yul\":10487:10517   */\n      calldatacopy\n        /* \"#utility.yul\":10551:10552   */\n      0x00\n        /* \"#utility.yul\":10542:10548   */\n      dup4\n        /* \"#utility.yul\":10537:10540   */\n      dup4\n        /* \"#utility.yul\":10533:10549   */\n      add\n        /* \"#utility.yul\":10526:10553   */\n      mstore\n        /* \"#utility.yul\":10413:10559   */\n      pop\n      pop\n      pop\n      jump\t// out\n        /* \"#utility.yul\":10565:10990   */\n    tag_150:\n        /* \"#utility.yul\":10643:10648   */\n      0x00\n        /* \"#utility.yul\":10668:10734   */\n      tag_279\n        /* \"#utility.yul\":10684:10733   */\n      tag_280\n        /* \"#utility.yul\":10726:10732   */\n      dup5\n        /* \"#utility.yul\":10684:10733   */\n      tag_148\n      jump\t// in\n    tag_280:\n        /* \"#utility.yul\":10668:10734   */\n      tag_147\n      jump\t// in\n    tag_279:\n        /* \"#utility.yul\":10659:10734   */\n      swap1\n      pop\n        /* \"#utility.yul\":10757:10763   */\n      dup3\n        /* \"#utility.yul\":10750:10755   */\n      dup2\n        /* \"#utility.yul\":10743:10764   */\n      mstore\n        /* \"#utility.yul\":10795:10799   */\n      0x20\n        /* \"#utility.yul\":10788:10793   */\n      dup2\n        /* \"#utility.yul\":10784:10800   */\n      add\n        /* \"#utility.yul\":10833:10836   */\n      dup5\n        /* \"#utility.yul\":10824:10830   */\n      dup5\n        /* \"#utility.yul\":10819:10822   */\n      dup5\n        /* \"#utility.yul\":10815:10831   */\n      add\n        /* \"#utility.yul\":10812:10837   */\n      gt\n        /* \"#utility.yul\":10809:10921   */\n      iszero\n      tag_281\n      jumpi\n        /* \"#utility.yul\":10840:10919   */\n      tag_282\n      tag_145\n      jump\t// in\n    tag_282:\n        /* \"#utility.yul\":10809:10921   */\n    tag_281:\n        /* \"#utility.yul\":10930:10984   */\n      tag_283\n        /* \"#utility.yul\":10977:10983   */\n      dup5\n        /* \"#utility.yul\":10972:10975   */\n      dup3\n        /* \"#utility.yul\":10967:10970   */\n      dup6\n        /* \"#utility.yul\":10930:10984   */\n      tag_149\n      jump\t// in\n    tag_283:\n        /* \"#utility.yul\":10649:10990   */\n      pop\n        /* \"#utility.yul\":10565:10990   */\n      swap4\n      swap3\n      pop\n      pop\n      pop\n      jump\t// out\n        /* \"#utility.yul\":11010:11350   */\n    tag_151:\n        /* \"#utility.yul\":11066:11071   */\n      0x00\n        /* \"#utility.yul\":11115:11118   */\n      dup3\n        /* \"#utility.yul\":11108:11112   */\n      0x1f\n        /* \"#utility.yul\":11100:11106   */\n      dup4\n        /* \"#utility.yul\":11096:11113   */\n      add\n        /* \"#utility.yul\":11092:11119   */\n      slt\n        /* \"#utility.yul\":11082:11204   */\n      tag_285\n      jumpi\n        /* \"#utility.yul\":11123:11202   */\n      tag_286\n      tag_144\n      jump\t// in\n    tag_286:\n        /* \"#utility.yul\":11082:11204   */\n    tag_285:\n        /* \"#utility.yul\":11240:11246   */\n      dup2\n        /* \"#utility.yul\":11227:11247   */\n      calldataload\n        /* \"#utility.yul\":11265:11344   */\n      tag_287\n        /* \"#utility.yul\":11340:11343   */\n      dup5\n        /* \"#utility.yul\":11332:11338   */\n      dup3\n        /* \"#utility.yul\":11325:11329   */\n      0x20\n        /* \"#utility.yul\":11317:11323   */\n      dup7\n        /* \"#utility.yul\":11313:11330   */\n      add\n        /* \"#utility.yul\":11265:11344   */\n      tag_150\n      jump\t// in\n    tag_287:\n        /* \"#utility.yul\":11256:11344   */\n      swap2\n      pop\n        /* \"#utility.yul\":11072:11350   */\n      pop\n        /* \"#utility.yul\":11010:11350   */\n      swap3\n      swap2\n      pop\n      pop\n      jump\t// out\n        /* \"#utility.yul\":11356:11452   */\n    tag_152:\n        /* \"#utility.yul\":11393:11400   */\n      0x00\n        /* \"#utility.yul\":11422:11446   */\n      tag_289\n        /* \"#utility.yul\":11440:11445   */\n      dup3\n        /* \"#utility.yul\":11422:11446   */\n      tag_125\n      jump\t// in\n    tag_289:\n        /* \"#utility.yul\":11411:11446   */\n      swap1\n      pop\n        /* \"#utility.yul\":11356:11452   */\n      swap2\n      swap1\n      pop\n      jump\t// out\n        /* \"#utility.yul\":11458:11580   */\n    tag_153:\n        /* \"#utility.yul\":11531:11555   */\n      tag_291\n        /* \"#utility.yul\":11549:11554   */\n      dup2\n        /* \"#utility.yul\":11531:11555   */\n      tag_152\n      jump\t// in\n    tag_291:\n        /* \"#utility.yul\":11524:11529   */\n      dup2\n        /* \"#utility.yul\":11521:11556   */\n      eq\n        /* \"#utility.yul\":11511:11574   */\n      tag_292\n      jumpi\n        /* \"#utility.yul\":11570:11571   */\n      0x00\n        /* \"#utility.yul\":11567:11568   */\n      dup1\n        /* \"#utility.yul\":11560:11572   */\n      revert\n        /* \"#utility.yul\":11511:11574   */\n    tag_292:\n        /* \"#utility.yul\":11458:11580   */\n      pop\n      jump\t// out\n        /* \"#utility.yul\":11586:11725   */\n    tag_154:\n        /* \"#utility.yul\":11632:11637   */\n      0x00\n        /* \"#utility.yul\":11670:11676   */\n      dup2\n        /* \"#utility.yul\":11657:11677   */\n      calldataload\n        /* \"#utility.yul\":11648:11677   */\n      swap1\n      pop\n        /* \"#utility.yul\":11686:11719   */\n      tag_294\n        /* \"#utility.yul\":11713:11718   */\n      dup2\n        /* \"#utility.yul\":11686:11719   */\n      tag_153\n      jump\t// in\n    tag_294:\n        /* \"#utility.yul\":11586:11725   */\n      swap3\n      swap2\n      pop\n      pop\n      jump\t// out\n        /* \"#utility.yul\":11731:11847   */\n    tag_155:\n        /* \"#utility.yul\":11801:11822   */\n      tag_296\n        /* \"#utility.yul\":11816:11821   */\n      dup2\n        /* \"#utility.yul\":11801:11822   */\n      tag_128\n      jump\t// in\n    tag_296:\n        /* \"#utility.yul\":11794:11799   */\n      dup2\n        /* \"#utility.yul\":11791:11823   */\n      eq\n        /* \"#utility.yul\":11781:11841   */\n      tag_297\n      jumpi\n        /* \"#utility.yul\":11837:11838   */\n      0x00\n        /* \"#utility.yul\":11834:11835   */\n      dup1\n        /* \"#utility.yul\":11827:11839   */\n      revert\n        /* \"#utility.yul\":11781:11841   */\n    tag_297:\n        /* \"#utility.yul\":11731:11847   */\n      pop\n      jump\t// out\n        /* \"#utility.yul\":11853:11986   */\n    tag_156:\n        /* \"#utility.yul\":11896:11901   */\n      0x00\n        /* \"#utility.yul\":11934:11940   */\n      dup2\n        /* \"#utility.yul\":11921:11941   */\n      calldataload\n        /* \"#utility.yul\":11912:11941   */\n      swap1\n      pop\n        /* \"#utility.yul\":11950:11980   */\n      tag_299\n        /* \"#utility.yul\":11974:11979   */\n      dup2\n        /* \"#utility.yul\":11950:11980   */\n      tag_155\n      jump\t// in\n    tag_299:\n        /* \"#utility.yul\":11853:11986   */\n      swap3\n      swap2\n      pop\n      pop\n      jump\t// out\n        /* \"#utility.yul\":11992:13403   */\n    tag_28:\n        /* \"#utility.yul\":12113:12119   */\n      0x00\n        /* \"#utility.yul\":12121:12127   */\n      dup1\n        /* \"#utility.yul\":12129:12135   */\n      0x00\n        /* \"#utility.yul\":12137:12143   */\n      dup1\n        /* \"#utility.yul\":12145:12151   */\n      0x00\n        /* \"#utility.yul\":12153:12159   */\n      dup1\n        /* \"#utility.yul\":12202:12205   */\n      0xc0\n        /* \"#utility.yul\":12190:12199   */\n      dup8\n        /* \"#utility.yul\":12181:12188   */\n      dup10\n        /* \"#utility.yul\":12177:12200   */\n      sub\n        /* \"#utility.yul\":12173:12206   */\n      slt\n        /* \"#utility.yul\":12170:12290   */\n      iszero\n      tag_301\n      jumpi\n        /* \"#utility.yul\":12209:12288   */\n      tag_302\n      tag_135\n      jump\t// in\n    tag_302:\n        /* \"#utility.yul\":12170:12290   */\n    tag_301:\n        /* \"#utility.yul\":12329:12330   */\n      0x00\n        /* \"#utility.yul\":12354:12407   */\n      tag_303\n        /* \"#utility.yul\":12399:12406   */\n      dup10\n        /* \"#utility.yul\":12390:12396   */\n      dup3\n        /* \"#utility.yul\":12379:12388   */\n      dup11\n        /* \"#utility.yul\":12375:12397   */\n      add\n        /* \"#utility.yul\":12354:12407   */\n      tag_138\n      jump\t// in\n    tag_303:\n        /* \"#utility.yul\":12344:12407   */\n      swap7\n      pop\n        /* \"#utility.yul\":12300:12417   */\n      pop\n        /* \"#utility.yul\":12484:12486   */\n      0x20\n        /* \"#utility.yul\":12473:12482   */\n      dup8\n        /* \"#utility.yul\":12469:12487   */\n      add\n        /* \"#utility.yul\":12456:12488   */\n      calldataload\n        /* \"#utility.yul\":12515:12533   */\n      0xffffffffffffffff\n        /* \"#utility.yul\":12507:12513   */\n      dup2\n        /* \"#utility.yul\":12504:12534   */\n      gt\n        /* \"#utility.yul\":12501:12618   */\n      iszero\n      tag_304\n      jumpi\n        /* \"#utility.yul\":12537:12616   */\n      tag_305\n      tag_136\n      jump\t// in\n    tag_305:\n        /* \"#utility.yul\":12501:12618   */\n    tag_304:\n        /* \"#utility.yul\":12642:12705   */\n      tag_306\n        /* \"#utility.yul\":12697:12704   */\n      dup10\n        /* \"#utility.yul\":12688:12694   */\n      dup3\n        /* \"#utility.yul\":12677:12686   */\n      dup11\n        /* \"#utility.yul\":12673:12695   */\n      add\n        /* \"#utility.yul\":12642:12705   */\n      tag_151\n      jump\t// in\n    tag_306:\n        /* \"#utility.yul\":12632:12705   */\n      swap6\n      pop\n        /* \"#utility.yul\":12427:12715   */\n      pop\n        /* \"#utility.yul\":12754:12756   */\n      0x40\n        /* \"#utility.yul\":12780:12833   */\n      tag_307\n        /* \"#utility.yul\":12825:12832   */\n      dup10\n        /* \"#utility.yul\":12816:12822   */\n      dup3\n        /* \"#utility.yul\":12805:12814   */\n      dup11\n        /* \"#utility.yul\":12801:12823   */\n      add\n        /* \"#utility.yul\":12780:12833   */\n      tag_138\n      jump\t// in\n    tag_307:\n        /* \"#utility.yul\":12770:12833   */\n      swap5\n      pop\n        /* \"#utility.yul\":12725:12843   */\n      pop\n        /* \"#utility.yul\":12910:12912   */\n      0x60\n        /* \"#utility.yul\":12899:12908   */\n      dup8\n        /* \"#utility.yul\":12895:12913   */\n      add\n        /* \"#utility.yul\":12882:12914   */\n      calldataload\n        /* \"#utility.yul\":12941:12959   */\n      0xffffffffffffffff\n        /* \"#utility.yul\":12933:12939   */\n      dup2\n        /* \"#utility.yul\":12930:12960   */\n      gt\n        /* \"#utility.yul\":12927:13044   */\n      iszero\n      tag_308\n      jumpi\n        /* \"#utility.yul\":12963:13042   */\n      tag_309\n      tag_136\n      jump\t// in\n    tag_309:\n        /* \"#utility.yul\":12927:13044   */\n    tag_308:\n        /* \"#utility.yul\":13068:13131   */\n      tag_310\n        /* \"#utility.yul\":13123:13130   */\n      dup10\n        /* \"#utility.yul\":13114:13120   */\n      dup3\n        /* \"#utility.yul\":13103:13112   */\n      dup11\n        /* \"#utility.yul\":13099:13121   */\n      add\n        /* \"#utility.yul\":13068:13131   */\n      tag_151\n      jump\t// in\n    tag_310:\n        /* \"#utility.yul\":13058:13131   */\n      swap4\n      pop\n        /* \"#utility.yul\":12853:13141   */\n      pop\n        /* \"#utility.yul\":13180:13183   */\n      0x80\n        /* \"#utility.yul\":13207:13260   */\n      tag_311\n        /* \"#utility.yul\":13252:13259   */\n      dup10\n        /* \"#utility.yul\":13243:13249   */\n      dup3\n        /* \"#utility.yul\":13232:13241   */\n      dup11\n        /* \"#utility.yul\":13228:13250   */\n      add\n        /* \"#utility.yul\":13207:13260   */\n      tag_154\n      jump\t// in\n    tag_311:\n        /* \"#utility.yul\":13197:13260   */\n      swap3\n      pop\n        /* \"#utility.yul\":13151:13270   */\n      pop\n        /* \"#utility.yul\":13309:13312   */\n      0xa0\n        /* \"#utility.yul\":13336:13386   */\n      tag_312\n        /* \"#utility.yul\":13378:13385   */\n      dup10\n        /* \"#utility.yul\":13369:13375   */\n      dup3\n        /* \"#utility.yul\":13358:13367   */\n      dup11\n        /* \"#utility.yul\":13354:13376   */\n      add\n        /* \"#utility.yul\":13336:13386   */\n      tag_156\n      jump\t// in\n    tag_312:\n        /* \"#utility.yul\":13326:13386   */\n      swap2\n      pop\n        /* \"#utility.yul\":13280:13396   */\n      pop\n        /* \"#utility.yul\":11992:13403   */\n      swap3\n      swap6\n      pop\n      swap3\n      swap6\n      pop\n      swap3\n      swap6\n      jump\t// out\n        /* \"#utility.yul\":13409:13883   */\n    tag_32:\n        /* \"#utility.yul\":13477:13483   */\n      0x00\n        /* \"#utility.yul\":13485:13491   */\n      dup1\n        /* \"#utility.yul\":13534:13536   */\n      0x40\n        /* \"#utility.yul\":13522:13531   */\n      dup4\n        /* \"#utility.yul\":13513:13520   */\n      dup6\n        /* \"#utility.yul\":13509:13532   */\n      sub\n        /* \"#utility.yul\":13505:13537   */\n      slt\n        /* \"#utility.yul\":13502:13621   */\n      iszero\n      tag_314\n      jumpi\n        /* \"#utility.yul\":13540:13619   */\n      tag_315\n      tag_135\n      jump\t// in\n    tag_315:\n        /* \"#utility.yul\":13502:13621   */\n    tag_314:\n        /* \"#utility.yul\":13660:13661   */\n      0x00\n        /* \"#utility.yul\":13685:13738   */\n      tag_316\n        /* \"#utility.yul\":13730:13737   */\n      dup6\n        /* \"#utility.yul\":13721:13727   */\n      dup3\n        /* \"#utility.yul\":13710:13719   */\n      dup7\n        /* \"#utility.yul\":13706:13728   */\n      add\n        /* \"#utility.yul\":13685:13738   */\n      tag_138\n      jump\t// in\n    tag_316:\n        /* \"#utility.yul\":13675:13738   */\n      swap3\n      pop\n        /* \"#utility.yul\":13631:13748   */\n      pop\n        /* \"#utility.yul\":13787:13789   */\n      0x20\n        /* \"#utility.yul\":13813:13866   */\n      tag_317\n        /* \"#utility.yul\":13858:13865   */\n      dup6\n        /* \"#utility.yul\":13849:13855   */\n      dup3\n        /* \"#utility.yul\":13838:13847   */\n      dup7\n        /* \"#utility.yul\":13834:13856   */\n      add\n        /* \"#utility.yul\":13813:13866   */\n      tag_138\n      jump\t// in\n    tag_317:\n        /* \"#utility.yul\":13803:13866   */\n      swap2\n      pop\n        /* \"#utility.yul\":13758:13876   */\n      pop\n        /* \"#utility.yul\":13409:13883   */\n      swap3\n      pop\n      swap3\n      swap1\n      pop\n      jump\t// out\n        /* \"#utility.yul\":13889:14069   */\n    tag_47:\n        /* \"#utility.yul\":13937:14014   */\n      0x4e487b7100000000000000000000000000000000000000000000000000000000\n        /* \"#utility.yul\":13934:13935   */\n      0x00\n        /* \"#utility.yul\":13927:14015   */\n      mstore\n        /* \"#utility.yul\":14034:14038   */\n      0x32\n        /* \"#utility.yul\":14031:14032   */\n      0x04\n        /* \"#utility.yul\":14024:14039   */\n      mstore\n        /* \"#utility.yul\":14058:14062   */\n      0x24\n        /* \"#utility.yul\":14055:14056   */\n      0x00\n        /* \"#utility.yul\":14048:14063   */\n      revert\n        /* \"#utility.yul\":14075:14255   */\n    tag_157:\n        /* \"#utility.yul\":14123:14200   */\n      0x4e487b7100000000000000000000000000000000000000000000000000000000\n        /* \"#utility.yul\":14120:14121   */\n      0x00\n        /* \"#utility.yul\":14113:14201   */\n      mstore\n        /* \"#utility.yul\":14220:14224   */\n      0x22\n        /* \"#utility.yul\":14217:14218   */\n      0x04\n        /* \"#utility.yul\":14210:14225   */\n      mstore\n        /* \"#utility.yul\":14244:14248   */\n      0x24\n        /* \"#utility.yul\":14241:14242   */\n      0x00\n        /* \"#utility.yul\":14234:14249   */\n      revert\n        /* \"#utility.yul\":14261:14581   */\n    tag_50:\n        /* \"#utility.yul\":14305:14311   */\n      0x00\n        /* \"#utility.yul\":14342:14343   */\n      0x02\n        /* \"#utility.yul\":14336:14340   */\n      dup3\n        /* \"#utility.yul\":14332:14344   */\n      div\n        /* \"#utility.yul\":14322:14344   */\n      swap1\n      pop\n        /* \"#utility.yul\":14389:14390   */\n      0x01\n        /* \"#utility.yul\":14383:14387   */\n      dup3\n        /* \"#utility.yul\":14379:14391   */\n      and\n        /* \"#utility.yul\":14410:14428   */\n      dup1\n        /* \"#utility.yul\":14400:14481   */\n      tag_321\n      jumpi\n        /* \"#utility.yul\":14466:14470   */\n      0x7f\n        /* \"#utility.yul\":14458:14464   */\n      dup3\n        /* \"#utility.yul\":14454:14471   */\n      and\n        /* \"#utility.yul\":14444:14471   */\n      swap2\n      pop\n        /* \"#utility.yul\":14400:14481   */\n    tag_321:\n        /* \"#utility.yul\":14528:14530   */\n      0x20\n        /* \"#utility.yul\":14520:14526   */\n      dup3\n        /* \"#utility.yul\":14517:14531   */\n      lt\n        /* \"#utility.yul\":14497:14515   */\n      dup2\n        /* \"#utility.yul\":14494:14532   */\n      sub\n        /* \"#utility.yul\":14491:14575   */\n      tag_322\n      jumpi\n        /* \"#utility.yul\":14547:14565   */\n      tag_323\n      tag_157\n      jump\t// in\n    tag_323:\n        /* \"#utility.yul\":14491:14575   */\n    tag_322:\n        /* \"#utility.yul\":14312:14581   */\n      pop\n        /* \"#utility.yul\":14261:14581   */\n      swap2\n      swap1\n      pop\n      jump\t// out\n        /* \"#utility.yul\":14587:14811   */\n    tag_158:\n        /* \"#utility.yul\":14727:14761   */\n      0x4f6e6c7920546865204167656e6379204f776e65722043616e20416464206361\n        /* \"#utility.yul\":14723:14724   */\n      0x00\n        /* \"#utility.yul\":14715:14721   */\n      dup3\n        /* \"#utility.yul\":14711:14725   */\n      add\n        /* \"#utility.yul\":14704:14762   */\n      mstore\n        /* \"#utility.yul\":14796:14803   */\n      0x7273212121000000000000000000000000000000000000000000000000000000\n        /* \"#utility.yul\":14791:14793   */\n      0x20\n        /* \"#utility.yul\":14783:14789   */\n      dup3\n        /* \"#utility.yul\":14779:14794   */\n      add\n        /* \"#utility.yul\":14772:14804   */\n      mstore\n        /* \"#utility.yul\":14587:14811   */\n      pop\n      jump\t// out\n        /* \"#utility.yul\":14817:15183   */\n    tag_159:\n        /* \"#utility.yul\":14959:14962   */\n      0x00\n        /* \"#utility.yul\":14980:15047   */\n      tag_326\n        /* \"#utility.yul\":15044:15046   */\n      0x25\n        /* \"#utility.yul\":15039:15042   */\n      dup4\n        /* \"#utility.yul\":14980:15047   */\n      tag_140\n      jump\t// in\n    tag_326:\n        /* \"#utility.yul\":14973:15047   */\n      swap2\n      pop\n        /* \"#utility.yul\":15056:15149   */\n      tag_327\n        /* \"#utility.yul\":15145:15148   */\n      dup3\n        /* \"#utility.yul\":15056:15149   */\n      tag_158\n      jump\t// in\n    tag_327:\n        /* \"#utility.yul\":15174:15176   */\n      0x40\n        /* \"#utility.yul\":15169:15172   */\n      dup3\n        /* \"#utility.yul\":15165:15177   */\n      add\n        /* \"#utility.yul\":15158:15177   */\n      swap1\n      pop\n        /* \"#utility.yul\":14817:15183   */\n      swap2\n      swap1\n      pop\n      jump\t// out\n        /* \"#utility.yul\":15189:15608   */\n    tag_77:\n        /* \"#utility.yul\":15355:15359   */\n      0x00\n        /* \"#utility.yul\":15393:15395   */\n      0x20\n        /* \"#utility.yul\":15382:15391   */\n      dup3\n        /* \"#utility.yul\":15378:15396   */\n      add\n        /* \"#utility.yul\":15370:15396   */\n      swap1\n      pop\n        /* \"#utility.yul\":15442:15451   */\n      dup2\n        /* \"#utility.yul\":15436:15440   */\n      dup2\n        /* \"#utility.yul\":15432:15452   */\n      sub\n        /* \"#utility.yul\":15428:15429   */\n      0x00\n        /* \"#utility.yul\":15417:15426   */\n      dup4\n        /* \"#utility.yul\":15413:15430   */\n      add\n        /* \"#utility.yul\":15406:15453   */\n      mstore\n        /* \"#utility.yul\":15470:15601   */\n      tag_329\n        /* \"#utility.yul\":15596:15600   */\n      dup2\n        /* \"#utility.yul\":15470:15601   */\n      tag_159\n      jump\t// in\n    tag_329:\n        /* \"#utility.yul\":15462:15601   */\n      swap1\n      pop\n        /* \"#utility.yul\":15189:15608   */\n      swap2\n      swap1\n      pop\n      jump\t// out\n        /* \"#utility.yul\":15614:15755   */\n    tag_160:\n        /* \"#utility.yul\":15663:15667   */\n      0x00\n        /* \"#utility.yul\":15686:15689   */\n      dup2\n        /* \"#utility.yul\":15678:15689   */\n      swap1\n      pop\n        /* \"#utility.yul\":15709:15712   */\n      dup2\n        /* \"#utility.yul\":15706:15707   */\n      0x00\n        /* \"#utility.yul\":15699:15713   */\n      mstore\n        /* \"#utility.yul\":15743:15747   */\n      0x20\n        /* \"#utility.yul\":15740:15741   */\n      0x00\n        /* \"#utility.yul\":15730:15748   */\n      keccak256\n        /* \"#utility.yul\":15722:15748   */\n      swap1\n      pop\n        /* \"#utility.yul\":15614:15755   */\n      swap2\n      swap1\n      pop\n      jump\t// out\n        /* \"#utility.yul\":15761:15854   */\n    tag_161:\n        /* \"#utility.yul\":15798:15804   */\n      0x00\n        /* \"#utility.yul\":15845:15847   */\n      0x20\n        /* \"#utility.yul\":15840:15842   */\n      0x1f\n        /* \"#utility.yul\":15833:15838   */\n      dup4\n        /* \"#utility.yul\":15829:15843   */\n      add\n        /* \"#utility.yul\":15825:15848   */\n      div\n        /* \"#utility.yul\":15815:15848   */\n      swap1\n      pop\n        /* \"#utility.yul\":15761:15854   */\n      swap2\n      swap1\n      pop\n      jump\t// out\n        /* \"#utility.yul\":15860:15967   */\n    tag_162:\n        /* \"#utility.yul\":15904:15912   */\n      0x00\n        /* \"#utility.yul\":15954:15959   */\n      dup3\n        /* \"#utility.yul\":15948:15952   */\n      dup3\n        /* \"#utility.yul\":15944:15960   */\n      shl\n        /* \"#utility.yul\":15923:15960   */\n      swap1\n      pop\n        /* \"#utility.yul\":15860:15967   */\n      swap3\n      swap2\n      pop\n      pop\n      jump\t// out\n        /* \"#utility.yul\":15973:16366   */\n    tag_163:\n        /* \"#utility.yul\":16042:16048   */\n      0x00\n        /* \"#utility.yul\":16092:16093   */\n      0x08\n        /* \"#utility.yul\":16080:16090   */\n      dup4\n        /* \"#utility.yul\":16076:16094   */\n      mul\n        /* \"#utility.yul\":16115:16212   */\n      tag_334\n        /* \"#utility.yul\":16145:16211   */\n      0xffffffffffffffffffffffffffffffffffffffffffffffffffffffffffffffff\n        /* \"#utility.yul\":16134:16143   */\n      dup3\n        /* \"#utility.yul\":16115:16212   */\n      tag_162\n      jump\t// in\n    tag_334:\n        /* \"#utility.yul\":16233:16272   */\n      tag_335\n        /* \"#utility.yul\":16263:16271   */\n      dup7\n        /* \"#utility.yul\":16252:16261   */\n      dup4\n        /* \"#utility.yul\":16233:16272   */\n      tag_162\n      jump\t// in\n    tag_335:\n        /* \"#utility.yul\":16221:16272   */\n      swap6\n      pop\n        /* \"#utility.yul\":16305:16309   */\n      dup1\n        /* \"#utility.yul\":16301:16310   */\n      not\n        /* \"#utility.yul\":16294:16299   */\n      dup5\n        /* \"#utility.yul\":16290:16311   */\n      and\n        /* \"#utility.yul\":16281:16311   */\n      swap4\n      pop\n        /* \"#utility.yul\":16354:16358   */\n      dup1\n        /* \"#utility.yul\":16344:16352   */\n      dup7\n        /* \"#utility.yul\":16340:16359   */\n      and\n        /* \"#utility.yul\":16333:16338   */\n      dup5\n        /* \"#utility.yul\":16330:16360   */\n      or\n        /* \"#utility.yul\":16320:16360   */\n      swap3\n      pop\n        /* \"#utility.yul\":16049:16366   */\n      pop\n      pop\n        /* \"#utility.yul\":15973:16366   */\n      swap4\n      swap3\n      pop\n      pop\n      pop\n      jump\t// out\n        /* \"#utility.yul\":16372:16432   */\n    tag_164:\n        /* \"#utility.yul\":16400:16403   */\n      0x00\n        /* \"#utility.yul\":16421:16426   */\n      dup2\n        /* \"#utility.yul\":16414:16426   */\n      swap1\n      pop\n        /* \"#utility.yul\":16372:16432   */\n      swap2\n      swap1\n      pop\n      jump\t// out\n        /* \"#utility.yul\":16438:16580   */\n    tag_165:\n        /* \"#utility.yul\":16488:16497   */\n      0x00\n        /* \"#utility.yul\":16521:16574   */\n      tag_338\n        /* \"#utility.yul\":16539:16573   */\n      tag_339\n        /* \"#utility.yul\":16548:16572   */\n      tag_340\n        /* \"#utility.yul\":16566:16571   */\n      dup5\n        /* \"#utility.yul\":16548:16572   */\n      tag_118\n      jump\t// in\n    tag_340:\n        /* \"#utility.yul\":16539:16573   */\n      tag_164\n      jump\t// in\n    tag_339:\n        /* \"#utility.yul\":16521:16574   */\n      tag_118\n      jump\t// in\n    tag_338:\n        /* \"#utility.yul\":16508:16574   */\n      swap1\n      pop\n        /* \"#utility.yul\":16438:16580   */\n      swap2\n      swap1\n      pop\n      jump\t// out\n        /* \"#utility.yul\":16586:16661   */\n    tag_166:\n        /* \"#utility.yul\":16629:16632   */\n      0x00\n        /* \"#utility.yul\":16650:16655   */\n      dup2\n        /* \"#utility.yul\":16643:16655   */\n      swap1\n      pop\n        /* \"#utility.yul\":16586:16661   */\n      swap2\n      swap1\n      pop\n      jump\t// out\n        /* \"#utility.yul\":16667:16936   */\n    tag_167:\n        /* \"#utility.yul\":16777:16816   */\n      tag_343\n        /* \"#utility.yul\":16808:16815   */\n      dup4\n        /* \"#utility.yul\":16777:16816   */\n      tag_165\n      jump\t// in\n    tag_343:\n        /* \"#utility.yul\":16838:16929   */\n      tag_344\n        /* \"#utility.yul\":16887:16928   */\n      tag_345\n        /* \"#utility.yul\":16911:16927   */\n      dup3\n        /* \"#utility.yul\":16887:16928   */\n      tag_166\n      jump\t// in\n    tag_345:\n        /* \"#utility.yul\":16879:16885   */\n      dup5\n        /* \"#utility.yul\":16872:16876   */\n      dup5\n        /* \"#utility.yul\":16866:16877   */\n      sload\n        /* \"#utility.yul\":16838:16929   */\n      tag_163\n      jump\t// in\n    tag_344:\n        /* \"#utility.yul\":16832:16836   */\n      dup3\n        /* \"#utility.yul\":16825:16930   */\n      sstore\n        /* \"#utility.yul\":16743:16936   */\n      pop\n        /* \"#utility.yul\":16667:16936   */\n      pop\n      pop\n      pop\n      jump\t// out\n        /* \"#utility.yul\":16942:17015   */\n    tag_168:\n        /* \"#utility.yul\":16987:16990   */\n      0x00\n        /* \"#utility.yul\":16942:17015   */\n      swap1\n      jump\t// out\n        /* \"#utility.yul\":17021:17210   */\n    tag_169:\n        /* \"#utility.yul\":17098:17130   */\n      tag_348\n      tag_168\n      jump\t// in\n    tag_348:\n        /* \"#utility.yul\":17139:17204   */\n      tag_349\n        /* \"#utility.yul\":17197:17203   */\n      dup2\n        /* \"#utility.yul\":17189:17195   */\n      dup5\n        /* \"#utility.yul\":17183:17187   */\n      dup5\n        /* \"#utility.yul\":17139:17204   */\n      tag_167\n      jump\t// in\n    tag_349:\n        /* \"#utility.yul\":17074:17210   */\n      pop\n        /* \"#utility.yul\":17021:17210   */\n      pop\n      pop\n      jump\t// out\n        /* \"#utility.yul\":17216:17402   */\n    tag_170:\n        /* \"#utility.yul\":17276:17396   */\n    tag_351:\n        /* \"#utility.yul\":17293:17296   */\n      dup2\n        /* \"#utility.yul\":17286:17291   */\n      dup2\n        /* \"#utility.yul\":17283:17297   */\n      lt\n        /* \"#utility.yul\":17276:17396   */\n      iszero\n      tag_353\n      jumpi\n        /* \"#utility.yul\":17347:17386   */\n      tag_354\n        /* \"#utility.yul\":17384:17385   */\n      0x00\n        /* \"#utility.yul\":17377:17382   */\n      dup3\n        /* \"#utility.yul\":17347:17386   */\n      tag_169\n      jump\t// in\n    tag_354:\n        /* \"#utility.yul\":17320:17321   */\n      0x01\n        /* \"#utility.yul\":17313:17318   */\n      dup2\n        /* \"#utility.yul\":17309:17322   */\n      add\n        /* \"#utility.yul\":17300:17322   */\n      swap1\n      pop\n        /* \"#utility.yul\":17276:17396   */\n      jump(tag_351)\n    tag_353:\n        /* \"#utility.yul\":17216:17402   */\n      pop\n      pop\n      jump\t// out\n        /* \"#utility.yul\":17408:17951   */\n    tag_171:\n        /* \"#utility.yul\":17509:17511   */\n      0x1f\n        /* \"#utility.yul\":17504:17507   */\n      dup3\n        /* \"#utility.yul\":17501:17512   */\n      gt\n        /* \"#utility.yul\":17498:17944   */\n      iszero\n      tag_356\n      jumpi\n        /* \"#utility.yul\":17543:17581   */\n      tag_357\n        /* \"#utility.yul\":17575:17580   */\n      dup2\n        /* \"#utility.yul\":17543:17581   */\n      tag_160\n      jump\t// in\n    tag_357:\n        /* \"#utility.yul\":17627:17656   */\n      tag_358\n        /* \"#utility.yul\":17645:17655   */\n      dup5\n        /* \"#utility.yul\":17627:17656   */\n      tag_161\n      jump\t// in\n    tag_358:\n        /* \"#utility.yul\":17617:17625   */\n      dup2\n        /* \"#utility.yul\":17613:17657   */\n      add\n        /* \"#utility.yul\":17810:17812   */\n      0x20\n        /* \"#utility.yul\":17798:17808   */\n      dup6\n        /* \"#utility.yul\":17795:17813   */\n      lt\n        /* \"#utility.yul\":17792:17841   */\n      iszero\n      tag_359\n      jumpi\n        /* \"#utility.yul\":17831:17839   */\n      dup2\n        /* \"#utility.yul\":17816:17839   */\n      swap1\n      pop\n        /* \"#utility.yul\":17792:17841   */\n    tag_359:\n        /* \"#utility.yul\":17854:17934   */\n      tag_360\n        /* \"#utility.yul\":17910:17932   */\n      tag_361\n        /* \"#utility.yul\":17928:17931   */\n      dup6\n        /* \"#utility.yul\":17910:17932   */\n      tag_161\n      jump\t// in\n    tag_361:\n        /* \"#utility.yul\":17900:17908   */\n      dup4\n        /* \"#utility.yul\":17896:17933   */\n      add\n        /* \"#utility.yul\":17883:17894   */\n      dup3\n        /* \"#utility.yul\":17854:17934   */\n      tag_170\n      jump\t// in\n    tag_360:\n        /* \"#utility.yul\":17513:17944   */\n      pop\n      pop\n        /* \"#utility.yul\":17498:17944   */\n    tag_356:\n        /* \"#utility.yul\":17408:17951   */\n      pop\n      pop\n      pop\n      jump\t// out\n        /* \"#utility.yul\":17957:18074   */\n    tag_172:\n        /* \"#utility.yul\":18011:18019   */\n      0x00\n        /* \"#utility.yul\":18061:18066   */\n      dup3\n        /* \"#utility.yul\":18055:18059   */\n      dup3\n        /* \"#utility.yul\":18051:18067   */\n      shr\n        /* \"#utility.yul\":18030:18067   */\n      swap1\n      pop\n        /* \"#utility.yul\":17957:18074   */\n      swap3\n      swap2\n      pop\n      pop\n      jump\t// out\n        /* \"#utility.yul\":18080:18249   */\n    tag_173:\n        /* \"#utility.yul\":18124:18130   */\n      0x00\n        /* \"#utility.yul\":18157:18208   */\n      tag_364\n        /* \"#utility.yul\":18205:18206   */\n      0x00\n        /* \"#utility.yul\":18201:18207   */\n      not\n        /* \"#utility.yul\":18193:18198   */\n      dup5\n        /* \"#utility.yul\":18190:18191   */\n      0x08\n        /* \"#utility.yul\":18186:18199   */\n      mul\n        /* \"#utility.yul\":18157:18208   */\n      tag_172\n      jump\t// in\n    tag_364:\n        /* \"#utility.yul\":18153:18209   */\n      not\n        /* \"#utility.yul\":18238:18242   */\n      dup1\n        /* \"#utility.yul\":18232:18236   */\n      dup4\n        /* \"#utility.yul\":18228:18243   */\n      and\n        /* \"#utility.yul\":18218:18243   */\n      swap2\n      pop\n        /* \"#utility.yul\":18131:18249   */\n      pop\n        /* \"#utility.yul\":18080:18249   */\n      swap3\n      swap2\n      pop\n      pop\n      jump\t// out\n        /* \"#utility.yul\":18254:18549   */\n    tag_174:\n        /* \"#utility.yul\":18330:18334   */\n      0x00\n        /* \"#utility.yul\":18476:18505   */\n      tag_366\n        /* \"#utility.yul\":18501:18504   */\n      dup4\n        /* \"#utility.yul\":18495:18499   */\n      dup4\n        /* \"#utility.yul\":18476:18505   */\n      tag_173\n      jump\t// in\n    tag_366:\n        /* \"#utility.yul\":18468:18505   */\n      swap2\n      pop\n        /* \"#utility.yul\":18538:18541   */\n      dup3\n        /* \"#utility.yul\":18535:18536   */\n      0x02\n        /* \"#utility.yul\":18531:18542   */\n      mul\n        /* \"#utility.yul\":18525:18529   */\n      dup3\n        /* \"#utility.yul\":18522:18543   */\n      or\n        /* \"#utility.yul\":18514:18543   */\n      swap1\n      pop\n        /* \"#utility.yul\":18254:18549   */\n      swap3\n      swap2\n      pop\n      pop\n      jump\t// out\n        /* \"#utility.yul\":18554:19949   */\n    tag_85:\n        /* \"#utility.yul\":18671:18708   */\n      tag_368\n        /* \"#utility.yul\":18704:18707   */\n      dup3\n        /* \"#utility.yul\":18671:18708   */\n      tag_120\n      jump\t// in\n    tag_368:\n        /* \"#utility.yul\":18773:18791   */\n      0xffffffffffffffff\n        /* \"#utility.yul\":18765:18771   */\n      dup2\n        /* \"#utility.yul\":18762:18792   */\n      gt\n        /* \"#utility.yul\":18759:18815   */\n      iszero\n      tag_369\n      jumpi\n        /* \"#utility.yul\":18795:18813   */\n      tag_370\n      tag_37\n      jump\t// in\n    tag_370:\n        /* \"#utility.yul\":18759:18815   */\n    tag_369:\n        /* \"#utility.yul\":18839:18877   */\n      tag_371\n        /* \"#utility.yul\":18871:18875   */\n      dup3\n        /* \"#utility.yul\":18865:18876   */\n      sload\n        /* \"#utility.yul\":18839:18877   */\n      tag_50\n      jump\t// in\n    tag_371:\n        /* \"#utility.yul\":18924:18991   */\n      tag_372\n        /* \"#utility.yul\":18984:18990   */\n      dup3\n        /* \"#utility.yul\":18976:18982   */\n      dup3\n        /* \"#utility.yul\":18970:18974   */\n      dup6\n        /* \"#utility.yul\":18924:18991   */\n      tag_171\n      jump\t// in\n    tag_372:\n        /* \"#utility.yul\":19018:19019   */\n      0x00\n        /* \"#utility.yul\":19042:19046   */\n      0x20\n        /* \"#utility.yul\":19029:19046   */\n      swap1\n      pop\n        /* \"#utility.yul\":19074:19076   */\n      0x1f\n        /* \"#utility.yul\":19066:19072   */\n      dup4\n        /* \"#utility.yul\":19063:19077   */\n      gt\n        /* \"#utility.yul\":19091:19092   */\n      0x01\n        /* \"#utility.yul\":19086:19704   */\n      dup2\n      eq\n      tag_374\n      jumpi\n        /* \"#utility.yul\":19748:19749   */\n      0x00\n        /* \"#utility.yul\":19765:19771   */\n      dup5\n        /* \"#utility.yul\":19762:19839   */\n      iszero\n      tag_375\n      jumpi\n        /* \"#utility.yul\":19814:19823   */\n      dup3\n        /* \"#utility.yul\":19809:19812   */\n      dup8\n        /* \"#utility.yul\":19805:19824   */\n      add\n        /* \"#utility.yul\":19799:19825   */\n      mload\n        /* \"#utility.yul\":19790:19825   */\n      swap1\n      pop\n        /* \"#utility.yul\":19762:19839   */\n    tag_375:\n        /* \"#utility.yul\":19865:19932   */\n      tag_376\n        /* \"#utility.yul\":19925:19931   */\n      dup6\n        /* \"#utility.yul\":19918:19923   */\n      dup3\n        /* \"#utility.yul\":19865:19932   */\n      tag_174\n      jump\t// in\n    tag_376:\n        /* \"#utility.yul\":19859:19863   */\n      dup7\n        /* \"#utility.yul\":19852:19933   */\n      sstore\n        /* \"#utility.yul\":19721:19943   */\n      pop\n        /* \"#utility.yul\":19056:19943   */\n      jump(tag_373)\n        /* \"#utility.yul\":19086:19704   */\n    tag_374:\n        /* \"#utility.yul\":19138:19142   */\n      0x1f\n        /* \"#utility.yul\":19134:19143   */\n      not\n        /* \"#utility.yul\":19126:19132   */\n      dup5\n        /* \"#utility.yul\":19122:19144   */\n      and\n        /* \"#utility.yul\":19172:19209   */\n      tag_377\n        /* \"#utility.yul\":19204:19208   */\n      dup7\n        /* \"#utility.yul\":19172:19209   */\n      tag_160\n      jump\t// in\n    tag_377:\n        /* \"#utility.yul\":19231:19232   */\n      0x00\n        /* \"#utility.yul\":19245:19453   */\n    tag_378:\n        /* \"#utility.yul\":19259:19266   */\n      dup3\n        /* \"#utility.yul\":19256:19257   */\n      dup2\n        /* \"#utility.yul\":19253:19267   */\n      lt\n        /* \"#utility.yul\":19245:19453   */\n      iszero\n      tag_380\n      jumpi\n        /* \"#utility.yul\":19338:19347   */\n      dup5\n        /* \"#utility.yul\":19333:19336   */\n      dup10\n        /* \"#utility.yul\":19329:19348   */\n      add\n        /* \"#utility.yul\":19323:19349   */\n      mload\n        /* \"#utility.yul\":19315:19321   */\n      dup3\n        /* \"#utility.yul\":19308:19350   */\n      sstore\n        /* \"#utility.yul\":19389:19390   */\n      0x01\n        /* \"#utility.yul\":19381:19387   */\n      dup3\n        /* \"#utility.yul\":19377:19391   */\n      add\n        /* \"#utility.yul\":19367:19391   */\n      swap2\n      pop\n        /* \"#utility.yul\":19436:19438   */\n      0x20\n        /* \"#utility.yul\":19425:19434   */\n      dup6\n        /* \"#utility.yul\":19421:19439   */\n      add\n        /* \"#utility.yul\":19408:19439   */\n      swap5\n      pop\n        /* \"#utility.yul\":19282:19286   */\n      0x20\n        /* \"#utility.yul\":19279:19280   */\n      dup2\n        /* \"#utility.yul\":19275:19287   */\n      add\n        /* \"#utility.yul\":19270:19287   */\n      swap1\n      pop\n        /* \"#utility.yul\":19245:19453   */\n      jump(tag_378)\n    tag_380:\n        /* \"#utility.yul\":19481:19487   */\n      dup7\n        /* \"#utility.yul\":19472:19479   */\n      dup4\n        /* \"#utility.yul\":19469:19488   */\n      lt\n        /* \"#utility.yul\":19466:19645   */\n      iszero\n      tag_381\n      jumpi\n        /* \"#utility.yul\":19539:19548   */\n      dup5\n        /* \"#utility.yul\":19534:19537   */\n      dup10\n        /* \"#utility.yul\":19530:19549   */\n      add\n        /* \"#utility.yul\":19524:19550   */\n      mload\n        /* \"#utility.yul\":19582:19630   */\n      tag_382\n        /* \"#utility.yul\":19624:19628   */\n      0x1f\n        /* \"#utility.yul\":19616:19622   */\n      dup10\n        /* \"#utility.yul\":19612:19629   */\n      and\n        /* \"#utility.yul\":19601:19610   */\n      dup3\n        /* \"#utility.yul\":19582:19630   */\n      tag_173\n      jump\t// in\n    tag_382:\n        /* \"#utility.yul\":19574:19580   */\n      dup4\n        /* \"#utility.yul\":19567:19631   */\n      sstore\n        /* \"#utility.yul\":19489:19645   */\n      pop\n        /* \"#utility.yul\":19466:19645   */\n    tag_381:\n        /* \"#utility.yul\":19691:19692   */\n      0x01\n        /* \"#utility.yul\":19687:19688   */\n      0x02\n        /* \"#utility.yul\":19679:19685   */\n      dup9\n        /* \"#utility.yul\":19675:19689   */\n      mul\n        /* \"#utility.yul\":19671:19693   */\n      add\n        /* \"#utility.yul\":19665:19669   */\n      dup9\n        /* \"#utility.yul\":19658:19694   */\n      sstore\n        /* \"#utility.yul\":19093:19704   */\n      pop\n      pop\n      pop\n        /* \"#utility.yul\":19056:19943   */\n    tag_373:\n      pop\n        /* \"#utility.yul\":18646:19949   */\n      pop\n      pop\n      pop\n        /* \"#utility.yul\":18554:19949   */\n      pop\n      pop\n      jump\t// out\n        /* \"#utility.yul\":19955:20073   */\n    tag_175:\n        /* \"#utility.yul\":20042:20066   */\n      tag_384\n        /* \"#utility.yul\":20060:20065   */\n      dup2\n        /* \"#utility.yul\":20042:20066   */\n      tag_152\n      jump\t// in\n    tag_384:\n        /* \"#utility.yul\":20037:20040   */\n      dup3\n        /* \"#utility.yul\":20030:20067   */\n      mstore\n        /* \"#utility.yul\":19955:20073   */\n      pop\n      pop\n      jump\t// out\n        /* \"#utility.yul\":20079:21135   */\n    tag_91:\n        /* \"#utility.yul\":20374:20378   */\n      0x00\n        /* \"#utility.yul\":20412:20415   */\n      0xe0\n        /* \"#utility.yul\":20401:20410   */\n      dup3\n        /* \"#utility.yul\":20397:20416   */\n      add\n        /* \"#utility.yul\":20389:20416   */\n      swap1\n      pop\n        /* \"#utility.yul\":20426:20497   */\n      tag_386\n        /* \"#utility.yul\":20494:20495   */\n      0x00\n        /* \"#utility.yul\":20483:20492   */\n      dup4\n        /* \"#utility.yul\":20479:20496   */\n      add\n        /* \"#utility.yul\":20470:20476   */\n      dup11\n        /* \"#utility.yul\":20426:20497   */\n      tag_139\n      jump\t// in\n    tag_386:\n        /* \"#utility.yul\":20507:20579   */\n      tag_387\n        /* \"#utility.yul\":20575:20577   */\n      0x20\n        /* \"#utility.yul\":20564:20573   */\n      dup4\n        /* \"#utility.yul\":20560:20578   */\n      add\n        /* \"#utility.yul\":20551:20557   */\n      dup10\n        /* \"#utility.yul\":20507:20579   */\n      tag_139\n      jump\t// in\n    tag_387:\n        /* \"#utility.yul\":20626:20635   */\n      dup2\n        /* \"#utility.yul\":20620:20624   */\n      dup2\n        /* \"#utility.yul\":20616:20636   */\n      sub\n        /* \"#utility.yul\":20611:20613   */\n      0x40\n        /* \"#utility.yul\":20600:20609   */\n      dup4\n        /* \"#utility.yul\":20596:20614   */\n      add\n        /* \"#utility.yul\":20589:20637   */\n      mstore\n        /* \"#utility.yul\":20654:20732   */\n      tag_388\n        /* \"#utility.yul\":20727:20731   */\n      dup2\n        /* \"#utility.yul\":20718:20724   */\n      dup9\n        /* \"#utility.yul\":20654:20732   */\n      tag_141\n      jump\t// in\n    tag_388:\n        /* \"#utility.yul\":20646:20732   */\n      swap1\n      pop\n        /* \"#utility.yul\":20742:20814   */\n      tag_389\n        /* \"#utility.yul\":20810:20812   */\n      0x60\n        /* \"#utility.yul\":20799:20808   */\n      dup4\n        /* \"#utility.yul\":20795:20813   */\n      add\n        /* \"#utility.yul\":20786:20792   */\n      dup8\n        /* \"#utility.yul\":20742:20814   */\n      tag_139\n      jump\t// in\n    tag_389:\n        /* \"#utility.yul\":20862:20871   */\n      dup2\n        /* \"#utility.yul\":20856:20860   */\n      dup2\n        /* \"#utility.yul\":20852:20872   */\n      sub\n        /* \"#utility.yul\":20846:20849   */\n      0x80\n        /* \"#utility.yul\":20835:20844   */\n      dup4\n        /* \"#utility.yul\":20831:20850   */\n      add\n        /* \"#utility.yul\":20824:20873   */\n      mstore\n        /* \"#utility.yul\":20890:20968   */\n      tag_390\n        /* \"#utility.yul\":20963:20967   */\n      dup2\n        /* \"#utility.yul\":20954:20960   */\n      dup7\n        /* \"#utility.yul\":20890:20968   */\n      tag_141\n      jump\t// in\n    tag_390:\n        /* \"#utility.yul\":20882:20968   */\n      swap1\n      pop\n        /* \"#utility.yul\":20978:21051   */\n      tag_391\n        /* \"#utility.yul\":21046:21049   */\n      0xa0\n        /* \"#utility.yul\":21035:21044   */\n      dup4\n        /* \"#utility.yul\":21031:21050   */\n      add\n        /* \"#utility.yul\":21022:21028   */\n      dup6\n        /* \"#utility.yul\":20978:21051   */\n      tag_175\n      jump\t// in\n    tag_391:\n        /* \"#utility.yul\":21061:21128   */\n      tag_392\n        /* \"#utility.yul\":21123:21126   */\n      0xc0\n        /* \"#utility.yul\":21112:21121   */\n      dup4\n        /* \"#utility.yul\":21108:21127   */\n      add\n        /* \"#utility.yul\":21099:21105   */\n      dup5\n        /* \"#utility.yul\":21061:21128   */\n      tag_143\n      jump\t// in\n    tag_392:\n        /* \"#utility.yul\":20079:21135   */\n      swap9\n      swap8\n      pop\n      pop\n      pop\n      pop\n      pop\n      pop\n      pop\n      pop\n      jump\t// out\n        /* \"#utility.yul\":21141:21310   */\n    tag_176:\n        /* \"#utility.yul\":21281:21302   */\n      0x43617220697320616c726561647920536f6c6400000000000000000000000000\n        /* \"#utility.yul\":21277:21278   */\n      0x00\n        /* \"#utility.yul\":21269:21275   */\n      dup3\n        /* \"#utility.yul\":21265:21279   */\n      add\n        /* \"#utility.yul\":21258:21303   */\n      mstore\n        /* \"#utility.yul\":21141:21310   */\n      pop\n      jump\t// out\n        /* \"#utility.yul\":21316:21682   */\n    tag_177:\n        /* \"#utility.yul\":21458:21461   */\n      0x00\n        /* \"#utility.yul\":21479:21546   */\n      tag_395\n        /* \"#utility.yul\":21543:21545   */\n      0x13\n        /* \"#utility.yul\":21538:21541   */\n      dup4\n        /* \"#utility.yul\":21479:21546   */\n      tag_140\n      jump\t// in\n    tag_395:\n        /* \"#utility.yul\":21472:21546   */\n      swap2\n      pop\n        /* \"#utility.yul\":21555:21648   */\n      tag_396\n        /* \"#utility.yul\":21644:21647   */\n      dup3\n        /* \"#utility.yul\":21555:21648   */\n      tag_176\n      jump\t// in\n    tag_396:\n        /* \"#utility.yul\":21673:21675   */\n      0x20\n        /* \"#utility.yul\":21668:21671   */\n      dup3\n        /* \"#utility.yul\":21664:21676   */\n      add\n        /* \"#utility.yul\":21657:21676   */\n      swap1\n      pop\n        /* \"#utility.yul\":21316:21682   */\n      swap2\n      swap1\n      pop\n      jump\t// out\n        /* \"#utility.yul\":21688:22107   */\n    tag_105:\n        /* \"#utility.yul\":21854:21858   */\n      0x00\n        /* \"#utility.yul\":21892:21894   */\n      0x20\n        /* \"#utility.yul\":21881:21890   */\n      dup3\n        /* \"#utility.yul\":21877:21895   */\n      add\n        /* \"#utility.yul\":21869:21895   */\n      swap1\n      pop\n        /* \"#utility.yul\":21941:21950   */\n      dup2\n        /* \"#utility.yul\":21935:21939   */\n      dup2\n        /* \"#utility.yul\":21931:21951   */\n      sub\n        /* \"#utility.yul\":21927:21928   */\n      0x00\n        /* \"#utility.yul\":21916:21925   */\n      dup4\n        /* \"#utility.yul\":21912:21929   */\n      add\n        /* \"#utility.yul\":21905:21952   */\n      mstore\n        /* \"#utility.yul\":21969:22100   */\n      tag_398\n        /* \"#utility.yul\":22095:22099   */\n      dup2\n        /* \"#utility.yul\":21969:22100   */\n      tag_177\n      jump\t// in\n    tag_398:\n        /* \"#utility.yul\":21961:22100   */\n      swap1\n      pop\n        /* \"#utility.yul\":21688:22107   */\n      swap2\n      swap1\n      pop\n      jump\t// out\n        /* \"#utility.yul\":22113:22279   */\n    tag_178:\n        /* \"#utility.yul\":22253:22271   */\n      0x57726f6e67204361722076616c75652000000000000000000000000000000000\n        /* \"#utility.yul\":22249:22250   */\n      0x00\n        /* \"#utility.yul\":22241:22247   */\n      dup3\n        /* \"#utility.yul\":22237:22251   */\n      add\n        /* \"#utility.yul\":22230:22272   */\n      mstore\n        /* \"#utility.yul\":22113:22279   */\n      pop\n      jump\t// out\n        /* \"#utility.yul\":22285:22651   */\n    tag_179:\n        /* \"#utility.yul\":22427:22430   */\n      0x00\n        /* \"#utility.yul\":22448:22515   */\n      tag_401\n        /* \"#utility.yul\":22512:22514   */\n      0x10\n        /* \"#utility.yul\":22507:22510   */\n      dup4\n        /* \"#utility.yul\":22448:22515   */\n      tag_140\n      jump\t// in\n    tag_401:\n        /* \"#utility.yul\":22441:22515   */\n      swap2\n      pop\n        /* \"#utility.yul\":22524:22617   */\n      tag_402\n        /* \"#utility.yul\":22613:22616   */\n      dup3\n        /* \"#utility.yul\":22524:22617   */\n      tag_178\n      jump\t// in\n    tag_402:\n        /* \"#utility.yul\":22642:22644   */\n      0x20\n        /* \"#utility.yul\":22637:22640   */\n      dup3\n        /* \"#utility.yul\":22633:22645   */\n      add\n        /* \"#utility.yul\":22626:22645   */\n      swap1\n      pop\n        /* \"#utility.yul\":22285:22651   */\n      swap2\n      swap1\n      pop\n      jump\t// out\n        /* \"#utility.yul\":22657:23076   */\n    tag_108:\n        /* \"#utility.yul\":22823:22827   */\n      0x00\n        /* \"#utility.yul\":22861:22863   */\n      0x20\n        /* \"#utility.yul\":22850:22859   */\n      dup3\n        /* \"#utility.yul\":22846:22864   */\n      add\n        /* \"#utility.yul\":22838:22864   */\n      swap1\n      pop\n        /* \"#utility.yul\":22910:22919   */\n      dup2\n        /* \"#utility.yul\":22904:22908   */\n      dup2\n        /* \"#utility.yul\":22900:22920   */\n      sub\n        /* \"#utility.yul\":22896:22897   */\n      0x00\n        /* \"#utility.yul\":22885:22894   */\n      dup4\n        /* \"#utility.yul\":22881:22898   */\n      add\n        /* \"#utility.yul\":22874:22921   */\n      mstore\n        /* \"#utility.yul\":22938:23069   */\n      tag_404\n        /* \"#utility.yul\":23064:23068   */\n      dup2\n        /* \"#utility.yul\":22938:23069   */\n      tag_179\n      jump\t// in\n    tag_404:\n        /* \"#utility.yul\":22930:23069   */\n      swap1\n      pop\n        /* \"#utility.yul\":22657:23076   */\n      swap2\n      swap1\n      pop\n      jump\t// out\n        /* \"#utility.yul\":23082:23414   */\n    tag_112:\n        /* \"#utility.yul\":23203:23207   */\n      0x00\n        /* \"#utility.yul\":23241:23243   */\n      0x40\n        /* \"#utility.yul\":23230:23239   */\n      dup3\n        /* \"#utility.yul\":23226:23244   */\n      add\n        /* \"#utility.yul\":23218:23244   */\n      swap1\n      pop\n        /* \"#utility.yul\":23254:23325   */\n      tag_406\n        /* \"#utility.yul\":23322:23323   */\n      0x00\n        /* \"#utility.yul\":23311:23320   */\n      dup4\n        /* \"#utility.yul\":23307:23324   */\n      add\n        /* \"#utility.yul\":23298:23304   */\n      dup6\n        /* \"#utility.yul\":23254:23325   */\n      tag_139\n      jump\t// in\n    tag_406:\n        /* \"#utility.yul\":23335:23407   */\n      tag_407\n        /* \"#utility.yul\":23403:23405   */\n      0x20\n        /* \"#utility.yul\":23392:23401   */\n      dup4\n        /* \"#utility.yul\":23388:23406   */\n      add\n        /* \"#utility.yul\":23379:23385   */\n      dup5\n        /* \"#utility.yul\":23335:23407   */\n      tag_139\n      jump\t// in\n    tag_407:\n        /* \"#utility.yul\":23082:23414   */\n      swap4\n      swap3\n      pop\n      pop\n      pop\n      jump\t// out\n\n    auxdata: 0xa264697066735822122048e1f7cb9f35005231c2cc4c3843f2ecf09534af3292dfc1d3a42edc88e12be964736f6c63430008160033\n}\n",
				"bytecode": {
					"linkReferences": {},
					"object": "608060405234801561000f575f80fd5b503360015f6101000a81548173ffffffffffffffffffffffffffffffffffffffff021916908373ffffffffffffffffffffffffffffffffffffffff1602179055506117218061005d5f395ff3fe608060405260043610610049575f3560e01c80639537d6cf1461004d5780639abb94d414610077578063d923b3d8146100b9578063e98d8383146100f5578063fadbb1e11461011d575b5f80fd5b348015610058575f80fd5b50610061610139565b60405161006e9190610dc7565b60405180910390f35b348015610082575f80fd5b5061009d60048036038101906100989190610e22565b6103c3565b6040516100b09796959493929190610ec2565b60405180910390f35b3480156100c4575f80fd5b506100df60048036038101906100da9190610e22565b610539565b6040516100ec9190610f3d565b60405180910390f35b348015610100575f80fd5b5061011b600480360381019061011691906110e7565b610559565b005b610137600480360381019061013291906111a8565b6107d8565b005b60605f60038054905090505f8167ffffffffffffffff81111561015f5761015e610f5e565b5b60405190808252806020026020018201604052801561019857816020015b610185610b21565b81526020019060019003908161017d5790505b5090505f5b828110156103ba575f600382815481106101ba576101b96111e6565b5b905f5260205f200154905060025f8281526020019081526020015f206040518060e00160405290815f82015481526020016001820154815260200160028201805461020490611240565b80601f016020809104026020016040519081016040528092919081815260200182805461023090611240565b801561027b5780601f106102525761010080835404028352916020019161027b565b820191905f5260205f20905b81548152906001019060200180831161025e57829003601f168201915b505050505081526020016003820154815260200160048201805461029e90611240565b80601f01602080910402602001604051908101604052809291908181526020018280546102ca90611240565b80156103155780601f106102ec57610100808354040283529160200191610315565b820191905f5260205f20905b8154815290600101906020018083116102f857829003601f168201915b50505050508152602001600582015f9054906101000a900473ffffffffffffffffffffffffffffffffffffffff1673ffffffffffffffffffffffffffffffffffffffff1673ffffffffffffffffffffffffffffffffffffffff1681526020016005820160149054906101000a900460ff1615151515815250508383815181106103a1576103a06111e6565b5b602002602001018190525050808060010191505061019d565b50809250505090565b6002602052805f5260405f205f91509050805f0154908060010154908060020180546103ee90611240565b80601f016020809104026020016040519081016040528092919081815260200182805461041a90611240565b80156104655780601f1061043c57610100808354040283529160200191610465565b820191905f5260205f20905b81548152906001019060200180831161044857829003601f168201915b50505050509080600301549080600401805461048090611240565b80601f01602080910402602001604051908101604052809291908181526020018280546104ac90611240565b80156104f75780601f106104ce576101008083540402835291602001916104f7565b820191905f5260205f20905b8154815290600101906020018083116104da57829003601f168201915b505050505090806005015f9054906101000a900473ffffffffffffffffffffffffffffffffffffffff16908060050160149054906101000a900460ff16905087565b60038181548110610548575f80fd5b905f5260205f20015f915090505481565b60015f9054906101000a900473ffffffffffffffffffffffffffffffffffffffff1673ffffffffffffffffffffffffffffffffffffffff163373ffffffffffffffffffffffffffffffffffffffff16146105e8576040517f08c379a00000000000000000000000000000000000000000000000000000000081526004016105df906112e0565b60405180910390fd5b6105f15f610b01565b5f6040518060e001604052806106065f610b15565b815260200188815260200187815260200186815260200185815260200160015f9054906101000a900473ffffffffffffffffffffffffffffffffffffffff1673ffffffffffffffffffffffffffffffffffffffff1681526020016001151581525090508060025f6106765f610b15565b81526020019081526020015f205f820151815f01556020820151816001015560408201518160020190816106aa919061149b565b506060820151816003015560808201518160040190816106ca919061149b565b5060a0820151816005015f6101000a81548173ffffffffffffffffffffffffffffffffffffffff021916908373ffffffffffffffffffffffffffffffffffffffff16021790555060c08201518160050160146101000a81548160ff021916908315150217905550905050600361073f5f610b15565b908060018154018082558091505060019003905f5260205f20015f90919091909150557fd37f8caa8cbf6ba249a853b50d83a4b0916cb52d083755767c3d4d086f9e3df461078c5f610b15565b8888888860015f9054906101000a900473ffffffffffffffffffffffffffffffffffffffff1660016040516107c79796959493929190611579565b60405180910390a150505050505050565b5f60025f8481526020019081526020015f206040518060e00160405290815f82015481526020016001820154815260200160028201805461081890611240565b80601f016020809104026020016040519081016040528092919081815260200182805461084490611240565b801561088f5780601f106108665761010080835404028352916020019161088f565b820191905f5260205f20905b81548152906001019060200180831161087257829003601f168201915b50505050508152602001600382015481526020016004820180546108b290611240565b80601f01602080910402602001604051908101604052809291908181526020018280546108de90611240565b80156109295780601f1061090057610100808354040283529160200191610929565b820191905f5260205f20905b81548152906001019060200180831161090c57829003601f168201915b50505050508152602001600582015f9054906101000a900473ffffffffffffffffffffffffffffffffffffffff1673ffffffffffffffffffffffffffffffffffffffff1673ffffffffffffffffffffffffffffffffffffffff1681526020016005820160149054906101000a900460ff16151515158152505090508060c001516109e8576040517f08c379a00000000000000000000000000000000000000000000000000000000081526004016109df9061163e565b60405180910390fd5b8181606001511015610a2f576040517f08c379a0000000000000000000000000000000000000000000000000000000008152600401610a26906116a6565b60405180910390fd5b8060a0015173ffffffffffffffffffffffffffffffffffffffff166108fc826060015190811502906040515f60405180830381858888f19350505050158015610a7a573d5f803e3d5ffd5b50338160a0019073ffffffffffffffffffffffffffffffffffffffff16908173ffffffffffffffffffffffffffffffffffffffff16815250505f8160c00190151590811515815250507f05551ddf6a1ecdd82b8af6e580ff1a9af7760b48836d4a8e413eac87da1a2c948383604051610af49291906116c4565b60405180910390a1505050565b6001815f015f828254019250508190555050565b5f815f01549050919050565b6040518060e001604052805f81526020015f8152602001606081526020015f8152602001606081526020015f73ffffffffffffffffffffffffffffffffffffffff1681526020015f151581525090565b5f81519050919050565b5f82825260208201905092915050565b5f819050602082019050919050565b5f819050919050565b610bac81610b9a565b82525050565b5f81519050919050565b5f82825260208201905092915050565b5f5b83811015610be9578082015181840152602081019050610bce565b5f8484015250505050565b5f601f19601f8301169050919050565b5f610c0e82610bb2565b610c188185610bbc565b9350610c28818560208601610bcc565b610c3181610bf4565b840191505092915050565b5f73ffffffffffffffffffffffffffffffffffffffff82169050919050565b5f610c6582610c3c565b9050919050565b610c7581610c5b565b82525050565b5f8115159050919050565b610c8f81610c7b565b82525050565b5f60e083015f830151610caa5f860182610ba3565b506020830151610cbd6020860182610ba3565b5060408301518482036040860152610cd58282610c04565b9150506060830151610cea6060860182610ba3565b5060808301518482036080860152610d028282610c04565b91505060a0830151610d1760a0860182610c6c565b5060c0830151610d2a60c0860182610c86565b508091505092915050565b5f610d408383610c95565b905092915050565b5f602082019050919050565b5f610d5e82610b71565b610d688185610b7b565b935083602082028501610d7a85610b8b565b805f5b85811015610db55784840389528151610d968582610d35565b9450610da183610d48565b925060208a01995050600181019050610d7d565b50829750879550505050505092915050565b5f6020820190508181035f830152610ddf8184610d54565b905092915050565b5f604051905090565b5f80fd5b5f80fd5b610e0181610b9a565b8114610e0b575f80fd5b50565b5f81359050610e1c81610df8565b92915050565b5f60208284031215610e3757610e36610df0565b5b5f610e4484828501610e0e565b91505092915050565b610e5681610b9a565b82525050565b5f82825260208201905092915050565b5f610e7682610bb2565b610e808185610e5c565b9350610e90818560208601610bcc565b610e9981610bf4565b840191505092915050565b610ead81610c5b565b82525050565b610ebc81610c7b565b82525050565b5f60e082019050610ed55f83018a610e4d565b610ee26020830189610e4d565b8181036040830152610ef48188610e6c565b9050610f036060830187610e4d565b8181036080830152610f158186610e6c565b9050610f2460a0830185610ea4565b610f3160c0830184610eb3565b98975050505050505050565b5f602082019050610f505f830184610e4d565b92915050565b5f80fd5b5f80fd5b7f4e487b71000000000000000000000000000000000000000000000000000000005f52604160045260245ffd5b610f9482610bf4565b810181811067ffffffffffffffff82111715610fb357610fb2610f5e565b5b80604052505050565b5f610fc5610de7565b9050610fd18282610f8b565b919050565b5f67ffffffffffffffff821115610ff057610fef610f5e565b5b610ff982610bf4565b9050602081019050919050565b828183375f83830152505050565b5f61102661102184610fd6565b610fbc565b90508281526020810184848401111561104257611041610f5a565b5b61104d848285611006565b509392505050565b5f82601f83011261106957611068610f56565b5b8135611079848260208601611014565b91505092915050565b5f61108c82610c3c565b9050919050565b61109c81611082565b81146110a6575f80fd5b50565b5f813590506110b781611093565b92915050565b6110c681610c7b565b81146110d0575f80fd5b50565b5f813590506110e1816110bd565b92915050565b5f805f805f8060c0878903121561110157611100610df0565b5b5f61110e89828a01610e0e565b965050602087013567ffffffffffffffff81111561112f5761112e610df4565b5b61113b89828a01611055565b955050604061114c89828a01610e0e565b945050606087013567ffffffffffffffff81111561116d5761116c610df4565b5b61117989828a01611055565b935050608061118a89828a016110a9565b92505060a061119b89828a016110d3565b9150509295509295509295565b5f80604083850312156111be576111bd610df0565b5b5f6111cb85828601610e0e565b92505060206111dc85828601610e0e565b9150509250929050565b7f4e487b71000000000000000000000000000000000000000000000000000000005f52603260045260245ffd5b7f4e487b71000000000000000000000000000000000000000000000000000000005f52602260045260245ffd5b5f600282049050600182168061125757607f821691505b60208210810361126a57611269611213565b5b50919050565b7f4f6e6c7920546865204167656e6379204f776e65722043616e204164642063615f8201527f7273212121000000000000000000000000000000000000000000000000000000602082015250565b5f6112ca602583610e5c565b91506112d582611270565b604082019050919050565b5f6020820190508181035f8301526112f7816112be565b9050919050565b5f819050815f5260205f209050919050565b5f6020601f8301049050919050565b5f82821b905092915050565b5f6008830261135a7fffffffffffffffffffffffffffffffffffffffffffffffffffffffffffffffff8261131f565b611364868361131f565b95508019841693508086168417925050509392505050565b5f819050919050565b5f61139f61139a61139584610b9a565b61137c565b610b9a565b9050919050565b5f819050919050565b6113b883611385565b6113cc6113c4826113a6565b84845461132b565b825550505050565b5f90565b6113e06113d4565b6113eb8184846113af565b505050565b5b8181101561140e576114035f826113d8565b6001810190506113f1565b5050565b601f82111561145357611424816112fe565b61142d84611310565b8101602085101561143c578190505b61145061144885611310565b8301826113f0565b50505b505050565b5f82821c905092915050565b5f6114735f1984600802611458565b1980831691505092915050565b5f61148b8383611464565b9150826002028217905092915050565b6114a482610bb2565b67ffffffffffffffff8111156114bd576114bc610f5e565b5b6114c78254611240565b6114d2828285611412565b5f60209050601f831160018114611503575f84156114f1578287015190505b6114fb8582611480565b865550611562565b601f198416611511866112fe565b5f5b8281101561153857848901518255600182019150602085019450602081019050611513565b868310156115555784890151611551601f891682611464565b8355505b6001600288020188555050505b505050505050565b61157381611082565b82525050565b5f60e08201905061158c5f83018a610e4d565b6115996020830189610e4d565b81810360408301526115ab8188610e6c565b90506115ba6060830187610e4d565b81810360808301526115cc8186610e6c565b90506115db60a083018561156a565b6115e860c0830184610eb3565b98975050505050505050565b7f43617220697320616c726561647920536f6c64000000000000000000000000005f82015250565b5f611628601383610e5c565b9150611633826115f4565b602082019050919050565b5f6020820190508181035f8301526116558161161c565b9050919050565b7f57726f6e67204361722076616c756520000000000000000000000000000000005f82015250565b5f611690601083610e5c565b915061169b8261165c565b602082019050919050565b5f6020820190508181035f8301526116bd81611684565b9050919050565b5f6040820190506116d75f830185610e4d565b6116e46020830184610e4d565b939250505056fea264697066735822122048e1f7cb9f35005231c2cc4c3843f2ecf09534af3292dfc1d3a42edc88e12be964736f6c63430008160033",
					"opcodes": "PUSH1 0x80 PUSH1 0x40 MSTORE CALLVALUE DUP1 ISZERO PUSH2 0xF JUMPI PUSH0 DUP1 REVERT JUMPDEST POP CALLER PUSH1 0x1 PUSH0 PUSH2 0x100 EXP DUP2 SLOAD DUP2 PUSH20 0xFFFFFFFFFFFFFFFFFFFFFFFFFFFFFFFFFFFFFFFF MUL NOT AND SWAP1 DUP4 PUSH20 0xFFFFFFFFFFFFFFFFFFFFFFFFFFFFFFFFFFFFFFFF AND MUL OR SWAP1 SSTORE POP PUSH2 0x1721 DUP1 PUSH2 0x5D PUSH0 CODECOPY PUSH0 RETURN INVALID PUSH1 0x80 PUSH1 0x40 MSTORE PUSH1 0x4 CALLDATASIZE LT PUSH2 0x49 JUMPI PUSH0 CALLDATALOAD PUSH1 0xE0 SHR DUP1 PUSH4 0x9537D6CF EQ PUSH2 0x4D JUMPI DUP1 PUSH4 0x9ABB94D4 EQ PUSH2 0x77 JUMPI DUP1 PUSH4 0xD923B3D8 EQ PUSH2 0xB9 JUMPI DUP1 PUSH4 0xE98D8383 EQ PUSH2 0xF5 JUMPI DUP1 PUSH4 0xFADBB1E1 EQ PUSH2 0x11D JUMPI JUMPDEST PUSH0 DUP1 REVERT JUMPDEST CALLVALUE DUP1 ISZERO PUSH2 0x58 JUMPI PUSH0 DUP1 REVERT JUMPDEST POP PUSH2 0x61 PUSH2 0x139 JUMP JUMPDEST PUSH1 0x40 MLOAD PUSH2 0x6E SWAP2 SWAP1 PUSH2 0xDC7 JUMP JUMPDEST PUSH1 0x40 MLOAD DUP1 SWAP2 SUB SWAP1 RETURN JUMPDEST CALLVALUE DUP1 ISZERO PUSH2 0x82 JUMPI PUSH0 DUP1 REVERT JUMPDEST POP PUSH2 0x9D PUSH1 0x4 DUP1 CALLDATASIZE SUB DUP2 ADD SWAP1 PUSH2 0x98 SWAP2 SWAP1 PUSH2 0xE22 JUMP JUMPDEST PUSH2 0x3C3 JUMP JUMPDEST PUSH1 0x40 MLOAD PUSH2 0xB0 SWAP8 SWAP7 SWAP6 SWAP5 SWAP4 SWAP3 SWAP2 SWAP1 PUSH2 0xEC2 JUMP JUMPDEST PUSH1 0x40 MLOAD DUP1 SWAP2 SUB SWAP1 RETURN JUMPDEST CALLVALUE DUP1 ISZERO PUSH2 0xC4 JUMPI PUSH0 DUP1 REVERT JUMPDEST POP PUSH2 0xDF PUSH1 0x4 DUP1 CALLDATASIZE SUB DUP2 ADD SWAP1 PUSH2 0xDA SWAP2 SWAP1 PUSH2 0xE22 JUMP JUMPDEST PUSH2 0x539 JUMP JUMPDEST PUSH1 0x40 MLOAD PUSH2 0xEC SWAP2 SWAP1 PUSH2 0xF3D JUMP JUMPDEST PUSH1 0x40 MLOAD DUP1 SWAP2 SUB SWAP1 RETURN JUMPDEST CALLVALUE DUP1 ISZERO PUSH2 0x100 JUMPI PUSH0 DUP1 REVERT JUMPDEST POP PUSH2 0x11B PUSH1 0x4 DUP1 CALLDATASIZE SUB DUP2 ADD SWAP1 PUSH2 0x116 SWAP2 SWAP1 PUSH2 0x10E7 JUMP JUMPDEST PUSH2 0x559 JUMP JUMPDEST STOP JUMPDEST PUSH2 0x137 PUSH1 0x4 DUP1 CALLDATASIZE SUB DUP2 ADD SWAP1 PUSH2 0x132 SWAP2 SWAP1 PUSH2 0x11A8 JUMP JUMPDEST PUSH2 0x7D8 JUMP JUMPDEST STOP JUMPDEST PUSH1 0x60 PUSH0 PUSH1 0x3 DUP1 SLOAD SWAP1 POP SWAP1 POP PUSH0 DUP2 PUSH8 0xFFFFFFFFFFFFFFFF DUP2 GT ISZERO PUSH2 0x15F JUMPI PUSH2 0x15E PUSH2 0xF5E JUMP JUMPDEST JUMPDEST PUSH1 0x40 MLOAD SWAP1 DUP1 DUP3 MSTORE DUP1 PUSH1 0x20 MUL PUSH1 0x20 ADD DUP3 ADD PUSH1 0x40 MSTORE DUP1 ISZERO PUSH2 0x198 JUMPI DUP2 PUSH1 0x20 ADD JUMPDEST PUSH2 0x185 PUSH2 0xB21 JUMP JUMPDEST DUP2 MSTORE PUSH1 0x20 ADD SWAP1 PUSH1 0x1 SWAP1 SUB SWAP1 DUP2 PUSH2 0x17D JUMPI SWAP1 POP JUMPDEST POP SWAP1 POP PUSH0 JUMPDEST DUP3 DUP2 LT ISZERO PUSH2 0x3BA JUMPI PUSH0 PUSH1 0x3 DUP3 DUP2 SLOAD DUP2 LT PUSH2 0x1BA JUMPI PUSH2 0x1B9 PUSH2 0x11E6 JUMP JUMPDEST JUMPDEST SWAP1 PUSH0 MSTORE PUSH1 0x20 PUSH0 KECCAK256 ADD SLOAD SWAP1 POP PUSH1 0x2 PUSH0 DUP3 DUP2 MSTORE PUSH1 0x20 ADD SWAP1 DUP2 MSTORE PUSH1 0x20 ADD PUSH0 KECCAK256 PUSH1 0x40 MLOAD DUP1 PUSH1 0xE0 ADD PUSH1 0x40 MSTORE SWAP1 DUP2 PUSH0 DUP3 ADD SLOAD DUP2 MSTORE PUSH1 0x20 ADD PUSH1 0x1 DUP3 ADD SLOAD DUP2 MSTORE PUSH1 0x20 ADD PUSH1 0x2 DUP3 ADD DUP1 SLOAD PUSH2 0x204 SWAP1 PUSH2 0x1240 JUMP JUMPDEST DUP1 PUSH1 0x1F ADD PUSH1 0x20 DUP1 SWAP2 DIV MUL PUSH1 0x20 ADD PUSH1 0x40 MLOAD SWAP1 DUP2 ADD PUSH1 0x40 MSTORE DUP1 SWAP3 SWAP2 SWAP1 DUP2 DUP2 MSTORE PUSH1 0x20 ADD DUP3 DUP1 SLOAD PUSH2 0x230 SWAP1 PUSH2 0x1240 JUMP JUMPDEST DUP1 ISZERO PUSH2 0x27B JUMPI DUP1 PUSH1 0x1F LT PUSH2 0x252 JUMPI PUSH2 0x100 DUP1 DUP4 SLOAD DIV MUL DUP4 MSTORE SWAP2 PUSH1 0x20 ADD SWAP2 PUSH2 0x27B JUMP JUMPDEST DUP3 ADD SWAP2 SWAP1 PUSH0 MSTORE PUSH1 0x20 PUSH0 KECCAK256 SWAP1 JUMPDEST DUP2 SLOAD DUP2 MSTORE SWAP1 PUSH1 0x1 ADD SWAP1 PUSH1 0x20 ADD DUP1 DUP4 GT PUSH2 0x25E JUMPI DUP3 SWAP1 SUB PUSH1 0x1F AND DUP3 ADD SWAP2 JUMPDEST POP POP POP POP POP DUP2 MSTORE PUSH1 0x20 ADD PUSH1 0x3 DUP3 ADD SLOAD DUP2 MSTORE PUSH1 0x20 ADD PUSH1 0x4 DUP3 ADD DUP1 SLOAD PUSH2 0x29E SWAP1 PUSH2 0x1240 JUMP JUMPDEST DUP1 PUSH1 0x1F ADD PUSH1 0x20 DUP1 SWAP2 DIV MUL PUSH1 0x20 ADD PUSH1 0x40 MLOAD SWAP1 DUP2 ADD PUSH1 0x40 MSTORE DUP1 SWAP3 SWAP2 SWAP1 DUP2 DUP2 MSTORE PUSH1 0x20 ADD DUP3 DUP1 SLOAD PUSH2 0x2CA SWAP1 PUSH2 0x1240 JUMP JUMPDEST DUP1 ISZERO PUSH2 0x315 JUMPI DUP1 PUSH1 0x1F LT PUSH2 0x2EC JUMPI PUSH2 0x100 DUP1 DUP4 SLOAD DIV MUL DUP4 MSTORE SWAP2 PUSH1 0x20 ADD SWAP2 PUSH2 0x315 JUMP JUMPDEST DUP3 ADD SWAP2 SWAP1 PUSH0 MSTORE PUSH1 0x20 PUSH0 KECCAK256 SWAP1 JUMPDEST DUP2 SLOAD DUP2 MSTORE SWAP1 PUSH1 0x1 ADD SWAP1 PUSH1 0x20 ADD DUP1 DUP4 GT PUSH2 0x2F8 JUMPI DUP3 SWAP1 SUB PUSH1 0x1F AND DUP3 ADD SWAP2 JUMPDEST POP POP POP POP POP DUP2 MSTORE PUSH1 0x20 ADD PUSH1 0x5 DUP3 ADD PUSH0 SWAP1 SLOAD SWAP1 PUSH2 0x100 EXP SWAP1 DIV PUSH20 0xFFFFFFFFFFFFFFFFFFFFFFFFFFFFFFFFFFFFFFFF AND PUSH20 0xFFFFFFFFFFFFFFFFFFFFFFFFFFFFFFFFFFFFFFFF AND PUSH20 0xFFFFFFFFFFFFFFFFFFFFFFFFFFFFFFFFFFFFFFFF AND DUP2 MSTORE PUSH1 0x20 ADD PUSH1 0x5 DUP3 ADD PUSH1 0x14 SWAP1 SLOAD SWAP1 PUSH2 0x100 EXP SWAP1 DIV PUSH1 0xFF AND ISZERO ISZERO ISZERO ISZERO DUP2 MSTORE POP POP DUP4 DUP4 DUP2 MLOAD DUP2 LT PUSH2 0x3A1 JUMPI PUSH2 0x3A0 PUSH2 0x11E6 JUMP JUMPDEST JUMPDEST PUSH1 0x20 MUL PUSH1 0x20 ADD ADD DUP2 SWAP1 MSTORE POP POP DUP1 DUP1 PUSH1 0x1 ADD SWAP2 POP POP PUSH2 0x19D JUMP JUMPDEST POP DUP1 SWAP3 POP POP POP SWAP1 JUMP JUMPDEST PUSH1 0x2 PUSH1 0x20 MSTORE DUP1 PUSH0 MSTORE PUSH1 0x40 PUSH0 KECCAK256 PUSH0 SWAP2 POP SWAP1 POP DUP1 PUSH0 ADD SLOAD SWAP1 DUP1 PUSH1 0x1 ADD SLOAD SWAP1 DUP1 PUSH1 0x2 ADD DUP1 SLOAD PUSH2 0x3EE SWAP1 PUSH2 0x1240 JUMP JUMPDEST DUP1 PUSH1 0x1F ADD PUSH1 0x20 DUP1 SWAP2 DIV MUL PUSH1 0x20 ADD PUSH1 0x40 MLOAD SWAP1 DUP2 ADD PUSH1 0x40 MSTORE DUP1 SWAP3 SWAP2 SWAP1 DUP2 DUP2 MSTORE PUSH1 0x20 ADD DUP3 DUP1 SLOAD PUSH2 0x41A SWAP1 PUSH2 0x1240 JUMP JUMPDEST DUP1 ISZERO PUSH2 0x465 JUMPI DUP1 PUSH1 0x1F LT PUSH2 0x43C JUMPI PUSH2 0x100 DUP1 DUP4 SLOAD DIV MUL DUP4 MSTORE SWAP2 PUSH1 0x20 ADD SWAP2 PUSH2 0x465 JUMP JUMPDEST DUP3 ADD SWAP2 SWAP1 PUSH0 MSTORE PUSH1 0x20 PUSH0 KECCAK256 SWAP1 JUMPDEST DUP2 SLOAD DUP2 MSTORE SWAP1 PUSH1 0x1 ADD SWAP1 PUSH1 0x20 ADD DUP1 DUP4 GT PUSH2 0x448 JUMPI DUP3 SWAP1 SUB PUSH1 0x1F AND DUP3 ADD SWAP2 JUMPDEST POP POP POP POP POP SWAP1 DUP1 PUSH1 0x3 ADD SLOAD SWAP1 DUP1 PUSH1 0x4 ADD DUP1 SLOAD PUSH2 0x480 SWAP1 PUSH2 0x1240 JUMP JUMPDEST DUP1 PUSH1 0x1F ADD PUSH1 0x20 DUP1 SWAP2 DIV MUL PUSH1 0x20 ADD PUSH1 0x40 MLOAD SWAP1 DUP2 ADD PUSH1 0x40 MSTORE DUP1 SWAP3 SWAP2 SWAP1 DUP2 DUP2 MSTORE PUSH1 0x20 ADD DUP3 DUP1 SLOAD PUSH2 0x4AC SWAP1 PUSH2 0x1240 JUMP JUMPDEST DUP1 ISZERO PUSH2 0x4F7 JUMPI DUP1 PUSH1 0x1F LT PUSH2 0x4CE JUMPI PUSH2 0x100 DUP1 DUP4 SLOAD DIV MUL DUP4 MSTORE SWAP2 PUSH1 0x20 ADD SWAP2 PUSH2 0x4F7 JUMP JUMPDEST DUP3 ADD SWAP2 SWAP1 PUSH0 MSTORE PUSH1 0x20 PUSH0 KECCAK256 SWAP1 JUMPDEST DUP2 SLOAD DUP2 MSTORE SWAP1 PUSH1 0x1 ADD SWAP1 PUSH1 0x20 ADD DUP1 DUP4 GT PUSH2 0x4DA JUMPI DUP3 SWAP1 SUB PUSH1 0x1F AND DUP3 ADD SWAP2 JUMPDEST POP POP POP POP POP SWAP1 DUP1 PUSH1 0x5 ADD PUSH0 SWAP1 SLOAD SWAP1 PUSH2 0x100 EXP SWAP1 DIV PUSH20 0xFFFFFFFFFFFFFFFFFFFFFFFFFFFFFFFFFFFFFFFF AND SWAP1 DUP1 PUSH1 0x5 ADD PUSH1 0x14 SWAP1 SLOAD SWAP1 PUSH2 0x100 EXP SWAP1 DIV PUSH1 0xFF AND SWAP1 POP DUP8 JUMP JUMPDEST PUSH1 0x3 DUP2 DUP2 SLOAD DUP2 LT PUSH2 0x548 JUMPI PUSH0 DUP1 REVERT JUMPDEST SWAP1 PUSH0 MSTORE PUSH1 0x20 PUSH0 KECCAK256 ADD PUSH0 SWAP2 POP SWAP1 POP SLOAD DUP2 JUMP JUMPDEST PUSH1 0x1 PUSH0 SWAP1 SLOAD SWAP1 PUSH2 0x100 EXP SWAP1 DIV PUSH20 0xFFFFFFFFFFFFFFFFFFFFFFFFFFFFFFFFFFFFFFFF AND PUSH20 0xFFFFFFFFFFFFFFFFFFFFFFFFFFFFFFFFFFFFFFFF AND CALLER PUSH20 0xFFFFFFFFFFFFFFFFFFFFFFFFFFFFFFFFFFFFFFFF AND EQ PUSH2 0x5E8 JUMPI PUSH1 0x40 MLOAD PUSH32 0x8C379A000000000000000000000000000000000000000000000000000000000 DUP2 MSTORE PUSH1 0x4 ADD PUSH2 0x5DF SWAP1 PUSH2 0x12E0 JUMP JUMPDEST PUSH1 0x40 MLOAD DUP1 SWAP2 SUB SWAP1 REVERT JUMPDEST PUSH2 0x5F1 PUSH0 PUSH2 0xB01 JUMP JUMPDEST PUSH0 PUSH1 0x40 MLOAD DUP1 PUSH1 0xE0 ADD PUSH1 0x40 MSTORE DUP1 PUSH2 0x606 PUSH0 PUSH2 0xB15 JUMP JUMPDEST DUP2 MSTORE PUSH1 0x20 ADD DUP9 DUP2 MSTORE PUSH1 0x20 ADD DUP8 DUP2 MSTORE PUSH1 0x20 ADD DUP7 DUP2 MSTORE PUSH1 0x20 ADD DUP6 DUP2 MSTORE PUSH1 0x20 ADD PUSH1 0x1 PUSH0 SWAP1 SLOAD SWAP1 PUSH2 0x100 EXP SWAP1 DIV PUSH20 0xFFFFFFFFFFFFFFFFFFFFFFFFFFFFFFFFFFFFFFFF AND PUSH20 0xFFFFFFFFFFFFFFFFFFFFFFFFFFFFFFFFFFFFFFFF AND DUP2 MSTORE PUSH1 0x20 ADD PUSH1 0x1 ISZERO ISZERO DUP2 MSTORE POP SWAP1 POP DUP1 PUSH1 0x2 PUSH0 PUSH2 0x676 PUSH0 PUSH2 0xB15 JUMP JUMPDEST DUP2 MSTORE PUSH1 0x20 ADD SWAP1 DUP2 MSTORE PUSH1 0x20 ADD PUSH0 KECCAK256 PUSH0 DUP3 ADD MLOAD DUP2 PUSH0 ADD SSTORE PUSH1 0x20 DUP3 ADD MLOAD DUP2 PUSH1 0x1 ADD SSTORE PUSH1 0x40 DUP3 ADD MLOAD DUP2 PUSH1 0x2 ADD SWAP1 DUP2 PUSH2 0x6AA SWAP2 SWAP1 PUSH2 0x149B JUMP JUMPDEST POP PUSH1 0x60 DUP3 ADD MLOAD DUP2 PUSH1 0x3 ADD SSTORE PUSH1 0x80 DUP3 ADD MLOAD DUP2 PUSH1 0x4 ADD SWAP1 DUP2 PUSH2 0x6CA SWAP2 SWAP1 PUSH2 0x149B JUMP JUMPDEST POP PUSH1 0xA0 DUP3 ADD MLOAD DUP2 PUSH1 0x5 ADD PUSH0 PUSH2 0x100 EXP DUP2 SLOAD DUP2 PUSH20 0xFFFFFFFFFFFFFFFFFFFFFFFFFFFFFFFFFFFFFFFF MUL NOT AND SWAP1 DUP4 PUSH20 0xFFFFFFFFFFFFFFFFFFFFFFFFFFFFFFFFFFFFFFFF AND MUL OR SWAP1 SSTORE POP PUSH1 0xC0 DUP3 ADD MLOAD DUP2 PUSH1 0x5 ADD PUSH1 0x14 PUSH2 0x100 EXP DUP2 SLOAD DUP2 PUSH1 0xFF MUL NOT AND SWAP1 DUP4 ISZERO ISZERO MUL OR SWAP1 SSTORE POP SWAP1 POP POP PUSH1 0x3 PUSH2 0x73F PUSH0 PUSH2 0xB15 JUMP JUMPDEST SWAP1 DUP1 PUSH1 0x1 DUP2 SLOAD ADD DUP1 DUP3 SSTORE DUP1 SWAP2 POP POP PUSH1 0x1 SWAP1 SUB SWAP1 PUSH0 MSTORE PUSH1 0x20 PUSH0 KECCAK256 ADD PUSH0 SWAP1 SWAP2 SWAP1 SWAP2 SWAP1 SWAP2 POP SSTORE PUSH32 0xD37F8CAA8CBF6BA249A853B50D83A4B0916CB52D083755767C3D4D086F9E3DF4 PUSH2 0x78C PUSH0 PUSH2 0xB15 JUMP JUMPDEST DUP9 DUP9 DUP9 DUP9 PUSH1 0x1 PUSH0 SWAP1 SLOAD SWAP1 PUSH2 0x100 EXP SWAP1 DIV PUSH20 0xFFFFFFFFFFFFFFFFFFFFFFFFFFFFFFFFFFFFFFFF AND PUSH1 0x1 PUSH1 0x40 MLOAD PUSH2 0x7C7 SWAP8 SWAP7 SWAP6 SWAP5 SWAP4 SWAP3 SWAP2 SWAP1 PUSH2 0x1579 JUMP JUMPDEST PUSH1 0x40 MLOAD DUP1 SWAP2 SUB SWAP1 LOG1 POP POP POP POP POP POP POP JUMP JUMPDEST PUSH0 PUSH1 0x2 PUSH0 DUP5 DUP2 MSTORE PUSH1 0x20 ADD SWAP1 DUP2 MSTORE PUSH1 0x20 ADD PUSH0 KECCAK256 PUSH1 0x40 MLOAD DUP1 PUSH1 0xE0 ADD PUSH1 0x40 MSTORE SWAP1 DUP2 PUSH0 DUP3 ADD SLOAD DUP2 MSTORE PUSH1 0x20 ADD PUSH1 0x1 DUP3 ADD SLOAD DUP2 MSTORE PUSH1 0x20 ADD PUSH1 0x2 DUP3 ADD DUP1 SLOAD PUSH2 0x818 SWAP1 PUSH2 0x1240 JUMP JUMPDEST DUP1 PUSH1 0x1F ADD PUSH1 0x20 DUP1 SWAP2 DIV MUL PUSH1 0x20 ADD PUSH1 0x40 MLOAD SWAP1 DUP2 ADD PUSH1 0x40 MSTORE DUP1 SWAP3 SWAP2 SWAP1 DUP2 DUP2 MSTORE PUSH1 0x20 ADD DUP3 DUP1 SLOAD PUSH2 0x844 SWAP1 PUSH2 0x1240 JUMP JUMPDEST DUP1 ISZERO PUSH2 0x88F JUMPI DUP1 PUSH1 0x1F LT PUSH2 0x866 JUMPI PUSH2 0x100 DUP1 DUP4 SLOAD DIV MUL DUP4 MSTORE SWAP2 PUSH1 0x20 ADD SWAP2 PUSH2 0x88F JUMP JUMPDEST DUP3 ADD SWAP2 SWAP1 PUSH0 MSTORE PUSH1 0x20 PUSH0 KECCAK256 SWAP1 JUMPDEST DUP2 SLOAD DUP2 MSTORE SWAP1 PUSH1 0x1 ADD SWAP1 PUSH1 0x20 ADD DUP1 DUP4 GT PUSH2 0x872 JUMPI DUP3 SWAP1 SUB PUSH1 0x1F AND DUP3 ADD SWAP2 JUMPDEST POP POP POP POP POP DUP2 MSTORE PUSH1 0x20 ADD PUSH1 0x3 DUP3 ADD SLOAD DUP2 MSTORE PUSH1 0x20 ADD PUSH1 0x4 DUP3 ADD DUP1 SLOAD PUSH2 0x8B2 SWAP1 PUSH2 0x1240 JUMP JUMPDEST DUP1 PUSH1 0x1F ADD PUSH1 0x20 DUP1 SWAP2 DIV MUL PUSH1 0x20 ADD PUSH1 0x40 MLOAD SWAP1 DUP2 ADD PUSH1 0x40 MSTORE DUP1 SWAP3 SWAP2 SWAP1 DUP2 DUP2 MSTORE PUSH1 0x20 ADD DUP3 DUP1 SLOAD PUSH2 0x8DE SWAP1 PUSH2 0x1240 JUMP JUMPDEST DUP1 ISZERO PUSH2 0x929 JUMPI DUP1 PUSH1 0x1F LT PUSH2 0x900 JUMPI PUSH2 0x100 DUP1 DUP4 SLOAD DIV MUL DUP4 MSTORE SWAP2 PUSH1 0x20 ADD SWAP2 PUSH2 0x929 JUMP JUMPDEST DUP3 ADD SWAP2 SWAP1 PUSH0 MSTORE PUSH1 0x20 PUSH0 KECCAK256 SWAP1 JUMPDEST DUP2 SLOAD DUP2 MSTORE SWAP1 PUSH1 0x1 ADD SWAP1 PUSH1 0x20 ADD DUP1 DUP4 GT PUSH2 0x90C JUMPI DUP3 SWAP1 SUB PUSH1 0x1F AND DUP3 ADD SWAP2 JUMPDEST POP POP POP POP POP DUP2 MSTORE PUSH1 0x20 ADD PUSH1 0x5 DUP3 ADD PUSH0 SWAP1 SLOAD SWAP1 PUSH2 0x100 EXP SWAP1 DIV PUSH20 0xFFFFFFFFFFFFFFFFFFFFFFFFFFFFFFFFFFFFFFFF AND PUSH20 0xFFFFFFFFFFFFFFFFFFFFFFFFFFFFFFFFFFFFFFFF AND PUSH20 0xFFFFFFFFFFFFFFFFFFFFFFFFFFFFFFFFFFFFFFFF AND DUP2 MSTORE PUSH1 0x20 ADD PUSH1 0x5 DUP3 ADD PUSH1 0x14 SWAP1 SLOAD SWAP1 PUSH2 0x100 EXP SWAP1 DIV PUSH1 0xFF AND ISZERO ISZERO ISZERO ISZERO DUP2 MSTORE POP POP SWAP1 POP DUP1 PUSH1 0xC0 ADD MLOAD PUSH2 0x9E8 JUMPI PUSH1 0x40 MLOAD PUSH32 0x8C379A000000000000000000000000000000000000000000000000000000000 DUP2 MSTORE PUSH1 0x4 ADD PUSH2 0x9DF SWAP1 PUSH2 0x163E JUMP JUMPDEST PUSH1 0x40 MLOAD DUP1 SWAP2 SUB SWAP1 REVERT JUMPDEST DUP2 DUP2 PUSH1 0x60 ADD MLOAD LT ISZERO PUSH2 0xA2F JUMPI PUSH1 0x40 MLOAD PUSH32 0x8C379A000000000000000000000000000000000000000000000000000000000 DUP2 MSTORE PUSH1 0x4 ADD PUSH2 0xA26 SWAP1 PUSH2 0x16A6 JUMP JUMPDEST PUSH1 0x40 MLOAD DUP1 SWAP2 SUB SWAP1 REVERT JUMPDEST DUP1 PUSH1 0xA0 ADD MLOAD PUSH20 0xFFFFFFFFFFFFFFFFFFFFFFFFFFFFFFFFFFFFFFFF AND PUSH2 0x8FC DUP3 PUSH1 0x60 ADD MLOAD SWAP1 DUP2 ISZERO MUL SWAP1 PUSH1 0x40 MLOAD PUSH0 PUSH1 0x40 MLOAD DUP1 DUP4 SUB DUP2 DUP6 DUP9 DUP9 CALL SWAP4 POP POP POP POP ISZERO DUP1 ISZERO PUSH2 0xA7A JUMPI RETURNDATASIZE PUSH0 DUP1 RETURNDATACOPY RETURNDATASIZE PUSH0 REVERT JUMPDEST POP CALLER DUP2 PUSH1 0xA0 ADD SWAP1 PUSH20 0xFFFFFFFFFFFFFFFFFFFFFFFFFFFFFFFFFFFFFFFF AND SWAP1 DUP2 PUSH20 0xFFFFFFFFFFFFFFFFFFFFFFFFFFFFFFFFFFFFFFFF AND DUP2 MSTORE POP POP PUSH0 DUP2 PUSH1 0xC0 ADD SWAP1 ISZERO ISZERO SWAP1 DUP2 ISZERO ISZERO DUP2 MSTORE POP POP PUSH32 0x5551DDF6A1ECDD82B8AF6E580FF1A9AF7760B48836D4A8E413EAC87DA1A2C94 DUP4 DUP4 PUSH1 0x40 MLOAD PUSH2 0xAF4 SWAP3 SWAP2 SWAP1 PUSH2 0x16C4 JUMP JUMPDEST PUSH1 0x40 MLOAD DUP1 SWAP2 SUB SWAP1 LOG1 POP POP POP JUMP JUMPDEST PUSH1 0x1 DUP2 PUSH0 ADD PUSH0 DUP3 DUP3 SLOAD ADD SWAP3 POP POP DUP2 SWAP1 SSTORE POP POP JUMP JUMPDEST PUSH0 DUP2 PUSH0 ADD SLOAD SWAP1 POP SWAP2 SWAP1 POP JUMP JUMPDEST PUSH1 0x40 MLOAD DUP1 PUSH1 0xE0 ADD PUSH1 0x40 MSTORE DUP1 PUSH0 DUP2 MSTORE PUSH1 0x20 ADD PUSH0 DUP2 MSTORE PUSH1 0x20 ADD PUSH1 0x60 DUP2 MSTORE PUSH1 0x20 ADD PUSH0 DUP2 MSTORE PUSH1 0x20 ADD PUSH1 0x60 DUP2 MSTORE PUSH1 0x20 ADD PUSH0 PUSH20 0xFFFFFFFFFFFFFFFFFFFFFFFFFFFFFFFFFFFFFFFF AND DUP2 MSTORE PUSH1 0x20 ADD PUSH0 ISZERO ISZERO DUP2 MSTORE POP SWAP1 JUMP JUMPDEST PUSH0 DUP2 MLOAD SWAP1 POP SWAP2 SWAP1 POP JUMP JUMPDEST PUSH0 DUP3 DUP3 MSTORE PUSH1 0x20 DUP3 ADD SWAP1 POP SWAP3 SWAP2 POP POP JUMP JUMPDEST PUSH0 DUP2 SWAP1 POP PUSH1 0x20 DUP3 ADD SWAP1 POP SWAP2 SWAP1 POP JUMP JUMPDEST PUSH0 DUP2 SWAP1 POP SWAP2 SWAP1 POP JUMP JUMPDEST PUSH2 0xBAC DUP2 PUSH2 0xB9A JUMP JUMPDEST DUP3 MSTORE POP POP JUMP JUMPDEST PUSH0 DUP2 MLOAD SWAP1 POP SWAP2 SWAP1 POP JUMP JUMPDEST PUSH0 DUP3 DUP3 MSTORE PUSH1 0x20 DUP3 ADD SWAP1 POP SWAP3 SWAP2 POP POP JUMP JUMPDEST PUSH0 JUMPDEST DUP4 DUP2 LT ISZERO PUSH2 0xBE9 JUMPI DUP1 DUP3 ADD MLOAD DUP2 DUP5 ADD MSTORE PUSH1 0x20 DUP2 ADD SWAP1 POP PUSH2 0xBCE JUMP JUMPDEST PUSH0 DUP5 DUP5 ADD MSTORE POP POP POP POP JUMP JUMPDEST PUSH0 PUSH1 0x1F NOT PUSH1 0x1F DUP4 ADD AND SWAP1 POP SWAP2 SWAP1 POP JUMP JUMPDEST PUSH0 PUSH2 0xC0E DUP3 PUSH2 0xBB2 JUMP JUMPDEST PUSH2 0xC18 DUP2 DUP6 PUSH2 0xBBC JUMP JUMPDEST SWAP4 POP PUSH2 0xC28 DUP2 DUP6 PUSH1 0x20 DUP7 ADD PUSH2 0xBCC JUMP JUMPDEST PUSH2 0xC31 DUP2 PUSH2 0xBF4 JUMP JUMPDEST DUP5 ADD SWAP2 POP POP SWAP3 SWAP2 POP POP JUMP JUMPDEST PUSH0 PUSH20 0xFFFFFFFFFFFFFFFFFFFFFFFFFFFFFFFFFFFFFFFF DUP3 AND SWAP1 POP SWAP2 SWAP1 POP JUMP JUMPDEST PUSH0 PUSH2 0xC65 DUP3 PUSH2 0xC3C JUMP JUMPDEST SWAP1 POP SWAP2 SWAP1 POP JUMP JUMPDEST PUSH2 0xC75 DUP2 PUSH2 0xC5B JUMP JUMPDEST DUP3 MSTORE POP POP JUMP JUMPDEST PUSH0 DUP2 ISZERO ISZERO SWAP1 POP SWAP2 SWAP1 POP JUMP JUMPDEST PUSH2 0xC8F DUP2 PUSH2 0xC7B JUMP JUMPDEST DUP3 MSTORE POP POP JUMP JUMPDEST PUSH0 PUSH1 0xE0 DUP4 ADD PUSH0 DUP4 ADD MLOAD PUSH2 0xCAA PUSH0 DUP7 ADD DUP3 PUSH2 0xBA3 JUMP JUMPDEST POP PUSH1 0x20 DUP4 ADD MLOAD PUSH2 0xCBD PUSH1 0x20 DUP7 ADD DUP3 PUSH2 0xBA3 JUMP JUMPDEST POP PUSH1 0x40 DUP4 ADD MLOAD DUP5 DUP3 SUB PUSH1 0x40 DUP7 ADD MSTORE PUSH2 0xCD5 DUP3 DUP3 PUSH2 0xC04 JUMP JUMPDEST SWAP2 POP POP PUSH1 0x60 DUP4 ADD MLOAD PUSH2 0xCEA PUSH1 0x60 DUP7 ADD DUP3 PUSH2 0xBA3 JUMP JUMPDEST POP PUSH1 0x80 DUP4 ADD MLOAD DUP5 DUP3 SUB PUSH1 0x80 DUP7 ADD MSTORE PUSH2 0xD02 DUP3 DUP3 PUSH2 0xC04 JUMP JUMPDEST SWAP2 POP POP PUSH1 0xA0 DUP4 ADD MLOAD PUSH2 0xD17 PUSH1 0xA0 DUP7 ADD DUP3 PUSH2 0xC6C JUMP JUMPDEST POP PUSH1 0xC0 DUP4 ADD MLOAD PUSH2 0xD2A PUSH1 0xC0 DUP7 ADD DUP3 PUSH2 0xC86 JUMP JUMPDEST POP DUP1 SWAP2 POP POP SWAP3 SWAP2 POP POP JUMP JUMPDEST PUSH0 PUSH2 0xD40 DUP4 DUP4 PUSH2 0xC95 JUMP JUMPDEST SWAP1 POP SWAP3 SWAP2 POP POP JUMP JUMPDEST PUSH0 PUSH1 0x20 DUP3 ADD SWAP1 POP SWAP2 SWAP1 POP JUMP JUMPDEST PUSH0 PUSH2 0xD5E DUP3 PUSH2 0xB71 JUMP JUMPDEST PUSH2 0xD68 DUP2 DUP6 PUSH2 0xB7B JUMP JUMPDEST SWAP4 POP DUP4 PUSH1 0x20 DUP3 MUL DUP6 ADD PUSH2 0xD7A DUP6 PUSH2 0xB8B JUMP JUMPDEST DUP1 PUSH0 JUMPDEST DUP6 DUP2 LT ISZERO PUSH2 0xDB5 JUMPI DUP5 DUP5 SUB DUP10 MSTORE DUP2 MLOAD PUSH2 0xD96 DUP6 DUP3 PUSH2 0xD35 JUMP JUMPDEST SWAP5 POP PUSH2 0xDA1 DUP4 PUSH2 0xD48 JUMP JUMPDEST SWAP3 POP PUSH1 0x20 DUP11 ADD SWAP10 POP POP PUSH1 0x1 DUP2 ADD SWAP1 POP PUSH2 0xD7D JUMP JUMPDEST POP DUP3 SWAP8 POP DUP8 SWAP6 POP POP POP POP POP POP SWAP3 SWAP2 POP POP JUMP JUMPDEST PUSH0 PUSH1 0x20 DUP3 ADD SWAP1 POP DUP2 DUP2 SUB PUSH0 DUP4 ADD MSTORE PUSH2 0xDDF DUP2 DUP5 PUSH2 0xD54 JUMP JUMPDEST SWAP1 POP SWAP3 SWAP2 POP POP JUMP JUMPDEST PUSH0 PUSH1 0x40 MLOAD SWAP1 POP SWAP1 JUMP JUMPDEST PUSH0 DUP1 REVERT JUMPDEST PUSH0 DUP1 REVERT JUMPDEST PUSH2 0xE01 DUP2 PUSH2 0xB9A JUMP JUMPDEST DUP2 EQ PUSH2 0xE0B JUMPI PUSH0 DUP1 REVERT JUMPDEST POP JUMP JUMPDEST PUSH0 DUP2 CALLDATALOAD SWAP1 POP PUSH2 0xE1C DUP2 PUSH2 0xDF8 JUMP JUMPDEST SWAP3 SWAP2 POP POP JUMP JUMPDEST PUSH0 PUSH1 0x20 DUP3 DUP5 SUB SLT ISZERO PUSH2 0xE37 JUMPI PUSH2 0xE36 PUSH2 0xDF0 JUMP JUMPDEST JUMPDEST PUSH0 PUSH2 0xE44 DUP5 DUP3 DUP6 ADD PUSH2 0xE0E JUMP JUMPDEST SWAP2 POP POP SWAP3 SWAP2 POP POP JUMP JUMPDEST PUSH2 0xE56 DUP2 PUSH2 0xB9A JUMP JUMPDEST DUP3 MSTORE POP POP JUMP JUMPDEST PUSH0 DUP3 DUP3 MSTORE PUSH1 0x20 DUP3 ADD SWAP1 POP SWAP3 SWAP2 POP POP JUMP JUMPDEST PUSH0 PUSH2 0xE76 DUP3 PUSH2 0xBB2 JUMP JUMPDEST PUSH2 0xE80 DUP2 DUP6 PUSH2 0xE5C JUMP JUMPDEST SWAP4 POP PUSH2 0xE90 DUP2 DUP6 PUSH1 0x20 DUP7 ADD PUSH2 0xBCC JUMP JUMPDEST PUSH2 0xE99 DUP2 PUSH2 0xBF4 JUMP JUMPDEST DUP5 ADD SWAP2 POP POP SWAP3 SWAP2 POP POP JUMP JUMPDEST PUSH2 0xEAD DUP2 PUSH2 0xC5B JUMP JUMPDEST DUP3 MSTORE POP POP JUMP JUMPDEST PUSH2 0xEBC DUP2 PUSH2 0xC7B JUMP JUMPDEST DUP3 MSTORE POP POP JUMP JUMPDEST PUSH0 PUSH1 0xE0 DUP3 ADD SWAP1 POP PUSH2 0xED5 PUSH0 DUP4 ADD DUP11 PUSH2 0xE4D JUMP JUMPDEST PUSH2 0xEE2 PUSH1 0x20 DUP4 ADD DUP10 PUSH2 0xE4D JUMP JUMPDEST DUP2 DUP2 SUB PUSH1 0x40 DUP4 ADD MSTORE PUSH2 0xEF4 DUP2 DUP9 PUSH2 0xE6C JUMP JUMPDEST SWAP1 POP PUSH2 0xF03 PUSH1 0x60 DUP4 ADD DUP8 PUSH2 0xE4D JUMP JUMPDEST DUP2 DUP2 SUB PUSH1 0x80 DUP4 ADD MSTORE PUSH2 0xF15 DUP2 DUP7 PUSH2 0xE6C JUMP JUMPDEST SWAP1 POP PUSH2 0xF24 PUSH1 0xA0 DUP4 ADD DUP6 PUSH2 0xEA4 JUMP JUMPDEST PUSH2 0xF31 PUSH1 0xC0 DUP4 ADD DUP5 PUSH2 0xEB3 JUMP JUMPDEST SWAP9 SWAP8 POP POP POP POP POP POP POP POP JUMP JUMPDEST PUSH0 PUSH1 0x20 DUP3 ADD SWAP1 POP PUSH2 0xF50 PUSH0 DUP4 ADD DUP5 PUSH2 0xE4D JUMP JUMPDEST SWAP3 SWAP2 POP POP JUMP JUMPDEST PUSH0 DUP1 REVERT JUMPDEST PUSH0 DUP1 REVERT JUMPDEST PUSH32 0x4E487B7100000000000000000000000000000000000000000000000000000000 PUSH0 MSTORE PUSH1 0x41 PUSH1 0x4 MSTORE PUSH1 0x24 PUSH0 REVERT JUMPDEST PUSH2 0xF94 DUP3 PUSH2 0xBF4 JUMP JUMPDEST DUP2 ADD DUP2 DUP2 LT PUSH8 0xFFFFFFFFFFFFFFFF DUP3 GT OR ISZERO PUSH2 0xFB3 JUMPI PUSH2 0xFB2 PUSH2 0xF5E JUMP JUMPDEST JUMPDEST DUP1 PUSH1 0x40 MSTORE POP POP POP JUMP JUMPDEST PUSH0 PUSH2 0xFC5 PUSH2 0xDE7 JUMP JUMPDEST SWAP1 POP PUSH2 0xFD1 DUP3 DUP3 PUSH2 0xF8B JUMP JUMPDEST SWAP2 SWAP1 POP JUMP JUMPDEST PUSH0 PUSH8 0xFFFFFFFFFFFFFFFF DUP3 GT ISZERO PUSH2 0xFF0 JUMPI PUSH2 0xFEF PUSH2 0xF5E JUMP JUMPDEST JUMPDEST PUSH2 0xFF9 DUP3 PUSH2 0xBF4 JUMP JUMPDEST SWAP1 POP PUSH1 0x20 DUP2 ADD SWAP1 POP SWAP2 SWAP1 POP JUMP JUMPDEST DUP3 DUP2 DUP4 CALLDATACOPY PUSH0 DUP4 DUP4 ADD MSTORE POP POP POP JUMP JUMPDEST PUSH0 PUSH2 0x1026 PUSH2 0x1021 DUP5 PUSH2 0xFD6 JUMP JUMPDEST PUSH2 0xFBC JUMP JUMPDEST SWAP1 POP DUP3 DUP2 MSTORE PUSH1 0x20 DUP2 ADD DUP5 DUP5 DUP5 ADD GT ISZERO PUSH2 0x1042 JUMPI PUSH2 0x1041 PUSH2 0xF5A JUMP JUMPDEST JUMPDEST PUSH2 0x104D DUP5 DUP3 DUP6 PUSH2 0x1006 JUMP JUMPDEST POP SWAP4 SWAP3 POP POP POP JUMP JUMPDEST PUSH0 DUP3 PUSH1 0x1F DUP4 ADD SLT PUSH2 0x1069 JUMPI PUSH2 0x1068 PUSH2 0xF56 JUMP JUMPDEST JUMPDEST DUP2 CALLDATALOAD PUSH2 0x1079 DUP5 DUP3 PUSH1 0x20 DUP7 ADD PUSH2 0x1014 JUMP JUMPDEST SWAP2 POP POP SWAP3 SWAP2 POP POP JUMP JUMPDEST PUSH0 PUSH2 0x108C DUP3 PUSH2 0xC3C JUMP JUMPDEST SWAP1 POP SWAP2 SWAP1 POP JUMP JUMPDEST PUSH2 0x109C DUP2 PUSH2 0x1082 JUMP JUMPDEST DUP2 EQ PUSH2 0x10A6 JUMPI PUSH0 DUP1 REVERT JUMPDEST POP JUMP JUMPDEST PUSH0 DUP2 CALLDATALOAD SWAP1 POP PUSH2 0x10B7 DUP2 PUSH2 0x1093 JUMP JUMPDEST SWAP3 SWAP2 POP POP JUMP JUMPDEST PUSH2 0x10C6 DUP2 PUSH2 0xC7B JUMP JUMPDEST DUP2 EQ PUSH2 0x10D0 JUMPI PUSH0 DUP1 REVERT JUMPDEST POP JUMP JUMPDEST PUSH0 DUP2 CALLDATALOAD SWAP1 POP PUSH2 0x10E1 DUP2 PUSH2 0x10BD JUMP JUMPDEST SWAP3 SWAP2 POP POP JUMP JUMPDEST PUSH0 DUP1 PUSH0 DUP1 PUSH0 DUP1 PUSH1 0xC0 DUP8 DUP10 SUB SLT ISZERO PUSH2 0x1101 JUMPI PUSH2 0x1100 PUSH2 0xDF0 JUMP JUMPDEST JUMPDEST PUSH0 PUSH2 0x110E DUP10 DUP3 DUP11 ADD PUSH2 0xE0E JUMP JUMPDEST SWAP7 POP POP PUSH1 0x20 DUP8 ADD CALLDATALOAD PUSH8 0xFFFFFFFFFFFFFFFF DUP2 GT ISZERO PUSH2 0x112F JUMPI PUSH2 0x112E PUSH2 0xDF4 JUMP JUMPDEST JUMPDEST PUSH2 0x113B DUP10 DUP3 DUP11 ADD PUSH2 0x1055 JUMP JUMPDEST SWAP6 POP POP PUSH1 0x40 PUSH2 0x114C DUP10 DUP3 DUP11 ADD PUSH2 0xE0E JUMP JUMPDEST SWAP5 POP POP PUSH1 0x60 DUP8 ADD CALLDATALOAD PUSH8 0xFFFFFFFFFFFFFFFF DUP2 GT ISZERO PUSH2 0x116D JUMPI PUSH2 0x116C PUSH2 0xDF4 JUMP JUMPDEST JUMPDEST PUSH2 0x1179 DUP10 DUP3 DUP11 ADD PUSH2 0x1055 JUMP JUMPDEST SWAP4 POP POP PUSH1 0x80 PUSH2 0x118A DUP10 DUP3 DUP11 ADD PUSH2 0x10A9 JUMP JUMPDEST SWAP3 POP POP PUSH1 0xA0 PUSH2 0x119B DUP10 DUP3 DUP11 ADD PUSH2 0x10D3 JUMP JUMPDEST SWAP2 POP POP SWAP3 SWAP6 POP SWAP3 SWAP6 POP SWAP3 SWAP6 JUMP JUMPDEST PUSH0 DUP1 PUSH1 0x40 DUP4 DUP6 SUB SLT ISZERO PUSH2 0x11BE JUMPI PUSH2 0x11BD PUSH2 0xDF0 JUMP JUMPDEST JUMPDEST PUSH0 PUSH2 0x11CB DUP6 DUP3 DUP7 ADD PUSH2 0xE0E JUMP JUMPDEST SWAP3 POP POP PUSH1 0x20 PUSH2 0x11DC DUP6 DUP3 DUP7 ADD PUSH2 0xE0E JUMP JUMPDEST SWAP2 POP POP SWAP3 POP SWAP3 SWAP1 POP JUMP JUMPDEST PUSH32 0x4E487B7100000000000000000000000000000000000000000000000000000000 PUSH0 MSTORE PUSH1 0x32 PUSH1 0x4 MSTORE PUSH1 0x24 PUSH0 REVERT JUMPDEST PUSH32 0x4E487B7100000000000000000000000000000000000000000000000000000000 PUSH0 MSTORE PUSH1 0x22 PUSH1 0x4 MSTORE PUSH1 0x24 PUSH0 REVERT JUMPDEST PUSH0 PUSH1 0x2 DUP3 DIV SWAP1 POP PUSH1 0x1 DUP3 AND DUP1 PUSH2 0x1257 JUMPI PUSH1 0x7F DUP3 AND SWAP2 POP JUMPDEST PUSH1 0x20 DUP3 LT DUP2 SUB PUSH2 0x126A JUMPI PUSH2 0x1269 PUSH2 0x1213 JUMP JUMPDEST JUMPDEST POP SWAP2 SWAP1 POP JUMP JUMPDEST PUSH32 0x4F6E6C7920546865204167656E6379204F776E65722043616E20416464206361 PUSH0 DUP3 ADD MSTORE PUSH32 0x7273212121000000000000000000000000000000000000000000000000000000 PUSH1 0x20 DUP3 ADD MSTORE POP JUMP JUMPDEST PUSH0 PUSH2 0x12CA PUSH1 0x25 DUP4 PUSH2 0xE5C JUMP JUMPDEST SWAP2 POP PUSH2 0x12D5 DUP3 PUSH2 0x1270 JUMP JUMPDEST PUSH1 0x40 DUP3 ADD SWAP1 POP SWAP2 SWAP1 POP JUMP JUMPDEST PUSH0 PUSH1 0x20 DUP3 ADD SWAP1 POP DUP2 DUP2 SUB PUSH0 DUP4 ADD MSTORE PUSH2 0x12F7 DUP2 PUSH2 0x12BE JUMP JUMPDEST SWAP1 POP SWAP2 SWAP1 POP JUMP JUMPDEST PUSH0 DUP2 SWAP1 POP DUP2 PUSH0 MSTORE PUSH1 0x20 PUSH0 KECCAK256 SWAP1 POP SWAP2 SWAP1 POP JUMP JUMPDEST PUSH0 PUSH1 0x20 PUSH1 0x1F DUP4 ADD DIV SWAP1 POP SWAP2 SWAP1 POP JUMP JUMPDEST PUSH0 DUP3 DUP3 SHL SWAP1 POP SWAP3 SWAP2 POP POP JUMP JUMPDEST PUSH0 PUSH1 0x8 DUP4 MUL PUSH2 0x135A PUSH32 0xFFFFFFFFFFFFFFFFFFFFFFFFFFFFFFFFFFFFFFFFFFFFFFFFFFFFFFFFFFFFFFFF DUP3 PUSH2 0x131F JUMP JUMPDEST PUSH2 0x1364 DUP7 DUP4 PUSH2 0x131F JUMP JUMPDEST SWAP6 POP DUP1 NOT DUP5 AND SWAP4 POP DUP1 DUP7 AND DUP5 OR SWAP3 POP POP POP SWAP4 SWAP3 POP POP POP JUMP JUMPDEST PUSH0 DUP2 SWAP1 POP SWAP2 SWAP1 POP JUMP JUMPDEST PUSH0 PUSH2 0x139F PUSH2 0x139A PUSH2 0x1395 DUP5 PUSH2 0xB9A JUMP JUMPDEST PUSH2 0x137C JUMP JUMPDEST PUSH2 0xB9A JUMP JUMPDEST SWAP1 POP SWAP2 SWAP1 POP JUMP JUMPDEST PUSH0 DUP2 SWAP1 POP SWAP2 SWAP1 POP JUMP JUMPDEST PUSH2 0x13B8 DUP4 PUSH2 0x1385 JUMP JUMPDEST PUSH2 0x13CC PUSH2 0x13C4 DUP3 PUSH2 0x13A6 JUMP JUMPDEST DUP5 DUP5 SLOAD PUSH2 0x132B JUMP JUMPDEST DUP3 SSTORE POP POP POP POP JUMP JUMPDEST PUSH0 SWAP1 JUMP JUMPDEST PUSH2 0x13E0 PUSH2 0x13D4 JUMP JUMPDEST PUSH2 0x13EB DUP2 DUP5 DUP5 PUSH2 0x13AF JUMP JUMPDEST POP POP POP JUMP JUMPDEST JUMPDEST DUP2 DUP2 LT ISZERO PUSH2 0x140E JUMPI PUSH2 0x1403 PUSH0 DUP3 PUSH2 0x13D8 JUMP JUMPDEST PUSH1 0x1 DUP2 ADD SWAP1 POP PUSH2 0x13F1 JUMP JUMPDEST POP POP JUMP JUMPDEST PUSH1 0x1F DUP3 GT ISZERO PUSH2 0x1453 JUMPI PUSH2 0x1424 DUP2 PUSH2 0x12FE JUMP JUMPDEST PUSH2 0x142D DUP5 PUSH2 0x1310 JUMP JUMPDEST DUP2 ADD PUSH1 0x20 DUP6 LT ISZERO PUSH2 0x143C JUMPI DUP2 SWAP1 POP JUMPDEST PUSH2 0x1450 PUSH2 0x1448 DUP6 PUSH2 0x1310 JUMP JUMPDEST DUP4 ADD DUP3 PUSH2 0x13F0 JUMP JUMPDEST POP POP JUMPDEST POP POP POP JUMP JUMPDEST PUSH0 DUP3 DUP3 SHR SWAP1 POP SWAP3 SWAP2 POP POP JUMP JUMPDEST PUSH0 PUSH2 0x1473 PUSH0 NOT DUP5 PUSH1 0x8 MUL PUSH2 0x1458 JUMP JUMPDEST NOT DUP1 DUP4 AND SWAP2 POP POP SWAP3 SWAP2 POP POP JUMP JUMPDEST PUSH0 PUSH2 0x148B DUP4 DUP4 PUSH2 0x1464 JUMP JUMPDEST SWAP2 POP DUP3 PUSH1 0x2 MUL DUP3 OR SWAP1 POP SWAP3 SWAP2 POP POP JUMP JUMPDEST PUSH2 0x14A4 DUP3 PUSH2 0xBB2 JUMP JUMPDEST PUSH8 0xFFFFFFFFFFFFFFFF DUP2 GT ISZERO PUSH2 0x14BD JUMPI PUSH2 0x14BC PUSH2 0xF5E JUMP JUMPDEST JUMPDEST PUSH2 0x14C7 DUP3 SLOAD PUSH2 0x1240 JUMP JUMPDEST PUSH2 0x14D2 DUP3 DUP3 DUP6 PUSH2 0x1412 JUMP JUMPDEST PUSH0 PUSH1 0x20 SWAP1 POP PUSH1 0x1F DUP4 GT PUSH1 0x1 DUP2 EQ PUSH2 0x1503 JUMPI PUSH0 DUP5 ISZERO PUSH2 0x14F1 JUMPI DUP3 DUP8 ADD MLOAD SWAP1 POP JUMPDEST PUSH2 0x14FB DUP6 DUP3 PUSH2 0x1480 JUMP JUMPDEST DUP7 SSTORE POP PUSH2 0x1562 JUMP JUMPDEST PUSH1 0x1F NOT DUP5 AND PUSH2 0x1511 DUP7 PUSH2 0x12FE JUMP JUMPDEST PUSH0 JUMPDEST DUP3 DUP2 LT ISZERO PUSH2 0x1538 JUMPI DUP5 DUP10 ADD MLOAD DUP3 SSTORE PUSH1 0x1 DUP3 ADD SWAP2 POP PUSH1 0x20 DUP6 ADD SWAP5 POP PUSH1 0x20 DUP2 ADD SWAP1 POP PUSH2 0x1513 JUMP JUMPDEST DUP7 DUP4 LT ISZERO PUSH2 0x1555 JUMPI DUP5 DUP10 ADD MLOAD PUSH2 0x1551 PUSH1 0x1F DUP10 AND DUP3 PUSH2 0x1464 JUMP JUMPDEST DUP4 SSTORE POP JUMPDEST PUSH1 0x1 PUSH1 0x2 DUP9 MUL ADD DUP9 SSTORE POP POP POP JUMPDEST POP POP POP POP POP POP JUMP JUMPDEST PUSH2 0x1573 DUP2 PUSH2 0x1082 JUMP JUMPDEST DUP3 MSTORE POP POP JUMP JUMPDEST PUSH0 PUSH1 0xE0 DUP3 ADD SWAP1 POP PUSH2 0x158C PUSH0 DUP4 ADD DUP11 PUSH2 0xE4D JUMP JUMPDEST PUSH2 0x1599 PUSH1 0x20 DUP4 ADD DUP10 PUSH2 0xE4D JUMP JUMPDEST DUP2 DUP2 SUB PUSH1 0x40 DUP4 ADD MSTORE PUSH2 0x15AB DUP2 DUP9 PUSH2 0xE6C JUMP JUMPDEST SWAP1 POP PUSH2 0x15BA PUSH1 0x60 DUP4 ADD DUP8 PUSH2 0xE4D JUMP JUMPDEST DUP2 DUP2 SUB PUSH1 0x80 DUP4 ADD MSTORE PUSH2 0x15CC DUP2 DUP7 PUSH2 0xE6C JUMP JUMPDEST SWAP1 POP PUSH2 0x15DB PUSH1 0xA0 DUP4 ADD DUP6 PUSH2 0x156A JUMP JUMPDEST PUSH2 0x15E8 PUSH1 0xC0 DUP4 ADD DUP5 PUSH2 0xEB3 JUMP JUMPDEST SWAP9 SWAP8 POP POP POP POP POP POP POP POP JUMP JUMPDEST PUSH32 0x43617220697320616C726561647920536F6C6400000000000000000000000000 PUSH0 DUP3 ADD MSTORE POP JUMP JUMPDEST PUSH0 PUSH2 0x1628 PUSH1 0x13 DUP4 PUSH2 0xE5C JUMP JUMPDEST SWAP2 POP PUSH2 0x1633 DUP3 PUSH2 0x15F4 JUMP JUMPDEST PUSH1 0x20 DUP3 ADD SWAP1 POP SWAP2 SWAP1 POP JUMP JUMPDEST PUSH0 PUSH1 0x20 DUP3 ADD SWAP1 POP DUP2 DUP2 SUB PUSH0 DUP4 ADD MSTORE PUSH2 0x1655 DUP2 PUSH2 0x161C JUMP JUMPDEST SWAP1 POP SWAP2 SWAP1 POP JUMP JUMPDEST PUSH32 0x57726F6E67204361722076616C75652000000000000000000000000000000000 PUSH0 DUP3 ADD MSTORE POP JUMP JUMPDEST PUSH0 PUSH2 0x1690 PUSH1 0x10 DUP4 PUSH2 0xE5C JUMP JUMPDEST SWAP2 POP PUSH2 0x169B DUP3 PUSH2 0x165C JUMP JUMPDEST PUSH1 0x20 DUP3 ADD SWAP1 POP SWAP2 SWAP1 POP JUMP JUMPDEST PUSH0 PUSH1 0x20 DUP3 ADD SWAP1 POP DUP2 DUP2 SUB PUSH0 DUP4 ADD MSTORE PUSH2 0x16BD DUP2 PUSH2 0x1684 JUMP JUMPDEST SWAP1 POP SWAP2 SWAP1 POP JUMP JUMPDEST PUSH0 PUSH1 0x40 DUP3 ADD SWAP1 POP PUSH2 0x16D7 PUSH0 DUP4 ADD DUP6 PUSH2 0xE4D JUMP JUMPDEST PUSH2 0x16E4 PUSH1 0x20 DUP4 ADD DUP5 PUSH2 0xE4D JUMP JUMPDEST SWAP4 SWAP3 POP POP POP JUMP INVALID LOG2 PUSH5 0x6970667358 0x22 SLT KECCAK256 BASEFEE 0xE1 0xF7 0xCB SWAP16 CALLDATALOAD STOP MSTORE BALANCE 0xC2 0xCC 0x4C CODESIZE NUMBER CALLCODE 0xEC CREATE SWAP6 CALLVALUE 0xAF ORIGIN SWAP3 0xDF 0xC1 0xD3 LOG4 0x2E 0xDC DUP9 0xE1 0x2B 0xE9 PUSH5 0x736F6C6343 STOP ADDMOD AND STOP CALLER "
				},
				"gasEstimates": {
					"creation": {
						"codeDepositCost": "1184200",
						"executionCost": "25497",
						"totalCost": "1209697"
					},
					"external": {
						"AddCar(uint256,string,uint256,string,address,bool)": "infinite",
						"AllCars()": "infinite",
						"ListCars(uint256)": "infinite",
						"MapCars(uint256)": "infinite",
						"SellCar(uint256,uint256)": "infinite"
					}
				},
				"methodIdentifiers": {
					"AddCar(uint256,string,uint256,string,address,bool)": "e98d8383",
					"AllCars()": "9537d6cf",
					"ListCars(uint256)": "d923b3d8",
					"MapCars(uint256)": "9abb94d4",
					"SellCar(uint256,uint256)": "fadbb1e1"
				}
			},
			"storageLayout": {
				"storage": [
					{
						"astId": 98,
						"contract": "contracts/Cars.sol:CarAgency",
						"label": "_CurrentCarID",
						"offset": 0,
						"slot": "0",
						"type": "t_struct(Counter)5_storage"
					},
					{
						"astId": 122,
						"contract": "contracts/Cars.sol:CarAgency",
						"label": "AgencyOwner",
						"offset": 0,
						"slot": "1",
						"type": "t_address"
					},
					{
						"astId": 136,
						"contract": "contracts/Cars.sol:CarAgency",
						"label": "MapCars",
						"offset": 0,
						"slot": "2",
						"type": "t_mapping(t_uint256,t_struct(Struct_Car)95_storage)"
					},
					{
						"astId": 139,
						"contract": "contracts/Cars.sol:CarAgency",
						"label": "ListCars",
						"offset": 0,
						"slot": "3",
						"type": "t_array(t_uint256)dyn_storage"
					}
				],
				"types": {
					"t_address": {
						"encoding": "inplace",
						"label": "address",
						"numberOfBytes": "20"
					},
					"t_address_payable": {
						"encoding": "inplace",
						"label": "address payable",
						"numberOfBytes": "20"
					},
					"t_array(t_uint256)dyn_storage": {
						"base": "t_uint256",
						"encoding": "dynamic_array",
						"label": "uint256[]",
						"numberOfBytes": "32"
					},
					"t_bool": {
						"encoding": "inplace",
						"label": "bool",
						"numberOfBytes": "1"
					},
					"t_mapping(t_uint256,t_struct(Struct_Car)95_storage)": {
						"encoding": "mapping",
						"key": "t_uint256",
						"label": "mapping(uint256 => struct CarAgency.Struct_Car)",
						"numberOfBytes": "32",
						"value": "t_struct(Struct_Car)95_storage"
					},
					"t_string_storage": {
						"encoding": "bytes",
						"label": "string",
						"numberOfBytes": "32"
					},
					"t_struct(Counter)5_storage": {
						"encoding": "inplace",
						"label": "struct Counters.Counter",
						"members": [
							{
								"astId": 4,
								"contract": "contracts/Cars.sol:CarAgency",
								"label": "_value",
								"offset": 0,
								"slot": "0",
								"type": "t_uint256"
							}
						],
						"numberOfBytes": "32"
					},
					"t_struct(Struct_Car)95_storage": {
						"encoding": "inplace",
						"label": "struct CarAgency.Struct_Car",
						"members": [
							{
								"astId": 82,
								"contract": "contracts/Cars.sol:CarAgency",
								"label": "Car_id",
								"offset": 0,
								"slot": "0",
								"type": "t_uint256"
							},
							{
								"astId": 84,
								"contract": "contracts/Cars.sol:CarAgency",
								"label": "Car_model",
								"offset": 0,
								"slot": "1",
								"type": "t_uint256"
							},
							{
								"astId": 86,
								"contract": "contracts/Cars.sol:CarAgency",
								"label": "Car_color",
								"offset": 0,
								"slot": "2",
								"type": "t_string_storage"
							},
							{
								"astId": 88,
								"contract": "contracts/Cars.sol:CarAgency",
								"label": "Car_Price",
								"offset": 0,
								"slot": "3",
								"type": "t_uint256"
							},
							{
								"astId": 90,
								"contract": "contracts/Cars.sol:CarAgency",
								"label": "Car_Name",
								"offset": 0,
								"slot": "4",
								"type": "t_string_storage"
							},
							{
								"astId": 92,
								"contract": "contracts/Cars.sol:CarAgency",
								"label": "OwnedBy",
								"offset": 0,
								"slot": "5",
								"type": "t_address_payable"
							},
							{
								"astId": 94,
								"contract": "contracts/Cars.sol:CarAgency",
								"label": "Car_State",
								"offset": 20,
								"slot": "5",
								"type": "t_bool"
							}
						],
						"numberOfBytes": "192"
					},
					"t_uint256": {
						"encoding": "inplace",
						"label": "uint256",
						"numberOfBytes": "32"
					}
				}
			},
			"userdoc": {
				"kind": "user",
				"methods": {},
				"version": 1
			}
		}
	}
}