{
	"contracts/company.sol": {
		"Company": {
			"abi": [
				{
					"inputs": [],
					"stateMutability": "nonpayable",
					"type": "constructor"
				},
				{
					"inputs": [
						{
							"internalType": "uint256",
							"name": "id",
							"type": "uint256"
						},
						{
							"components": [
								{
									"internalType": "uint256",
									"name": "id",
									"type": "uint256"
								},
								{
									"internalType": "uint256",
									"name": "model",
									"type": "uint256"
								},
								{
									"internalType": "string",
									"name": "vim_number",
									"type": "string"
								},
								{
									"internalType": "uint256",
									"name": "company_number",
									"type": "uint256"
								},
								{
									"internalType": "string",
									"name": "plate_number",
									"type": "string"
								},
								{
									"internalType": "uint256",
									"name": "nft_token_id",
									"type": "uint256"
								},
								{
									"internalType": "uint256",
									"name": "expire_date",
									"type": "uint256"
								},
								{
									"internalType": "enum Company.BusStatus",
									"name": "status",
									"type": "uint8"
								},
								{
									"internalType": "address",
									"name": "owner",
									"type": "address"
								},
								{
									"internalType": "address",
									"name": "creator",
									"type": "address"
								}
							],
							"internalType": "struct Company.BusItem",
							"name": "bus",
							"type": "tuple"
						}
					],
					"name": "addBus",
					"outputs": [],
					"stateMutability": "nonpayable",
					"type": "function"
				},
				{
					"inputs": [
						{
							"internalType": "uint256",
							"name": "",
							"type": "uint256"
						}
					],
					"name": "buses",
					"outputs": [
						{
							"internalType": "uint256",
							"name": "id",
							"type": "uint256"
						},
						{
							"internalType": "uint256",
							"name": "model",
							"type": "uint256"
						},
						{
							"internalType": "string",
							"name": "vim_number",
							"type": "string"
						},
						{
							"internalType": "uint256",
							"name": "company_number",
							"type": "uint256"
						},
						{
							"internalType": "string",
							"name": "plate_number",
							"type": "string"
						},
						{
							"internalType": "uint256",
							"name": "nft_token_id",
							"type": "uint256"
						},
						{
							"internalType": "uint256",
							"name": "expire_date",
							"type": "uint256"
						},
						{
							"internalType": "enum Company.BusStatus",
							"name": "status",
							"type": "uint8"
						},
						{
							"internalType": "address",
							"name": "owner",
							"type": "address"
						},
						{
							"internalType": "address",
							"name": "creator",
							"type": "address"
						}
					],
					"stateMutability": "view",
					"type": "function"
				},
				{
					"inputs": [],
					"name": "coordinatorAddress",
					"outputs": [
						{
							"internalType": "address",
							"name": "",
							"type": "address"
						}
					],
					"stateMutability": "view",
					"type": "function"
				},
				{
					"inputs": [
						{
							"internalType": "uint256",
							"name": "id",
							"type": "uint256"
						}
					],
					"name": "getBusData",
					"outputs": [
						{
							"components": [
								{
									"internalType": "uint256",
									"name": "id",
									"type": "uint256"
								},
								{
									"internalType": "uint256",
									"name": "model",
									"type": "uint256"
								},
								{
									"internalType": "string",
									"name": "vim_number",
									"type": "string"
								},
								{
									"internalType": "uint256",
									"name": "company_number",
									"type": "uint256"
								},
								{
									"internalType": "string",
									"name": "plate_number",
									"type": "string"
								},
								{
									"internalType": "uint256",
									"name": "nft_token_id",
									"type": "uint256"
								},
								{
									"internalType": "uint256",
									"name": "expire_date",
									"type": "uint256"
								},
								{
									"internalType": "enum Company.BusStatus",
									"name": "status",
									"type": "uint8"
								},
								{
									"internalType": "address",
									"name": "owner",
									"type": "address"
								},
								{
									"internalType": "address",
									"name": "creator",
									"type": "address"
								}
							],
							"internalType": "struct Company.BusItem",
							"name": "",
							"type": "tuple"
						}
					],
					"stateMutability": "view",
					"type": "function"
				},
				{
					"inputs": [
						{
							"internalType": "uint256",
							"name": "id",
							"type": "uint256"
						},
						{
							"internalType": "enum Company.BusStatus",
							"name": "newStatus",
							"type": "uint8"
						},
						{
							"internalType": "address",
							"name": "newOwner",
							"type": "address"
						}
					],
					"name": "updateBusStatusAndOwner",
					"outputs": [],
					"stateMutability": "nonpayable",
					"type": "function"
				}
			],
			"devdoc": {
				"kind": "dev",
				"methods": {},
				"version": 1
			},
			"evm": {
				"assembly": "    /* \"contracts/company.sol\":72:1208  contract Company {... */\n  mstore(0x40, 0x80)\n    /* \"contracts/company.sol\":566:641  constructor() {... */\n  callvalue\n  dup1\n  iszero\n  tag_1\n  jumpi\n  0x00\n  dup1\n  revert\ntag_1:\n  pop\n    /* \"contracts/company.sol\":72:1208  contract Company {... */\n  dataSize(sub_0)\n  dup1\n  dataOffset(sub_0)\n  0x00\n  codecopy\n  0x00\n  return\nstop\n\nsub_0: assembly {\n        /* \"contracts/company.sol\":72:1208  contract Company {... */\n      mstore(0x40, 0x80)\n      callvalue\n      dup1\n      iszero\n      tag_1\n      jumpi\n      0x00\n      dup1\n      revert\n    tag_1:\n      pop\n      jumpi(tag_2, lt(calldatasize, 0x04))\n      shr(0xe0, calldataload(0x00))\n      dup1\n      0x52764e03\n      eq\n      tag_3\n      jumpi\n      dup1\n      0x82003b31\n      eq\n      tag_4\n      jumpi\n      dup1\n      0xe8536dd6\n      eq\n      tag_5\n      jumpi\n      dup1\n      0xf2c24032\n      eq\n      tag_6\n      jumpi\n      dup1\n      0xf456a8c2\n      eq\n      tag_7\n      jumpi\n    tag_2:\n      0x00\n      dup1\n      revert\n        /* \"contracts/company.sol\":477:517  mapping(uint256 => BusItem) public buses */\n    tag_3:\n      tag_8\n      0x04\n      dup1\n      calldatasize\n      sub\n      dup2\n      add\n      swap1\n      tag_9\n      swap2\n      swap1\n      tag_10\n      jump\t// in\n    tag_9:\n      tag_11\n      jump\t// in\n    tag_8:\n      mload(0x40)\n      tag_12\n      swap11\n      swap10\n      swap9\n      swap8\n      swap7\n      swap6\n      swap5\n      swap4\n      swap3\n      swap2\n      swap1\n      tag_13\n      jump\t// in\n    tag_12:\n      mload(0x40)\n      dup1\n      swap2\n      sub\n      swap1\n      return\n        /* \"contracts/company.sol\":524:557  address public coordinatorAddress */\n    tag_4:\n      tag_14\n      tag_15\n      jump\t// in\n    tag_14:\n      mload(0x40)\n      tag_16\n      swap2\n      swap1\n      tag_17\n      jump\t// in\n    tag_16:\n      mload(0x40)\n      dup1\n      swap2\n      sub\n      swap1\n      return\n        /* \"contracts/company.sol\":913:1161  function updateBusStatusAndOwner(uint256 id, BusStatus newStatus, address newOwner) public {... */\n    tag_5:\n      tag_18\n      0x04\n      dup1\n      calldatasize\n      sub\n      dup2\n      add\n      swap1\n      tag_19\n      swap2\n      swap1\n      tag_20\n      jump\t// in\n    tag_19:\n      tag_21\n      jump\t// in\n    tag_18:\n      stop\n        /* \"contracts/company.sol\":801:905  function getBusData(uint256 id) public view returns (BusItem memory) {... */\n    tag_6:\n      tag_22\n      0x04\n      dup1\n      calldatasize\n      sub\n      dup2\n      add\n      swap1\n      tag_23\n      swap2\n      swap1\n      tag_10\n      jump\t// in\n    tag_23:\n      tag_24\n      jump\t// in\n    tag_22:\n      mload(0x40)\n      tag_25\n      swap2\n      swap1\n      tag_26\n      jump\t// in\n    tag_25:\n      mload(0x40)\n      dup1\n      swap2\n      sub\n      swap1\n      return\n        /* \"contracts/company.sol\":649:793  function addBus(uint256 id, BusItem memory bus) public {... */\n    tag_7:\n      tag_27\n      0x04\n      dup1\n      calldatasize\n      sub\n      dup2\n      add\n      swap1\n      tag_28\n      swap2\n      swap1\n      tag_29\n      jump\t// in\n    tag_28:\n      tag_30\n      jump\t// in\n    tag_27:\n      stop\n        /* \"contracts/company.sol\":477:517  mapping(uint256 => BusItem) public buses */\n    tag_11:\n      mstore(0x20, 0x00)\n      dup1\n      0x00\n      mstore\n      keccak256(0x00, 0x40)\n      0x00\n      swap2\n      pop\n      swap1\n      pop\n      dup1\n      0x00\n      add\n      sload\n      swap1\n      dup1\n      0x01\n      add\n      sload\n      swap1\n      dup1\n      0x02\n      add\n      dup1\n      sload\n      tag_31\n      swap1\n      tag_32\n      jump\t// in\n    tag_31:\n      dup1\n      0x1f\n      add\n      0x20\n      dup1\n      swap2\n      div\n      mul\n      0x20\n      add\n      mload(0x40)\n      swap1\n      dup2\n      add\n      0x40\n      mstore\n      dup1\n      swap3\n      swap2\n      swap1\n      dup2\n      dup2\n      mstore\n      0x20\n      add\n      dup3\n      dup1\n      sload\n      tag_33\n      swap1\n      tag_32\n      jump\t// in\n    tag_33:\n      dup1\n      iszero\n      tag_34\n      jumpi\n      dup1\n      0x1f\n      lt\n      tag_35\n      jumpi\n      0x0100\n      dup1\n      dup4\n      sload\n      div\n      mul\n      dup4\n      mstore\n      swap2\n      0x20\n      add\n      swap2\n      jump(tag_34)\n    tag_35:\n      dup3\n      add\n      swap2\n      swap1\n      0x00\n      mstore\n      keccak256(0x00, 0x20)\n      swap1\n    tag_36:\n      dup2\n      sload\n      dup2\n      mstore\n      swap1\n      0x01\n      add\n      swap1\n      0x20\n      add\n      dup1\n      dup4\n      gt\n      tag_36\n      jumpi\n      dup3\n      swap1\n      sub\n      0x1f\n      and\n      dup3\n      add\n      swap2\n    tag_34:\n      pop\n      pop\n      pop\n      pop\n      pop\n      swap1\n      dup1\n      0x03\n      add\n      sload\n      swap1\n      dup1\n      0x04\n      add\n      dup1\n      sload\n      tag_37\n      swap1\n      tag_32\n      jump\t// in\n    tag_37:\n      dup1\n      0x1f\n      add\n      0x20\n      dup1\n      swap2\n      div\n      mul\n      0x20\n      add\n      mload(0x40)\n      swap1\n      dup2\n      add\n      0x40\n      mstore\n      dup1\n      swap3\n      swap2\n      swap1\n      dup2\n      dup2\n      mstore\n      0x20\n      add\n      dup3\n      dup1\n      sload\n      tag_38\n      swap1\n      tag_32\n      jump\t// in\n    tag_38:\n      dup1\n      iszero\n      tag_39\n      jumpi\n      dup1\n      0x1f\n      lt\n      tag_40\n      jumpi\n      0x0100\n      dup1\n      dup4\n      sload\n      div\n      mul\n      dup4\n      mstore\n      swap2\n      0x20\n      add\n      swap2\n      jump(tag_39)\n    tag_40:\n      dup3\n      add\n      swap2\n      swap1\n      0x00\n      mstore\n      keccak256(0x00, 0x20)\n      swap1\n    tag_41:\n      dup2\n      sload\n      dup2\n      mstore\n      swap1\n      0x01\n      add\n      swap1\n      0x20\n      add\n      dup1\n      dup4\n      gt\n      tag_41\n      jumpi\n      dup3\n      swap1\n      sub\n      0x1f\n      and\n      dup3\n      add\n      swap2\n    tag_39:\n      pop\n      pop\n      pop\n      pop\n      pop\n      swap1\n      dup1\n      0x05\n      add\n      sload\n      swap1\n      dup1\n      0x06\n      add\n      sload\n      swap1\n      dup1\n      0x07\n      add\n      0x00\n      swap1\n      sload\n      swap1\n      0x0100\n      exp\n      swap1\n      div\n      0xff\n      and\n      swap1\n      dup1\n      0x07\n      add\n      0x01\n      swap1\n      sload\n      swap1\n      0x0100\n      exp\n      swap1\n      div\n      0xffffffffffffffffffffffffffffffffffffffff\n      and\n      swap1\n      dup1\n      0x08\n      add\n      0x00\n      swap1\n      sload\n      swap1\n      0x0100\n      exp\n      swap1\n      div\n      0xffffffffffffffffffffffffffffffffffffffff\n      and\n      swap1\n      pop\n      dup11\n      jump\t// out\n        /* \"contracts/company.sol\":524:557  address public coordinatorAddress */\n    tag_15:\n      0x01\n      0x00\n      swap1\n      sload\n      swap1\n      0x0100\n      exp\n      swap1\n      div\n      0xffffffffffffffffffffffffffffffffffffffff\n      and\n      dup2\n      jump\t// out\n        /* \"contracts/company.sol\":913:1161  function updateBusStatusAndOwner(uint256 id, BusStatus newStatus, address newOwner) public {... */\n    tag_21:\n        /* \"contracts/company.sol\":1107:1116  newStatus */\n      dup2\n        /* \"contracts/company.sol\":1088:1093  buses */\n      0x00\n        /* \"contracts/company.sol\":1088:1097  buses[id] */\n      dup1\n        /* \"contracts/company.sol\":1094:1096  id */\n      dup6\n        /* \"contracts/company.sol\":1088:1097  buses[id] */\n      dup2\n      mstore\n      0x20\n      add\n      swap1\n      dup2\n      mstore\n      0x20\n      add\n      0x00\n      keccak256\n        /* \"contracts/company.sol\":1088:1104  buses[id].status */\n      0x07\n      add\n      0x00\n        /* \"contracts/company.sol\":1088:1116  buses[id].status = newStatus */\n      0x0100\n      exp\n      dup2\n      sload\n      dup2\n      0xff\n      mul\n      not\n      and\n      swap1\n      dup4\n      0x04\n      dup2\n      gt\n      iszero\n      tag_43\n      jumpi\n      tag_44\n      tag_45\n      jump\t// in\n    tag_44:\n    tag_43:\n      mul\n      or\n      swap1\n      sstore\n      pop\n        /* \"contracts/company.sol\":1145:1153  newOwner */\n      dup1\n        /* \"contracts/company.sol\":1127:1132  buses */\n      0x00\n        /* \"contracts/company.sol\":1127:1136  buses[id] */\n      dup1\n        /* \"contracts/company.sol\":1133:1135  id */\n      dup6\n        /* \"contracts/company.sol\":1127:1136  buses[id] */\n      dup2\n      mstore\n      0x20\n      add\n      swap1\n      dup2\n      mstore\n      0x20\n      add\n      0x00\n      keccak256\n        /* \"contracts/company.sol\":1127:1142  buses[id].owner */\n      0x07\n      add\n      0x01\n        /* \"contracts/company.sol\":1127:1153  buses[id].owner = newOwner */\n      0x0100\n      exp\n      dup2\n      sload\n      dup2\n      0xffffffffffffffffffffffffffffffffffffffff\n      mul\n      not\n      and\n      swap1\n      dup4\n      0xffffffffffffffffffffffffffffffffffffffff\n      and\n      mul\n      or\n      swap1\n      sstore\n      pop\n        /* \"contracts/company.sol\":913:1161  function updateBusStatusAndOwner(uint256 id, BusStatus newStatus, address newOwner) public {... */\n      pop\n      pop\n      pop\n      jump\t// out\n        /* \"contracts/company.sol\":801:905  function getBusData(uint256 id) public view returns (BusItem memory) {... */\n    tag_24:\n        /* \"contracts/company.sol\":854:868  BusItem memory */\n      tag_46\n      tag_47\n      jump\t// in\n    tag_46:\n        /* \"contracts/company.sol\":888:893  buses */\n      0x00\n        /* \"contracts/company.sol\":888:897  buses[id] */\n      dup1\n        /* \"contracts/company.sol\":894:896  id */\n      dup4\n        /* \"contracts/company.sol\":888:897  buses[id] */\n      dup2\n      mstore\n      0x20\n      add\n      swap1\n      dup2\n      mstore\n      0x20\n      add\n      0x00\n      keccak256\n        /* \"contracts/company.sol\":881:897  return buses[id] */\n      mload(0x40)\n      dup1\n      0x0140\n      add\n      0x40\n      mstore\n      swap1\n      dup2\n      0x00\n      dup3\n      add\n      sload\n      dup2\n      mstore\n      0x20\n      add\n      0x01\n      dup3\n      add\n      sload\n      dup2\n      mstore\n      0x20\n      add\n      0x02\n      dup3\n      add\n      dup1\n      sload\n      tag_49\n      swap1\n      tag_32\n      jump\t// in\n    tag_49:\n      dup1\n      0x1f\n      add\n      0x20\n      dup1\n      swap2\n      div\n      mul\n      0x20\n      add\n      mload(0x40)\n      swap1\n      dup2\n      add\n      0x40\n      mstore\n      dup1\n      swap3\n      swap2\n      swap1\n      dup2\n      dup2\n      mstore\n      0x20\n      add\n      dup3\n      dup1\n      sload\n      tag_50\n      swap1\n      tag_32\n      jump\t// in\n    tag_50:\n      dup1\n      iszero\n      tag_51\n      jumpi\n      dup1\n      0x1f\n      lt\n      tag_52\n      jumpi\n      0x0100\n      dup1\n      dup4\n      sload\n      div\n      mul\n      dup4\n      mstore\n      swap2\n      0x20\n      add\n      swap2\n      jump(tag_51)\n    tag_52:\n      dup3\n      add\n      swap2\n      swap1\n      0x00\n      mstore\n      keccak256(0x00, 0x20)\n      swap1\n    tag_53:\n      dup2\n      sload\n      dup2\n      mstore\n      swap1\n      0x01\n      add\n      swap1\n      0x20\n      add\n      dup1\n      dup4\n      gt\n      tag_53\n      jumpi\n      dup3\n      swap1\n      sub\n      0x1f\n      and\n      dup3\n      add\n      swap2\n    tag_51:\n      pop\n      pop\n      pop\n      pop\n      pop\n      dup2\n      mstore\n      0x20\n      add\n      0x03\n      dup3\n      add\n      sload\n      dup2\n      mstore\n      0x20\n      add\n      0x04\n      dup3\n      add\n      dup1\n      sload\n      tag_54\n      swap1\n      tag_32\n      jump\t// in\n    tag_54:\n      dup1\n      0x1f\n      add\n      0x20\n      dup1\n      swap2\n      div\n      mul\n      0x20\n      add\n      mload(0x40)\n      swap1\n      dup2\n      add\n      0x40\n      mstore\n      dup1\n      swap3\n      swap2\n      swap1\n      dup2\n      dup2\n      mstore\n      0x20\n      add\n      dup3\n      dup1\n      sload\n      tag_55\n      swap1\n      tag_32\n      jump\t// in\n    tag_55:\n      dup1\n      iszero\n      tag_56\n      jumpi\n      dup1\n      0x1f\n      lt\n      tag_57\n      jumpi\n      0x0100\n      dup1\n      dup4\n      sload\n      div\n      mul\n      dup4\n      mstore\n      swap2\n      0x20\n      add\n      swap2\n      jump(tag_56)\n    tag_57:\n      dup3\n      add\n      swap2\n      swap1\n      0x00\n      mstore\n      keccak256(0x00, 0x20)\n      swap1\n    tag_58:\n      dup2\n      sload\n      dup2\n      mstore\n      swap1\n      0x01\n      add\n      swap1\n      0x20\n      add\n      dup1\n      dup4\n      gt\n      tag_58\n      jumpi\n      dup3\n      swap1\n      sub\n      0x1f\n      and\n      dup3\n      add\n      swap2\n    tag_56:\n      pop\n      pop\n      pop\n      pop\n      pop\n      dup2\n      mstore\n      0x20\n      add\n      0x05\n      dup3\n      add\n      sload\n      dup2\n      mstore\n      0x20\n      add\n      0x06\n      dup3\n      add\n      sload\n      dup2\n      mstore\n      0x20\n      add\n      0x07\n      dup3\n      add\n      0x00\n      swap1\n      sload\n      swap1\n      0x0100\n      exp\n      swap1\n      div\n      0xff\n      and\n      0x04\n      dup2\n      gt\n      iszero\n      tag_59\n      jumpi\n      tag_60\n      tag_45\n      jump\t// in\n    tag_60:\n    tag_59:\n      0x04\n      dup2\n      gt\n      iszero\n      tag_61\n      jumpi\n      tag_62\n      tag_45\n      jump\t// in\n    tag_62:\n    tag_61:\n      dup2\n      mstore\n      0x20\n      add\n      0x07\n      dup3\n      add\n      0x01\n      swap1\n      sload\n      swap1\n      0x0100\n      exp\n      swap1\n      div\n      0xffffffffffffffffffffffffffffffffffffffff\n      and\n      0xffffffffffffffffffffffffffffffffffffffff\n      and\n      0xffffffffffffffffffffffffffffffffffffffff\n      and\n      dup2\n      mstore\n      0x20\n      add\n      0x08\n      dup3\n      add\n      0x00\n      swap1\n      sload\n      swap1\n      0x0100\n      exp\n      swap1\n      div\n      0xffffffffffffffffffffffffffffffffffffffff\n      and\n      0xffffffffffffffffffffffffffffffffffffffff\n      and\n      0xffffffffffffffffffffffffffffffffffffffff\n      and\n      dup2\n      mstore\n      pop\n      pop\n      swap1\n      pop\n        /* \"contracts/company.sol\":801:905  function getBusData(uint256 id) public view returns (BusItem memory) {... */\n      swap2\n      swap1\n      pop\n      jump\t// out\n        /* \"contracts/company.sol\":649:793  function addBus(uint256 id, BusItem memory bus) public {... */\n    tag_30:\n        /* \"contracts/company.sol\":782:785  bus */\n      dup1\n        /* \"contracts/company.sol\":770:775  buses */\n      0x00\n        /* \"contracts/company.sol\":770:779  buses[id] */\n      dup1\n        /* \"contracts/company.sol\":776:778  id */\n      dup5\n        /* \"contracts/company.sol\":770:779  buses[id] */\n      dup2\n      mstore\n      0x20\n      add\n      swap1\n      dup2\n      mstore\n      0x20\n      add\n      0x00\n      keccak256\n        /* \"contracts/company.sol\":770:785  buses[id] = bus */\n      0x00\n      dup3\n      add\n      mload\n      dup2\n      0x00\n      add\n      sstore\n      0x20\n      dup3\n      add\n      mload\n      dup2\n      0x01\n      add\n      sstore\n      0x40\n      dup3\n      add\n      mload\n      dup2\n      0x02\n      add\n      swap1\n      dup2\n      tag_64\n      swap2\n      swap1\n      tag_65\n      jump\t// in\n    tag_64:\n      pop\n      0x60\n      dup3\n      add\n      mload\n      dup2\n      0x03\n      add\n      sstore\n      0x80\n      dup3\n      add\n      mload\n      dup2\n      0x04\n      add\n      swap1\n      dup2\n      tag_66\n      swap2\n      swap1\n      tag_65\n      jump\t// in\n    tag_66:\n      pop\n      0xa0\n      dup3\n      add\n      mload\n      dup2\n      0x05\n      add\n      sstore\n      0xc0\n      dup3\n      add\n      mload\n      dup2\n      0x06\n      add\n      sstore\n      0xe0\n      dup3\n      add\n      mload\n      dup2\n      0x07\n      add\n      exp(0x0100, 0x00)\n      dup2\n      sload\n      dup2\n      0xff\n      mul\n      not\n      and\n      swap1\n      dup4\n      0x04\n      dup2\n      gt\n      iszero\n      tag_67\n      jumpi\n      tag_68\n      tag_45\n      jump\t// in\n    tag_68:\n    tag_67:\n      mul\n      or\n      swap1\n      sstore\n      pop\n      0x0100\n      dup3\n      add\n      mload\n      dup2\n      0x07\n      add\n      exp(0x0100, 0x01)\n      dup2\n      sload\n      dup2\n      0xffffffffffffffffffffffffffffffffffffffff\n      mul\n      not\n      and\n      swap1\n      dup4\n      0xffffffffffffffffffffffffffffffffffffffff\n      and\n      mul\n      or\n      swap1\n      sstore\n      pop\n      0x0120\n      dup3\n      add\n      mload\n      dup2\n      0x08\n      add\n      exp(0x0100, 0x00)\n      dup2\n      sload\n      dup2\n      0xffffffffffffffffffffffffffffffffffffffff\n      mul\n      not\n      and\n      swap1\n      dup4\n      0xffffffffffffffffffffffffffffffffffffffff\n      and\n      mul\n      or\n      swap1\n      sstore\n      pop\n      swap1\n      pop\n      pop\n        /* \"contracts/company.sol\":649:793  function addBus(uint256 id, BusItem memory bus) public {... */\n      pop\n      pop\n      jump\t// out\n    tag_47:\n      mload(0x40)\n      dup1\n      0x0140\n      add\n      0x40\n      mstore\n      dup1\n      0x00\n      dup2\n      mstore\n      0x20\n      add\n      0x00\n      dup2\n      mstore\n      0x20\n      add\n      0x60\n      dup2\n      mstore\n      0x20\n      add\n      0x00\n      dup2\n      mstore\n      0x20\n      add\n      0x60\n      dup2\n      mstore\n      0x20\n      add\n      0x00\n      dup2\n      mstore\n      0x20\n      add\n      0x00\n      dup2\n      mstore\n      0x20\n      add\n      0x00\n      0x04\n      dup2\n      gt\n      iszero\n      tag_69\n      jumpi\n      tag_70\n      tag_45\n      jump\t// in\n    tag_70:\n    tag_69:\n      dup2\n      mstore\n      0x20\n      add\n      and(0xffffffffffffffffffffffffffffffffffffffff, 0x00)\n      dup2\n      mstore\n      0x20\n      add\n      and(0xffffffffffffffffffffffffffffffffffffffff, 0x00)\n      dup2\n      mstore\n      pop\n      swap1\n      jump\t// out\n        /* \"#utility.yul\":7:82   */\n    tag_71:\n        /* \"#utility.yul\":40:46   */\n      0x00\n        /* \"#utility.yul\":73:75   */\n      0x40\n        /* \"#utility.yul\":67:76   */\n      mload\n        /* \"#utility.yul\":57:76   */\n      swap1\n      pop\n        /* \"#utility.yul\":7:82   */\n      swap1\n      jump\t// out\n        /* \"#utility.yul\":88:205   */\n    tag_72:\n        /* \"#utility.yul\":197:198   */\n      0x00\n        /* \"#utility.yul\":194:195   */\n      dup1\n        /* \"#utility.yul\":187:199   */\n      revert\n        /* \"#utility.yul\":211:328   */\n    tag_73:\n        /* \"#utility.yul\":320:321   */\n      0x00\n        /* \"#utility.yul\":317:318   */\n      dup1\n        /* \"#utility.yul\":310:322   */\n      revert\n        /* \"#utility.yul\":334:411   */\n    tag_74:\n        /* \"#utility.yul\":371:378   */\n      0x00\n        /* \"#utility.yul\":400:405   */\n      dup2\n        /* \"#utility.yul\":389:405   */\n      swap1\n      pop\n        /* \"#utility.yul\":334:411   */\n      swap2\n      swap1\n      pop\n      jump\t// out\n        /* \"#utility.yul\":417:539   */\n    tag_75:\n        /* \"#utility.yul\":490:514   */\n      tag_134\n        /* \"#utility.yul\":508:513   */\n      dup2\n        /* \"#utility.yul\":490:514   */\n      tag_74\n      jump\t// in\n    tag_134:\n        /* \"#utility.yul\":483:488   */\n      dup2\n        /* \"#utility.yul\":480:515   */\n      eq\n        /* \"#utility.yul\":470:533   */\n      tag_135\n      jumpi\n        /* \"#utility.yul\":529:530   */\n      0x00\n        /* \"#utility.yul\":526:527   */\n      dup1\n        /* \"#utility.yul\":519:531   */\n      revert\n        /* \"#utility.yul\":470:533   */\n    tag_135:\n        /* \"#utility.yul\":417:539   */\n      pop\n      jump\t// out\n        /* \"#utility.yul\":545:684   */\n    tag_76:\n        /* \"#utility.yul\":591:596   */\n      0x00\n        /* \"#utility.yul\":629:635   */\n      dup2\n        /* \"#utility.yul\":616:636   */\n      calldataload\n        /* \"#utility.yul\":607:636   */\n      swap1\n      pop\n        /* \"#utility.yul\":645:678   */\n      tag_137\n        /* \"#utility.yul\":672:677   */\n      dup2\n        /* \"#utility.yul\":645:678   */\n      tag_75\n      jump\t// in\n    tag_137:\n        /* \"#utility.yul\":545:684   */\n      swap3\n      swap2\n      pop\n      pop\n      jump\t// out\n        /* \"#utility.yul\":690:1019   */\n    tag_10:\n        /* \"#utility.yul\":749:755   */\n      0x00\n        /* \"#utility.yul\":798:800   */\n      0x20\n        /* \"#utility.yul\":786:795   */\n      dup3\n        /* \"#utility.yul\":777:784   */\n      dup5\n        /* \"#utility.yul\":773:796   */\n      sub\n        /* \"#utility.yul\":769:801   */\n      slt\n        /* \"#utility.yul\":766:885   */\n      iszero\n      tag_139\n      jumpi\n        /* \"#utility.yul\":804:883   */\n      tag_140\n      tag_72\n      jump\t// in\n    tag_140:\n        /* \"#utility.yul\":766:885   */\n    tag_139:\n        /* \"#utility.yul\":924:925   */\n      0x00\n        /* \"#utility.yul\":949:1002   */\n      tag_141\n        /* \"#utility.yul\":994:1001   */\n      dup5\n        /* \"#utility.yul\":985:991   */\n      dup3\n        /* \"#utility.yul\":974:983   */\n      dup6\n        /* \"#utility.yul\":970:992   */\n      add\n        /* \"#utility.yul\":949:1002   */\n      tag_76\n      jump\t// in\n    tag_141:\n        /* \"#utility.yul\":939:1002   */\n      swap2\n      pop\n        /* \"#utility.yul\":895:1012   */\n      pop\n        /* \"#utility.yul\":690:1019   */\n      swap3\n      swap2\n      pop\n      pop\n      jump\t// out\n        /* \"#utility.yul\":1025:1143   */\n    tag_77:\n        /* \"#utility.yul\":1112:1136   */\n      tag_143\n        /* \"#utility.yul\":1130:1135   */\n      dup2\n        /* \"#utility.yul\":1112:1136   */\n      tag_74\n      jump\t// in\n    tag_143:\n        /* \"#utility.yul\":1107:1110   */\n      dup3\n        /* \"#utility.yul\":1100:1137   */\n      mstore\n        /* \"#utility.yul\":1025:1143   */\n      pop\n      pop\n      jump\t// out\n        /* \"#utility.yul\":1149:1248   */\n    tag_78:\n        /* \"#utility.yul\":1201:1207   */\n      0x00\n        /* \"#utility.yul\":1235:1240   */\n      dup2\n        /* \"#utility.yul\":1229:1241   */\n      mload\n        /* \"#utility.yul\":1219:1241   */\n      swap1\n      pop\n        /* \"#utility.yul\":1149:1248   */\n      swap2\n      swap1\n      pop\n      jump\t// out\n        /* \"#utility.yul\":1254:1423   */\n    tag_79:\n        /* \"#utility.yul\":1338:1349   */\n      0x00\n        /* \"#utility.yul\":1372:1378   */\n      dup3\n        /* \"#utility.yul\":1367:1370   */\n      dup3\n        /* \"#utility.yul\":1360:1379   */\n      mstore\n        /* \"#utility.yul\":1412:1416   */\n      0x20\n        /* \"#utility.yul\":1407:1410   */\n      dup3\n        /* \"#utility.yul\":1403:1417   */\n      add\n        /* \"#utility.yul\":1388:1417   */\n      swap1\n      pop\n        /* \"#utility.yul\":1254:1423   */\n      swap3\n      swap2\n      pop\n      pop\n      jump\t// out\n        /* \"#utility.yul\":1429:1675   */\n    tag_80:\n        /* \"#utility.yul\":1510:1511   */\n      0x00\n        /* \"#utility.yul\":1520:1633   */\n    tag_147:\n        /* \"#utility.yul\":1534:1540   */\n      dup4\n        /* \"#utility.yul\":1531:1532   */\n      dup2\n        /* \"#utility.yul\":1528:1541   */\n      lt\n        /* \"#utility.yul\":1520:1633   */\n      iszero\n      tag_149\n      jumpi\n        /* \"#utility.yul\":1619:1620   */\n      dup1\n        /* \"#utility.yul\":1614:1617   */\n      dup3\n        /* \"#utility.yul\":1610:1621   */\n      add\n        /* \"#utility.yul\":1604:1622   */\n      mload\n        /* \"#utility.yul\":1600:1601   */\n      dup2\n        /* \"#utility.yul\":1595:1598   */\n      dup5\n        /* \"#utility.yul\":1591:1602   */\n      add\n        /* \"#utility.yul\":1584:1623   */\n      mstore\n        /* \"#utility.yul\":1556:1558   */\n      0x20\n        /* \"#utility.yul\":1553:1554   */\n      dup2\n        /* \"#utility.yul\":1549:1559   */\n      add\n        /* \"#utility.yul\":1544:1559   */\n      swap1\n      pop\n        /* \"#utility.yul\":1520:1633   */\n      jump(tag_147)\n    tag_149:\n        /* \"#utility.yul\":1667:1668   */\n      0x00\n        /* \"#utility.yul\":1658:1664   */\n      dup5\n        /* \"#utility.yul\":1653:1656   */\n      dup5\n        /* \"#utility.yul\":1649:1665   */\n      add\n        /* \"#utility.yul\":1642:1669   */\n      mstore\n        /* \"#utility.yul\":1491:1675   */\n      pop\n        /* \"#utility.yul\":1429:1675   */\n      pop\n      pop\n      pop\n      jump\t// out\n        /* \"#utility.yul\":1681:1783   */\n    tag_81:\n        /* \"#utility.yul\":1722:1728   */\n      0x00\n        /* \"#utility.yul\":1773:1775   */\n      0x1f\n        /* \"#utility.yul\":1769:1776   */\n      not\n        /* \"#utility.yul\":1764:1766   */\n      0x1f\n        /* \"#utility.yul\":1757:1762   */\n      dup4\n        /* \"#utility.yul\":1753:1767   */\n      add\n        /* \"#utility.yul\":1749:1777   */\n      and\n        /* \"#utility.yul\":1739:1777   */\n      swap1\n      pop\n        /* \"#utility.yul\":1681:1783   */\n      swap2\n      swap1\n      pop\n      jump\t// out\n        /* \"#utility.yul\":1789:2166   */\n    tag_82:\n        /* \"#utility.yul\":1877:1880   */\n      0x00\n        /* \"#utility.yul\":1905:1944   */\n      tag_152\n        /* \"#utility.yul\":1938:1943   */\n      dup3\n        /* \"#utility.yul\":1905:1944   */\n      tag_78\n      jump\t// in\n    tag_152:\n        /* \"#utility.yul\":1960:2031   */\n      tag_153\n        /* \"#utility.yul\":2024:2030   */\n      dup2\n        /* \"#utility.yul\":2019:2022   */\n      dup6\n        /* \"#utility.yul\":1960:2031   */\n      tag_79\n      jump\t// in\n    tag_153:\n        /* \"#utility.yul\":1953:2031   */\n      swap4\n      pop\n        /* \"#utility.yul\":2040:2105   */\n      tag_154\n        /* \"#utility.yul\":2098:2104   */\n      dup2\n        /* \"#utility.yul\":2093:2096   */\n      dup6\n        /* \"#utility.yul\":2086:2090   */\n      0x20\n        /* \"#utility.yul\":2079:2084   */\n      dup7\n        /* \"#utility.yul\":2075:2091   */\n      add\n        /* \"#utility.yul\":2040:2105   */\n      tag_80\n      jump\t// in\n    tag_154:\n        /* \"#utility.yul\":2130:2159   */\n      tag_155\n        /* \"#utility.yul\":2152:2158   */\n      dup2\n        /* \"#utility.yul\":2130:2159   */\n      tag_81\n      jump\t// in\n    tag_155:\n        /* \"#utility.yul\":2125:2128   */\n      dup5\n        /* \"#utility.yul\":2121:2160   */\n      add\n        /* \"#utility.yul\":2114:2160   */\n      swap2\n      pop\n        /* \"#utility.yul\":1881:2166   */\n      pop\n        /* \"#utility.yul\":1789:2166   */\n      swap3\n      swap2\n      pop\n      pop\n      jump\t// out\n        /* \"#utility.yul\":2172:2352   */\n    tag_45:\n        /* \"#utility.yul\":2220:2297   */\n      0x4e487b7100000000000000000000000000000000000000000000000000000000\n        /* \"#utility.yul\":2217:2218   */\n      0x00\n        /* \"#utility.yul\":2210:2298   */\n      mstore\n        /* \"#utility.yul\":2317:2321   */\n      0x21\n        /* \"#utility.yul\":2314:2315   */\n      0x04\n        /* \"#utility.yul\":2307:2322   */\n      mstore\n        /* \"#utility.yul\":2341:2345   */\n      0x24\n        /* \"#utility.yul\":2338:2339   */\n      0x00\n        /* \"#utility.yul\":2331:2346   */\n      revert\n        /* \"#utility.yul\":2358:2475   */\n    tag_83:\n        /* \"#utility.yul\":2443:2444   */\n      0x05\n        /* \"#utility.yul\":2436:2441   */\n      dup2\n        /* \"#utility.yul\":2433:2445   */\n      lt\n        /* \"#utility.yul\":2423:2469   */\n      tag_158\n      jumpi\n        /* \"#utility.yul\":2449:2467   */\n      tag_159\n      tag_45\n      jump\t// in\n    tag_159:\n        /* \"#utility.yul\":2423:2469   */\n    tag_158:\n        /* \"#utility.yul\":2358:2475   */\n      pop\n      jump\t// out\n        /* \"#utility.yul\":2481:2616   */\n    tag_84:\n        /* \"#utility.yul\":2530:2537   */\n      0x00\n        /* \"#utility.yul\":2559:2564   */\n      dup2\n        /* \"#utility.yul\":2548:2564   */\n      swap1\n      pop\n        /* \"#utility.yul\":2565:2610   */\n      tag_161\n        /* \"#utility.yul\":2604:2609   */\n      dup3\n        /* \"#utility.yul\":2565:2610   */\n      tag_83\n      jump\t// in\n    tag_161:\n        /* \"#utility.yul\":2481:2616   */\n      swap2\n      swap1\n      pop\n      jump\t// out\n        /* \"#utility.yul\":2622:2757   */\n    tag_85:\n        /* \"#utility.yul\":2682:2691   */\n      0x00\n        /* \"#utility.yul\":2715:2751   */\n      tag_163\n        /* \"#utility.yul\":2745:2750   */\n      dup3\n        /* \"#utility.yul\":2715:2751   */\n      tag_84\n      jump\t// in\n    tag_163:\n        /* \"#utility.yul\":2702:2751   */\n      swap1\n      pop\n        /* \"#utility.yul\":2622:2757   */\n      swap2\n      swap1\n      pop\n      jump\t// out\n        /* \"#utility.yul\":2763:2914   */\n    tag_86:\n        /* \"#utility.yul\":2860:2907   */\n      tag_165\n        /* \"#utility.yul\":2901:2906   */\n      dup2\n        /* \"#utility.yul\":2860:2907   */\n      tag_85\n      jump\t// in\n    tag_165:\n        /* \"#utility.yul\":2855:2858   */\n      dup3\n        /* \"#utility.yul\":2848:2908   */\n      mstore\n        /* \"#utility.yul\":2763:2914   */\n      pop\n      pop\n      jump\t// out\n        /* \"#utility.yul\":2920:3046   */\n    tag_87:\n        /* \"#utility.yul\":2957:2964   */\n      0x00\n        /* \"#utility.yul\":2997:3039   */\n      0xffffffffffffffffffffffffffffffffffffffff\n        /* \"#utility.yul\":2990:2995   */\n      dup3\n        /* \"#utility.yul\":2986:3040   */\n      and\n        /* \"#utility.yul\":2975:3040   */\n      swap1\n      pop\n        /* \"#utility.yul\":2920:3046   */\n      swap2\n      swap1\n      pop\n      jump\t// out\n        /* \"#utility.yul\":3052:3148   */\n    tag_88:\n        /* \"#utility.yul\":3089:3096   */\n      0x00\n        /* \"#utility.yul\":3118:3142   */\n      tag_168\n        /* \"#utility.yul\":3136:3141   */\n      dup3\n        /* \"#utility.yul\":3118:3142   */\n      tag_87\n      jump\t// in\n    tag_168:\n        /* \"#utility.yul\":3107:3142   */\n      swap1\n      pop\n        /* \"#utility.yul\":3052:3148   */\n      swap2\n      swap1\n      pop\n      jump\t// out\n        /* \"#utility.yul\":3154:3272   */\n    tag_89:\n        /* \"#utility.yul\":3241:3265   */\n      tag_170\n        /* \"#utility.yul\":3259:3264   */\n      dup2\n        /* \"#utility.yul\":3241:3265   */\n      tag_88\n      jump\t// in\n    tag_170:\n        /* \"#utility.yul\":3236:3239   */\n      dup3\n        /* \"#utility.yul\":3229:3266   */\n      mstore\n        /* \"#utility.yul\":3154:3272   */\n      pop\n      pop\n      jump\t// out\n        /* \"#utility.yul\":3278:4699   */\n    tag_13:\n        /* \"#utility.yul\":3673:3677   */\n      0x00\n        /* \"#utility.yul\":3711:3714   */\n      0x0140\n        /* \"#utility.yul\":3700:3709   */\n      dup3\n        /* \"#utility.yul\":3696:3715   */\n      add\n        /* \"#utility.yul\":3688:3715   */\n      swap1\n      pop\n        /* \"#utility.yul\":3725:3796   */\n      tag_172\n        /* \"#utility.yul\":3793:3794   */\n      0x00\n        /* \"#utility.yul\":3782:3791   */\n      dup4\n        /* \"#utility.yul\":3778:3795   */\n      add\n        /* \"#utility.yul\":3769:3775   */\n      dup14\n        /* \"#utility.yul\":3725:3796   */\n      tag_77\n      jump\t// in\n    tag_172:\n        /* \"#utility.yul\":3806:3878   */\n      tag_173\n        /* \"#utility.yul\":3874:3876   */\n      0x20\n        /* \"#utility.yul\":3863:3872   */\n      dup4\n        /* \"#utility.yul\":3859:3877   */\n      add\n        /* \"#utility.yul\":3850:3856   */\n      dup13\n        /* \"#utility.yul\":3806:3878   */\n      tag_77\n      jump\t// in\n    tag_173:\n        /* \"#utility.yul\":3925:3934   */\n      dup2\n        /* \"#utility.yul\":3919:3923   */\n      dup2\n        /* \"#utility.yul\":3915:3935   */\n      sub\n        /* \"#utility.yul\":3910:3912   */\n      0x40\n        /* \"#utility.yul\":3899:3908   */\n      dup4\n        /* \"#utility.yul\":3895:3913   */\n      add\n        /* \"#utility.yul\":3888:3936   */\n      mstore\n        /* \"#utility.yul\":3953:4031   */\n      tag_174\n        /* \"#utility.yul\":4026:4030   */\n      dup2\n        /* \"#utility.yul\":4017:4023   */\n      dup12\n        /* \"#utility.yul\":3953:4031   */\n      tag_82\n      jump\t// in\n    tag_174:\n        /* \"#utility.yul\":3945:4031   */\n      swap1\n      pop\n        /* \"#utility.yul\":4041:4113   */\n      tag_175\n        /* \"#utility.yul\":4109:4111   */\n      0x60\n        /* \"#utility.yul\":4098:4107   */\n      dup4\n        /* \"#utility.yul\":4094:4112   */\n      add\n        /* \"#utility.yul\":4085:4091   */\n      dup11\n        /* \"#utility.yul\":4041:4113   */\n      tag_77\n      jump\t// in\n    tag_175:\n        /* \"#utility.yul\":4161:4170   */\n      dup2\n        /* \"#utility.yul\":4155:4159   */\n      dup2\n        /* \"#utility.yul\":4151:4171   */\n      sub\n        /* \"#utility.yul\":4145:4148   */\n      0x80\n        /* \"#utility.yul\":4134:4143   */\n      dup4\n        /* \"#utility.yul\":4130:4149   */\n      add\n        /* \"#utility.yul\":4123:4172   */\n      mstore\n        /* \"#utility.yul\":4189:4267   */\n      tag_176\n        /* \"#utility.yul\":4262:4266   */\n      dup2\n        /* \"#utility.yul\":4253:4259   */\n      dup10\n        /* \"#utility.yul\":4189:4267   */\n      tag_82\n      jump\t// in\n    tag_176:\n        /* \"#utility.yul\":4181:4267   */\n      swap1\n      pop\n        /* \"#utility.yul\":4277:4350   */\n      tag_177\n        /* \"#utility.yul\":4345:4348   */\n      0xa0\n        /* \"#utility.yul\":4334:4343   */\n      dup4\n        /* \"#utility.yul\":4330:4349   */\n      add\n        /* \"#utility.yul\":4321:4327   */\n      dup9\n        /* \"#utility.yul\":4277:4350   */\n      tag_77\n      jump\t// in\n    tag_177:\n        /* \"#utility.yul\":4360:4433   */\n      tag_178\n        /* \"#utility.yul\":4428:4431   */\n      0xc0\n        /* \"#utility.yul\":4417:4426   */\n      dup4\n        /* \"#utility.yul\":4413:4432   */\n      add\n        /* \"#utility.yul\":4404:4410   */\n      dup8\n        /* \"#utility.yul\":4360:4433   */\n      tag_77\n      jump\t// in\n    tag_178:\n        /* \"#utility.yul\":4443:4526   */\n      tag_179\n        /* \"#utility.yul\":4521:4524   */\n      0xe0\n        /* \"#utility.yul\":4510:4519   */\n      dup4\n        /* \"#utility.yul\":4506:4525   */\n      add\n        /* \"#utility.yul\":4497:4503   */\n      dup7\n        /* \"#utility.yul\":4443:4526   */\n      tag_86\n      jump\t// in\n    tag_179:\n        /* \"#utility.yul\":4536:4609   */\n      tag_180\n        /* \"#utility.yul\":4604:4607   */\n      0x0100\n        /* \"#utility.yul\":4593:4602   */\n      dup4\n        /* \"#utility.yul\":4589:4608   */\n      add\n        /* \"#utility.yul\":4580:4586   */\n      dup6\n        /* \"#utility.yul\":4536:4609   */\n      tag_89\n      jump\t// in\n    tag_180:\n        /* \"#utility.yul\":4619:4692   */\n      tag_181\n        /* \"#utility.yul\":4687:4690   */\n      0x0120\n        /* \"#utility.yul\":4676:4685   */\n      dup4\n        /* \"#utility.yul\":4672:4691   */\n      add\n        /* \"#utility.yul\":4663:4669   */\n      dup5\n        /* \"#utility.yul\":4619:4692   */\n      tag_89\n      jump\t// in\n    tag_181:\n        /* \"#utility.yul\":3278:4699   */\n      swap12\n      swap11\n      pop\n      pop\n      pop\n      pop\n      pop\n      pop\n      pop\n      pop\n      pop\n      pop\n      pop\n      jump\t// out\n        /* \"#utility.yul\":4705:4927   */\n    tag_17:\n        /* \"#utility.yul\":4798:4802   */\n      0x00\n        /* \"#utility.yul\":4836:4838   */\n      0x20\n        /* \"#utility.yul\":4825:4834   */\n      dup3\n        /* \"#utility.yul\":4821:4839   */\n      add\n        /* \"#utility.yul\":4813:4839   */\n      swap1\n      pop\n        /* \"#utility.yul\":4849:4920   */\n      tag_183\n        /* \"#utility.yul\":4917:4918   */\n      0x00\n        /* \"#utility.yul\":4906:4915   */\n      dup4\n        /* \"#utility.yul\":4902:4919   */\n      add\n        /* \"#utility.yul\":4893:4899   */\n      dup5\n        /* \"#utility.yul\":4849:4920   */\n      tag_89\n      jump\t// in\n    tag_183:\n        /* \"#utility.yul\":4705:4927   */\n      swap3\n      swap2\n      pop\n      pop\n      jump\t// out\n        /* \"#utility.yul\":4933:5044   */\n    tag_90:\n        /* \"#utility.yul\":5018:5019   */\n      0x05\n        /* \"#utility.yul\":5011:5016   */\n      dup2\n        /* \"#utility.yul\":5008:5020   */\n      lt\n        /* \"#utility.yul\":4998:5038   */\n      tag_185\n      jumpi\n        /* \"#utility.yul\":5034:5035   */\n      0x00\n        /* \"#utility.yul\":5031:5032   */\n      dup1\n        /* \"#utility.yul\":5024:5036   */\n      revert\n        /* \"#utility.yul\":4998:5038   */\n    tag_185:\n        /* \"#utility.yul\":4933:5044   */\n      pop\n      jump\t// out\n        /* \"#utility.yul\":5050:5213   */\n    tag_91:\n        /* \"#utility.yul\":5108:5113   */\n      0x00\n        /* \"#utility.yul\":5146:5152   */\n      dup2\n        /* \"#utility.yul\":5133:5153   */\n      calldataload\n        /* \"#utility.yul\":5124:5153   */\n      swap1\n      pop\n        /* \"#utility.yul\":5162:5207   */\n      tag_187\n        /* \"#utility.yul\":5201:5206   */\n      dup2\n        /* \"#utility.yul\":5162:5207   */\n      tag_90\n      jump\t// in\n    tag_187:\n        /* \"#utility.yul\":5050:5213   */\n      swap3\n      swap2\n      pop\n      pop\n      jump\t// out\n        /* \"#utility.yul\":5219:5341   */\n    tag_92:\n        /* \"#utility.yul\":5292:5316   */\n      tag_189\n        /* \"#utility.yul\":5310:5315   */\n      dup2\n        /* \"#utility.yul\":5292:5316   */\n      tag_88\n      jump\t// in\n    tag_189:\n        /* \"#utility.yul\":5285:5290   */\n      dup2\n        /* \"#utility.yul\":5282:5317   */\n      eq\n        /* \"#utility.yul\":5272:5335   */\n      tag_190\n      jumpi\n        /* \"#utility.yul\":5331:5332   */\n      0x00\n        /* \"#utility.yul\":5328:5329   */\n      dup1\n        /* \"#utility.yul\":5321:5333   */\n      revert\n        /* \"#utility.yul\":5272:5335   */\n    tag_190:\n        /* \"#utility.yul\":5219:5341   */\n      pop\n      jump\t// out\n        /* \"#utility.yul\":5347:5486   */\n    tag_93:\n        /* \"#utility.yul\":5393:5398   */\n      0x00\n        /* \"#utility.yul\":5431:5437   */\n      dup2\n        /* \"#utility.yul\":5418:5438   */\n      calldataload\n        /* \"#utility.yul\":5409:5438   */\n      swap1\n      pop\n        /* \"#utility.yul\":5447:5480   */\n      tag_192\n        /* \"#utility.yul\":5474:5479   */\n      dup2\n        /* \"#utility.yul\":5447:5480   */\n      tag_92\n      jump\t// in\n    tag_192:\n        /* \"#utility.yul\":5347:5486   */\n      swap3\n      swap2\n      pop\n      pop\n      jump\t// out\n        /* \"#utility.yul\":5492:6135   */\n    tag_20:\n        /* \"#utility.yul\":5581:5587   */\n      0x00\n        /* \"#utility.yul\":5589:5595   */\n      dup1\n        /* \"#utility.yul\":5597:5603   */\n      0x00\n        /* \"#utility.yul\":5646:5648   */\n      0x60\n        /* \"#utility.yul\":5634:5643   */\n      dup5\n        /* \"#utility.yul\":5625:5632   */\n      dup7\n        /* \"#utility.yul\":5621:5644   */\n      sub\n        /* \"#utility.yul\":5617:5649   */\n      slt\n        /* \"#utility.yul\":5614:5733   */\n      iszero\n      tag_194\n      jumpi\n        /* \"#utility.yul\":5652:5731   */\n      tag_195\n      tag_72\n      jump\t// in\n    tag_195:\n        /* \"#utility.yul\":5614:5733   */\n    tag_194:\n        /* \"#utility.yul\":5772:5773   */\n      0x00\n        /* \"#utility.yul\":5797:5850   */\n      tag_196\n        /* \"#utility.yul\":5842:5849   */\n      dup7\n        /* \"#utility.yul\":5833:5839   */\n      dup3\n        /* \"#utility.yul\":5822:5831   */\n      dup8\n        /* \"#utility.yul\":5818:5840   */\n      add\n        /* \"#utility.yul\":5797:5850   */\n      tag_76\n      jump\t// in\n    tag_196:\n        /* \"#utility.yul\":5787:5850   */\n      swap4\n      pop\n        /* \"#utility.yul\":5743:5860   */\n      pop\n        /* \"#utility.yul\":5899:5901   */\n      0x20\n        /* \"#utility.yul\":5925:5990   */\n      tag_197\n        /* \"#utility.yul\":5982:5989   */\n      dup7\n        /* \"#utility.yul\":5973:5979   */\n      dup3\n        /* \"#utility.yul\":5962:5971   */\n      dup8\n        /* \"#utility.yul\":5958:5980   */\n      add\n        /* \"#utility.yul\":5925:5990   */\n      tag_91\n      jump\t// in\n    tag_197:\n        /* \"#utility.yul\":5915:5990   */\n      swap3\n      pop\n        /* \"#utility.yul\":5870:6000   */\n      pop\n        /* \"#utility.yul\":6039:6041   */\n      0x40\n        /* \"#utility.yul\":6065:6118   */\n      tag_198\n        /* \"#utility.yul\":6110:6117   */\n      dup7\n        /* \"#utility.yul\":6101:6107   */\n      dup3\n        /* \"#utility.yul\":6090:6099   */\n      dup8\n        /* \"#utility.yul\":6086:6108   */\n      add\n        /* \"#utility.yul\":6065:6118   */\n      tag_93\n      jump\t// in\n    tag_198:\n        /* \"#utility.yul\":6055:6118   */\n      swap2\n      pop\n        /* \"#utility.yul\":6010:6128   */\n      pop\n        /* \"#utility.yul\":5492:6135   */\n      swap3\n      pop\n      swap3\n      pop\n      swap3\n      jump\t// out\n        /* \"#utility.yul\":6141:6249   */\n    tag_94:\n        /* \"#utility.yul\":6218:6242   */\n      tag_200\n        /* \"#utility.yul\":6236:6241   */\n      dup2\n        /* \"#utility.yul\":6218:6242   */\n      tag_74\n      jump\t// in\n    tag_200:\n        /* \"#utility.yul\":6213:6216   */\n      dup3\n        /* \"#utility.yul\":6206:6243   */\n      mstore\n        /* \"#utility.yul\":6141:6249   */\n      pop\n      pop\n      jump\t// out\n        /* \"#utility.yul\":6255:6414   */\n    tag_95:\n        /* \"#utility.yul\":6329:6340   */\n      0x00\n        /* \"#utility.yul\":6363:6369   */\n      dup3\n        /* \"#utility.yul\":6358:6361   */\n      dup3\n        /* \"#utility.yul\":6351:6370   */\n      mstore\n        /* \"#utility.yul\":6403:6407   */\n      0x20\n        /* \"#utility.yul\":6398:6401   */\n      dup3\n        /* \"#utility.yul\":6394:6408   */\n      add\n        /* \"#utility.yul\":6379:6408   */\n      swap1\n      pop\n        /* \"#utility.yul\":6255:6414   */\n      swap3\n      swap2\n      pop\n      pop\n      jump\t// out\n        /* \"#utility.yul\":6420:6777   */\n    tag_96:\n        /* \"#utility.yul\":6498:6501   */\n      0x00\n        /* \"#utility.yul\":6526:6565   */\n      tag_203\n        /* \"#utility.yul\":6559:6564   */\n      dup3\n        /* \"#utility.yul\":6526:6565   */\n      tag_78\n      jump\t// in\n    tag_203:\n        /* \"#utility.yul\":6581:6642   */\n      tag_204\n        /* \"#utility.yul\":6635:6641   */\n      dup2\n        /* \"#utility.yul\":6630:6633   */\n      dup6\n        /* \"#utility.yul\":6581:6642   */\n      tag_95\n      jump\t// in\n    tag_204:\n        /* \"#utility.yul\":6574:6642   */\n      swap4\n      pop\n        /* \"#utility.yul\":6651:6716   */\n      tag_205\n        /* \"#utility.yul\":6709:6715   */\n      dup2\n        /* \"#utility.yul\":6704:6707   */\n      dup6\n        /* \"#utility.yul\":6697:6701   */\n      0x20\n        /* \"#utility.yul\":6690:6695   */\n      dup7\n        /* \"#utility.yul\":6686:6702   */\n      add\n        /* \"#utility.yul\":6651:6716   */\n      tag_80\n      jump\t// in\n    tag_205:\n        /* \"#utility.yul\":6741:6770   */\n      tag_206\n        /* \"#utility.yul\":6763:6769   */\n      dup2\n        /* \"#utility.yul\":6741:6770   */\n      tag_81\n      jump\t// in\n    tag_206:\n        /* \"#utility.yul\":6736:6739   */\n      dup5\n        /* \"#utility.yul\":6732:6771   */\n      add\n        /* \"#utility.yul\":6725:6771   */\n      swap2\n      pop\n        /* \"#utility.yul\":6502:6777   */\n      pop\n        /* \"#utility.yul\":6420:6777   */\n      swap3\n      swap2\n      pop\n      pop\n      jump\t// out\n        /* \"#utility.yul\":6783:6924   */\n    tag_97:\n        /* \"#utility.yul\":6870:6917   */\n      tag_208\n        /* \"#utility.yul\":6911:6916   */\n      dup2\n        /* \"#utility.yul\":6870:6917   */\n      tag_85\n      jump\t// in\n    tag_208:\n        /* \"#utility.yul\":6865:6868   */\n      dup3\n        /* \"#utility.yul\":6858:6918   */\n      mstore\n        /* \"#utility.yul\":6783:6924   */\n      pop\n      pop\n      jump\t// out\n        /* \"#utility.yul\":6930:7038   */\n    tag_98:\n        /* \"#utility.yul\":7007:7031   */\n      tag_210\n        /* \"#utility.yul\":7025:7030   */\n      dup2\n        /* \"#utility.yul\":7007:7031   */\n      tag_88\n      jump\t// in\n    tag_210:\n        /* \"#utility.yul\":7002:7005   */\n      dup3\n        /* \"#utility.yul\":6995:7032   */\n      mstore\n        /* \"#utility.yul\":6930:7038   */\n      pop\n      pop\n      jump\t// out\n        /* \"#utility.yul\":7100:9229   */\n    tag_99:\n        /* \"#utility.yul\":7215:7218   */\n      0x00\n        /* \"#utility.yul\":7251:7257   */\n      0x0140\n        /* \"#utility.yul\":7246:7249   */\n      dup4\n        /* \"#utility.yul\":7242:7258   */\n      add\n        /* \"#utility.yul\":7338:7342   */\n      0x00\n        /* \"#utility.yul\":7331:7336   */\n      dup4\n        /* \"#utility.yul\":7327:7343   */\n      add\n        /* \"#utility.yul\":7321:7344   */\n      mload\n        /* \"#utility.yul\":7357:7420   */\n      tag_212\n        /* \"#utility.yul\":7414:7418   */\n      0x00\n        /* \"#utility.yul\":7409:7412   */\n      dup7\n        /* \"#utility.yul\":7405:7419   */\n      add\n        /* \"#utility.yul\":7391:7403   */\n      dup3\n        /* \"#utility.yul\":7357:7420   */\n      tag_94\n      jump\t// in\n    tag_212:\n        /* \"#utility.yul\":7268:7430   */\n      pop\n        /* \"#utility.yul\":7513:7517   */\n      0x20\n        /* \"#utility.yul\":7506:7511   */\n      dup4\n        /* \"#utility.yul\":7502:7518   */\n      add\n        /* \"#utility.yul\":7496:7519   */\n      mload\n        /* \"#utility.yul\":7532:7595   */\n      tag_213\n        /* \"#utility.yul\":7589:7593   */\n      0x20\n        /* \"#utility.yul\":7584:7587   */\n      dup7\n        /* \"#utility.yul\":7580:7594   */\n      add\n        /* \"#utility.yul\":7566:7578   */\n      dup3\n        /* \"#utility.yul\":7532:7595   */\n      tag_94\n      jump\t// in\n    tag_213:\n        /* \"#utility.yul\":7440:7605   */\n      pop\n        /* \"#utility.yul\":7693:7697   */\n      0x40\n        /* \"#utility.yul\":7686:7691   */\n      dup4\n        /* \"#utility.yul\":7682:7698   */\n      add\n        /* \"#utility.yul\":7676:7699   */\n      mload\n        /* \"#utility.yul\":7746:7749   */\n      dup5\n        /* \"#utility.yul\":7740:7744   */\n      dup3\n        /* \"#utility.yul\":7736:7750   */\n      sub\n        /* \"#utility.yul\":7729:7733   */\n      0x40\n        /* \"#utility.yul\":7724:7727   */\n      dup7\n        /* \"#utility.yul\":7720:7734   */\n      add\n        /* \"#utility.yul\":7713:7751   */\n      mstore\n        /* \"#utility.yul\":7772:7845   */\n      tag_214\n        /* \"#utility.yul\":7840:7844   */\n      dup3\n        /* \"#utility.yul\":7826:7838   */\n      dup3\n        /* \"#utility.yul\":7772:7845   */\n      tag_96\n      jump\t// in\n    tag_214:\n        /* \"#utility.yul\":7764:7845   */\n      swap2\n      pop\n        /* \"#utility.yul\":7615:7856   */\n      pop\n        /* \"#utility.yul\":7948:7952   */\n      0x60\n        /* \"#utility.yul\":7941:7946   */\n      dup4\n        /* \"#utility.yul\":7937:7953   */\n      add\n        /* \"#utility.yul\":7931:7954   */\n      mload\n        /* \"#utility.yul\":7967:8030   */\n      tag_215\n        /* \"#utility.yul\":8024:8028   */\n      0x60\n        /* \"#utility.yul\":8019:8022   */\n      dup7\n        /* \"#utility.yul\":8015:8029   */\n      add\n        /* \"#utility.yul\":8001:8013   */\n      dup3\n        /* \"#utility.yul\":7967:8030   */\n      tag_94\n      jump\t// in\n    tag_215:\n        /* \"#utility.yul\":7866:8040   */\n      pop\n        /* \"#utility.yul\":8130:8134   */\n      0x80\n        /* \"#utility.yul\":8123:8128   */\n      dup4\n        /* \"#utility.yul\":8119:8135   */\n      add\n        /* \"#utility.yul\":8113:8136   */\n      mload\n        /* \"#utility.yul\":8183:8186   */\n      dup5\n        /* \"#utility.yul\":8177:8181   */\n      dup3\n        /* \"#utility.yul\":8173:8187   */\n      sub\n        /* \"#utility.yul\":8166:8170   */\n      0x80\n        /* \"#utility.yul\":8161:8164   */\n      dup7\n        /* \"#utility.yul\":8157:8171   */\n      add\n        /* \"#utility.yul\":8150:8188   */\n      mstore\n        /* \"#utility.yul\":8209:8282   */\n      tag_216\n        /* \"#utility.yul\":8277:8281   */\n      dup3\n        /* \"#utility.yul\":8263:8275   */\n      dup3\n        /* \"#utility.yul\":8209:8282   */\n      tag_96\n      jump\t// in\n    tag_216:\n        /* \"#utility.yul\":8201:8282   */\n      swap2\n      pop\n        /* \"#utility.yul\":8050:8293   */\n      pop\n        /* \"#utility.yul\":8383:8387   */\n      0xa0\n        /* \"#utility.yul\":8376:8381   */\n      dup4\n        /* \"#utility.yul\":8372:8388   */\n      add\n        /* \"#utility.yul\":8366:8389   */\n      mload\n        /* \"#utility.yul\":8402:8465   */\n      tag_217\n        /* \"#utility.yul\":8459:8463   */\n      0xa0\n        /* \"#utility.yul\":8454:8457   */\n      dup7\n        /* \"#utility.yul\":8450:8464   */\n      add\n        /* \"#utility.yul\":8436:8448   */\n      dup3\n        /* \"#utility.yul\":8402:8465   */\n      tag_94\n      jump\t// in\n    tag_217:\n        /* \"#utility.yul\":8303:8475   */\n      pop\n        /* \"#utility.yul\":8564:8568   */\n      0xc0\n        /* \"#utility.yul\":8557:8562   */\n      dup4\n        /* \"#utility.yul\":8553:8569   */\n      add\n        /* \"#utility.yul\":8547:8570   */\n      mload\n        /* \"#utility.yul\":8583:8646   */\n      tag_218\n        /* \"#utility.yul\":8640:8644   */\n      0xc0\n        /* \"#utility.yul\":8635:8638   */\n      dup7\n        /* \"#utility.yul\":8631:8645   */\n      add\n        /* \"#utility.yul\":8617:8629   */\n      dup3\n        /* \"#utility.yul\":8583:8646   */\n      tag_94\n      jump\t// in\n    tag_218:\n        /* \"#utility.yul\":8485:8656   */\n      pop\n        /* \"#utility.yul\":8740:8744   */\n      0xe0\n        /* \"#utility.yul\":8733:8738   */\n      dup4\n        /* \"#utility.yul\":8729:8745   */\n      add\n        /* \"#utility.yul\":8723:8746   */\n      mload\n        /* \"#utility.yul\":8759:8832   */\n      tag_219\n        /* \"#utility.yul\":8826:8830   */\n      0xe0\n        /* \"#utility.yul\":8821:8824   */\n      dup7\n        /* \"#utility.yul\":8817:8831   */\n      add\n        /* \"#utility.yul\":8803:8815   */\n      dup3\n        /* \"#utility.yul\":8759:8832   */\n      tag_97\n      jump\t// in\n    tag_219:\n        /* \"#utility.yul\":8666:8842   */\n      pop\n        /* \"#utility.yul\":8925:8931   */\n      0x0100\n        /* \"#utility.yul\":8918:8923   */\n      dup4\n        /* \"#utility.yul\":8914:8932   */\n      add\n        /* \"#utility.yul\":8908:8933   */\n      mload\n        /* \"#utility.yul\":8946:9011   */\n      tag_220\n        /* \"#utility.yul\":9003:9009   */\n      0x0100\n        /* \"#utility.yul\":8998:9001   */\n      dup7\n        /* \"#utility.yul\":8994:9010   */\n      add\n        /* \"#utility.yul\":8980:8992   */\n      dup3\n        /* \"#utility.yul\":8946:9011   */\n      tag_98\n      jump\t// in\n    tag_220:\n        /* \"#utility.yul\":8852:9021   */\n      pop\n        /* \"#utility.yul\":9106:9112   */\n      0x0120\n        /* \"#utility.yul\":9099:9104   */\n      dup4\n        /* \"#utility.yul\":9095:9113   */\n      add\n        /* \"#utility.yul\":9089:9114   */\n      mload\n        /* \"#utility.yul\":9127:9192   */\n      tag_221\n        /* \"#utility.yul\":9184:9190   */\n      0x0120\n        /* \"#utility.yul\":9179:9182   */\n      dup7\n        /* \"#utility.yul\":9175:9191   */\n      add\n        /* \"#utility.yul\":9161:9173   */\n      dup3\n        /* \"#utility.yul\":9127:9192   */\n      tag_98\n      jump\t// in\n    tag_221:\n        /* \"#utility.yul\":9031:9202   */\n      pop\n        /* \"#utility.yul\":9219:9223   */\n      dup1\n        /* \"#utility.yul\":9212:9223   */\n      swap2\n      pop\n        /* \"#utility.yul\":7220:9229   */\n      pop\n        /* \"#utility.yul\":7100:9229   */\n      swap3\n      swap2\n      pop\n      pop\n      jump\t// out\n        /* \"#utility.yul\":9235:9600   */\n    tag_26:\n        /* \"#utility.yul\":9374:9378   */\n      0x00\n        /* \"#utility.yul\":9412:9414   */\n      0x20\n        /* \"#utility.yul\":9401:9410   */\n      dup3\n        /* \"#utility.yul\":9397:9415   */\n      add\n        /* \"#utility.yul\":9389:9415   */\n      swap1\n      pop\n        /* \"#utility.yul\":9461:9470   */\n      dup2\n        /* \"#utility.yul\":9455:9459   */\n      dup2\n        /* \"#utility.yul\":9451:9471   */\n      sub\n        /* \"#utility.yul\":9447:9448   */\n      0x00\n        /* \"#utility.yul\":9436:9445   */\n      dup4\n        /* \"#utility.yul\":9432:9449   */\n      add\n        /* \"#utility.yul\":9425:9472   */\n      mstore\n        /* \"#utility.yul\":9489:9593   */\n      tag_223\n        /* \"#utility.yul\":9588:9592   */\n      dup2\n        /* \"#utility.yul\":9579:9585   */\n      dup5\n        /* \"#utility.yul\":9489:9593   */\n      tag_99\n      jump\t// in\n    tag_223:\n        /* \"#utility.yul\":9481:9593   */\n      swap1\n      pop\n        /* \"#utility.yul\":9235:9600   */\n      swap3\n      swap2\n      pop\n      pop\n      jump\t// out\n        /* \"#utility.yul\":9606:9723   */\n    tag_100:\n        /* \"#utility.yul\":9715:9716   */\n      0x00\n        /* \"#utility.yul\":9712:9713   */\n      dup1\n        /* \"#utility.yul\":9705:9717   */\n      revert\n        /* \"#utility.yul\":9729:9909   */\n    tag_101:\n        /* \"#utility.yul\":9777:9854   */\n      0x4e487b7100000000000000000000000000000000000000000000000000000000\n        /* \"#utility.yul\":9774:9775   */\n      0x00\n        /* \"#utility.yul\":9767:9855   */\n      mstore\n        /* \"#utility.yul\":9874:9878   */\n      0x41\n        /* \"#utility.yul\":9871:9872   */\n      0x04\n        /* \"#utility.yul\":9864:9879   */\n      mstore\n        /* \"#utility.yul\":9898:9902   */\n      0x24\n        /* \"#utility.yul\":9895:9896   */\n      0x00\n        /* \"#utility.yul\":9888:9903   */\n      revert\n        /* \"#utility.yul\":9915:10196   */\n    tag_102:\n        /* \"#utility.yul\":9998:10025   */\n      tag_227\n        /* \"#utility.yul\":10020:10024   */\n      dup3\n        /* \"#utility.yul\":9998:10025   */\n      tag_81\n      jump\t// in\n    tag_227:\n        /* \"#utility.yul\":9990:9996   */\n      dup2\n        /* \"#utility.yul\":9986:10026   */\n      add\n        /* \"#utility.yul\":10128:10134   */\n      dup2\n        /* \"#utility.yul\":10116:10126   */\n      dup2\n        /* \"#utility.yul\":10113:10135   */\n      lt\n        /* \"#utility.yul\":10092:10110   */\n      0xffffffffffffffff\n        /* \"#utility.yul\":10080:10090   */\n      dup3\n        /* \"#utility.yul\":10077:10111   */\n      gt\n        /* \"#utility.yul\":10074:10136   */\n      or\n        /* \"#utility.yul\":10071:10159   */\n      iszero\n      tag_228\n      jumpi\n        /* \"#utility.yul\":10139:10157   */\n      tag_229\n      tag_101\n      jump\t// in\n    tag_229:\n        /* \"#utility.yul\":10071:10159   */\n    tag_228:\n        /* \"#utility.yul\":10179:10189   */\n      dup1\n        /* \"#utility.yul\":10175:10177   */\n      0x40\n        /* \"#utility.yul\":10168:10190   */\n      mstore\n        /* \"#utility.yul\":9958:10196   */\n      pop\n        /* \"#utility.yul\":9915:10196   */\n      pop\n      pop\n      jump\t// out\n        /* \"#utility.yul\":10202:10331   */\n    tag_103:\n        /* \"#utility.yul\":10236:10242   */\n      0x00\n        /* \"#utility.yul\":10263:10283   */\n      tag_231\n      tag_71\n      jump\t// in\n    tag_231:\n        /* \"#utility.yul\":10253:10283   */\n      swap1\n      pop\n        /* \"#utility.yul\":10292:10325   */\n      tag_232\n        /* \"#utility.yul\":10320:10324   */\n      dup3\n        /* \"#utility.yul\":10312:10318   */\n      dup3\n        /* \"#utility.yul\":10292:10325   */\n      tag_102\n      jump\t// in\n    tag_232:\n        /* \"#utility.yul\":10202:10331   */\n      swap2\n      swap1\n      pop\n      jump\t// out\n        /* \"#utility.yul\":10337:10454   */\n    tag_104:\n        /* \"#utility.yul\":10446:10447   */\n      0x00\n        /* \"#utility.yul\":10443:10444   */\n      dup1\n        /* \"#utility.yul\":10436:10448   */\n      revert\n        /* \"#utility.yul\":10460:10577   */\n    tag_105:\n        /* \"#utility.yul\":10569:10570   */\n      0x00\n        /* \"#utility.yul\":10566:10567   */\n      dup1\n        /* \"#utility.yul\":10559:10571   */\n      revert\n        /* \"#utility.yul\":10583:10700   */\n    tag_106:\n        /* \"#utility.yul\":10692:10693   */\n      0x00\n        /* \"#utility.yul\":10689:10690   */\n      dup1\n        /* \"#utility.yul\":10682:10694   */\n      revert\n        /* \"#utility.yul\":10706:11014   */\n    tag_107:\n        /* \"#utility.yul\":10768:10772   */\n      0x00\n        /* \"#utility.yul\":10858:10876   */\n      0xffffffffffffffff\n        /* \"#utility.yul\":10850:10856   */\n      dup3\n        /* \"#utility.yul\":10847:10877   */\n      gt\n        /* \"#utility.yul\":10844:10900   */\n      iszero\n      tag_237\n      jumpi\n        /* \"#utility.yul\":10880:10898   */\n      tag_238\n      tag_101\n      jump\t// in\n    tag_238:\n        /* \"#utility.yul\":10844:10900   */\n    tag_237:\n        /* \"#utility.yul\":10918:10947   */\n      tag_239\n        /* \"#utility.yul\":10940:10946   */\n      dup3\n        /* \"#utility.yul\":10918:10947   */\n      tag_81\n      jump\t// in\n    tag_239:\n        /* \"#utility.yul\":10910:10947   */\n      swap1\n      pop\n        /* \"#utility.yul\":11002:11006   */\n      0x20\n        /* \"#utility.yul\":10996:11000   */\n      dup2\n        /* \"#utility.yul\":10992:11007   */\n      add\n        /* \"#utility.yul\":10984:11007   */\n      swap1\n      pop\n        /* \"#utility.yul\":10706:11014   */\n      swap2\n      swap1\n      pop\n      jump\t// out\n        /* \"#utility.yul\":11020:11166   */\n    tag_108:\n        /* \"#utility.yul\":11117:11123   */\n      dup3\n        /* \"#utility.yul\":11112:11115   */\n      dup2\n        /* \"#utility.yul\":11107:11110   */\n      dup4\n        /* \"#utility.yul\":11094:11124   */\n      calldatacopy\n        /* \"#utility.yul\":11158:11159   */\n      0x00\n        /* \"#utility.yul\":11149:11155   */\n      dup4\n        /* \"#utility.yul\":11144:11147   */\n      dup4\n        /* \"#utility.yul\":11140:11156   */\n      add\n        /* \"#utility.yul\":11133:11160   */\n      mstore\n        /* \"#utility.yul\":11020:11166   */\n      pop\n      pop\n      pop\n      jump\t// out\n        /* \"#utility.yul\":11172:11597   */\n    tag_109:\n        /* \"#utility.yul\":11250:11255   */\n      0x00\n        /* \"#utility.yul\":11275:11341   */\n      tag_242\n        /* \"#utility.yul\":11291:11340   */\n      tag_243\n        /* \"#utility.yul\":11333:11339   */\n      dup5\n        /* \"#utility.yul\":11291:11340   */\n      tag_107\n      jump\t// in\n    tag_243:\n        /* \"#utility.yul\":11275:11341   */\n      tag_103\n      jump\t// in\n    tag_242:\n        /* \"#utility.yul\":11266:11341   */\n      swap1\n      pop\n        /* \"#utility.yul\":11364:11370   */\n      dup3\n        /* \"#utility.yul\":11357:11362   */\n      dup2\n        /* \"#utility.yul\":11350:11371   */\n      mstore\n        /* \"#utility.yul\":11402:11406   */\n      0x20\n        /* \"#utility.yul\":11395:11400   */\n      dup2\n        /* \"#utility.yul\":11391:11407   */\n      add\n        /* \"#utility.yul\":11440:11443   */\n      dup5\n        /* \"#utility.yul\":11431:11437   */\n      dup5\n        /* \"#utility.yul\":11426:11429   */\n      dup5\n        /* \"#utility.yul\":11422:11438   */\n      add\n        /* \"#utility.yul\":11419:11444   */\n      gt\n        /* \"#utility.yul\":11416:11528   */\n      iszero\n      tag_244\n      jumpi\n        /* \"#utility.yul\":11447:11526   */\n      tag_245\n      tag_106\n      jump\t// in\n    tag_245:\n        /* \"#utility.yul\":11416:11528   */\n    tag_244:\n        /* \"#utility.yul\":11537:11591   */\n      tag_246\n        /* \"#utility.yul\":11584:11590   */\n      dup5\n        /* \"#utility.yul\":11579:11582   */\n      dup3\n        /* \"#utility.yul\":11574:11577   */\n      dup6\n        /* \"#utility.yul\":11537:11591   */\n      tag_108\n      jump\t// in\n    tag_246:\n        /* \"#utility.yul\":11256:11597   */\n      pop\n        /* \"#utility.yul\":11172:11597   */\n      swap4\n      swap3\n      pop\n      pop\n      pop\n      jump\t// out\n        /* \"#utility.yul\":11617:11957   */\n    tag_110:\n        /* \"#utility.yul\":11673:11678   */\n      0x00\n        /* \"#utility.yul\":11722:11725   */\n      dup3\n        /* \"#utility.yul\":11715:11719   */\n      0x1f\n        /* \"#utility.yul\":11707:11713   */\n      dup4\n        /* \"#utility.yul\":11703:11720   */\n      add\n        /* \"#utility.yul\":11699:11726   */\n      slt\n        /* \"#utility.yul\":11689:11811   */\n      tag_248\n      jumpi\n        /* \"#utility.yul\":11730:11809   */\n      tag_249\n      tag_105\n      jump\t// in\n    tag_249:\n        /* \"#utility.yul\":11689:11811   */\n    tag_248:\n        /* \"#utility.yul\":11847:11853   */\n      dup2\n        /* \"#utility.yul\":11834:11854   */\n      calldataload\n        /* \"#utility.yul\":11872:11951   */\n      tag_250\n        /* \"#utility.yul\":11947:11950   */\n      dup5\n        /* \"#utility.yul\":11939:11945   */\n      dup3\n        /* \"#utility.yul\":11932:11936   */\n      0x20\n        /* \"#utility.yul\":11924:11930   */\n      dup7\n        /* \"#utility.yul\":11920:11937   */\n      add\n        /* \"#utility.yul\":11872:11951   */\n      tag_109\n      jump\t// in\n    tag_250:\n        /* \"#utility.yul\":11863:11951   */\n      swap2\n      pop\n        /* \"#utility.yul\":11679:11957   */\n      pop\n        /* \"#utility.yul\":11617:11957   */\n      swap3\n      swap2\n      pop\n      pop\n      jump\t// out\n        /* \"#utility.yul\":11993:14263   */\n    tag_111:\n        /* \"#utility.yul\":12065:12070   */\n      0x00\n        /* \"#utility.yul\":12109:12115   */\n      0x0140\n        /* \"#utility.yul\":12097:12106   */\n      dup3\n        /* \"#utility.yul\":12092:12095   */\n      dup5\n        /* \"#utility.yul\":12088:12107   */\n      sub\n        /* \"#utility.yul\":12084:12116   */\n      slt\n        /* \"#utility.yul\":12081:12200   */\n      iszero\n      tag_252\n      jumpi\n        /* \"#utility.yul\":12119:12198   */\n      tag_253\n      tag_100\n      jump\t// in\n    tag_253:\n        /* \"#utility.yul\":12081:12200   */\n    tag_252:\n        /* \"#utility.yul\":12218:12241   */\n      tag_254\n        /* \"#utility.yul\":12234:12240   */\n      0x0140\n        /* \"#utility.yul\":12218:12241   */\n      tag_103\n      jump\t// in\n    tag_254:\n        /* \"#utility.yul\":12209:12241   */\n      swap1\n      pop\n        /* \"#utility.yul\":12298:12299   */\n      0x00\n        /* \"#utility.yul\":12338:12387   */\n      tag_255\n        /* \"#utility.yul\":12383:12386   */\n      dup5\n        /* \"#utility.yul\":12374:12380   */\n      dup3\n        /* \"#utility.yul\":12363:12372   */\n      dup6\n        /* \"#utility.yul\":12359:12381   */\n      add\n        /* \"#utility.yul\":12338:12387   */\n      tag_76\n      jump\t// in\n    tag_255:\n        /* \"#utility.yul\":12331:12335   */\n      0x00\n        /* \"#utility.yul\":12324:12329   */\n      dup4\n        /* \"#utility.yul\":12320:12336   */\n      add\n        /* \"#utility.yul\":12313:12388   */\n      mstore\n        /* \"#utility.yul\":12251:12399   */\n      pop\n        /* \"#utility.yul\":12459:12461   */\n      0x20\n        /* \"#utility.yul\":12500:12549   */\n      tag_256\n        /* \"#utility.yul\":12545:12548   */\n      dup5\n        /* \"#utility.yul\":12536:12542   */\n      dup3\n        /* \"#utility.yul\":12525:12534   */\n      dup6\n        /* \"#utility.yul\":12521:12543   */\n      add\n        /* \"#utility.yul\":12500:12549   */\n      tag_76\n      jump\t// in\n    tag_256:\n        /* \"#utility.yul\":12493:12497   */\n      0x20\n        /* \"#utility.yul\":12486:12491   */\n      dup4\n        /* \"#utility.yul\":12482:12498   */\n      add\n        /* \"#utility.yul\":12475:12550   */\n      mstore\n        /* \"#utility.yul\":12409:12561   */\n      pop\n        /* \"#utility.yul\":12654:12656   */\n      0x40\n        /* \"#utility.yul\":12643:12652   */\n      dup3\n        /* \"#utility.yul\":12639:12657   */\n      add\n        /* \"#utility.yul\":12626:12658   */\n      calldataload\n        /* \"#utility.yul\":12685:12703   */\n      0xffffffffffffffff\n        /* \"#utility.yul\":12677:12683   */\n      dup2\n        /* \"#utility.yul\":12674:12704   */\n      gt\n        /* \"#utility.yul\":12671:12788   */\n      iszero\n      tag_257\n      jumpi\n        /* \"#utility.yul\":12707:12786   */\n      tag_258\n      tag_104\n      jump\t// in\n    tag_258:\n        /* \"#utility.yul\":12671:12788   */\n    tag_257:\n        /* \"#utility.yul\":12827:12886   */\n      tag_259\n        /* \"#utility.yul\":12882:12885   */\n      dup5\n        /* \"#utility.yul\":12873:12879   */\n      dup3\n        /* \"#utility.yul\":12862:12871   */\n      dup6\n        /* \"#utility.yul\":12858:12880   */\n      add\n        /* \"#utility.yul\":12827:12886   */\n      tag_110\n      jump\t// in\n    tag_259:\n        /* \"#utility.yul\":12820:12824   */\n      0x40\n        /* \"#utility.yul\":12813:12818   */\n      dup4\n        /* \"#utility.yul\":12809:12825   */\n      add\n        /* \"#utility.yul\":12802:12887   */\n      mstore\n        /* \"#utility.yul\":12571:12898   */\n      pop\n        /* \"#utility.yul\":12967:12969   */\n      0x60\n        /* \"#utility.yul\":13008:13057   */\n      tag_260\n        /* \"#utility.yul\":13053:13056   */\n      dup5\n        /* \"#utility.yul\":13044:13050   */\n      dup3\n        /* \"#utility.yul\":13033:13042   */\n      dup6\n        /* \"#utility.yul\":13029:13051   */\n      add\n        /* \"#utility.yul\":13008:13057   */\n      tag_76\n      jump\t// in\n    tag_260:\n        /* \"#utility.yul\":13001:13005   */\n      0x60\n        /* \"#utility.yul\":12994:12999   */\n      dup4\n        /* \"#utility.yul\":12990:13006   */\n      add\n        /* \"#utility.yul\":12983:13058   */\n      mstore\n        /* \"#utility.yul\":12908:13069   */\n      pop\n        /* \"#utility.yul\":13164:13167   */\n      0x80\n        /* \"#utility.yul\":13153:13162   */\n      dup3\n        /* \"#utility.yul\":13149:13168   */\n      add\n        /* \"#utility.yul\":13136:13169   */\n      calldataload\n        /* \"#utility.yul\":13196:13214   */\n      0xffffffffffffffff\n        /* \"#utility.yul\":13188:13194   */\n      dup2\n        /* \"#utility.yul\":13185:13215   */\n      gt\n        /* \"#utility.yul\":13182:13299   */\n      iszero\n      tag_261\n      jumpi\n        /* \"#utility.yul\":13218:13297   */\n      tag_262\n      tag_104\n      jump\t// in\n    tag_262:\n        /* \"#utility.yul\":13182:13299   */\n    tag_261:\n        /* \"#utility.yul\":13338:13397   */\n      tag_263\n        /* \"#utility.yul\":13393:13396   */\n      dup5\n        /* \"#utility.yul\":13384:13390   */\n      dup3\n        /* \"#utility.yul\":13373:13382   */\n      dup6\n        /* \"#utility.yul\":13369:13391   */\n      add\n        /* \"#utility.yul\":13338:13397   */\n      tag_110\n      jump\t// in\n    tag_263:\n        /* \"#utility.yul\":13331:13335   */\n      0x80\n        /* \"#utility.yul\":13324:13329   */\n      dup4\n        /* \"#utility.yul\":13320:13336   */\n      add\n        /* \"#utility.yul\":13313:13398   */\n      mstore\n        /* \"#utility.yul\":13079:13409   */\n      pop\n        /* \"#utility.yul\":13476:13479   */\n      0xa0\n        /* \"#utility.yul\":13518:13567   */\n      tag_264\n        /* \"#utility.yul\":13563:13566   */\n      dup5\n        /* \"#utility.yul\":13554:13560   */\n      dup3\n        /* \"#utility.yul\":13543:13552   */\n      dup6\n        /* \"#utility.yul\":13539:13561   */\n      add\n        /* \"#utility.yul\":13518:13567   */\n      tag_76\n      jump\t// in\n    tag_264:\n        /* \"#utility.yul\":13511:13515   */\n      0xa0\n        /* \"#utility.yul\":13504:13509   */\n      dup4\n        /* \"#utility.yul\":13500:13516   */\n      add\n        /* \"#utility.yul\":13493:13568   */\n      mstore\n        /* \"#utility.yul\":13419:13579   */\n      pop\n        /* \"#utility.yul\":13645:13648   */\n      0xc0\n        /* \"#utility.yul\":13687:13736   */\n      tag_265\n        /* \"#utility.yul\":13732:13735   */\n      dup5\n        /* \"#utility.yul\":13723:13729   */\n      dup3\n        /* \"#utility.yul\":13712:13721   */\n      dup6\n        /* \"#utility.yul\":13708:13730   */\n      add\n        /* \"#utility.yul\":13687:13736   */\n      tag_76\n      jump\t// in\n    tag_265:\n        /* \"#utility.yul\":13680:13684   */\n      0xc0\n        /* \"#utility.yul\":13673:13678   */\n      dup4\n        /* \"#utility.yul\":13669:13685   */\n      add\n        /* \"#utility.yul\":13662:13737   */\n      mstore\n        /* \"#utility.yul\":13589:13748   */\n      pop\n        /* \"#utility.yul\":13809:13812   */\n      0xe0\n        /* \"#utility.yul\":13851:13912   */\n      tag_266\n        /* \"#utility.yul\":13908:13911   */\n      dup5\n        /* \"#utility.yul\":13899:13905   */\n      dup3\n        /* \"#utility.yul\":13888:13897   */\n      dup6\n        /* \"#utility.yul\":13884:13906   */\n      add\n        /* \"#utility.yul\":13851:13912   */\n      tag_91\n      jump\t// in\n    tag_266:\n        /* \"#utility.yul\":13844:13848   */\n      0xe0\n        /* \"#utility.yul\":13837:13842   */\n      dup4\n        /* \"#utility.yul\":13833:13849   */\n      add\n        /* \"#utility.yul\":13826:13913   */\n      mstore\n        /* \"#utility.yul\":13758:13924   */\n      pop\n        /* \"#utility.yul\":13984:13987   */\n      0x0100\n        /* \"#utility.yul\":14028:14077   */\n      tag_267\n        /* \"#utility.yul\":14073:14076   */\n      dup5\n        /* \"#utility.yul\":14064:14070   */\n      dup3\n        /* \"#utility.yul\":14053:14062   */\n      dup6\n        /* \"#utility.yul\":14049:14071   */\n      add\n        /* \"#utility.yul\":14028:14077   */\n      tag_93\n      jump\t// in\n    tag_267:\n        /* \"#utility.yul\":14019:14025   */\n      0x0100\n        /* \"#utility.yul\":14012:14017   */\n      dup4\n        /* \"#utility.yul\":14008:14026   */\n      add\n        /* \"#utility.yul\":14001:14078   */\n      mstore\n        /* \"#utility.yul\":13934:14089   */\n      pop\n        /* \"#utility.yul\":14151:14154   */\n      0x0120\n        /* \"#utility.yul\":14195:14244   */\n      tag_268\n        /* \"#utility.yul\":14240:14243   */\n      dup5\n        /* \"#utility.yul\":14231:14237   */\n      dup3\n        /* \"#utility.yul\":14220:14229   */\n      dup6\n        /* \"#utility.yul\":14216:14238   */\n      add\n        /* \"#utility.yul\":14195:14244   */\n      tag_93\n      jump\t// in\n    tag_268:\n        /* \"#utility.yul\":14186:14192   */\n      0x0120\n        /* \"#utility.yul\":14179:14184   */\n      dup4\n        /* \"#utility.yul\":14175:14193   */\n      add\n        /* \"#utility.yul\":14168:14245   */\n      mstore\n        /* \"#utility.yul\":14099:14256   */\n      pop\n        /* \"#utility.yul\":11993:14263   */\n      swap3\n      swap2\n      pop\n      pop\n      jump\t// out\n        /* \"#utility.yul\":14269:14949   */\n    tag_29:\n        /* \"#utility.yul\":14360:14366   */\n      0x00\n        /* \"#utility.yul\":14368:14374   */\n      dup1\n        /* \"#utility.yul\":14417:14419   */\n      0x40\n        /* \"#utility.yul\":14405:14414   */\n      dup4\n        /* \"#utility.yul\":14396:14403   */\n      dup6\n        /* \"#utility.yul\":14392:14415   */\n      sub\n        /* \"#utility.yul\":14388:14420   */\n      slt\n        /* \"#utility.yul\":14385:14504   */\n      iszero\n      tag_270\n      jumpi\n        /* \"#utility.yul\":14423:14502   */\n      tag_271\n      tag_72\n      jump\t// in\n    tag_271:\n        /* \"#utility.yul\":14385:14504   */\n    tag_270:\n        /* \"#utility.yul\":14543:14544   */\n      0x00\n        /* \"#utility.yul\":14568:14621   */\n      tag_272\n        /* \"#utility.yul\":14613:14620   */\n      dup6\n        /* \"#utility.yul\":14604:14610   */\n      dup3\n        /* \"#utility.yul\":14593:14602   */\n      dup7\n        /* \"#utility.yul\":14589:14611   */\n      add\n        /* \"#utility.yul\":14568:14621   */\n      tag_76\n      jump\t// in\n    tag_272:\n        /* \"#utility.yul\":14558:14621   */\n      swap3\n      pop\n        /* \"#utility.yul\":14514:14631   */\n      pop\n        /* \"#utility.yul\":14698:14700   */\n      0x20\n        /* \"#utility.yul\":14687:14696   */\n      dup4\n        /* \"#utility.yul\":14683:14701   */\n      add\n        /* \"#utility.yul\":14670:14702   */\n      calldataload\n        /* \"#utility.yul\":14729:14747   */\n      0xffffffffffffffff\n        /* \"#utility.yul\":14721:14727   */\n      dup2\n        /* \"#utility.yul\":14718:14748   */\n      gt\n        /* \"#utility.yul\":14715:14832   */\n      iszero\n      tag_273\n      jumpi\n        /* \"#utility.yul\":14751:14830   */\n      tag_274\n      tag_73\n      jump\t// in\n    tag_274:\n        /* \"#utility.yul\":14715:14832   */\n    tag_273:\n        /* \"#utility.yul\":14856:14932   */\n      tag_275\n        /* \"#utility.yul\":14924:14931   */\n      dup6\n        /* \"#utility.yul\":14915:14921   */\n      dup3\n        /* \"#utility.yul\":14904:14913   */\n      dup7\n        /* \"#utility.yul\":14900:14922   */\n      add\n        /* \"#utility.yul\":14856:14932   */\n      tag_111\n      jump\t// in\n    tag_275:\n        /* \"#utility.yul\":14846:14932   */\n      swap2\n      pop\n        /* \"#utility.yul\":14641:14942   */\n      pop\n        /* \"#utility.yul\":14269:14949   */\n      swap3\n      pop\n      swap3\n      swap1\n      pop\n      jump\t// out\n        /* \"#utility.yul\":14955:15135   */\n    tag_112:\n        /* \"#utility.yul\":15003:15080   */\n      0x4e487b7100000000000000000000000000000000000000000000000000000000\n        /* \"#utility.yul\":15000:15001   */\n      0x00\n        /* \"#utility.yul\":14993:15081   */\n      mstore\n        /* \"#utility.yul\":15100:15104   */\n      0x22\n        /* \"#utility.yul\":15097:15098   */\n      0x04\n        /* \"#utility.yul\":15090:15105   */\n      mstore\n        /* \"#utility.yul\":15124:15128   */\n      0x24\n        /* \"#utility.yul\":15121:15122   */\n      0x00\n        /* \"#utility.yul\":15114:15129   */\n      revert\n        /* \"#utility.yul\":15141:15461   */\n    tag_32:\n        /* \"#utility.yul\":15185:15191   */\n      0x00\n        /* \"#utility.yul\":15222:15223   */\n      0x02\n        /* \"#utility.yul\":15216:15220   */\n      dup3\n        /* \"#utility.yul\":15212:15224   */\n      div\n        /* \"#utility.yul\":15202:15224   */\n      swap1\n      pop\n        /* \"#utility.yul\":15269:15270   */\n      0x01\n        /* \"#utility.yul\":15263:15267   */\n      dup3\n        /* \"#utility.yul\":15259:15271   */\n      and\n        /* \"#utility.yul\":15290:15308   */\n      dup1\n        /* \"#utility.yul\":15280:15361   */\n      tag_278\n      jumpi\n        /* \"#utility.yul\":15346:15350   */\n      0x7f\n        /* \"#utility.yul\":15338:15344   */\n      dup3\n        /* \"#utility.yul\":15334:15351   */\n      and\n        /* \"#utility.yul\":15324:15351   */\n      swap2\n      pop\n        /* \"#utility.yul\":15280:15361   */\n    tag_278:\n        /* \"#utility.yul\":15408:15410   */\n      0x20\n        /* \"#utility.yul\":15400:15406   */\n      dup3\n        /* \"#utility.yul\":15397:15411   */\n      lt\n        /* \"#utility.yul\":15377:15395   */\n      dup2\n        /* \"#utility.yul\":15374:15412   */\n      sub\n        /* \"#utility.yul\":15371:15455   */\n      tag_279\n      jumpi\n        /* \"#utility.yul\":15427:15445   */\n      tag_280\n      tag_112\n      jump\t// in\n    tag_280:\n        /* \"#utility.yul\":15371:15455   */\n    tag_279:\n        /* \"#utility.yul\":15192:15461   */\n      pop\n        /* \"#utility.yul\":15141:15461   */\n      swap2\n      swap1\n      pop\n      jump\t// out\n        /* \"#utility.yul\":15467:15608   */\n    tag_113:\n        /* \"#utility.yul\":15516:15520   */\n      0x00\n        /* \"#utility.yul\":15539:15542   */\n      dup2\n        /* \"#utility.yul\":15531:15542   */\n      swap1\n      pop\n        /* \"#utility.yul\":15562:15565   */\n      dup2\n        /* \"#utility.yul\":15559:15560   */\n      0x00\n        /* \"#utility.yul\":15552:15566   */\n      mstore\n        /* \"#utility.yul\":15596:15600   */\n      0x20\n        /* \"#utility.yul\":15593:15594   */\n      0x00\n        /* \"#utility.yul\":15583:15601   */\n      keccak256\n        /* \"#utility.yul\":15575:15601   */\n      swap1\n      pop\n        /* \"#utility.yul\":15467:15608   */\n      swap2\n      swap1\n      pop\n      jump\t// out\n        /* \"#utility.yul\":15614:15707   */\n    tag_114:\n        /* \"#utility.yul\":15651:15657   */\n      0x00\n        /* \"#utility.yul\":15698:15700   */\n      0x20\n        /* \"#utility.yul\":15693:15695   */\n      0x1f\n        /* \"#utility.yul\":15686:15691   */\n      dup4\n        /* \"#utility.yul\":15682:15696   */\n      add\n        /* \"#utility.yul\":15678:15701   */\n      div\n        /* \"#utility.yul\":15668:15701   */\n      swap1\n      pop\n        /* \"#utility.yul\":15614:15707   */\n      swap2\n      swap1\n      pop\n      jump\t// out\n        /* \"#utility.yul\":15713:15820   */\n    tag_115:\n        /* \"#utility.yul\":15757:15765   */\n      0x00\n        /* \"#utility.yul\":15807:15812   */\n      dup3\n        /* \"#utility.yul\":15801:15805   */\n      dup3\n        /* \"#utility.yul\":15797:15813   */\n      shl\n        /* \"#utility.yul\":15776:15813   */\n      swap1\n      pop\n        /* \"#utility.yul\":15713:15820   */\n      swap3\n      swap2\n      pop\n      pop\n      jump\t// out\n        /* \"#utility.yul\":15826:16219   */\n    tag_116:\n        /* \"#utility.yul\":15895:15901   */\n      0x00\n        /* \"#utility.yul\":15945:15946   */\n      0x08\n        /* \"#utility.yul\":15933:15943   */\n      dup4\n        /* \"#utility.yul\":15929:15947   */\n      mul\n        /* \"#utility.yul\":15968:16065   */\n      tag_285\n        /* \"#utility.yul\":15998:16064   */\n      0xffffffffffffffffffffffffffffffffffffffffffffffffffffffffffffffff\n        /* \"#utility.yul\":15987:15996   */\n      dup3\n        /* \"#utility.yul\":15968:16065   */\n      tag_115\n      jump\t// in\n    tag_285:\n        /* \"#utility.yul\":16086:16125   */\n      tag_286\n        /* \"#utility.yul\":16116:16124   */\n      dup7\n        /* \"#utility.yul\":16105:16114   */\n      dup4\n        /* \"#utility.yul\":16086:16125   */\n      tag_115\n      jump\t// in\n    tag_286:\n        /* \"#utility.yul\":16074:16125   */\n      swap6\n      pop\n        /* \"#utility.yul\":16158:16162   */\n      dup1\n        /* \"#utility.yul\":16154:16163   */\n      not\n        /* \"#utility.yul\":16147:16152   */\n      dup5\n        /* \"#utility.yul\":16143:16164   */\n      and\n        /* \"#utility.yul\":16134:16164   */\n      swap4\n      pop\n        /* \"#utility.yul\":16207:16211   */\n      dup1\n        /* \"#utility.yul\":16197:16205   */\n      dup7\n        /* \"#utility.yul\":16193:16212   */\n      and\n        /* \"#utility.yul\":16186:16191   */\n      dup5\n        /* \"#utility.yul\":16183:16213   */\n      or\n        /* \"#utility.yul\":16173:16213   */\n      swap3\n      pop\n        /* \"#utility.yul\":15902:16219   */\n      pop\n      pop\n        /* \"#utility.yul\":15826:16219   */\n      swap4\n      swap3\n      pop\n      pop\n      pop\n      jump\t// out\n        /* \"#utility.yul\":16225:16285   */\n    tag_117:\n        /* \"#utility.yul\":16253:16256   */\n      0x00\n        /* \"#utility.yul\":16274:16279   */\n      dup2\n        /* \"#utility.yul\":16267:16279   */\n      swap1\n      pop\n        /* \"#utility.yul\":16225:16285   */\n      swap2\n      swap1\n      pop\n      jump\t// out\n        /* \"#utility.yul\":16291:16433   */\n    tag_118:\n        /* \"#utility.yul\":16341:16350   */\n      0x00\n        /* \"#utility.yul\":16374:16427   */\n      tag_289\n        /* \"#utility.yul\":16392:16426   */\n      tag_290\n        /* \"#utility.yul\":16401:16425   */\n      tag_291\n        /* \"#utility.yul\":16419:16424   */\n      dup5\n        /* \"#utility.yul\":16401:16425   */\n      tag_74\n      jump\t// in\n    tag_291:\n        /* \"#utility.yul\":16392:16426   */\n      tag_117\n      jump\t// in\n    tag_290:\n        /* \"#utility.yul\":16374:16427   */\n      tag_74\n      jump\t// in\n    tag_289:\n        /* \"#utility.yul\":16361:16427   */\n      swap1\n      pop\n        /* \"#utility.yul\":16291:16433   */\n      swap2\n      swap1\n      pop\n      jump\t// out\n        /* \"#utility.yul\":16439:16514   */\n    tag_119:\n        /* \"#utility.yul\":16482:16485   */\n      0x00\n        /* \"#utility.yul\":16503:16508   */\n      dup2\n        /* \"#utility.yul\":16496:16508   */\n      swap1\n      pop\n        /* \"#utility.yul\":16439:16514   */\n      swap2\n      swap1\n      pop\n      jump\t// out\n        /* \"#utility.yul\":16520:16789   */\n    tag_120:\n        /* \"#utility.yul\":16630:16669   */\n      tag_294\n        /* \"#utility.yul\":16661:16668   */\n      dup4\n        /* \"#utility.yul\":16630:16669   */\n      tag_118\n      jump\t// in\n    tag_294:\n        /* \"#utility.yul\":16691:16782   */\n      tag_295\n        /* \"#utility.yul\":16740:16781   */\n      tag_296\n        /* \"#utility.yul\":16764:16780   */\n      dup3\n        /* \"#utility.yul\":16740:16781   */\n      tag_119\n      jump\t// in\n    tag_296:\n        /* \"#utility.yul\":16732:16738   */\n      dup5\n        /* \"#utility.yul\":16725:16729   */\n      dup5\n        /* \"#utility.yul\":16719:16730   */\n      sload\n        /* \"#utility.yul\":16691:16782   */\n      tag_116\n      jump\t// in\n    tag_295:\n        /* \"#utility.yul\":16685:16689   */\n      dup3\n        /* \"#utility.yul\":16678:16783   */\n      sstore\n        /* \"#utility.yul\":16596:16789   */\n      pop\n        /* \"#utility.yul\":16520:16789   */\n      pop\n      pop\n      pop\n      jump\t// out\n        /* \"#utility.yul\":16795:16868   */\n    tag_121:\n        /* \"#utility.yul\":16840:16843   */\n      0x00\n        /* \"#utility.yul\":16795:16868   */\n      swap1\n      jump\t// out\n        /* \"#utility.yul\":16874:17063   */\n    tag_122:\n        /* \"#utility.yul\":16951:16983   */\n      tag_299\n      tag_121\n      jump\t// in\n    tag_299:\n        /* \"#utility.yul\":16992:17057   */\n      tag_300\n        /* \"#utility.yul\":17050:17056   */\n      dup2\n        /* \"#utility.yul\":17042:17048   */\n      dup5\n        /* \"#utility.yul\":17036:17040   */\n      dup5\n        /* \"#utility.yul\":16992:17057   */\n      tag_120\n      jump\t// in\n    tag_300:\n        /* \"#utility.yul\":16927:17063   */\n      pop\n        /* \"#utility.yul\":16874:17063   */\n      pop\n      pop\n      jump\t// out\n        /* \"#utility.yul\":17069:17255   */\n    tag_123:\n        /* \"#utility.yul\":17129:17249   */\n    tag_302:\n        /* \"#utility.yul\":17146:17149   */\n      dup2\n        /* \"#utility.yul\":17139:17144   */\n      dup2\n        /* \"#utility.yul\":17136:17150   */\n      lt\n        /* \"#utility.yul\":17129:17249   */\n      iszero\n      tag_304\n      jumpi\n        /* \"#utility.yul\":17200:17239   */\n      tag_305\n        /* \"#utility.yul\":17237:17238   */\n      0x00\n        /* \"#utility.yul\":17230:17235   */\n      dup3\n        /* \"#utility.yul\":17200:17239   */\n      tag_122\n      jump\t// in\n    tag_305:\n        /* \"#utility.yul\":17173:17174   */\n      0x01\n        /* \"#utility.yul\":17166:17171   */\n      dup2\n        /* \"#utility.yul\":17162:17175   */\n      add\n        /* \"#utility.yul\":17153:17175   */\n      swap1\n      pop\n        /* \"#utility.yul\":17129:17249   */\n      jump(tag_302)\n    tag_304:\n        /* \"#utility.yul\":17069:17255   */\n      pop\n      pop\n      jump\t// out\n        /* \"#utility.yul\":17261:17804   */\n    tag_124:\n        /* \"#utility.yul\":17362:17364   */\n      0x1f\n        /* \"#utility.yul\":17357:17360   */\n      dup3\n        /* \"#utility.yul\":17354:17365   */\n      gt\n        /* \"#utility.yul\":17351:17797   */\n      iszero\n      tag_307\n      jumpi\n        /* \"#utility.yul\":17396:17434   */\n      tag_308\n        /* \"#utility.yul\":17428:17433   */\n      dup2\n        /* \"#utility.yul\":17396:17434   */\n      tag_113\n      jump\t// in\n    tag_308:\n        /* \"#utility.yul\":17480:17509   */\n      tag_309\n        /* \"#utility.yul\":17498:17508   */\n      dup5\n        /* \"#utility.yul\":17480:17509   */\n      tag_114\n      jump\t// in\n    tag_309:\n        /* \"#utility.yul\":17470:17478   */\n      dup2\n        /* \"#utility.yul\":17466:17510   */\n      add\n        /* \"#utility.yul\":17663:17665   */\n      0x20\n        /* \"#utility.yul\":17651:17661   */\n      dup6\n        /* \"#utility.yul\":17648:17666   */\n      lt\n        /* \"#utility.yul\":17645:17694   */\n      iszero\n      tag_310\n      jumpi\n        /* \"#utility.yul\":17684:17692   */\n      dup2\n        /* \"#utility.yul\":17669:17692   */\n      swap1\n      pop\n        /* \"#utility.yul\":17645:17694   */\n    tag_310:\n        /* \"#utility.yul\":17707:17787   */\n      tag_311\n        /* \"#utility.yul\":17763:17785   */\n      tag_312\n        /* \"#utility.yul\":17781:17784   */\n      dup6\n        /* \"#utility.yul\":17763:17785   */\n      tag_114\n      jump\t// in\n    tag_312:\n        /* \"#utility.yul\":17753:17761   */\n      dup4\n        /* \"#utility.yul\":17749:17786   */\n      add\n        /* \"#utility.yul\":17736:17747   */\n      dup3\n        /* \"#utility.yul\":17707:17787   */\n      tag_123\n      jump\t// in\n    tag_311:\n        /* \"#utility.yul\":17366:17797   */\n      pop\n      pop\n        /* \"#utility.yul\":17351:17797   */\n    tag_307:\n        /* \"#utility.yul\":17261:17804   */\n      pop\n      pop\n      pop\n      jump\t// out\n        /* \"#utility.yul\":17810:17927   */\n    tag_125:\n        /* \"#utility.yul\":17864:17872   */\n      0x00\n        /* \"#utility.yul\":17914:17919   */\n      dup3\n        /* \"#utility.yul\":17908:17912   */\n      dup3\n        /* \"#utility.yul\":17904:17920   */\n      shr\n        /* \"#utility.yul\":17883:17920   */\n      swap1\n      pop\n        /* \"#utility.yul\":17810:17927   */\n      swap3\n      swap2\n      pop\n      pop\n      jump\t// out\n        /* \"#utility.yul\":17933:18102   */\n    tag_126:\n        /* \"#utility.yul\":17977:17983   */\n      0x00\n        /* \"#utility.yul\":18010:18061   */\n      tag_315\n        /* \"#utility.yul\":18058:18059   */\n      0x00\n        /* \"#utility.yul\":18054:18060   */\n      not\n        /* \"#utility.yul\":18046:18051   */\n      dup5\n        /* \"#utility.yul\":18043:18044   */\n      0x08\n        /* \"#utility.yul\":18039:18052   */\n      mul\n        /* \"#utility.yul\":18010:18061   */\n      tag_125\n      jump\t// in\n    tag_315:\n        /* \"#utility.yul\":18006:18062   */\n      not\n        /* \"#utility.yul\":18091:18095   */\n      dup1\n        /* \"#utility.yul\":18085:18089   */\n      dup4\n        /* \"#utility.yul\":18081:18096   */\n      and\n        /* \"#utility.yul\":18071:18096   */\n      swap2\n      pop\n        /* \"#utility.yul\":17984:18102   */\n      pop\n        /* \"#utility.yul\":17933:18102   */\n      swap3\n      swap2\n      pop\n      pop\n      jump\t// out\n        /* \"#utility.yul\":18107:18402   */\n    tag_127:\n        /* \"#utility.yul\":18183:18187   */\n      0x00\n        /* \"#utility.yul\":18329:18358   */\n      tag_317\n        /* \"#utility.yul\":18354:18357   */\n      dup4\n        /* \"#utility.yul\":18348:18352   */\n      dup4\n        /* \"#utility.yul\":18329:18358   */\n      tag_126\n      jump\t// in\n    tag_317:\n        /* \"#utility.yul\":18321:18358   */\n      swap2\n      pop\n        /* \"#utility.yul\":18391:18394   */\n      dup3\n        /* \"#utility.yul\":18388:18389   */\n      0x02\n        /* \"#utility.yul\":18384:18395   */\n      mul\n        /* \"#utility.yul\":18378:18382   */\n      dup3\n        /* \"#utility.yul\":18375:18396   */\n      or\n        /* \"#utility.yul\":18367:18396   */\n      swap1\n      pop\n        /* \"#utility.yul\":18107:18402   */\n      swap3\n      swap2\n      pop\n      pop\n      jump\t// out\n        /* \"#utility.yul\":18407:19802   */\n    tag_65:\n        /* \"#utility.yul\":18524:18561   */\n      tag_319\n        /* \"#utility.yul\":18557:18560   */\n      dup3\n        /* \"#utility.yul\":18524:18561   */\n      tag_78\n      jump\t// in\n    tag_319:\n        /* \"#utility.yul\":18626:18644   */\n      0xffffffffffffffff\n        /* \"#utility.yul\":18618:18624   */\n      dup2\n        /* \"#utility.yul\":18615:18645   */\n      gt\n        /* \"#utility.yul\":18612:18668   */\n      iszero\n      tag_320\n      jumpi\n        /* \"#utility.yul\":18648:18666   */\n      tag_321\n      tag_101\n      jump\t// in\n    tag_321:\n        /* \"#utility.yul\":18612:18668   */\n    tag_320:\n        /* \"#utility.yul\":18692:18730   */\n      tag_322\n        /* \"#utility.yul\":18724:18728   */\n      dup3\n        /* \"#utility.yul\":18718:18729   */\n      sload\n        /* \"#utility.yul\":18692:18730   */\n      tag_32\n      jump\t// in\n    tag_322:\n        /* \"#utility.yul\":18777:18844   */\n      tag_323\n        /* \"#utility.yul\":18837:18843   */\n      dup3\n        /* \"#utility.yul\":18829:18835   */\n      dup3\n        /* \"#utility.yul\":18823:18827   */\n      dup6\n        /* \"#utility.yul\":18777:18844   */\n      tag_124\n      jump\t// in\n    tag_323:\n        /* \"#utility.yul\":18871:18872   */\n      0x00\n        /* \"#utility.yul\":18895:18899   */\n      0x20\n        /* \"#utility.yul\":18882:18899   */\n      swap1\n      pop\n        /* \"#utility.yul\":18927:18929   */\n      0x1f\n        /* \"#utility.yul\":18919:18925   */\n      dup4\n        /* \"#utility.yul\":18916:18930   */\n      gt\n        /* \"#utility.yul\":18944:18945   */\n      0x01\n        /* \"#utility.yul\":18939:19557   */\n      dup2\n      eq\n      tag_325\n      jumpi\n        /* \"#utility.yul\":19601:19602   */\n      0x00\n        /* \"#utility.yul\":19618:19624   */\n      dup5\n        /* \"#utility.yul\":19615:19692   */\n      iszero\n      tag_326\n      jumpi\n        /* \"#utility.yul\":19667:19676   */\n      dup3\n        /* \"#utility.yul\":19662:19665   */\n      dup8\n        /* \"#utility.yul\":19658:19677   */\n      add\n        /* \"#utility.yul\":19652:19678   */\n      mload\n        /* \"#utility.yul\":19643:19678   */\n      swap1\n      pop\n        /* \"#utility.yul\":19615:19692   */\n    tag_326:\n        /* \"#utility.yul\":19718:19785   */\n      tag_327\n        /* \"#utility.yul\":19778:19784   */\n      dup6\n        /* \"#utility.yul\":19771:19776   */\n      dup3\n        /* \"#utility.yul\":19718:19785   */\n      tag_127\n      jump\t// in\n    tag_327:\n        /* \"#utility.yul\":19712:19716   */\n      dup7\n        /* \"#utility.yul\":19705:19786   */\n      sstore\n        /* \"#utility.yul\":19574:19796   */\n      pop\n        /* \"#utility.yul\":18909:19796   */\n      jump(tag_324)\n        /* \"#utility.yul\":18939:19557   */\n    tag_325:\n        /* \"#utility.yul\":18991:18995   */\n      0x1f\n        /* \"#utility.yul\":18987:18996   */\n      not\n        /* \"#utility.yul\":18979:18985   */\n      dup5\n        /* \"#utility.yul\":18975:18997   */\n      and\n        /* \"#utility.yul\":19025:19062   */\n      tag_328\n        /* \"#utility.yul\":19057:19061   */\n      dup7\n        /* \"#utility.yul\":19025:19062   */\n      tag_113\n      jump\t// in\n    tag_328:\n        /* \"#utility.yul\":19084:19085   */\n      0x00\n        /* \"#utility.yul\":19098:19306   */\n    tag_329:\n        /* \"#utility.yul\":19112:19119   */\n      dup3\n        /* \"#utility.yul\":19109:19110   */\n      dup2\n        /* \"#utility.yul\":19106:19120   */\n      lt\n        /* \"#utility.yul\":19098:19306   */\n      iszero\n      tag_331\n      jumpi\n        /* \"#utility.yul\":19191:19200   */\n      dup5\n        /* \"#utility.yul\":19186:19189   */\n      dup10\n        /* \"#utility.yul\":19182:19201   */\n      add\n        /* \"#utility.yul\":19176:19202   */\n      mload\n        /* \"#utility.yul\":19168:19174   */\n      dup3\n        /* \"#utility.yul\":19161:19203   */\n      sstore\n        /* \"#utility.yul\":19242:19243   */\n      0x01\n        /* \"#utility.yul\":19234:19240   */\n      dup3\n        /* \"#utility.yul\":19230:19244   */\n      add\n        /* \"#utility.yul\":19220:19244   */\n      swap2\n      pop\n        /* \"#utility.yul\":19289:19291   */\n      0x20\n        /* \"#utility.yul\":19278:19287   */\n      dup6\n        /* \"#utility.yul\":19274:19292   */\n      add\n        /* \"#utility.yul\":19261:19292   */\n      swap5\n      pop\n        /* \"#utility.yul\":19135:19139   */\n      0x20\n        /* \"#utility.yul\":19132:19133   */\n      dup2\n        /* \"#utility.yul\":19128:19140   */\n      add\n        /* \"#utility.yul\":19123:19140   */\n      swap1\n      pop\n        /* \"#utility.yul\":19098:19306   */\n      jump(tag_329)\n    tag_331:\n        /* \"#utility.yul\":19334:19340   */\n      dup7\n        /* \"#utility.yul\":19325:19332   */\n      dup4\n        /* \"#utility.yul\":19322:19341   */\n      lt\n        /* \"#utility.yul\":19319:19498   */\n      iszero\n      tag_332\n      jumpi\n        /* \"#utility.yul\":19392:19401   */\n      dup5\n        /* \"#utility.yul\":19387:19390   */\n      dup10\n        /* \"#utility.yul\":19383:19402   */\n      add\n        /* \"#utility.yul\":19377:19403   */\n      mload\n        /* \"#utility.yul\":19435:19483   */\n      tag_333\n        /* \"#utility.yul\":19477:19481   */\n      0x1f\n        /* \"#utility.yul\":19469:19475   */\n      dup10\n        /* \"#utility.yul\":19465:19482   */\n      and\n        /* \"#utility.yul\":19454:19463   */\n      dup3\n        /* \"#utility.yul\":19435:19483   */\n      tag_126\n      jump\t// in\n    tag_333:\n        /* \"#utility.yul\":19427:19433   */\n      dup4\n        /* \"#utility.yul\":19420:19484   */\n      sstore\n        /* \"#utility.yul\":19342:19498   */\n      pop\n        /* \"#utility.yul\":19319:19498   */\n    tag_332:\n        /* \"#utility.yul\":19544:19545   */\n      0x01\n        /* \"#utility.yul\":19540:19541   */\n      0x02\n        /* \"#utility.yul\":19532:19538   */\n      dup9\n        /* \"#utility.yul\":19528:19542   */\n      mul\n        /* \"#utility.yul\":19524:19546   */\n      add\n        /* \"#utility.yul\":19518:19522   */\n      dup9\n        /* \"#utility.yul\":19511:19547   */\n      sstore\n        /* \"#utility.yul\":18946:19557   */\n      pop\n      pop\n      pop\n        /* \"#utility.yul\":18909:19796   */\n    tag_324:\n      pop\n        /* \"#utility.yul\":18499:19802   */\n      pop\n      pop\n      pop\n        /* \"#utility.yul\":18407:19802   */\n      pop\n      pop\n      jump\t// out\n\n    auxdata: 0xa26469706673582212205eb9965a1797b73aaeab362296eb372f92c6bee2cc269155d6331e35ad8af75564736f6c63430008160033\n}\n",
				"bytecode": {
					"linkReferences": {},
					"object": "608060405234801561000f575f80fd5b506111d38061001d5f395ff3fe608060405234801561000f575f80fd5b5060043610610055575f3560e01c806352764e031461005957806382003b3114610092578063e8536dd6146100b0578063f2c24032146100cc578063f456a8c2146100fc575b5f80fd5b610073600480360381019061006e91906107d4565b610118565b6040516100899a9998979695949392919061094a565b60405180910390f35b61009a6102be565b6040516100a791906109f2565b60405180910390f35b6100ca60048036038101906100c59190610a58565b6102e3565b005b6100e660048036038101906100e191906107d4565b610374565b6040516100f39190610bfb565b60405180910390f35b61011660048036038101906101119190610e7a565b6105d5565b005b5f602052805f5260405f205f91509050805f01549080600101549080600201805461014290610f01565b80601f016020809104026020016040519081016040528092919081815260200182805461016e90610f01565b80156101b95780601f10610190576101008083540402835291602001916101b9565b820191905f5260205f20905b81548152906001019060200180831161019c57829003601f168201915b5050505050908060030154908060040180546101d490610f01565b80601f016020809104026020016040519081016040528092919081815260200182805461020090610f01565b801561024b5780601f106102225761010080835404028352916020019161024b565b820191905f5260205f20905b81548152906001019060200180831161022e57829003601f168201915b505050505090806005015490806006015490806007015f9054906101000a900460ff16908060070160019054906101000a900473ffffffffffffffffffffffffffffffffffffffff1690806008015f9054906101000a900473ffffffffffffffffffffffffffffffffffffffff1690508a565b60015f9054906101000a900473ffffffffffffffffffffffffffffffffffffffff1681565b815f808581526020019081526020015f206007015f6101000a81548160ff0219169083600481111561031857610317610898565b5b0217905550805f808581526020019081526020015f2060070160016101000a81548173ffffffffffffffffffffffffffffffffffffffff021916908373ffffffffffffffffffffffffffffffffffffffff160217905550505050565b61037c610707565b5f808381526020019081526020015f20604051806101400160405290815f8201548152602001600182015481526020016002820180546103bb90610f01565b80601f01602080910402602001604051908101604052809291908181526020018280546103e790610f01565b80156104325780601f1061040957610100808354040283529160200191610432565b820191905f5260205f20905b81548152906001019060200180831161041557829003601f168201915b505050505081526020016003820154815260200160048201805461045590610f01565b80601f016020809104026020016040519081016040528092919081815260200182805461048190610f01565b80156104cc5780601f106104a3576101008083540402835291602001916104cc565b820191905f5260205f20905b8154815290600101906020018083116104af57829003601f168201915b505050505081526020016005820154815260200160068201548152602001600782015f9054906101000a900460ff16600481111561050d5761050c610898565b5b600481111561051f5761051e610898565b5b81526020016007820160019054906101000a900473ffffffffffffffffffffffffffffffffffffffff1673ffffffffffffffffffffffffffffffffffffffff1673ffffffffffffffffffffffffffffffffffffffff168152602001600882015f9054906101000a900473ffffffffffffffffffffffffffffffffffffffff1673ffffffffffffffffffffffffffffffffffffffff1673ffffffffffffffffffffffffffffffffffffffff16815250509050919050565b805f808481526020019081526020015f205f820151815f015560208201518160010155604082015181600201908161060d91906110ce565b5060608201518160030155608082015181600401908161062d91906110ce565b5060a0820151816005015560c0820151816006015560e0820151816007015f6101000a81548160ff0219169083600481111561066c5761066b610898565b5b02179055506101008201518160070160016101000a81548173ffffffffffffffffffffffffffffffffffffffff021916908373ffffffffffffffffffffffffffffffffffffffff160217905550610120820151816008015f6101000a81548173ffffffffffffffffffffffffffffffffffffffff021916908373ffffffffffffffffffffffffffffffffffffffff1602179055509050505050565b6040518061014001604052805f81526020015f8152602001606081526020015f8152602001606081526020015f81526020015f81526020015f600481111561075257610751610898565b5b81526020015f73ffffffffffffffffffffffffffffffffffffffff1681526020015f73ffffffffffffffffffffffffffffffffffffffff1681525090565b5f604051905090565b5f80fd5b5f80fd5b5f819050919050565b6107b3816107a1565b81146107bd575f80fd5b50565b5f813590506107ce816107aa565b92915050565b5f602082840312156107e9576107e8610799565b5b5f6107f6848285016107c0565b91505092915050565b610808816107a1565b82525050565b5f81519050919050565b5f82825260208201905092915050565b5f5b8381101561084557808201518184015260208101905061082a565b5f8484015250505050565b5f601f19601f8301169050919050565b5f61086a8261080e565b6108748185610818565b9350610884818560208601610828565b61088d81610850565b840191505092915050565b7f4e487b71000000000000000000000000000000000000000000000000000000005f52602160045260245ffd5b600581106108d6576108d5610898565b5b50565b5f8190506108e6826108c5565b919050565b5f6108f5826108d9565b9050919050565b610905816108eb565b82525050565b5f73ffffffffffffffffffffffffffffffffffffffff82169050919050565b5f6109348261090b565b9050919050565b6109448161092a565b82525050565b5f6101408201905061095e5f83018d6107ff565b61096b602083018c6107ff565b818103604083015261097d818b610860565b905061098c606083018a6107ff565b818103608083015261099e8189610860565b90506109ad60a08301886107ff565b6109ba60c08301876107ff565b6109c760e08301866108fc565b6109d561010083018561093b565b6109e361012083018461093b565b9b9a5050505050505050505050565b5f602082019050610a055f83018461093b565b92915050565b60058110610a17575f80fd5b50565b5f81359050610a2881610a0b565b92915050565b610a378161092a565b8114610a41575f80fd5b50565b5f81359050610a5281610a2e565b92915050565b5f805f60608486031215610a6f57610a6e610799565b5b5f610a7c868287016107c0565b9350506020610a8d86828701610a1a565b9250506040610a9e86828701610a44565b9150509250925092565b610ab1816107a1565b82525050565b5f82825260208201905092915050565b5f610ad18261080e565b610adb8185610ab7565b9350610aeb818560208601610828565b610af481610850565b840191505092915050565b610b08816108eb565b82525050565b610b178161092a565b82525050565b5f61014083015f830151610b335f860182610aa8565b506020830151610b466020860182610aa8565b5060408301518482036040860152610b5e8282610ac7565b9150506060830151610b736060860182610aa8565b5060808301518482036080860152610b8b8282610ac7565b91505060a0830151610ba060a0860182610aa8565b5060c0830151610bb360c0860182610aa8565b5060e0830151610bc660e0860182610aff565b50610100830151610bdb610100860182610b0e565b50610120830151610bf0610120860182610b0e565b508091505092915050565b5f6020820190508181035f830152610c138184610b1d565b905092915050565b5f80fd5b7f4e487b71000000000000000000000000000000000000000000000000000000005f52604160045260245ffd5b610c5582610850565b810181811067ffffffffffffffff82111715610c7457610c73610c1f565b5b80604052505050565b5f610c86610790565b9050610c928282610c4c565b919050565b5f80fd5b5f80fd5b5f80fd5b5f67ffffffffffffffff821115610cbd57610cbc610c1f565b5b610cc682610850565b9050602081019050919050565b828183375f83830152505050565b5f610cf3610cee84610ca3565b610c7d565b905082815260208101848484011115610d0f57610d0e610c9f565b5b610d1a848285610cd3565b509392505050565b5f82601f830112610d3657610d35610c9b565b5b8135610d46848260208601610ce1565b91505092915050565b5f6101408284031215610d6557610d64610c1b565b5b610d70610140610c7d565b90505f610d7f848285016107c0565b5f830152506020610d92848285016107c0565b602083015250604082013567ffffffffffffffff811115610db657610db5610c97565b5b610dc284828501610d22565b6040830152506060610dd6848285016107c0565b606083015250608082013567ffffffffffffffff811115610dfa57610df9610c97565b5b610e0684828501610d22565b60808301525060a0610e1a848285016107c0565b60a08301525060c0610e2e848285016107c0565b60c08301525060e0610e4284828501610a1a565b60e083015250610100610e5784828501610a44565b61010083015250610120610e6d84828501610a44565b6101208301525092915050565b5f8060408385031215610e9057610e8f610799565b5b5f610e9d858286016107c0565b925050602083013567ffffffffffffffff811115610ebe57610ebd61079d565b5b610eca85828601610d4f565b9150509250929050565b7f4e487b71000000000000000000000000000000000000000000000000000000005f52602260045260245ffd5b5f6002820490506001821680610f1857607f821691505b602082108103610f2b57610f2a610ed4565b5b50919050565b5f819050815f5260205f209050919050565b5f6020601f8301049050919050565b5f82821b905092915050565b5f60088302610f8d7fffffffffffffffffffffffffffffffffffffffffffffffffffffffffffffffff82610f52565b610f978683610f52565b95508019841693508086168417925050509392505050565b5f819050919050565b5f610fd2610fcd610fc8846107a1565b610faf565b6107a1565b9050919050565b5f819050919050565b610feb83610fb8565b610fff610ff782610fd9565b848454610f5e565b825550505050565b5f90565b611013611007565b61101e818484610fe2565b505050565b5b81811015611041576110365f8261100b565b600181019050611024565b5050565b601f8211156110865761105781610f31565b61106084610f43565b8101602085101561106f578190505b61108361107b85610f43565b830182611023565b50505b505050565b5f82821c905092915050565b5f6110a65f198460080261108b565b1980831691505092915050565b5f6110be8383611097565b9150826002028217905092915050565b6110d78261080e565b67ffffffffffffffff8111156110f0576110ef610c1f565b5b6110fa8254610f01565b611105828285611045565b5f60209050601f831160018114611136575f8415611124578287015190505b61112e85826110b3565b865550611195565b601f19841661114486610f31565b5f5b8281101561116b57848901518255600182019150602085019450602081019050611146565b868310156111885784890151611184601f891682611097565b8355505b6001600288020188555050505b50505050505056fea26469706673582212205eb9965a1797b73aaeab362296eb372f92c6bee2cc269155d6331e35ad8af75564736f6c63430008160033",
					"opcodes": "PUSH1 0x80 PUSH1 0x40 MSTORE CALLVALUE DUP1 ISZERO PUSH2 0xF JUMPI PUSH0 DUP1 REVERT JUMPDEST POP PUSH2 0x11D3 DUP1 PUSH2 0x1D PUSH0 CODECOPY PUSH0 RETURN INVALID PUSH1 0x80 PUSH1 0x40 MSTORE CALLVALUE DUP1 ISZERO PUSH2 0xF JUMPI PUSH0 DUP1 REVERT JUMPDEST POP PUSH1 0x4 CALLDATASIZE LT PUSH2 0x55 JUMPI PUSH0 CALLDATALOAD PUSH1 0xE0 SHR DUP1 PUSH4 0x52764E03 EQ PUSH2 0x59 JUMPI DUP1 PUSH4 0x82003B31 EQ PUSH2 0x92 JUMPI DUP1 PUSH4 0xE8536DD6 EQ PUSH2 0xB0 JUMPI DUP1 PUSH4 0xF2C24032 EQ PUSH2 0xCC JUMPI DUP1 PUSH4 0xF456A8C2 EQ PUSH2 0xFC JUMPI JUMPDEST PUSH0 DUP1 REVERT JUMPDEST PUSH2 0x73 PUSH1 0x4 DUP1 CALLDATASIZE SUB DUP2 ADD SWAP1 PUSH2 0x6E SWAP2 SWAP1 PUSH2 0x7D4 JUMP JUMPDEST PUSH2 0x118 JUMP JUMPDEST PUSH1 0x40 MLOAD PUSH2 0x89 SWAP11 SWAP10 SWAP9 SWAP8 SWAP7 SWAP6 SWAP5 SWAP4 SWAP3 SWAP2 SWAP1 PUSH2 0x94A JUMP JUMPDEST PUSH1 0x40 MLOAD DUP1 SWAP2 SUB SWAP1 RETURN JUMPDEST PUSH2 0x9A PUSH2 0x2BE JUMP JUMPDEST PUSH1 0x40 MLOAD PUSH2 0xA7 SWAP2 SWAP1 PUSH2 0x9F2 JUMP JUMPDEST PUSH1 0x40 MLOAD DUP1 SWAP2 SUB SWAP1 RETURN JUMPDEST PUSH2 0xCA PUSH1 0x4 DUP1 CALLDATASIZE SUB DUP2 ADD SWAP1 PUSH2 0xC5 SWAP2 SWAP1 PUSH2 0xA58 JUMP JUMPDEST PUSH2 0x2E3 JUMP JUMPDEST STOP JUMPDEST PUSH2 0xE6 PUSH1 0x4 DUP1 CALLDATASIZE SUB DUP2 ADD SWAP1 PUSH2 0xE1 SWAP2 SWAP1 PUSH2 0x7D4 JUMP JUMPDEST PUSH2 0x374 JUMP JUMPDEST PUSH1 0x40 MLOAD PUSH2 0xF3 SWAP2 SWAP1 PUSH2 0xBFB JUMP JUMPDEST PUSH1 0x40 MLOAD DUP1 SWAP2 SUB SWAP1 RETURN JUMPDEST PUSH2 0x116 PUSH1 0x4 DUP1 CALLDATASIZE SUB DUP2 ADD SWAP1 PUSH2 0x111 SWAP2 SWAP1 PUSH2 0xE7A JUMP JUMPDEST PUSH2 0x5D5 JUMP JUMPDEST STOP JUMPDEST PUSH0 PUSH1 0x20 MSTORE DUP1 PUSH0 MSTORE PUSH1 0x40 PUSH0 KECCAK256 PUSH0 SWAP2 POP SWAP1 POP DUP1 PUSH0 ADD SLOAD SWAP1 DUP1 PUSH1 0x1 ADD SLOAD SWAP1 DUP1 PUSH1 0x2 ADD DUP1 SLOAD PUSH2 0x142 SWAP1 PUSH2 0xF01 JUMP JUMPDEST DUP1 PUSH1 0x1F ADD PUSH1 0x20 DUP1 SWAP2 DIV MUL PUSH1 0x20 ADD PUSH1 0x40 MLOAD SWAP1 DUP2 ADD PUSH1 0x40 MSTORE DUP1 SWAP3 SWAP2 SWAP1 DUP2 DUP2 MSTORE PUSH1 0x20 ADD DUP3 DUP1 SLOAD PUSH2 0x16E SWAP1 PUSH2 0xF01 JUMP JUMPDEST DUP1 ISZERO PUSH2 0x1B9 JUMPI DUP1 PUSH1 0x1F LT PUSH2 0x190 JUMPI PUSH2 0x100 DUP1 DUP4 SLOAD DIV MUL DUP4 MSTORE SWAP2 PUSH1 0x20 ADD SWAP2 PUSH2 0x1B9 JUMP JUMPDEST DUP3 ADD SWAP2 SWAP1 PUSH0 MSTORE PUSH1 0x20 PUSH0 KECCAK256 SWAP1 JUMPDEST DUP2 SLOAD DUP2 MSTORE SWAP1 PUSH1 0x1 ADD SWAP1 PUSH1 0x20 ADD DUP1 DUP4 GT PUSH2 0x19C JUMPI DUP3 SWAP1 SUB PUSH1 0x1F AND DUP3 ADD SWAP2 JUMPDEST POP POP POP POP POP SWAP1 DUP1 PUSH1 0x3 ADD SLOAD SWAP1 DUP1 PUSH1 0x4 ADD DUP1 SLOAD PUSH2 0x1D4 SWAP1 PUSH2 0xF01 JUMP JUMPDEST DUP1 PUSH1 0x1F ADD PUSH1 0x20 DUP1 SWAP2 DIV MUL PUSH1 0x20 ADD PUSH1 0x40 MLOAD SWAP1 DUP2 ADD PUSH1 0x40 MSTORE DUP1 SWAP3 SWAP2 SWAP1 DUP2 DUP2 MSTORE PUSH1 0x20 ADD DUP3 DUP1 SLOAD PUSH2 0x200 SWAP1 PUSH2 0xF01 JUMP JUMPDEST DUP1 ISZERO PUSH2 0x24B JUMPI DUP1 PUSH1 0x1F LT PUSH2 0x222 JUMPI PUSH2 0x100 DUP1 DUP4 SLOAD DIV MUL DUP4 MSTORE SWAP2 PUSH1 0x20 ADD SWAP2 PUSH2 0x24B JUMP JUMPDEST DUP3 ADD SWAP2 SWAP1 PUSH0 MSTORE PUSH1 0x20 PUSH0 KECCAK256 SWAP1 JUMPDEST DUP2 SLOAD DUP2 MSTORE SWAP1 PUSH1 0x1 ADD SWAP1 PUSH1 0x20 ADD DUP1 DUP4 GT PUSH2 0x22E JUMPI DUP3 SWAP1 SUB PUSH1 0x1F AND DUP3 ADD SWAP2 JUMPDEST POP POP POP POP POP SWAP1 DUP1 PUSH1 0x5 ADD SLOAD SWAP1 DUP1 PUSH1 0x6 ADD SLOAD SWAP1 DUP1 PUSH1 0x7 ADD PUSH0 SWAP1 SLOAD SWAP1 PUSH2 0x100 EXP SWAP1 DIV PUSH1 0xFF AND SWAP1 DUP1 PUSH1 0x7 ADD PUSH1 0x1 SWAP1 SLOAD SWAP1 PUSH2 0x100 EXP SWAP1 DIV PUSH20 0xFFFFFFFFFFFFFFFFFFFFFFFFFFFFFFFFFFFFFFFF AND SWAP1 DUP1 PUSH1 0x8 ADD PUSH0 SWAP1 SLOAD SWAP1 PUSH2 0x100 EXP SWAP1 DIV PUSH20 0xFFFFFFFFFFFFFFFFFFFFFFFFFFFFFFFFFFFFFFFF AND SWAP1 POP DUP11 JUMP JUMPDEST PUSH1 0x1 PUSH0 SWAP1 SLOAD SWAP1 PUSH2 0x100 EXP SWAP1 DIV PUSH20 0xFFFFFFFFFFFFFFFFFFFFFFFFFFFFFFFFFFFFFFFF AND DUP2 JUMP JUMPDEST DUP2 PUSH0 DUP1 DUP6 DUP2 MSTORE PUSH1 0x20 ADD SWAP1 DUP2 MSTORE PUSH1 0x20 ADD PUSH0 KECCAK256 PUSH1 0x7 ADD PUSH0 PUSH2 0x100 EXP DUP2 SLOAD DUP2 PUSH1 0xFF MUL NOT AND SWAP1 DUP4 PUSH1 0x4 DUP2 GT ISZERO PUSH2 0x318 JUMPI PUSH2 0x317 PUSH2 0x898 JUMP JUMPDEST JUMPDEST MUL OR SWAP1 SSTORE POP DUP1 PUSH0 DUP1 DUP6 DUP2 MSTORE PUSH1 0x20 ADD SWAP1 DUP2 MSTORE PUSH1 0x20 ADD PUSH0 KECCAK256 PUSH1 0x7 ADD PUSH1 0x1 PUSH2 0x100 EXP DUP2 SLOAD DUP2 PUSH20 0xFFFFFFFFFFFFFFFFFFFFFFFFFFFFFFFFFFFFFFFF MUL NOT AND SWAP1 DUP4 PUSH20 0xFFFFFFFFFFFFFFFFFFFFFFFFFFFFFFFFFFFFFFFF AND MUL OR SWAP1 SSTORE POP POP POP POP JUMP JUMPDEST PUSH2 0x37C PUSH2 0x707 JUMP JUMPDEST PUSH0 DUP1 DUP4 DUP2 MSTORE PUSH1 0x20 ADD SWAP1 DUP2 MSTORE PUSH1 0x20 ADD PUSH0 KECCAK256 PUSH1 0x40 MLOAD DUP1 PUSH2 0x140 ADD PUSH1 0x40 MSTORE SWAP1 DUP2 PUSH0 DUP3 ADD SLOAD DUP2 MSTORE PUSH1 0x20 ADD PUSH1 0x1 DUP3 ADD SLOAD DUP2 MSTORE PUSH1 0x20 ADD PUSH1 0x2 DUP3 ADD DUP1 SLOAD PUSH2 0x3BB SWAP1 PUSH2 0xF01 JUMP JUMPDEST DUP1 PUSH1 0x1F ADD PUSH1 0x20 DUP1 SWAP2 DIV MUL PUSH1 0x20 ADD PUSH1 0x40 MLOAD SWAP1 DUP2 ADD PUSH1 0x40 MSTORE DUP1 SWAP3 SWAP2 SWAP1 DUP2 DUP2 MSTORE PUSH1 0x20 ADD DUP3 DUP1 SLOAD PUSH2 0x3E7 SWAP1 PUSH2 0xF01 JUMP JUMPDEST DUP1 ISZERO PUSH2 0x432 JUMPI DUP1 PUSH1 0x1F LT PUSH2 0x409 JUMPI PUSH2 0x100 DUP1 DUP4 SLOAD DIV MUL DUP4 MSTORE SWAP2 PUSH1 0x20 ADD SWAP2 PUSH2 0x432 JUMP JUMPDEST DUP3 ADD SWAP2 SWAP1 PUSH0 MSTORE PUSH1 0x20 PUSH0 KECCAK256 SWAP1 JUMPDEST DUP2 SLOAD DUP2 MSTORE SWAP1 PUSH1 0x1 ADD SWAP1 PUSH1 0x20 ADD DUP1 DUP4 GT PUSH2 0x415 JUMPI DUP3 SWAP1 SUB PUSH1 0x1F AND DUP3 ADD SWAP2 JUMPDEST POP POP POP POP POP DUP2 MSTORE PUSH1 0x20 ADD PUSH1 0x3 DUP3 ADD SLOAD DUP2 MSTORE PUSH1 0x20 ADD PUSH1 0x4 DUP3 ADD DUP1 SLOAD PUSH2 0x455 SWAP1 PUSH2 0xF01 JUMP JUMPDEST DUP1 PUSH1 0x1F ADD PUSH1 0x20 DUP1 SWAP2 DIV MUL PUSH1 0x20 ADD PUSH1 0x40 MLOAD SWAP1 DUP2 ADD PUSH1 0x40 MSTORE DUP1 SWAP3 SWAP2 SWAP1 DUP2 DUP2 MSTORE PUSH1 0x20 ADD DUP3 DUP1 SLOAD PUSH2 0x481 SWAP1 PUSH2 0xF01 JUMP JUMPDEST DUP1 ISZERO PUSH2 0x4CC JUMPI DUP1 PUSH1 0x1F LT PUSH2 0x4A3 JUMPI PUSH2 0x100 DUP1 DUP4 SLOAD DIV MUL DUP4 MSTORE SWAP2 PUSH1 0x20 ADD SWAP2 PUSH2 0x4CC JUMP JUMPDEST DUP3 ADD SWAP2 SWAP1 PUSH0 MSTORE PUSH1 0x20 PUSH0 KECCAK256 SWAP1 JUMPDEST DUP2 SLOAD DUP2 MSTORE SWAP1 PUSH1 0x1 ADD SWAP1 PUSH1 0x20 ADD DUP1 DUP4 GT PUSH2 0x4AF JUMPI DUP3 SWAP1 SUB PUSH1 0x1F AND DUP3 ADD SWAP2 JUMPDEST POP POP POP POP POP DUP2 MSTORE PUSH1 0x20 ADD PUSH1 0x5 DUP3 ADD SLOAD DUP2 MSTORE PUSH1 0x20 ADD PUSH1 0x6 DUP3 ADD SLOAD DUP2 MSTORE PUSH1 0x20 ADD PUSH1 0x7 DUP3 ADD PUSH0 SWAP1 SLOAD SWAP1 PUSH2 0x100 EXP SWAP1 DIV PUSH1 0xFF AND PUSH1 0x4 DUP2 GT ISZERO PUSH2 0x50D JUMPI PUSH2 0x50C PUSH2 0x898 JUMP JUMPDEST JUMPDEST PUSH1 0x4 DUP2 GT ISZERO PUSH2 0x51F JUMPI PUSH2 0x51E PUSH2 0x898 JUMP JUMPDEST JUMPDEST DUP2 MSTORE PUSH1 0x20 ADD PUSH1 0x7 DUP3 ADD PUSH1 0x1 SWAP1 SLOAD SWAP1 PUSH2 0x100 EXP SWAP1 DIV PUSH20 0xFFFFFFFFFFFFFFFFFFFFFFFFFFFFFFFFFFFFFFFF AND PUSH20 0xFFFFFFFFFFFFFFFFFFFFFFFFFFFFFFFFFFFFFFFF AND PUSH20 0xFFFFFFFFFFFFFFFFFFFFFFFFFFFFFFFFFFFFFFFF AND DUP2 MSTORE PUSH1 0x20 ADD PUSH1 0x8 DUP3 ADD PUSH0 SWAP1 SLOAD SWAP1 PUSH2 0x100 EXP SWAP1 DIV PUSH20 0xFFFFFFFFFFFFFFFFFFFFFFFFFFFFFFFFFFFFFFFF AND PUSH20 0xFFFFFFFFFFFFFFFFFFFFFFFFFFFFFFFFFFFFFFFF AND PUSH20 0xFFFFFFFFFFFFFFFFFFFFFFFFFFFFFFFFFFFFFFFF AND DUP2 MSTORE POP POP SWAP1 POP SWAP2 SWAP1 POP JUMP JUMPDEST DUP1 PUSH0 DUP1 DUP5 DUP2 MSTORE PUSH1 0x20 ADD SWAP1 DUP2 MSTORE PUSH1 0x20 ADD PUSH0 KECCAK256 PUSH0 DUP3 ADD MLOAD DUP2 PUSH0 ADD SSTORE PUSH1 0x20 DUP3 ADD MLOAD DUP2 PUSH1 0x1 ADD SSTORE PUSH1 0x40 DUP3 ADD MLOAD DUP2 PUSH1 0x2 ADD SWAP1 DUP2 PUSH2 0x60D SWAP2 SWAP1 PUSH2 0x10CE JUMP JUMPDEST POP PUSH1 0x60 DUP3 ADD MLOAD DUP2 PUSH1 0x3 ADD SSTORE PUSH1 0x80 DUP3 ADD MLOAD DUP2 PUSH1 0x4 ADD SWAP1 DUP2 PUSH2 0x62D SWAP2 SWAP1 PUSH2 0x10CE JUMP JUMPDEST POP PUSH1 0xA0 DUP3 ADD MLOAD DUP2 PUSH1 0x5 ADD SSTORE PUSH1 0xC0 DUP3 ADD MLOAD DUP2 PUSH1 0x6 ADD SSTORE PUSH1 0xE0 DUP3 ADD MLOAD DUP2 PUSH1 0x7 ADD PUSH0 PUSH2 0x100 EXP DUP2 SLOAD DUP2 PUSH1 0xFF MUL NOT AND SWAP1 DUP4 PUSH1 0x4 DUP2 GT ISZERO PUSH2 0x66C JUMPI PUSH2 0x66B PUSH2 0x898 JUMP JUMPDEST JUMPDEST MUL OR SWAP1 SSTORE POP PUSH2 0x100 DUP3 ADD MLOAD DUP2 PUSH1 0x7 ADD PUSH1 0x1 PUSH2 0x100 EXP DUP2 SLOAD DUP2 PUSH20 0xFFFFFFFFFFFFFFFFFFFFFFFFFFFFFFFFFFFFFFFF MUL NOT AND SWAP1 DUP4 PUSH20 0xFFFFFFFFFFFFFFFFFFFFFFFFFFFFFFFFFFFFFFFF AND MUL OR SWAP1 SSTORE POP PUSH2 0x120 DUP3 ADD MLOAD DUP2 PUSH1 0x8 ADD PUSH0 PUSH2 0x100 EXP DUP2 SLOAD DUP2 PUSH20 0xFFFFFFFFFFFFFFFFFFFFFFFFFFFFFFFFFFFFFFFF MUL NOT AND SWAP1 DUP4 PUSH20 0xFFFFFFFFFFFFFFFFFFFFFFFFFFFFFFFFFFFFFFFF AND MUL OR SWAP1 SSTORE POP SWAP1 POP POP POP POP JUMP JUMPDEST PUSH1 0x40 MLOAD DUP1 PUSH2 0x140 ADD PUSH1 0x40 MSTORE DUP1 PUSH0 DUP2 MSTORE PUSH1 0x20 ADD PUSH0 DUP2 MSTORE PUSH1 0x20 ADD PUSH1 0x60 DUP2 MSTORE PUSH1 0x20 ADD PUSH0 DUP2 MSTORE PUSH1 0x20 ADD PUSH1 0x60 DUP2 MSTORE PUSH1 0x20 ADD PUSH0 DUP2 MSTORE PUSH1 0x20 ADD PUSH0 DUP2 MSTORE PUSH1 0x20 ADD PUSH0 PUSH1 0x4 DUP2 GT ISZERO PUSH2 0x752 JUMPI PUSH2 0x751 PUSH2 0x898 JUMP JUMPDEST JUMPDEST DUP2 MSTORE PUSH1 0x20 ADD PUSH0 PUSH20 0xFFFFFFFFFFFFFFFFFFFFFFFFFFFFFFFFFFFFFFFF AND DUP2 MSTORE PUSH1 0x20 ADD PUSH0 PUSH20 0xFFFFFFFFFFFFFFFFFFFFFFFFFFFFFFFFFFFFFFFF AND DUP2 MSTORE POP SWAP1 JUMP JUMPDEST PUSH0 PUSH1 0x40 MLOAD SWAP1 POP SWAP1 JUMP JUMPDEST PUSH0 DUP1 REVERT JUMPDEST PUSH0 DUP1 REVERT JUMPDEST PUSH0 DUP2 SWAP1 POP SWAP2 SWAP1 POP JUMP JUMPDEST PUSH2 0x7B3 DUP2 PUSH2 0x7A1 JUMP JUMPDEST DUP2 EQ PUSH2 0x7BD JUMPI PUSH0 DUP1 REVERT JUMPDEST POP JUMP JUMPDEST PUSH0 DUP2 CALLDATALOAD SWAP1 POP PUSH2 0x7CE DUP2 PUSH2 0x7AA JUMP JUMPDEST SWAP3 SWAP2 POP POP JUMP JUMPDEST PUSH0 PUSH1 0x20 DUP3 DUP5 SUB SLT ISZERO PUSH2 0x7E9 JUMPI PUSH2 0x7E8 PUSH2 0x799 JUMP JUMPDEST JUMPDEST PUSH0 PUSH2 0x7F6 DUP5 DUP3 DUP6 ADD PUSH2 0x7C0 JUMP JUMPDEST SWAP2 POP POP SWAP3 SWAP2 POP POP JUMP JUMPDEST PUSH2 0x808 DUP2 PUSH2 0x7A1 JUMP JUMPDEST DUP3 MSTORE POP POP JUMP JUMPDEST PUSH0 DUP2 MLOAD SWAP1 POP SWAP2 SWAP1 POP JUMP JUMPDEST PUSH0 DUP3 DUP3 MSTORE PUSH1 0x20 DUP3 ADD SWAP1 POP SWAP3 SWAP2 POP POP JUMP JUMPDEST PUSH0 JUMPDEST DUP4 DUP2 LT ISZERO PUSH2 0x845 JUMPI DUP1 DUP3 ADD MLOAD DUP2 DUP5 ADD MSTORE PUSH1 0x20 DUP2 ADD SWAP1 POP PUSH2 0x82A JUMP JUMPDEST PUSH0 DUP5 DUP5 ADD MSTORE POP POP POP POP JUMP JUMPDEST PUSH0 PUSH1 0x1F NOT PUSH1 0x1F DUP4 ADD AND SWAP1 POP SWAP2 SWAP1 POP JUMP JUMPDEST PUSH0 PUSH2 0x86A DUP3 PUSH2 0x80E JUMP JUMPDEST PUSH2 0x874 DUP2 DUP6 PUSH2 0x818 JUMP JUMPDEST SWAP4 POP PUSH2 0x884 DUP2 DUP6 PUSH1 0x20 DUP7 ADD PUSH2 0x828 JUMP JUMPDEST PUSH2 0x88D DUP2 PUSH2 0x850 JUMP JUMPDEST DUP5 ADD SWAP2 POP POP SWAP3 SWAP2 POP POP JUMP JUMPDEST PUSH32 0x4E487B7100000000000000000000000000000000000000000000000000000000 PUSH0 MSTORE PUSH1 0x21 PUSH1 0x4 MSTORE PUSH1 0x24 PUSH0 REVERT JUMPDEST PUSH1 0x5 DUP2 LT PUSH2 0x8D6 JUMPI PUSH2 0x8D5 PUSH2 0x898 JUMP JUMPDEST JUMPDEST POP JUMP JUMPDEST PUSH0 DUP2 SWAP1 POP PUSH2 0x8E6 DUP3 PUSH2 0x8C5 JUMP JUMPDEST SWAP2 SWAP1 POP JUMP JUMPDEST PUSH0 PUSH2 0x8F5 DUP3 PUSH2 0x8D9 JUMP JUMPDEST SWAP1 POP SWAP2 SWAP1 POP JUMP JUMPDEST PUSH2 0x905 DUP2 PUSH2 0x8EB JUMP JUMPDEST DUP3 MSTORE POP POP JUMP JUMPDEST PUSH0 PUSH20 0xFFFFFFFFFFFFFFFFFFFFFFFFFFFFFFFFFFFFFFFF DUP3 AND SWAP1 POP SWAP2 SWAP1 POP JUMP JUMPDEST PUSH0 PUSH2 0x934 DUP3 PUSH2 0x90B JUMP JUMPDEST SWAP1 POP SWAP2 SWAP1 POP JUMP JUMPDEST PUSH2 0x944 DUP2 PUSH2 0x92A JUMP JUMPDEST DUP3 MSTORE POP POP JUMP JUMPDEST PUSH0 PUSH2 0x140 DUP3 ADD SWAP1 POP PUSH2 0x95E PUSH0 DUP4 ADD DUP14 PUSH2 0x7FF JUMP JUMPDEST PUSH2 0x96B PUSH1 0x20 DUP4 ADD DUP13 PUSH2 0x7FF JUMP JUMPDEST DUP2 DUP2 SUB PUSH1 0x40 DUP4 ADD MSTORE PUSH2 0x97D DUP2 DUP12 PUSH2 0x860 JUMP JUMPDEST SWAP1 POP PUSH2 0x98C PUSH1 0x60 DUP4 ADD DUP11 PUSH2 0x7FF JUMP JUMPDEST DUP2 DUP2 SUB PUSH1 0x80 DUP4 ADD MSTORE PUSH2 0x99E DUP2 DUP10 PUSH2 0x860 JUMP JUMPDEST SWAP1 POP PUSH2 0x9AD PUSH1 0xA0 DUP4 ADD DUP9 PUSH2 0x7FF JUMP JUMPDEST PUSH2 0x9BA PUSH1 0xC0 DUP4 ADD DUP8 PUSH2 0x7FF JUMP JUMPDEST PUSH2 0x9C7 PUSH1 0xE0 DUP4 ADD DUP7 PUSH2 0x8FC JUMP JUMPDEST PUSH2 0x9D5 PUSH2 0x100 DUP4 ADD DUP6 PUSH2 0x93B JUMP JUMPDEST PUSH2 0x9E3 PUSH2 0x120 DUP4 ADD DUP5 PUSH2 0x93B JUMP JUMPDEST SWAP12 SWAP11 POP POP POP POP POP POP POP POP POP POP POP JUMP JUMPDEST PUSH0 PUSH1 0x20 DUP3 ADD SWAP1 POP PUSH2 0xA05 PUSH0 DUP4 ADD DUP5 PUSH2 0x93B JUMP JUMPDEST SWAP3 SWAP2 POP POP JUMP JUMPDEST PUSH1 0x5 DUP2 LT PUSH2 0xA17 JUMPI PUSH0 DUP1 REVERT JUMPDEST POP JUMP JUMPDEST PUSH0 DUP2 CALLDATALOAD SWAP1 POP PUSH2 0xA28 DUP2 PUSH2 0xA0B JUMP JUMPDEST SWAP3 SWAP2 POP POP JUMP JUMPDEST PUSH2 0xA37 DUP2 PUSH2 0x92A JUMP JUMPDEST DUP2 EQ PUSH2 0xA41 JUMPI PUSH0 DUP1 REVERT JUMPDEST POP JUMP JUMPDEST PUSH0 DUP2 CALLDATALOAD SWAP1 POP PUSH2 0xA52 DUP2 PUSH2 0xA2E JUMP JUMPDEST SWAP3 SWAP2 POP POP JUMP JUMPDEST PUSH0 DUP1 PUSH0 PUSH1 0x60 DUP5 DUP7 SUB SLT ISZERO PUSH2 0xA6F JUMPI PUSH2 0xA6E PUSH2 0x799 JUMP JUMPDEST JUMPDEST PUSH0 PUSH2 0xA7C DUP7 DUP3 DUP8 ADD PUSH2 0x7C0 JUMP JUMPDEST SWAP4 POP POP PUSH1 0x20 PUSH2 0xA8D DUP7 DUP3 DUP8 ADD PUSH2 0xA1A JUMP JUMPDEST SWAP3 POP POP PUSH1 0x40 PUSH2 0xA9E DUP7 DUP3 DUP8 ADD PUSH2 0xA44 JUMP JUMPDEST SWAP2 POP POP SWAP3 POP SWAP3 POP SWAP3 JUMP JUMPDEST PUSH2 0xAB1 DUP2 PUSH2 0x7A1 JUMP JUMPDEST DUP3 MSTORE POP POP JUMP JUMPDEST PUSH0 DUP3 DUP3 MSTORE PUSH1 0x20 DUP3 ADD SWAP1 POP SWAP3 SWAP2 POP POP JUMP JUMPDEST PUSH0 PUSH2 0xAD1 DUP3 PUSH2 0x80E JUMP JUMPDEST PUSH2 0xADB DUP2 DUP6 PUSH2 0xAB7 JUMP JUMPDEST SWAP4 POP PUSH2 0xAEB DUP2 DUP6 PUSH1 0x20 DUP7 ADD PUSH2 0x828 JUMP JUMPDEST PUSH2 0xAF4 DUP2 PUSH2 0x850 JUMP JUMPDEST DUP5 ADD SWAP2 POP POP SWAP3 SWAP2 POP POP JUMP JUMPDEST PUSH2 0xB08 DUP2 PUSH2 0x8EB JUMP JUMPDEST DUP3 MSTORE POP POP JUMP JUMPDEST PUSH2 0xB17 DUP2 PUSH2 0x92A JUMP JUMPDEST DUP3 MSTORE POP POP JUMP JUMPDEST PUSH0 PUSH2 0x140 DUP4 ADD PUSH0 DUP4 ADD MLOAD PUSH2 0xB33 PUSH0 DUP7 ADD DUP3 PUSH2 0xAA8 JUMP JUMPDEST POP PUSH1 0x20 DUP4 ADD MLOAD PUSH2 0xB46 PUSH1 0x20 DUP7 ADD DUP3 PUSH2 0xAA8 JUMP JUMPDEST POP PUSH1 0x40 DUP4 ADD MLOAD DUP5 DUP3 SUB PUSH1 0x40 DUP7 ADD MSTORE PUSH2 0xB5E DUP3 DUP3 PUSH2 0xAC7 JUMP JUMPDEST SWAP2 POP POP PUSH1 0x60 DUP4 ADD MLOAD PUSH2 0xB73 PUSH1 0x60 DUP7 ADD DUP3 PUSH2 0xAA8 JUMP JUMPDEST POP PUSH1 0x80 DUP4 ADD MLOAD DUP5 DUP3 SUB PUSH1 0x80 DUP7 ADD MSTORE PUSH2 0xB8B DUP3 DUP3 PUSH2 0xAC7 JUMP JUMPDEST SWAP2 POP POP PUSH1 0xA0 DUP4 ADD MLOAD PUSH2 0xBA0 PUSH1 0xA0 DUP7 ADD DUP3 PUSH2 0xAA8 JUMP JUMPDEST POP PUSH1 0xC0 DUP4 ADD MLOAD PUSH2 0xBB3 PUSH1 0xC0 DUP7 ADD DUP3 PUSH2 0xAA8 JUMP JUMPDEST POP PUSH1 0xE0 DUP4 ADD MLOAD PUSH2 0xBC6 PUSH1 0xE0 DUP7 ADD DUP3 PUSH2 0xAFF JUMP JUMPDEST POP PUSH2 0x100 DUP4 ADD MLOAD PUSH2 0xBDB PUSH2 0x100 DUP7 ADD DUP3 PUSH2 0xB0E JUMP JUMPDEST POP PUSH2 0x120 DUP4 ADD MLOAD PUSH2 0xBF0 PUSH2 0x120 DUP7 ADD DUP3 PUSH2 0xB0E JUMP JUMPDEST POP DUP1 SWAP2 POP POP SWAP3 SWAP2 POP POP JUMP JUMPDEST PUSH0 PUSH1 0x20 DUP3 ADD SWAP1 POP DUP2 DUP2 SUB PUSH0 DUP4 ADD MSTORE PUSH2 0xC13 DUP2 DUP5 PUSH2 0xB1D JUMP JUMPDEST SWAP1 POP SWAP3 SWAP2 POP POP JUMP JUMPDEST PUSH0 DUP1 REVERT JUMPDEST PUSH32 0x4E487B7100000000000000000000000000000000000000000000000000000000 PUSH0 MSTORE PUSH1 0x41 PUSH1 0x4 MSTORE PUSH1 0x24 PUSH0 REVERT JUMPDEST PUSH2 0xC55 DUP3 PUSH2 0x850 JUMP JUMPDEST DUP2 ADD DUP2 DUP2 LT PUSH8 0xFFFFFFFFFFFFFFFF DUP3 GT OR ISZERO PUSH2 0xC74 JUMPI PUSH2 0xC73 PUSH2 0xC1F JUMP JUMPDEST JUMPDEST DUP1 PUSH1 0x40 MSTORE POP POP POP JUMP JUMPDEST PUSH0 PUSH2 0xC86 PUSH2 0x790 JUMP JUMPDEST SWAP1 POP PUSH2 0xC92 DUP3 DUP3 PUSH2 0xC4C JUMP JUMPDEST SWAP2 SWAP1 POP JUMP JUMPDEST PUSH0 DUP1 REVERT JUMPDEST PUSH0 DUP1 REVERT JUMPDEST PUSH0 DUP1 REVERT JUMPDEST PUSH0 PUSH8 0xFFFFFFFFFFFFFFFF DUP3 GT ISZERO PUSH2 0xCBD JUMPI PUSH2 0xCBC PUSH2 0xC1F JUMP JUMPDEST JUMPDEST PUSH2 0xCC6 DUP3 PUSH2 0x850 JUMP JUMPDEST SWAP1 POP PUSH1 0x20 DUP2 ADD SWAP1 POP SWAP2 SWAP1 POP JUMP JUMPDEST DUP3 DUP2 DUP4 CALLDATACOPY PUSH0 DUP4 DUP4 ADD MSTORE POP POP POP JUMP JUMPDEST PUSH0 PUSH2 0xCF3 PUSH2 0xCEE DUP5 PUSH2 0xCA3 JUMP JUMPDEST PUSH2 0xC7D JUMP JUMPDEST SWAP1 POP DUP3 DUP2 MSTORE PUSH1 0x20 DUP2 ADD DUP5 DUP5 DUP5 ADD GT ISZERO PUSH2 0xD0F JUMPI PUSH2 0xD0E PUSH2 0xC9F JUMP JUMPDEST JUMPDEST PUSH2 0xD1A DUP5 DUP3 DUP6 PUSH2 0xCD3 JUMP JUMPDEST POP SWAP4 SWAP3 POP POP POP JUMP JUMPDEST PUSH0 DUP3 PUSH1 0x1F DUP4 ADD SLT PUSH2 0xD36 JUMPI PUSH2 0xD35 PUSH2 0xC9B JUMP JUMPDEST JUMPDEST DUP2 CALLDATALOAD PUSH2 0xD46 DUP5 DUP3 PUSH1 0x20 DUP7 ADD PUSH2 0xCE1 JUMP JUMPDEST SWAP2 POP POP SWAP3 SWAP2 POP POP JUMP JUMPDEST PUSH0 PUSH2 0x140 DUP3 DUP5 SUB SLT ISZERO PUSH2 0xD65 JUMPI PUSH2 0xD64 PUSH2 0xC1B JUMP JUMPDEST JUMPDEST PUSH2 0xD70 PUSH2 0x140 PUSH2 0xC7D JUMP JUMPDEST SWAP1 POP PUSH0 PUSH2 0xD7F DUP5 DUP3 DUP6 ADD PUSH2 0x7C0 JUMP JUMPDEST PUSH0 DUP4 ADD MSTORE POP PUSH1 0x20 PUSH2 0xD92 DUP5 DUP3 DUP6 ADD PUSH2 0x7C0 JUMP JUMPDEST PUSH1 0x20 DUP4 ADD MSTORE POP PUSH1 0x40 DUP3 ADD CALLDATALOAD PUSH8 0xFFFFFFFFFFFFFFFF DUP2 GT ISZERO PUSH2 0xDB6 JUMPI PUSH2 0xDB5 PUSH2 0xC97 JUMP JUMPDEST JUMPDEST PUSH2 0xDC2 DUP5 DUP3 DUP6 ADD PUSH2 0xD22 JUMP JUMPDEST PUSH1 0x40 DUP4 ADD MSTORE POP PUSH1 0x60 PUSH2 0xDD6 DUP5 DUP3 DUP6 ADD PUSH2 0x7C0 JUMP JUMPDEST PUSH1 0x60 DUP4 ADD MSTORE POP PUSH1 0x80 DUP3 ADD CALLDATALOAD PUSH8 0xFFFFFFFFFFFFFFFF DUP2 GT ISZERO PUSH2 0xDFA JUMPI PUSH2 0xDF9 PUSH2 0xC97 JUMP JUMPDEST JUMPDEST PUSH2 0xE06 DUP5 DUP3 DUP6 ADD PUSH2 0xD22 JUMP JUMPDEST PUSH1 0x80 DUP4 ADD MSTORE POP PUSH1 0xA0 PUSH2 0xE1A DUP5 DUP3 DUP6 ADD PUSH2 0x7C0 JUMP JUMPDEST PUSH1 0xA0 DUP4 ADD MSTORE POP PUSH1 0xC0 PUSH2 0xE2E DUP5 DUP3 DUP6 ADD PUSH2 0x7C0 JUMP JUMPDEST PUSH1 0xC0 DUP4 ADD MSTORE POP PUSH1 0xE0 PUSH2 0xE42 DUP5 DUP3 DUP6 ADD PUSH2 0xA1A JUMP JUMPDEST PUSH1 0xE0 DUP4 ADD MSTORE POP PUSH2 0x100 PUSH2 0xE57 DUP5 DUP3 DUP6 ADD PUSH2 0xA44 JUMP JUMPDEST PUSH2 0x100 DUP4 ADD MSTORE POP PUSH2 0x120 PUSH2 0xE6D DUP5 DUP3 DUP6 ADD PUSH2 0xA44 JUMP JUMPDEST PUSH2 0x120 DUP4 ADD MSTORE POP SWAP3 SWAP2 POP POP JUMP JUMPDEST PUSH0 DUP1 PUSH1 0x40 DUP4 DUP6 SUB SLT ISZERO PUSH2 0xE90 JUMPI PUSH2 0xE8F PUSH2 0x799 JUMP JUMPDEST JUMPDEST PUSH0 PUSH2 0xE9D DUP6 DUP3 DUP7 ADD PUSH2 0x7C0 JUMP JUMPDEST SWAP3 POP POP PUSH1 0x20 DUP4 ADD CALLDATALOAD PUSH8 0xFFFFFFFFFFFFFFFF DUP2 GT ISZERO PUSH2 0xEBE JUMPI PUSH2 0xEBD PUSH2 0x79D JUMP JUMPDEST JUMPDEST PUSH2 0xECA DUP6 DUP3 DUP7 ADD PUSH2 0xD4F JUMP JUMPDEST SWAP2 POP POP SWAP3 POP SWAP3 SWAP1 POP JUMP JUMPDEST PUSH32 0x4E487B7100000000000000000000000000000000000000000000000000000000 PUSH0 MSTORE PUSH1 0x22 PUSH1 0x4 MSTORE PUSH1 0x24 PUSH0 REVERT JUMPDEST PUSH0 PUSH1 0x2 DUP3 DIV SWAP1 POP PUSH1 0x1 DUP3 AND DUP1 PUSH2 0xF18 JUMPI PUSH1 0x7F DUP3 AND SWAP2 POP JUMPDEST PUSH1 0x20 DUP3 LT DUP2 SUB PUSH2 0xF2B JUMPI PUSH2 0xF2A PUSH2 0xED4 JUMP JUMPDEST JUMPDEST POP SWAP2 SWAP1 POP JUMP JUMPDEST PUSH0 DUP2 SWAP1 POP DUP2 PUSH0 MSTORE PUSH1 0x20 PUSH0 KECCAK256 SWAP1 POP SWAP2 SWAP1 POP JUMP JUMPDEST PUSH0 PUSH1 0x20 PUSH1 0x1F DUP4 ADD DIV SWAP1 POP SWAP2 SWAP1 POP JUMP JUMPDEST PUSH0 DUP3 DUP3 SHL SWAP1 POP SWAP3 SWAP2 POP POP JUMP JUMPDEST PUSH0 PUSH1 0x8 DUP4 MUL PUSH2 0xF8D PUSH32 0xFFFFFFFFFFFFFFFFFFFFFFFFFFFFFFFFFFFFFFFFFFFFFFFFFFFFFFFFFFFFFFFF DUP3 PUSH2 0xF52 JUMP JUMPDEST PUSH2 0xF97 DUP7 DUP4 PUSH2 0xF52 JUMP JUMPDEST SWAP6 POP DUP1 NOT DUP5 AND SWAP4 POP DUP1 DUP7 AND DUP5 OR SWAP3 POP POP POP SWAP4 SWAP3 POP POP POP JUMP JUMPDEST PUSH0 DUP2 SWAP1 POP SWAP2 SWAP1 POP JUMP JUMPDEST PUSH0 PUSH2 0xFD2 PUSH2 0xFCD PUSH2 0xFC8 DUP5 PUSH2 0x7A1 JUMP JUMPDEST PUSH2 0xFAF JUMP JUMPDEST PUSH2 0x7A1 JUMP JUMPDEST SWAP1 POP SWAP2 SWAP1 POP JUMP JUMPDEST PUSH0 DUP2 SWAP1 POP SWAP2 SWAP1 POP JUMP JUMPDEST PUSH2 0xFEB DUP4 PUSH2 0xFB8 JUMP JUMPDEST PUSH2 0xFFF PUSH2 0xFF7 DUP3 PUSH2 0xFD9 JUMP JUMPDEST DUP5 DUP5 SLOAD PUSH2 0xF5E JUMP JUMPDEST DUP3 SSTORE POP POP POP POP JUMP JUMPDEST PUSH0 SWAP1 JUMP JUMPDEST PUSH2 0x1013 PUSH2 0x1007 JUMP JUMPDEST PUSH2 0x101E DUP2 DUP5 DUP5 PUSH2 0xFE2 JUMP JUMPDEST POP POP POP JUMP JUMPDEST JUMPDEST DUP2 DUP2 LT ISZERO PUSH2 0x1041 JUMPI PUSH2 0x1036 PUSH0 DUP3 PUSH2 0x100B JUMP JUMPDEST PUSH1 0x1 DUP2 ADD SWAP1 POP PUSH2 0x1024 JUMP JUMPDEST POP POP JUMP JUMPDEST PUSH1 0x1F DUP3 GT ISZERO PUSH2 0x1086 JUMPI PUSH2 0x1057 DUP2 PUSH2 0xF31 JUMP JUMPDEST PUSH2 0x1060 DUP5 PUSH2 0xF43 JUMP JUMPDEST DUP2 ADD PUSH1 0x20 DUP6 LT ISZERO PUSH2 0x106F JUMPI DUP2 SWAP1 POP JUMPDEST PUSH2 0x1083 PUSH2 0x107B DUP6 PUSH2 0xF43 JUMP JUMPDEST DUP4 ADD DUP3 PUSH2 0x1023 JUMP JUMPDEST POP POP JUMPDEST POP POP POP JUMP JUMPDEST PUSH0 DUP3 DUP3 SHR SWAP1 POP SWAP3 SWAP2 POP POP JUMP JUMPDEST PUSH0 PUSH2 0x10A6 PUSH0 NOT DUP5 PUSH1 0x8 MUL PUSH2 0x108B JUMP JUMPDEST NOT DUP1 DUP4 AND SWAP2 POP POP SWAP3 SWAP2 POP POP JUMP JUMPDEST PUSH0 PUSH2 0x10BE DUP4 DUP4 PUSH2 0x1097 JUMP JUMPDEST SWAP2 POP DUP3 PUSH1 0x2 MUL DUP3 OR SWAP1 POP SWAP3 SWAP2 POP POP JUMP JUMPDEST PUSH2 0x10D7 DUP3 PUSH2 0x80E JUMP JUMPDEST PUSH8 0xFFFFFFFFFFFFFFFF DUP2 GT ISZERO PUSH2 0x10F0 JUMPI PUSH2 0x10EF PUSH2 0xC1F JUMP JUMPDEST JUMPDEST PUSH2 0x10FA DUP3 SLOAD PUSH2 0xF01 JUMP JUMPDEST PUSH2 0x1105 DUP3 DUP3 DUP6 PUSH2 0x1045 JUMP JUMPDEST PUSH0 PUSH1 0x20 SWAP1 POP PUSH1 0x1F DUP4 GT PUSH1 0x1 DUP2 EQ PUSH2 0x1136 JUMPI PUSH0 DUP5 ISZERO PUSH2 0x1124 JUMPI DUP3 DUP8 ADD MLOAD SWAP1 POP JUMPDEST PUSH2 0x112E DUP6 DUP3 PUSH2 0x10B3 JUMP JUMPDEST DUP7 SSTORE POP PUSH2 0x1195 JUMP JUMPDEST PUSH1 0x1F NOT DUP5 AND PUSH2 0x1144 DUP7 PUSH2 0xF31 JUMP JUMPDEST PUSH0 JUMPDEST DUP3 DUP2 LT ISZERO PUSH2 0x116B JUMPI DUP5 DUP10 ADD MLOAD DUP3 SSTORE PUSH1 0x1 DUP3 ADD SWAP2 POP PUSH1 0x20 DUP6 ADD SWAP5 POP PUSH1 0x20 DUP2 ADD SWAP1 POP PUSH2 0x1146 JUMP JUMPDEST DUP7 DUP4 LT ISZERO PUSH2 0x1188 JUMPI DUP5 DUP10 ADD MLOAD PUSH2 0x1184 PUSH1 0x1F DUP10 AND DUP3 PUSH2 0x1097 JUMP JUMPDEST DUP4 SSTORE POP JUMPDEST PUSH1 0x1 PUSH1 0x2 DUP9 MUL ADD DUP9 SSTORE POP POP POP JUMPDEST POP POP POP POP POP POP JUMP INVALID LOG2 PUSH5 0x6970667358 0x22 SLT KECCAK256 0x5E 0xB9 SWAP7 GAS OR SWAP8 0xB7 GASPRICE 0xAE 0xAB CALLDATASIZE 0x22 SWAP7 0xEB CALLDATACOPY 0x2F SWAP3 0xC6 0xBE 0xE2 0xCC 0x26 SWAP2 SSTORE 0xD6 CALLER 0x1E CALLDATALOAD 0xAD DUP11 0xF7 SSTORE PUSH5 0x736F6C6343 STOP ADDMOD AND STOP CALLER "
				},
				"gasEstimates": {
					"creation": {
						"codeDepositCost": "912600",
						"executionCost": "946",
						"totalCost": "913546"
					},
					"external": {
						"addBus(uint256,(uint256,uint256,string,uint256,string,uint256,uint256,uint8,address,address))": "infinite",
						"buses(uint256)": "infinite",
						"coordinatorAddress()": "2508",
						"getBusData(uint256)": "infinite",
						"updateBusStatusAndOwner(uint256,uint8,address)": "49534"
					}
				},
				"methodIdentifiers": {
					"addBus(uint256,(uint256,uint256,string,uint256,string,uint256,uint256,uint8,address,address))": "f456a8c2",
					"buses(uint256)": "52764e03",
					"coordinatorAddress()": "82003b31",
					"getBusData(uint256)": "f2c24032",
					"updateBusStatusAndOwner(uint256,uint8,address)": "e8536dd6"
				}
			},
			"storageLayout": {
				"storage": [
					{
						"astId": 42,
						"contract": "contracts/company.sol:Company",
						"label": "buses",
						"offset": 0,
						"slot": "0",
						"type": "t_mapping(t_uint256,t_struct(BusItem)37_storage)"
					},
					{
						"astId": 44,
						"contract": "contracts/company.sol:Company",
						"label": "coordinatorAddress",
						"offset": 0,
						"slot": "1",
						"type": "t_address"
					}
				],
				"types": {
					"t_address": {
						"encoding": "inplace",
						"label": "address",
						"numberOfBytes": "20"
					},
					"t_enum(BusStatus)15": {
						"encoding": "inplace",
						"label": "enum Company.BusStatus",
						"numberOfBytes": "1"
					},
					"t_mapping(t_uint256,t_struct(BusItem)37_storage)": {
						"encoding": "mapping",
						"key": "t_uint256",
						"label": "mapping(uint256 => struct Company.BusItem)",
						"numberOfBytes": "32",
						"value": "t_struct(BusItem)37_storage"
					},
					"t_string_storage": {
						"encoding": "bytes",
						"label": "string",
						"numberOfBytes": "32"
					},
					"t_struct(BusItem)37_storage": {
						"encoding": "inplace",
						"label": "struct Company.BusItem",
						"members": [
							{
								"astId": 17,
								"contract": "contracts/company.sol:Company",
								"label": "id",
								"offset": 0,
								"slot": "0",
								"type": "t_uint256"
							},
							{
								"astId": 19,
								"contract": "contracts/company.sol:Company",
								"label": "model",
								"offset": 0,
								"slot": "1",
								"type": "t_uint256"
							},
							{
								"astId": 21,
								"contract": "contracts/company.sol:Company",
								"label": "vim_number",
								"offset": 0,
								"slot": "2",
								"type": "t_string_storage"
							},
							{
								"astId": 23,
								"contract": "contracts/company.sol:Company",
								"label": "company_number",
								"offset": 0,
								"slot": "3",
								"type": "t_uint256"
							},
							{
								"astId": 25,
								"contract": "contracts/company.sol:Company",
								"label": "plate_number",
								"offset": 0,
								"slot": "4",
								"type": "t_string_storage"
							},
							{
								"astId": 27,
								"contract": "contracts/company.sol:Company",
								"label": "nft_token_id",
								"offset": 0,
								"slot": "5",
								"type": "t_uint256"
							},
							{
								"astId": 29,
								"contract": "contracts/company.sol:Company",
								"label": "expire_date",
								"offset": 0,
								"slot": "6",
								"type": "t_uint256"
							},
							{
								"astId": 32,
								"contract": "contracts/company.sol:Company",
								"label": "status",
								"offset": 0,
								"slot": "7",
								"type": "t_enum(BusStatus)15"
							},
							{
								"astId": 34,
								"contract": "contracts/company.sol:Company",
								"label": "owner",
								"offset": 1,
								"slot": "7",
								"type": "t_address"
							},
							{
								"astId": 36,
								"contract": "contracts/company.sol:Company",
								"label": "creator",
								"offset": 0,
								"slot": "8",
								"type": "t_address"
							}
						],
						"numberOfBytes": "288"
					},
					"t_uint256": {
						"encoding": "inplace",
						"label": "uint256",
						"numberOfBytes": "32"
					}
				}
			},
			"userdoc": {
				"kind": "user",
				"methods": {},
				"version": 1
			}
		}
	}
}