{
	"contracts/Banking_System.sol": {
		"Bank_System": {
			"abi": [
				{
					"inputs": [],
					"stateMutability": "nonpayable",
					"type": "constructor"
				},
				{
					"anonymous": false,
					"inputs": [
						{
							"indexed": false,
							"internalType": "uint256",
							"name": "customerId",
							"type": "uint256"
						},
						{
							"indexed": true,
							"internalType": "address",
							"name": "customerAddress",
							"type": "address"
						},
						{
							"indexed": false,
							"internalType": "uint256",
							"name": "amount",
							"type": "uint256"
						}
					],
					"name": "EvtAddMoney",
					"type": "event"
				},
				{
					"anonymous": false,
					"inputs": [
						{
							"indexed": false,
							"internalType": "uint256",
							"name": "customerId",
							"type": "uint256"
						},
						{
							"indexed": true,
							"internalType": "address",
							"name": "customerAddress",
							"type": "address"
						},
						{
							"indexed": false,
							"internalType": "string",
							"name": "name",
							"type": "string"
						},
						{
							"indexed": false,
							"internalType": "uint256",
							"name": "amount",
							"type": "uint256"
						}
					],
					"name": "EvtNewwCust",
					"type": "event"
				},
				{
					"anonymous": false,
					"inputs": [
						{
							"indexed": false,
							"internalType": "uint256",
							"name": "customerId",
							"type": "uint256"
						},
						{
							"indexed": true,
							"internalType": "address",
							"name": "customerAddress",
							"type": "address"
						},
						{
							"indexed": false,
							"internalType": "uint256",
							"name": "amount",
							"type": "uint256"
						}
					],
					"name": "EvtWithdraw",
					"type": "event"
				},
				{
					"inputs": [],
					"name": "AddMoney",
					"outputs": [],
					"stateMutability": "payable",
					"type": "function"
				},
				{
					"inputs": [
						{
							"internalType": "uint256",
							"name": "_Amount",
							"type": "uint256"
						}
					],
					"name": "Cust_Withdraw",
					"outputs": [],
					"stateMutability": "payable",
					"type": "function"
				},
				{
					"inputs": [],
					"name": "GetCust_Balance",
					"outputs": [
						{
							"internalType": "uint256",
							"name": "",
							"type": "uint256"
						}
					],
					"stateMutability": "view",
					"type": "function"
				},
				{
					"inputs": [
						{
							"internalType": "address",
							"name": "",
							"type": "address"
						}
					],
					"name": "Map_cust",
					"outputs": [
						{
							"internalType": "uint256",
							"name": "cust_id",
							"type": "uint256"
						},
						{
							"internalType": "string",
							"name": "cust_name",
							"type": "string"
						},
						{
							"internalType": "uint256",
							"name": "cust_balance",
							"type": "uint256"
						},
						{
							"internalType": "bool",
							"name": "cust_state",
							"type": "bool"
						}
					],
					"stateMutability": "view",
					"type": "function"
				},
				{
					"inputs": [
						{
							"internalType": "string",
							"name": "_cust_name",
							"type": "string"
						}
					],
					"name": "NewAccount",
					"outputs": [],
					"stateMutability": "nonpayable",
					"type": "function"
				},
				{
					"inputs": [],
					"name": "band_admin",
					"outputs": [
						{
							"internalType": "address",
							"name": "",
							"type": "address"
						}
					],
					"stateMutability": "view",
					"type": "function"
				},
				{
					"stateMutability": "payable",
					"type": "receive"
				}
			],
			"devdoc": {
				"kind": "dev",
				"methods": {},
				"version": 1
			},
			"evm": {
				"assembly": "    /* \"contracts/Banking_System.sol\":128:2734  contract Bank_System... */\n  mstore(0x40, 0x80)\n    /* \"contracts/Banking_System.sol\":770:829  constructor()... */\n  callvalue\n  dup1\n  iszero\n  tag_1\n  jumpi\n  0x00\n  dup1\n  revert\ntag_1:\n  pop\n    /* \"contracts/Banking_System.sol\":811:821  msg.sender */\n  caller\n    /* \"contracts/Banking_System.sol\":800:810  band_admin */\n  0x00\n  dup1\n    /* \"contracts/Banking_System.sol\":800:821  band_admin=msg.sender */\n  0x0100\n  exp\n  dup2\n  sload\n  dup2\n  0xffffffffffffffffffffffffffffffffffffffff\n  mul\n  not\n  and\n  swap1\n  dup4\n  0xffffffffffffffffffffffffffffffffffffffff\n  and\n  mul\n  or\n  swap1\n  sstore\n  pop\n    /* \"contracts/Banking_System.sol\":128:2734  contract Bank_System... */\n  dataSize(sub_0)\n  dup1\n  dataOffset(sub_0)\n  0x00\n  codecopy\n  0x00\n  return\nstop\n\nsub_0: assembly {\n        /* \"contracts/Banking_System.sol\":128:2734  contract Bank_System... */\n      mstore(0x40, 0x80)\n      jumpi(tag_1, lt(calldatasize, 0x04))\n      shr(0xe0, calldataload(0x00))\n      dup1\n      0x056eeb49\n      eq\n      tag_3\n      jumpi\n      dup1\n      0x07a4b1ba\n      eq\n      tag_4\n      jumpi\n      dup1\n      0x0b7d5609\n      eq\n      tag_5\n      jumpi\n      dup1\n      0x2bf6b806\n      eq\n      tag_6\n      jumpi\n      dup1\n      0x8e5771bb\n      eq\n      tag_7\n      jumpi\n      dup1\n      0xea4638e7\n      eq\n      tag_8\n      jumpi\n      jump(tag_2)\n    tag_1:\n      jumpi(tag_2, calldatasize)\n        /* \"contracts/Banking_System.sol\":900:907  1 ether */\n      0x0de0b6b3a7640000\n        /* \"contracts/Banking_System.sol\":890:899  msg.value */\n      callvalue\n        /* \"contracts/Banking_System.sol\":890:907  msg.value>1 ether */\n      gt\n        /* \"contracts/Banking_System.sol\":882:950  require(msg.value>1 ether, \"You are trying to withdraw NOTHING!!! \") */\n      tag_11\n      jumpi\n      mload(0x40)\n      0x08c379a000000000000000000000000000000000000000000000000000000000\n      dup2\n      mstore\n      0x04\n      add\n      tag_12\n      swap1\n      tag_13\n      jump\t// in\n    tag_12:\n      mload(0x40)\n      dup1\n      swap2\n      sub\n      swap1\n      revert\n    tag_11:\n        /* \"contracts/Banking_System.sol\":969:979  AddMoney() */\n      tag_14\n        /* \"contracts/Banking_System.sol\":969:977  AddMoney */\n      tag_15\n        /* \"contracts/Banking_System.sol\":969:979  AddMoney() */\n      jump\t// in\n    tag_14:\n        /* \"contracts/Banking_System.sol\":128:2734  contract Bank_System... */\n      stop\n    tag_2:\n      0x00\n      dup1\n      revert\n        /* \"contracts/Banking_System.sol\":2193:2731  function Cust_Withdraw (uint256 _Amount) public payable  ... */\n    tag_3:\n      tag_16\n      0x04\n      dup1\n      calldatasize\n      sub\n      dup2\n      add\n      swap1\n      tag_17\n      swap2\n      swap1\n      tag_18\n      jump\t// in\n    tag_17:\n      tag_19\n      jump\t// in\n    tag_16:\n      stop\n        /* \"contracts/Banking_System.sol\":1216:1584  function NewAccount(string memory _cust_name) public ... */\n    tag_4:\n      callvalue\n      dup1\n      iszero\n      tag_20\n      jumpi\n      0x00\n      dup1\n      revert\n    tag_20:\n      pop\n      tag_21\n      0x04\n      dup1\n      calldatasize\n      sub\n      dup2\n      add\n      swap1\n      tag_22\n      swap2\n      swap1\n      tag_23\n      jump\t// in\n    tag_22:\n      tag_24\n      jump\t// in\n    tag_21:\n      stop\n        /* \"contracts/Banking_System.sol\":385:431  mapping (address=>Stc_Account) public Map_cust */\n    tag_5:\n      callvalue\n      dup1\n      iszero\n      tag_25\n      jumpi\n      0x00\n      dup1\n      revert\n    tag_25:\n      pop\n      tag_26\n      0x04\n      dup1\n      calldatasize\n      sub\n      dup2\n      add\n      swap1\n      tag_27\n      swap2\n      swap1\n      tag_28\n      jump\t// in\n    tag_27:\n      tag_29\n      jump\t// in\n    tag_26:\n      mload(0x40)\n      tag_30\n      swap5\n      swap4\n      swap3\n      swap2\n      swap1\n      tag_31\n      jump\t// in\n    tag_30:\n      mload(0x40)\n      dup1\n      swap2\n      sub\n      swap1\n      return\n        /* \"contracts/Banking_System.sol\":2003:2124  function GetCust_Balance() public view returns (uint256)... */\n    tag_6:\n      callvalue\n      dup1\n      iszero\n      tag_32\n      jumpi\n      0x00\n      dup1\n      revert\n    tag_32:\n      pop\n      tag_33\n      tag_34\n      jump\t// in\n    tag_33:\n      mload(0x40)\n      tag_35\n      swap2\n      swap1\n      tag_36\n      jump\t// in\n    tag_35:\n      mload(0x40)\n      dup1\n      swap2\n      sub\n      swap1\n      return\n        /* \"contracts/Banking_System.sol\":1663:1931  function AddMoney() public payable ... */\n    tag_7:\n      tag_37\n      tag_15\n      jump\t// in\n    tag_37:\n      stop\n        /* \"contracts/Banking_System.sol\":353:378  address public band_admin */\n    tag_8:\n      callvalue\n      dup1\n      iszero\n      tag_38\n      jumpi\n      0x00\n      dup1\n      revert\n    tag_38:\n      pop\n      tag_39\n      tag_40\n      jump\t// in\n    tag_39:\n      mload(0x40)\n      tag_41\n      swap2\n      swap1\n      tag_42\n      jump\t// in\n    tag_41:\n      mload(0x40)\n      dup1\n      swap2\n      sub\n      swap1\n      return\n        /* \"contracts/Banking_System.sol\":1663:1931  function AddMoney() public payable ... */\n    tag_15:\n        /* \"contracts/Banking_System.sol\":1755:1756  0 */\n      0x00\n        /* \"contracts/Banking_System.sol\":1723:1731  Map_cust */\n      0x01\n        /* \"contracts/Banking_System.sol\":1723:1743  Map_cust[msg.sender] */\n      0x00\n        /* \"contracts/Banking_System.sol\":1732:1742  msg.sender */\n      caller\n        /* \"contracts/Banking_System.sol\":1723:1743  Map_cust[msg.sender] */\n      0xffffffffffffffffffffffffffffffffffffffff\n      and\n      0xffffffffffffffffffffffffffffffffffffffff\n      and\n      dup2\n      mstore\n      0x20\n      add\n      swap1\n      dup2\n      mstore\n      0x20\n      add\n      0x00\n      keccak256\n        /* \"contracts/Banking_System.sol\":1723:1751  Map_cust[msg.sender].cust_id */\n      0x00\n      add\n      sload\n        /* \"contracts/Banking_System.sol\":1723:1756  Map_cust[msg.sender].cust_id != 0 */\n      sub\n        /* \"contracts/Banking_System.sol\":1715:1786  require(Map_cust[msg.sender].cust_id != 0, \"No Account data found!!! \") */\n      tag_44\n      jumpi\n      mload(0x40)\n      0x08c379a000000000000000000000000000000000000000000000000000000000\n      dup2\n      mstore\n      0x04\n      add\n      tag_45\n      swap1\n      tag_46\n      jump\t// in\n    tag_45:\n      mload(0x40)\n      dup1\n      swap2\n      sub\n      swap1\n      revert\n    tag_44:\n        /* \"contracts/Banking_System.sol\":1832:1841  msg.value */\n      callvalue\n        /* \"contracts/Banking_System.sol\":1797:1805  Map_cust */\n      0x01\n        /* \"contracts/Banking_System.sol\":1797:1817  Map_cust[msg.sender] */\n      0x00\n        /* \"contracts/Banking_System.sol\":1806:1816  msg.sender */\n      caller\n        /* \"contracts/Banking_System.sol\":1797:1817  Map_cust[msg.sender] */\n      0xffffffffffffffffffffffffffffffffffffffff\n      and\n      0xffffffffffffffffffffffffffffffffffffffff\n      and\n      dup2\n      mstore\n      0x20\n      add\n      swap1\n      dup2\n      mstore\n      0x20\n      add\n      0x00\n      keccak256\n        /* \"contracts/Banking_System.sol\":1797:1830  Map_cust[msg.sender].cust_balance */\n      0x02\n      add\n      0x00\n        /* \"contracts/Banking_System.sol\":1797:1841  Map_cust[msg.sender].cust_balance+=msg.value */\n      dup3\n      dup3\n      sload\n      tag_47\n      swap2\n      swap1\n      tag_48\n      jump\t// in\n    tag_47:\n      swap3\n      pop\n      pop\n      dup2\n      swap1\n      sstore\n      pop\n        /* \"contracts/Banking_System.sol\":1901:1911  msg.sender */\n      caller\n        /* \"contracts/Banking_System.sol\":1859:1923  EvtAddMoney(Map_cust[msg.sender].cust_id, msg.sender, msg.value) */\n      0xffffffffffffffffffffffffffffffffffffffff\n      and\n      0x4f38e007f4383434d698965e597c0b69f489bc186233165377210d05cb73b50e\n        /* \"contracts/Banking_System.sol\":1871:1879  Map_cust */\n      0x01\n        /* \"contracts/Banking_System.sol\":1871:1891  Map_cust[msg.sender] */\n      0x00\n        /* \"contracts/Banking_System.sol\":1880:1890  msg.sender */\n      caller\n        /* \"contracts/Banking_System.sol\":1871:1891  Map_cust[msg.sender] */\n      0xffffffffffffffffffffffffffffffffffffffff\n      and\n      0xffffffffffffffffffffffffffffffffffffffff\n      and\n      dup2\n      mstore\n      0x20\n      add\n      swap1\n      dup2\n      mstore\n      0x20\n      add\n      0x00\n      keccak256\n        /* \"contracts/Banking_System.sol\":1871:1899  Map_cust[msg.sender].cust_id */\n      0x00\n      add\n      sload\n        /* \"contracts/Banking_System.sol\":1913:1922  msg.value */\n      callvalue\n        /* \"contracts/Banking_System.sol\":1859:1923  EvtAddMoney(Map_cust[msg.sender].cust_id, msg.sender, msg.value) */\n      mload(0x40)\n      tag_49\n      swap3\n      swap2\n      swap1\n      tag_50\n      jump\t// in\n    tag_49:\n      mload(0x40)\n      dup1\n      swap2\n      sub\n      swap1\n      log2\n        /* \"contracts/Banking_System.sol\":1663:1931  function AddMoney() public payable ... */\n      jump\t// out\n        /* \"contracts/Banking_System.sol\":2193:2731  function Cust_Withdraw (uint256 _Amount) public payable  ... */\n    tag_19:\n        /* \"contracts/Banking_System.sol\":2307:2308  0 */\n      0x00\n        /* \"contracts/Banking_System.sol\":2275:2283  Map_cust */\n      0x01\n        /* \"contracts/Banking_System.sol\":2275:2295  Map_cust[msg.sender] */\n      0x00\n        /* \"contracts/Banking_System.sol\":2284:2294  msg.sender */\n      caller\n        /* \"contracts/Banking_System.sol\":2275:2295  Map_cust[msg.sender] */\n      0xffffffffffffffffffffffffffffffffffffffff\n      and\n      0xffffffffffffffffffffffffffffffffffffffff\n      and\n      dup2\n      mstore\n      0x20\n      add\n      swap1\n      dup2\n      mstore\n      0x20\n      add\n      0x00\n      keccak256\n        /* \"contracts/Banking_System.sol\":2275:2303  Map_cust[msg.sender].cust_id */\n      0x00\n      add\n      sload\n        /* \"contracts/Banking_System.sol\":2275:2308  Map_cust[msg.sender].cust_id != 0 */\n      sub\n        /* \"contracts/Banking_System.sol\":2267:2338  require(Map_cust[msg.sender].cust_id != 0, \"No Account data found!!! \") */\n      tag_52\n      jumpi\n      mload(0x40)\n      0x08c379a000000000000000000000000000000000000000000000000000000000\n      dup2\n      mstore\n      0x04\n      add\n      tag_53\n      swap1\n      tag_46\n      jump\t// in\n    tag_53:\n      mload(0x40)\n      dup1\n      swap2\n      sub\n      swap1\n      revert\n    tag_52:\n        /* \"contracts/Banking_System.sol\":2394:2401  _Amount */\n      dup1\n        /* \"contracts/Banking_System.sol\":2357:2365  Map_cust */\n      0x01\n        /* \"contracts/Banking_System.sol\":2357:2377  Map_cust[msg.sender] */\n      0x00\n        /* \"contracts/Banking_System.sol\":2366:2376  msg.sender */\n      caller\n        /* \"contracts/Banking_System.sol\":2357:2377  Map_cust[msg.sender] */\n      0xffffffffffffffffffffffffffffffffffffffff\n      and\n      0xffffffffffffffffffffffffffffffffffffffff\n      and\n      dup2\n      mstore\n      0x20\n      add\n      swap1\n      dup2\n      mstore\n      0x20\n      add\n      0x00\n      keccak256\n        /* \"contracts/Banking_System.sol\":2357:2390  Map_cust[msg.sender].cust_balance */\n      0x02\n      add\n      sload\n        /* \"contracts/Banking_System.sol\":2357:2401  Map_cust[msg.sender].cust_balance >= _Amount */\n      lt\n      iszero\n        /* \"contracts/Banking_System.sol\":2349:2457  require(Map_cust[msg.sender].cust_balance >= _Amount, \"You are trying to withdraw money you don't have!!! \") */\n      tag_54\n      jumpi\n      mload(0x40)\n      0x08c379a000000000000000000000000000000000000000000000000000000000\n      dup2\n      mstore\n      0x04\n      add\n      tag_55\n      swap1\n      tag_56\n      jump\t// in\n    tag_55:\n      mload(0x40)\n      dup1\n      swap2\n      sub\n      swap1\n      revert\n    tag_54:\n        /* \"contracts/Banking_System.sol\":2484:2485  0 */\n      0x00\n        /* \"contracts/Banking_System.sol\":2476:2483  _Amount */\n      dup2\n        /* \"contracts/Banking_System.sol\":2476:2485  _Amount>0 */\n      gt\n        /* \"contracts/Banking_System.sol\":2468:2528  require(_Amount>0, \"You are trying to withdraw NOTHING!!! \") */\n      tag_57\n      jumpi\n      mload(0x40)\n      0x08c379a000000000000000000000000000000000000000000000000000000000\n      dup2\n      mstore\n      0x04\n      add\n      tag_58\n      swap1\n      tag_13\n      jump\t// in\n    tag_58:\n      mload(0x40)\n      dup1\n      swap2\n      sub\n      swap1\n      revert\n    tag_57:\n        /* \"contracts/Banking_System.sol\":2550:2560  msg.sender */\n      caller\n        /* \"contracts/Banking_System.sol\":2541:2570  payable (msg.sender).transfer */\n      0xffffffffffffffffffffffffffffffffffffffff\n      and\n        /* \"contracts/Banking_System.sol\":2541:2579  payable (msg.sender).transfer(_Amount) */\n      0x08fc\n        /* \"contracts/Banking_System.sol\":2571:2578  _Amount */\n      dup3\n        /* \"contracts/Banking_System.sol\":2541:2579  payable (msg.sender).transfer(_Amount) */\n      swap1\n      dup2\n      iszero\n      mul\n      swap1\n      mload(0x40)\n      0x00\n      mload(0x40)\n      dup1\n      dup4\n      sub\n      dup2\n      dup6\n      dup9\n      dup9\n      call\n      swap4\n      pop\n      pop\n      pop\n      pop\n      iszero\n      dup1\n      iszero\n      tag_60\n      jumpi\n      returndatasize\n      0x00\n      dup1\n      returndatacopy\n      revert(0x00, returndatasize)\n    tag_60:\n      pop\n        /* \"contracts/Banking_System.sol\":2625:2634  msg.value */\n      callvalue\n        /* \"contracts/Banking_System.sol\":2590:2598  Map_cust */\n      0x01\n        /* \"contracts/Banking_System.sol\":2590:2610  Map_cust[msg.sender] */\n      0x00\n        /* \"contracts/Banking_System.sol\":2599:2609  msg.sender */\n      caller\n        /* \"contracts/Banking_System.sol\":2590:2610  Map_cust[msg.sender] */\n      0xffffffffffffffffffffffffffffffffffffffff\n      and\n      0xffffffffffffffffffffffffffffffffffffffff\n      and\n      dup2\n      mstore\n      0x20\n      add\n      swap1\n      dup2\n      mstore\n      0x20\n      add\n      0x00\n      keccak256\n        /* \"contracts/Banking_System.sol\":2590:2623  Map_cust[msg.sender].cust_balance */\n      0x02\n      add\n      0x00\n        /* \"contracts/Banking_System.sol\":2590:2634  Map_cust[msg.sender].cust_balance-=msg.value */\n      dup3\n      dup3\n      sload\n      tag_61\n      swap2\n      swap1\n      tag_62\n      jump\t// in\n    tag_61:\n      swap3\n      pop\n      pop\n      dup2\n      swap1\n      sstore\n      pop\n        /* \"contracts/Banking_System.sol\":2702:2712  msg.sender */\n      caller\n        /* \"contracts/Banking_System.sol\":2660:2721  EvtWithdraw(Map_cust[msg.sender].cust_id, msg.sender,_Amount) */\n      0xffffffffffffffffffffffffffffffffffffffff\n      and\n      0x71a487e475ec1fe51afb322ab09a02a0b9b2d1180ca18157a0c9bfd9c1023fe1\n        /* \"contracts/Banking_System.sol\":2672:2680  Map_cust */\n      0x01\n        /* \"contracts/Banking_System.sol\":2672:2692  Map_cust[msg.sender] */\n      0x00\n        /* \"contracts/Banking_System.sol\":2681:2691  msg.sender */\n      caller\n        /* \"contracts/Banking_System.sol\":2672:2692  Map_cust[msg.sender] */\n      0xffffffffffffffffffffffffffffffffffffffff\n      and\n      0xffffffffffffffffffffffffffffffffffffffff\n      and\n      dup2\n      mstore\n      0x20\n      add\n      swap1\n      dup2\n      mstore\n      0x20\n      add\n      0x00\n      keccak256\n        /* \"contracts/Banking_System.sol\":2672:2700  Map_cust[msg.sender].cust_id */\n      0x00\n      add\n      sload\n        /* \"contracts/Banking_System.sol\":2713:2720  _Amount */\n      dup4\n        /* \"contracts/Banking_System.sol\":2660:2721  EvtWithdraw(Map_cust[msg.sender].cust_id, msg.sender,_Amount) */\n      mload(0x40)\n      tag_63\n      swap3\n      swap2\n      swap1\n      tag_50\n      jump\t// in\n    tag_63:\n      mload(0x40)\n      dup1\n      swap2\n      sub\n      swap1\n      log2\n        /* \"contracts/Banking_System.sol\":2193:2731  function Cust_Withdraw (uint256 _Amount) public payable  ... */\n      pop\n      jump\t// out\n        /* \"contracts/Banking_System.sol\":1216:1584  function NewAccount(string memory _cust_name) public ... */\n    tag_24:\n        /* \"contracts/Banking_System.sol\":1326:1327  0 */\n      0x00\n        /* \"contracts/Banking_System.sol\":1294:1302  Map_cust */\n      0x01\n        /* \"contracts/Banking_System.sol\":1294:1314  Map_cust[msg.sender] */\n      0x00\n        /* \"contracts/Banking_System.sol\":1303:1313  msg.sender */\n      caller\n        /* \"contracts/Banking_System.sol\":1294:1314  Map_cust[msg.sender] */\n      0xffffffffffffffffffffffffffffffffffffffff\n      and\n      0xffffffffffffffffffffffffffffffffffffffff\n      and\n      dup2\n      mstore\n      0x20\n      add\n      swap1\n      dup2\n      mstore\n      0x20\n      add\n      0x00\n      keccak256\n        /* \"contracts/Banking_System.sol\":1294:1322  Map_cust[msg.sender].cust_id */\n      0x00\n      add\n      sload\n        /* \"contracts/Banking_System.sol\":1294:1327  Map_cust[msg.sender].cust_id == 0 */\n      eq\n        /* \"contracts/Banking_System.sol\":1286:1354  require(Map_cust[msg.sender].cust_id == 0, \"Account already exists\") */\n      tag_65\n      jumpi\n      mload(0x40)\n      0x08c379a000000000000000000000000000000000000000000000000000000000\n      dup2\n      mstore\n      0x04\n      add\n      tag_66\n      swap1\n      tag_67\n      jump\t// in\n    tag_66:\n      mload(0x40)\n      dup1\n      swap2\n      sub\n      swap1\n      revert\n    tag_65:\n        /* \"contracts/Banking_System.sol\":1367:1393  _CurrentCustID.increment() */\n      tag_68\n        /* \"contracts/Banking_System.sol\":1367:1381  _CurrentCustID */\n      0x02\n        /* \"contracts/Banking_System.sol\":1367:1391  _CurrentCustID.increment */\n      tag_69\n        /* \"contracts/Banking_System.sol\":1367:1393  _CurrentCustID.increment() */\n      jump\t// in\n    tag_68:\n        /* \"contracts/Banking_System.sol\":1428:1486  Stc_Account(_CurrentCustID.current(), _cust_name, 0, true) */\n      mload(0x40)\n      dup1\n      0x80\n      add\n      0x40\n      mstore\n      dup1\n        /* \"contracts/Banking_System.sol\":1440:1464  _CurrentCustID.current() */\n      tag_70\n        /* \"contracts/Banking_System.sol\":1440:1454  _CurrentCustID */\n      0x02\n        /* \"contracts/Banking_System.sol\":1440:1462  _CurrentCustID.current */\n      tag_71\n        /* \"contracts/Banking_System.sol\":1440:1464  _CurrentCustID.current() */\n      jump\t// in\n    tag_70:\n        /* \"contracts/Banking_System.sol\":1428:1486  Stc_Account(_CurrentCustID.current(), _cust_name, 0, true) */\n      dup2\n      mstore\n      0x20\n      add\n        /* \"contracts/Banking_System.sol\":1466:1476  _cust_name */\n      dup3\n        /* \"contracts/Banking_System.sol\":1428:1486  Stc_Account(_CurrentCustID.current(), _cust_name, 0, true) */\n      dup2\n      mstore\n      0x20\n      add\n        /* \"contracts/Banking_System.sol\":1478:1479  0 */\n      0x00\n        /* \"contracts/Banking_System.sol\":1428:1486  Stc_Account(_CurrentCustID.current(), _cust_name, 0, true) */\n      dup2\n      mstore\n      0x20\n      add\n        /* \"contracts/Banking_System.sol\":1481:1485  true */\n      0x01\n        /* \"contracts/Banking_System.sol\":1428:1486  Stc_Account(_CurrentCustID.current(), _cust_name, 0, true) */\n      iszero\n      iszero\n      dup2\n      mstore\n      pop\n        /* \"contracts/Banking_System.sol\":1405:1413  Map_cust */\n      0x01\n        /* \"contracts/Banking_System.sol\":1405:1425  Map_cust[msg.sender] */\n      0x00\n        /* \"contracts/Banking_System.sol\":1414:1424  msg.sender */\n      caller\n        /* \"contracts/Banking_System.sol\":1405:1425  Map_cust[msg.sender] */\n      0xffffffffffffffffffffffffffffffffffffffff\n      and\n      0xffffffffffffffffffffffffffffffffffffffff\n      and\n      dup2\n      mstore\n      0x20\n      add\n      swap1\n      dup2\n      mstore\n      0x20\n      add\n      0x00\n      keccak256\n        /* \"contracts/Banking_System.sol\":1405:1486  Map_cust[msg.sender] = Stc_Account(_CurrentCustID.current(), _cust_name, 0, true) */\n      0x00\n      dup3\n      add\n      mload\n      dup2\n      0x00\n      add\n      sstore\n      0x20\n      dup3\n      add\n      mload\n      dup2\n      0x01\n      add\n      swap1\n      dup2\n      tag_72\n      swap2\n      swap1\n      tag_73\n      jump\t// in\n    tag_72:\n      pop\n      0x40\n      dup3\n      add\n      mload\n      dup2\n      0x02\n      add\n      sstore\n      0x60\n      dup3\n      add\n      mload\n      dup2\n      0x03\n      add\n      exp(0x0100, 0x00)\n      dup2\n      sload\n      dup2\n      0xff\n      mul\n      not\n      and\n      swap1\n      dup4\n      iszero\n      iszero\n      mul\n      or\n      swap1\n      sstore\n      pop\n      swap1\n      pop\n      pop\n        /* \"contracts/Banking_System.sol\":1550:1560  msg.sender */\n      caller\n        /* \"contracts/Banking_System.sol\":1512:1575  EvtNewwCust(_CurrentCustID.current(), msg.sender, _cust_name,0) */\n      0xffffffffffffffffffffffffffffffffffffffff\n      and\n      0xcf747182b019aa512fec3c443aaabb3939e783335d21ae1a0c1ef391e904ffcf\n        /* \"contracts/Banking_System.sol\":1524:1548  _CurrentCustID.current() */\n      tag_74\n        /* \"contracts/Banking_System.sol\":1524:1538  _CurrentCustID */\n      0x02\n        /* \"contracts/Banking_System.sol\":1524:1546  _CurrentCustID.current */\n      tag_71\n        /* \"contracts/Banking_System.sol\":1524:1548  _CurrentCustID.current() */\n      jump\t// in\n    tag_74:\n        /* \"contracts/Banking_System.sol\":1562:1572  _cust_name */\n      dup4\n        /* \"contracts/Banking_System.sol\":1573:1574  0 */\n      0x00\n        /* \"contracts/Banking_System.sol\":1512:1575  EvtNewwCust(_CurrentCustID.current(), msg.sender, _cust_name,0) */\n      mload(0x40)\n      tag_75\n      swap4\n      swap3\n      swap2\n      swap1\n      tag_76\n      jump\t// in\n    tag_75:\n      mload(0x40)\n      dup1\n      swap2\n      sub\n      swap1\n      log2\n        /* \"contracts/Banking_System.sol\":1216:1584  function NewAccount(string memory _cust_name) public ... */\n      pop\n      jump\t// out\n        /* \"contracts/Banking_System.sol\":385:431  mapping (address=>Stc_Account) public Map_cust */\n    tag_29:\n      mstore(0x20, 0x01)\n      dup1\n      0x00\n      mstore\n      keccak256(0x00, 0x40)\n      0x00\n      swap2\n      pop\n      swap1\n      pop\n      dup1\n      0x00\n      add\n      sload\n      swap1\n      dup1\n      0x01\n      add\n      dup1\n      sload\n      tag_77\n      swap1\n      tag_78\n      jump\t// in\n    tag_77:\n      dup1\n      0x1f\n      add\n      0x20\n      dup1\n      swap2\n      div\n      mul\n      0x20\n      add\n      mload(0x40)\n      swap1\n      dup2\n      add\n      0x40\n      mstore\n      dup1\n      swap3\n      swap2\n      swap1\n      dup2\n      dup2\n      mstore\n      0x20\n      add\n      dup3\n      dup1\n      sload\n      tag_79\n      swap1\n      tag_78\n      jump\t// in\n    tag_79:\n      dup1\n      iszero\n      tag_80\n      jumpi\n      dup1\n      0x1f\n      lt\n      tag_81\n      jumpi\n      0x0100\n      dup1\n      dup4\n      sload\n      div\n      mul\n      dup4\n      mstore\n      swap2\n      0x20\n      add\n      swap2\n      jump(tag_80)\n    tag_81:\n      dup3\n      add\n      swap2\n      swap1\n      0x00\n      mstore\n      keccak256(0x00, 0x20)\n      swap1\n    tag_82:\n      dup2\n      sload\n      dup2\n      mstore\n      swap1\n      0x01\n      add\n      swap1\n      0x20\n      add\n      dup1\n      dup4\n      gt\n      tag_82\n      jumpi\n      dup3\n      swap1\n      sub\n      0x1f\n      and\n      dup3\n      add\n      swap2\n    tag_80:\n      pop\n      pop\n      pop\n      pop\n      pop\n      swap1\n      dup1\n      0x02\n      add\n      sload\n      swap1\n      dup1\n      0x03\n      add\n      0x00\n      swap1\n      sload\n      swap1\n      0x0100\n      exp\n      swap1\n      div\n      0xff\n      and\n      swap1\n      pop\n      dup5\n      jump\t// out\n        /* \"contracts/Banking_System.sol\":2003:2124  function GetCust_Balance() public view returns (uint256)... */\n    tag_34:\n        /* \"contracts/Banking_System.sol\":2051:2058  uint256 */\n      0x00\n        /* \"contracts/Banking_System.sol\":2083:2091  Map_cust */\n      0x01\n        /* \"contracts/Banking_System.sol\":2083:2103  Map_cust[msg.sender] */\n      0x00\n        /* \"contracts/Banking_System.sol\":2092:2102  msg.sender */\n      caller\n        /* \"contracts/Banking_System.sol\":2083:2103  Map_cust[msg.sender] */\n      0xffffffffffffffffffffffffffffffffffffffff\n      and\n      0xffffffffffffffffffffffffffffffffffffffff\n      and\n      dup2\n      mstore\n      0x20\n      add\n      swap1\n      dup2\n      mstore\n      0x20\n      add\n      0x00\n      keccak256\n        /* \"contracts/Banking_System.sol\":2083:2116  Map_cust[msg.sender].cust_balance */\n      0x02\n      add\n      sload\n        /* \"contracts/Banking_System.sol\":2076:2116  return Map_cust[msg.sender].cust_balance */\n      swap1\n      pop\n        /* \"contracts/Banking_System.sol\":2003:2124  function GetCust_Balance() public view returns (uint256)... */\n      swap1\n      jump\t// out\n        /* \"contracts/Banking_System.sol\":353:378  address public band_admin */\n    tag_40:\n      0x00\n      dup1\n      sload\n      swap1\n      0x0100\n      exp\n      swap1\n      div\n      0xffffffffffffffffffffffffffffffffffffffff\n      and\n      dup2\n      jump\t// out\n        /* \"@openzeppelin/contracts/utils/Counters.sol\":945:1068  function increment(Counter storage counter) internal {... */\n    tag_69:\n        /* \"@openzeppelin/contracts/utils/Counters.sol\":1050:1051  1 */\n      0x01\n        /* \"@openzeppelin/contracts/utils/Counters.sol\":1032:1039  counter */\n      dup2\n        /* \"@openzeppelin/contracts/utils/Counters.sol\":1032:1046  counter._value */\n      0x00\n      add\n      0x00\n        /* \"@openzeppelin/contracts/utils/Counters.sol\":1032:1051  counter._value += 1 */\n      dup3\n      dup3\n      sload\n      add\n      swap3\n      pop\n      pop\n      dup2\n      swap1\n      sstore\n      pop\n        /* \"@openzeppelin/contracts/utils/Counters.sol\":945:1068  function increment(Counter storage counter) internal {... */\n      pop\n      jump\t// out\n        /* \"@openzeppelin/contracts/utils/Counters.sol\":827:939  function current(Counter storage counter) internal view returns (uint256) {... */\n    tag_71:\n        /* \"@openzeppelin/contracts/utils/Counters.sol\":892:899  uint256 */\n      0x00\n        /* \"@openzeppelin/contracts/utils/Counters.sol\":918:925  counter */\n      dup2\n        /* \"@openzeppelin/contracts/utils/Counters.sol\":918:932  counter._value */\n      0x00\n      add\n      sload\n        /* \"@openzeppelin/contracts/utils/Counters.sol\":911:932  return counter._value */\n      swap1\n      pop\n        /* \"@openzeppelin/contracts/utils/Counters.sol\":827:939  function current(Counter storage counter) internal view returns (uint256) {... */\n      swap2\n      swap1\n      pop\n      jump\t// out\n        /* \"#utility.yul\":7:176   */\n    tag_86:\n        /* \"#utility.yul\":91:102   */\n      0x00\n        /* \"#utility.yul\":125:131   */\n      dup3\n        /* \"#utility.yul\":120:123   */\n      dup3\n        /* \"#utility.yul\":113:132   */\n      mstore\n        /* \"#utility.yul\":165:169   */\n      0x20\n        /* \"#utility.yul\":160:163   */\n      dup3\n        /* \"#utility.yul\":156:170   */\n      add\n        /* \"#utility.yul\":141:170   */\n      swap1\n      pop\n        /* \"#utility.yul\":7:176   */\n      swap3\n      swap2\n      pop\n      pop\n      jump\t// out\n        /* \"#utility.yul\":182:407   */\n    tag_87:\n        /* \"#utility.yul\":322:356   */\n      0x596f752061726520747279696e6720746f207769746864726177204e4f544849\n        /* \"#utility.yul\":318:319   */\n      0x00\n        /* \"#utility.yul\":310:316   */\n      dup3\n        /* \"#utility.yul\":306:320   */\n      add\n        /* \"#utility.yul\":299:357   */\n      mstore\n        /* \"#utility.yul\":391:399   */\n      0x4e47212121200000000000000000000000000000000000000000000000000000\n        /* \"#utility.yul\":386:388   */\n      0x20\n        /* \"#utility.yul\":378:384   */\n      dup3\n        /* \"#utility.yul\":374:389   */\n      add\n        /* \"#utility.yul\":367:400   */\n      mstore\n        /* \"#utility.yul\":182:407   */\n      pop\n      jump\t// out\n        /* \"#utility.yul\":413:779   */\n    tag_88:\n        /* \"#utility.yul\":555:558   */\n      0x00\n        /* \"#utility.yul\":576:643   */\n      tag_146\n        /* \"#utility.yul\":640:642   */\n      0x26\n        /* \"#utility.yul\":635:638   */\n      dup4\n        /* \"#utility.yul\":576:643   */\n      tag_86\n      jump\t// in\n    tag_146:\n        /* \"#utility.yul\":569:643   */\n      swap2\n      pop\n        /* \"#utility.yul\":652:745   */\n      tag_147\n        /* \"#utility.yul\":741:744   */\n      dup3\n        /* \"#utility.yul\":652:745   */\n      tag_87\n      jump\t// in\n    tag_147:\n        /* \"#utility.yul\":770:772   */\n      0x40\n        /* \"#utility.yul\":765:768   */\n      dup3\n        /* \"#utility.yul\":761:773   */\n      add\n        /* \"#utility.yul\":754:773   */\n      swap1\n      pop\n        /* \"#utility.yul\":413:779   */\n      swap2\n      swap1\n      pop\n      jump\t// out\n        /* \"#utility.yul\":785:1204   */\n    tag_13:\n        /* \"#utility.yul\":951:955   */\n      0x00\n        /* \"#utility.yul\":989:991   */\n      0x20\n        /* \"#utility.yul\":978:987   */\n      dup3\n        /* \"#utility.yul\":974:992   */\n      add\n        /* \"#utility.yul\":966:992   */\n      swap1\n      pop\n        /* \"#utility.yul\":1038:1047   */\n      dup2\n        /* \"#utility.yul\":1032:1036   */\n      dup2\n        /* \"#utility.yul\":1028:1048   */\n      sub\n        /* \"#utility.yul\":1024:1025   */\n      0x00\n        /* \"#utility.yul\":1013:1022   */\n      dup4\n        /* \"#utility.yul\":1009:1026   */\n      add\n        /* \"#utility.yul\":1002:1049   */\n      mstore\n        /* \"#utility.yul\":1066:1197   */\n      tag_149\n        /* \"#utility.yul\":1192:1196   */\n      dup2\n        /* \"#utility.yul\":1066:1197   */\n      tag_88\n      jump\t// in\n    tag_149:\n        /* \"#utility.yul\":1058:1197   */\n      swap1\n      pop\n        /* \"#utility.yul\":785:1204   */\n      swap2\n      swap1\n      pop\n      jump\t// out\n        /* \"#utility.yul\":1210:1285   */\n    tag_89:\n        /* \"#utility.yul\":1243:1249   */\n      0x00\n        /* \"#utility.yul\":1276:1278   */\n      0x40\n        /* \"#utility.yul\":1270:1279   */\n      mload\n        /* \"#utility.yul\":1260:1279   */\n      swap1\n      pop\n        /* \"#utility.yul\":1210:1285   */\n      swap1\n      jump\t// out\n        /* \"#utility.yul\":1291:1408   */\n    tag_90:\n        /* \"#utility.yul\":1400:1401   */\n      0x00\n        /* \"#utility.yul\":1397:1398   */\n      dup1\n        /* \"#utility.yul\":1390:1402   */\n      revert\n        /* \"#utility.yul\":1414:1531   */\n    tag_91:\n        /* \"#utility.yul\":1523:1524   */\n      0x00\n        /* \"#utility.yul\":1520:1521   */\n      dup1\n        /* \"#utility.yul\":1513:1525   */\n      revert\n        /* \"#utility.yul\":1537:1614   */\n    tag_92:\n        /* \"#utility.yul\":1574:1581   */\n      0x00\n        /* \"#utility.yul\":1603:1608   */\n      dup2\n        /* \"#utility.yul\":1592:1608   */\n      swap1\n      pop\n        /* \"#utility.yul\":1537:1614   */\n      swap2\n      swap1\n      pop\n      jump\t// out\n        /* \"#utility.yul\":1620:1742   */\n    tag_93:\n        /* \"#utility.yul\":1693:1717   */\n      tag_155\n        /* \"#utility.yul\":1711:1716   */\n      dup2\n        /* \"#utility.yul\":1693:1717   */\n      tag_92\n      jump\t// in\n    tag_155:\n        /* \"#utility.yul\":1686:1691   */\n      dup2\n        /* \"#utility.yul\":1683:1718   */\n      eq\n        /* \"#utility.yul\":1673:1736   */\n      tag_156\n      jumpi\n        /* \"#utility.yul\":1732:1733   */\n      0x00\n        /* \"#utility.yul\":1729:1730   */\n      dup1\n        /* \"#utility.yul\":1722:1734   */\n      revert\n        /* \"#utility.yul\":1673:1736   */\n    tag_156:\n        /* \"#utility.yul\":1620:1742   */\n      pop\n      jump\t// out\n        /* \"#utility.yul\":1748:1887   */\n    tag_94:\n        /* \"#utility.yul\":1794:1799   */\n      0x00\n        /* \"#utility.yul\":1832:1838   */\n      dup2\n        /* \"#utility.yul\":1819:1839   */\n      calldataload\n        /* \"#utility.yul\":1810:1839   */\n      swap1\n      pop\n        /* \"#utility.yul\":1848:1881   */\n      tag_158\n        /* \"#utility.yul\":1875:1880   */\n      dup2\n        /* \"#utility.yul\":1848:1881   */\n      tag_93\n      jump\t// in\n    tag_158:\n        /* \"#utility.yul\":1748:1887   */\n      swap3\n      swap2\n      pop\n      pop\n      jump\t// out\n        /* \"#utility.yul\":1893:2222   */\n    tag_18:\n        /* \"#utility.yul\":1952:1958   */\n      0x00\n        /* \"#utility.yul\":2001:2003   */\n      0x20\n        /* \"#utility.yul\":1989:1998   */\n      dup3\n        /* \"#utility.yul\":1980:1987   */\n      dup5\n        /* \"#utility.yul\":1976:1999   */\n      sub\n        /* \"#utility.yul\":1972:2004   */\n      slt\n        /* \"#utility.yul\":1969:2088   */\n      iszero\n      tag_160\n      jumpi\n        /* \"#utility.yul\":2007:2086   */\n      tag_161\n      tag_90\n      jump\t// in\n    tag_161:\n        /* \"#utility.yul\":1969:2088   */\n    tag_160:\n        /* \"#utility.yul\":2127:2128   */\n      0x00\n        /* \"#utility.yul\":2152:2205   */\n      tag_162\n        /* \"#utility.yul\":2197:2204   */\n      dup5\n        /* \"#utility.yul\":2188:2194   */\n      dup3\n        /* \"#utility.yul\":2177:2186   */\n      dup6\n        /* \"#utility.yul\":2173:2195   */\n      add\n        /* \"#utility.yul\":2152:2205   */\n      tag_94\n      jump\t// in\n    tag_162:\n        /* \"#utility.yul\":2142:2205   */\n      swap2\n      pop\n        /* \"#utility.yul\":2098:2215   */\n      pop\n        /* \"#utility.yul\":1893:2222   */\n      swap3\n      swap2\n      pop\n      pop\n      jump\t// out\n        /* \"#utility.yul\":2228:2345   */\n    tag_95:\n        /* \"#utility.yul\":2337:2338   */\n      0x00\n        /* \"#utility.yul\":2334:2335   */\n      dup1\n        /* \"#utility.yul\":2327:2339   */\n      revert\n        /* \"#utility.yul\":2351:2468   */\n    tag_96:\n        /* \"#utility.yul\":2460:2461   */\n      0x00\n        /* \"#utility.yul\":2457:2458   */\n      dup1\n        /* \"#utility.yul\":2450:2462   */\n      revert\n        /* \"#utility.yul\":2474:2576   */\n    tag_97:\n        /* \"#utility.yul\":2515:2521   */\n      0x00\n        /* \"#utility.yul\":2566:2568   */\n      0x1f\n        /* \"#utility.yul\":2562:2569   */\n      not\n        /* \"#utility.yul\":2557:2559   */\n      0x1f\n        /* \"#utility.yul\":2550:2555   */\n      dup4\n        /* \"#utility.yul\":2546:2560   */\n      add\n        /* \"#utility.yul\":2542:2570   */\n      and\n        /* \"#utility.yul\":2532:2570   */\n      swap1\n      pop\n        /* \"#utility.yul\":2474:2576   */\n      swap2\n      swap1\n      pop\n      jump\t// out\n        /* \"#utility.yul\":2582:2762   */\n    tag_98:\n        /* \"#utility.yul\":2630:2707   */\n      0x4e487b7100000000000000000000000000000000000000000000000000000000\n        /* \"#utility.yul\":2627:2628   */\n      0x00\n        /* \"#utility.yul\":2620:2708   */\n      mstore\n        /* \"#utility.yul\":2727:2731   */\n      0x41\n        /* \"#utility.yul\":2724:2725   */\n      0x04\n        /* \"#utility.yul\":2717:2732   */\n      mstore\n        /* \"#utility.yul\":2751:2755   */\n      0x24\n        /* \"#utility.yul\":2748:2749   */\n      0x00\n        /* \"#utility.yul\":2741:2756   */\n      revert\n        /* \"#utility.yul\":2768:3049   */\n    tag_99:\n        /* \"#utility.yul\":2851:2878   */\n      tag_168\n        /* \"#utility.yul\":2873:2877   */\n      dup3\n        /* \"#utility.yul\":2851:2878   */\n      tag_97\n      jump\t// in\n    tag_168:\n        /* \"#utility.yul\":2843:2849   */\n      dup2\n        /* \"#utility.yul\":2839:2879   */\n      add\n        /* \"#utility.yul\":2981:2987   */\n      dup2\n        /* \"#utility.yul\":2969:2979   */\n      dup2\n        /* \"#utility.yul\":2966:2988   */\n      lt\n        /* \"#utility.yul\":2945:2963   */\n      0xffffffffffffffff\n        /* \"#utility.yul\":2933:2943   */\n      dup3\n        /* \"#utility.yul\":2930:2964   */\n      gt\n        /* \"#utility.yul\":2927:2989   */\n      or\n        /* \"#utility.yul\":2924:3012   */\n      iszero\n      tag_169\n      jumpi\n        /* \"#utility.yul\":2992:3010   */\n      tag_170\n      tag_98\n      jump\t// in\n    tag_170:\n        /* \"#utility.yul\":2924:3012   */\n    tag_169:\n        /* \"#utility.yul\":3032:3042   */\n      dup1\n        /* \"#utility.yul\":3028:3030   */\n      0x40\n        /* \"#utility.yul\":3021:3043   */\n      mstore\n        /* \"#utility.yul\":2811:3049   */\n      pop\n        /* \"#utility.yul\":2768:3049   */\n      pop\n      pop\n      jump\t// out\n        /* \"#utility.yul\":3055:3184   */\n    tag_100:\n        /* \"#utility.yul\":3089:3095   */\n      0x00\n        /* \"#utility.yul\":3116:3136   */\n      tag_172\n      tag_89\n      jump\t// in\n    tag_172:\n        /* \"#utility.yul\":3106:3136   */\n      swap1\n      pop\n        /* \"#utility.yul\":3145:3178   */\n      tag_173\n        /* \"#utility.yul\":3173:3177   */\n      dup3\n        /* \"#utility.yul\":3165:3171   */\n      dup3\n        /* \"#utility.yul\":3145:3178   */\n      tag_99\n      jump\t// in\n    tag_173:\n        /* \"#utility.yul\":3055:3184   */\n      swap2\n      swap1\n      pop\n      jump\t// out\n        /* \"#utility.yul\":3190:3498   */\n    tag_101:\n        /* \"#utility.yul\":3252:3256   */\n      0x00\n        /* \"#utility.yul\":3342:3360   */\n      0xffffffffffffffff\n        /* \"#utility.yul\":3334:3340   */\n      dup3\n        /* \"#utility.yul\":3331:3361   */\n      gt\n        /* \"#utility.yul\":3328:3384   */\n      iszero\n      tag_175\n      jumpi\n        /* \"#utility.yul\":3364:3382   */\n      tag_176\n      tag_98\n      jump\t// in\n    tag_176:\n        /* \"#utility.yul\":3328:3384   */\n    tag_175:\n        /* \"#utility.yul\":3402:3431   */\n      tag_177\n        /* \"#utility.yul\":3424:3430   */\n      dup3\n        /* \"#utility.yul\":3402:3431   */\n      tag_97\n      jump\t// in\n    tag_177:\n        /* \"#utility.yul\":3394:3431   */\n      swap1\n      pop\n        /* \"#utility.yul\":3486:3490   */\n      0x20\n        /* \"#utility.yul\":3480:3484   */\n      dup2\n        /* \"#utility.yul\":3476:3491   */\n      add\n        /* \"#utility.yul\":3468:3491   */\n      swap1\n      pop\n        /* \"#utility.yul\":3190:3498   */\n      swap2\n      swap1\n      pop\n      jump\t// out\n        /* \"#utility.yul\":3504:3650   */\n    tag_102:\n        /* \"#utility.yul\":3601:3607   */\n      dup3\n        /* \"#utility.yul\":3596:3599   */\n      dup2\n        /* \"#utility.yul\":3591:3594   */\n      dup4\n        /* \"#utility.yul\":3578:3608   */\n      calldatacopy\n        /* \"#utility.yul\":3642:3643   */\n      0x00\n        /* \"#utility.yul\":3633:3639   */\n      dup4\n        /* \"#utility.yul\":3628:3631   */\n      dup4\n        /* \"#utility.yul\":3624:3640   */\n      add\n        /* \"#utility.yul\":3617:3644   */\n      mstore\n        /* \"#utility.yul\":3504:3650   */\n      pop\n      pop\n      pop\n      jump\t// out\n        /* \"#utility.yul\":3656:4081   */\n    tag_103:\n        /* \"#utility.yul\":3734:3739   */\n      0x00\n        /* \"#utility.yul\":3759:3825   */\n      tag_180\n        /* \"#utility.yul\":3775:3824   */\n      tag_181\n        /* \"#utility.yul\":3817:3823   */\n      dup5\n        /* \"#utility.yul\":3775:3824   */\n      tag_101\n      jump\t// in\n    tag_181:\n        /* \"#utility.yul\":3759:3825   */\n      tag_100\n      jump\t// in\n    tag_180:\n        /* \"#utility.yul\":3750:3825   */\n      swap1\n      pop\n        /* \"#utility.yul\":3848:3854   */\n      dup3\n        /* \"#utility.yul\":3841:3846   */\n      dup2\n        /* \"#utility.yul\":3834:3855   */\n      mstore\n        /* \"#utility.yul\":3886:3890   */\n      0x20\n        /* \"#utility.yul\":3879:3884   */\n      dup2\n        /* \"#utility.yul\":3875:3891   */\n      add\n        /* \"#utility.yul\":3924:3927   */\n      dup5\n        /* \"#utility.yul\":3915:3921   */\n      dup5\n        /* \"#utility.yul\":3910:3913   */\n      dup5\n        /* \"#utility.yul\":3906:3922   */\n      add\n        /* \"#utility.yul\":3903:3928   */\n      gt\n        /* \"#utility.yul\":3900:4012   */\n      iszero\n      tag_182\n      jumpi\n        /* \"#utility.yul\":3931:4010   */\n      tag_183\n      tag_96\n      jump\t// in\n    tag_183:\n        /* \"#utility.yul\":3900:4012   */\n    tag_182:\n        /* \"#utility.yul\":4021:4075   */\n      tag_184\n        /* \"#utility.yul\":4068:4074   */\n      dup5\n        /* \"#utility.yul\":4063:4066   */\n      dup3\n        /* \"#utility.yul\":4058:4061   */\n      dup6\n        /* \"#utility.yul\":4021:4075   */\n      tag_102\n      jump\t// in\n    tag_184:\n        /* \"#utility.yul\":3740:4081   */\n      pop\n        /* \"#utility.yul\":3656:4081   */\n      swap4\n      swap3\n      pop\n      pop\n      pop\n      jump\t// out\n        /* \"#utility.yul\":4101:4441   */\n    tag_104:\n        /* \"#utility.yul\":4157:4162   */\n      0x00\n        /* \"#utility.yul\":4206:4209   */\n      dup3\n        /* \"#utility.yul\":4199:4203   */\n      0x1f\n        /* \"#utility.yul\":4191:4197   */\n      dup4\n        /* \"#utility.yul\":4187:4204   */\n      add\n        /* \"#utility.yul\":4183:4210   */\n      slt\n        /* \"#utility.yul\":4173:4295   */\n      tag_186\n      jumpi\n        /* \"#utility.yul\":4214:4293   */\n      tag_187\n      tag_95\n      jump\t// in\n    tag_187:\n        /* \"#utility.yul\":4173:4295   */\n    tag_186:\n        /* \"#utility.yul\":4331:4337   */\n      dup2\n        /* \"#utility.yul\":4318:4338   */\n      calldataload\n        /* \"#utility.yul\":4356:4435   */\n      tag_188\n        /* \"#utility.yul\":4431:4434   */\n      dup5\n        /* \"#utility.yul\":4423:4429   */\n      dup3\n        /* \"#utility.yul\":4416:4420   */\n      0x20\n        /* \"#utility.yul\":4408:4414   */\n      dup7\n        /* \"#utility.yul\":4404:4421   */\n      add\n        /* \"#utility.yul\":4356:4435   */\n      tag_103\n      jump\t// in\n    tag_188:\n        /* \"#utility.yul\":4347:4435   */\n      swap2\n      pop\n        /* \"#utility.yul\":4163:4441   */\n      pop\n        /* \"#utility.yul\":4101:4441   */\n      swap3\n      swap2\n      pop\n      pop\n      jump\t// out\n        /* \"#utility.yul\":4447:4956   */\n    tag_23:\n        /* \"#utility.yul\":4516:4522   */\n      0x00\n        /* \"#utility.yul\":4565:4567   */\n      0x20\n        /* \"#utility.yul\":4553:4562   */\n      dup3\n        /* \"#utility.yul\":4544:4551   */\n      dup5\n        /* \"#utility.yul\":4540:4563   */\n      sub\n        /* \"#utility.yul\":4536:4568   */\n      slt\n        /* \"#utility.yul\":4533:4652   */\n      iszero\n      tag_190\n      jumpi\n        /* \"#utility.yul\":4571:4650   */\n      tag_191\n      tag_90\n      jump\t// in\n    tag_191:\n        /* \"#utility.yul\":4533:4652   */\n    tag_190:\n        /* \"#utility.yul\":4719:4720   */\n      0x00\n        /* \"#utility.yul\":4708:4717   */\n      dup3\n        /* \"#utility.yul\":4704:4721   */\n      add\n        /* \"#utility.yul\":4691:4722   */\n      calldataload\n        /* \"#utility.yul\":4749:4767   */\n      0xffffffffffffffff\n        /* \"#utility.yul\":4741:4747   */\n      dup2\n        /* \"#utility.yul\":4738:4768   */\n      gt\n        /* \"#utility.yul\":4735:4852   */\n      iszero\n      tag_192\n      jumpi\n        /* \"#utility.yul\":4771:4850   */\n      tag_193\n      tag_91\n      jump\t// in\n    tag_193:\n        /* \"#utility.yul\":4735:4852   */\n    tag_192:\n        /* \"#utility.yul\":4876:4939   */\n      tag_194\n        /* \"#utility.yul\":4931:4938   */\n      dup5\n        /* \"#utility.yul\":4922:4928   */\n      dup3\n        /* \"#utility.yul\":4911:4920   */\n      dup6\n        /* \"#utility.yul\":4907:4929   */\n      add\n        /* \"#utility.yul\":4876:4939   */\n      tag_104\n      jump\t// in\n    tag_194:\n        /* \"#utility.yul\":4866:4939   */\n      swap2\n      pop\n        /* \"#utility.yul\":4662:4949   */\n      pop\n        /* \"#utility.yul\":4447:4956   */\n      swap3\n      swap2\n      pop\n      pop\n      jump\t// out\n        /* \"#utility.yul\":4962:5088   */\n    tag_105:\n        /* \"#utility.yul\":4999:5006   */\n      0x00\n        /* \"#utility.yul\":5039:5081   */\n      0xffffffffffffffffffffffffffffffffffffffff\n        /* \"#utility.yul\":5032:5037   */\n      dup3\n        /* \"#utility.yul\":5028:5082   */\n      and\n        /* \"#utility.yul\":5017:5082   */\n      swap1\n      pop\n        /* \"#utility.yul\":4962:5088   */\n      swap2\n      swap1\n      pop\n      jump\t// out\n        /* \"#utility.yul\":5094:5190   */\n    tag_106:\n        /* \"#utility.yul\":5131:5138   */\n      0x00\n        /* \"#utility.yul\":5160:5184   */\n      tag_197\n        /* \"#utility.yul\":5178:5183   */\n      dup3\n        /* \"#utility.yul\":5160:5184   */\n      tag_105\n      jump\t// in\n    tag_197:\n        /* \"#utility.yul\":5149:5184   */\n      swap1\n      pop\n        /* \"#utility.yul\":5094:5190   */\n      swap2\n      swap1\n      pop\n      jump\t// out\n        /* \"#utility.yul\":5196:5318   */\n    tag_107:\n        /* \"#utility.yul\":5269:5293   */\n      tag_199\n        /* \"#utility.yul\":5287:5292   */\n      dup2\n        /* \"#utility.yul\":5269:5293   */\n      tag_106\n      jump\t// in\n    tag_199:\n        /* \"#utility.yul\":5262:5267   */\n      dup2\n        /* \"#utility.yul\":5259:5294   */\n      eq\n        /* \"#utility.yul\":5249:5312   */\n      tag_200\n      jumpi\n        /* \"#utility.yul\":5308:5309   */\n      0x00\n        /* \"#utility.yul\":5305:5306   */\n      dup1\n        /* \"#utility.yul\":5298:5310   */\n      revert\n        /* \"#utility.yul\":5249:5312   */\n    tag_200:\n        /* \"#utility.yul\":5196:5318   */\n      pop\n      jump\t// out\n        /* \"#utility.yul\":5324:5463   */\n    tag_108:\n        /* \"#utility.yul\":5370:5375   */\n      0x00\n        /* \"#utility.yul\":5408:5414   */\n      dup2\n        /* \"#utility.yul\":5395:5415   */\n      calldataload\n        /* \"#utility.yul\":5386:5415   */\n      swap1\n      pop\n        /* \"#utility.yul\":5424:5457   */\n      tag_202\n        /* \"#utility.yul\":5451:5456   */\n      dup2\n        /* \"#utility.yul\":5424:5457   */\n      tag_107\n      jump\t// in\n    tag_202:\n        /* \"#utility.yul\":5324:5463   */\n      swap3\n      swap2\n      pop\n      pop\n      jump\t// out\n        /* \"#utility.yul\":5469:5798   */\n    tag_28:\n        /* \"#utility.yul\":5528:5534   */\n      0x00\n        /* \"#utility.yul\":5577:5579   */\n      0x20\n        /* \"#utility.yul\":5565:5574   */\n      dup3\n        /* \"#utility.yul\":5556:5563   */\n      dup5\n        /* \"#utility.yul\":5552:5575   */\n      sub\n        /* \"#utility.yul\":5548:5580   */\n      slt\n        /* \"#utility.yul\":5545:5664   */\n      iszero\n      tag_204\n      jumpi\n        /* \"#utility.yul\":5583:5662   */\n      tag_205\n      tag_90\n      jump\t// in\n    tag_205:\n        /* \"#utility.yul\":5545:5664   */\n    tag_204:\n        /* \"#utility.yul\":5703:5704   */\n      0x00\n        /* \"#utility.yul\":5728:5781   */\n      tag_206\n        /* \"#utility.yul\":5773:5780   */\n      dup5\n        /* \"#utility.yul\":5764:5770   */\n      dup3\n        /* \"#utility.yul\":5753:5762   */\n      dup6\n        /* \"#utility.yul\":5749:5771   */\n      add\n        /* \"#utility.yul\":5728:5781   */\n      tag_108\n      jump\t// in\n    tag_206:\n        /* \"#utility.yul\":5718:5781   */\n      swap2\n      pop\n        /* \"#utility.yul\":5674:5791   */\n      pop\n        /* \"#utility.yul\":5469:5798   */\n      swap3\n      swap2\n      pop\n      pop\n      jump\t// out\n        /* \"#utility.yul\":5804:5922   */\n    tag_109:\n        /* \"#utility.yul\":5891:5915   */\n      tag_208\n        /* \"#utility.yul\":5909:5914   */\n      dup2\n        /* \"#utility.yul\":5891:5915   */\n      tag_92\n      jump\t// in\n    tag_208:\n        /* \"#utility.yul\":5886:5889   */\n      dup3\n        /* \"#utility.yul\":5879:5916   */\n      mstore\n        /* \"#utility.yul\":5804:5922   */\n      pop\n      pop\n      jump\t// out\n        /* \"#utility.yul\":5928:6027   */\n    tag_110:\n        /* \"#utility.yul\":5980:5986   */\n      0x00\n        /* \"#utility.yul\":6014:6019   */\n      dup2\n        /* \"#utility.yul\":6008:6020   */\n      mload\n        /* \"#utility.yul\":5998:6020   */\n      swap1\n      pop\n        /* \"#utility.yul\":5928:6027   */\n      swap2\n      swap1\n      pop\n      jump\t// out\n        /* \"#utility.yul\":6033:6279   */\n    tag_111:\n        /* \"#utility.yul\":6114:6115   */\n      0x00\n        /* \"#utility.yul\":6124:6237   */\n    tag_211:\n        /* \"#utility.yul\":6138:6144   */\n      dup4\n        /* \"#utility.yul\":6135:6136   */\n      dup2\n        /* \"#utility.yul\":6132:6145   */\n      lt\n        /* \"#utility.yul\":6124:6237   */\n      iszero\n      tag_213\n      jumpi\n        /* \"#utility.yul\":6223:6224   */\n      dup1\n        /* \"#utility.yul\":6218:6221   */\n      dup3\n        /* \"#utility.yul\":6214:6225   */\n      add\n        /* \"#utility.yul\":6208:6226   */\n      mload\n        /* \"#utility.yul\":6204:6205   */\n      dup2\n        /* \"#utility.yul\":6199:6202   */\n      dup5\n        /* \"#utility.yul\":6195:6206   */\n      add\n        /* \"#utility.yul\":6188:6227   */\n      mstore\n        /* \"#utility.yul\":6160:6162   */\n      0x20\n        /* \"#utility.yul\":6157:6158   */\n      dup2\n        /* \"#utility.yul\":6153:6163   */\n      add\n        /* \"#utility.yul\":6148:6163   */\n      swap1\n      pop\n        /* \"#utility.yul\":6124:6237   */\n      jump(tag_211)\n    tag_213:\n        /* \"#utility.yul\":6271:6272   */\n      0x00\n        /* \"#utility.yul\":6262:6268   */\n      dup5\n        /* \"#utility.yul\":6257:6260   */\n      dup5\n        /* \"#utility.yul\":6253:6269   */\n      add\n        /* \"#utility.yul\":6246:6273   */\n      mstore\n        /* \"#utility.yul\":6095:6279   */\n      pop\n        /* \"#utility.yul\":6033:6279   */\n      pop\n      pop\n      pop\n      jump\t// out\n        /* \"#utility.yul\":6285:6662   */\n    tag_112:\n        /* \"#utility.yul\":6373:6376   */\n      0x00\n        /* \"#utility.yul\":6401:6440   */\n      tag_215\n        /* \"#utility.yul\":6434:6439   */\n      dup3\n        /* \"#utility.yul\":6401:6440   */\n      tag_110\n      jump\t// in\n    tag_215:\n        /* \"#utility.yul\":6456:6527   */\n      tag_216\n        /* \"#utility.yul\":6520:6526   */\n      dup2\n        /* \"#utility.yul\":6515:6518   */\n      dup6\n        /* \"#utility.yul\":6456:6527   */\n      tag_86\n      jump\t// in\n    tag_216:\n        /* \"#utility.yul\":6449:6527   */\n      swap4\n      pop\n        /* \"#utility.yul\":6536:6601   */\n      tag_217\n        /* \"#utility.yul\":6594:6600   */\n      dup2\n        /* \"#utility.yul\":6589:6592   */\n      dup6\n        /* \"#utility.yul\":6582:6586   */\n      0x20\n        /* \"#utility.yul\":6575:6580   */\n      dup7\n        /* \"#utility.yul\":6571:6587   */\n      add\n        /* \"#utility.yul\":6536:6601   */\n      tag_111\n      jump\t// in\n    tag_217:\n        /* \"#utility.yul\":6626:6655   */\n      tag_218\n        /* \"#utility.yul\":6648:6654   */\n      dup2\n        /* \"#utility.yul\":6626:6655   */\n      tag_97\n      jump\t// in\n    tag_218:\n        /* \"#utility.yul\":6621:6624   */\n      dup5\n        /* \"#utility.yul\":6617:6656   */\n      add\n        /* \"#utility.yul\":6610:6656   */\n      swap2\n      pop\n        /* \"#utility.yul\":6377:6662   */\n      pop\n        /* \"#utility.yul\":6285:6662   */\n      swap3\n      swap2\n      pop\n      pop\n      jump\t// out\n        /* \"#utility.yul\":6668:6758   */\n    tag_113:\n        /* \"#utility.yul\":6702:6709   */\n      0x00\n        /* \"#utility.yul\":6745:6750   */\n      dup2\n        /* \"#utility.yul\":6738:6751   */\n      iszero\n        /* \"#utility.yul\":6731:6752   */\n      iszero\n        /* \"#utility.yul\":6720:6752   */\n      swap1\n      pop\n        /* \"#utility.yul\":6668:6758   */\n      swap2\n      swap1\n      pop\n      jump\t// out\n        /* \"#utility.yul\":6764:6873   */\n    tag_114:\n        /* \"#utility.yul\":6845:6866   */\n      tag_221\n        /* \"#utility.yul\":6860:6865   */\n      dup2\n        /* \"#utility.yul\":6845:6866   */\n      tag_113\n      jump\t// in\n    tag_221:\n        /* \"#utility.yul\":6840:6843   */\n      dup3\n        /* \"#utility.yul\":6833:6867   */\n      mstore\n        /* \"#utility.yul\":6764:6873   */\n      pop\n      pop\n      jump\t// out\n        /* \"#utility.yul\":6879:7511   */\n    tag_31:\n        /* \"#utility.yul\":7070:7074   */\n      0x00\n        /* \"#utility.yul\":7108:7111   */\n      0x80\n        /* \"#utility.yul\":7097:7106   */\n      dup3\n        /* \"#utility.yul\":7093:7112   */\n      add\n        /* \"#utility.yul\":7085:7112   */\n      swap1\n      pop\n        /* \"#utility.yul\":7122:7193   */\n      tag_223\n        /* \"#utility.yul\":7190:7191   */\n      0x00\n        /* \"#utility.yul\":7179:7188   */\n      dup4\n        /* \"#utility.yul\":7175:7192   */\n      add\n        /* \"#utility.yul\":7166:7172   */\n      dup8\n        /* \"#utility.yul\":7122:7193   */\n      tag_109\n      jump\t// in\n    tag_223:\n        /* \"#utility.yul\":7240:7249   */\n      dup2\n        /* \"#utility.yul\":7234:7238   */\n      dup2\n        /* \"#utility.yul\":7230:7250   */\n      sub\n        /* \"#utility.yul\":7225:7227   */\n      0x20\n        /* \"#utility.yul\":7214:7223   */\n      dup4\n        /* \"#utility.yul\":7210:7228   */\n      add\n        /* \"#utility.yul\":7203:7251   */\n      mstore\n        /* \"#utility.yul\":7268:7346   */\n      tag_224\n        /* \"#utility.yul\":7341:7345   */\n      dup2\n        /* \"#utility.yul\":7332:7338   */\n      dup7\n        /* \"#utility.yul\":7268:7346   */\n      tag_112\n      jump\t// in\n    tag_224:\n        /* \"#utility.yul\":7260:7346   */\n      swap1\n      pop\n        /* \"#utility.yul\":7356:7428   */\n      tag_225\n        /* \"#utility.yul\":7424:7426   */\n      0x40\n        /* \"#utility.yul\":7413:7422   */\n      dup4\n        /* \"#utility.yul\":7409:7427   */\n      add\n        /* \"#utility.yul\":7400:7406   */\n      dup6\n        /* \"#utility.yul\":7356:7428   */\n      tag_109\n      jump\t// in\n    tag_225:\n        /* \"#utility.yul\":7438:7504   */\n      tag_226\n        /* \"#utility.yul\":7500:7502   */\n      0x60\n        /* \"#utility.yul\":7489:7498   */\n      dup4\n        /* \"#utility.yul\":7485:7503   */\n      add\n        /* \"#utility.yul\":7476:7482   */\n      dup5\n        /* \"#utility.yul\":7438:7504   */\n      tag_114\n      jump\t// in\n    tag_226:\n        /* \"#utility.yul\":6879:7511   */\n      swap6\n      swap5\n      pop\n      pop\n      pop\n      pop\n      pop\n      jump\t// out\n        /* \"#utility.yul\":7517:7739   */\n    tag_36:\n        /* \"#utility.yul\":7610:7614   */\n      0x00\n        /* \"#utility.yul\":7648:7650   */\n      0x20\n        /* \"#utility.yul\":7637:7646   */\n      dup3\n        /* \"#utility.yul\":7633:7651   */\n      add\n        /* \"#utility.yul\":7625:7651   */\n      swap1\n      pop\n        /* \"#utility.yul\":7661:7732   */\n      tag_228\n        /* \"#utility.yul\":7729:7730   */\n      0x00\n        /* \"#utility.yul\":7718:7727   */\n      dup4\n        /* \"#utility.yul\":7714:7731   */\n      add\n        /* \"#utility.yul\":7705:7711   */\n      dup5\n        /* \"#utility.yul\":7661:7732   */\n      tag_109\n      jump\t// in\n    tag_228:\n        /* \"#utility.yul\":7517:7739   */\n      swap3\n      swap2\n      pop\n      pop\n      jump\t// out\n        /* \"#utility.yul\":7745:7863   */\n    tag_115:\n        /* \"#utility.yul\":7832:7856   */\n      tag_230\n        /* \"#utility.yul\":7850:7855   */\n      dup2\n        /* \"#utility.yul\":7832:7856   */\n      tag_106\n      jump\t// in\n    tag_230:\n        /* \"#utility.yul\":7827:7830   */\n      dup3\n        /* \"#utility.yul\":7820:7857   */\n      mstore\n        /* \"#utility.yul\":7745:7863   */\n      pop\n      pop\n      jump\t// out\n        /* \"#utility.yul\":7869:8091   */\n    tag_42:\n        /* \"#utility.yul\":7962:7966   */\n      0x00\n        /* \"#utility.yul\":8000:8002   */\n      0x20\n        /* \"#utility.yul\":7989:7998   */\n      dup3\n        /* \"#utility.yul\":7985:8003   */\n      add\n        /* \"#utility.yul\":7977:8003   */\n      swap1\n      pop\n        /* \"#utility.yul\":8013:8084   */\n      tag_232\n        /* \"#utility.yul\":8081:8082   */\n      0x00\n        /* \"#utility.yul\":8070:8079   */\n      dup4\n        /* \"#utility.yul\":8066:8083   */\n      add\n        /* \"#utility.yul\":8057:8063   */\n      dup5\n        /* \"#utility.yul\":8013:8084   */\n      tag_115\n      jump\t// in\n    tag_232:\n        /* \"#utility.yul\":7869:8091   */\n      swap3\n      swap2\n      pop\n      pop\n      jump\t// out\n        /* \"#utility.yul\":8097:8272   */\n    tag_116:\n        /* \"#utility.yul\":8237:8264   */\n      0x4e6f204163636f756e74206461746120666f756e642121212000000000000000\n        /* \"#utility.yul\":8233:8234   */\n      0x00\n        /* \"#utility.yul\":8225:8231   */\n      dup3\n        /* \"#utility.yul\":8221:8235   */\n      add\n        /* \"#utility.yul\":8214:8265   */\n      mstore\n        /* \"#utility.yul\":8097:8272   */\n      pop\n      jump\t// out\n        /* \"#utility.yul\":8278:8644   */\n    tag_117:\n        /* \"#utility.yul\":8420:8423   */\n      0x00\n        /* \"#utility.yul\":8441:8508   */\n      tag_235\n        /* \"#utility.yul\":8505:8507   */\n      0x19\n        /* \"#utility.yul\":8500:8503   */\n      dup4\n        /* \"#utility.yul\":8441:8508   */\n      tag_86\n      jump\t// in\n    tag_235:\n        /* \"#utility.yul\":8434:8508   */\n      swap2\n      pop\n        /* \"#utility.yul\":8517:8610   */\n      tag_236\n        /* \"#utility.yul\":8606:8609   */\n      dup3\n        /* \"#utility.yul\":8517:8610   */\n      tag_116\n      jump\t// in\n    tag_236:\n        /* \"#utility.yul\":8635:8637   */\n      0x20\n        /* \"#utility.yul\":8630:8633   */\n      dup3\n        /* \"#utility.yul\":8626:8638   */\n      add\n        /* \"#utility.yul\":8619:8638   */\n      swap1\n      pop\n        /* \"#utility.yul\":8278:8644   */\n      swap2\n      swap1\n      pop\n      jump\t// out\n        /* \"#utility.yul\":8650:9069   */\n    tag_46:\n        /* \"#utility.yul\":8816:8820   */\n      0x00\n        /* \"#utility.yul\":8854:8856   */\n      0x20\n        /* \"#utility.yul\":8843:8852   */\n      dup3\n        /* \"#utility.yul\":8839:8857   */\n      add\n        /* \"#utility.yul\":8831:8857   */\n      swap1\n      pop\n        /* \"#utility.yul\":8903:8912   */\n      dup2\n        /* \"#utility.yul\":8897:8901   */\n      dup2\n        /* \"#utility.yul\":8893:8913   */\n      sub\n        /* \"#utility.yul\":8889:8890   */\n      0x00\n        /* \"#utility.yul\":8878:8887   */\n      dup4\n        /* \"#utility.yul\":8874:8891   */\n      add\n        /* \"#utility.yul\":8867:8914   */\n      mstore\n        /* \"#utility.yul\":8931:9062   */\n      tag_238\n        /* \"#utility.yul\":9057:9061   */\n      dup2\n        /* \"#utility.yul\":8931:9062   */\n      tag_117\n      jump\t// in\n    tag_238:\n        /* \"#utility.yul\":8923:9062   */\n      swap1\n      pop\n        /* \"#utility.yul\":8650:9069   */\n      swap2\n      swap1\n      pop\n      jump\t// out\n        /* \"#utility.yul\":9075:9255   */\n    tag_118:\n        /* \"#utility.yul\":9123:9200   */\n      0x4e487b7100000000000000000000000000000000000000000000000000000000\n        /* \"#utility.yul\":9120:9121   */\n      0x00\n        /* \"#utility.yul\":9113:9201   */\n      mstore\n        /* \"#utility.yul\":9220:9224   */\n      0x11\n        /* \"#utility.yul\":9217:9218   */\n      0x04\n        /* \"#utility.yul\":9210:9225   */\n      mstore\n        /* \"#utility.yul\":9244:9248   */\n      0x24\n        /* \"#utility.yul\":9241:9242   */\n      0x00\n        /* \"#utility.yul\":9234:9249   */\n      revert\n        /* \"#utility.yul\":9261:9452   */\n    tag_48:\n        /* \"#utility.yul\":9301:9304   */\n      0x00\n        /* \"#utility.yul\":9320:9340   */\n      tag_241\n        /* \"#utility.yul\":9338:9339   */\n      dup3\n        /* \"#utility.yul\":9320:9340   */\n      tag_92\n      jump\t// in\n    tag_241:\n        /* \"#utility.yul\":9315:9340   */\n      swap2\n      pop\n        /* \"#utility.yul\":9354:9374   */\n      tag_242\n        /* \"#utility.yul\":9372:9373   */\n      dup4\n        /* \"#utility.yul\":9354:9374   */\n      tag_92\n      jump\t// in\n    tag_242:\n        /* \"#utility.yul\":9349:9374   */\n      swap3\n      pop\n        /* \"#utility.yul\":9397:9398   */\n      dup3\n        /* \"#utility.yul\":9394:9395   */\n      dup3\n        /* \"#utility.yul\":9390:9399   */\n      add\n        /* \"#utility.yul\":9383:9399   */\n      swap1\n      pop\n        /* \"#utility.yul\":9418:9421   */\n      dup1\n        /* \"#utility.yul\":9415:9416   */\n      dup3\n        /* \"#utility.yul\":9412:9422   */\n      gt\n        /* \"#utility.yul\":9409:9445   */\n      iszero\n      tag_243\n      jumpi\n        /* \"#utility.yul\":9425:9443   */\n      tag_244\n      tag_118\n      jump\t// in\n    tag_244:\n        /* \"#utility.yul\":9409:9445   */\n    tag_243:\n        /* \"#utility.yul\":9261:9452   */\n      swap3\n      swap2\n      pop\n      pop\n      jump\t// out\n        /* \"#utility.yul\":9458:9790   */\n    tag_50:\n        /* \"#utility.yul\":9579:9583   */\n      0x00\n        /* \"#utility.yul\":9617:9619   */\n      0x40\n        /* \"#utility.yul\":9606:9615   */\n      dup3\n        /* \"#utility.yul\":9602:9620   */\n      add\n        /* \"#utility.yul\":9594:9620   */\n      swap1\n      pop\n        /* \"#utility.yul\":9630:9701   */\n      tag_246\n        /* \"#utility.yul\":9698:9699   */\n      0x00\n        /* \"#utility.yul\":9687:9696   */\n      dup4\n        /* \"#utility.yul\":9683:9700   */\n      add\n        /* \"#utility.yul\":9674:9680   */\n      dup6\n        /* \"#utility.yul\":9630:9701   */\n      tag_109\n      jump\t// in\n    tag_246:\n        /* \"#utility.yul\":9711:9783   */\n      tag_247\n        /* \"#utility.yul\":9779:9781   */\n      0x20\n        /* \"#utility.yul\":9768:9777   */\n      dup4\n        /* \"#utility.yul\":9764:9782   */\n      add\n        /* \"#utility.yul\":9755:9761   */\n      dup5\n        /* \"#utility.yul\":9711:9783   */\n      tag_109\n      jump\t// in\n    tag_247:\n        /* \"#utility.yul\":9458:9790   */\n      swap4\n      swap3\n      pop\n      pop\n      pop\n      jump\t// out\n        /* \"#utility.yul\":9796:10034   */\n    tag_119:\n        /* \"#utility.yul\":9936:9970   */\n      0x596f752061726520747279696e6720746f207769746864726177206d6f6e6579\n        /* \"#utility.yul\":9932:9933   */\n      0x00\n        /* \"#utility.yul\":9924:9930   */\n      dup3\n        /* \"#utility.yul\":9920:9934   */\n      add\n        /* \"#utility.yul\":9913:9971   */\n      mstore\n        /* \"#utility.yul\":10005:10026   */\n      0x20796f7520646f6e277420686176652121212000000000000000000000000000\n        /* \"#utility.yul\":10000:10002   */\n      0x20\n        /* \"#utility.yul\":9992:9998   */\n      dup3\n        /* \"#utility.yul\":9988:10003   */\n      add\n        /* \"#utility.yul\":9981:10027   */\n      mstore\n        /* \"#utility.yul\":9796:10034   */\n      pop\n      jump\t// out\n        /* \"#utility.yul\":10040:10406   */\n    tag_120:\n        /* \"#utility.yul\":10182:10185   */\n      0x00\n        /* \"#utility.yul\":10203:10270   */\n      tag_250\n        /* \"#utility.yul\":10267:10269   */\n      0x33\n        /* \"#utility.yul\":10262:10265   */\n      dup4\n        /* \"#utility.yul\":10203:10270   */\n      tag_86\n      jump\t// in\n    tag_250:\n        /* \"#utility.yul\":10196:10270   */\n      swap2\n      pop\n        /* \"#utility.yul\":10279:10372   */\n      tag_251\n        /* \"#utility.yul\":10368:10371   */\n      dup3\n        /* \"#utility.yul\":10279:10372   */\n      tag_119\n      jump\t// in\n    tag_251:\n        /* \"#utility.yul\":10397:10399   */\n      0x40\n        /* \"#utility.yul\":10392:10395   */\n      dup3\n        /* \"#utility.yul\":10388:10400   */\n      add\n        /* \"#utility.yul\":10381:10400   */\n      swap1\n      pop\n        /* \"#utility.yul\":10040:10406   */\n      swap2\n      swap1\n      pop\n      jump\t// out\n        /* \"#utility.yul\":10412:10831   */\n    tag_56:\n        /* \"#utility.yul\":10578:10582   */\n      0x00\n        /* \"#utility.yul\":10616:10618   */\n      0x20\n        /* \"#utility.yul\":10605:10614   */\n      dup3\n        /* \"#utility.yul\":10601:10619   */\n      add\n        /* \"#utility.yul\":10593:10619   */\n      swap1\n      pop\n        /* \"#utility.yul\":10665:10674   */\n      dup2\n        /* \"#utility.yul\":10659:10663   */\n      dup2\n        /* \"#utility.yul\":10655:10675   */\n      sub\n        /* \"#utility.yul\":10651:10652   */\n      0x00\n        /* \"#utility.yul\":10640:10649   */\n      dup4\n        /* \"#utility.yul\":10636:10653   */\n      add\n        /* \"#utility.yul\":10629:10676   */\n      mstore\n        /* \"#utility.yul\":10693:10824   */\n      tag_253\n        /* \"#utility.yul\":10819:10823   */\n      dup2\n        /* \"#utility.yul\":10693:10824   */\n      tag_120\n      jump\t// in\n    tag_253:\n        /* \"#utility.yul\":10685:10824   */\n      swap1\n      pop\n        /* \"#utility.yul\":10412:10831   */\n      swap2\n      swap1\n      pop\n      jump\t// out\n        /* \"#utility.yul\":10837:11031   */\n    tag_62:\n        /* \"#utility.yul\":10877:10881   */\n      0x00\n        /* \"#utility.yul\":10897:10917   */\n      tag_255\n        /* \"#utility.yul\":10915:10916   */\n      dup3\n        /* \"#utility.yul\":10897:10917   */\n      tag_92\n      jump\t// in\n    tag_255:\n        /* \"#utility.yul\":10892:10917   */\n      swap2\n      pop\n        /* \"#utility.yul\":10931:10951   */\n      tag_256\n        /* \"#utility.yul\":10949:10950   */\n      dup4\n        /* \"#utility.yul\":10931:10951   */\n      tag_92\n      jump\t// in\n    tag_256:\n        /* \"#utility.yul\":10926:10951   */\n      swap3\n      pop\n        /* \"#utility.yul\":10975:10976   */\n      dup3\n        /* \"#utility.yul\":10972:10973   */\n      dup3\n        /* \"#utility.yul\":10968:10977   */\n      sub\n        /* \"#utility.yul\":10960:10977   */\n      swap1\n      pop\n        /* \"#utility.yul\":10999:11000   */\n      dup2\n        /* \"#utility.yul\":10993:10997   */\n      dup2\n        /* \"#utility.yul\":10990:11001   */\n      gt\n        /* \"#utility.yul\":10987:11024   */\n      iszero\n      tag_257\n      jumpi\n        /* \"#utility.yul\":11004:11022   */\n      tag_258\n      tag_118\n      jump\t// in\n    tag_258:\n        /* \"#utility.yul\":10987:11024   */\n    tag_257:\n        /* \"#utility.yul\":10837:11031   */\n      swap3\n      swap2\n      pop\n      pop\n      jump\t// out\n        /* \"#utility.yul\":11037:11209   */\n    tag_121:\n        /* \"#utility.yul\":11177:11201   */\n      0x4163636f756e7420616c72656164792065786973747300000000000000000000\n        /* \"#utility.yul\":11173:11174   */\n      0x00\n        /* \"#utility.yul\":11165:11171   */\n      dup3\n        /* \"#utility.yul\":11161:11175   */\n      add\n        /* \"#utility.yul\":11154:11202   */\n      mstore\n        /* \"#utility.yul\":11037:11209   */\n      pop\n      jump\t// out\n        /* \"#utility.yul\":11215:11581   */\n    tag_122:\n        /* \"#utility.yul\":11357:11360   */\n      0x00\n        /* \"#utility.yul\":11378:11445   */\n      tag_261\n        /* \"#utility.yul\":11442:11444   */\n      0x16\n        /* \"#utility.yul\":11437:11440   */\n      dup4\n        /* \"#utility.yul\":11378:11445   */\n      tag_86\n      jump\t// in\n    tag_261:\n        /* \"#utility.yul\":11371:11445   */\n      swap2\n      pop\n        /* \"#utility.yul\":11454:11547   */\n      tag_262\n        /* \"#utility.yul\":11543:11546   */\n      dup3\n        /* \"#utility.yul\":11454:11547   */\n      tag_121\n      jump\t// in\n    tag_262:\n        /* \"#utility.yul\":11572:11574   */\n      0x20\n        /* \"#utility.yul\":11567:11570   */\n      dup3\n        /* \"#utility.yul\":11563:11575   */\n      add\n        /* \"#utility.yul\":11556:11575   */\n      swap1\n      pop\n        /* \"#utility.yul\":11215:11581   */\n      swap2\n      swap1\n      pop\n      jump\t// out\n        /* \"#utility.yul\":11587:12006   */\n    tag_67:\n        /* \"#utility.yul\":11753:11757   */\n      0x00\n        /* \"#utility.yul\":11791:11793   */\n      0x20\n        /* \"#utility.yul\":11780:11789   */\n      dup3\n        /* \"#utility.yul\":11776:11794   */\n      add\n        /* \"#utility.yul\":11768:11794   */\n      swap1\n      pop\n        /* \"#utility.yul\":11840:11849   */\n      dup2\n        /* \"#utility.yul\":11834:11838   */\n      dup2\n        /* \"#utility.yul\":11830:11850   */\n      sub\n        /* \"#utility.yul\":11826:11827   */\n      0x00\n        /* \"#utility.yul\":11815:11824   */\n      dup4\n        /* \"#utility.yul\":11811:11828   */\n      add\n        /* \"#utility.yul\":11804:11851   */\n      mstore\n        /* \"#utility.yul\":11868:11999   */\n      tag_264\n        /* \"#utility.yul\":11994:11998   */\n      dup2\n        /* \"#utility.yul\":11868:11999   */\n      tag_122\n      jump\t// in\n    tag_264:\n        /* \"#utility.yul\":11860:11999   */\n      swap1\n      pop\n        /* \"#utility.yul\":11587:12006   */\n      swap2\n      swap1\n      pop\n      jump\t// out\n        /* \"#utility.yul\":12012:12192   */\n    tag_123:\n        /* \"#utility.yul\":12060:12137   */\n      0x4e487b7100000000000000000000000000000000000000000000000000000000\n        /* \"#utility.yul\":12057:12058   */\n      0x00\n        /* \"#utility.yul\":12050:12138   */\n      mstore\n        /* \"#utility.yul\":12157:12161   */\n      0x22\n        /* \"#utility.yul\":12154:12155   */\n      0x04\n        /* \"#utility.yul\":12147:12162   */\n      mstore\n        /* \"#utility.yul\":12181:12185   */\n      0x24\n        /* \"#utility.yul\":12178:12179   */\n      0x00\n        /* \"#utility.yul\":12171:12186   */\n      revert\n        /* \"#utility.yul\":12198:12518   */\n    tag_78:\n        /* \"#utility.yul\":12242:12248   */\n      0x00\n        /* \"#utility.yul\":12279:12280   */\n      0x02\n        /* \"#utility.yul\":12273:12277   */\n      dup3\n        /* \"#utility.yul\":12269:12281   */\n      div\n        /* \"#utility.yul\":12259:12281   */\n      swap1\n      pop\n        /* \"#utility.yul\":12326:12327   */\n      0x01\n        /* \"#utility.yul\":12320:12324   */\n      dup3\n        /* \"#utility.yul\":12316:12328   */\n      and\n        /* \"#utility.yul\":12347:12365   */\n      dup1\n        /* \"#utility.yul\":12337:12418   */\n      tag_267\n      jumpi\n        /* \"#utility.yul\":12403:12407   */\n      0x7f\n        /* \"#utility.yul\":12395:12401   */\n      dup3\n        /* \"#utility.yul\":12391:12408   */\n      and\n        /* \"#utility.yul\":12381:12408   */\n      swap2\n      pop\n        /* \"#utility.yul\":12337:12418   */\n    tag_267:\n        /* \"#utility.yul\":12465:12467   */\n      0x20\n        /* \"#utility.yul\":12457:12463   */\n      dup3\n        /* \"#utility.yul\":12454:12468   */\n      lt\n        /* \"#utility.yul\":12434:12452   */\n      dup2\n        /* \"#utility.yul\":12431:12469   */\n      sub\n        /* \"#utility.yul\":12428:12512   */\n      tag_268\n      jumpi\n        /* \"#utility.yul\":12484:12502   */\n      tag_269\n      tag_123\n      jump\t// in\n    tag_269:\n        /* \"#utility.yul\":12428:12512   */\n    tag_268:\n        /* \"#utility.yul\":12249:12518   */\n      pop\n        /* \"#utility.yul\":12198:12518   */\n      swap2\n      swap1\n      pop\n      jump\t// out\n        /* \"#utility.yul\":12524:12665   */\n    tag_124:\n        /* \"#utility.yul\":12573:12577   */\n      0x00\n        /* \"#utility.yul\":12596:12599   */\n      dup2\n        /* \"#utility.yul\":12588:12599   */\n      swap1\n      pop\n        /* \"#utility.yul\":12619:12622   */\n      dup2\n        /* \"#utility.yul\":12616:12617   */\n      0x00\n        /* \"#utility.yul\":12609:12623   */\n      mstore\n        /* \"#utility.yul\":12653:12657   */\n      0x20\n        /* \"#utility.yul\":12650:12651   */\n      0x00\n        /* \"#utility.yul\":12640:12658   */\n      keccak256\n        /* \"#utility.yul\":12632:12658   */\n      swap1\n      pop\n        /* \"#utility.yul\":12524:12665   */\n      swap2\n      swap1\n      pop\n      jump\t// out\n        /* \"#utility.yul\":12671:12764   */\n    tag_125:\n        /* \"#utility.yul\":12708:12714   */\n      0x00\n        /* \"#utility.yul\":12755:12757   */\n      0x20\n        /* \"#utility.yul\":12750:12752   */\n      0x1f\n        /* \"#utility.yul\":12743:12748   */\n      dup4\n        /* \"#utility.yul\":12739:12753   */\n      add\n        /* \"#utility.yul\":12735:12758   */\n      div\n        /* \"#utility.yul\":12725:12758   */\n      swap1\n      pop\n        /* \"#utility.yul\":12671:12764   */\n      swap2\n      swap1\n      pop\n      jump\t// out\n        /* \"#utility.yul\":12770:12877   */\n    tag_126:\n        /* \"#utility.yul\":12814:12822   */\n      0x00\n        /* \"#utility.yul\":12864:12869   */\n      dup3\n        /* \"#utility.yul\":12858:12862   */\n      dup3\n        /* \"#utility.yul\":12854:12870   */\n      shl\n        /* \"#utility.yul\":12833:12870   */\n      swap1\n      pop\n        /* \"#utility.yul\":12770:12877   */\n      swap3\n      swap2\n      pop\n      pop\n      jump\t// out\n        /* \"#utility.yul\":12883:13276   */\n    tag_127:\n        /* \"#utility.yul\":12952:12958   */\n      0x00\n        /* \"#utility.yul\":13002:13003   */\n      0x08\n        /* \"#utility.yul\":12990:13000   */\n      dup4\n        /* \"#utility.yul\":12986:13004   */\n      mul\n        /* \"#utility.yul\":13025:13122   */\n      tag_274\n        /* \"#utility.yul\":13055:13121   */\n      0xffffffffffffffffffffffffffffffffffffffffffffffffffffffffffffffff\n        /* \"#utility.yul\":13044:13053   */\n      dup3\n        /* \"#utility.yul\":13025:13122   */\n      tag_126\n      jump\t// in\n    tag_274:\n        /* \"#utility.yul\":13143:13182   */\n      tag_275\n        /* \"#utility.yul\":13173:13181   */\n      dup7\n        /* \"#utility.yul\":13162:13171   */\n      dup4\n        /* \"#utility.yul\":13143:13182   */\n      tag_126\n      jump\t// in\n    tag_275:\n        /* \"#utility.yul\":13131:13182   */\n      swap6\n      pop\n        /* \"#utility.yul\":13215:13219   */\n      dup1\n        /* \"#utility.yul\":13211:13220   */\n      not\n        /* \"#utility.yul\":13204:13209   */\n      dup5\n        /* \"#utility.yul\":13200:13221   */\n      and\n        /* \"#utility.yul\":13191:13221   */\n      swap4\n      pop\n        /* \"#utility.yul\":13264:13268   */\n      dup1\n        /* \"#utility.yul\":13254:13262   */\n      dup7\n        /* \"#utility.yul\":13250:13269   */\n      and\n        /* \"#utility.yul\":13243:13248   */\n      dup5\n        /* \"#utility.yul\":13240:13270   */\n      or\n        /* \"#utility.yul\":13230:13270   */\n      swap3\n      pop\n        /* \"#utility.yul\":12959:13276   */\n      pop\n      pop\n        /* \"#utility.yul\":12883:13276   */\n      swap4\n      swap3\n      pop\n      pop\n      pop\n      jump\t// out\n        /* \"#utility.yul\":13282:13342   */\n    tag_128:\n        /* \"#utility.yul\":13310:13313   */\n      0x00\n        /* \"#utility.yul\":13331:13336   */\n      dup2\n        /* \"#utility.yul\":13324:13336   */\n      swap1\n      pop\n        /* \"#utility.yul\":13282:13342   */\n      swap2\n      swap1\n      pop\n      jump\t// out\n        /* \"#utility.yul\":13348:13490   */\n    tag_129:\n        /* \"#utility.yul\":13398:13407   */\n      0x00\n        /* \"#utility.yul\":13431:13484   */\n      tag_278\n        /* \"#utility.yul\":13449:13483   */\n      tag_279\n        /* \"#utility.yul\":13458:13482   */\n      tag_280\n        /* \"#utility.yul\":13476:13481   */\n      dup5\n        /* \"#utility.yul\":13458:13482   */\n      tag_92\n      jump\t// in\n    tag_280:\n        /* \"#utility.yul\":13449:13483   */\n      tag_128\n      jump\t// in\n    tag_279:\n        /* \"#utility.yul\":13431:13484   */\n      tag_92\n      jump\t// in\n    tag_278:\n        /* \"#utility.yul\":13418:13484   */\n      swap1\n      pop\n        /* \"#utility.yul\":13348:13490   */\n      swap2\n      swap1\n      pop\n      jump\t// out\n        /* \"#utility.yul\":13496:13571   */\n    tag_130:\n        /* \"#utility.yul\":13539:13542   */\n      0x00\n        /* \"#utility.yul\":13560:13565   */\n      dup2\n        /* \"#utility.yul\":13553:13565   */\n      swap1\n      pop\n        /* \"#utility.yul\":13496:13571   */\n      swap2\n      swap1\n      pop\n      jump\t// out\n        /* \"#utility.yul\":13577:13846   */\n    tag_131:\n        /* \"#utility.yul\":13687:13726   */\n      tag_283\n        /* \"#utility.yul\":13718:13725   */\n      dup4\n        /* \"#utility.yul\":13687:13726   */\n      tag_129\n      jump\t// in\n    tag_283:\n        /* \"#utility.yul\":13748:13839   */\n      tag_284\n        /* \"#utility.yul\":13797:13838   */\n      tag_285\n        /* \"#utility.yul\":13821:13837   */\n      dup3\n        /* \"#utility.yul\":13797:13838   */\n      tag_130\n      jump\t// in\n    tag_285:\n        /* \"#utility.yul\":13789:13795   */\n      dup5\n        /* \"#utility.yul\":13782:13786   */\n      dup5\n        /* \"#utility.yul\":13776:13787   */\n      sload\n        /* \"#utility.yul\":13748:13839   */\n      tag_127\n      jump\t// in\n    tag_284:\n        /* \"#utility.yul\":13742:13746   */\n      dup3\n        /* \"#utility.yul\":13735:13840   */\n      sstore\n        /* \"#utility.yul\":13653:13846   */\n      pop\n        /* \"#utility.yul\":13577:13846   */\n      pop\n      pop\n      pop\n      jump\t// out\n        /* \"#utility.yul\":13852:13925   */\n    tag_132:\n        /* \"#utility.yul\":13897:13900   */\n      0x00\n        /* \"#utility.yul\":13852:13925   */\n      swap1\n      jump\t// out\n        /* \"#utility.yul\":13931:14120   */\n    tag_133:\n        /* \"#utility.yul\":14008:14040   */\n      tag_288\n      tag_132\n      jump\t// in\n    tag_288:\n        /* \"#utility.yul\":14049:14114   */\n      tag_289\n        /* \"#utility.yul\":14107:14113   */\n      dup2\n        /* \"#utility.yul\":14099:14105   */\n      dup5\n        /* \"#utility.yul\":14093:14097   */\n      dup5\n        /* \"#utility.yul\":14049:14114   */\n      tag_131\n      jump\t// in\n    tag_289:\n        /* \"#utility.yul\":13984:14120   */\n      pop\n        /* \"#utility.yul\":13931:14120   */\n      pop\n      pop\n      jump\t// out\n        /* \"#utility.yul\":14126:14312   */\n    tag_134:\n        /* \"#utility.yul\":14186:14306   */\n    tag_291:\n        /* \"#utility.yul\":14203:14206   */\n      dup2\n        /* \"#utility.yul\":14196:14201   */\n      dup2\n        /* \"#utility.yul\":14193:14207   */\n      lt\n        /* \"#utility.yul\":14186:14306   */\n      iszero\n      tag_293\n      jumpi\n        /* \"#utility.yul\":14257:14296   */\n      tag_294\n        /* \"#utility.yul\":14294:14295   */\n      0x00\n        /* \"#utility.yul\":14287:14292   */\n      dup3\n        /* \"#utility.yul\":14257:14296   */\n      tag_133\n      jump\t// in\n    tag_294:\n        /* \"#utility.yul\":14230:14231   */\n      0x01\n        /* \"#utility.yul\":14223:14228   */\n      dup2\n        /* \"#utility.yul\":14219:14232   */\n      add\n        /* \"#utility.yul\":14210:14232   */\n      swap1\n      pop\n        /* \"#utility.yul\":14186:14306   */\n      jump(tag_291)\n    tag_293:\n        /* \"#utility.yul\":14126:14312   */\n      pop\n      pop\n      jump\t// out\n        /* \"#utility.yul\":14318:14861   */\n    tag_135:\n        /* \"#utility.yul\":14419:14421   */\n      0x1f\n        /* \"#utility.yul\":14414:14417   */\n      dup3\n        /* \"#utility.yul\":14411:14422   */\n      gt\n        /* \"#utility.yul\":14408:14854   */\n      iszero\n      tag_296\n      jumpi\n        /* \"#utility.yul\":14453:14491   */\n      tag_297\n        /* \"#utility.yul\":14485:14490   */\n      dup2\n        /* \"#utility.yul\":14453:14491   */\n      tag_124\n      jump\t// in\n    tag_297:\n        /* \"#utility.yul\":14537:14566   */\n      tag_298\n        /* \"#utility.yul\":14555:14565   */\n      dup5\n        /* \"#utility.yul\":14537:14566   */\n      tag_125\n      jump\t// in\n    tag_298:\n        /* \"#utility.yul\":14527:14535   */\n      dup2\n        /* \"#utility.yul\":14523:14567   */\n      add\n        /* \"#utility.yul\":14720:14722   */\n      0x20\n        /* \"#utility.yul\":14708:14718   */\n      dup6\n        /* \"#utility.yul\":14705:14723   */\n      lt\n        /* \"#utility.yul\":14702:14751   */\n      iszero\n      tag_299\n      jumpi\n        /* \"#utility.yul\":14741:14749   */\n      dup2\n        /* \"#utility.yul\":14726:14749   */\n      swap1\n      pop\n        /* \"#utility.yul\":14702:14751   */\n    tag_299:\n        /* \"#utility.yul\":14764:14844   */\n      tag_300\n        /* \"#utility.yul\":14820:14842   */\n      tag_301\n        /* \"#utility.yul\":14838:14841   */\n      dup6\n        /* \"#utility.yul\":14820:14842   */\n      tag_125\n      jump\t// in\n    tag_301:\n        /* \"#utility.yul\":14810:14818   */\n      dup4\n        /* \"#utility.yul\":14806:14843   */\n      add\n        /* \"#utility.yul\":14793:14804   */\n      dup3\n        /* \"#utility.yul\":14764:14844   */\n      tag_134\n      jump\t// in\n    tag_300:\n        /* \"#utility.yul\":14423:14854   */\n      pop\n      pop\n        /* \"#utility.yul\":14408:14854   */\n    tag_296:\n        /* \"#utility.yul\":14318:14861   */\n      pop\n      pop\n      pop\n      jump\t// out\n        /* \"#utility.yul\":14867:14984   */\n    tag_136:\n        /* \"#utility.yul\":14921:14929   */\n      0x00\n        /* \"#utility.yul\":14971:14976   */\n      dup3\n        /* \"#utility.yul\":14965:14969   */\n      dup3\n        /* \"#utility.yul\":14961:14977   */\n      shr\n        /* \"#utility.yul\":14940:14977   */\n      swap1\n      pop\n        /* \"#utility.yul\":14867:14984   */\n      swap3\n      swap2\n      pop\n      pop\n      jump\t// out\n        /* \"#utility.yul\":14990:15159   */\n    tag_137:\n        /* \"#utility.yul\":15034:15040   */\n      0x00\n        /* \"#utility.yul\":15067:15118   */\n      tag_304\n        /* \"#utility.yul\":15115:15116   */\n      0x00\n        /* \"#utility.yul\":15111:15117   */\n      not\n        /* \"#utility.yul\":15103:15108   */\n      dup5\n        /* \"#utility.yul\":15100:15101   */\n      0x08\n        /* \"#utility.yul\":15096:15109   */\n      mul\n        /* \"#utility.yul\":15067:15118   */\n      tag_136\n      jump\t// in\n    tag_304:\n        /* \"#utility.yul\":15063:15119   */\n      not\n        /* \"#utility.yul\":15148:15152   */\n      dup1\n        /* \"#utility.yul\":15142:15146   */\n      dup4\n        /* \"#utility.yul\":15138:15153   */\n      and\n        /* \"#utility.yul\":15128:15153   */\n      swap2\n      pop\n        /* \"#utility.yul\":15041:15159   */\n      pop\n        /* \"#utility.yul\":14990:15159   */\n      swap3\n      swap2\n      pop\n      pop\n      jump\t// out\n        /* \"#utility.yul\":15164:15459   */\n    tag_138:\n        /* \"#utility.yul\":15240:15244   */\n      0x00\n        /* \"#utility.yul\":15386:15415   */\n      tag_306\n        /* \"#utility.yul\":15411:15414   */\n      dup4\n        /* \"#utility.yul\":15405:15409   */\n      dup4\n        /* \"#utility.yul\":15386:15415   */\n      tag_137\n      jump\t// in\n    tag_306:\n        /* \"#utility.yul\":15378:15415   */\n      swap2\n      pop\n        /* \"#utility.yul\":15448:15451   */\n      dup3\n        /* \"#utility.yul\":15445:15446   */\n      0x02\n        /* \"#utility.yul\":15441:15452   */\n      mul\n        /* \"#utility.yul\":15435:15439   */\n      dup3\n        /* \"#utility.yul\":15432:15453   */\n      or\n        /* \"#utility.yul\":15424:15453   */\n      swap1\n      pop\n        /* \"#utility.yul\":15164:15459   */\n      swap3\n      swap2\n      pop\n      pop\n      jump\t// out\n        /* \"#utility.yul\":15464:16859   */\n    tag_73:\n        /* \"#utility.yul\":15581:15618   */\n      tag_308\n        /* \"#utility.yul\":15614:15617   */\n      dup3\n        /* \"#utility.yul\":15581:15618   */\n      tag_110\n      jump\t// in\n    tag_308:\n        /* \"#utility.yul\":15683:15701   */\n      0xffffffffffffffff\n        /* \"#utility.yul\":15675:15681   */\n      dup2\n        /* \"#utility.yul\":15672:15702   */\n      gt\n        /* \"#utility.yul\":15669:15725   */\n      iszero\n      tag_309\n      jumpi\n        /* \"#utility.yul\":15705:15723   */\n      tag_310\n      tag_98\n      jump\t// in\n    tag_310:\n        /* \"#utility.yul\":15669:15725   */\n    tag_309:\n        /* \"#utility.yul\":15749:15787   */\n      tag_311\n        /* \"#utility.yul\":15781:15785   */\n      dup3\n        /* \"#utility.yul\":15775:15786   */\n      sload\n        /* \"#utility.yul\":15749:15787   */\n      tag_78\n      jump\t// in\n    tag_311:\n        /* \"#utility.yul\":15834:15901   */\n      tag_312\n        /* \"#utility.yul\":15894:15900   */\n      dup3\n        /* \"#utility.yul\":15886:15892   */\n      dup3\n        /* \"#utility.yul\":15880:15884   */\n      dup6\n        /* \"#utility.yul\":15834:15901   */\n      tag_135\n      jump\t// in\n    tag_312:\n        /* \"#utility.yul\":15928:15929   */\n      0x00\n        /* \"#utility.yul\":15952:15956   */\n      0x20\n        /* \"#utility.yul\":15939:15956   */\n      swap1\n      pop\n        /* \"#utility.yul\":15984:15986   */\n      0x1f\n        /* \"#utility.yul\":15976:15982   */\n      dup4\n        /* \"#utility.yul\":15973:15987   */\n      gt\n        /* \"#utility.yul\":16001:16002   */\n      0x01\n        /* \"#utility.yul\":15996:16614   */\n      dup2\n      eq\n      tag_314\n      jumpi\n        /* \"#utility.yul\":16658:16659   */\n      0x00\n        /* \"#utility.yul\":16675:16681   */\n      dup5\n        /* \"#utility.yul\":16672:16749   */\n      iszero\n      tag_315\n      jumpi\n        /* \"#utility.yul\":16724:16733   */\n      dup3\n        /* \"#utility.yul\":16719:16722   */\n      dup8\n        /* \"#utility.yul\":16715:16734   */\n      add\n        /* \"#utility.yul\":16709:16735   */\n      mload\n        /* \"#utility.yul\":16700:16735   */\n      swap1\n      pop\n        /* \"#utility.yul\":16672:16749   */\n    tag_315:\n        /* \"#utility.yul\":16775:16842   */\n      tag_316\n        /* \"#utility.yul\":16835:16841   */\n      dup6\n        /* \"#utility.yul\":16828:16833   */\n      dup3\n        /* \"#utility.yul\":16775:16842   */\n      tag_138\n      jump\t// in\n    tag_316:\n        /* \"#utility.yul\":16769:16773   */\n      dup7\n        /* \"#utility.yul\":16762:16843   */\n      sstore\n        /* \"#utility.yul\":16631:16853   */\n      pop\n        /* \"#utility.yul\":15966:16853   */\n      jump(tag_313)\n        /* \"#utility.yul\":15996:16614   */\n    tag_314:\n        /* \"#utility.yul\":16048:16052   */\n      0x1f\n        /* \"#utility.yul\":16044:16053   */\n      not\n        /* \"#utility.yul\":16036:16042   */\n      dup5\n        /* \"#utility.yul\":16032:16054   */\n      and\n        /* \"#utility.yul\":16082:16119   */\n      tag_317\n        /* \"#utility.yul\":16114:16118   */\n      dup7\n        /* \"#utility.yul\":16082:16119   */\n      tag_124\n      jump\t// in\n    tag_317:\n        /* \"#utility.yul\":16141:16142   */\n      0x00\n        /* \"#utility.yul\":16155:16363   */\n    tag_318:\n        /* \"#utility.yul\":16169:16176   */\n      dup3\n        /* \"#utility.yul\":16166:16167   */\n      dup2\n        /* \"#utility.yul\":16163:16177   */\n      lt\n        /* \"#utility.yul\":16155:16363   */\n      iszero\n      tag_320\n      jumpi\n        /* \"#utility.yul\":16248:16257   */\n      dup5\n        /* \"#utility.yul\":16243:16246   */\n      dup10\n        /* \"#utility.yul\":16239:16258   */\n      add\n        /* \"#utility.yul\":16233:16259   */\n      mload\n        /* \"#utility.yul\":16225:16231   */\n      dup3\n        /* \"#utility.yul\":16218:16260   */\n      sstore\n        /* \"#utility.yul\":16299:16300   */\n      0x01\n        /* \"#utility.yul\":16291:16297   */\n      dup3\n        /* \"#utility.yul\":16287:16301   */\n      add\n        /* \"#utility.yul\":16277:16301   */\n      swap2\n      pop\n        /* \"#utility.yul\":16346:16348   */\n      0x20\n        /* \"#utility.yul\":16335:16344   */\n      dup6\n        /* \"#utility.yul\":16331:16349   */\n      add\n        /* \"#utility.yul\":16318:16349   */\n      swap5\n      pop\n        /* \"#utility.yul\":16192:16196   */\n      0x20\n        /* \"#utility.yul\":16189:16190   */\n      dup2\n        /* \"#utility.yul\":16185:16197   */\n      add\n        /* \"#utility.yul\":16180:16197   */\n      swap1\n      pop\n        /* \"#utility.yul\":16155:16363   */\n      jump(tag_318)\n    tag_320:\n        /* \"#utility.yul\":16391:16397   */\n      dup7\n        /* \"#utility.yul\":16382:16389   */\n      dup4\n        /* \"#utility.yul\":16379:16398   */\n      lt\n        /* \"#utility.yul\":16376:16555   */\n      iszero\n      tag_321\n      jumpi\n        /* \"#utility.yul\":16449:16458   */\n      dup5\n        /* \"#utility.yul\":16444:16447   */\n      dup10\n        /* \"#utility.yul\":16440:16459   */\n      add\n        /* \"#utility.yul\":16434:16460   */\n      mload\n        /* \"#utility.yul\":16492:16540   */\n      tag_322\n        /* \"#utility.yul\":16534:16538   */\n      0x1f\n        /* \"#utility.yul\":16526:16532   */\n      dup10\n        /* \"#utility.yul\":16522:16539   */\n      and\n        /* \"#utility.yul\":16511:16520   */\n      dup3\n        /* \"#utility.yul\":16492:16540   */\n      tag_137\n      jump\t// in\n    tag_322:\n        /* \"#utility.yul\":16484:16490   */\n      dup4\n        /* \"#utility.yul\":16477:16541   */\n      sstore\n        /* \"#utility.yul\":16399:16555   */\n      pop\n        /* \"#utility.yul\":16376:16555   */\n    tag_321:\n        /* \"#utility.yul\":16601:16602   */\n      0x01\n        /* \"#utility.yul\":16597:16598   */\n      0x02\n        /* \"#utility.yul\":16589:16595   */\n      dup9\n        /* \"#utility.yul\":16585:16599   */\n      mul\n        /* \"#utility.yul\":16581:16603   */\n      add\n        /* \"#utility.yul\":16575:16579   */\n      dup9\n        /* \"#utility.yul\":16568:16604   */\n      sstore\n        /* \"#utility.yul\":16003:16614   */\n      pop\n      pop\n      pop\n        /* \"#utility.yul\":15966:16853   */\n    tag_313:\n      pop\n        /* \"#utility.yul\":15556:16859   */\n      pop\n      pop\n      pop\n        /* \"#utility.yul\":15464:16859   */\n      pop\n      pop\n      jump\t// out\n        /* \"#utility.yul\":16865:16950   */\n    tag_139:\n        /* \"#utility.yul\":16910:16917   */\n      0x00\n        /* \"#utility.yul\":16939:16944   */\n      dup2\n        /* \"#utility.yul\":16928:16944   */\n      swap1\n      pop\n        /* \"#utility.yul\":16865:16950   */\n      swap2\n      swap1\n      pop\n      jump\t// out\n        /* \"#utility.yul\":16956:17114   */\n    tag_140:\n        /* \"#utility.yul\":17014:17023   */\n      0x00\n        /* \"#utility.yul\":17047:17108   */\n      tag_325\n        /* \"#utility.yul\":17065:17107   */\n      tag_326\n        /* \"#utility.yul\":17074:17106   */\n      tag_327\n        /* \"#utility.yul\":17100:17105   */\n      dup5\n        /* \"#utility.yul\":17074:17106   */\n      tag_139\n      jump\t// in\n    tag_327:\n        /* \"#utility.yul\":17065:17107   */\n      tag_128\n      jump\t// in\n    tag_326:\n        /* \"#utility.yul\":17047:17108   */\n      tag_92\n      jump\t// in\n    tag_325:\n        /* \"#utility.yul\":17034:17108   */\n      swap1\n      pop\n        /* \"#utility.yul\":16956:17114   */\n      swap2\n      swap1\n      pop\n      jump\t// out\n        /* \"#utility.yul\":17120:17267   */\n    tag_141:\n        /* \"#utility.yul\":17215:17260   */\n      tag_329\n        /* \"#utility.yul\":17254:17259   */\n      dup2\n        /* \"#utility.yul\":17215:17260   */\n      tag_140\n      jump\t// in\n    tag_329:\n        /* \"#utility.yul\":17210:17213   */\n      dup3\n        /* \"#utility.yul\":17203:17261   */\n      mstore\n        /* \"#utility.yul\":17120:17267   */\n      pop\n      pop\n      jump\t// out\n        /* \"#utility.yul\":17273:17822   */\n    tag_76:\n        /* \"#utility.yul\":17450:17454   */\n      0x00\n        /* \"#utility.yul\":17488:17490   */\n      0x60\n        /* \"#utility.yul\":17477:17486   */\n      dup3\n        /* \"#utility.yul\":17473:17491   */\n      add\n        /* \"#utility.yul\":17465:17491   */\n      swap1\n      pop\n        /* \"#utility.yul\":17501:17572   */\n      tag_331\n        /* \"#utility.yul\":17569:17570   */\n      0x00\n        /* \"#utility.yul\":17558:17567   */\n      dup4\n        /* \"#utility.yul\":17554:17571   */\n      add\n        /* \"#utility.yul\":17545:17551   */\n      dup7\n        /* \"#utility.yul\":17501:17572   */\n      tag_109\n      jump\t// in\n    tag_331:\n        /* \"#utility.yul\":17619:17628   */\n      dup2\n        /* \"#utility.yul\":17613:17617   */\n      dup2\n        /* \"#utility.yul\":17609:17629   */\n      sub\n        /* \"#utility.yul\":17604:17606   */\n      0x20\n        /* \"#utility.yul\":17593:17602   */\n      dup4\n        /* \"#utility.yul\":17589:17607   */\n      add\n        /* \"#utility.yul\":17582:17630   */\n      mstore\n        /* \"#utility.yul\":17647:17725   */\n      tag_332\n        /* \"#utility.yul\":17720:17724   */\n      dup2\n        /* \"#utility.yul\":17711:17717   */\n      dup6\n        /* \"#utility.yul\":17647:17725   */\n      tag_112\n      jump\t// in\n    tag_332:\n        /* \"#utility.yul\":17639:17725   */\n      swap1\n      pop\n        /* \"#utility.yul\":17735:17815   */\n      tag_333\n        /* \"#utility.yul\":17811:17813   */\n      0x40\n        /* \"#utility.yul\":17800:17809   */\n      dup4\n        /* \"#utility.yul\":17796:17814   */\n      add\n        /* \"#utility.yul\":17787:17793   */\n      dup5\n        /* \"#utility.yul\":17735:17815   */\n      tag_141\n      jump\t// in\n    tag_333:\n        /* \"#utility.yul\":17273:17822   */\n      swap5\n      swap4\n      pop\n      pop\n      pop\n      pop\n      jump\t// out\n\n    auxdata: 0xa2646970667358221220fb06ffa687743668467f350a6646fd74086c02ef841b5ca8b51de75f8efc5fbe64736f6c63430008160033\n}\n",
				"bytecode": {
					"linkReferences": {},
					"object": "608060405234801561000f575f80fd5b50335f806101000a81548173ffffffffffffffffffffffffffffffffffffffff021916908373ffffffffffffffffffffffffffffffffffffffff1602179055506112148061005c5f395ff3fe608060405260043610610058575f3560e01c8063056eeb49146100b557806307a4b1ba146100d15780630b7d5609146100f95780632bf6b806146101385780638e5771bb14610162578063ea4638e71461016c576100b1565b366100b157670de0b6b3a764000034116100a7576040517f08c379a000000000000000000000000000000000000000000000000000000000815260040161009e906108d5565b60405180910390fd5b6100af610196565b005b5f80fd5b6100cf60048036038101906100ca9190610937565b6102fe565b005b3480156100dc575f80fd5b506100f760048036038101906100f29190610a9e565b610570565b005b348015610104575f80fd5b5061011f600480360381019061011a9190610b3f565b61070d565b60405161012f9493929190610bfd565b60405180910390f35b348015610143575f80fd5b5061014c6107cb565b6040516101599190610c47565b60405180910390f35b61016a610196565b005b348015610177575f80fd5b50610180610812565b60405161018d9190610c6f565b60405180910390f35b5f60015f3373ffffffffffffffffffffffffffffffffffffffff1673ffffffffffffffffffffffffffffffffffffffff1681526020019081526020015f205f015403610217576040517f08c379a000000000000000000000000000000000000000000000000000000000815260040161020e90610cd2565b60405180910390fd5b3460015f3373ffffffffffffffffffffffffffffffffffffffff1673ffffffffffffffffffffffffffffffffffffffff1681526020019081526020015f206002015f8282546102669190610d1d565b925050819055503373ffffffffffffffffffffffffffffffffffffffff167f4f38e007f4383434d698965e597c0b69f489bc186233165377210d05cb73b50e60015f3373ffffffffffffffffffffffffffffffffffffffff1673ffffffffffffffffffffffffffffffffffffffff1681526020019081526020015f205f0154346040516102f4929190610d50565b60405180910390a2565b5f60015f3373ffffffffffffffffffffffffffffffffffffffff1673ffffffffffffffffffffffffffffffffffffffff1681526020019081526020015f205f01540361037f576040517f08c379a000000000000000000000000000000000000000000000000000000000815260040161037690610cd2565b60405180910390fd5b8060015f3373ffffffffffffffffffffffffffffffffffffffff1673ffffffffffffffffffffffffffffffffffffffff1681526020019081526020015f20600201541015610402576040517f08c379a00000000000000000000000000000000000000000000000000000000081526004016103f990610de7565b60405180910390fd5b5f8111610444576040517f08c379a000000000000000000000000000000000000000000000000000000000815260040161043b906108d5565b60405180910390fd5b3373ffffffffffffffffffffffffffffffffffffffff166108fc8290811502906040515f60405180830381858888f19350505050158015610487573d5f803e3d5ffd5b503460015f3373ffffffffffffffffffffffffffffffffffffffff1673ffffffffffffffffffffffffffffffffffffffff1681526020019081526020015f206002015f8282546104d79190610e05565b925050819055503373ffffffffffffffffffffffffffffffffffffffff167f71a487e475ec1fe51afb322ab09a02a0b9b2d1180ca18157a0c9bfd9c1023fe160015f3373ffffffffffffffffffffffffffffffffffffffff1673ffffffffffffffffffffffffffffffffffffffff1681526020019081526020015f205f015483604051610565929190610d50565b60405180910390a250565b5f60015f3373ffffffffffffffffffffffffffffffffffffffff1673ffffffffffffffffffffffffffffffffffffffff1681526020019081526020015f205f0154146105f1576040517f08c379a00000000000000000000000000000000000000000000000000000000081526004016105e890610e82565b60405180910390fd5b6105fb6002610835565b60405180608001604052806106106002610849565b81526020018281526020015f81526020016001151581525060015f3373ffffffffffffffffffffffffffffffffffffffff1673ffffffffffffffffffffffffffffffffffffffff1681526020019081526020015f205f820151815f01556020820151816001019081610682919061109a565b50604082015181600201556060820151816003015f6101000a81548160ff0219169083151502179055509050503373ffffffffffffffffffffffffffffffffffffffff167fcf747182b019aa512fec3c443aaabb3939e783335d21ae1a0c1ef391e904ffcf6106f16002610849565b835f604051610702939291906111a2565b60405180910390a250565b6001602052805f5260405f205f91509050805f01549080600101805461073290610ecd565b80601f016020809104026020016040519081016040528092919081815260200182805461075e90610ecd565b80156107a95780601f10610780576101008083540402835291602001916107a9565b820191905f5260205f20905b81548152906001019060200180831161078c57829003601f168201915b505050505090806002015490806003015f9054906101000a900460ff16905084565b5f60015f3373ffffffffffffffffffffffffffffffffffffffff1673ffffffffffffffffffffffffffffffffffffffff1681526020019081526020015f2060020154905090565b5f8054906101000a900473ffffffffffffffffffffffffffffffffffffffff1681565b6001815f015f828254019250508190555050565b5f815f01549050919050565b5f82825260208201905092915050565b7f596f752061726520747279696e6720746f207769746864726177204e4f5448495f8201527f4e47212121200000000000000000000000000000000000000000000000000000602082015250565b5f6108bf602683610855565b91506108ca82610865565b604082019050919050565b5f6020820190508181035f8301526108ec816108b3565b9050919050565b5f604051905090565b5f80fd5b5f80fd5b5f819050919050565b61091681610904565b8114610920575f80fd5b50565b5f813590506109318161090d565b92915050565b5f6020828403121561094c5761094b6108fc565b5b5f61095984828501610923565b91505092915050565b5f80fd5b5f80fd5b5f601f19601f8301169050919050565b7f4e487b71000000000000000000000000000000000000000000000000000000005f52604160045260245ffd5b6109b08261096a565b810181811067ffffffffffffffff821117156109cf576109ce61097a565b5b80604052505050565b5f6109e16108f3565b90506109ed82826109a7565b919050565b5f67ffffffffffffffff821115610a0c57610a0b61097a565b5b610a158261096a565b9050602081019050919050565b828183375f83830152505050565b5f610a42610a3d846109f2565b6109d8565b905082815260208101848484011115610a5e57610a5d610966565b5b610a69848285610a22565b509392505050565b5f82601f830112610a8557610a84610962565b5b8135610a95848260208601610a30565b91505092915050565b5f60208284031215610ab357610ab26108fc565b5b5f82013567ffffffffffffffff811115610ad057610acf610900565b5b610adc84828501610a71565b91505092915050565b5f73ffffffffffffffffffffffffffffffffffffffff82169050919050565b5f610b0e82610ae5565b9050919050565b610b1e81610b04565b8114610b28575f80fd5b50565b5f81359050610b3981610b15565b92915050565b5f60208284031215610b5457610b536108fc565b5b5f610b6184828501610b2b565b91505092915050565b610b7381610904565b82525050565b5f81519050919050565b5f5b83811015610ba0578082015181840152602081019050610b85565b5f8484015250505050565b5f610bb582610b79565b610bbf8185610855565b9350610bcf818560208601610b83565b610bd88161096a565b840191505092915050565b5f8115159050919050565b610bf781610be3565b82525050565b5f608082019050610c105f830187610b6a565b8181036020830152610c228186610bab565b9050610c316040830185610b6a565b610c3e6060830184610bee565b95945050505050565b5f602082019050610c5a5f830184610b6a565b92915050565b610c6981610b04565b82525050565b5f602082019050610c825f830184610c60565b92915050565b7f4e6f204163636f756e74206461746120666f756e6421212120000000000000005f82015250565b5f610cbc601983610855565b9150610cc782610c88565b602082019050919050565b5f6020820190508181035f830152610ce981610cb0565b9050919050565b7f4e487b71000000000000000000000000000000000000000000000000000000005f52601160045260245ffd5b5f610d2782610904565b9150610d3283610904565b9250828201905080821115610d4a57610d49610cf0565b5b92915050565b5f604082019050610d635f830185610b6a565b610d706020830184610b6a565b9392505050565b7f596f752061726520747279696e6720746f207769746864726177206d6f6e65795f8201527f20796f7520646f6e277420686176652121212000000000000000000000000000602082015250565b5f610dd1603383610855565b9150610ddc82610d77565b604082019050919050565b5f6020820190508181035f830152610dfe81610dc5565b9050919050565b5f610e0f82610904565b9150610e1a83610904565b9250828203905081811115610e3257610e31610cf0565b5b92915050565b7f4163636f756e7420616c726561647920657869737473000000000000000000005f82015250565b5f610e6c601683610855565b9150610e7782610e38565b602082019050919050565b5f6020820190508181035f830152610e9981610e60565b9050919050565b7f4e487b71000000000000000000000000000000000000000000000000000000005f52602260045260245ffd5b5f6002820490506001821680610ee457607f821691505b602082108103610ef757610ef6610ea0565b5b50919050565b5f819050815f5260205f209050919050565b5f6020601f8301049050919050565b5f82821b905092915050565b5f60088302610f597fffffffffffffffffffffffffffffffffffffffffffffffffffffffffffffffff82610f1e565b610f638683610f1e565b95508019841693508086168417925050509392505050565b5f819050919050565b5f610f9e610f99610f9484610904565b610f7b565b610904565b9050919050565b5f819050919050565b610fb783610f84565b610fcb610fc382610fa5565b848454610f2a565b825550505050565b5f90565b610fdf610fd3565b610fea818484610fae565b505050565b5b8181101561100d576110025f82610fd7565b600181019050610ff0565b5050565b601f8211156110525761102381610efd565b61102c84610f0f565b8101602085101561103b578190505b61104f61104785610f0f565b830182610fef565b50505b505050565b5f82821c905092915050565b5f6110725f1984600802611057565b1980831691505092915050565b5f61108a8383611063565b9150826002028217905092915050565b6110a382610b79565b67ffffffffffffffff8111156110bc576110bb61097a565b5b6110c68254610ecd565b6110d1828285611011565b5f60209050601f831160018114611102575f84156110f0578287015190505b6110fa858261107f565b865550611161565b601f19841661111086610efd565b5f5b8281101561113757848901518255600182019150602085019450602081019050611112565b868310156111545784890151611150601f891682611063565b8355505b6001600288020188555050505b505050505050565b5f819050919050565b5f61118c61118761118284611169565b610f7b565b610904565b9050919050565b61119c81611172565b82525050565b5f6060820190506111b55f830186610b6a565b81810360208301526111c78185610bab565b90506111d66040830184611193565b94935050505056fea2646970667358221220fb06ffa687743668467f350a6646fd74086c02ef841b5ca8b51de75f8efc5fbe64736f6c63430008160033",
					"opcodes": "PUSH1 0x80 PUSH1 0x40 MSTORE CALLVALUE DUP1 ISZERO PUSH2 0xF JUMPI PUSH0 DUP1 REVERT JUMPDEST POP CALLER PUSH0 DUP1 PUSH2 0x100 EXP DUP2 SLOAD DUP2 PUSH20 0xFFFFFFFFFFFFFFFFFFFFFFFFFFFFFFFFFFFFFFFF MUL NOT AND SWAP1 DUP4 PUSH20 0xFFFFFFFFFFFFFFFFFFFFFFFFFFFFFFFFFFFFFFFF AND MUL OR SWAP1 SSTORE POP PUSH2 0x1214 DUP1 PUSH2 0x5C PUSH0 CODECOPY PUSH0 RETURN INVALID PUSH1 0x80 PUSH1 0x40 MSTORE PUSH1 0x4 CALLDATASIZE LT PUSH2 0x58 JUMPI PUSH0 CALLDATALOAD PUSH1 0xE0 SHR DUP1 PUSH4 0x56EEB49 EQ PUSH2 0xB5 JUMPI DUP1 PUSH4 0x7A4B1BA EQ PUSH2 0xD1 JUMPI DUP1 PUSH4 0xB7D5609 EQ PUSH2 0xF9 JUMPI DUP1 PUSH4 0x2BF6B806 EQ PUSH2 0x138 JUMPI DUP1 PUSH4 0x8E5771BB EQ PUSH2 0x162 JUMPI DUP1 PUSH4 0xEA4638E7 EQ PUSH2 0x16C JUMPI PUSH2 0xB1 JUMP JUMPDEST CALLDATASIZE PUSH2 0xB1 JUMPI PUSH8 0xDE0B6B3A7640000 CALLVALUE GT PUSH2 0xA7 JUMPI PUSH1 0x40 MLOAD PUSH32 0x8C379A000000000000000000000000000000000000000000000000000000000 DUP2 MSTORE PUSH1 0x4 ADD PUSH2 0x9E SWAP1 PUSH2 0x8D5 JUMP JUMPDEST PUSH1 0x40 MLOAD DUP1 SWAP2 SUB SWAP1 REVERT JUMPDEST PUSH2 0xAF PUSH2 0x196 JUMP JUMPDEST STOP JUMPDEST PUSH0 DUP1 REVERT JUMPDEST PUSH2 0xCF PUSH1 0x4 DUP1 CALLDATASIZE SUB DUP2 ADD SWAP1 PUSH2 0xCA SWAP2 SWAP1 PUSH2 0x937 JUMP JUMPDEST PUSH2 0x2FE JUMP JUMPDEST STOP JUMPDEST CALLVALUE DUP1 ISZERO PUSH2 0xDC JUMPI PUSH0 DUP1 REVERT JUMPDEST POP PUSH2 0xF7 PUSH1 0x4 DUP1 CALLDATASIZE SUB DUP2 ADD SWAP1 PUSH2 0xF2 SWAP2 SWAP1 PUSH2 0xA9E JUMP JUMPDEST PUSH2 0x570 JUMP JUMPDEST STOP JUMPDEST CALLVALUE DUP1 ISZERO PUSH2 0x104 JUMPI PUSH0 DUP1 REVERT JUMPDEST POP PUSH2 0x11F PUSH1 0x4 DUP1 CALLDATASIZE SUB DUP2 ADD SWAP1 PUSH2 0x11A SWAP2 SWAP1 PUSH2 0xB3F JUMP JUMPDEST PUSH2 0x70D JUMP JUMPDEST PUSH1 0x40 MLOAD PUSH2 0x12F SWAP5 SWAP4 SWAP3 SWAP2 SWAP1 PUSH2 0xBFD JUMP JUMPDEST PUSH1 0x40 MLOAD DUP1 SWAP2 SUB SWAP1 RETURN JUMPDEST CALLVALUE DUP1 ISZERO PUSH2 0x143 JUMPI PUSH0 DUP1 REVERT JUMPDEST POP PUSH2 0x14C PUSH2 0x7CB JUMP JUMPDEST PUSH1 0x40 MLOAD PUSH2 0x159 SWAP2 SWAP1 PUSH2 0xC47 JUMP JUMPDEST PUSH1 0x40 MLOAD DUP1 SWAP2 SUB SWAP1 RETURN JUMPDEST PUSH2 0x16A PUSH2 0x196 JUMP JUMPDEST STOP JUMPDEST CALLVALUE DUP1 ISZERO PUSH2 0x177 JUMPI PUSH0 DUP1 REVERT JUMPDEST POP PUSH2 0x180 PUSH2 0x812 JUMP JUMPDEST PUSH1 0x40 MLOAD PUSH2 0x18D SWAP2 SWAP1 PUSH2 0xC6F JUMP JUMPDEST PUSH1 0x40 MLOAD DUP1 SWAP2 SUB SWAP1 RETURN JUMPDEST PUSH0 PUSH1 0x1 PUSH0 CALLER PUSH20 0xFFFFFFFFFFFFFFFFFFFFFFFFFFFFFFFFFFFFFFFF AND PUSH20 0xFFFFFFFFFFFFFFFFFFFFFFFFFFFFFFFFFFFFFFFF AND DUP2 MSTORE PUSH1 0x20 ADD SWAP1 DUP2 MSTORE PUSH1 0x20 ADD PUSH0 KECCAK256 PUSH0 ADD SLOAD SUB PUSH2 0x217 JUMPI PUSH1 0x40 MLOAD PUSH32 0x8C379A000000000000000000000000000000000000000000000000000000000 DUP2 MSTORE PUSH1 0x4 ADD PUSH2 0x20E SWAP1 PUSH2 0xCD2 JUMP JUMPDEST PUSH1 0x40 MLOAD DUP1 SWAP2 SUB SWAP1 REVERT JUMPDEST CALLVALUE PUSH1 0x1 PUSH0 CALLER PUSH20 0xFFFFFFFFFFFFFFFFFFFFFFFFFFFFFFFFFFFFFFFF AND PUSH20 0xFFFFFFFFFFFFFFFFFFFFFFFFFFFFFFFFFFFFFFFF AND DUP2 MSTORE PUSH1 0x20 ADD SWAP1 DUP2 MSTORE PUSH1 0x20 ADD PUSH0 KECCAK256 PUSH1 0x2 ADD PUSH0 DUP3 DUP3 SLOAD PUSH2 0x266 SWAP2 SWAP1 PUSH2 0xD1D JUMP JUMPDEST SWAP3 POP POP DUP2 SWAP1 SSTORE POP CALLER PUSH20 0xFFFFFFFFFFFFFFFFFFFFFFFFFFFFFFFFFFFFFFFF AND PUSH32 0x4F38E007F4383434D698965E597C0B69F489BC186233165377210D05CB73B50E PUSH1 0x1 PUSH0 CALLER PUSH20 0xFFFFFFFFFFFFFFFFFFFFFFFFFFFFFFFFFFFFFFFF AND PUSH20 0xFFFFFFFFFFFFFFFFFFFFFFFFFFFFFFFFFFFFFFFF AND DUP2 MSTORE PUSH1 0x20 ADD SWAP1 DUP2 MSTORE PUSH1 0x20 ADD PUSH0 KECCAK256 PUSH0 ADD SLOAD CALLVALUE PUSH1 0x40 MLOAD PUSH2 0x2F4 SWAP3 SWAP2 SWAP1 PUSH2 0xD50 JUMP JUMPDEST PUSH1 0x40 MLOAD DUP1 SWAP2 SUB SWAP1 LOG2 JUMP JUMPDEST PUSH0 PUSH1 0x1 PUSH0 CALLER PUSH20 0xFFFFFFFFFFFFFFFFFFFFFFFFFFFFFFFFFFFFFFFF AND PUSH20 0xFFFFFFFFFFFFFFFFFFFFFFFFFFFFFFFFFFFFFFFF AND DUP2 MSTORE PUSH1 0x20 ADD SWAP1 DUP2 MSTORE PUSH1 0x20 ADD PUSH0 KECCAK256 PUSH0 ADD SLOAD SUB PUSH2 0x37F JUMPI PUSH1 0x40 MLOAD PUSH32 0x8C379A000000000000000000000000000000000000000000000000000000000 DUP2 MSTORE PUSH1 0x4 ADD PUSH2 0x376 SWAP1 PUSH2 0xCD2 JUMP JUMPDEST PUSH1 0x40 MLOAD DUP1 SWAP2 SUB SWAP1 REVERT JUMPDEST DUP1 PUSH1 0x1 PUSH0 CALLER PUSH20 0xFFFFFFFFFFFFFFFFFFFFFFFFFFFFFFFFFFFFFFFF AND PUSH20 0xFFFFFFFFFFFFFFFFFFFFFFFFFFFFFFFFFFFFFFFF AND DUP2 MSTORE PUSH1 0x20 ADD SWAP1 DUP2 MSTORE PUSH1 0x20 ADD PUSH0 KECCAK256 PUSH1 0x2 ADD SLOAD LT ISZERO PUSH2 0x402 JUMPI PUSH1 0x40 MLOAD PUSH32 0x8C379A000000000000000000000000000000000000000000000000000000000 DUP2 MSTORE PUSH1 0x4 ADD PUSH2 0x3F9 SWAP1 PUSH2 0xDE7 JUMP JUMPDEST PUSH1 0x40 MLOAD DUP1 SWAP2 SUB SWAP1 REVERT JUMPDEST PUSH0 DUP2 GT PUSH2 0x444 JUMPI PUSH1 0x40 MLOAD PUSH32 0x8C379A000000000000000000000000000000000000000000000000000000000 DUP2 MSTORE PUSH1 0x4 ADD PUSH2 0x43B SWAP1 PUSH2 0x8D5 JUMP JUMPDEST PUSH1 0x40 MLOAD DUP1 SWAP2 SUB SWAP1 REVERT JUMPDEST CALLER PUSH20 0xFFFFFFFFFFFFFFFFFFFFFFFFFFFFFFFFFFFFFFFF AND PUSH2 0x8FC DUP3 SWAP1 DUP2 ISZERO MUL SWAP1 PUSH1 0x40 MLOAD PUSH0 PUSH1 0x40 MLOAD DUP1 DUP4 SUB DUP2 DUP6 DUP9 DUP9 CALL SWAP4 POP POP POP POP ISZERO DUP1 ISZERO PUSH2 0x487 JUMPI RETURNDATASIZE PUSH0 DUP1 RETURNDATACOPY RETURNDATASIZE PUSH0 REVERT JUMPDEST POP CALLVALUE PUSH1 0x1 PUSH0 CALLER PUSH20 0xFFFFFFFFFFFFFFFFFFFFFFFFFFFFFFFFFFFFFFFF AND PUSH20 0xFFFFFFFFFFFFFFFFFFFFFFFFFFFFFFFFFFFFFFFF AND DUP2 MSTORE PUSH1 0x20 ADD SWAP1 DUP2 MSTORE PUSH1 0x20 ADD PUSH0 KECCAK256 PUSH1 0x2 ADD PUSH0 DUP3 DUP3 SLOAD PUSH2 0x4D7 SWAP2 SWAP1 PUSH2 0xE05 JUMP JUMPDEST SWAP3 POP POP DUP2 SWAP1 SSTORE POP CALLER PUSH20 0xFFFFFFFFFFFFFFFFFFFFFFFFFFFFFFFFFFFFFFFF AND PUSH32 0x71A487E475EC1FE51AFB322AB09A02A0B9B2D1180CA18157A0C9BFD9C1023FE1 PUSH1 0x1 PUSH0 CALLER PUSH20 0xFFFFFFFFFFFFFFFFFFFFFFFFFFFFFFFFFFFFFFFF AND PUSH20 0xFFFFFFFFFFFFFFFFFFFFFFFFFFFFFFFFFFFFFFFF AND DUP2 MSTORE PUSH1 0x20 ADD SWAP1 DUP2 MSTORE PUSH1 0x20 ADD PUSH0 KECCAK256 PUSH0 ADD SLOAD DUP4 PUSH1 0x40 MLOAD PUSH2 0x565 SWAP3 SWAP2 SWAP1 PUSH2 0xD50 JUMP JUMPDEST PUSH1 0x40 MLOAD DUP1 SWAP2 SUB SWAP1 LOG2 POP JUMP JUMPDEST PUSH0 PUSH1 0x1 PUSH0 CALLER PUSH20 0xFFFFFFFFFFFFFFFFFFFFFFFFFFFFFFFFFFFFFFFF AND PUSH20 0xFFFFFFFFFFFFFFFFFFFFFFFFFFFFFFFFFFFFFFFF AND DUP2 MSTORE PUSH1 0x20 ADD SWAP1 DUP2 MSTORE PUSH1 0x20 ADD PUSH0 KECCAK256 PUSH0 ADD SLOAD EQ PUSH2 0x5F1 JUMPI PUSH1 0x40 MLOAD PUSH32 0x8C379A000000000000000000000000000000000000000000000000000000000 DUP2 MSTORE PUSH1 0x4 ADD PUSH2 0x5E8 SWAP1 PUSH2 0xE82 JUMP JUMPDEST PUSH1 0x40 MLOAD DUP1 SWAP2 SUB SWAP1 REVERT JUMPDEST PUSH2 0x5FB PUSH1 0x2 PUSH2 0x835 JUMP JUMPDEST PUSH1 0x40 MLOAD DUP1 PUSH1 0x80 ADD PUSH1 0x40 MSTORE DUP1 PUSH2 0x610 PUSH1 0x2 PUSH2 0x849 JUMP JUMPDEST DUP2 MSTORE PUSH1 0x20 ADD DUP3 DUP2 MSTORE PUSH1 0x20 ADD PUSH0 DUP2 MSTORE PUSH1 0x20 ADD PUSH1 0x1 ISZERO ISZERO DUP2 MSTORE POP PUSH1 0x1 PUSH0 CALLER PUSH20 0xFFFFFFFFFFFFFFFFFFFFFFFFFFFFFFFFFFFFFFFF AND PUSH20 0xFFFFFFFFFFFFFFFFFFFFFFFFFFFFFFFFFFFFFFFF AND DUP2 MSTORE PUSH1 0x20 ADD SWAP1 DUP2 MSTORE PUSH1 0x20 ADD PUSH0 KECCAK256 PUSH0 DUP3 ADD MLOAD DUP2 PUSH0 ADD SSTORE PUSH1 0x20 DUP3 ADD MLOAD DUP2 PUSH1 0x1 ADD SWAP1 DUP2 PUSH2 0x682 SWAP2 SWAP1 PUSH2 0x109A JUMP JUMPDEST POP PUSH1 0x40 DUP3 ADD MLOAD DUP2 PUSH1 0x2 ADD SSTORE PUSH1 0x60 DUP3 ADD MLOAD DUP2 PUSH1 0x3 ADD PUSH0 PUSH2 0x100 EXP DUP2 SLOAD DUP2 PUSH1 0xFF MUL NOT AND SWAP1 DUP4 ISZERO ISZERO MUL OR SWAP1 SSTORE POP SWAP1 POP POP CALLER PUSH20 0xFFFFFFFFFFFFFFFFFFFFFFFFFFFFFFFFFFFFFFFF AND PUSH32 0xCF747182B019AA512FEC3C443AAABB3939E783335D21AE1A0C1EF391E904FFCF PUSH2 0x6F1 PUSH1 0x2 PUSH2 0x849 JUMP JUMPDEST DUP4 PUSH0 PUSH1 0x40 MLOAD PUSH2 0x702 SWAP4 SWAP3 SWAP2 SWAP1 PUSH2 0x11A2 JUMP JUMPDEST PUSH1 0x40 MLOAD DUP1 SWAP2 SUB SWAP1 LOG2 POP JUMP JUMPDEST PUSH1 0x1 PUSH1 0x20 MSTORE DUP1 PUSH0 MSTORE PUSH1 0x40 PUSH0 KECCAK256 PUSH0 SWAP2 POP SWAP1 POP DUP1 PUSH0 ADD SLOAD SWAP1 DUP1 PUSH1 0x1 ADD DUP1 SLOAD PUSH2 0x732 SWAP1 PUSH2 0xECD JUMP JUMPDEST DUP1 PUSH1 0x1F ADD PUSH1 0x20 DUP1 SWAP2 DIV MUL PUSH1 0x20 ADD PUSH1 0x40 MLOAD SWAP1 DUP2 ADD PUSH1 0x40 MSTORE DUP1 SWAP3 SWAP2 SWAP1 DUP2 DUP2 MSTORE PUSH1 0x20 ADD DUP3 DUP1 SLOAD PUSH2 0x75E SWAP1 PUSH2 0xECD JUMP JUMPDEST DUP1 ISZERO PUSH2 0x7A9 JUMPI DUP1 PUSH1 0x1F LT PUSH2 0x780 JUMPI PUSH2 0x100 DUP1 DUP4 SLOAD DIV MUL DUP4 MSTORE SWAP2 PUSH1 0x20 ADD SWAP2 PUSH2 0x7A9 JUMP JUMPDEST DUP3 ADD SWAP2 SWAP1 PUSH0 MSTORE PUSH1 0x20 PUSH0 KECCAK256 SWAP1 JUMPDEST DUP2 SLOAD DUP2 MSTORE SWAP1 PUSH1 0x1 ADD SWAP1 PUSH1 0x20 ADD DUP1 DUP4 GT PUSH2 0x78C JUMPI DUP3 SWAP1 SUB PUSH1 0x1F AND DUP3 ADD SWAP2 JUMPDEST POP POP POP POP POP SWAP1 DUP1 PUSH1 0x2 ADD SLOAD SWAP1 DUP1 PUSH1 0x3 ADD PUSH0 SWAP1 SLOAD SWAP1 PUSH2 0x100 EXP SWAP1 DIV PUSH1 0xFF AND SWAP1 POP DUP5 JUMP JUMPDEST PUSH0 PUSH1 0x1 PUSH0 CALLER PUSH20 0xFFFFFFFFFFFFFFFFFFFFFFFFFFFFFFFFFFFFFFFF AND PUSH20 0xFFFFFFFFFFFFFFFFFFFFFFFFFFFFFFFFFFFFFFFF AND DUP2 MSTORE PUSH1 0x20 ADD SWAP1 DUP2 MSTORE PUSH1 0x20 ADD PUSH0 KECCAK256 PUSH1 0x2 ADD SLOAD SWAP1 POP SWAP1 JUMP JUMPDEST PUSH0 DUP1 SLOAD SWAP1 PUSH2 0x100 EXP SWAP1 DIV PUSH20 0xFFFFFFFFFFFFFFFFFFFFFFFFFFFFFFFFFFFFFFFF AND DUP2 JUMP JUMPDEST PUSH1 0x1 DUP2 PUSH0 ADD PUSH0 DUP3 DUP3 SLOAD ADD SWAP3 POP POP DUP2 SWAP1 SSTORE POP POP JUMP JUMPDEST PUSH0 DUP2 PUSH0 ADD SLOAD SWAP1 POP SWAP2 SWAP1 POP JUMP JUMPDEST PUSH0 DUP3 DUP3 MSTORE PUSH1 0x20 DUP3 ADD SWAP1 POP SWAP3 SWAP2 POP POP JUMP JUMPDEST PUSH32 0x596F752061726520747279696E6720746F207769746864726177204E4F544849 PUSH0 DUP3 ADD MSTORE PUSH32 0x4E47212121200000000000000000000000000000000000000000000000000000 PUSH1 0x20 DUP3 ADD MSTORE POP JUMP JUMPDEST PUSH0 PUSH2 0x8BF PUSH1 0x26 DUP4 PUSH2 0x855 JUMP JUMPDEST SWAP2 POP PUSH2 0x8CA DUP3 PUSH2 0x865 JUMP JUMPDEST PUSH1 0x40 DUP3 ADD SWAP1 POP SWAP2 SWAP1 POP JUMP JUMPDEST PUSH0 PUSH1 0x20 DUP3 ADD SWAP1 POP DUP2 DUP2 SUB PUSH0 DUP4 ADD MSTORE PUSH2 0x8EC DUP2 PUSH2 0x8B3 JUMP JUMPDEST SWAP1 POP SWAP2 SWAP1 POP JUMP JUMPDEST PUSH0 PUSH1 0x40 MLOAD SWAP1 POP SWAP1 JUMP JUMPDEST PUSH0 DUP1 REVERT JUMPDEST PUSH0 DUP1 REVERT JUMPDEST PUSH0 DUP2 SWAP1 POP SWAP2 SWAP1 POP JUMP JUMPDEST PUSH2 0x916 DUP2 PUSH2 0x904 JUMP JUMPDEST DUP2 EQ PUSH2 0x920 JUMPI PUSH0 DUP1 REVERT JUMPDEST POP JUMP JUMPDEST PUSH0 DUP2 CALLDATALOAD SWAP1 POP PUSH2 0x931 DUP2 PUSH2 0x90D JUMP JUMPDEST SWAP3 SWAP2 POP POP JUMP JUMPDEST PUSH0 PUSH1 0x20 DUP3 DUP5 SUB SLT ISZERO PUSH2 0x94C JUMPI PUSH2 0x94B PUSH2 0x8FC JUMP JUMPDEST JUMPDEST PUSH0 PUSH2 0x959 DUP5 DUP3 DUP6 ADD PUSH2 0x923 JUMP JUMPDEST SWAP2 POP POP SWAP3 SWAP2 POP POP JUMP JUMPDEST PUSH0 DUP1 REVERT JUMPDEST PUSH0 DUP1 REVERT JUMPDEST PUSH0 PUSH1 0x1F NOT PUSH1 0x1F DUP4 ADD AND SWAP1 POP SWAP2 SWAP1 POP JUMP JUMPDEST PUSH32 0x4E487B7100000000000000000000000000000000000000000000000000000000 PUSH0 MSTORE PUSH1 0x41 PUSH1 0x4 MSTORE PUSH1 0x24 PUSH0 REVERT JUMPDEST PUSH2 0x9B0 DUP3 PUSH2 0x96A JUMP JUMPDEST DUP2 ADD DUP2 DUP2 LT PUSH8 0xFFFFFFFFFFFFFFFF DUP3 GT OR ISZERO PUSH2 0x9CF JUMPI PUSH2 0x9CE PUSH2 0x97A JUMP JUMPDEST JUMPDEST DUP1 PUSH1 0x40 MSTORE POP POP POP JUMP JUMPDEST PUSH0 PUSH2 0x9E1 PUSH2 0x8F3 JUMP JUMPDEST SWAP1 POP PUSH2 0x9ED DUP3 DUP3 PUSH2 0x9A7 JUMP JUMPDEST SWAP2 SWAP1 POP JUMP JUMPDEST PUSH0 PUSH8 0xFFFFFFFFFFFFFFFF DUP3 GT ISZERO PUSH2 0xA0C JUMPI PUSH2 0xA0B PUSH2 0x97A JUMP JUMPDEST JUMPDEST PUSH2 0xA15 DUP3 PUSH2 0x96A JUMP JUMPDEST SWAP1 POP PUSH1 0x20 DUP2 ADD SWAP1 POP SWAP2 SWAP1 POP JUMP JUMPDEST DUP3 DUP2 DUP4 CALLDATACOPY PUSH0 DUP4 DUP4 ADD MSTORE POP POP POP JUMP JUMPDEST PUSH0 PUSH2 0xA42 PUSH2 0xA3D DUP5 PUSH2 0x9F2 JUMP JUMPDEST PUSH2 0x9D8 JUMP JUMPDEST SWAP1 POP DUP3 DUP2 MSTORE PUSH1 0x20 DUP2 ADD DUP5 DUP5 DUP5 ADD GT ISZERO PUSH2 0xA5E JUMPI PUSH2 0xA5D PUSH2 0x966 JUMP JUMPDEST JUMPDEST PUSH2 0xA69 DUP5 DUP3 DUP6 PUSH2 0xA22 JUMP JUMPDEST POP SWAP4 SWAP3 POP POP POP JUMP JUMPDEST PUSH0 DUP3 PUSH1 0x1F DUP4 ADD SLT PUSH2 0xA85 JUMPI PUSH2 0xA84 PUSH2 0x962 JUMP JUMPDEST JUMPDEST DUP2 CALLDATALOAD PUSH2 0xA95 DUP5 DUP3 PUSH1 0x20 DUP7 ADD PUSH2 0xA30 JUMP JUMPDEST SWAP2 POP POP SWAP3 SWAP2 POP POP JUMP JUMPDEST PUSH0 PUSH1 0x20 DUP3 DUP5 SUB SLT ISZERO PUSH2 0xAB3 JUMPI PUSH2 0xAB2 PUSH2 0x8FC JUMP JUMPDEST JUMPDEST PUSH0 DUP3 ADD CALLDATALOAD PUSH8 0xFFFFFFFFFFFFFFFF DUP2 GT ISZERO PUSH2 0xAD0 JUMPI PUSH2 0xACF PUSH2 0x900 JUMP JUMPDEST JUMPDEST PUSH2 0xADC DUP5 DUP3 DUP6 ADD PUSH2 0xA71 JUMP JUMPDEST SWAP2 POP POP SWAP3 SWAP2 POP POP JUMP JUMPDEST PUSH0 PUSH20 0xFFFFFFFFFFFFFFFFFFFFFFFFFFFFFFFFFFFFFFFF DUP3 AND SWAP1 POP SWAP2 SWAP1 POP JUMP JUMPDEST PUSH0 PUSH2 0xB0E DUP3 PUSH2 0xAE5 JUMP JUMPDEST SWAP1 POP SWAP2 SWAP1 POP JUMP JUMPDEST PUSH2 0xB1E DUP2 PUSH2 0xB04 JUMP JUMPDEST DUP2 EQ PUSH2 0xB28 JUMPI PUSH0 DUP1 REVERT JUMPDEST POP JUMP JUMPDEST PUSH0 DUP2 CALLDATALOAD SWAP1 POP PUSH2 0xB39 DUP2 PUSH2 0xB15 JUMP JUMPDEST SWAP3 SWAP2 POP POP JUMP JUMPDEST PUSH0 PUSH1 0x20 DUP3 DUP5 SUB SLT ISZERO PUSH2 0xB54 JUMPI PUSH2 0xB53 PUSH2 0x8FC JUMP JUMPDEST JUMPDEST PUSH0 PUSH2 0xB61 DUP5 DUP3 DUP6 ADD PUSH2 0xB2B JUMP JUMPDEST SWAP2 POP POP SWAP3 SWAP2 POP POP JUMP JUMPDEST PUSH2 0xB73 DUP2 PUSH2 0x904 JUMP JUMPDEST DUP3 MSTORE POP POP JUMP JUMPDEST PUSH0 DUP2 MLOAD SWAP1 POP SWAP2 SWAP1 POP JUMP JUMPDEST PUSH0 JUMPDEST DUP4 DUP2 LT ISZERO PUSH2 0xBA0 JUMPI DUP1 DUP3 ADD MLOAD DUP2 DUP5 ADD MSTORE PUSH1 0x20 DUP2 ADD SWAP1 POP PUSH2 0xB85 JUMP JUMPDEST PUSH0 DUP5 DUP5 ADD MSTORE POP POP POP POP JUMP JUMPDEST PUSH0 PUSH2 0xBB5 DUP3 PUSH2 0xB79 JUMP JUMPDEST PUSH2 0xBBF DUP2 DUP6 PUSH2 0x855 JUMP JUMPDEST SWAP4 POP PUSH2 0xBCF DUP2 DUP6 PUSH1 0x20 DUP7 ADD PUSH2 0xB83 JUMP JUMPDEST PUSH2 0xBD8 DUP2 PUSH2 0x96A JUMP JUMPDEST DUP5 ADD SWAP2 POP POP SWAP3 SWAP2 POP POP JUMP JUMPDEST PUSH0 DUP2 ISZERO ISZERO SWAP1 POP SWAP2 SWAP1 POP JUMP JUMPDEST PUSH2 0xBF7 DUP2 PUSH2 0xBE3 JUMP JUMPDEST DUP3 MSTORE POP POP JUMP JUMPDEST PUSH0 PUSH1 0x80 DUP3 ADD SWAP1 POP PUSH2 0xC10 PUSH0 DUP4 ADD DUP8 PUSH2 0xB6A JUMP JUMPDEST DUP2 DUP2 SUB PUSH1 0x20 DUP4 ADD MSTORE PUSH2 0xC22 DUP2 DUP7 PUSH2 0xBAB JUMP JUMPDEST SWAP1 POP PUSH2 0xC31 PUSH1 0x40 DUP4 ADD DUP6 PUSH2 0xB6A JUMP JUMPDEST PUSH2 0xC3E PUSH1 0x60 DUP4 ADD DUP5 PUSH2 0xBEE JUMP JUMPDEST SWAP6 SWAP5 POP POP POP POP POP JUMP JUMPDEST PUSH0 PUSH1 0x20 DUP3 ADD SWAP1 POP PUSH2 0xC5A PUSH0 DUP4 ADD DUP5 PUSH2 0xB6A JUMP JUMPDEST SWAP3 SWAP2 POP POP JUMP JUMPDEST PUSH2 0xC69 DUP2 PUSH2 0xB04 JUMP JUMPDEST DUP3 MSTORE POP POP JUMP JUMPDEST PUSH0 PUSH1 0x20 DUP3 ADD SWAP1 POP PUSH2 0xC82 PUSH0 DUP4 ADD DUP5 PUSH2 0xC60 JUMP JUMPDEST SWAP3 SWAP2 POP POP JUMP JUMPDEST PUSH32 0x4E6F204163636F756E74206461746120666F756E642121212000000000000000 PUSH0 DUP3 ADD MSTORE POP JUMP JUMPDEST PUSH0 PUSH2 0xCBC PUSH1 0x19 DUP4 PUSH2 0x855 JUMP JUMPDEST SWAP2 POP PUSH2 0xCC7 DUP3 PUSH2 0xC88 JUMP JUMPDEST PUSH1 0x20 DUP3 ADD SWAP1 POP SWAP2 SWAP1 POP JUMP JUMPDEST PUSH0 PUSH1 0x20 DUP3 ADD SWAP1 POP DUP2 DUP2 SUB PUSH0 DUP4 ADD MSTORE PUSH2 0xCE9 DUP2 PUSH2 0xCB0 JUMP JUMPDEST SWAP1 POP SWAP2 SWAP1 POP JUMP JUMPDEST PUSH32 0x4E487B7100000000000000000000000000000000000000000000000000000000 PUSH0 MSTORE PUSH1 0x11 PUSH1 0x4 MSTORE PUSH1 0x24 PUSH0 REVERT JUMPDEST PUSH0 PUSH2 0xD27 DUP3 PUSH2 0x904 JUMP JUMPDEST SWAP2 POP PUSH2 0xD32 DUP4 PUSH2 0x904 JUMP JUMPDEST SWAP3 POP DUP3 DUP3 ADD SWAP1 POP DUP1 DUP3 GT ISZERO PUSH2 0xD4A JUMPI PUSH2 0xD49 PUSH2 0xCF0 JUMP JUMPDEST JUMPDEST SWAP3 SWAP2 POP POP JUMP JUMPDEST PUSH0 PUSH1 0x40 DUP3 ADD SWAP1 POP PUSH2 0xD63 PUSH0 DUP4 ADD DUP6 PUSH2 0xB6A JUMP JUMPDEST PUSH2 0xD70 PUSH1 0x20 DUP4 ADD DUP5 PUSH2 0xB6A JUMP JUMPDEST SWAP4 SWAP3 POP POP POP JUMP JUMPDEST PUSH32 0x596F752061726520747279696E6720746F207769746864726177206D6F6E6579 PUSH0 DUP3 ADD MSTORE PUSH32 0x20796F7520646F6E277420686176652121212000000000000000000000000000 PUSH1 0x20 DUP3 ADD MSTORE POP JUMP JUMPDEST PUSH0 PUSH2 0xDD1 PUSH1 0x33 DUP4 PUSH2 0x855 JUMP JUMPDEST SWAP2 POP PUSH2 0xDDC DUP3 PUSH2 0xD77 JUMP JUMPDEST PUSH1 0x40 DUP3 ADD SWAP1 POP SWAP2 SWAP1 POP JUMP JUMPDEST PUSH0 PUSH1 0x20 DUP3 ADD SWAP1 POP DUP2 DUP2 SUB PUSH0 DUP4 ADD MSTORE PUSH2 0xDFE DUP2 PUSH2 0xDC5 JUMP JUMPDEST SWAP1 POP SWAP2 SWAP1 POP JUMP JUMPDEST PUSH0 PUSH2 0xE0F DUP3 PUSH2 0x904 JUMP JUMPDEST SWAP2 POP PUSH2 0xE1A DUP4 PUSH2 0x904 JUMP JUMPDEST SWAP3 POP DUP3 DUP3 SUB SWAP1 POP DUP2 DUP2 GT ISZERO PUSH2 0xE32 JUMPI PUSH2 0xE31 PUSH2 0xCF0 JUMP JUMPDEST JUMPDEST SWAP3 SWAP2 POP POP JUMP JUMPDEST PUSH32 0x4163636F756E7420616C72656164792065786973747300000000000000000000 PUSH0 DUP3 ADD MSTORE POP JUMP JUMPDEST PUSH0 PUSH2 0xE6C PUSH1 0x16 DUP4 PUSH2 0x855 JUMP JUMPDEST SWAP2 POP PUSH2 0xE77 DUP3 PUSH2 0xE38 JUMP JUMPDEST PUSH1 0x20 DUP3 ADD SWAP1 POP SWAP2 SWAP1 POP JUMP JUMPDEST PUSH0 PUSH1 0x20 DUP3 ADD SWAP1 POP DUP2 DUP2 SUB PUSH0 DUP4 ADD MSTORE PUSH2 0xE99 DUP2 PUSH2 0xE60 JUMP JUMPDEST SWAP1 POP SWAP2 SWAP1 POP JUMP JUMPDEST PUSH32 0x4E487B7100000000000000000000000000000000000000000000000000000000 PUSH0 MSTORE PUSH1 0x22 PUSH1 0x4 MSTORE PUSH1 0x24 PUSH0 REVERT JUMPDEST PUSH0 PUSH1 0x2 DUP3 DIV SWAP1 POP PUSH1 0x1 DUP3 AND DUP1 PUSH2 0xEE4 JUMPI PUSH1 0x7F DUP3 AND SWAP2 POP JUMPDEST PUSH1 0x20 DUP3 LT DUP2 SUB PUSH2 0xEF7 JUMPI PUSH2 0xEF6 PUSH2 0xEA0 JUMP JUMPDEST JUMPDEST POP SWAP2 SWAP1 POP JUMP JUMPDEST PUSH0 DUP2 SWAP1 POP DUP2 PUSH0 MSTORE PUSH1 0x20 PUSH0 KECCAK256 SWAP1 POP SWAP2 SWAP1 POP JUMP JUMPDEST PUSH0 PUSH1 0x20 PUSH1 0x1F DUP4 ADD DIV SWAP1 POP SWAP2 SWAP1 POP JUMP JUMPDEST PUSH0 DUP3 DUP3 SHL SWAP1 POP SWAP3 SWAP2 POP POP JUMP JUMPDEST PUSH0 PUSH1 0x8 DUP4 MUL PUSH2 0xF59 PUSH32 0xFFFFFFFFFFFFFFFFFFFFFFFFFFFFFFFFFFFFFFFFFFFFFFFFFFFFFFFFFFFFFFFF DUP3 PUSH2 0xF1E JUMP JUMPDEST PUSH2 0xF63 DUP7 DUP4 PUSH2 0xF1E JUMP JUMPDEST SWAP6 POP DUP1 NOT DUP5 AND SWAP4 POP DUP1 DUP7 AND DUP5 OR SWAP3 POP POP POP SWAP4 SWAP3 POP POP POP JUMP JUMPDEST PUSH0 DUP2 SWAP1 POP SWAP2 SWAP1 POP JUMP JUMPDEST PUSH0 PUSH2 0xF9E PUSH2 0xF99 PUSH2 0xF94 DUP5 PUSH2 0x904 JUMP JUMPDEST PUSH2 0xF7B JUMP JUMPDEST PUSH2 0x904 JUMP JUMPDEST SWAP1 POP SWAP2 SWAP1 POP JUMP JUMPDEST PUSH0 DUP2 SWAP1 POP SWAP2 SWAP1 POP JUMP JUMPDEST PUSH2 0xFB7 DUP4 PUSH2 0xF84 JUMP JUMPDEST PUSH2 0xFCB PUSH2 0xFC3 DUP3 PUSH2 0xFA5 JUMP JUMPDEST DUP5 DUP5 SLOAD PUSH2 0xF2A JUMP JUMPDEST DUP3 SSTORE POP POP POP POP JUMP JUMPDEST PUSH0 SWAP1 JUMP JUMPDEST PUSH2 0xFDF PUSH2 0xFD3 JUMP JUMPDEST PUSH2 0xFEA DUP2 DUP5 DUP5 PUSH2 0xFAE JUMP JUMPDEST POP POP POP JUMP JUMPDEST JUMPDEST DUP2 DUP2 LT ISZERO PUSH2 0x100D JUMPI PUSH2 0x1002 PUSH0 DUP3 PUSH2 0xFD7 JUMP JUMPDEST PUSH1 0x1 DUP2 ADD SWAP1 POP PUSH2 0xFF0 JUMP JUMPDEST POP POP JUMP JUMPDEST PUSH1 0x1F DUP3 GT ISZERO PUSH2 0x1052 JUMPI PUSH2 0x1023 DUP2 PUSH2 0xEFD JUMP JUMPDEST PUSH2 0x102C DUP5 PUSH2 0xF0F JUMP JUMPDEST DUP2 ADD PUSH1 0x20 DUP6 LT ISZERO PUSH2 0x103B JUMPI DUP2 SWAP1 POP JUMPDEST PUSH2 0x104F PUSH2 0x1047 DUP6 PUSH2 0xF0F JUMP JUMPDEST DUP4 ADD DUP3 PUSH2 0xFEF JUMP JUMPDEST POP POP JUMPDEST POP POP POP JUMP JUMPDEST PUSH0 DUP3 DUP3 SHR SWAP1 POP SWAP3 SWAP2 POP POP JUMP JUMPDEST PUSH0 PUSH2 0x1072 PUSH0 NOT DUP5 PUSH1 0x8 MUL PUSH2 0x1057 JUMP JUMPDEST NOT DUP1 DUP4 AND SWAP2 POP POP SWAP3 SWAP2 POP POP JUMP JUMPDEST PUSH0 PUSH2 0x108A DUP4 DUP4 PUSH2 0x1063 JUMP JUMPDEST SWAP2 POP DUP3 PUSH1 0x2 MUL DUP3 OR SWAP1 POP SWAP3 SWAP2 POP POP JUMP JUMPDEST PUSH2 0x10A3 DUP3 PUSH2 0xB79 JUMP JUMPDEST PUSH8 0xFFFFFFFFFFFFFFFF DUP2 GT ISZERO PUSH2 0x10BC JUMPI PUSH2 0x10BB PUSH2 0x97A JUMP JUMPDEST JUMPDEST PUSH2 0x10C6 DUP3 SLOAD PUSH2 0xECD JUMP JUMPDEST PUSH2 0x10D1 DUP3 DUP3 DUP6 PUSH2 0x1011 JUMP JUMPDEST PUSH0 PUSH1 0x20 SWAP1 POP PUSH1 0x1F DUP4 GT PUSH1 0x1 DUP2 EQ PUSH2 0x1102 JUMPI PUSH0 DUP5 ISZERO PUSH2 0x10F0 JUMPI DUP3 DUP8 ADD MLOAD SWAP1 POP JUMPDEST PUSH2 0x10FA DUP6 DUP3 PUSH2 0x107F JUMP JUMPDEST DUP7 SSTORE POP PUSH2 0x1161 JUMP JUMPDEST PUSH1 0x1F NOT DUP5 AND PUSH2 0x1110 DUP7 PUSH2 0xEFD JUMP JUMPDEST PUSH0 JUMPDEST DUP3 DUP2 LT ISZERO PUSH2 0x1137 JUMPI DUP5 DUP10 ADD MLOAD DUP3 SSTORE PUSH1 0x1 DUP3 ADD SWAP2 POP PUSH1 0x20 DUP6 ADD SWAP5 POP PUSH1 0x20 DUP2 ADD SWAP1 POP PUSH2 0x1112 JUMP JUMPDEST DUP7 DUP4 LT ISZERO PUSH2 0x1154 JUMPI DUP5 DUP10 ADD MLOAD PUSH2 0x1150 PUSH1 0x1F DUP10 AND DUP3 PUSH2 0x1063 JUMP JUMPDEST DUP4 SSTORE POP JUMPDEST PUSH1 0x1 PUSH1 0x2 DUP9 MUL ADD DUP9 SSTORE POP POP POP JUMPDEST POP POP POP POP POP POP JUMP JUMPDEST PUSH0 DUP2 SWAP1 POP SWAP2 SWAP1 POP JUMP JUMPDEST PUSH0 PUSH2 0x118C PUSH2 0x1187 PUSH2 0x1182 DUP5 PUSH2 0x1169 JUMP JUMPDEST PUSH2 0xF7B JUMP JUMPDEST PUSH2 0x904 JUMP JUMPDEST SWAP1 POP SWAP2 SWAP1 POP JUMP JUMPDEST PUSH2 0x119C DUP2 PUSH2 0x1172 JUMP JUMPDEST DUP3 MSTORE POP POP JUMP JUMPDEST PUSH0 PUSH1 0x60 DUP3 ADD SWAP1 POP PUSH2 0x11B5 PUSH0 DUP4 ADD DUP7 PUSH2 0xB6A JUMP JUMPDEST DUP2 DUP2 SUB PUSH1 0x20 DUP4 ADD MSTORE PUSH2 0x11C7 DUP2 DUP6 PUSH2 0xBAB JUMP JUMPDEST SWAP1 POP PUSH2 0x11D6 PUSH1 0x40 DUP4 ADD DUP5 PUSH2 0x1193 JUMP JUMPDEST SWAP5 SWAP4 POP POP POP POP JUMP INVALID LOG2 PUSH5 0x6970667358 0x22 SLT KECCAK256 0xFB MOD SELFDESTRUCT 0xA6 DUP8 PUSH21 0x3668467F350A6646FD74086C02EF841B5CA8B51DE7 PUSH0 DUP15 0xFC PUSH0 0xBE PUSH5 0x736F6C6343 STOP ADDMOD AND STOP CALLER "
				},
				"gasEstimates": {
					"creation": {
						"codeDepositCost": "925600",
						"executionCost": "25225",
						"totalCost": "950825"
					},
					"external": {
						"AddMoney()": "infinite",
						"Cust_Withdraw(uint256)": "infinite",
						"GetCust_Balance()": "2569",
						"Map_cust(address)": "infinite",
						"NewAccount(string)": "infinite",
						"band_admin()": "2593"
					}
				},
				"methodIdentifiers": {
					"AddMoney()": "8e5771bb",
					"Cust_Withdraw(uint256)": "056eeb49",
					"GetCust_Balance()": "2bf6b806",
					"Map_cust(address)": "0b7d5609",
					"NewAccount(string)": "07a4b1ba",
					"band_admin()": "ea4638e7"
				}
			},
			"storageLayout": {
				"storage": [
					{
						"astId": 91,
						"contract": "contracts/Banking_System.sol:Bank_System",
						"label": "band_admin",
						"offset": 0,
						"slot": "0",
						"type": "t_address"
					},
					{
						"astId": 96,
						"contract": "contracts/Banking_System.sol:Bank_System",
						"label": "Map_cust",
						"offset": 0,
						"slot": "1",
						"type": "t_mapping(t_address,t_struct(Stc_Account)89_storage)"
					},
					{
						"astId": 99,
						"contract": "contracts/Banking_System.sol:Bank_System",
						"label": "_CurrentCustID",
						"offset": 0,
						"slot": "2",
						"type": "t_struct(Counter)5_storage"
					}
				],
				"types": {
					"t_address": {
						"encoding": "inplace",
						"label": "address",
						"numberOfBytes": "20"
					},
					"t_bool": {
						"encoding": "inplace",
						"label": "bool",
						"numberOfBytes": "1"
					},
					"t_mapping(t_address,t_struct(Stc_Account)89_storage)": {
						"encoding": "mapping",
						"key": "t_address",
						"label": "mapping(address => struct Bank_System.Stc_Account)",
						"numberOfBytes": "32",
						"value": "t_struct(Stc_Account)89_storage"
					},
					"t_string_storage": {
						"encoding": "bytes",
						"label": "string",
						"numberOfBytes": "32"
					},
					"t_struct(Counter)5_storage": {
						"encoding": "inplace",
						"label": "struct Counters.Counter",
						"members": [
							{
								"astId": 4,
								"contract": "contracts/Banking_System.sol:Bank_System",
								"label": "_value",
								"offset": 0,
								"slot": "0",
								"type": "t_uint256"
							}
						],
						"numberOfBytes": "32"
					},
					"t_struct(Stc_Account)89_storage": {
						"encoding": "inplace",
						"label": "struct Bank_System.Stc_Account",
						"members": [
							{
								"astId": 82,
								"contract": "contracts/Banking_System.sol:Bank_System",
								"label": "cust_id",
								"offset": 0,
								"slot": "0",
								"type": "t_uint256"
							},
							{
								"astId": 84,
								"contract": "contracts/Banking_System.sol:Bank_System",
								"label": "cust_name",
								"offset": 0,
								"slot": "1",
								"type": "t_string_storage"
							},
							{
								"astId": 86,
								"contract": "contracts/Banking_System.sol:Bank_System",
								"label": "cust_balance",
								"offset": 0,
								"slot": "2",
								"type": "t_uint256"
							},
							{
								"astId": 88,
								"contract": "contracts/Banking_System.sol:Bank_System",
								"label": "cust_state",
								"offset": 0,
								"slot": "3",
								"type": "t_bool"
							}
						],
						"numberOfBytes": "128"
					},
					"t_uint256": {
						"encoding": "inplace",
						"label": "uint256",
						"numberOfBytes": "32"
					}
				}
			},
			"userdoc": {
				"kind": "user",
				"methods": {},
				"version": 1
			}
		}
	}
}