{
	"contracts/Helper_Address_Lists.sol": {
		"AddressArrayUtils": {
			"abi": [
				{
					"inputs": [
						{
							"internalType": "address",
							"name": "userAddress",
							"type": "address"
						},
						{
							"internalType": "address[]",
							"name": "list",
							"type": "address[]"
						}
					],
					"name": "addressArrayItemExist",
					"outputs": [
						{
							"internalType": "bool",
							"name": "",
							"type": "bool"
						}
					],
					"stateMutability": "pure",
					"type": "function"
				}
			],
			"devdoc": {
				"kind": "dev",
				"methods": {},
				"version": 1
			},
			"evm": {
				"assembly": "    /* \"contracts/Helper_Address_Lists.sol\":75:493  library AddressArrayUtils ... */\n  dataSize(sub_0)\n  dataOffset(sub_0)\n  0x0b\n  dup3\n  dup3\n  dup3\n  codecopy\n  dup1\n  mload\n  0x00\n  byte\n  0x73\n  eq\n  tag_1\n  jumpi\n  mstore(0x00, 0x4e487b7100000000000000000000000000000000000000000000000000000000)\n  mstore(0x04, 0x00)\n  revert(0x00, 0x24)\ntag_1:\n  mstore(0x00, address)\n  0x73\n  dup2\n  mstore8\n  dup3\n  dup2\n  return\nstop\n\nsub_0: assembly {\n        /* \"contracts/Helper_Address_Lists.sol\":75:493  library AddressArrayUtils ... */\n      eq(address, deployTimeAddress())\n      mstore(0x40, 0x80)\n      jumpi(tag_1, lt(calldatasize, 0x04))\n      shr(0xe0, calldataload(0x00))\n      dup1\n      0x3b3eebf6\n      eq\n      tag_2\n      jumpi\n    tag_1:\n      0x00\n      dup1\n      revert\n        /* \"contracts/Helper_Address_Lists.sol\":110:490  function addressArrayItemExist(address userAddress, address[] memory list) external pure returns (bool) {... */\n    tag_2:\n      tag_3\n      0x04\n      dup1\n      calldatasize\n      sub\n      dup2\n      add\n      swap1\n      tag_4\n      swap2\n      swap1\n      tag_5\n      jump\t// in\n    tag_4:\n      tag_6\n      jump\t// in\n    tag_3:\n      mload(0x40)\n      tag_7\n      swap2\n      swap1\n      tag_8\n      jump\t// in\n    tag_7:\n      mload(0x40)\n      dup1\n      swap2\n      sub\n      swap1\n      return\n    tag_6:\n        /* \"contracts/Helper_Address_Lists.sol\":208:212  bool */\n      0x00\n        /* \"contracts/Helper_Address_Lists.sol\":256:257  0 */\n      dup1\n        /* \"contracts/Helper_Address_Lists.sol\":233:258  userAddress != address(0) */\n      0xffffffffffffffffffffffffffffffffffffffff\n      and\n        /* \"contracts/Helper_Address_Lists.sol\":233:244  userAddress */\n      dup4\n        /* \"contracts/Helper_Address_Lists.sol\":233:258  userAddress != address(0) */\n      0xffffffffffffffffffffffffffffffffffffffff\n      and\n      sub\n        /* \"contracts/Helper_Address_Lists.sol\":225:305  require(userAddress != address(0), \"Address should not be equal to 0x0 or null\") */\n      tag_10\n      jumpi\n      mload(0x40)\n      0x08c379a000000000000000000000000000000000000000000000000000000000\n      dup2\n      mstore\n      0x04\n      add\n      tag_11\n      swap1\n      tag_12\n      jump\t// in\n    tag_11:\n      mload(0x40)\n      dup1\n      swap2\n      sub\n      swap1\n      revert\n    tag_10:\n        /* \"contracts/Helper_Address_Lists.sol\":323:332  uint256 i */\n      0x00\n        /* \"contracts/Helper_Address_Lists.sol\":318:460  for (uint256 i = 0; i < list.length; i++) {... */\n    tag_13:\n        /* \"contracts/Helper_Address_Lists.sol\":342:346  list */\n      dup3\n        /* \"contracts/Helper_Address_Lists.sol\":342:353  list.length */\n      mload\n        /* \"contracts/Helper_Address_Lists.sol\":338:339  i */\n      dup2\n        /* \"contracts/Helper_Address_Lists.sol\":338:353  i < list.length */\n      lt\n        /* \"contracts/Helper_Address_Lists.sol\":318:460  for (uint256 i = 0; i < list.length; i++) {... */\n      iszero\n      tag_14\n      jumpi\n        /* \"contracts/Helper_Address_Lists.sol\":390:401  userAddress */\n      dup4\n        /* \"contracts/Helper_Address_Lists.sol\":379:401  list[i] == userAddress */\n      0xffffffffffffffffffffffffffffffffffffffff\n      and\n        /* \"contracts/Helper_Address_Lists.sol\":379:383  list */\n      dup4\n        /* \"contracts/Helper_Address_Lists.sol\":384:385  i */\n      dup3\n        /* \"contracts/Helper_Address_Lists.sol\":379:386  list[i] */\n      dup2\n      mload\n      dup2\n      lt\n      tag_16\n      jumpi\n      tag_17\n      tag_18\n      jump\t// in\n    tag_17:\n    tag_16:\n      0x20\n      mul\n      0x20\n      add\n      add\n      mload\n        /* \"contracts/Helper_Address_Lists.sol\":379:401  list[i] == userAddress */\n      0xffffffffffffffffffffffffffffffffffffffff\n      and\n      sub\n        /* \"contracts/Helper_Address_Lists.sol\":375:449  if (list[i] == userAddress) {... */\n      tag_19\n      jumpi\n        /* \"contracts/Helper_Address_Lists.sol\":429:433  true */\n      0x01\n        /* \"contracts/Helper_Address_Lists.sol\":422:433  return true */\n      swap2\n      pop\n      pop\n      jump(tag_9)\n        /* \"contracts/Helper_Address_Lists.sol\":375:449  if (list[i] == userAddress) {... */\n    tag_19:\n        /* \"contracts/Helper_Address_Lists.sol\":355:358  i++ */\n      dup1\n      dup1\n      0x01\n      add\n      swap2\n      pop\n      pop\n        /* \"contracts/Helper_Address_Lists.sol\":318:460  for (uint256 i = 0; i < list.length; i++) {... */\n      jump(tag_13)\n    tag_14:\n      pop\n        /* \"contracts/Helper_Address_Lists.sol\":477:482  false */\n      0x00\n        /* \"contracts/Helper_Address_Lists.sol\":470:482  return false */\n      swap1\n      pop\n        /* \"contracts/Helper_Address_Lists.sol\":110:490  function addressArrayItemExist(address userAddress, address[] memory list) external pure returns (bool) {... */\n    tag_9:\n      swap3\n      swap2\n      pop\n      pop\n      jump\t// out\n        /* \"#utility.yul\":7:82   */\n    tag_20:\n        /* \"#utility.yul\":40:46   */\n      0x00\n        /* \"#utility.yul\":73:75   */\n      0x40\n        /* \"#utility.yul\":67:76   */\n      mload\n        /* \"#utility.yul\":57:76   */\n      swap1\n      pop\n        /* \"#utility.yul\":7:82   */\n      swap1\n      jump\t// out\n        /* \"#utility.yul\":88:205   */\n    tag_21:\n        /* \"#utility.yul\":197:198   */\n      0x00\n        /* \"#utility.yul\":194:195   */\n      dup1\n        /* \"#utility.yul\":187:199   */\n      revert\n        /* \"#utility.yul\":211:328   */\n    tag_22:\n        /* \"#utility.yul\":320:321   */\n      0x00\n        /* \"#utility.yul\":317:318   */\n      dup1\n        /* \"#utility.yul\":310:322   */\n      revert\n        /* \"#utility.yul\":334:460   */\n    tag_23:\n        /* \"#utility.yul\":371:378   */\n      0x00\n        /* \"#utility.yul\":411:453   */\n      0xffffffffffffffffffffffffffffffffffffffff\n        /* \"#utility.yul\":404:409   */\n      dup3\n        /* \"#utility.yul\":400:454   */\n      and\n        /* \"#utility.yul\":389:454   */\n      swap1\n      pop\n        /* \"#utility.yul\":334:460   */\n      swap2\n      swap1\n      pop\n      jump\t// out\n        /* \"#utility.yul\":466:562   */\n    tag_24:\n        /* \"#utility.yul\":503:510   */\n      0x00\n        /* \"#utility.yul\":532:556   */\n      tag_47\n        /* \"#utility.yul\":550:555   */\n      dup3\n        /* \"#utility.yul\":532:556   */\n      tag_23\n      jump\t// in\n    tag_47:\n        /* \"#utility.yul\":521:556   */\n      swap1\n      pop\n        /* \"#utility.yul\":466:562   */\n      swap2\n      swap1\n      pop\n      jump\t// out\n        /* \"#utility.yul\":568:690   */\n    tag_25:\n        /* \"#utility.yul\":641:665   */\n      tag_49\n        /* \"#utility.yul\":659:664   */\n      dup2\n        /* \"#utility.yul\":641:665   */\n      tag_24\n      jump\t// in\n    tag_49:\n        /* \"#utility.yul\":634:639   */\n      dup2\n        /* \"#utility.yul\":631:666   */\n      eq\n        /* \"#utility.yul\":621:684   */\n      tag_50\n      jumpi\n        /* \"#utility.yul\":680:681   */\n      0x00\n        /* \"#utility.yul\":677:678   */\n      dup1\n        /* \"#utility.yul\":670:682   */\n      revert\n        /* \"#utility.yul\":621:684   */\n    tag_50:\n        /* \"#utility.yul\":568:690   */\n      pop\n      jump\t// out\n        /* \"#utility.yul\":696:835   */\n    tag_26:\n        /* \"#utility.yul\":742:747   */\n      0x00\n        /* \"#utility.yul\":780:786   */\n      dup2\n        /* \"#utility.yul\":767:787   */\n      calldataload\n        /* \"#utility.yul\":758:787   */\n      swap1\n      pop\n        /* \"#utility.yul\":796:829   */\n      tag_52\n        /* \"#utility.yul\":823:828   */\n      dup2\n        /* \"#utility.yul\":796:829   */\n      tag_25\n      jump\t// in\n    tag_52:\n        /* \"#utility.yul\":696:835   */\n      swap3\n      swap2\n      pop\n      pop\n      jump\t// out\n        /* \"#utility.yul\":841:958   */\n    tag_27:\n        /* \"#utility.yul\":950:951   */\n      0x00\n        /* \"#utility.yul\":947:948   */\n      dup1\n        /* \"#utility.yul\":940:952   */\n      revert\n        /* \"#utility.yul\":964:1066   */\n    tag_28:\n        /* \"#utility.yul\":1005:1011   */\n      0x00\n        /* \"#utility.yul\":1056:1058   */\n      0x1f\n        /* \"#utility.yul\":1052:1059   */\n      not\n        /* \"#utility.yul\":1047:1049   */\n      0x1f\n        /* \"#utility.yul\":1040:1045   */\n      dup4\n        /* \"#utility.yul\":1036:1050   */\n      add\n        /* \"#utility.yul\":1032:1060   */\n      and\n        /* \"#utility.yul\":1022:1060   */\n      swap1\n      pop\n        /* \"#utility.yul\":964:1066   */\n      swap2\n      swap1\n      pop\n      jump\t// out\n        /* \"#utility.yul\":1072:1252   */\n    tag_29:\n        /* \"#utility.yul\":1120:1197   */\n      0x4e487b7100000000000000000000000000000000000000000000000000000000\n        /* \"#utility.yul\":1117:1118   */\n      0x00\n        /* \"#utility.yul\":1110:1198   */\n      mstore\n        /* \"#utility.yul\":1217:1221   */\n      0x41\n        /* \"#utility.yul\":1214:1215   */\n      0x04\n        /* \"#utility.yul\":1207:1222   */\n      mstore\n        /* \"#utility.yul\":1241:1245   */\n      0x24\n        /* \"#utility.yul\":1238:1239   */\n      0x00\n        /* \"#utility.yul\":1231:1246   */\n      revert\n        /* \"#utility.yul\":1258:1539   */\n    tag_30:\n        /* \"#utility.yul\":1341:1368   */\n      tag_57\n        /* \"#utility.yul\":1363:1367   */\n      dup3\n        /* \"#utility.yul\":1341:1368   */\n      tag_28\n      jump\t// in\n    tag_57:\n        /* \"#utility.yul\":1333:1339   */\n      dup2\n        /* \"#utility.yul\":1329:1369   */\n      add\n        /* \"#utility.yul\":1471:1477   */\n      dup2\n        /* \"#utility.yul\":1459:1469   */\n      dup2\n        /* \"#utility.yul\":1456:1478   */\n      lt\n        /* \"#utility.yul\":1435:1453   */\n      0xffffffffffffffff\n        /* \"#utility.yul\":1423:1433   */\n      dup3\n        /* \"#utility.yul\":1420:1454   */\n      gt\n        /* \"#utility.yul\":1417:1479   */\n      or\n        /* \"#utility.yul\":1414:1502   */\n      iszero\n      tag_58\n      jumpi\n        /* \"#utility.yul\":1482:1500   */\n      tag_59\n      tag_29\n      jump\t// in\n    tag_59:\n        /* \"#utility.yul\":1414:1502   */\n    tag_58:\n        /* \"#utility.yul\":1522:1532   */\n      dup1\n        /* \"#utility.yul\":1518:1520   */\n      0x40\n        /* \"#utility.yul\":1511:1533   */\n      mstore\n        /* \"#utility.yul\":1301:1539   */\n      pop\n        /* \"#utility.yul\":1258:1539   */\n      pop\n      pop\n      jump\t// out\n        /* \"#utility.yul\":1545:1674   */\n    tag_31:\n        /* \"#utility.yul\":1579:1585   */\n      0x00\n        /* \"#utility.yul\":1606:1626   */\n      tag_61\n      tag_20\n      jump\t// in\n    tag_61:\n        /* \"#utility.yul\":1596:1626   */\n      swap1\n      pop\n        /* \"#utility.yul\":1635:1668   */\n      tag_62\n        /* \"#utility.yul\":1663:1667   */\n      dup3\n        /* \"#utility.yul\":1655:1661   */\n      dup3\n        /* \"#utility.yul\":1635:1668   */\n      tag_30\n      jump\t// in\n    tag_62:\n        /* \"#utility.yul\":1545:1674   */\n      swap2\n      swap1\n      pop\n      jump\t// out\n        /* \"#utility.yul\":1680:1991   */\n    tag_32:\n        /* \"#utility.yul\":1757:1761   */\n      0x00\n        /* \"#utility.yul\":1847:1865   */\n      0xffffffffffffffff\n        /* \"#utility.yul\":1839:1845   */\n      dup3\n        /* \"#utility.yul\":1836:1866   */\n      gt\n        /* \"#utility.yul\":1833:1889   */\n      iszero\n      tag_64\n      jumpi\n        /* \"#utility.yul\":1869:1887   */\n      tag_65\n      tag_29\n      jump\t// in\n    tag_65:\n        /* \"#utility.yul\":1833:1889   */\n    tag_64:\n        /* \"#utility.yul\":1919:1923   */\n      0x20\n        /* \"#utility.yul\":1911:1917   */\n      dup3\n        /* \"#utility.yul\":1907:1924   */\n      mul\n        /* \"#utility.yul\":1899:1924   */\n      swap1\n      pop\n        /* \"#utility.yul\":1979:1983   */\n      0x20\n        /* \"#utility.yul\":1973:1977   */\n      dup2\n        /* \"#utility.yul\":1969:1984   */\n      add\n        /* \"#utility.yul\":1961:1984   */\n      swap1\n      pop\n        /* \"#utility.yul\":1680:1991   */\n      swap2\n      swap1\n      pop\n      jump\t// out\n        /* \"#utility.yul\":1997:2114   */\n    tag_33:\n        /* \"#utility.yul\":2106:2107   */\n      0x00\n        /* \"#utility.yul\":2103:2104   */\n      dup1\n        /* \"#utility.yul\":2096:2108   */\n      revert\n        /* \"#utility.yul\":2137:2847   */\n    tag_34:\n        /* \"#utility.yul\":2233:2238   */\n      0x00\n        /* \"#utility.yul\":2258:2339   */\n      tag_68\n        /* \"#utility.yul\":2274:2338   */\n      tag_69\n        /* \"#utility.yul\":2331:2337   */\n      dup5\n        /* \"#utility.yul\":2274:2338   */\n      tag_32\n      jump\t// in\n    tag_69:\n        /* \"#utility.yul\":2258:2339   */\n      tag_31\n      jump\t// in\n    tag_68:\n        /* \"#utility.yul\":2249:2339   */\n      swap1\n      pop\n        /* \"#utility.yul\":2359:2364   */\n      dup1\n        /* \"#utility.yul\":2388:2394   */\n      dup4\n        /* \"#utility.yul\":2381:2386   */\n      dup3\n        /* \"#utility.yul\":2374:2395   */\n      mstore\n        /* \"#utility.yul\":2422:2426   */\n      0x20\n        /* \"#utility.yul\":2415:2420   */\n      dup3\n        /* \"#utility.yul\":2411:2427   */\n      add\n        /* \"#utility.yul\":2404:2427   */\n      swap1\n      pop\n        /* \"#utility.yul\":2475:2479   */\n      0x20\n        /* \"#utility.yul\":2467:2473   */\n      dup5\n        /* \"#utility.yul\":2463:2480   */\n      mul\n        /* \"#utility.yul\":2455:2461   */\n      dup4\n        /* \"#utility.yul\":2451:2481   */\n      add\n        /* \"#utility.yul\":2504:2507   */\n      dup6\n        /* \"#utility.yul\":2496:2502   */\n      dup2\n        /* \"#utility.yul\":2493:2508   */\n      gt\n        /* \"#utility.yul\":2490:2612   */\n      iszero\n      tag_70\n      jumpi\n        /* \"#utility.yul\":2523:2602   */\n      tag_71\n      tag_33\n      jump\t// in\n    tag_71:\n        /* \"#utility.yul\":2490:2612   */\n    tag_70:\n        /* \"#utility.yul\":2638:2644   */\n      dup4\n        /* \"#utility.yul\":2621:2841   */\n    tag_72:\n        /* \"#utility.yul\":2655:2661   */\n      dup2\n        /* \"#utility.yul\":2650:2653   */\n      dup2\n        /* \"#utility.yul\":2647:2662   */\n      lt\n        /* \"#utility.yul\":2621:2841   */\n      iszero\n      tag_74\n      jumpi\n        /* \"#utility.yul\":2730:2733   */\n      dup1\n        /* \"#utility.yul\":2759:2796   */\n      tag_75\n        /* \"#utility.yul\":2792:2795   */\n      dup9\n        /* \"#utility.yul\":2780:2790   */\n      dup3\n        /* \"#utility.yul\":2759:2796   */\n      tag_26\n      jump\t// in\n    tag_75:\n        /* \"#utility.yul\":2754:2757   */\n      dup5\n        /* \"#utility.yul\":2747:2797   */\n      mstore\n        /* \"#utility.yul\":2826:2830   */\n      0x20\n        /* \"#utility.yul\":2821:2824   */\n      dup5\n        /* \"#utility.yul\":2817:2831   */\n      add\n        /* \"#utility.yul\":2810:2831   */\n      swap4\n      pop\n        /* \"#utility.yul\":2697:2841   */\n      pop\n        /* \"#utility.yul\":2681:2685   */\n      0x20\n        /* \"#utility.yul\":2676:2679   */\n      dup2\n        /* \"#utility.yul\":2672:2686   */\n      add\n        /* \"#utility.yul\":2665:2686   */\n      swap1\n      pop\n        /* \"#utility.yul\":2621:2841   */\n      jump(tag_72)\n    tag_74:\n        /* \"#utility.yul\":2625:2646   */\n      pop\n        /* \"#utility.yul\":2239:2847   */\n      pop\n      pop\n        /* \"#utility.yul\":2137:2847   */\n      swap4\n      swap3\n      pop\n      pop\n      pop\n      jump\t// out\n        /* \"#utility.yul\":2870:3240   */\n    tag_35:\n        /* \"#utility.yul\":2941:2946   */\n      0x00\n        /* \"#utility.yul\":2990:2993   */\n      dup3\n        /* \"#utility.yul\":2983:2987   */\n      0x1f\n        /* \"#utility.yul\":2975:2981   */\n      dup4\n        /* \"#utility.yul\":2971:2988   */\n      add\n        /* \"#utility.yul\":2967:2994   */\n      slt\n        /* \"#utility.yul\":2957:3079   */\n      tag_77\n      jumpi\n        /* \"#utility.yul\":2998:3077   */\n      tag_78\n      tag_27\n      jump\t// in\n    tag_78:\n        /* \"#utility.yul\":2957:3079   */\n    tag_77:\n        /* \"#utility.yul\":3115:3121   */\n      dup2\n        /* \"#utility.yul\":3102:3122   */\n      calldataload\n        /* \"#utility.yul\":3140:3234   */\n      tag_79\n        /* \"#utility.yul\":3230:3233   */\n      dup5\n        /* \"#utility.yul\":3222:3228   */\n      dup3\n        /* \"#utility.yul\":3215:3219   */\n      0x20\n        /* \"#utility.yul\":3207:3213   */\n      dup7\n        /* \"#utility.yul\":3203:3220   */\n      add\n        /* \"#utility.yul\":3140:3234   */\n      tag_34\n      jump\t// in\n    tag_79:\n        /* \"#utility.yul\":3131:3234   */\n      swap2\n      pop\n        /* \"#utility.yul\":2947:3240   */\n      pop\n        /* \"#utility.yul\":2870:3240   */\n      swap3\n      swap2\n      pop\n      pop\n      jump\t// out\n        /* \"#utility.yul\":3246:3930   */\n    tag_5:\n        /* \"#utility.yul\":3339:3345   */\n      0x00\n        /* \"#utility.yul\":3347:3353   */\n      dup1\n        /* \"#utility.yul\":3396:3398   */\n      0x40\n        /* \"#utility.yul\":3384:3393   */\n      dup4\n        /* \"#utility.yul\":3375:3382   */\n      dup6\n        /* \"#utility.yul\":3371:3394   */\n      sub\n        /* \"#utility.yul\":3367:3399   */\n      slt\n        /* \"#utility.yul\":3364:3483   */\n      iszero\n      tag_81\n      jumpi\n        /* \"#utility.yul\":3402:3481   */\n      tag_82\n      tag_21\n      jump\t// in\n    tag_82:\n        /* \"#utility.yul\":3364:3483   */\n    tag_81:\n        /* \"#utility.yul\":3522:3523   */\n      0x00\n        /* \"#utility.yul\":3547:3600   */\n      tag_83\n        /* \"#utility.yul\":3592:3599   */\n      dup6\n        /* \"#utility.yul\":3583:3589   */\n      dup3\n        /* \"#utility.yul\":3572:3581   */\n      dup7\n        /* \"#utility.yul\":3568:3590   */\n      add\n        /* \"#utility.yul\":3547:3600   */\n      tag_26\n      jump\t// in\n    tag_83:\n        /* \"#utility.yul\":3537:3600   */\n      swap3\n      pop\n        /* \"#utility.yul\":3493:3610   */\n      pop\n        /* \"#utility.yul\":3677:3679   */\n      0x20\n        /* \"#utility.yul\":3666:3675   */\n      dup4\n        /* \"#utility.yul\":3662:3680   */\n      add\n        /* \"#utility.yul\":3649:3681   */\n      calldataload\n        /* \"#utility.yul\":3708:3726   */\n      0xffffffffffffffff\n        /* \"#utility.yul\":3700:3706   */\n      dup2\n        /* \"#utility.yul\":3697:3727   */\n      gt\n        /* \"#utility.yul\":3694:3811   */\n      iszero\n      tag_84\n      jumpi\n        /* \"#utility.yul\":3730:3809   */\n      tag_85\n      tag_22\n      jump\t// in\n    tag_85:\n        /* \"#utility.yul\":3694:3811   */\n    tag_84:\n        /* \"#utility.yul\":3835:3913   */\n      tag_86\n        /* \"#utility.yul\":3905:3912   */\n      dup6\n        /* \"#utility.yul\":3896:3902   */\n      dup3\n        /* \"#utility.yul\":3885:3894   */\n      dup7\n        /* \"#utility.yul\":3881:3903   */\n      add\n        /* \"#utility.yul\":3835:3913   */\n      tag_35\n      jump\t// in\n    tag_86:\n        /* \"#utility.yul\":3825:3913   */\n      swap2\n      pop\n        /* \"#utility.yul\":3620:3923   */\n      pop\n        /* \"#utility.yul\":3246:3930   */\n      swap3\n      pop\n      swap3\n      swap1\n      pop\n      jump\t// out\n        /* \"#utility.yul\":3936:4026   */\n    tag_36:\n        /* \"#utility.yul\":3970:3977   */\n      0x00\n        /* \"#utility.yul\":4013:4018   */\n      dup2\n        /* \"#utility.yul\":4006:4019   */\n      iszero\n        /* \"#utility.yul\":3999:4020   */\n      iszero\n        /* \"#utility.yul\":3988:4020   */\n      swap1\n      pop\n        /* \"#utility.yul\":3936:4026   */\n      swap2\n      swap1\n      pop\n      jump\t// out\n        /* \"#utility.yul\":4032:4149   */\n    tag_37:\n        /* \"#utility.yul\":4121:4142   */\n      tag_89\n        /* \"#utility.yul\":4136:4141   */\n      dup2\n        /* \"#utility.yul\":4121:4142   */\n      tag_36\n      jump\t// in\n    tag_89:\n        /* \"#utility.yul\":4116:4119   */\n      dup3\n        /* \"#utility.yul\":4109:4143   */\n      mstore\n        /* \"#utility.yul\":4032:4149   */\n      pop\n      pop\n      jump\t// out\n        /* \"#utility.yul\":4155:4381   */\n    tag_8:\n        /* \"#utility.yul\":4250:4254   */\n      0x00\n        /* \"#utility.yul\":4288:4290   */\n      0x20\n        /* \"#utility.yul\":4277:4286   */\n      dup3\n        /* \"#utility.yul\":4273:4291   */\n      add\n        /* \"#utility.yul\":4265:4291   */\n      swap1\n      pop\n        /* \"#utility.yul\":4301:4374   */\n      tag_91\n        /* \"#utility.yul\":4371:4372   */\n      0x00\n        /* \"#utility.yul\":4360:4369   */\n      dup4\n        /* \"#utility.yul\":4356:4373   */\n      add\n        /* \"#utility.yul\":4347:4353   */\n      dup5\n        /* \"#utility.yul\":4301:4374   */\n      tag_37\n      jump\t// in\n    tag_91:\n        /* \"#utility.yul\":4155:4381   */\n      swap3\n      swap2\n      pop\n      pop\n      jump\t// out\n        /* \"#utility.yul\":4387:4556   */\n    tag_38:\n        /* \"#utility.yul\":4471:4482   */\n      0x00\n        /* \"#utility.yul\":4505:4511   */\n      dup3\n        /* \"#utility.yul\":4500:4503   */\n      dup3\n        /* \"#utility.yul\":4493:4512   */\n      mstore\n        /* \"#utility.yul\":4545:4549   */\n      0x20\n        /* \"#utility.yul\":4540:4543   */\n      dup3\n        /* \"#utility.yul\":4536:4550   */\n      add\n        /* \"#utility.yul\":4521:4550   */\n      swap1\n      pop\n        /* \"#utility.yul\":4387:4556   */\n      swap3\n      swap2\n      pop\n      pop\n      jump\t// out\n        /* \"#utility.yul\":4562:4791   */\n    tag_39:\n        /* \"#utility.yul\":4702:4736   */\n      0x416464726573732073686f756c64206e6f7420626520657175616c20746f2030\n        /* \"#utility.yul\":4698:4699   */\n      0x00\n        /* \"#utility.yul\":4690:4696   */\n      dup3\n        /* \"#utility.yul\":4686:4700   */\n      add\n        /* \"#utility.yul\":4679:4737   */\n      mstore\n        /* \"#utility.yul\":4771:4783   */\n      0x7830206f72206e756c6c00000000000000000000000000000000000000000000\n        /* \"#utility.yul\":4766:4768   */\n      0x20\n        /* \"#utility.yul\":4758:4764   */\n      dup3\n        /* \"#utility.yul\":4754:4769   */\n      add\n        /* \"#utility.yul\":4747:4784   */\n      mstore\n        /* \"#utility.yul\":4562:4791   */\n      pop\n      jump\t// out\n        /* \"#utility.yul\":4797:5163   */\n    tag_40:\n        /* \"#utility.yul\":4939:4942   */\n      0x00\n        /* \"#utility.yul\":4960:5027   */\n      tag_95\n        /* \"#utility.yul\":5024:5026   */\n      0x2a\n        /* \"#utility.yul\":5019:5022   */\n      dup4\n        /* \"#utility.yul\":4960:5027   */\n      tag_38\n      jump\t// in\n    tag_95:\n        /* \"#utility.yul\":4953:5027   */\n      swap2\n      pop\n        /* \"#utility.yul\":5036:5129   */\n      tag_96\n        /* \"#utility.yul\":5125:5128   */\n      dup3\n        /* \"#utility.yul\":5036:5129   */\n      tag_39\n      jump\t// in\n    tag_96:\n        /* \"#utility.yul\":5154:5156   */\n      0x40\n        /* \"#utility.yul\":5149:5152   */\n      dup3\n        /* \"#utility.yul\":5145:5157   */\n      add\n        /* \"#utility.yul\":5138:5157   */\n      swap1\n      pop\n        /* \"#utility.yul\":4797:5163   */\n      swap2\n      swap1\n      pop\n      jump\t// out\n        /* \"#utility.yul\":5169:5588   */\n    tag_12:\n        /* \"#utility.yul\":5335:5339   */\n      0x00\n        /* \"#utility.yul\":5373:5375   */\n      0x20\n        /* \"#utility.yul\":5362:5371   */\n      dup3\n        /* \"#utility.yul\":5358:5376   */\n      add\n        /* \"#utility.yul\":5350:5376   */\n      swap1\n      pop\n        /* \"#utility.yul\":5422:5431   */\n      dup2\n        /* \"#utility.yul\":5416:5420   */\n      dup2\n        /* \"#utility.yul\":5412:5432   */\n      sub\n        /* \"#utility.yul\":5408:5409   */\n      0x00\n        /* \"#utility.yul\":5397:5406   */\n      dup4\n        /* \"#utility.yul\":5393:5410   */\n      add\n        /* \"#utility.yul\":5386:5433   */\n      mstore\n        /* \"#utility.yul\":5450:5581   */\n      tag_98\n        /* \"#utility.yul\":5576:5580   */\n      dup2\n        /* \"#utility.yul\":5450:5581   */\n      tag_40\n      jump\t// in\n    tag_98:\n        /* \"#utility.yul\":5442:5581   */\n      swap1\n      pop\n        /* \"#utility.yul\":5169:5588   */\n      swap2\n      swap1\n      pop\n      jump\t// out\n        /* \"#utility.yul\":5594:5774   */\n    tag_18:\n        /* \"#utility.yul\":5642:5719   */\n      0x4e487b7100000000000000000000000000000000000000000000000000000000\n        /* \"#utility.yul\":5639:5640   */\n      0x00\n        /* \"#utility.yul\":5632:5720   */\n      mstore\n        /* \"#utility.yul\":5739:5743   */\n      0x32\n        /* \"#utility.yul\":5736:5737   */\n      0x04\n        /* \"#utility.yul\":5729:5744   */\n      mstore\n        /* \"#utility.yul\":5763:5767   */\n      0x24\n        /* \"#utility.yul\":5760:5761   */\n      0x00\n        /* \"#utility.yul\":5753:5768   */\n      revert\n\n    auxdata: 0xa2646970667358221220e7d488288e7cec09778c2fda055fcfff067a8424e42216dd4756d45dcae2a48e64736f6c63430008160033\n}\n",
				"bytecode": {
					"linkReferences": {},
					"object": "61049a61004e600b8282823980515f1a607314610042577f4e487b71000000000000000000000000000000000000000000000000000000005f525f60045260245ffd5b305f52607381538281f3fe7300000000000000000000000000000000000000003014608060405260043610610034575f3560e01c80633b3eebf614610038575b5f80fd5b610052600480360381019061004d919061030c565b610068565b60405161005f9190610380565b60405180910390f35b5f8073ffffffffffffffffffffffffffffffffffffffff168373ffffffffffffffffffffffffffffffffffffffff16036100d7576040517f08c379a00000000000000000000000000000000000000000000000000000000081526004016100ce90610419565b60405180910390fd5b5f5b8251811015610146578373ffffffffffffffffffffffffffffffffffffffff1683828151811061010c5761010b610437565b5b602002602001015173ffffffffffffffffffffffffffffffffffffffff160361013957600191505061014b565b80806001019150506100d9565b505f90505b92915050565b5f604051905090565b5f80fd5b5f80fd5b5f73ffffffffffffffffffffffffffffffffffffffff82169050919050565b5f61018b82610162565b9050919050565b61019b81610181565b81146101a5575f80fd5b50565b5f813590506101b681610192565b92915050565b5f80fd5b5f601f19601f8301169050919050565b7f4e487b71000000000000000000000000000000000000000000000000000000005f52604160045260245ffd5b610206826101c0565b810181811067ffffffffffffffff82111715610225576102246101d0565b5b80604052505050565b5f610237610151565b905061024382826101fd565b919050565b5f67ffffffffffffffff821115610262576102616101d0565b5b602082029050602081019050919050565b5f80fd5b5f61028961028484610248565b61022e565b905080838252602082019050602084028301858111156102ac576102ab610273565b5b835b818110156102d557806102c188826101a8565b8452602084019350506020810190506102ae565b5050509392505050565b5f82601f8301126102f3576102f26101bc565b5b8135610303848260208601610277565b91505092915050565b5f80604083850312156103225761032161015a565b5b5f61032f858286016101a8565b925050602083013567ffffffffffffffff8111156103505761034f61015e565b5b61035c858286016102df565b9150509250929050565b5f8115159050919050565b61037a81610366565b82525050565b5f6020820190506103935f830184610371565b92915050565b5f82825260208201905092915050565b7f416464726573732073686f756c64206e6f7420626520657175616c20746f20305f8201527f7830206f72206e756c6c00000000000000000000000000000000000000000000602082015250565b5f610403602a83610399565b915061040e826103a9565b604082019050919050565b5f6020820190508181035f830152610430816103f7565b9050919050565b7f4e487b71000000000000000000000000000000000000000000000000000000005f52603260045260245ffdfea2646970667358221220e7d488288e7cec09778c2fda055fcfff067a8424e42216dd4756d45dcae2a48e64736f6c63430008160033",
					"opcodes": "PUSH2 0x49A PUSH2 0x4E PUSH1 0xB DUP3 DUP3 DUP3 CODECOPY DUP1 MLOAD PUSH0 BYTE PUSH1 0x73 EQ PUSH2 0x42 JUMPI PUSH32 0x4E487B7100000000000000000000000000000000000000000000000000000000 PUSH0 MSTORE PUSH0 PUSH1 0x4 MSTORE PUSH1 0x24 PUSH0 REVERT JUMPDEST ADDRESS PUSH0 MSTORE PUSH1 0x73 DUP2 MSTORE8 DUP3 DUP2 RETURN INVALID PUSH20 0x0 ADDRESS EQ PUSH1 0x80 PUSH1 0x40 MSTORE PUSH1 0x4 CALLDATASIZE LT PUSH2 0x34 JUMPI PUSH0 CALLDATALOAD PUSH1 0xE0 SHR DUP1 PUSH4 0x3B3EEBF6 EQ PUSH2 0x38 JUMPI JUMPDEST PUSH0 DUP1 REVERT JUMPDEST PUSH2 0x52 PUSH1 0x4 DUP1 CALLDATASIZE SUB DUP2 ADD SWAP1 PUSH2 0x4D SWAP2 SWAP1 PUSH2 0x30C JUMP JUMPDEST PUSH2 0x68 JUMP JUMPDEST PUSH1 0x40 MLOAD PUSH2 0x5F SWAP2 SWAP1 PUSH2 0x380 JUMP JUMPDEST PUSH1 0x40 MLOAD DUP1 SWAP2 SUB SWAP1 RETURN JUMPDEST PUSH0 DUP1 PUSH20 0xFFFFFFFFFFFFFFFFFFFFFFFFFFFFFFFFFFFFFFFF AND DUP4 PUSH20 0xFFFFFFFFFFFFFFFFFFFFFFFFFFFFFFFFFFFFFFFF AND SUB PUSH2 0xD7 JUMPI PUSH1 0x40 MLOAD PUSH32 0x8C379A000000000000000000000000000000000000000000000000000000000 DUP2 MSTORE PUSH1 0x4 ADD PUSH2 0xCE SWAP1 PUSH2 0x419 JUMP JUMPDEST PUSH1 0x40 MLOAD DUP1 SWAP2 SUB SWAP1 REVERT JUMPDEST PUSH0 JUMPDEST DUP3 MLOAD DUP2 LT ISZERO PUSH2 0x146 JUMPI DUP4 PUSH20 0xFFFFFFFFFFFFFFFFFFFFFFFFFFFFFFFFFFFFFFFF AND DUP4 DUP3 DUP2 MLOAD DUP2 LT PUSH2 0x10C JUMPI PUSH2 0x10B PUSH2 0x437 JUMP JUMPDEST JUMPDEST PUSH1 0x20 MUL PUSH1 0x20 ADD ADD MLOAD PUSH20 0xFFFFFFFFFFFFFFFFFFFFFFFFFFFFFFFFFFFFFFFF AND SUB PUSH2 0x139 JUMPI PUSH1 0x1 SWAP2 POP POP PUSH2 0x14B JUMP JUMPDEST DUP1 DUP1 PUSH1 0x1 ADD SWAP2 POP POP PUSH2 0xD9 JUMP JUMPDEST POP PUSH0 SWAP1 POP JUMPDEST SWAP3 SWAP2 POP POP JUMP JUMPDEST PUSH0 PUSH1 0x40 MLOAD SWAP1 POP SWAP1 JUMP JUMPDEST PUSH0 DUP1 REVERT JUMPDEST PUSH0 DUP1 REVERT JUMPDEST PUSH0 PUSH20 0xFFFFFFFFFFFFFFFFFFFFFFFFFFFFFFFFFFFFFFFF DUP3 AND SWAP1 POP SWAP2 SWAP1 POP JUMP JUMPDEST PUSH0 PUSH2 0x18B DUP3 PUSH2 0x162 JUMP JUMPDEST SWAP1 POP SWAP2 SWAP1 POP JUMP JUMPDEST PUSH2 0x19B DUP2 PUSH2 0x181 JUMP JUMPDEST DUP2 EQ PUSH2 0x1A5 JUMPI PUSH0 DUP1 REVERT JUMPDEST POP JUMP JUMPDEST PUSH0 DUP2 CALLDATALOAD SWAP1 POP PUSH2 0x1B6 DUP2 PUSH2 0x192 JUMP JUMPDEST SWAP3 SWAP2 POP POP JUMP JUMPDEST PUSH0 DUP1 REVERT JUMPDEST PUSH0 PUSH1 0x1F NOT PUSH1 0x1F DUP4 ADD AND SWAP1 POP SWAP2 SWAP1 POP JUMP JUMPDEST PUSH32 0x4E487B7100000000000000000000000000000000000000000000000000000000 PUSH0 MSTORE PUSH1 0x41 PUSH1 0x4 MSTORE PUSH1 0x24 PUSH0 REVERT JUMPDEST PUSH2 0x206 DUP3 PUSH2 0x1C0 JUMP JUMPDEST DUP2 ADD DUP2 DUP2 LT PUSH8 0xFFFFFFFFFFFFFFFF DUP3 GT OR ISZERO PUSH2 0x225 JUMPI PUSH2 0x224 PUSH2 0x1D0 JUMP JUMPDEST JUMPDEST DUP1 PUSH1 0x40 MSTORE POP POP POP JUMP JUMPDEST PUSH0 PUSH2 0x237 PUSH2 0x151 JUMP JUMPDEST SWAP1 POP PUSH2 0x243 DUP3 DUP3 PUSH2 0x1FD JUMP JUMPDEST SWAP2 SWAP1 POP JUMP JUMPDEST PUSH0 PUSH8 0xFFFFFFFFFFFFFFFF DUP3 GT ISZERO PUSH2 0x262 JUMPI PUSH2 0x261 PUSH2 0x1D0 JUMP JUMPDEST JUMPDEST PUSH1 0x20 DUP3 MUL SWAP1 POP PUSH1 0x20 DUP2 ADD SWAP1 POP SWAP2 SWAP1 POP JUMP JUMPDEST PUSH0 DUP1 REVERT JUMPDEST PUSH0 PUSH2 0x289 PUSH2 0x284 DUP5 PUSH2 0x248 JUMP JUMPDEST PUSH2 0x22E JUMP JUMPDEST SWAP1 POP DUP1 DUP4 DUP3 MSTORE PUSH1 0x20 DUP3 ADD SWAP1 POP PUSH1 0x20 DUP5 MUL DUP4 ADD DUP6 DUP2 GT ISZERO PUSH2 0x2AC JUMPI PUSH2 0x2AB PUSH2 0x273 JUMP JUMPDEST JUMPDEST DUP4 JUMPDEST DUP2 DUP2 LT ISZERO PUSH2 0x2D5 JUMPI DUP1 PUSH2 0x2C1 DUP9 DUP3 PUSH2 0x1A8 JUMP JUMPDEST DUP5 MSTORE PUSH1 0x20 DUP5 ADD SWAP4 POP POP PUSH1 0x20 DUP2 ADD SWAP1 POP PUSH2 0x2AE JUMP JUMPDEST POP POP POP SWAP4 SWAP3 POP POP POP JUMP JUMPDEST PUSH0 DUP3 PUSH1 0x1F DUP4 ADD SLT PUSH2 0x2F3 JUMPI PUSH2 0x2F2 PUSH2 0x1BC JUMP JUMPDEST JUMPDEST DUP2 CALLDATALOAD PUSH2 0x303 DUP5 DUP3 PUSH1 0x20 DUP7 ADD PUSH2 0x277 JUMP JUMPDEST SWAP2 POP POP SWAP3 SWAP2 POP POP JUMP JUMPDEST PUSH0 DUP1 PUSH1 0x40 DUP4 DUP6 SUB SLT ISZERO PUSH2 0x322 JUMPI PUSH2 0x321 PUSH2 0x15A JUMP JUMPDEST JUMPDEST PUSH0 PUSH2 0x32F DUP6 DUP3 DUP7 ADD PUSH2 0x1A8 JUMP JUMPDEST SWAP3 POP POP PUSH1 0x20 DUP4 ADD CALLDATALOAD PUSH8 0xFFFFFFFFFFFFFFFF DUP2 GT ISZERO PUSH2 0x350 JUMPI PUSH2 0x34F PUSH2 0x15E JUMP JUMPDEST JUMPDEST PUSH2 0x35C DUP6 DUP3 DUP7 ADD PUSH2 0x2DF JUMP JUMPDEST SWAP2 POP POP SWAP3 POP SWAP3 SWAP1 POP JUMP JUMPDEST PUSH0 DUP2 ISZERO ISZERO SWAP1 POP SWAP2 SWAP1 POP JUMP JUMPDEST PUSH2 0x37A DUP2 PUSH2 0x366 JUMP JUMPDEST DUP3 MSTORE POP POP JUMP JUMPDEST PUSH0 PUSH1 0x20 DUP3 ADD SWAP1 POP PUSH2 0x393 PUSH0 DUP4 ADD DUP5 PUSH2 0x371 JUMP JUMPDEST SWAP3 SWAP2 POP POP JUMP JUMPDEST PUSH0 DUP3 DUP3 MSTORE PUSH1 0x20 DUP3 ADD SWAP1 POP SWAP3 SWAP2 POP POP JUMP JUMPDEST PUSH32 0x416464726573732073686F756C64206E6F7420626520657175616C20746F2030 PUSH0 DUP3 ADD MSTORE PUSH32 0x7830206F72206E756C6C00000000000000000000000000000000000000000000 PUSH1 0x20 DUP3 ADD MSTORE POP JUMP JUMPDEST PUSH0 PUSH2 0x403 PUSH1 0x2A DUP4 PUSH2 0x399 JUMP JUMPDEST SWAP2 POP PUSH2 0x40E DUP3 PUSH2 0x3A9 JUMP JUMPDEST PUSH1 0x40 DUP3 ADD SWAP1 POP SWAP2 SWAP1 POP JUMP JUMPDEST PUSH0 PUSH1 0x20 DUP3 ADD SWAP1 POP DUP2 DUP2 SUB PUSH0 DUP4 ADD MSTORE PUSH2 0x430 DUP2 PUSH2 0x3F7 JUMP JUMPDEST SWAP1 POP SWAP2 SWAP1 POP JUMP JUMPDEST PUSH32 0x4E487B7100000000000000000000000000000000000000000000000000000000 PUSH0 MSTORE PUSH1 0x32 PUSH1 0x4 MSTORE PUSH1 0x24 PUSH0 REVERT INVALID LOG2 PUSH5 0x6970667358 0x22 SLT KECCAK256 0xE7 0xD4 DUP9 0x28 DUP15 PUSH29 0xEC09778C2FDA055FCFFF067A8424E42216DD4756D45DCAE2A48E64736F PUSH13 0x63430008160033000000000000 "
				},
				"gasEstimates": {
					"creation": {
						"codeDepositCost": "235600",
						"executionCost": "301",
						"totalCost": "235901"
					},
					"external": {
						"addressArrayItemExist(address,address[])": "infinite"
					}
				},
				"methodIdentifiers": {
					"addressArrayItemExist(address,address[])": "3b3eebf6"
				}
			},
			"storageLayout": {
				"storage": [],
				"types": null
			},
			"userdoc": {
				"kind": "user",
				"methods": {},
				"version": 1
			}
		}
	}
}