{
	"contracts/changeString.sol": {
		"testcontract": {
			"abi": [
				{
					"inputs": [
						{
							"internalType": "uint256",
							"name": "",
							"type": "uint256"
						}
					],
					"name": "AdminsAdresses",
					"outputs": [
						{
							"internalType": "address",
							"name": "",
							"type": "address"
						}
					],
					"stateMutability": "view",
					"type": "function"
				},
				{
					"inputs": [
						{
							"internalType": "string",
							"name": "inputName",
							"type": "string"
						}
					],
					"name": "changeMyName",
					"outputs": [
						{
							"internalType": "string",
							"name": "",
							"type": "string"
						}
					],
					"stateMutability": "nonpayable",
					"type": "function"
				},
				{
					"inputs": [],
					"name": "myName",
					"outputs": [
						{
							"internalType": "string",
							"name": "",
							"type": "string"
						}
					],
					"stateMutability": "view",
					"type": "function"
				}
			],
			"devdoc": {
				"kind": "dev",
				"methods": {},
				"version": 1
			},
			"evm": {
				"assembly": "    /* \"contracts/changeString.sol\":74:560  contract testcontract {... */\n  mstore(0x40, 0x80)\n    /* \"contracts/changeString.sol\":105:145  string public myName=\"I Love Blockchain\" */\n  mload(0x40)\n  dup1\n  0x40\n  add\n  0x40\n  mstore\n  dup1\n  0x11\n  dup2\n  mstore\n  0x20\n  add\n  0x49204c6f766520426c6f636b636861696e000000000000000000000000000000\n  dup2\n  mstore\n  pop\n  0x00\n  swap1\n  dup2\n  tag_1\n  swap2\n  swap1\n  tag_2\n  jump\t// in\ntag_1:\n  pop\n    /* \"contracts/changeString.sol\":154:408  address [] public AdminsAdresses = [0x3F486A757f46f5fd90889105235C0f6A99B40F51,0xAb8483F64d9C6d1EcF9b849Ae677dD3315835cb2, 0x5c6B0f7Bf3E7ce046039Bd8FABdfD3f9F5021678, 0xdD870fA1b7C4700F2BD7f44238821C26f7392148, 0x17F6AD8Ef982297579C203069C1DbfFE4348c372] */\n  mload(0x40)\n  dup1\n  0xa0\n  add\n  0x40\n  mstore\n  dup1\n    /* \"contracts/changeString.sol\":190:232  0x3F486A757f46f5fd90889105235C0f6A99B40F51 */\n  0x3f486a757f46f5fd90889105235c0f6a99b40f51\n    /* \"contracts/changeString.sol\":154:408  address [] public AdminsAdresses = [0x3F486A757f46f5fd90889105235C0f6A99B40F51,0xAb8483F64d9C6d1EcF9b849Ae677dD3315835cb2, 0x5c6B0f7Bf3E7ce046039Bd8FABdfD3f9F5021678, 0xdD870fA1b7C4700F2BD7f44238821C26f7392148, 0x17F6AD8Ef982297579C203069C1DbfFE4348c372] */\n  0xffffffffffffffffffffffffffffffffffffffff\n  and\n  0xffffffffffffffffffffffffffffffffffffffff\n  and\n  dup2\n  mstore\n  0x20\n  add\n    /* \"contracts/changeString.sol\":233:275  0xAb8483F64d9C6d1EcF9b849Ae677dD3315835cb2 */\n  0xab8483f64d9c6d1ecf9b849ae677dd3315835cb2\n    /* \"contracts/changeString.sol\":154:408  address [] public AdminsAdresses = [0x3F486A757f46f5fd90889105235C0f6A99B40F51,0xAb8483F64d9C6d1EcF9b849Ae677dD3315835cb2, 0x5c6B0f7Bf3E7ce046039Bd8FABdfD3f9F5021678, 0xdD870fA1b7C4700F2BD7f44238821C26f7392148, 0x17F6AD8Ef982297579C203069C1DbfFE4348c372] */\n  0xffffffffffffffffffffffffffffffffffffffff\n  and\n  0xffffffffffffffffffffffffffffffffffffffff\n  and\n  dup2\n  mstore\n  0x20\n  add\n    /* \"contracts/changeString.sol\":277:319  0x5c6B0f7Bf3E7ce046039Bd8FABdfD3f9F5021678 */\n  0x5c6b0f7bf3e7ce046039bd8fabdfd3f9f5021678\n    /* \"contracts/changeString.sol\":154:408  address [] public AdminsAdresses = [0x3F486A757f46f5fd90889105235C0f6A99B40F51,0xAb8483F64d9C6d1EcF9b849Ae677dD3315835cb2, 0x5c6B0f7Bf3E7ce046039Bd8FABdfD3f9F5021678, 0xdD870fA1b7C4700F2BD7f44238821C26f7392148, 0x17F6AD8Ef982297579C203069C1DbfFE4348c372] */\n  0xffffffffffffffffffffffffffffffffffffffff\n  and\n  0xffffffffffffffffffffffffffffffffffffffff\n  and\n  dup2\n  mstore\n  0x20\n  add\n    /* \"contracts/changeString.sol\":321:363  0xdD870fA1b7C4700F2BD7f44238821C26f7392148 */\n  0xdd870fa1b7c4700f2bd7f44238821c26f7392148\n    /* \"contracts/changeString.sol\":154:408  address [] public AdminsAdresses = [0x3F486A757f46f5fd90889105235C0f6A99B40F51,0xAb8483F64d9C6d1EcF9b849Ae677dD3315835cb2, 0x5c6B0f7Bf3E7ce046039Bd8FABdfD3f9F5021678, 0xdD870fA1b7C4700F2BD7f44238821C26f7392148, 0x17F6AD8Ef982297579C203069C1DbfFE4348c372] */\n  0xffffffffffffffffffffffffffffffffffffffff\n  and\n  0xffffffffffffffffffffffffffffffffffffffff\n  and\n  dup2\n  mstore\n  0x20\n  add\n    /* \"contracts/changeString.sol\":365:407  0x17F6AD8Ef982297579C203069C1DbfFE4348c372 */\n  0x17f6ad8ef982297579c203069c1dbffe4348c372\n    /* \"contracts/changeString.sol\":154:408  address [] public AdminsAdresses = [0x3F486A757f46f5fd90889105235C0f6A99B40F51,0xAb8483F64d9C6d1EcF9b849Ae677dD3315835cb2, 0x5c6B0f7Bf3E7ce046039Bd8FABdfD3f9F5021678, 0xdD870fA1b7C4700F2BD7f44238821C26f7392148, 0x17F6AD8Ef982297579C203069C1DbfFE4348c372] */\n  0xffffffffffffffffffffffffffffffffffffffff\n  and\n  0xffffffffffffffffffffffffffffffffffffffff\n  and\n  dup2\n  mstore\n  pop\n  0x01\n  swap1\n  0x05\n  tag_3\n  swap3\n  swap2\n  swap1\n  tag_4\n  jump\t// in\ntag_3:\n  pop\n    /* \"contracts/changeString.sol\":74:560  contract testcontract {... */\n  callvalue\n  dup1\n  iszero\n  tag_5\n  jumpi\n  0x00\n  dup1\n  revert\ntag_5:\n  pop\n  jump(tag_6)\ntag_4:\n  dup3\n  dup1\n  sload\n  dup3\n  dup3\n  sstore\n  swap1\n  0x00\n  mstore\n  keccak256(0x00, 0x20)\n  swap1\n  dup2\n  add\n  swap3\n  dup3\n  iszero\n  tag_7\n  jumpi\n  swap2\n  0x20\n  mul\n  dup3\n  add\ntag_8:\n  dup3\n  dup2\n  gt\n  iszero\n  tag_9\n  jumpi\n  dup3\n  mload\n  dup3\n  exp(0x0100, 0x00)\n  dup2\n  sload\n  dup2\n  0xffffffffffffffffffffffffffffffffffffffff\n  mul\n  not\n  and\n  swap1\n  dup4\n  0xffffffffffffffffffffffffffffffffffffffff\n  and\n  mul\n  or\n  swap1\n  sstore\n  pop\n  swap2\n  0x20\n  add\n  swap2\n  swap1\n  0x01\n  add\n  swap1\n  jump(tag_8)\ntag_9:\ntag_7:\n  pop\n  swap1\n  pop\n  tag_10\n  swap2\n  swap1\n  tag_11\n  jump\t// in\ntag_10:\n  pop\n  swap1\n  jump\t// out\ntag_11:\ntag_12:\n  dup1\n  dup3\n  gt\n  iszero\n  tag_13\n  jumpi\n  0x00\n  dup2\n  0x00\n  swap1\n  sstore\n  pop\n  0x01\n  add\n  jump(tag_12)\ntag_13:\n  pop\n  swap1\n  jump\t// out\n    /* \"#utility.yul\":7:106   */\ntag_14:\n    /* \"#utility.yul\":59:65   */\n  0x00\n    /* \"#utility.yul\":93:98   */\n  dup2\n    /* \"#utility.yul\":87:99   */\n  mload\n    /* \"#utility.yul\":77:99   */\n  swap1\n  pop\n    /* \"#utility.yul\":7:106   */\n  swap2\n  swap1\n  pop\n  jump\t// out\n    /* \"#utility.yul\":112:292   */\ntag_15:\n    /* \"#utility.yul\":160:237   */\n  0x4e487b7100000000000000000000000000000000000000000000000000000000\n    /* \"#utility.yul\":157:158   */\n  0x00\n    /* \"#utility.yul\":150:238   */\n  mstore\n    /* \"#utility.yul\":257:261   */\n  0x41\n    /* \"#utility.yul\":254:255   */\n  0x04\n    /* \"#utility.yul\":247:262   */\n  mstore\n    /* \"#utility.yul\":281:285   */\n  0x24\n    /* \"#utility.yul\":278:279   */\n  0x00\n    /* \"#utility.yul\":271:286   */\n  revert\n    /* \"#utility.yul\":298:478   */\ntag_16:\n    /* \"#utility.yul\":346:423   */\n  0x4e487b7100000000000000000000000000000000000000000000000000000000\n    /* \"#utility.yul\":343:344   */\n  0x00\n    /* \"#utility.yul\":336:424   */\n  mstore\n    /* \"#utility.yul\":443:447   */\n  0x22\n    /* \"#utility.yul\":440:441   */\n  0x04\n    /* \"#utility.yul\":433:448   */\n  mstore\n    /* \"#utility.yul\":467:471   */\n  0x24\n    /* \"#utility.yul\":464:465   */\n  0x00\n    /* \"#utility.yul\":457:472   */\n  revert\n    /* \"#utility.yul\":484:804   */\ntag_17:\n    /* \"#utility.yul\":528:534   */\n  0x00\n    /* \"#utility.yul\":565:566   */\n  0x02\n    /* \"#utility.yul\":559:563   */\n  dup3\n    /* \"#utility.yul\":555:567   */\n  div\n    /* \"#utility.yul\":545:567   */\n  swap1\n  pop\n    /* \"#utility.yul\":612:613   */\n  0x01\n    /* \"#utility.yul\":606:610   */\n  dup3\n    /* \"#utility.yul\":602:614   */\n  and\n    /* \"#utility.yul\":633:651   */\n  dup1\n    /* \"#utility.yul\":623:704   */\n  tag_39\n  jumpi\n    /* \"#utility.yul\":689:693   */\n  0x7f\n    /* \"#utility.yul\":681:687   */\n  dup3\n    /* \"#utility.yul\":677:694   */\n  and\n    /* \"#utility.yul\":667:694   */\n  swap2\n  pop\n    /* \"#utility.yul\":623:704   */\ntag_39:\n    /* \"#utility.yul\":751:753   */\n  0x20\n    /* \"#utility.yul\":743:749   */\n  dup3\n    /* \"#utility.yul\":740:754   */\n  lt\n    /* \"#utility.yul\":720:738   */\n  dup2\n    /* \"#utility.yul\":717:755   */\n  sub\n    /* \"#utility.yul\":714:798   */\n  tag_40\n  jumpi\n    /* \"#utility.yul\":770:788   */\n  tag_41\n  tag_16\n  jump\t// in\ntag_41:\n    /* \"#utility.yul\":714:798   */\ntag_40:\n    /* \"#utility.yul\":535:804   */\n  pop\n    /* \"#utility.yul\":484:804   */\n  swap2\n  swap1\n  pop\n  jump\t// out\n    /* \"#utility.yul\":810:951   */\ntag_18:\n    /* \"#utility.yul\":859:863   */\n  0x00\n    /* \"#utility.yul\":882:885   */\n  dup2\n    /* \"#utility.yul\":874:885   */\n  swap1\n  pop\n    /* \"#utility.yul\":905:908   */\n  dup2\n    /* \"#utility.yul\":902:903   */\n  0x00\n    /* \"#utility.yul\":895:909   */\n  mstore\n    /* \"#utility.yul\":939:943   */\n  0x20\n    /* \"#utility.yul\":936:937   */\n  0x00\n    /* \"#utility.yul\":926:944   */\n  keccak256\n    /* \"#utility.yul\":918:944   */\n  swap1\n  pop\n    /* \"#utility.yul\":810:951   */\n  swap2\n  swap1\n  pop\n  jump\t// out\n    /* \"#utility.yul\":957:1050   */\ntag_19:\n    /* \"#utility.yul\":994:1000   */\n  0x00\n    /* \"#utility.yul\":1041:1043   */\n  0x20\n    /* \"#utility.yul\":1036:1038   */\n  0x1f\n    /* \"#utility.yul\":1029:1034   */\n  dup4\n    /* \"#utility.yul\":1025:1039   */\n  add\n    /* \"#utility.yul\":1021:1044   */\n  div\n    /* \"#utility.yul\":1011:1044   */\n  swap1\n  pop\n    /* \"#utility.yul\":957:1050   */\n  swap2\n  swap1\n  pop\n  jump\t// out\n    /* \"#utility.yul\":1056:1163   */\ntag_20:\n    /* \"#utility.yul\":1100:1108   */\n  0x00\n    /* \"#utility.yul\":1150:1155   */\n  dup3\n    /* \"#utility.yul\":1144:1148   */\n  dup3\n    /* \"#utility.yul\":1140:1156   */\n  shl\n    /* \"#utility.yul\":1119:1156   */\n  swap1\n  pop\n    /* \"#utility.yul\":1056:1163   */\n  swap3\n  swap2\n  pop\n  pop\n  jump\t// out\n    /* \"#utility.yul\":1169:1562   */\ntag_21:\n    /* \"#utility.yul\":1238:1244   */\n  0x00\n    /* \"#utility.yul\":1288:1289   */\n  0x08\n    /* \"#utility.yul\":1276:1286   */\n  dup4\n    /* \"#utility.yul\":1272:1290   */\n  mul\n    /* \"#utility.yul\":1311:1408   */\n  tag_46\n    /* \"#utility.yul\":1341:1407   */\n  0xffffffffffffffffffffffffffffffffffffffffffffffffffffffffffffffff\n    /* \"#utility.yul\":1330:1339   */\n  dup3\n    /* \"#utility.yul\":1311:1408   */\n  tag_20\n  jump\t// in\ntag_46:\n    /* \"#utility.yul\":1429:1468   */\n  tag_47\n    /* \"#utility.yul\":1459:1467   */\n  dup7\n    /* \"#utility.yul\":1448:1457   */\n  dup4\n    /* \"#utility.yul\":1429:1468   */\n  tag_20\n  jump\t// in\ntag_47:\n    /* \"#utility.yul\":1417:1468   */\n  swap6\n  pop\n    /* \"#utility.yul\":1501:1505   */\n  dup1\n    /* \"#utility.yul\":1497:1506   */\n  not\n    /* \"#utility.yul\":1490:1495   */\n  dup5\n    /* \"#utility.yul\":1486:1507   */\n  and\n    /* \"#utility.yul\":1477:1507   */\n  swap4\n  pop\n    /* \"#utility.yul\":1550:1554   */\n  dup1\n    /* \"#utility.yul\":1540:1548   */\n  dup7\n    /* \"#utility.yul\":1536:1555   */\n  and\n    /* \"#utility.yul\":1529:1534   */\n  dup5\n    /* \"#utility.yul\":1526:1556   */\n  or\n    /* \"#utility.yul\":1516:1556   */\n  swap3\n  pop\n    /* \"#utility.yul\":1245:1562   */\n  pop\n  pop\n    /* \"#utility.yul\":1169:1562   */\n  swap4\n  swap3\n  pop\n  pop\n  pop\n  jump\t// out\n    /* \"#utility.yul\":1568:1645   */\ntag_22:\n    /* \"#utility.yul\":1605:1612   */\n  0x00\n    /* \"#utility.yul\":1634:1639   */\n  dup2\n    /* \"#utility.yul\":1623:1639   */\n  swap1\n  pop\n    /* \"#utility.yul\":1568:1645   */\n  swap2\n  swap1\n  pop\n  jump\t// out\n    /* \"#utility.yul\":1651:1711   */\ntag_23:\n    /* \"#utility.yul\":1679:1682   */\n  0x00\n    /* \"#utility.yul\":1700:1705   */\n  dup2\n    /* \"#utility.yul\":1693:1705   */\n  swap1\n  pop\n    /* \"#utility.yul\":1651:1711   */\n  swap2\n  swap1\n  pop\n  jump\t// out\n    /* \"#utility.yul\":1717:1859   */\ntag_24:\n    /* \"#utility.yul\":1767:1776   */\n  0x00\n    /* \"#utility.yul\":1800:1853   */\n  tag_51\n    /* \"#utility.yul\":1818:1852   */\n  tag_52\n    /* \"#utility.yul\":1827:1851   */\n  tag_53\n    /* \"#utility.yul\":1845:1850   */\n  dup5\n    /* \"#utility.yul\":1827:1851   */\n  tag_22\n  jump\t// in\ntag_53:\n    /* \"#utility.yul\":1818:1852   */\n  tag_23\n  jump\t// in\ntag_52:\n    /* \"#utility.yul\":1800:1853   */\n  tag_22\n  jump\t// in\ntag_51:\n    /* \"#utility.yul\":1787:1853   */\n  swap1\n  pop\n    /* \"#utility.yul\":1717:1859   */\n  swap2\n  swap1\n  pop\n  jump\t// out\n    /* \"#utility.yul\":1865:1940   */\ntag_25:\n    /* \"#utility.yul\":1908:1911   */\n  0x00\n    /* \"#utility.yul\":1929:1934   */\n  dup2\n    /* \"#utility.yul\":1922:1934   */\n  swap1\n  pop\n    /* \"#utility.yul\":1865:1940   */\n  swap2\n  swap1\n  pop\n  jump\t// out\n    /* \"#utility.yul\":1946:2215   */\ntag_26:\n    /* \"#utility.yul\":2056:2095   */\n  tag_56\n    /* \"#utility.yul\":2087:2094   */\n  dup4\n    /* \"#utility.yul\":2056:2095   */\n  tag_24\n  jump\t// in\ntag_56:\n    /* \"#utility.yul\":2117:2208   */\n  tag_57\n    /* \"#utility.yul\":2166:2207   */\n  tag_58\n    /* \"#utility.yul\":2190:2206   */\n  dup3\n    /* \"#utility.yul\":2166:2207   */\n  tag_25\n  jump\t// in\ntag_58:\n    /* \"#utility.yul\":2158:2164   */\n  dup5\n    /* \"#utility.yul\":2151:2155   */\n  dup5\n    /* \"#utility.yul\":2145:2156   */\n  sload\n    /* \"#utility.yul\":2117:2208   */\n  tag_21\n  jump\t// in\ntag_57:\n    /* \"#utility.yul\":2111:2115   */\n  dup3\n    /* \"#utility.yul\":2104:2209   */\n  sstore\n    /* \"#utility.yul\":2022:2215   */\n  pop\n    /* \"#utility.yul\":1946:2215   */\n  pop\n  pop\n  pop\n  jump\t// out\n    /* \"#utility.yul\":2221:2294   */\ntag_27:\n    /* \"#utility.yul\":2266:2269   */\n  0x00\n    /* \"#utility.yul\":2221:2294   */\n  swap1\n  jump\t// out\n    /* \"#utility.yul\":2300:2489   */\ntag_28:\n    /* \"#utility.yul\":2377:2409   */\n  tag_61\n  tag_27\n  jump\t// in\ntag_61:\n    /* \"#utility.yul\":2418:2483   */\n  tag_62\n    /* \"#utility.yul\":2476:2482   */\n  dup2\n    /* \"#utility.yul\":2468:2474   */\n  dup5\n    /* \"#utility.yul\":2462:2466   */\n  dup5\n    /* \"#utility.yul\":2418:2483   */\n  tag_26\n  jump\t// in\ntag_62:\n    /* \"#utility.yul\":2353:2489   */\n  pop\n    /* \"#utility.yul\":2300:2489   */\n  pop\n  pop\n  jump\t// out\n    /* \"#utility.yul\":2495:2681   */\ntag_29:\n    /* \"#utility.yul\":2555:2675   */\ntag_64:\n    /* \"#utility.yul\":2572:2575   */\n  dup2\n    /* \"#utility.yul\":2565:2570   */\n  dup2\n    /* \"#utility.yul\":2562:2576   */\n  lt\n    /* \"#utility.yul\":2555:2675   */\n  iszero\n  tag_66\n  jumpi\n    /* \"#utility.yul\":2626:2665   */\n  tag_67\n    /* \"#utility.yul\":2663:2664   */\n  0x00\n    /* \"#utility.yul\":2656:2661   */\n  dup3\n    /* \"#utility.yul\":2626:2665   */\n  tag_28\n  jump\t// in\ntag_67:\n    /* \"#utility.yul\":2599:2600   */\n  0x01\n    /* \"#utility.yul\":2592:2597   */\n  dup2\n    /* \"#utility.yul\":2588:2601   */\n  add\n    /* \"#utility.yul\":2579:2601   */\n  swap1\n  pop\n    /* \"#utility.yul\":2555:2675   */\n  jump(tag_64)\ntag_66:\n    /* \"#utility.yul\":2495:2681   */\n  pop\n  pop\n  jump\t// out\n    /* \"#utility.yul\":2687:3230   */\ntag_30:\n    /* \"#utility.yul\":2788:2790   */\n  0x1f\n    /* \"#utility.yul\":2783:2786   */\n  dup3\n    /* \"#utility.yul\":2780:2791   */\n  gt\n    /* \"#utility.yul\":2777:3223   */\n  iszero\n  tag_69\n  jumpi\n    /* \"#utility.yul\":2822:2860   */\n  tag_70\n    /* \"#utility.yul\":2854:2859   */\n  dup2\n    /* \"#utility.yul\":2822:2860   */\n  tag_18\n  jump\t// in\ntag_70:\n    /* \"#utility.yul\":2906:2935   */\n  tag_71\n    /* \"#utility.yul\":2924:2934   */\n  dup5\n    /* \"#utility.yul\":2906:2935   */\n  tag_19\n  jump\t// in\ntag_71:\n    /* \"#utility.yul\":2896:2904   */\n  dup2\n    /* \"#utility.yul\":2892:2936   */\n  add\n    /* \"#utility.yul\":3089:3091   */\n  0x20\n    /* \"#utility.yul\":3077:3087   */\n  dup6\n    /* \"#utility.yul\":3074:3092   */\n  lt\n    /* \"#utility.yul\":3071:3120   */\n  iszero\n  tag_72\n  jumpi\n    /* \"#utility.yul\":3110:3118   */\n  dup2\n    /* \"#utility.yul\":3095:3118   */\n  swap1\n  pop\n    /* \"#utility.yul\":3071:3120   */\ntag_72:\n    /* \"#utility.yul\":3133:3213   */\n  tag_73\n    /* \"#utility.yul\":3189:3211   */\n  tag_74\n    /* \"#utility.yul\":3207:3210   */\n  dup6\n    /* \"#utility.yul\":3189:3211   */\n  tag_19\n  jump\t// in\ntag_74:\n    /* \"#utility.yul\":3179:3187   */\n  dup4\n    /* \"#utility.yul\":3175:3212   */\n  add\n    /* \"#utility.yul\":3162:3173   */\n  dup3\n    /* \"#utility.yul\":3133:3213   */\n  tag_29\n  jump\t// in\ntag_73:\n    /* \"#utility.yul\":2792:3223   */\n  pop\n  pop\n    /* \"#utility.yul\":2777:3223   */\ntag_69:\n    /* \"#utility.yul\":2687:3230   */\n  pop\n  pop\n  pop\n  jump\t// out\n    /* \"#utility.yul\":3236:3353   */\ntag_31:\n    /* \"#utility.yul\":3290:3298   */\n  0x00\n    /* \"#utility.yul\":3340:3345   */\n  dup3\n    /* \"#utility.yul\":3334:3338   */\n  dup3\n    /* \"#utility.yul\":3330:3346   */\n  shr\n    /* \"#utility.yul\":3309:3346   */\n  swap1\n  pop\n    /* \"#utility.yul\":3236:3353   */\n  swap3\n  swap2\n  pop\n  pop\n  jump\t// out\n    /* \"#utility.yul\":3359:3528   */\ntag_32:\n    /* \"#utility.yul\":3403:3409   */\n  0x00\n    /* \"#utility.yul\":3436:3487   */\n  tag_77\n    /* \"#utility.yul\":3484:3485   */\n  0x00\n    /* \"#utility.yul\":3480:3486   */\n  not\n    /* \"#utility.yul\":3472:3477   */\n  dup5\n    /* \"#utility.yul\":3469:3470   */\n  0x08\n    /* \"#utility.yul\":3465:3478   */\n  mul\n    /* \"#utility.yul\":3436:3487   */\n  tag_31\n  jump\t// in\ntag_77:\n    /* \"#utility.yul\":3432:3488   */\n  not\n    /* \"#utility.yul\":3517:3521   */\n  dup1\n    /* \"#utility.yul\":3511:3515   */\n  dup4\n    /* \"#utility.yul\":3507:3522   */\n  and\n    /* \"#utility.yul\":3497:3522   */\n  swap2\n  pop\n    /* \"#utility.yul\":3410:3528   */\n  pop\n    /* \"#utility.yul\":3359:3528   */\n  swap3\n  swap2\n  pop\n  pop\n  jump\t// out\n    /* \"#utility.yul\":3533:3828   */\ntag_33:\n    /* \"#utility.yul\":3609:3613   */\n  0x00\n    /* \"#utility.yul\":3755:3784   */\n  tag_79\n    /* \"#utility.yul\":3780:3783   */\n  dup4\n    /* \"#utility.yul\":3774:3778   */\n  dup4\n    /* \"#utility.yul\":3755:3784   */\n  tag_32\n  jump\t// in\ntag_79:\n    /* \"#utility.yul\":3747:3784   */\n  swap2\n  pop\n    /* \"#utility.yul\":3817:3820   */\n  dup3\n    /* \"#utility.yul\":3814:3815   */\n  0x02\n    /* \"#utility.yul\":3810:3821   */\n  mul\n    /* \"#utility.yul\":3804:3808   */\n  dup3\n    /* \"#utility.yul\":3801:3822   */\n  or\n    /* \"#utility.yul\":3793:3822   */\n  swap1\n  pop\n    /* \"#utility.yul\":3533:3828   */\n  swap3\n  swap2\n  pop\n  pop\n  jump\t// out\n    /* \"#utility.yul\":3833:5228   */\ntag_2:\n    /* \"#utility.yul\":3950:3987   */\n  tag_81\n    /* \"#utility.yul\":3983:3986   */\n  dup3\n    /* \"#utility.yul\":3950:3987   */\n  tag_14\n  jump\t// in\ntag_81:\n    /* \"#utility.yul\":4052:4070   */\n  0xffffffffffffffff\n    /* \"#utility.yul\":4044:4050   */\n  dup2\n    /* \"#utility.yul\":4041:4071   */\n  gt\n    /* \"#utility.yul\":4038:4094   */\n  iszero\n  tag_82\n  jumpi\n    /* \"#utility.yul\":4074:4092   */\n  tag_83\n  tag_15\n  jump\t// in\ntag_83:\n    /* \"#utility.yul\":4038:4094   */\ntag_82:\n    /* \"#utility.yul\":4118:4156   */\n  tag_84\n    /* \"#utility.yul\":4150:4154   */\n  dup3\n    /* \"#utility.yul\":4144:4155   */\n  sload\n    /* \"#utility.yul\":4118:4156   */\n  tag_17\n  jump\t// in\ntag_84:\n    /* \"#utility.yul\":4203:4270   */\n  tag_85\n    /* \"#utility.yul\":4263:4269   */\n  dup3\n    /* \"#utility.yul\":4255:4261   */\n  dup3\n    /* \"#utility.yul\":4249:4253   */\n  dup6\n    /* \"#utility.yul\":4203:4270   */\n  tag_30\n  jump\t// in\ntag_85:\n    /* \"#utility.yul\":4297:4298   */\n  0x00\n    /* \"#utility.yul\":4321:4325   */\n  0x20\n    /* \"#utility.yul\":4308:4325   */\n  swap1\n  pop\n    /* \"#utility.yul\":4353:4355   */\n  0x1f\n    /* \"#utility.yul\":4345:4351   */\n  dup4\n    /* \"#utility.yul\":4342:4356   */\n  gt\n    /* \"#utility.yul\":4370:4371   */\n  0x01\n    /* \"#utility.yul\":4365:4983   */\n  dup2\n  eq\n  tag_87\n  jumpi\n    /* \"#utility.yul\":5027:5028   */\n  0x00\n    /* \"#utility.yul\":5044:5050   */\n  dup5\n    /* \"#utility.yul\":5041:5118   */\n  iszero\n  tag_88\n  jumpi\n    /* \"#utility.yul\":5093:5102   */\n  dup3\n    /* \"#utility.yul\":5088:5091   */\n  dup8\n    /* \"#utility.yul\":5084:5103   */\n  add\n    /* \"#utility.yul\":5078:5104   */\n  mload\n    /* \"#utility.yul\":5069:5104   */\n  swap1\n  pop\n    /* \"#utility.yul\":5041:5118   */\ntag_88:\n    /* \"#utility.yul\":5144:5211   */\n  tag_89\n    /* \"#utility.yul\":5204:5210   */\n  dup6\n    /* \"#utility.yul\":5197:5202   */\n  dup3\n    /* \"#utility.yul\":5144:5211   */\n  tag_33\n  jump\t// in\ntag_89:\n    /* \"#utility.yul\":5138:5142   */\n  dup7\n    /* \"#utility.yul\":5131:5212   */\n  sstore\n    /* \"#utility.yul\":5000:5222   */\n  pop\n    /* \"#utility.yul\":4335:5222   */\n  jump(tag_86)\n    /* \"#utility.yul\":4365:4983   */\ntag_87:\n    /* \"#utility.yul\":4417:4421   */\n  0x1f\n    /* \"#utility.yul\":4413:4422   */\n  not\n    /* \"#utility.yul\":4405:4411   */\n  dup5\n    /* \"#utility.yul\":4401:4423   */\n  and\n    /* \"#utility.yul\":4451:4488   */\n  tag_90\n    /* \"#utility.yul\":4483:4487   */\n  dup7\n    /* \"#utility.yul\":4451:4488   */\n  tag_18\n  jump\t// in\ntag_90:\n    /* \"#utility.yul\":4510:4511   */\n  0x00\n    /* \"#utility.yul\":4524:4732   */\ntag_91:\n    /* \"#utility.yul\":4538:4545   */\n  dup3\n    /* \"#utility.yul\":4535:4536   */\n  dup2\n    /* \"#utility.yul\":4532:4546   */\n  lt\n    /* \"#utility.yul\":4524:4732   */\n  iszero\n  tag_93\n  jumpi\n    /* \"#utility.yul\":4617:4626   */\n  dup5\n    /* \"#utility.yul\":4612:4615   */\n  dup10\n    /* \"#utility.yul\":4608:4627   */\n  add\n    /* \"#utility.yul\":4602:4628   */\n  mload\n    /* \"#utility.yul\":4594:4600   */\n  dup3\n    /* \"#utility.yul\":4587:4629   */\n  sstore\n    /* \"#utility.yul\":4668:4669   */\n  0x01\n    /* \"#utility.yul\":4660:4666   */\n  dup3\n    /* \"#utility.yul\":4656:4670   */\n  add\n    /* \"#utility.yul\":4646:4670   */\n  swap2\n  pop\n    /* \"#utility.yul\":4715:4717   */\n  0x20\n    /* \"#utility.yul\":4704:4713   */\n  dup6\n    /* \"#utility.yul\":4700:4718   */\n  add\n    /* \"#utility.yul\":4687:4718   */\n  swap5\n  pop\n    /* \"#utility.yul\":4561:4565   */\n  0x20\n    /* \"#utility.yul\":4558:4559   */\n  dup2\n    /* \"#utility.yul\":4554:4566   */\n  add\n    /* \"#utility.yul\":4549:4566   */\n  swap1\n  pop\n    /* \"#utility.yul\":4524:4732   */\n  jump(tag_91)\ntag_93:\n    /* \"#utility.yul\":4760:4766   */\n  dup7\n    /* \"#utility.yul\":4751:4758   */\n  dup4\n    /* \"#utility.yul\":4748:4767   */\n  lt\n    /* \"#utility.yul\":4745:4924   */\n  iszero\n  tag_94\n  jumpi\n    /* \"#utility.yul\":4818:4827   */\n  dup5\n    /* \"#utility.yul\":4813:4816   */\n  dup10\n    /* \"#utility.yul\":4809:4828   */\n  add\n    /* \"#utility.yul\":4803:4829   */\n  mload\n    /* \"#utility.yul\":4861:4909   */\n  tag_95\n    /* \"#utility.yul\":4903:4907   */\n  0x1f\n    /* \"#utility.yul\":4895:4901   */\n  dup10\n    /* \"#utility.yul\":4891:4908   */\n  and\n    /* \"#utility.yul\":4880:4889   */\n  dup3\n    /* \"#utility.yul\":4861:4909   */\n  tag_32\n  jump\t// in\ntag_95:\n    /* \"#utility.yul\":4853:4859   */\n  dup4\n    /* \"#utility.yul\":4846:4910   */\n  sstore\n    /* \"#utility.yul\":4768:4924   */\n  pop\n    /* \"#utility.yul\":4745:4924   */\ntag_94:\n    /* \"#utility.yul\":4970:4971   */\n  0x01\n    /* \"#utility.yul\":4966:4967   */\n  0x02\n    /* \"#utility.yul\":4958:4964   */\n  dup9\n    /* \"#utility.yul\":4954:4968   */\n  mul\n    /* \"#utility.yul\":4950:4972   */\n  add\n    /* \"#utility.yul\":4944:4948   */\n  dup9\n    /* \"#utility.yul\":4937:4973   */\n  sstore\n    /* \"#utility.yul\":4372:4983   */\n  pop\n  pop\n  pop\n    /* \"#utility.yul\":4335:5222   */\ntag_86:\n  pop\n    /* \"#utility.yul\":3925:5228   */\n  pop\n  pop\n  pop\n    /* \"#utility.yul\":3833:5228   */\n  pop\n  pop\n  jump\t// out\n    /* \"contracts/changeString.sol\":74:560  contract testcontract {... */\ntag_6:\n  dataSize(sub_0)\n  dup1\n  dataOffset(sub_0)\n  0x00\n  codecopy\n  0x00\n  return\nstop\n\nsub_0: assembly {\n        /* \"contracts/changeString.sol\":74:560  contract testcontract {... */\n      mstore(0x40, 0x80)\n      callvalue\n      dup1\n      iszero\n      tag_1\n      jumpi\n      0x00\n      dup1\n      revert\n    tag_1:\n      pop\n      jumpi(tag_2, lt(calldatasize, 0x04))\n      shr(0xe0, calldataload(0x00))\n      dup1\n      0x2757a1a3\n      eq\n      tag_3\n      jumpi\n      dup1\n      0xbf566599\n      eq\n      tag_4\n      jumpi\n      dup1\n      0xfae2dd4b\n      eq\n      tag_5\n      jumpi\n    tag_2:\n      0x00\n      dup1\n      revert\n        /* \"contracts/changeString.sol\":154:408  address [] public AdminsAdresses = [0x3F486A757f46f5fd90889105235C0f6A99B40F51,0xAb8483F64d9C6d1EcF9b849Ae677dD3315835cb2, 0x5c6B0f7Bf3E7ce046039Bd8FABdfD3f9F5021678, 0xdD870fA1b7C4700F2BD7f44238821C26f7392148, 0x17F6AD8Ef982297579C203069C1DbfFE4348c372] */\n    tag_3:\n      tag_6\n      0x04\n      dup1\n      calldatasize\n      sub\n      dup2\n      add\n      swap1\n      tag_7\n      swap2\n      swap1\n      tag_8\n      jump\t// in\n    tag_7:\n      tag_9\n      jump\t// in\n    tag_6:\n      mload(0x40)\n      tag_10\n      swap2\n      swap1\n      tag_11\n      jump\t// in\n    tag_10:\n      mload(0x40)\n      dup1\n      swap2\n      sub\n      swap1\n      return\n        /* \"contracts/changeString.sol\":417:556  function changeMyName(string memory inputName) public returns  (string memory)  {... */\n    tag_4:\n      tag_12\n      0x04\n      dup1\n      calldatasize\n      sub\n      dup2\n      add\n      swap1\n      tag_13\n      swap2\n      swap1\n      tag_14\n      jump\t// in\n    tag_13:\n      tag_15\n      jump\t// in\n    tag_12:\n      mload(0x40)\n      tag_16\n      swap2\n      swap1\n      tag_17\n      jump\t// in\n    tag_16:\n      mload(0x40)\n      dup1\n      swap2\n      sub\n      swap1\n      return\n        /* \"contracts/changeString.sol\":105:145  string public myName=\"I Love Blockchain\" */\n    tag_5:\n      tag_18\n      tag_19\n      jump\t// in\n    tag_18:\n      mload(0x40)\n      tag_20\n      swap2\n      swap1\n      tag_17\n      jump\t// in\n    tag_20:\n      mload(0x40)\n      dup1\n      swap2\n      sub\n      swap1\n      return\n        /* \"contracts/changeString.sol\":154:408  address [] public AdminsAdresses = [0x3F486A757f46f5fd90889105235C0f6A99B40F51,0xAb8483F64d9C6d1EcF9b849Ae677dD3315835cb2, 0x5c6B0f7Bf3E7ce046039Bd8FABdfD3f9F5021678, 0xdD870fA1b7C4700F2BD7f44238821C26f7392148, 0x17F6AD8Ef982297579C203069C1DbfFE4348c372] */\n    tag_9:\n      0x01\n      dup2\n      dup2\n      sload\n      dup2\n      lt\n      tag_21\n      jumpi\n      0x00\n      dup1\n      revert\n    tag_21:\n      swap1\n      0x00\n      mstore\n      keccak256(0x00, 0x20)\n      add\n      0x00\n      swap2\n      pop\n      sload\n      swap1\n      0x0100\n      exp\n      swap1\n      div\n      0xffffffffffffffffffffffffffffffffffffffff\n      and\n      dup2\n      jump\t// out\n        /* \"contracts/changeString.sol\":417:556  function changeMyName(string memory inputName) public returns  (string memory)  {... */\n    tag_15:\n        /* \"contracts/changeString.sol\":481:494  string memory */\n      0x60\n        /* \"contracts/changeString.sol\":515:524  inputName */\n      dup2\n        /* \"contracts/changeString.sol\":508:514  myName */\n      0x00\n        /* \"contracts/changeString.sol\":508:524  myName=inputName */\n      swap1\n      dup2\n      tag_24\n      swap2\n      swap1\n      tag_25\n      jump\t// in\n    tag_24:\n      pop\n        /* \"contracts/changeString.sol\":542:548  myName */\n      0x00\n        /* \"contracts/changeString.sol\":535:548  return myName */\n      dup1\n      sload\n      tag_26\n      swap1\n      tag_27\n      jump\t// in\n    tag_26:\n      dup1\n      0x1f\n      add\n      0x20\n      dup1\n      swap2\n      div\n      mul\n      0x20\n      add\n      mload(0x40)\n      swap1\n      dup2\n      add\n      0x40\n      mstore\n      dup1\n      swap3\n      swap2\n      swap1\n      dup2\n      dup2\n      mstore\n      0x20\n      add\n      dup3\n      dup1\n      sload\n      tag_28\n      swap1\n      tag_27\n      jump\t// in\n    tag_28:\n      dup1\n      iszero\n      tag_29\n      jumpi\n      dup1\n      0x1f\n      lt\n      tag_30\n      jumpi\n      0x0100\n      dup1\n      dup4\n      sload\n      div\n      mul\n      dup4\n      mstore\n      swap2\n      0x20\n      add\n      swap2\n      jump(tag_29)\n    tag_30:\n      dup3\n      add\n      swap2\n      swap1\n      0x00\n      mstore\n      keccak256(0x00, 0x20)\n      swap1\n    tag_31:\n      dup2\n      sload\n      dup2\n      mstore\n      swap1\n      0x01\n      add\n      swap1\n      0x20\n      add\n      dup1\n      dup4\n      gt\n      tag_31\n      jumpi\n      dup3\n      swap1\n      sub\n      0x1f\n      and\n      dup3\n      add\n      swap2\n    tag_29:\n      pop\n      pop\n      pop\n      pop\n      pop\n      swap1\n      pop\n        /* \"contracts/changeString.sol\":417:556  function changeMyName(string memory inputName) public returns  (string memory)  {... */\n      swap2\n      swap1\n      pop\n      jump\t// out\n        /* \"contracts/changeString.sol\":105:145  string public myName=\"I Love Blockchain\" */\n    tag_19:\n      0x00\n      dup1\n      sload\n      tag_32\n      swap1\n      tag_27\n      jump\t// in\n    tag_32:\n      dup1\n      0x1f\n      add\n      0x20\n      dup1\n      swap2\n      div\n      mul\n      0x20\n      add\n      mload(0x40)\n      swap1\n      dup2\n      add\n      0x40\n      mstore\n      dup1\n      swap3\n      swap2\n      swap1\n      dup2\n      dup2\n      mstore\n      0x20\n      add\n      dup3\n      dup1\n      sload\n      tag_33\n      swap1\n      tag_27\n      jump\t// in\n    tag_33:\n      dup1\n      iszero\n      tag_34\n      jumpi\n      dup1\n      0x1f\n      lt\n      tag_35\n      jumpi\n      0x0100\n      dup1\n      dup4\n      sload\n      div\n      mul\n      dup4\n      mstore\n      swap2\n      0x20\n      add\n      swap2\n      jump(tag_34)\n    tag_35:\n      dup3\n      add\n      swap2\n      swap1\n      0x00\n      mstore\n      keccak256(0x00, 0x20)\n      swap1\n    tag_36:\n      dup2\n      sload\n      dup2\n      mstore\n      swap1\n      0x01\n      add\n      swap1\n      0x20\n      add\n      dup1\n      dup4\n      gt\n      tag_36\n      jumpi\n      dup3\n      swap1\n      sub\n      0x1f\n      and\n      dup3\n      add\n      swap2\n    tag_34:\n      pop\n      pop\n      pop\n      pop\n      pop\n      dup2\n      jump\t// out\n        /* \"#utility.yul\":7:82   */\n    tag_37:\n        /* \"#utility.yul\":40:46   */\n      0x00\n        /* \"#utility.yul\":73:75   */\n      0x40\n        /* \"#utility.yul\":67:76   */\n      mload\n        /* \"#utility.yul\":57:76   */\n      swap1\n      pop\n        /* \"#utility.yul\":7:82   */\n      swap1\n      jump\t// out\n        /* \"#utility.yul\":88:205   */\n    tag_38:\n        /* \"#utility.yul\":197:198   */\n      0x00\n        /* \"#utility.yul\":194:195   */\n      dup1\n        /* \"#utility.yul\":187:199   */\n      revert\n        /* \"#utility.yul\":211:328   */\n    tag_39:\n        /* \"#utility.yul\":320:321   */\n      0x00\n        /* \"#utility.yul\":317:318   */\n      dup1\n        /* \"#utility.yul\":310:322   */\n      revert\n        /* \"#utility.yul\":334:411   */\n    tag_40:\n        /* \"#utility.yul\":371:378   */\n      0x00\n        /* \"#utility.yul\":400:405   */\n      dup2\n        /* \"#utility.yul\":389:405   */\n      swap1\n      pop\n        /* \"#utility.yul\":334:411   */\n      swap2\n      swap1\n      pop\n      jump\t// out\n        /* \"#utility.yul\":417:539   */\n    tag_41:\n        /* \"#utility.yul\":490:514   */\n      tag_82\n        /* \"#utility.yul\":508:513   */\n      dup2\n        /* \"#utility.yul\":490:514   */\n      tag_40\n      jump\t// in\n    tag_82:\n        /* \"#utility.yul\":483:488   */\n      dup2\n        /* \"#utility.yul\":480:515   */\n      eq\n        /* \"#utility.yul\":470:533   */\n      tag_83\n      jumpi\n        /* \"#utility.yul\":529:530   */\n      0x00\n        /* \"#utility.yul\":526:527   */\n      dup1\n        /* \"#utility.yul\":519:531   */\n      revert\n        /* \"#utility.yul\":470:533   */\n    tag_83:\n        /* \"#utility.yul\":417:539   */\n      pop\n      jump\t// out\n        /* \"#utility.yul\":545:684   */\n    tag_42:\n        /* \"#utility.yul\":591:596   */\n      0x00\n        /* \"#utility.yul\":629:635   */\n      dup2\n        /* \"#utility.yul\":616:636   */\n      calldataload\n        /* \"#utility.yul\":607:636   */\n      swap1\n      pop\n        /* \"#utility.yul\":645:678   */\n      tag_85\n        /* \"#utility.yul\":672:677   */\n      dup2\n        /* \"#utility.yul\":645:678   */\n      tag_41\n      jump\t// in\n    tag_85:\n        /* \"#utility.yul\":545:684   */\n      swap3\n      swap2\n      pop\n      pop\n      jump\t// out\n        /* \"#utility.yul\":690:1019   */\n    tag_8:\n        /* \"#utility.yul\":749:755   */\n      0x00\n        /* \"#utility.yul\":798:800   */\n      0x20\n        /* \"#utility.yul\":786:795   */\n      dup3\n        /* \"#utility.yul\":777:784   */\n      dup5\n        /* \"#utility.yul\":773:796   */\n      sub\n        /* \"#utility.yul\":769:801   */\n      slt\n        /* \"#utility.yul\":766:885   */\n      iszero\n      tag_87\n      jumpi\n        /* \"#utility.yul\":804:883   */\n      tag_88\n      tag_38\n      jump\t// in\n    tag_88:\n        /* \"#utility.yul\":766:885   */\n    tag_87:\n        /* \"#utility.yul\":924:925   */\n      0x00\n        /* \"#utility.yul\":949:1002   */\n      tag_89\n        /* \"#utility.yul\":994:1001   */\n      dup5\n        /* \"#utility.yul\":985:991   */\n      dup3\n        /* \"#utility.yul\":974:983   */\n      dup6\n        /* \"#utility.yul\":970:992   */\n      add\n        /* \"#utility.yul\":949:1002   */\n      tag_42\n      jump\t// in\n    tag_89:\n        /* \"#utility.yul\":939:1002   */\n      swap2\n      pop\n        /* \"#utility.yul\":895:1012   */\n      pop\n        /* \"#utility.yul\":690:1019   */\n      swap3\n      swap2\n      pop\n      pop\n      jump\t// out\n        /* \"#utility.yul\":1025:1151   */\n    tag_43:\n        /* \"#utility.yul\":1062:1069   */\n      0x00\n        /* \"#utility.yul\":1102:1144   */\n      0xffffffffffffffffffffffffffffffffffffffff\n        /* \"#utility.yul\":1095:1100   */\n      dup3\n        /* \"#utility.yul\":1091:1145   */\n      and\n        /* \"#utility.yul\":1080:1145   */\n      swap1\n      pop\n        /* \"#utility.yul\":1025:1151   */\n      swap2\n      swap1\n      pop\n      jump\t// out\n        /* \"#utility.yul\":1157:1253   */\n    tag_44:\n        /* \"#utility.yul\":1194:1201   */\n      0x00\n        /* \"#utility.yul\":1223:1247   */\n      tag_92\n        /* \"#utility.yul\":1241:1246   */\n      dup3\n        /* \"#utility.yul\":1223:1247   */\n      tag_43\n      jump\t// in\n    tag_92:\n        /* \"#utility.yul\":1212:1247   */\n      swap1\n      pop\n        /* \"#utility.yul\":1157:1253   */\n      swap2\n      swap1\n      pop\n      jump\t// out\n        /* \"#utility.yul\":1259:1377   */\n    tag_45:\n        /* \"#utility.yul\":1346:1370   */\n      tag_94\n        /* \"#utility.yul\":1364:1369   */\n      dup2\n        /* \"#utility.yul\":1346:1370   */\n      tag_44\n      jump\t// in\n    tag_94:\n        /* \"#utility.yul\":1341:1344   */\n      dup3\n        /* \"#utility.yul\":1334:1371   */\n      mstore\n        /* \"#utility.yul\":1259:1377   */\n      pop\n      pop\n      jump\t// out\n        /* \"#utility.yul\":1383:1605   */\n    tag_11:\n        /* \"#utility.yul\":1476:1480   */\n      0x00\n        /* \"#utility.yul\":1514:1516   */\n      0x20\n        /* \"#utility.yul\":1503:1512   */\n      dup3\n        /* \"#utility.yul\":1499:1517   */\n      add\n        /* \"#utility.yul\":1491:1517   */\n      swap1\n      pop\n        /* \"#utility.yul\":1527:1598   */\n      tag_96\n        /* \"#utility.yul\":1595:1596   */\n      0x00\n        /* \"#utility.yul\":1584:1593   */\n      dup4\n        /* \"#utility.yul\":1580:1597   */\n      add\n        /* \"#utility.yul\":1571:1577   */\n      dup5\n        /* \"#utility.yul\":1527:1598   */\n      tag_45\n      jump\t// in\n    tag_96:\n        /* \"#utility.yul\":1383:1605   */\n      swap3\n      swap2\n      pop\n      pop\n      jump\t// out\n        /* \"#utility.yul\":1611:1728   */\n    tag_46:\n        /* \"#utility.yul\":1720:1721   */\n      0x00\n        /* \"#utility.yul\":1717:1718   */\n      dup1\n        /* \"#utility.yul\":1710:1722   */\n      revert\n        /* \"#utility.yul\":1734:1851   */\n    tag_47:\n        /* \"#utility.yul\":1843:1844   */\n      0x00\n        /* \"#utility.yul\":1840:1841   */\n      dup1\n        /* \"#utility.yul\":1833:1845   */\n      revert\n        /* \"#utility.yul\":1857:1959   */\n    tag_48:\n        /* \"#utility.yul\":1898:1904   */\n      0x00\n        /* \"#utility.yul\":1949:1951   */\n      0x1f\n        /* \"#utility.yul\":1945:1952   */\n      not\n        /* \"#utility.yul\":1940:1942   */\n      0x1f\n        /* \"#utility.yul\":1933:1938   */\n      dup4\n        /* \"#utility.yul\":1929:1943   */\n      add\n        /* \"#utility.yul\":1925:1953   */\n      and\n        /* \"#utility.yul\":1915:1953   */\n      swap1\n      pop\n        /* \"#utility.yul\":1857:1959   */\n      swap2\n      swap1\n      pop\n      jump\t// out\n        /* \"#utility.yul\":1965:2145   */\n    tag_49:\n        /* \"#utility.yul\":2013:2090   */\n      0x4e487b7100000000000000000000000000000000000000000000000000000000\n        /* \"#utility.yul\":2010:2011   */\n      0x00\n        /* \"#utility.yul\":2003:2091   */\n      mstore\n        /* \"#utility.yul\":2110:2114   */\n      0x41\n        /* \"#utility.yul\":2107:2108   */\n      0x04\n        /* \"#utility.yul\":2100:2115   */\n      mstore\n        /* \"#utility.yul\":2134:2138   */\n      0x24\n        /* \"#utility.yul\":2131:2132   */\n      0x00\n        /* \"#utility.yul\":2124:2139   */\n      revert\n        /* \"#utility.yul\":2151:2432   */\n    tag_50:\n        /* \"#utility.yul\":2234:2261   */\n      tag_102\n        /* \"#utility.yul\":2256:2260   */\n      dup3\n        /* \"#utility.yul\":2234:2261   */\n      tag_48\n      jump\t// in\n    tag_102:\n        /* \"#utility.yul\":2226:2232   */\n      dup2\n        /* \"#utility.yul\":2222:2262   */\n      add\n        /* \"#utility.yul\":2364:2370   */\n      dup2\n        /* \"#utility.yul\":2352:2362   */\n      dup2\n        /* \"#utility.yul\":2349:2371   */\n      lt\n        /* \"#utility.yul\":2328:2346   */\n      0xffffffffffffffff\n        /* \"#utility.yul\":2316:2326   */\n      dup3\n        /* \"#utility.yul\":2313:2347   */\n      gt\n        /* \"#utility.yul\":2310:2372   */\n      or\n        /* \"#utility.yul\":2307:2395   */\n      iszero\n      tag_103\n      jumpi\n        /* \"#utility.yul\":2375:2393   */\n      tag_104\n      tag_49\n      jump\t// in\n    tag_104:\n        /* \"#utility.yul\":2307:2395   */\n    tag_103:\n        /* \"#utility.yul\":2415:2425   */\n      dup1\n        /* \"#utility.yul\":2411:2413   */\n      0x40\n        /* \"#utility.yul\":2404:2426   */\n      mstore\n        /* \"#utility.yul\":2194:2432   */\n      pop\n        /* \"#utility.yul\":2151:2432   */\n      pop\n      pop\n      jump\t// out\n        /* \"#utility.yul\":2438:2567   */\n    tag_51:\n        /* \"#utility.yul\":2472:2478   */\n      0x00\n        /* \"#utility.yul\":2499:2519   */\n      tag_106\n      tag_37\n      jump\t// in\n    tag_106:\n        /* \"#utility.yul\":2489:2519   */\n      swap1\n      pop\n        /* \"#utility.yul\":2528:2561   */\n      tag_107\n        /* \"#utility.yul\":2556:2560   */\n      dup3\n        /* \"#utility.yul\":2548:2554   */\n      dup3\n        /* \"#utility.yul\":2528:2561   */\n      tag_50\n      jump\t// in\n    tag_107:\n        /* \"#utility.yul\":2438:2567   */\n      swap2\n      swap1\n      pop\n      jump\t// out\n        /* \"#utility.yul\":2573:2881   */\n    tag_52:\n        /* \"#utility.yul\":2635:2639   */\n      0x00\n        /* \"#utility.yul\":2725:2743   */\n      0xffffffffffffffff\n        /* \"#utility.yul\":2717:2723   */\n      dup3\n        /* \"#utility.yul\":2714:2744   */\n      gt\n        /* \"#utility.yul\":2711:2767   */\n      iszero\n      tag_109\n      jumpi\n        /* \"#utility.yul\":2747:2765   */\n      tag_110\n      tag_49\n      jump\t// in\n    tag_110:\n        /* \"#utility.yul\":2711:2767   */\n    tag_109:\n        /* \"#utility.yul\":2785:2814   */\n      tag_111\n        /* \"#utility.yul\":2807:2813   */\n      dup3\n        /* \"#utility.yul\":2785:2814   */\n      tag_48\n      jump\t// in\n    tag_111:\n        /* \"#utility.yul\":2777:2814   */\n      swap1\n      pop\n        /* \"#utility.yul\":2869:2873   */\n      0x20\n        /* \"#utility.yul\":2863:2867   */\n      dup2\n        /* \"#utility.yul\":2859:2874   */\n      add\n        /* \"#utility.yul\":2851:2874   */\n      swap1\n      pop\n        /* \"#utility.yul\":2573:2881   */\n      swap2\n      swap1\n      pop\n      jump\t// out\n        /* \"#utility.yul\":2887:3033   */\n    tag_53:\n        /* \"#utility.yul\":2984:2990   */\n      dup3\n        /* \"#utility.yul\":2979:2982   */\n      dup2\n        /* \"#utility.yul\":2974:2977   */\n      dup4\n        /* \"#utility.yul\":2961:2991   */\n      calldatacopy\n        /* \"#utility.yul\":3025:3026   */\n      0x00\n        /* \"#utility.yul\":3016:3022   */\n      dup4\n        /* \"#utility.yul\":3011:3014   */\n      dup4\n        /* \"#utility.yul\":3007:3023   */\n      add\n        /* \"#utility.yul\":3000:3027   */\n      mstore\n        /* \"#utility.yul\":2887:3033   */\n      pop\n      pop\n      pop\n      jump\t// out\n        /* \"#utility.yul\":3039:3464   */\n    tag_54:\n        /* \"#utility.yul\":3117:3122   */\n      0x00\n        /* \"#utility.yul\":3142:3208   */\n      tag_114\n        /* \"#utility.yul\":3158:3207   */\n      tag_115\n        /* \"#utility.yul\":3200:3206   */\n      dup5\n        /* \"#utility.yul\":3158:3207   */\n      tag_52\n      jump\t// in\n    tag_115:\n        /* \"#utility.yul\":3142:3208   */\n      tag_51\n      jump\t// in\n    tag_114:\n        /* \"#utility.yul\":3133:3208   */\n      swap1\n      pop\n        /* \"#utility.yul\":3231:3237   */\n      dup3\n        /* \"#utility.yul\":3224:3229   */\n      dup2\n        /* \"#utility.yul\":3217:3238   */\n      mstore\n        /* \"#utility.yul\":3269:3273   */\n      0x20\n        /* \"#utility.yul\":3262:3267   */\n      dup2\n        /* \"#utility.yul\":3258:3274   */\n      add\n        /* \"#utility.yul\":3307:3310   */\n      dup5\n        /* \"#utility.yul\":3298:3304   */\n      dup5\n        /* \"#utility.yul\":3293:3296   */\n      dup5\n        /* \"#utility.yul\":3289:3305   */\n      add\n        /* \"#utility.yul\":3286:3311   */\n      gt\n        /* \"#utility.yul\":3283:3395   */\n      iszero\n      tag_116\n      jumpi\n        /* \"#utility.yul\":3314:3393   */\n      tag_117\n      tag_47\n      jump\t// in\n    tag_117:\n        /* \"#utility.yul\":3283:3395   */\n    tag_116:\n        /* \"#utility.yul\":3404:3458   */\n      tag_118\n        /* \"#utility.yul\":3451:3457   */\n      dup5\n        /* \"#utility.yul\":3446:3449   */\n      dup3\n        /* \"#utility.yul\":3441:3444   */\n      dup6\n        /* \"#utility.yul\":3404:3458   */\n      tag_53\n      jump\t// in\n    tag_118:\n        /* \"#utility.yul\":3123:3464   */\n      pop\n        /* \"#utility.yul\":3039:3464   */\n      swap4\n      swap3\n      pop\n      pop\n      pop\n      jump\t// out\n        /* \"#utility.yul\":3484:3824   */\n    tag_55:\n        /* \"#utility.yul\":3540:3545   */\n      0x00\n        /* \"#utility.yul\":3589:3592   */\n      dup3\n        /* \"#utility.yul\":3582:3586   */\n      0x1f\n        /* \"#utility.yul\":3574:3580   */\n      dup4\n        /* \"#utility.yul\":3570:3587   */\n      add\n        /* \"#utility.yul\":3566:3593   */\n      slt\n        /* \"#utility.yul\":3556:3678   */\n      tag_120\n      jumpi\n        /* \"#utility.yul\":3597:3676   */\n      tag_121\n      tag_46\n      jump\t// in\n    tag_121:\n        /* \"#utility.yul\":3556:3678   */\n    tag_120:\n        /* \"#utility.yul\":3714:3720   */\n      dup2\n        /* \"#utility.yul\":3701:3721   */\n      calldataload\n        /* \"#utility.yul\":3739:3818   */\n      tag_122\n        /* \"#utility.yul\":3814:3817   */\n      dup5\n        /* \"#utility.yul\":3806:3812   */\n      dup3\n        /* \"#utility.yul\":3799:3803   */\n      0x20\n        /* \"#utility.yul\":3791:3797   */\n      dup7\n        /* \"#utility.yul\":3787:3804   */\n      add\n        /* \"#utility.yul\":3739:3818   */\n      tag_54\n      jump\t// in\n    tag_122:\n        /* \"#utility.yul\":3730:3818   */\n      swap2\n      pop\n        /* \"#utility.yul\":3546:3824   */\n      pop\n        /* \"#utility.yul\":3484:3824   */\n      swap3\n      swap2\n      pop\n      pop\n      jump\t// out\n        /* \"#utility.yul\":3830:4339   */\n    tag_14:\n        /* \"#utility.yul\":3899:3905   */\n      0x00\n        /* \"#utility.yul\":3948:3950   */\n      0x20\n        /* \"#utility.yul\":3936:3945   */\n      dup3\n        /* \"#utility.yul\":3927:3934   */\n      dup5\n        /* \"#utility.yul\":3923:3946   */\n      sub\n        /* \"#utility.yul\":3919:3951   */\n      slt\n        /* \"#utility.yul\":3916:4035   */\n      iszero\n      tag_124\n      jumpi\n        /* \"#utility.yul\":3954:4033   */\n      tag_125\n      tag_38\n      jump\t// in\n    tag_125:\n        /* \"#utility.yul\":3916:4035   */\n    tag_124:\n        /* \"#utility.yul\":4102:4103   */\n      0x00\n        /* \"#utility.yul\":4091:4100   */\n      dup3\n        /* \"#utility.yul\":4087:4104   */\n      add\n        /* \"#utility.yul\":4074:4105   */\n      calldataload\n        /* \"#utility.yul\":4132:4150   */\n      0xffffffffffffffff\n        /* \"#utility.yul\":4124:4130   */\n      dup2\n        /* \"#utility.yul\":4121:4151   */\n      gt\n        /* \"#utility.yul\":4118:4235   */\n      iszero\n      tag_126\n      jumpi\n        /* \"#utility.yul\":4154:4233   */\n      tag_127\n      tag_39\n      jump\t// in\n    tag_127:\n        /* \"#utility.yul\":4118:4235   */\n    tag_126:\n        /* \"#utility.yul\":4259:4322   */\n      tag_128\n        /* \"#utility.yul\":4314:4321   */\n      dup5\n        /* \"#utility.yul\":4305:4311   */\n      dup3\n        /* \"#utility.yul\":4294:4303   */\n      dup6\n        /* \"#utility.yul\":4290:4312   */\n      add\n        /* \"#utility.yul\":4259:4322   */\n      tag_55\n      jump\t// in\n    tag_128:\n        /* \"#utility.yul\":4249:4322   */\n      swap2\n      pop\n        /* \"#utility.yul\":4045:4332   */\n      pop\n        /* \"#utility.yul\":3830:4339   */\n      swap3\n      swap2\n      pop\n      pop\n      jump\t// out\n        /* \"#utility.yul\":4345:4444   */\n    tag_56:\n        /* \"#utility.yul\":4397:4403   */\n      0x00\n        /* \"#utility.yul\":4431:4436   */\n      dup2\n        /* \"#utility.yul\":4425:4437   */\n      mload\n        /* \"#utility.yul\":4415:4437   */\n      swap1\n      pop\n        /* \"#utility.yul\":4345:4444   */\n      swap2\n      swap1\n      pop\n      jump\t// out\n        /* \"#utility.yul\":4450:4619   */\n    tag_57:\n        /* \"#utility.yul\":4534:4545   */\n      0x00\n        /* \"#utility.yul\":4568:4574   */\n      dup3\n        /* \"#utility.yul\":4563:4566   */\n      dup3\n        /* \"#utility.yul\":4556:4575   */\n      mstore\n        /* \"#utility.yul\":4608:4612   */\n      0x20\n        /* \"#utility.yul\":4603:4606   */\n      dup3\n        /* \"#utility.yul\":4599:4613   */\n      add\n        /* \"#utility.yul\":4584:4613   */\n      swap1\n      pop\n        /* \"#utility.yul\":4450:4619   */\n      swap3\n      swap2\n      pop\n      pop\n      jump\t// out\n        /* \"#utility.yul\":4625:4871   */\n    tag_58:\n        /* \"#utility.yul\":4706:4707   */\n      0x00\n        /* \"#utility.yul\":4716:4829   */\n    tag_132:\n        /* \"#utility.yul\":4730:4736   */\n      dup4\n        /* \"#utility.yul\":4727:4728   */\n      dup2\n        /* \"#utility.yul\":4724:4737   */\n      lt\n        /* \"#utility.yul\":4716:4829   */\n      iszero\n      tag_134\n      jumpi\n        /* \"#utility.yul\":4815:4816   */\n      dup1\n        /* \"#utility.yul\":4810:4813   */\n      dup3\n        /* \"#utility.yul\":4806:4817   */\n      add\n        /* \"#utility.yul\":4800:4818   */\n      mload\n        /* \"#utility.yul\":4796:4797   */\n      dup2\n        /* \"#utility.yul\":4791:4794   */\n      dup5\n        /* \"#utility.yul\":4787:4798   */\n      add\n        /* \"#utility.yul\":4780:4819   */\n      mstore\n        /* \"#utility.yul\":4752:4754   */\n      0x20\n        /* \"#utility.yul\":4749:4750   */\n      dup2\n        /* \"#utility.yul\":4745:4755   */\n      add\n        /* \"#utility.yul\":4740:4755   */\n      swap1\n      pop\n        /* \"#utility.yul\":4716:4829   */\n      jump(tag_132)\n    tag_134:\n        /* \"#utility.yul\":4863:4864   */\n      0x00\n        /* \"#utility.yul\":4854:4860   */\n      dup5\n        /* \"#utility.yul\":4849:4852   */\n      dup5\n        /* \"#utility.yul\":4845:4861   */\n      add\n        /* \"#utility.yul\":4838:4865   */\n      mstore\n        /* \"#utility.yul\":4687:4871   */\n      pop\n        /* \"#utility.yul\":4625:4871   */\n      pop\n      pop\n      pop\n      jump\t// out\n        /* \"#utility.yul\":4877:5254   */\n    tag_59:\n        /* \"#utility.yul\":4965:4968   */\n      0x00\n        /* \"#utility.yul\":4993:5032   */\n      tag_136\n        /* \"#utility.yul\":5026:5031   */\n      dup3\n        /* \"#utility.yul\":4993:5032   */\n      tag_56\n      jump\t// in\n    tag_136:\n        /* \"#utility.yul\":5048:5119   */\n      tag_137\n        /* \"#utility.yul\":5112:5118   */\n      dup2\n        /* \"#utility.yul\":5107:5110   */\n      dup6\n        /* \"#utility.yul\":5048:5119   */\n      tag_57\n      jump\t// in\n    tag_137:\n        /* \"#utility.yul\":5041:5119   */\n      swap4\n      pop\n        /* \"#utility.yul\":5128:5193   */\n      tag_138\n        /* \"#utility.yul\":5186:5192   */\n      dup2\n        /* \"#utility.yul\":5181:5184   */\n      dup6\n        /* \"#utility.yul\":5174:5178   */\n      0x20\n        /* \"#utility.yul\":5167:5172   */\n      dup7\n        /* \"#utility.yul\":5163:5179   */\n      add\n        /* \"#utility.yul\":5128:5193   */\n      tag_58\n      jump\t// in\n    tag_138:\n        /* \"#utility.yul\":5218:5247   */\n      tag_139\n        /* \"#utility.yul\":5240:5246   */\n      dup2\n        /* \"#utility.yul\":5218:5247   */\n      tag_48\n      jump\t// in\n    tag_139:\n        /* \"#utility.yul\":5213:5216   */\n      dup5\n        /* \"#utility.yul\":5209:5248   */\n      add\n        /* \"#utility.yul\":5202:5248   */\n      swap2\n      pop\n        /* \"#utility.yul\":4969:5254   */\n      pop\n        /* \"#utility.yul\":4877:5254   */\n      swap3\n      swap2\n      pop\n      pop\n      jump\t// out\n        /* \"#utility.yul\":5260:5573   */\n    tag_17:\n        /* \"#utility.yul\":5373:5377   */\n      0x00\n        /* \"#utility.yul\":5411:5413   */\n      0x20\n        /* \"#utility.yul\":5400:5409   */\n      dup3\n        /* \"#utility.yul\":5396:5414   */\n      add\n        /* \"#utility.yul\":5388:5414   */\n      swap1\n      pop\n        /* \"#utility.yul\":5460:5469   */\n      dup2\n        /* \"#utility.yul\":5454:5458   */\n      dup2\n        /* \"#utility.yul\":5450:5470   */\n      sub\n        /* \"#utility.yul\":5446:5447   */\n      0x00\n        /* \"#utility.yul\":5435:5444   */\n      dup4\n        /* \"#utility.yul\":5431:5448   */\n      add\n        /* \"#utility.yul\":5424:5471   */\n      mstore\n        /* \"#utility.yul\":5488:5566   */\n      tag_141\n        /* \"#utility.yul\":5561:5565   */\n      dup2\n        /* \"#utility.yul\":5552:5558   */\n      dup5\n        /* \"#utility.yul\":5488:5566   */\n      tag_59\n      jump\t// in\n    tag_141:\n        /* \"#utility.yul\":5480:5566   */\n      swap1\n      pop\n        /* \"#utility.yul\":5260:5573   */\n      swap3\n      swap2\n      pop\n      pop\n      jump\t// out\n        /* \"#utility.yul\":5579:5759   */\n    tag_60:\n        /* \"#utility.yul\":5627:5704   */\n      0x4e487b7100000000000000000000000000000000000000000000000000000000\n        /* \"#utility.yul\":5624:5625   */\n      0x00\n        /* \"#utility.yul\":5617:5705   */\n      mstore\n        /* \"#utility.yul\":5724:5728   */\n      0x22\n        /* \"#utility.yul\":5721:5722   */\n      0x04\n        /* \"#utility.yul\":5714:5729   */\n      mstore\n        /* \"#utility.yul\":5748:5752   */\n      0x24\n        /* \"#utility.yul\":5745:5746   */\n      0x00\n        /* \"#utility.yul\":5738:5753   */\n      revert\n        /* \"#utility.yul\":5765:6085   */\n    tag_27:\n        /* \"#utility.yul\":5809:5815   */\n      0x00\n        /* \"#utility.yul\":5846:5847   */\n      0x02\n        /* \"#utility.yul\":5840:5844   */\n      dup3\n        /* \"#utility.yul\":5836:5848   */\n      div\n        /* \"#utility.yul\":5826:5848   */\n      swap1\n      pop\n        /* \"#utility.yul\":5893:5894   */\n      0x01\n        /* \"#utility.yul\":5887:5891   */\n      dup3\n        /* \"#utility.yul\":5883:5895   */\n      and\n        /* \"#utility.yul\":5914:5932   */\n      dup1\n        /* \"#utility.yul\":5904:5985   */\n      tag_144\n      jumpi\n        /* \"#utility.yul\":5970:5974   */\n      0x7f\n        /* \"#utility.yul\":5962:5968   */\n      dup3\n        /* \"#utility.yul\":5958:5975   */\n      and\n        /* \"#utility.yul\":5948:5975   */\n      swap2\n      pop\n        /* \"#utility.yul\":5904:5985   */\n    tag_144:\n        /* \"#utility.yul\":6032:6034   */\n      0x20\n        /* \"#utility.yul\":6024:6030   */\n      dup3\n        /* \"#utility.yul\":6021:6035   */\n      lt\n        /* \"#utility.yul\":6001:6019   */\n      dup2\n        /* \"#utility.yul\":5998:6036   */\n      sub\n        /* \"#utility.yul\":5995:6079   */\n      tag_145\n      jumpi\n        /* \"#utility.yul\":6051:6069   */\n      tag_146\n      tag_60\n      jump\t// in\n    tag_146:\n        /* \"#utility.yul\":5995:6079   */\n    tag_145:\n        /* \"#utility.yul\":5816:6085   */\n      pop\n        /* \"#utility.yul\":5765:6085   */\n      swap2\n      swap1\n      pop\n      jump\t// out\n        /* \"#utility.yul\":6091:6232   */\n    tag_61:\n        /* \"#utility.yul\":6140:6144   */\n      0x00\n        /* \"#utility.yul\":6163:6166   */\n      dup2\n        /* \"#utility.yul\":6155:6166   */\n      swap1\n      pop\n        /* \"#utility.yul\":6186:6189   */\n      dup2\n        /* \"#utility.yul\":6183:6184   */\n      0x00\n        /* \"#utility.yul\":6176:6190   */\n      mstore\n        /* \"#utility.yul\":6220:6224   */\n      0x20\n        /* \"#utility.yul\":6217:6218   */\n      0x00\n        /* \"#utility.yul\":6207:6225   */\n      keccak256\n        /* \"#utility.yul\":6199:6225   */\n      swap1\n      pop\n        /* \"#utility.yul\":6091:6232   */\n      swap2\n      swap1\n      pop\n      jump\t// out\n        /* \"#utility.yul\":6238:6331   */\n    tag_62:\n        /* \"#utility.yul\":6275:6281   */\n      0x00\n        /* \"#utility.yul\":6322:6324   */\n      0x20\n        /* \"#utility.yul\":6317:6319   */\n      0x1f\n        /* \"#utility.yul\":6310:6315   */\n      dup4\n        /* \"#utility.yul\":6306:6320   */\n      add\n        /* \"#utility.yul\":6302:6325   */\n      div\n        /* \"#utility.yul\":6292:6325   */\n      swap1\n      pop\n        /* \"#utility.yul\":6238:6331   */\n      swap2\n      swap1\n      pop\n      jump\t// out\n        /* \"#utility.yul\":6337:6444   */\n    tag_63:\n        /* \"#utility.yul\":6381:6389   */\n      0x00\n        /* \"#utility.yul\":6431:6436   */\n      dup3\n        /* \"#utility.yul\":6425:6429   */\n      dup3\n        /* \"#utility.yul\":6421:6437   */\n      shl\n        /* \"#utility.yul\":6400:6437   */\n      swap1\n      pop\n        /* \"#utility.yul\":6337:6444   */\n      swap3\n      swap2\n      pop\n      pop\n      jump\t// out\n        /* \"#utility.yul\":6450:6843   */\n    tag_64:\n        /* \"#utility.yul\":6519:6525   */\n      0x00\n        /* \"#utility.yul\":6569:6570   */\n      0x08\n        /* \"#utility.yul\":6557:6567   */\n      dup4\n        /* \"#utility.yul\":6553:6571   */\n      mul\n        /* \"#utility.yul\":6592:6689   */\n      tag_151\n        /* \"#utility.yul\":6622:6688   */\n      0xffffffffffffffffffffffffffffffffffffffffffffffffffffffffffffffff\n        /* \"#utility.yul\":6611:6620   */\n      dup3\n        /* \"#utility.yul\":6592:6689   */\n      tag_63\n      jump\t// in\n    tag_151:\n        /* \"#utility.yul\":6710:6749   */\n      tag_152\n        /* \"#utility.yul\":6740:6748   */\n      dup7\n        /* \"#utility.yul\":6729:6738   */\n      dup4\n        /* \"#utility.yul\":6710:6749   */\n      tag_63\n      jump\t// in\n    tag_152:\n        /* \"#utility.yul\":6698:6749   */\n      swap6\n      pop\n        /* \"#utility.yul\":6782:6786   */\n      dup1\n        /* \"#utility.yul\":6778:6787   */\n      not\n        /* \"#utility.yul\":6771:6776   */\n      dup5\n        /* \"#utility.yul\":6767:6788   */\n      and\n        /* \"#utility.yul\":6758:6788   */\n      swap4\n      pop\n        /* \"#utility.yul\":6831:6835   */\n      dup1\n        /* \"#utility.yul\":6821:6829   */\n      dup7\n        /* \"#utility.yul\":6817:6836   */\n      and\n        /* \"#utility.yul\":6810:6815   */\n      dup5\n        /* \"#utility.yul\":6807:6837   */\n      or\n        /* \"#utility.yul\":6797:6837   */\n      swap3\n      pop\n        /* \"#utility.yul\":6526:6843   */\n      pop\n      pop\n        /* \"#utility.yul\":6450:6843   */\n      swap4\n      swap3\n      pop\n      pop\n      pop\n      jump\t// out\n        /* \"#utility.yul\":6849:6909   */\n    tag_65:\n        /* \"#utility.yul\":6877:6880   */\n      0x00\n        /* \"#utility.yul\":6898:6903   */\n      dup2\n        /* \"#utility.yul\":6891:6903   */\n      swap1\n      pop\n        /* \"#utility.yul\":6849:6909   */\n      swap2\n      swap1\n      pop\n      jump\t// out\n        /* \"#utility.yul\":6915:7057   */\n    tag_66:\n        /* \"#utility.yul\":6965:6974   */\n      0x00\n        /* \"#utility.yul\":6998:7051   */\n      tag_155\n        /* \"#utility.yul\":7016:7050   */\n      tag_156\n        /* \"#utility.yul\":7025:7049   */\n      tag_157\n        /* \"#utility.yul\":7043:7048   */\n      dup5\n        /* \"#utility.yul\":7025:7049   */\n      tag_40\n      jump\t// in\n    tag_157:\n        /* \"#utility.yul\":7016:7050   */\n      tag_65\n      jump\t// in\n    tag_156:\n        /* \"#utility.yul\":6998:7051   */\n      tag_40\n      jump\t// in\n    tag_155:\n        /* \"#utility.yul\":6985:7051   */\n      swap1\n      pop\n        /* \"#utility.yul\":6915:7057   */\n      swap2\n      swap1\n      pop\n      jump\t// out\n        /* \"#utility.yul\":7063:7138   */\n    tag_67:\n        /* \"#utility.yul\":7106:7109   */\n      0x00\n        /* \"#utility.yul\":7127:7132   */\n      dup2\n        /* \"#utility.yul\":7120:7132   */\n      swap1\n      pop\n        /* \"#utility.yul\":7063:7138   */\n      swap2\n      swap1\n      pop\n      jump\t// out\n        /* \"#utility.yul\":7144:7413   */\n    tag_68:\n        /* \"#utility.yul\":7254:7293   */\n      tag_160\n        /* \"#utility.yul\":7285:7292   */\n      dup4\n        /* \"#utility.yul\":7254:7293   */\n      tag_66\n      jump\t// in\n    tag_160:\n        /* \"#utility.yul\":7315:7406   */\n      tag_161\n        /* \"#utility.yul\":7364:7405   */\n      tag_162\n        /* \"#utility.yul\":7388:7404   */\n      dup3\n        /* \"#utility.yul\":7364:7405   */\n      tag_67\n      jump\t// in\n    tag_162:\n        /* \"#utility.yul\":7356:7362   */\n      dup5\n        /* \"#utility.yul\":7349:7353   */\n      dup5\n        /* \"#utility.yul\":7343:7354   */\n      sload\n        /* \"#utility.yul\":7315:7406   */\n      tag_64\n      jump\t// in\n    tag_161:\n        /* \"#utility.yul\":7309:7313   */\n      dup3\n        /* \"#utility.yul\":7302:7407   */\n      sstore\n        /* \"#utility.yul\":7220:7413   */\n      pop\n        /* \"#utility.yul\":7144:7413   */\n      pop\n      pop\n      pop\n      jump\t// out\n        /* \"#utility.yul\":7419:7492   */\n    tag_69:\n        /* \"#utility.yul\":7464:7467   */\n      0x00\n        /* \"#utility.yul\":7419:7492   */\n      swap1\n      jump\t// out\n        /* \"#utility.yul\":7498:7687   */\n    tag_70:\n        /* \"#utility.yul\":7575:7607   */\n      tag_165\n      tag_69\n      jump\t// in\n    tag_165:\n        /* \"#utility.yul\":7616:7681   */\n      tag_166\n        /* \"#utility.yul\":7674:7680   */\n      dup2\n        /* \"#utility.yul\":7666:7672   */\n      dup5\n        /* \"#utility.yul\":7660:7664   */\n      dup5\n        /* \"#utility.yul\":7616:7681   */\n      tag_68\n      jump\t// in\n    tag_166:\n        /* \"#utility.yul\":7551:7687   */\n      pop\n        /* \"#utility.yul\":7498:7687   */\n      pop\n      pop\n      jump\t// out\n        /* \"#utility.yul\":7693:7879   */\n    tag_71:\n        /* \"#utility.yul\":7753:7873   */\n    tag_168:\n        /* \"#utility.yul\":7770:7773   */\n      dup2\n        /* \"#utility.yul\":7763:7768   */\n      dup2\n        /* \"#utility.yul\":7760:7774   */\n      lt\n        /* \"#utility.yul\":7753:7873   */\n      iszero\n      tag_170\n      jumpi\n        /* \"#utility.yul\":7824:7863   */\n      tag_171\n        /* \"#utility.yul\":7861:7862   */\n      0x00\n        /* \"#utility.yul\":7854:7859   */\n      dup3\n        /* \"#utility.yul\":7824:7863   */\n      tag_70\n      jump\t// in\n    tag_171:\n        /* \"#utility.yul\":7797:7798   */\n      0x01\n        /* \"#utility.yul\":7790:7795   */\n      dup2\n        /* \"#utility.yul\":7786:7799   */\n      add\n        /* \"#utility.yul\":7777:7799   */\n      swap1\n      pop\n        /* \"#utility.yul\":7753:7873   */\n      jump(tag_168)\n    tag_170:\n        /* \"#utility.yul\":7693:7879   */\n      pop\n      pop\n      jump\t// out\n        /* \"#utility.yul\":7885:8428   */\n    tag_72:\n        /* \"#utility.yul\":7986:7988   */\n      0x1f\n        /* \"#utility.yul\":7981:7984   */\n      dup3\n        /* \"#utility.yul\":7978:7989   */\n      gt\n        /* \"#utility.yul\":7975:8421   */\n      iszero\n      tag_173\n      jumpi\n        /* \"#utility.yul\":8020:8058   */\n      tag_174\n        /* \"#utility.yul\":8052:8057   */\n      dup2\n        /* \"#utility.yul\":8020:8058   */\n      tag_61\n      jump\t// in\n    tag_174:\n        /* \"#utility.yul\":8104:8133   */\n      tag_175\n        /* \"#utility.yul\":8122:8132   */\n      dup5\n        /* \"#utility.yul\":8104:8133   */\n      tag_62\n      jump\t// in\n    tag_175:\n        /* \"#utility.yul\":8094:8102   */\n      dup2\n        /* \"#utility.yul\":8090:8134   */\n      add\n        /* \"#utility.yul\":8287:8289   */\n      0x20\n        /* \"#utility.yul\":8275:8285   */\n      dup6\n        /* \"#utility.yul\":8272:8290   */\n      lt\n        /* \"#utility.yul\":8269:8318   */\n      iszero\n      tag_176\n      jumpi\n        /* \"#utility.yul\":8308:8316   */\n      dup2\n        /* \"#utility.yul\":8293:8316   */\n      swap1\n      pop\n        /* \"#utility.yul\":8269:8318   */\n    tag_176:\n        /* \"#utility.yul\":8331:8411   */\n      tag_177\n        /* \"#utility.yul\":8387:8409   */\n      tag_178\n        /* \"#utility.yul\":8405:8408   */\n      dup6\n        /* \"#utility.yul\":8387:8409   */\n      tag_62\n      jump\t// in\n    tag_178:\n        /* \"#utility.yul\":8377:8385   */\n      dup4\n        /* \"#utility.yul\":8373:8410   */\n      add\n        /* \"#utility.yul\":8360:8371   */\n      dup3\n        /* \"#utility.yul\":8331:8411   */\n      tag_71\n      jump\t// in\n    tag_177:\n        /* \"#utility.yul\":7990:8421   */\n      pop\n      pop\n        /* \"#utility.yul\":7975:8421   */\n    tag_173:\n        /* \"#utility.yul\":7885:8428   */\n      pop\n      pop\n      pop\n      jump\t// out\n        /* \"#utility.yul\":8434:8551   */\n    tag_73:\n        /* \"#utility.yul\":8488:8496   */\n      0x00\n        /* \"#utility.yul\":8538:8543   */\n      dup3\n        /* \"#utility.yul\":8532:8536   */\n      dup3\n        /* \"#utility.yul\":8528:8544   */\n      shr\n        /* \"#utility.yul\":8507:8544   */\n      swap1\n      pop\n        /* \"#utility.yul\":8434:8551   */\n      swap3\n      swap2\n      pop\n      pop\n      jump\t// out\n        /* \"#utility.yul\":8557:8726   */\n    tag_74:\n        /* \"#utility.yul\":8601:8607   */\n      0x00\n        /* \"#utility.yul\":8634:8685   */\n      tag_181\n        /* \"#utility.yul\":8682:8683   */\n      0x00\n        /* \"#utility.yul\":8678:8684   */\n      not\n        /* \"#utility.yul\":8670:8675   */\n      dup5\n        /* \"#utility.yul\":8667:8668   */\n      0x08\n        /* \"#utility.yul\":8663:8676   */\n      mul\n        /* \"#utility.yul\":8634:8685   */\n      tag_73\n      jump\t// in\n    tag_181:\n        /* \"#utility.yul\":8630:8686   */\n      not\n        /* \"#utility.yul\":8715:8719   */\n      dup1\n        /* \"#utility.yul\":8709:8713   */\n      dup4\n        /* \"#utility.yul\":8705:8720   */\n      and\n        /* \"#utility.yul\":8695:8720   */\n      swap2\n      pop\n        /* \"#utility.yul\":8608:8726   */\n      pop\n        /* \"#utility.yul\":8557:8726   */\n      swap3\n      swap2\n      pop\n      pop\n      jump\t// out\n        /* \"#utility.yul\":8731:9026   */\n    tag_75:\n        /* \"#utility.yul\":8807:8811   */\n      0x00\n        /* \"#utility.yul\":8953:8982   */\n      tag_183\n        /* \"#utility.yul\":8978:8981   */\n      dup4\n        /* \"#utility.yul\":8972:8976   */\n      dup4\n        /* \"#utility.yul\":8953:8982   */\n      tag_74\n      jump\t// in\n    tag_183:\n        /* \"#utility.yul\":8945:8982   */\n      swap2\n      pop\n        /* \"#utility.yul\":9015:9018   */\n      dup3\n        /* \"#utility.yul\":9012:9013   */\n      0x02\n        /* \"#utility.yul\":9008:9019   */\n      mul\n        /* \"#utility.yul\":9002:9006   */\n      dup3\n        /* \"#utility.yul\":8999:9020   */\n      or\n        /* \"#utility.yul\":8991:9020   */\n      swap1\n      pop\n        /* \"#utility.yul\":8731:9026   */\n      swap3\n      swap2\n      pop\n      pop\n      jump\t// out\n        /* \"#utility.yul\":9031:10426   */\n    tag_25:\n        /* \"#utility.yul\":9148:9185   */\n      tag_185\n        /* \"#utility.yul\":9181:9184   */\n      dup3\n        /* \"#utility.yul\":9148:9185   */\n      tag_56\n      jump\t// in\n    tag_185:\n        /* \"#utility.yul\":9250:9268   */\n      0xffffffffffffffff\n        /* \"#utility.yul\":9242:9248   */\n      dup2\n        /* \"#utility.yul\":9239:9269   */\n      gt\n        /* \"#utility.yul\":9236:9292   */\n      iszero\n      tag_186\n      jumpi\n        /* \"#utility.yul\":9272:9290   */\n      tag_187\n      tag_49\n      jump\t// in\n    tag_187:\n        /* \"#utility.yul\":9236:9292   */\n    tag_186:\n        /* \"#utility.yul\":9316:9354   */\n      tag_188\n        /* \"#utility.yul\":9348:9352   */\n      dup3\n        /* \"#utility.yul\":9342:9353   */\n      sload\n        /* \"#utility.yul\":9316:9354   */\n      tag_27\n      jump\t// in\n    tag_188:\n        /* \"#utility.yul\":9401:9468   */\n      tag_189\n        /* \"#utility.yul\":9461:9467   */\n      dup3\n        /* \"#utility.yul\":9453:9459   */\n      dup3\n        /* \"#utility.yul\":9447:9451   */\n      dup6\n        /* \"#utility.yul\":9401:9468   */\n      tag_72\n      jump\t// in\n    tag_189:\n        /* \"#utility.yul\":9495:9496   */\n      0x00\n        /* \"#utility.yul\":9519:9523   */\n      0x20\n        /* \"#utility.yul\":9506:9523   */\n      swap1\n      pop\n        /* \"#utility.yul\":9551:9553   */\n      0x1f\n        /* \"#utility.yul\":9543:9549   */\n      dup4\n        /* \"#utility.yul\":9540:9554   */\n      gt\n        /* \"#utility.yul\":9568:9569   */\n      0x01\n        /* \"#utility.yul\":9563:10181   */\n      dup2\n      eq\n      tag_191\n      jumpi\n        /* \"#utility.yul\":10225:10226   */\n      0x00\n        /* \"#utility.yul\":10242:10248   */\n      dup5\n        /* \"#utility.yul\":10239:10316   */\n      iszero\n      tag_192\n      jumpi\n        /* \"#utility.yul\":10291:10300   */\n      dup3\n        /* \"#utility.yul\":10286:10289   */\n      dup8\n        /* \"#utility.yul\":10282:10301   */\n      add\n        /* \"#utility.yul\":10276:10302   */\n      mload\n        /* \"#utility.yul\":10267:10302   */\n      swap1\n      pop\n        /* \"#utility.yul\":10239:10316   */\n    tag_192:\n        /* \"#utility.yul\":10342:10409   */\n      tag_193\n        /* \"#utility.yul\":10402:10408   */\n      dup6\n        /* \"#utility.yul\":10395:10400   */\n      dup3\n        /* \"#utility.yul\":10342:10409   */\n      tag_75\n      jump\t// in\n    tag_193:\n        /* \"#utility.yul\":10336:10340   */\n      dup7\n        /* \"#utility.yul\":10329:10410   */\n      sstore\n        /* \"#utility.yul\":10198:10420   */\n      pop\n        /* \"#utility.yul\":9533:10420   */\n      jump(tag_190)\n        /* \"#utility.yul\":9563:10181   */\n    tag_191:\n        /* \"#utility.yul\":9615:9619   */\n      0x1f\n        /* \"#utility.yul\":9611:9620   */\n      not\n        /* \"#utility.yul\":9603:9609   */\n      dup5\n        /* \"#utility.yul\":9599:9621   */\n      and\n        /* \"#utility.yul\":9649:9686   */\n      tag_194\n        /* \"#utility.yul\":9681:9685   */\n      dup7\n        /* \"#utility.yul\":9649:9686   */\n      tag_61\n      jump\t// in\n    tag_194:\n        /* \"#utility.yul\":9708:9709   */\n      0x00\n        /* \"#utility.yul\":9722:9930   */\n    tag_195:\n        /* \"#utility.yul\":9736:9743   */\n      dup3\n        /* \"#utility.yul\":9733:9734   */\n      dup2\n        /* \"#utility.yul\":9730:9744   */\n      lt\n        /* \"#utility.yul\":9722:9930   */\n      iszero\n      tag_197\n      jumpi\n        /* \"#utility.yul\":9815:9824   */\n      dup5\n        /* \"#utility.yul\":9810:9813   */\n      dup10\n        /* \"#utility.yul\":9806:9825   */\n      add\n        /* \"#utility.yul\":9800:9826   */\n      mload\n        /* \"#utility.yul\":9792:9798   */\n      dup3\n        /* \"#utility.yul\":9785:9827   */\n      sstore\n        /* \"#utility.yul\":9866:9867   */\n      0x01\n        /* \"#utility.yul\":9858:9864   */\n      dup3\n        /* \"#utility.yul\":9854:9868   */\n      add\n        /* \"#utility.yul\":9844:9868   */\n      swap2\n      pop\n        /* \"#utility.yul\":9913:9915   */\n      0x20\n        /* \"#utility.yul\":9902:9911   */\n      dup6\n        /* \"#utility.yul\":9898:9916   */\n      add\n        /* \"#utility.yul\":9885:9916   */\n      swap5\n      pop\n        /* \"#utility.yul\":9759:9763   */\n      0x20\n        /* \"#utility.yul\":9756:9757   */\n      dup2\n        /* \"#utility.yul\":9752:9764   */\n      add\n        /* \"#utility.yul\":9747:9764   */\n      swap1\n      pop\n        /* \"#utility.yul\":9722:9930   */\n      jump(tag_195)\n    tag_197:\n        /* \"#utility.yul\":9958:9964   */\n      dup7\n        /* \"#utility.yul\":9949:9956   */\n      dup4\n        /* \"#utility.yul\":9946:9965   */\n      lt\n        /* \"#utility.yul\":9943:10122   */\n      iszero\n      tag_198\n      jumpi\n        /* \"#utility.yul\":10016:10025   */\n      dup5\n        /* \"#utility.yul\":10011:10014   */\n      dup10\n        /* \"#utility.yul\":10007:10026   */\n      add\n        /* \"#utility.yul\":10001:10027   */\n      mload\n        /* \"#utility.yul\":10059:10107   */\n      tag_199\n        /* \"#utility.yul\":10101:10105   */\n      0x1f\n        /* \"#utility.yul\":10093:10099   */\n      dup10\n        /* \"#utility.yul\":10089:10106   */\n      and\n        /* \"#utility.yul\":10078:10087   */\n      dup3\n        /* \"#utility.yul\":10059:10107   */\n      tag_74\n      jump\t// in\n    tag_199:\n        /* \"#utility.yul\":10051:10057   */\n      dup4\n        /* \"#utility.yul\":10044:10108   */\n      sstore\n        /* \"#utility.yul\":9966:10122   */\n      pop\n        /* \"#utility.yul\":9943:10122   */\n    tag_198:\n        /* \"#utility.yul\":10168:10169   */\n      0x01\n        /* \"#utility.yul\":10164:10165   */\n      0x02\n        /* \"#utility.yul\":10156:10162   */\n      dup9\n        /* \"#utility.yul\":10152:10166   */\n      mul\n        /* \"#utility.yul\":10148:10170   */\n      add\n        /* \"#utility.yul\":10142:10146   */\n      dup9\n        /* \"#utility.yul\":10135:10171   */\n      sstore\n        /* \"#utility.yul\":9570:10181   */\n      pop\n      pop\n      pop\n        /* \"#utility.yul\":9533:10420   */\n    tag_190:\n      pop\n        /* \"#utility.yul\":9123:10426   */\n      pop\n      pop\n      pop\n        /* \"#utility.yul\":9031:10426   */\n      pop\n      pop\n      jump\t// out\n\n    auxdata: 0xa2646970667358221220055c9e1b45e9a83dffd6fc35088666a2f10417ac06a025490b2e936437a80e6564736f6c63430008160033\n}\n",
				"bytecode": {
					"linkReferences": {},
					"object": "60806040526040518060400160405280601181526020017f49204c6f766520426c6f636b636861696e0000000000000000000000000000008152505f9081620000499190620004e4565b506040518060a00160405280733f486a757f46f5fd90889105235c0f6a99b40f5173ffffffffffffffffffffffffffffffffffffffff1673ffffffffffffffffffffffffffffffffffffffff16815260200173ab8483f64d9c6d1ecf9b849ae677dd3315835cb273ffffffffffffffffffffffffffffffffffffffff1673ffffffffffffffffffffffffffffffffffffffff168152602001735c6b0f7bf3e7ce046039bd8fabdfd3f9f502167873ffffffffffffffffffffffffffffffffffffffff1673ffffffffffffffffffffffffffffffffffffffff16815260200173dd870fa1b7c4700f2bd7f44238821c26f739214873ffffffffffffffffffffffffffffffffffffffff1673ffffffffffffffffffffffffffffffffffffffff1681526020017317f6ad8ef982297579c203069c1dbffe4348c37273ffffffffffffffffffffffffffffffffffffffff1673ffffffffffffffffffffffffffffffffffffffff168152506001906005620001c3929190620001d7565b50348015620001d0575f80fd5b50620005c8565b828054828255905f5260205f2090810192821562000250579160200282015b828111156200024f578251825f6101000a81548173ffffffffffffffffffffffffffffffffffffffff021916908373ffffffffffffffffffffffffffffffffffffffff16021790555091602001919060010190620001f6565b5b5090506200025f919062000263565b5090565b5b808211156200027c575f815f90555060010162000264565b5090565b5f81519050919050565b7f4e487b71000000000000000000000000000000000000000000000000000000005f52604160045260245ffd5b7f4e487b71000000000000000000000000000000000000000000000000000000005f52602260045260245ffd5b5f6002820490506001821680620002fc57607f821691505b602082108103620003125762000311620002b7565b5b50919050565b5f819050815f5260205f209050919050565b5f6020601f8301049050919050565b5f82821b905092915050565b5f60088302620003767fffffffffffffffffffffffffffffffffffffffffffffffffffffffffffffffff8262000339565b62000382868362000339565b95508019841693508086168417925050509392505050565b5f819050919050565b5f819050919050565b5f620003cc620003c6620003c0846200039a565b620003a3565b6200039a565b9050919050565b5f819050919050565b620003e783620003ac565b620003ff620003f682620003d3565b84845462000345565b825550505050565b5f90565b6200041562000407565b62000422818484620003dc565b505050565b5b8181101562000449576200043d5f826200040b565b60018101905062000428565b5050565b601f8211156200049857620004628162000318565b6200046d846200032a565b810160208510156200047d578190505b620004956200048c856200032a565b83018262000427565b50505b505050565b5f82821c905092915050565b5f620004ba5f19846008026200049d565b1980831691505092915050565b5f620004d48383620004a9565b9150826002028217905092915050565b620004ef8262000280565b67ffffffffffffffff8111156200050b576200050a6200028a565b5b620005178254620002e4565b620005248282856200044d565b5f60209050601f8311600181146200055a575f841562000545578287015190505b620005518582620004c7565b865550620005c0565b601f1984166200056a8662000318565b5f5b8281101562000593578489015182556001820191506020850194506020810190506200056c565b86831015620005b35784890151620005af601f891682620004a9565b8355505b6001600288020188555050505b505050505050565b61080a80620005d65f395ff3fe608060405234801561000f575f80fd5b506004361061003f575f3560e01c80632757a1a314610043578063bf56659914610073578063fae2dd4b146100a3575b5f80fd5b61005d6004803603810190610058919061026b565b6100c1565b60405161006a91906102d5565b60405180910390f35b61008d6004803603810190610088919061042a565b6100fc565b60405161009a91906104eb565b60405180910390f35b6100ab61019c565b6040516100b891906104eb565b60405180910390f35b600181815481106100d0575f80fd5b905f5260205f20015f915054906101000a900473ffffffffffffffffffffffffffffffffffffffff1681565b6060815f908161010c9190610705565b505f805461011990610538565b80601f016020809104026020016040519081016040528092919081815260200182805461014590610538565b80156101905780601f1061016757610100808354040283529160200191610190565b820191905f5260205f20905b81548152906001019060200180831161017357829003601f168201915b50505050509050919050565b5f80546101a890610538565b80601f01602080910402602001604051908101604052809291908181526020018280546101d490610538565b801561021f5780601f106101f65761010080835404028352916020019161021f565b820191905f5260205f20905b81548152906001019060200180831161020257829003601f168201915b505050505081565b5f604051905090565b5f80fd5b5f80fd5b5f819050919050565b61024a81610238565b8114610254575f80fd5b50565b5f8135905061026581610241565b92915050565b5f602082840312156102805761027f610230565b5b5f61028d84828501610257565b91505092915050565b5f73ffffffffffffffffffffffffffffffffffffffff82169050919050565b5f6102bf82610296565b9050919050565b6102cf816102b5565b82525050565b5f6020820190506102e85f8301846102c6565b92915050565b5f80fd5b5f80fd5b5f601f19601f8301169050919050565b7f4e487b71000000000000000000000000000000000000000000000000000000005f52604160045260245ffd5b61033c826102f6565b810181811067ffffffffffffffff8211171561035b5761035a610306565b5b80604052505050565b5f61036d610227565b90506103798282610333565b919050565b5f67ffffffffffffffff82111561039857610397610306565b5b6103a1826102f6565b9050602081019050919050565b828183375f83830152505050565b5f6103ce6103c98461037e565b610364565b9050828152602081018484840111156103ea576103e96102f2565b5b6103f58482856103ae565b509392505050565b5f82601f830112610411576104106102ee565b5b81356104218482602086016103bc565b91505092915050565b5f6020828403121561043f5761043e610230565b5b5f82013567ffffffffffffffff81111561045c5761045b610234565b5b610468848285016103fd565b91505092915050565b5f81519050919050565b5f82825260208201905092915050565b5f5b838110156104a857808201518184015260208101905061048d565b5f8484015250505050565b5f6104bd82610471565b6104c7818561047b565b93506104d781856020860161048b565b6104e0816102f6565b840191505092915050565b5f6020820190508181035f83015261050381846104b3565b905092915050565b7f4e487b71000000000000000000000000000000000000000000000000000000005f52602260045260245ffd5b5f600282049050600182168061054f57607f821691505b6020821081036105625761056161050b565b5b50919050565b5f819050815f5260205f209050919050565b5f6020601f8301049050919050565b5f82821b905092915050565b5f600883026105c47fffffffffffffffffffffffffffffffffffffffffffffffffffffffffffffffff82610589565b6105ce8683610589565b95508019841693508086168417925050509392505050565b5f819050919050565b5f6106096106046105ff84610238565b6105e6565b610238565b9050919050565b5f819050919050565b610622836105ef565b61063661062e82610610565b848454610595565b825550505050565b5f90565b61064a61063e565b610655818484610619565b505050565b5b818110156106785761066d5f82610642565b60018101905061065b565b5050565b601f8211156106bd5761068e81610568565b6106978461057a565b810160208510156106a6578190505b6106ba6106b28561057a565b83018261065a565b50505b505050565b5f82821c905092915050565b5f6106dd5f19846008026106c2565b1980831691505092915050565b5f6106f583836106ce565b9150826002028217905092915050565b61070e82610471565b67ffffffffffffffff81111561072757610726610306565b5b6107318254610538565b61073c82828561067c565b5f60209050601f83116001811461076d575f841561075b578287015190505b61076585826106ea565b8655506107cc565b601f19841661077b86610568565b5f5b828110156107a25784890151825560018201915060208501945060208101905061077d565b868310156107bf57848901516107bb601f8916826106ce565b8355505b6001600288020188555050505b50505050505056fea2646970667358221220055c9e1b45e9a83dffd6fc35088666a2f10417ac06a025490b2e936437a80e6564736f6c63430008160033",
					"opcodes": "PUSH1 0x80 PUSH1 0x40 MSTORE PUSH1 0x40 MLOAD DUP1 PUSH1 0x40 ADD PUSH1 0x40 MSTORE DUP1 PUSH1 0x11 DUP2 MSTORE PUSH1 0x20 ADD PUSH32 0x49204C6F766520426C6F636B636861696E000000000000000000000000000000 DUP2 MSTORE POP PUSH0 SWAP1 DUP2 PUSH3 0x49 SWAP2 SWAP1 PUSH3 0x4E4 JUMP JUMPDEST POP PUSH1 0x40 MLOAD DUP1 PUSH1 0xA0 ADD PUSH1 0x40 MSTORE DUP1 PUSH20 0x3F486A757F46F5FD90889105235C0F6A99B40F51 PUSH20 0xFFFFFFFFFFFFFFFFFFFFFFFFFFFFFFFFFFFFFFFF AND PUSH20 0xFFFFFFFFFFFFFFFFFFFFFFFFFFFFFFFFFFFFFFFF AND DUP2 MSTORE PUSH1 0x20 ADD PUSH20 0xAB8483F64D9C6D1ECF9B849AE677DD3315835CB2 PUSH20 0xFFFFFFFFFFFFFFFFFFFFFFFFFFFFFFFFFFFFFFFF AND PUSH20 0xFFFFFFFFFFFFFFFFFFFFFFFFFFFFFFFFFFFFFFFF AND DUP2 MSTORE PUSH1 0x20 ADD PUSH20 0x5C6B0F7BF3E7CE046039BD8FABDFD3F9F5021678 PUSH20 0xFFFFFFFFFFFFFFFFFFFFFFFFFFFFFFFFFFFFFFFF AND PUSH20 0xFFFFFFFFFFFFFFFFFFFFFFFFFFFFFFFFFFFFFFFF AND DUP2 MSTORE PUSH1 0x20 ADD PUSH20 0xDD870FA1B7C4700F2BD7F44238821C26F7392148 PUSH20 0xFFFFFFFFFFFFFFFFFFFFFFFFFFFFFFFFFFFFFFFF AND PUSH20 0xFFFFFFFFFFFFFFFFFFFFFFFFFFFFFFFFFFFFFFFF AND DUP2 MSTORE PUSH1 0x20 ADD PUSH20 0x17F6AD8EF982297579C203069C1DBFFE4348C372 PUSH20 0xFFFFFFFFFFFFFFFFFFFFFFFFFFFFFFFFFFFFFFFF AND PUSH20 0xFFFFFFFFFFFFFFFFFFFFFFFFFFFFFFFFFFFFFFFF AND DUP2 MSTORE POP PUSH1 0x1 SWAP1 PUSH1 0x5 PUSH3 0x1C3 SWAP3 SWAP2 SWAP1 PUSH3 0x1D7 JUMP JUMPDEST POP CALLVALUE DUP1 ISZERO PUSH3 0x1D0 JUMPI PUSH0 DUP1 REVERT JUMPDEST POP PUSH3 0x5C8 JUMP JUMPDEST DUP3 DUP1 SLOAD DUP3 DUP3 SSTORE SWAP1 PUSH0 MSTORE PUSH1 0x20 PUSH0 KECCAK256 SWAP1 DUP2 ADD SWAP3 DUP3 ISZERO PUSH3 0x250 JUMPI SWAP2 PUSH1 0x20 MUL DUP3 ADD JUMPDEST DUP3 DUP2 GT ISZERO PUSH3 0x24F JUMPI DUP3 MLOAD DUP3 PUSH0 PUSH2 0x100 EXP DUP2 SLOAD DUP2 PUSH20 0xFFFFFFFFFFFFFFFFFFFFFFFFFFFFFFFFFFFFFFFF MUL NOT AND SWAP1 DUP4 PUSH20 0xFFFFFFFFFFFFFFFFFFFFFFFFFFFFFFFFFFFFFFFF AND MUL OR SWAP1 SSTORE POP SWAP2 PUSH1 0x20 ADD SWAP2 SWAP1 PUSH1 0x1 ADD SWAP1 PUSH3 0x1F6 JUMP JUMPDEST JUMPDEST POP SWAP1 POP PUSH3 0x25F SWAP2 SWAP1 PUSH3 0x263 JUMP JUMPDEST POP SWAP1 JUMP JUMPDEST JUMPDEST DUP1 DUP3 GT ISZERO PUSH3 0x27C JUMPI PUSH0 DUP2 PUSH0 SWAP1 SSTORE POP PUSH1 0x1 ADD PUSH3 0x264 JUMP JUMPDEST POP SWAP1 JUMP JUMPDEST PUSH0 DUP2 MLOAD SWAP1 POP SWAP2 SWAP1 POP JUMP JUMPDEST PUSH32 0x4E487B7100000000000000000000000000000000000000000000000000000000 PUSH0 MSTORE PUSH1 0x41 PUSH1 0x4 MSTORE PUSH1 0x24 PUSH0 REVERT JUMPDEST PUSH32 0x4E487B7100000000000000000000000000000000000000000000000000000000 PUSH0 MSTORE PUSH1 0x22 PUSH1 0x4 MSTORE PUSH1 0x24 PUSH0 REVERT JUMPDEST PUSH0 PUSH1 0x2 DUP3 DIV SWAP1 POP PUSH1 0x1 DUP3 AND DUP1 PUSH3 0x2FC JUMPI PUSH1 0x7F DUP3 AND SWAP2 POP JUMPDEST PUSH1 0x20 DUP3 LT DUP2 SUB PUSH3 0x312 JUMPI PUSH3 0x311 PUSH3 0x2B7 JUMP JUMPDEST JUMPDEST POP SWAP2 SWAP1 POP JUMP JUMPDEST PUSH0 DUP2 SWAP1 POP DUP2 PUSH0 MSTORE PUSH1 0x20 PUSH0 KECCAK256 SWAP1 POP SWAP2 SWAP1 POP JUMP JUMPDEST PUSH0 PUSH1 0x20 PUSH1 0x1F DUP4 ADD DIV SWAP1 POP SWAP2 SWAP1 POP JUMP JUMPDEST PUSH0 DUP3 DUP3 SHL SWAP1 POP SWAP3 SWAP2 POP POP JUMP JUMPDEST PUSH0 PUSH1 0x8 DUP4 MUL PUSH3 0x376 PUSH32 0xFFFFFFFFFFFFFFFFFFFFFFFFFFFFFFFFFFFFFFFFFFFFFFFFFFFFFFFFFFFFFFFF DUP3 PUSH3 0x339 JUMP JUMPDEST PUSH3 0x382 DUP7 DUP4 PUSH3 0x339 JUMP JUMPDEST SWAP6 POP DUP1 NOT DUP5 AND SWAP4 POP DUP1 DUP7 AND DUP5 OR SWAP3 POP POP POP SWAP4 SWAP3 POP POP POP JUMP JUMPDEST PUSH0 DUP2 SWAP1 POP SWAP2 SWAP1 POP JUMP JUMPDEST PUSH0 DUP2 SWAP1 POP SWAP2 SWAP1 POP JUMP JUMPDEST PUSH0 PUSH3 0x3CC PUSH3 0x3C6 PUSH3 0x3C0 DUP5 PUSH3 0x39A JUMP JUMPDEST PUSH3 0x3A3 JUMP JUMPDEST PUSH3 0x39A JUMP JUMPDEST SWAP1 POP SWAP2 SWAP1 POP JUMP JUMPDEST PUSH0 DUP2 SWAP1 POP SWAP2 SWAP1 POP JUMP JUMPDEST PUSH3 0x3E7 DUP4 PUSH3 0x3AC JUMP JUMPDEST PUSH3 0x3FF PUSH3 0x3F6 DUP3 PUSH3 0x3D3 JUMP JUMPDEST DUP5 DUP5 SLOAD PUSH3 0x345 JUMP JUMPDEST DUP3 SSTORE POP POP POP POP JUMP JUMPDEST PUSH0 SWAP1 JUMP JUMPDEST PUSH3 0x415 PUSH3 0x407 JUMP JUMPDEST PUSH3 0x422 DUP2 DUP5 DUP5 PUSH3 0x3DC JUMP JUMPDEST POP POP POP JUMP JUMPDEST JUMPDEST DUP2 DUP2 LT ISZERO PUSH3 0x449 JUMPI PUSH3 0x43D PUSH0 DUP3 PUSH3 0x40B JUMP JUMPDEST PUSH1 0x1 DUP2 ADD SWAP1 POP PUSH3 0x428 JUMP JUMPDEST POP POP JUMP JUMPDEST PUSH1 0x1F DUP3 GT ISZERO PUSH3 0x498 JUMPI PUSH3 0x462 DUP2 PUSH3 0x318 JUMP JUMPDEST PUSH3 0x46D DUP5 PUSH3 0x32A JUMP JUMPDEST DUP2 ADD PUSH1 0x20 DUP6 LT ISZERO PUSH3 0x47D JUMPI DUP2 SWAP1 POP JUMPDEST PUSH3 0x495 PUSH3 0x48C DUP6 PUSH3 0x32A JUMP JUMPDEST DUP4 ADD DUP3 PUSH3 0x427 JUMP JUMPDEST POP POP JUMPDEST POP POP POP JUMP JUMPDEST PUSH0 DUP3 DUP3 SHR SWAP1 POP SWAP3 SWAP2 POP POP JUMP JUMPDEST PUSH0 PUSH3 0x4BA PUSH0 NOT DUP5 PUSH1 0x8 MUL PUSH3 0x49D JUMP JUMPDEST NOT DUP1 DUP4 AND SWAP2 POP POP SWAP3 SWAP2 POP POP JUMP JUMPDEST PUSH0 PUSH3 0x4D4 DUP4 DUP4 PUSH3 0x4A9 JUMP JUMPDEST SWAP2 POP DUP3 PUSH1 0x2 MUL DUP3 OR SWAP1 POP SWAP3 SWAP2 POP POP JUMP JUMPDEST PUSH3 0x4EF DUP3 PUSH3 0x280 JUMP JUMPDEST PUSH8 0xFFFFFFFFFFFFFFFF DUP2 GT ISZERO PUSH3 0x50B JUMPI PUSH3 0x50A PUSH3 0x28A JUMP JUMPDEST JUMPDEST PUSH3 0x517 DUP3 SLOAD PUSH3 0x2E4 JUMP JUMPDEST PUSH3 0x524 DUP3 DUP3 DUP6 PUSH3 0x44D JUMP JUMPDEST PUSH0 PUSH1 0x20 SWAP1 POP PUSH1 0x1F DUP4 GT PUSH1 0x1 DUP2 EQ PUSH3 0x55A JUMPI PUSH0 DUP5 ISZERO PUSH3 0x545 JUMPI DUP3 DUP8 ADD MLOAD SWAP1 POP JUMPDEST PUSH3 0x551 DUP6 DUP3 PUSH3 0x4C7 JUMP JUMPDEST DUP7 SSTORE POP PUSH3 0x5C0 JUMP JUMPDEST PUSH1 0x1F NOT DUP5 AND PUSH3 0x56A DUP7 PUSH3 0x318 JUMP JUMPDEST PUSH0 JUMPDEST DUP3 DUP2 LT ISZERO PUSH3 0x593 JUMPI DUP5 DUP10 ADD MLOAD DUP3 SSTORE PUSH1 0x1 DUP3 ADD SWAP2 POP PUSH1 0x20 DUP6 ADD SWAP5 POP PUSH1 0x20 DUP2 ADD SWAP1 POP PUSH3 0x56C JUMP JUMPDEST DUP7 DUP4 LT ISZERO PUSH3 0x5B3 JUMPI DUP5 DUP10 ADD MLOAD PUSH3 0x5AF PUSH1 0x1F DUP10 AND DUP3 PUSH3 0x4A9 JUMP JUMPDEST DUP4 SSTORE POP JUMPDEST PUSH1 0x1 PUSH1 0x2 DUP9 MUL ADD DUP9 SSTORE POP POP POP JUMPDEST POP POP POP POP POP POP JUMP JUMPDEST PUSH2 0x80A DUP1 PUSH3 0x5D6 PUSH0 CODECOPY PUSH0 RETURN INVALID PUSH1 0x80 PUSH1 0x40 MSTORE CALLVALUE DUP1 ISZERO PUSH2 0xF JUMPI PUSH0 DUP1 REVERT JUMPDEST POP PUSH1 0x4 CALLDATASIZE LT PUSH2 0x3F JUMPI PUSH0 CALLDATALOAD PUSH1 0xE0 SHR DUP1 PUSH4 0x2757A1A3 EQ PUSH2 0x43 JUMPI DUP1 PUSH4 0xBF566599 EQ PUSH2 0x73 JUMPI DUP1 PUSH4 0xFAE2DD4B EQ PUSH2 0xA3 JUMPI JUMPDEST PUSH0 DUP1 REVERT JUMPDEST PUSH2 0x5D PUSH1 0x4 DUP1 CALLDATASIZE SUB DUP2 ADD SWAP1 PUSH2 0x58 SWAP2 SWAP1 PUSH2 0x26B JUMP JUMPDEST PUSH2 0xC1 JUMP JUMPDEST PUSH1 0x40 MLOAD PUSH2 0x6A SWAP2 SWAP1 PUSH2 0x2D5 JUMP JUMPDEST PUSH1 0x40 MLOAD DUP1 SWAP2 SUB SWAP1 RETURN JUMPDEST PUSH2 0x8D PUSH1 0x4 DUP1 CALLDATASIZE SUB DUP2 ADD SWAP1 PUSH2 0x88 SWAP2 SWAP1 PUSH2 0x42A JUMP JUMPDEST PUSH2 0xFC JUMP JUMPDEST PUSH1 0x40 MLOAD PUSH2 0x9A SWAP2 SWAP1 PUSH2 0x4EB JUMP JUMPDEST PUSH1 0x40 MLOAD DUP1 SWAP2 SUB SWAP1 RETURN JUMPDEST PUSH2 0xAB PUSH2 0x19C JUMP JUMPDEST PUSH1 0x40 MLOAD PUSH2 0xB8 SWAP2 SWAP1 PUSH2 0x4EB JUMP JUMPDEST PUSH1 0x40 MLOAD DUP1 SWAP2 SUB SWAP1 RETURN JUMPDEST PUSH1 0x1 DUP2 DUP2 SLOAD DUP2 LT PUSH2 0xD0 JUMPI PUSH0 DUP1 REVERT JUMPDEST SWAP1 PUSH0 MSTORE PUSH1 0x20 PUSH0 KECCAK256 ADD PUSH0 SWAP2 POP SLOAD SWAP1 PUSH2 0x100 EXP SWAP1 DIV PUSH20 0xFFFFFFFFFFFFFFFFFFFFFFFFFFFFFFFFFFFFFFFF AND DUP2 JUMP JUMPDEST PUSH1 0x60 DUP2 PUSH0 SWAP1 DUP2 PUSH2 0x10C SWAP2 SWAP1 PUSH2 0x705 JUMP JUMPDEST POP PUSH0 DUP1 SLOAD PUSH2 0x119 SWAP1 PUSH2 0x538 JUMP JUMPDEST DUP1 PUSH1 0x1F ADD PUSH1 0x20 DUP1 SWAP2 DIV MUL PUSH1 0x20 ADD PUSH1 0x40 MLOAD SWAP1 DUP2 ADD PUSH1 0x40 MSTORE DUP1 SWAP3 SWAP2 SWAP1 DUP2 DUP2 MSTORE PUSH1 0x20 ADD DUP3 DUP1 SLOAD PUSH2 0x145 SWAP1 PUSH2 0x538 JUMP JUMPDEST DUP1 ISZERO PUSH2 0x190 JUMPI DUP1 PUSH1 0x1F LT PUSH2 0x167 JUMPI PUSH2 0x100 DUP1 DUP4 SLOAD DIV MUL DUP4 MSTORE SWAP2 PUSH1 0x20 ADD SWAP2 PUSH2 0x190 JUMP JUMPDEST DUP3 ADD SWAP2 SWAP1 PUSH0 MSTORE PUSH1 0x20 PUSH0 KECCAK256 SWAP1 JUMPDEST DUP2 SLOAD DUP2 MSTORE SWAP1 PUSH1 0x1 ADD SWAP1 PUSH1 0x20 ADD DUP1 DUP4 GT PUSH2 0x173 JUMPI DUP3 SWAP1 SUB PUSH1 0x1F AND DUP3 ADD SWAP2 JUMPDEST POP POP POP POP POP SWAP1 POP SWAP2 SWAP1 POP JUMP JUMPDEST PUSH0 DUP1 SLOAD PUSH2 0x1A8 SWAP1 PUSH2 0x538 JUMP JUMPDEST DUP1 PUSH1 0x1F ADD PUSH1 0x20 DUP1 SWAP2 DIV MUL PUSH1 0x20 ADD PUSH1 0x40 MLOAD SWAP1 DUP2 ADD PUSH1 0x40 MSTORE DUP1 SWAP3 SWAP2 SWAP1 DUP2 DUP2 MSTORE PUSH1 0x20 ADD DUP3 DUP1 SLOAD PUSH2 0x1D4 SWAP1 PUSH2 0x538 JUMP JUMPDEST DUP1 ISZERO PUSH2 0x21F JUMPI DUP1 PUSH1 0x1F LT PUSH2 0x1F6 JUMPI PUSH2 0x100 DUP1 DUP4 SLOAD DIV MUL DUP4 MSTORE SWAP2 PUSH1 0x20 ADD SWAP2 PUSH2 0x21F JUMP JUMPDEST DUP3 ADD SWAP2 SWAP1 PUSH0 MSTORE PUSH1 0x20 PUSH0 KECCAK256 SWAP1 JUMPDEST DUP2 SLOAD DUP2 MSTORE SWAP1 PUSH1 0x1 ADD SWAP1 PUSH1 0x20 ADD DUP1 DUP4 GT PUSH2 0x202 JUMPI DUP3 SWAP1 SUB PUSH1 0x1F AND DUP3 ADD SWAP2 JUMPDEST POP POP POP POP POP DUP2 JUMP JUMPDEST PUSH0 PUSH1 0x40 MLOAD SWAP1 POP SWAP1 JUMP JUMPDEST PUSH0 DUP1 REVERT JUMPDEST PUSH0 DUP1 REVERT JUMPDEST PUSH0 DUP2 SWAP1 POP SWAP2 SWAP1 POP JUMP JUMPDEST PUSH2 0x24A DUP2 PUSH2 0x238 JUMP JUMPDEST DUP2 EQ PUSH2 0x254 JUMPI PUSH0 DUP1 REVERT JUMPDEST POP JUMP JUMPDEST PUSH0 DUP2 CALLDATALOAD SWAP1 POP PUSH2 0x265 DUP2 PUSH2 0x241 JUMP JUMPDEST SWAP3 SWAP2 POP POP JUMP JUMPDEST PUSH0 PUSH1 0x20 DUP3 DUP5 SUB SLT ISZERO PUSH2 0x280 JUMPI PUSH2 0x27F PUSH2 0x230 JUMP JUMPDEST JUMPDEST PUSH0 PUSH2 0x28D DUP5 DUP3 DUP6 ADD PUSH2 0x257 JUMP JUMPDEST SWAP2 POP POP SWAP3 SWAP2 POP POP JUMP JUMPDEST PUSH0 PUSH20 0xFFFFFFFFFFFFFFFFFFFFFFFFFFFFFFFFFFFFFFFF DUP3 AND SWAP1 POP SWAP2 SWAP1 POP JUMP JUMPDEST PUSH0 PUSH2 0x2BF DUP3 PUSH2 0x296 JUMP JUMPDEST SWAP1 POP SWAP2 SWAP1 POP JUMP JUMPDEST PUSH2 0x2CF DUP2 PUSH2 0x2B5 JUMP JUMPDEST DUP3 MSTORE POP POP JUMP JUMPDEST PUSH0 PUSH1 0x20 DUP3 ADD SWAP1 POP PUSH2 0x2E8 PUSH0 DUP4 ADD DUP5 PUSH2 0x2C6 JUMP JUMPDEST SWAP3 SWAP2 POP POP JUMP JUMPDEST PUSH0 DUP1 REVERT JUMPDEST PUSH0 DUP1 REVERT JUMPDEST PUSH0 PUSH1 0x1F NOT PUSH1 0x1F DUP4 ADD AND SWAP1 POP SWAP2 SWAP1 POP JUMP JUMPDEST PUSH32 0x4E487B7100000000000000000000000000000000000000000000000000000000 PUSH0 MSTORE PUSH1 0x41 PUSH1 0x4 MSTORE PUSH1 0x24 PUSH0 REVERT JUMPDEST PUSH2 0x33C DUP3 PUSH2 0x2F6 JUMP JUMPDEST DUP2 ADD DUP2 DUP2 LT PUSH8 0xFFFFFFFFFFFFFFFF DUP3 GT OR ISZERO PUSH2 0x35B JUMPI PUSH2 0x35A PUSH2 0x306 JUMP JUMPDEST JUMPDEST DUP1 PUSH1 0x40 MSTORE POP POP POP JUMP JUMPDEST PUSH0 PUSH2 0x36D PUSH2 0x227 JUMP JUMPDEST SWAP1 POP PUSH2 0x379 DUP3 DUP3 PUSH2 0x333 JUMP JUMPDEST SWAP2 SWAP1 POP JUMP JUMPDEST PUSH0 PUSH8 0xFFFFFFFFFFFFFFFF DUP3 GT ISZERO PUSH2 0x398 JUMPI PUSH2 0x397 PUSH2 0x306 JUMP JUMPDEST JUMPDEST PUSH2 0x3A1 DUP3 PUSH2 0x2F6 JUMP JUMPDEST SWAP1 POP PUSH1 0x20 DUP2 ADD SWAP1 POP SWAP2 SWAP1 POP JUMP JUMPDEST DUP3 DUP2 DUP4 CALLDATACOPY PUSH0 DUP4 DUP4 ADD MSTORE POP POP POP JUMP JUMPDEST PUSH0 PUSH2 0x3CE PUSH2 0x3C9 DUP5 PUSH2 0x37E JUMP JUMPDEST PUSH2 0x364 JUMP JUMPDEST SWAP1 POP DUP3 DUP2 MSTORE PUSH1 0x20 DUP2 ADD DUP5 DUP5 DUP5 ADD GT ISZERO PUSH2 0x3EA JUMPI PUSH2 0x3E9 PUSH2 0x2F2 JUMP JUMPDEST JUMPDEST PUSH2 0x3F5 DUP5 DUP3 DUP6 PUSH2 0x3AE JUMP JUMPDEST POP SWAP4 SWAP3 POP POP POP JUMP JUMPDEST PUSH0 DUP3 PUSH1 0x1F DUP4 ADD SLT PUSH2 0x411 JUMPI PUSH2 0x410 PUSH2 0x2EE JUMP JUMPDEST JUMPDEST DUP2 CALLDATALOAD PUSH2 0x421 DUP5 DUP3 PUSH1 0x20 DUP7 ADD PUSH2 0x3BC JUMP JUMPDEST SWAP2 POP POP SWAP3 SWAP2 POP POP JUMP JUMPDEST PUSH0 PUSH1 0x20 DUP3 DUP5 SUB SLT ISZERO PUSH2 0x43F JUMPI PUSH2 0x43E PUSH2 0x230 JUMP JUMPDEST JUMPDEST PUSH0 DUP3 ADD CALLDATALOAD PUSH8 0xFFFFFFFFFFFFFFFF DUP2 GT ISZERO PUSH2 0x45C JUMPI PUSH2 0x45B PUSH2 0x234 JUMP JUMPDEST JUMPDEST PUSH2 0x468 DUP5 DUP3 DUP6 ADD PUSH2 0x3FD JUMP JUMPDEST SWAP2 POP POP SWAP3 SWAP2 POP POP JUMP JUMPDEST PUSH0 DUP2 MLOAD SWAP1 POP SWAP2 SWAP1 POP JUMP JUMPDEST PUSH0 DUP3 DUP3 MSTORE PUSH1 0x20 DUP3 ADD SWAP1 POP SWAP3 SWAP2 POP POP JUMP JUMPDEST PUSH0 JUMPDEST DUP4 DUP2 LT ISZERO PUSH2 0x4A8 JUMPI DUP1 DUP3 ADD MLOAD DUP2 DUP5 ADD MSTORE PUSH1 0x20 DUP2 ADD SWAP1 POP PUSH2 0x48D JUMP JUMPDEST PUSH0 DUP5 DUP5 ADD MSTORE POP POP POP POP JUMP JUMPDEST PUSH0 PUSH2 0x4BD DUP3 PUSH2 0x471 JUMP JUMPDEST PUSH2 0x4C7 DUP2 DUP6 PUSH2 0x47B JUMP JUMPDEST SWAP4 POP PUSH2 0x4D7 DUP2 DUP6 PUSH1 0x20 DUP7 ADD PUSH2 0x48B JUMP JUMPDEST PUSH2 0x4E0 DUP2 PUSH2 0x2F6 JUMP JUMPDEST DUP5 ADD SWAP2 POP POP SWAP3 SWAP2 POP POP JUMP JUMPDEST PUSH0 PUSH1 0x20 DUP3 ADD SWAP1 POP DUP2 DUP2 SUB PUSH0 DUP4 ADD MSTORE PUSH2 0x503 DUP2 DUP5 PUSH2 0x4B3 JUMP JUMPDEST SWAP1 POP SWAP3 SWAP2 POP POP JUMP JUMPDEST PUSH32 0x4E487B7100000000000000000000000000000000000000000000000000000000 PUSH0 MSTORE PUSH1 0x22 PUSH1 0x4 MSTORE PUSH1 0x24 PUSH0 REVERT JUMPDEST PUSH0 PUSH1 0x2 DUP3 DIV SWAP1 POP PUSH1 0x1 DUP3 AND DUP1 PUSH2 0x54F JUMPI PUSH1 0x7F DUP3 AND SWAP2 POP JUMPDEST PUSH1 0x20 DUP3 LT DUP2 SUB PUSH2 0x562 JUMPI PUSH2 0x561 PUSH2 0x50B JUMP JUMPDEST JUMPDEST POP SWAP2 SWAP1 POP JUMP JUMPDEST PUSH0 DUP2 SWAP1 POP DUP2 PUSH0 MSTORE PUSH1 0x20 PUSH0 KECCAK256 SWAP1 POP SWAP2 SWAP1 POP JUMP JUMPDEST PUSH0 PUSH1 0x20 PUSH1 0x1F DUP4 ADD DIV SWAP1 POP SWAP2 SWAP1 POP JUMP JUMPDEST PUSH0 DUP3 DUP3 SHL SWAP1 POP SWAP3 SWAP2 POP POP JUMP JUMPDEST PUSH0 PUSH1 0x8 DUP4 MUL PUSH2 0x5C4 PUSH32 0xFFFFFFFFFFFFFFFFFFFFFFFFFFFFFFFFFFFFFFFFFFFFFFFFFFFFFFFFFFFFFFFF DUP3 PUSH2 0x589 JUMP JUMPDEST PUSH2 0x5CE DUP7 DUP4 PUSH2 0x589 JUMP JUMPDEST SWAP6 POP DUP1 NOT DUP5 AND SWAP4 POP DUP1 DUP7 AND DUP5 OR SWAP3 POP POP POP SWAP4 SWAP3 POP POP POP JUMP JUMPDEST PUSH0 DUP2 SWAP1 POP SWAP2 SWAP1 POP JUMP JUMPDEST PUSH0 PUSH2 0x609 PUSH2 0x604 PUSH2 0x5FF DUP5 PUSH2 0x238 JUMP JUMPDEST PUSH2 0x5E6 JUMP JUMPDEST PUSH2 0x238 JUMP JUMPDEST SWAP1 POP SWAP2 SWAP1 POP JUMP JUMPDEST PUSH0 DUP2 SWAP1 POP SWAP2 SWAP1 POP JUMP JUMPDEST PUSH2 0x622 DUP4 PUSH2 0x5EF JUMP JUMPDEST PUSH2 0x636 PUSH2 0x62E DUP3 PUSH2 0x610 JUMP JUMPDEST DUP5 DUP5 SLOAD PUSH2 0x595 JUMP JUMPDEST DUP3 SSTORE POP POP POP POP JUMP JUMPDEST PUSH0 SWAP1 JUMP JUMPDEST PUSH2 0x64A PUSH2 0x63E JUMP JUMPDEST PUSH2 0x655 DUP2 DUP5 DUP5 PUSH2 0x619 JUMP JUMPDEST POP POP POP JUMP JUMPDEST JUMPDEST DUP2 DUP2 LT ISZERO PUSH2 0x678 JUMPI PUSH2 0x66D PUSH0 DUP3 PUSH2 0x642 JUMP JUMPDEST PUSH1 0x1 DUP2 ADD SWAP1 POP PUSH2 0x65B JUMP JUMPDEST POP POP JUMP JUMPDEST PUSH1 0x1F DUP3 GT ISZERO PUSH2 0x6BD JUMPI PUSH2 0x68E DUP2 PUSH2 0x568 JUMP JUMPDEST PUSH2 0x697 DUP5 PUSH2 0x57A JUMP JUMPDEST DUP2 ADD PUSH1 0x20 DUP6 LT ISZERO PUSH2 0x6A6 JUMPI DUP2 SWAP1 POP JUMPDEST PUSH2 0x6BA PUSH2 0x6B2 DUP6 PUSH2 0x57A JUMP JUMPDEST DUP4 ADD DUP3 PUSH2 0x65A JUMP JUMPDEST POP POP JUMPDEST POP POP POP JUMP JUMPDEST PUSH0 DUP3 DUP3 SHR SWAP1 POP SWAP3 SWAP2 POP POP JUMP JUMPDEST PUSH0 PUSH2 0x6DD PUSH0 NOT DUP5 PUSH1 0x8 MUL PUSH2 0x6C2 JUMP JUMPDEST NOT DUP1 DUP4 AND SWAP2 POP POP SWAP3 SWAP2 POP POP JUMP JUMPDEST PUSH0 PUSH2 0x6F5 DUP4 DUP4 PUSH2 0x6CE JUMP JUMPDEST SWAP2 POP DUP3 PUSH1 0x2 MUL DUP3 OR SWAP1 POP SWAP3 SWAP2 POP POP JUMP JUMPDEST PUSH2 0x70E DUP3 PUSH2 0x471 JUMP JUMPDEST PUSH8 0xFFFFFFFFFFFFFFFF DUP2 GT ISZERO PUSH2 0x727 JUMPI PUSH2 0x726 PUSH2 0x306 JUMP JUMPDEST JUMPDEST PUSH2 0x731 DUP3 SLOAD PUSH2 0x538 JUMP JUMPDEST PUSH2 0x73C DUP3 DUP3 DUP6 PUSH2 0x67C JUMP JUMPDEST PUSH0 PUSH1 0x20 SWAP1 POP PUSH1 0x1F DUP4 GT PUSH1 0x1 DUP2 EQ PUSH2 0x76D JUMPI PUSH0 DUP5 ISZERO PUSH2 0x75B JUMPI DUP3 DUP8 ADD MLOAD SWAP1 POP JUMPDEST PUSH2 0x765 DUP6 DUP3 PUSH2 0x6EA JUMP JUMPDEST DUP7 SSTORE POP PUSH2 0x7CC JUMP JUMPDEST PUSH1 0x1F NOT DUP5 AND PUSH2 0x77B DUP7 PUSH2 0x568 JUMP JUMPDEST PUSH0 JUMPDEST DUP3 DUP2 LT ISZERO PUSH2 0x7A2 JUMPI DUP5 DUP10 ADD MLOAD DUP3 SSTORE PUSH1 0x1 DUP3 ADD SWAP2 POP PUSH1 0x20 DUP6 ADD SWAP5 POP PUSH1 0x20 DUP2 ADD SWAP1 POP PUSH2 0x77D JUMP JUMPDEST DUP7 DUP4 LT ISZERO PUSH2 0x7BF JUMPI DUP5 DUP10 ADD MLOAD PUSH2 0x7BB PUSH1 0x1F DUP10 AND DUP3 PUSH2 0x6CE JUMP JUMPDEST DUP4 SSTORE POP JUMPDEST PUSH1 0x1 PUSH1 0x2 DUP9 MUL ADD DUP9 SSTORE POP POP POP JUMPDEST POP POP POP POP POP POP JUMP INVALID LOG2 PUSH5 0x6970667358 0x22 SLT KECCAK256 SDIV 0x5C SWAP15 SHL GASLIMIT 0xE9 0xA8 RETURNDATASIZE SELFDESTRUCT 0xD6 0xFC CALLDATALOAD ADDMOD DUP7 PUSH7 0xA2F10417AC06A0 0x25 0x49 SIGNEXTEND 0x2E SWAP4 PUSH5 0x37A80E6564 PUSH20 0x6F6C634300081600330000000000000000000000 "
				},
				"gasEstimates": {
					"creation": {
						"codeDepositCost": "411600",
						"executionCost": "infinite",
						"totalCost": "infinite"
					},
					"external": {
						"AdminsAdresses(uint256)": "4922",
						"changeMyName(string)": "infinite",
						"myName()": "infinite"
					}
				},
				"methodIdentifiers": {
					"AdminsAdresses(uint256)": "2757a1a3",
					"changeMyName(string)": "bf566599",
					"myName()": "fae2dd4b"
				}
			},
			"storageLayout": {
				"storage": [
					{
						"astId": 4,
						"contract": "contracts/changeString.sol:testcontract",
						"label": "myName",
						"offset": 0,
						"slot": "0",
						"type": "t_string_storage"
					},
					{
						"astId": 13,
						"contract": "contracts/changeString.sol:testcontract",
						"label": "AdminsAdresses",
						"offset": 0,
						"slot": "1",
						"type": "t_array(t_address)dyn_storage"
					}
				],
				"types": {
					"t_address": {
						"encoding": "inplace",
						"label": "address",
						"numberOfBytes": "20"
					},
					"t_array(t_address)dyn_storage": {
						"base": "t_address",
						"encoding": "dynamic_array",
						"label": "address[]",
						"numberOfBytes": "32"
					},
					"t_string_storage": {
						"encoding": "bytes",
						"label": "string",
						"numberOfBytes": "32"
					}
				}
			},
			"userdoc": {
				"kind": "user",
				"methods": {},
				"version": 1
			}
		}
	}
}