{
	"contracts/Cars.sol": {
		"CarAgency": {
			"abi": [
				{
					"inputs": [],
					"stateMutability": "nonpayable",
					"type": "constructor"
				},
				{
					"anonymous": false,
					"inputs": [
						{
							"indexed": false,
							"internalType": "uint256",
							"name": "Car_id",
							"type": "uint256"
						},
						{
							"indexed": false,
							"internalType": "uint256",
							"name": "Car_model",
							"type": "uint256"
						},
						{
							"indexed": false,
							"internalType": "string",
							"name": "Car_color",
							"type": "string"
						},
						{
							"indexed": false,
							"internalType": "uint256",
							"name": "Car_Price",
							"type": "uint256"
						},
						{
							"indexed": false,
							"internalType": "string",
							"name": "Car_Name",
							"type": "string"
						},
						{
							"indexed": false,
							"internalType": "address",
							"name": "OwnedBy",
							"type": "address"
						}
					],
					"name": "EvntNewCarAdd",
					"type": "event"
				},
				{
					"anonymous": false,
					"inputs": [
						{
							"indexed": false,
							"internalType": "uint256",
							"name": "CarID",
							"type": "uint256"
						},
						{
							"indexed": false,
							"internalType": "address",
							"name": "TheBuyer",
							"type": "address"
						},
						{
							"indexed": false,
							"internalType": "uint256",
							"name": "CarPrice",
							"type": "uint256"
						}
					],
					"name": "EvntSellingCar",
					"type": "event"
				},
				{
					"inputs": [
						{
							"internalType": "uint256",
							"name": "_Car_model",
							"type": "uint256"
						},
						{
							"internalType": "string",
							"name": "_Car_color",
							"type": "string"
						},
						{
							"internalType": "uint256",
							"name": "_Car_Price",
							"type": "uint256"
						},
						{
							"internalType": "string",
							"name": "_Car_Name",
							"type": "string"
						},
						{
							"internalType": "address",
							"name": "",
							"type": "address"
						}
					],
					"name": "AddCar",
					"outputs": [],
					"stateMutability": "nonpayable",
					"type": "function"
				},
				{
					"inputs": [],
					"name": "AllCars",
					"outputs": [
						{
							"components": [
								{
									"internalType": "uint256",
									"name": "Car_id",
									"type": "uint256"
								},
								{
									"internalType": "uint256",
									"name": "Car_model",
									"type": "uint256"
								},
								{
									"internalType": "string",
									"name": "Car_color",
									"type": "string"
								},
								{
									"internalType": "uint256",
									"name": "Car_Price",
									"type": "uint256"
								},
								{
									"internalType": "string",
									"name": "Car_Name",
									"type": "string"
								},
								{
									"internalType": "address payable",
									"name": "OwnedBy",
									"type": "address"
								}
							],
							"internalType": "struct CarAgency.Struct_Car[]",
							"name": "",
							"type": "tuple[]"
						}
					],
					"stateMutability": "view",
					"type": "function"
				},
				{
					"inputs": [
						{
							"internalType": "uint256",
							"name": "",
							"type": "uint256"
						}
					],
					"name": "ListCars",
					"outputs": [
						{
							"internalType": "uint256",
							"name": "",
							"type": "uint256"
						}
					],
					"stateMutability": "view",
					"type": "function"
				},
				{
					"inputs": [
						{
							"internalType": "uint256",
							"name": "",
							"type": "uint256"
						}
					],
					"name": "MapCars",
					"outputs": [
						{
							"internalType": "uint256",
							"name": "Car_id",
							"type": "uint256"
						},
						{
							"internalType": "uint256",
							"name": "Car_model",
							"type": "uint256"
						},
						{
							"internalType": "string",
							"name": "Car_color",
							"type": "string"
						},
						{
							"internalType": "uint256",
							"name": "Car_Price",
							"type": "uint256"
						},
						{
							"internalType": "string",
							"name": "Car_Name",
							"type": "string"
						},
						{
							"internalType": "address payable",
							"name": "OwnedBy",
							"type": "address"
						}
					],
					"stateMutability": "view",
					"type": "function"
				},
				{
					"inputs": [
						{
							"internalType": "uint256",
							"name": "_CarID",
							"type": "uint256"
						},
						{
							"internalType": "address",
							"name": "_TheBuyer",
							"type": "address"
						},
						{
							"internalType": "uint256",
							"name": "_CarPrice",
							"type": "uint256"
						}
					],
					"name": "SellCar",
					"outputs": [],
					"stateMutability": "payable",
					"type": "function"
				}
			],
			"devdoc": {
				"kind": "dev",
				"methods": {},
				"version": 1
			},
			"evm": {
				"assembly": "    /* \"contracts/Cars.sol\":123:3234  contract CarAgency {... */\n  mstore(0x40, 0x80)\n    /* \"contracts/Cars.sol\":1001:1059  constructor()... */\n  callvalue\n  dup1\n  iszero\n  tag_1\n  jumpi\n  0x00\n  dup1\n  revert\ntag_1:\n  pop\n    /* \"contracts/Cars.sol\":1042:1052  msg.sender */\n  caller\n    /* \"contracts/Cars.sol\":1029:1040  AgencyOwner */\n  0x01\n  0x00\n    /* \"contracts/Cars.sol\":1029:1052  AgencyOwner= msg.sender */\n  0x0100\n  exp\n  dup2\n  sload\n  dup2\n  0xffffffffffffffffffffffffffffffffffffffff\n  mul\n  not\n  and\n  swap1\n  dup4\n  0xffffffffffffffffffffffffffffffffffffffff\n  and\n  mul\n  or\n  swap1\n  sstore\n  pop\n    /* \"contracts/Cars.sol\":123:3234  contract CarAgency {... */\n  dataSize(sub_0)\n  dup1\n  dataOffset(sub_0)\n  0x00\n  codecopy\n  0x00\n  return\nstop\n\nsub_0: assembly {\n        /* \"contracts/Cars.sol\":123:3234  contract CarAgency {... */\n      mstore(0x40, 0x80)\n      jumpi(tag_1, lt(calldatasize, 0x04))\n      shr(0xe0, calldataload(0x00))\n      dup1\n      0x2809069e\n      eq\n      tag_2\n      jumpi\n      dup1\n      0x3b3bdd10\n      eq\n      tag_3\n      jumpi\n      dup1\n      0x9537d6cf\n      eq\n      tag_4\n      jumpi\n      dup1\n      0x9abb94d4\n      eq\n      tag_5\n      jumpi\n      dup1\n      0xd923b3d8\n      eq\n      tag_6\n      jumpi\n    tag_1:\n      0x00\n      dup1\n      revert\n        /* \"contracts/Cars.sol\":1530:2173  function AddCar(uint256 _Car_model,string memory _Car_color,uint256 _Car_Price,string memory _Car_Name, address) public OnlyAgencyOwner {... */\n    tag_2:\n      callvalue\n      dup1\n      iszero\n      tag_7\n      jumpi\n      0x00\n      dup1\n      revert\n    tag_7:\n      pop\n      tag_8\n      0x04\n      dup1\n      calldatasize\n      sub\n      dup2\n      add\n      swap1\n      tag_9\n      swap2\n      swap1\n      tag_10\n      jump\t// in\n    tag_9:\n      tag_11\n      jump\t// in\n    tag_8:\n      stop\n        /* \"contracts/Cars.sol\":2730:3230  function SellCar (uint256 _CarID, address _TheBuyer, uint256 _CarPrice) public payable OnlyAgencySeller... */\n    tag_3:\n      tag_12\n      0x04\n      dup1\n      calldatasize\n      sub\n      dup2\n      add\n      swap1\n      tag_13\n      swap2\n      swap1\n      tag_14\n      jump\t// in\n    tag_13:\n      tag_15\n      jump\t// in\n    tag_12:\n      stop\n        /* \"contracts/Cars.sol\":2276:2624  function AllCars() public view returns (Struct_Car[] memory) {... */\n    tag_4:\n      callvalue\n      dup1\n      iszero\n      tag_16\n      jumpi\n      0x00\n      dup1\n      revert\n    tag_16:\n      pop\n      tag_17\n      tag_18\n      jump\t// in\n    tag_17:\n      mload(0x40)\n      tag_19\n      swap2\n      swap1\n      tag_20\n      jump\t// in\n    tag_19:\n      mload(0x40)\n      dup1\n      swap2\n      sub\n      swap1\n      return\n        /* \"contracts/Cars.sol\":1065:1110  mapping(uint256 => Struct_Car) public MapCars */\n    tag_5:\n      callvalue\n      dup1\n      iszero\n      tag_21\n      jumpi\n      0x00\n      dup1\n      revert\n    tag_21:\n      pop\n      tag_22\n      0x04\n      dup1\n      calldatasize\n      sub\n      dup2\n      add\n      swap1\n      tag_23\n      swap2\n      swap1\n      tag_24\n      jump\t// in\n    tag_23:\n      tag_25\n      jump\t// in\n    tag_22:\n      mload(0x40)\n      tag_26\n      swap7\n      swap6\n      swap5\n      swap4\n      swap3\n      swap2\n      swap1\n      tag_27\n      jump\t// in\n    tag_26:\n      mload(0x40)\n      dup1\n      swap2\n      sub\n      swap1\n      return\n        /* \"contracts/Cars.sol\":1116:1141  uint256[] public ListCars */\n    tag_6:\n      callvalue\n      dup1\n      iszero\n      tag_28\n      jumpi\n      0x00\n      dup1\n      revert\n    tag_28:\n      pop\n      tag_29\n      0x04\n      dup1\n      calldatasize\n      sub\n      dup2\n      add\n      swap1\n      tag_30\n      swap2\n      swap1\n      tag_24\n      jump\t// in\n    tag_30:\n      tag_31\n      jump\t// in\n    tag_29:\n      mload(0x40)\n      tag_32\n      swap2\n      swap1\n      tag_33\n      jump\t// in\n    tag_32:\n      mload(0x40)\n      dup1\n      swap2\n      sub\n      swap1\n      return\n        /* \"contracts/Cars.sol\":1530:2173  function AddCar(uint256 _Car_model,string memory _Car_color,uint256 _Car_Price,string memory _Car_Name, address) public OnlyAgencyOwner {... */\n    tag_11:\n        /* \"contracts/Cars.sol\":1212:1223  AgencyOwner */\n      0x01\n      0x00\n      swap1\n      sload\n      swap1\n      0x0100\n      exp\n      swap1\n      div\n      0xffffffffffffffffffffffffffffffffffffffff\n      and\n        /* \"contracts/Cars.sol\":1198:1223  msg.sender == AgencyOwner */\n      0xffffffffffffffffffffffffffffffffffffffff\n      and\n        /* \"contracts/Cars.sol\":1198:1208  msg.sender */\n      caller\n        /* \"contracts/Cars.sol\":1198:1223  msg.sender == AgencyOwner */\n      0xffffffffffffffffffffffffffffffffffffffff\n      and\n      eq\n        /* \"contracts/Cars.sol\":1190:1264  require(msg.sender == AgencyOwner,\"Only The Agency Owner Can Add cars!!!\") */\n      tag_35\n      jumpi\n      mload(0x40)\n      0x08c379a000000000000000000000000000000000000000000000000000000000\n      dup2\n      mstore\n      0x04\n      add\n      tag_36\n      swap1\n      tag_37\n      jump\t// in\n    tag_36:\n      mload(0x40)\n      dup1\n      swap2\n      sub\n      swap1\n      revert\n    tag_35:\n        /* \"contracts/Cars.sol\":1676:1701  _CurrentCarID.increment() */\n      tag_39\n        /* \"contracts/Cars.sol\":1676:1689  _CurrentCarID */\n      0x00\n        /* \"contracts/Cars.sol\":1676:1699  _CurrentCarID.increment */\n      tag_40\n        /* \"contracts/Cars.sol\":1676:1701  _CurrentCarID.increment() */\n      jump\t// in\n    tag_39:\n        /* \"contracts/Cars.sol\":1826:1850  Struct_Car memory newCar */\n      0x00\n        /* \"contracts/Cars.sol\":1853:1953  Struct_Car(_CurrentCarID.current(),_Car_model,_Car_color,_Car_Price,_Car_Name,payable (AgencyOwner)) */\n      mload(0x40)\n      dup1\n      0xc0\n      add\n      0x40\n      mstore\n      dup1\n        /* \"contracts/Cars.sol\":1864:1887  _CurrentCarID.current() */\n      tag_41\n        /* \"contracts/Cars.sol\":1864:1877  _CurrentCarID */\n      0x00\n        /* \"contracts/Cars.sol\":1864:1885  _CurrentCarID.current */\n      tag_42\n        /* \"contracts/Cars.sol\":1864:1887  _CurrentCarID.current() */\n      jump\t// in\n    tag_41:\n        /* \"contracts/Cars.sol\":1853:1953  Struct_Car(_CurrentCarID.current(),_Car_model,_Car_color,_Car_Price,_Car_Name,payable (AgencyOwner)) */\n      dup2\n      mstore\n      0x20\n      add\n        /* \"contracts/Cars.sol\":1888:1898  _Car_model */\n      dup8\n        /* \"contracts/Cars.sol\":1853:1953  Struct_Car(_CurrentCarID.current(),_Car_model,_Car_color,_Car_Price,_Car_Name,payable (AgencyOwner)) */\n      dup2\n      mstore\n      0x20\n      add\n        /* \"contracts/Cars.sol\":1899:1909  _Car_color */\n      dup7\n        /* \"contracts/Cars.sol\":1853:1953  Struct_Car(_CurrentCarID.current(),_Car_model,_Car_color,_Car_Price,_Car_Name,payable (AgencyOwner)) */\n      dup2\n      mstore\n      0x20\n      add\n        /* \"contracts/Cars.sol\":1910:1920  _Car_Price */\n      dup6\n        /* \"contracts/Cars.sol\":1853:1953  Struct_Car(_CurrentCarID.current(),_Car_model,_Car_color,_Car_Price,_Car_Name,payable (AgencyOwner)) */\n      dup2\n      mstore\n      0x20\n      add\n        /* \"contracts/Cars.sol\":1921:1930  _Car_Name */\n      dup5\n        /* \"contracts/Cars.sol\":1853:1953  Struct_Car(_CurrentCarID.current(),_Car_model,_Car_color,_Car_Price,_Car_Name,payable (AgencyOwner)) */\n      dup2\n      mstore\n      0x20\n      add\n        /* \"contracts/Cars.sol\":1940:1951  AgencyOwner */\n      0x01\n      0x00\n      swap1\n      sload\n      swap1\n      0x0100\n      exp\n      swap1\n      div\n      0xffffffffffffffffffffffffffffffffffffffff\n      and\n        /* \"contracts/Cars.sol\":1853:1953  Struct_Car(_CurrentCarID.current(),_Car_model,_Car_color,_Car_Price,_Car_Name,payable (AgencyOwner)) */\n      0xffffffffffffffffffffffffffffffffffffffff\n      and\n      dup2\n      mstore\n      pop\n        /* \"contracts/Cars.sol\":1826:1953  Struct_Car memory newCar = Struct_Car(_CurrentCarID.current(),_Car_model,_Car_color,_Car_Price,_Car_Name,payable (AgencyOwner)) */\n      swap1\n      pop\n        /* \"contracts/Cars.sol\":1998:2004  newCar */\n      dup1\n        /* \"contracts/Cars.sol\":1963:1970  MapCars */\n      0x02\n        /* \"contracts/Cars.sol\":1963:1995  MapCars[_CurrentCarID.current()] */\n      0x00\n        /* \"contracts/Cars.sol\":1971:1994  _CurrentCarID.current() */\n      tag_43\n        /* \"contracts/Cars.sol\":1971:1984  _CurrentCarID */\n      0x00\n        /* \"contracts/Cars.sol\":1971:1992  _CurrentCarID.current */\n      tag_42\n        /* \"contracts/Cars.sol\":1971:1994  _CurrentCarID.current() */\n      jump\t// in\n    tag_43:\n        /* \"contracts/Cars.sol\":1963:1995  MapCars[_CurrentCarID.current()] */\n      dup2\n      mstore\n      0x20\n      add\n      swap1\n      dup2\n      mstore\n      0x20\n      add\n      0x00\n      keccak256\n        /* \"contracts/Cars.sol\":1963:2004  MapCars[_CurrentCarID.current()] = newCar */\n      0x00\n      dup3\n      add\n      mload\n      dup2\n      0x00\n      add\n      sstore\n      0x20\n      dup3\n      add\n      mload\n      dup2\n      0x01\n      add\n      sstore\n      0x40\n      dup3\n      add\n      mload\n      dup2\n      0x02\n      add\n      swap1\n      dup2\n      tag_44\n      swap2\n      swap1\n      tag_45\n      jump\t// in\n    tag_44:\n      pop\n      0x60\n      dup3\n      add\n      mload\n      dup2\n      0x03\n      add\n      sstore\n      0x80\n      dup3\n      add\n      mload\n      dup2\n      0x04\n      add\n      swap1\n      dup2\n      tag_46\n      swap2\n      swap1\n      tag_45\n      jump\t// in\n    tag_46:\n      pop\n      0xa0\n      dup3\n      add\n      mload\n      dup2\n      0x05\n      add\n      exp(0x0100, 0x00)\n      dup2\n      sload\n      dup2\n      0xffffffffffffffffffffffffffffffffffffffff\n      mul\n      not\n      and\n      swap1\n      dup4\n      0xffffffffffffffffffffffffffffffffffffffff\n      and\n      mul\n      or\n      swap1\n      sstore\n      pop\n      swap1\n      pop\n      pop\n        /* \"contracts/Cars.sol\":2014:2022  ListCars */\n      0x03\n        /* \"contracts/Cars.sol\":2028:2051  _CurrentCarID.current() */\n      tag_47\n        /* \"contracts/Cars.sol\":2028:2041  _CurrentCarID */\n      0x00\n        /* \"contracts/Cars.sol\":2028:2049  _CurrentCarID.current */\n      tag_42\n        /* \"contracts/Cars.sol\":2028:2051  _CurrentCarID.current() */\n      jump\t// in\n    tag_47:\n        /* \"contracts/Cars.sol\":2014:2052  ListCars.push(_CurrentCarID.current()) */\n      swap1\n      dup1\n      0x01\n      dup2\n      sload\n      add\n      dup1\n      dup3\n      sstore\n      dup1\n      swap2\n      pop\n      pop\n      0x01\n      swap1\n      sub\n      swap1\n      0x00\n      mstore\n      keccak256(0x00, 0x20)\n      add\n      0x00\n      swap1\n      swap2\n      swap1\n      swap2\n      swap1\n      swap2\n      pop\n      sstore\n        /* \"contracts/Cars.sol\":2067:2165  EvntNewCarAdd(_CurrentCarID.current(), _Car_model, _Car_color, _Car_Price, _Car_Name, AgencyOwner) */\n      0x683895df9244c6b966398398862181ac8d8d4ba9285a6c1df6d24a0cdac05378\n        /* \"contracts/Cars.sol\":2081:2104  _CurrentCarID.current() */\n      tag_49\n        /* \"contracts/Cars.sol\":2081:2094  _CurrentCarID */\n      0x00\n        /* \"contracts/Cars.sol\":2081:2102  _CurrentCarID.current */\n      tag_42\n        /* \"contracts/Cars.sol\":2081:2104  _CurrentCarID.current() */\n      jump\t// in\n    tag_49:\n        /* \"contracts/Cars.sol\":2106:2116  _Car_model */\n      dup8\n        /* \"contracts/Cars.sol\":2118:2128  _Car_color */\n      dup8\n        /* \"contracts/Cars.sol\":2130:2140  _Car_Price */\n      dup8\n        /* \"contracts/Cars.sol\":2142:2151  _Car_Name */\n      dup8\n        /* \"contracts/Cars.sol\":2153:2164  AgencyOwner */\n      0x01\n      0x00\n      swap1\n      sload\n      swap1\n      0x0100\n      exp\n      swap1\n      div\n      0xffffffffffffffffffffffffffffffffffffffff\n      and\n        /* \"contracts/Cars.sol\":2067:2165  EvntNewCarAdd(_CurrentCarID.current(), _Car_model, _Car_color, _Car_Price, _Car_Name, AgencyOwner) */\n      mload(0x40)\n      tag_50\n      swap7\n      swap6\n      swap5\n      swap4\n      swap3\n      swap2\n      swap1\n      tag_51\n      jump\t// in\n    tag_50:\n      mload(0x40)\n      dup1\n      swap2\n      sub\n      swap1\n      log1\n        /* \"contracts/Cars.sol\":1666:2173  {... */\n      pop\n        /* \"contracts/Cars.sol\":1530:2173  function AddCar(uint256 _Car_model,string memory _Car_color,uint256 _Car_Price,string memory _Car_Name, address) public OnlyAgencyOwner {... */\n      pop\n      pop\n      pop\n      pop\n      pop\n      jump\t// out\n        /* \"contracts/Cars.sol\":2730:3230  function SellCar (uint256 _CarID, address _TheBuyer, uint256 _CarPrice) public payable OnlyAgencySeller... */\n    tag_15:\n        /* \"contracts/Cars.sol\":1354:1365  AgencyOwner */\n      0x01\n      0x00\n      swap1\n      sload\n      swap1\n      0x0100\n      exp\n      swap1\n      div\n      0xffffffffffffffffffffffffffffffffffffffff\n      and\n        /* \"contracts/Cars.sol\":1340:1365  msg.sender == AgencyOwner */\n      0xffffffffffffffffffffffffffffffffffffffff\n      and\n        /* \"contracts/Cars.sol\":1340:1350  msg.sender */\n      caller\n        /* \"contracts/Cars.sol\":1340:1365  msg.sender == AgencyOwner */\n      0xffffffffffffffffffffffffffffffffffffffff\n      and\n      eq\n        /* \"contracts/Cars.sol\":1332:1407  require(msg.sender == AgencyOwner,\"Only The Agency Owner Can Sell cars!!!\") */\n      tag_53\n      jumpi\n      mload(0x40)\n      0x08c379a000000000000000000000000000000000000000000000000000000000\n      dup2\n      mstore\n      0x04\n      add\n      tag_54\n      swap1\n      tag_55\n      jump\t// in\n    tag_54:\n      mload(0x40)\n      dup1\n      swap2\n      sub\n      swap1\n      revert\n    tag_53:\n        /* \"contracts/Cars.sol\":2950:2977  Struct_Car memory CarToSold */\n      0x00\n        /* \"contracts/Cars.sol\":2980:2987  MapCars */\n      0x02\n        /* \"contracts/Cars.sol\":2980:2995  MapCars[_CarID] */\n      0x00\n        /* \"contracts/Cars.sol\":2988:2994  _CarID */\n      dup6\n        /* \"contracts/Cars.sol\":2980:2995  MapCars[_CarID] */\n      dup2\n      mstore\n      0x20\n      add\n      swap1\n      dup2\n      mstore\n      0x20\n      add\n      0x00\n      keccak256\n        /* \"contracts/Cars.sol\":2950:2995  Struct_Car memory CarToSold = MapCars[_CarID] */\n      mload(0x40)\n      dup1\n      0xc0\n      add\n      0x40\n      mstore\n      swap1\n      dup2\n      0x00\n      dup3\n      add\n      sload\n      dup2\n      mstore\n      0x20\n      add\n      0x01\n      dup3\n      add\n      sload\n      dup2\n      mstore\n      0x20\n      add\n      0x02\n      dup3\n      add\n      dup1\n      sload\n      tag_57\n      swap1\n      tag_58\n      jump\t// in\n    tag_57:\n      dup1\n      0x1f\n      add\n      0x20\n      dup1\n      swap2\n      div\n      mul\n      0x20\n      add\n      mload(0x40)\n      swap1\n      dup2\n      add\n      0x40\n      mstore\n      dup1\n      swap3\n      swap2\n      swap1\n      dup2\n      dup2\n      mstore\n      0x20\n      add\n      dup3\n      dup1\n      sload\n      tag_59\n      swap1\n      tag_58\n      jump\t// in\n    tag_59:\n      dup1\n      iszero\n      tag_60\n      jumpi\n      dup1\n      0x1f\n      lt\n      tag_61\n      jumpi\n      0x0100\n      dup1\n      dup4\n      sload\n      div\n      mul\n      dup4\n      mstore\n      swap2\n      0x20\n      add\n      swap2\n      jump(tag_60)\n    tag_61:\n      dup3\n      add\n      swap2\n      swap1\n      0x00\n      mstore\n      keccak256(0x00, 0x20)\n      swap1\n    tag_62:\n      dup2\n      sload\n      dup2\n      mstore\n      swap1\n      0x01\n      add\n      swap1\n      0x20\n      add\n      dup1\n      dup4\n      gt\n      tag_62\n      jumpi\n      dup3\n      swap1\n      sub\n      0x1f\n      and\n      dup3\n      add\n      swap2\n    tag_60:\n      pop\n      pop\n      pop\n      pop\n      pop\n      dup2\n      mstore\n      0x20\n      add\n      0x03\n      dup3\n      add\n      sload\n      dup2\n      mstore\n      0x20\n      add\n      0x04\n      dup3\n      add\n      dup1\n      sload\n      tag_63\n      swap1\n      tag_58\n      jump\t// in\n    tag_63:\n      dup1\n      0x1f\n      add\n      0x20\n      dup1\n      swap2\n      div\n      mul\n      0x20\n      add\n      mload(0x40)\n      swap1\n      dup2\n      add\n      0x40\n      mstore\n      dup1\n      swap3\n      swap2\n      swap1\n      dup2\n      dup2\n      mstore\n      0x20\n      add\n      dup3\n      dup1\n      sload\n      tag_64\n      swap1\n      tag_58\n      jump\t// in\n    tag_64:\n      dup1\n      iszero\n      tag_65\n      jumpi\n      dup1\n      0x1f\n      lt\n      tag_66\n      jumpi\n      0x0100\n      dup1\n      dup4\n      sload\n      div\n      mul\n      dup4\n      mstore\n      swap2\n      0x20\n      add\n      swap2\n      jump(tag_65)\n    tag_66:\n      dup3\n      add\n      swap2\n      swap1\n      0x00\n      mstore\n      keccak256(0x00, 0x20)\n      swap1\n    tag_67:\n      dup2\n      sload\n      dup2\n      mstore\n      swap1\n      0x01\n      add\n      swap1\n      0x20\n      add\n      dup1\n      dup4\n      gt\n      tag_67\n      jumpi\n      dup3\n      swap1\n      sub\n      0x1f\n      and\n      dup3\n      add\n      swap2\n    tag_65:\n      pop\n      pop\n      pop\n      pop\n      pop\n      dup2\n      mstore\n      0x20\n      add\n      0x05\n      dup3\n      add\n      0x00\n      swap1\n      sload\n      swap1\n      0x0100\n      exp\n      swap1\n      div\n      0xffffffffffffffffffffffffffffffffffffffff\n      and\n      0xffffffffffffffffffffffffffffffffffffffff\n      and\n      0xffffffffffffffffffffffffffffffffffffffff\n      and\n      dup2\n      mstore\n      pop\n      pop\n      swap1\n      pop\n        /* \"contracts/Cars.sol\":3036:3045  _CarPrice */\n      dup2\n        /* \"contracts/Cars.sol\":3013:3022  CarToSold */\n      dup2\n        /* \"contracts/Cars.sol\":3013:3032  CarToSold.Car_Price */\n      0x60\n      add\n      mload\n        /* \"contracts/Cars.sol\":3013:3045  CarToSold.Car_Price >= _CarPrice */\n      lt\n      iszero\n        /* \"contracts/Cars.sol\":3005:3066  require(CarToSold.Car_Price >= _CarPrice, \"Wrong Car value \") */\n      tag_68\n      jumpi\n      mload(0x40)\n      0x08c379a000000000000000000000000000000000000000000000000000000000\n      dup2\n      mstore\n      0x04\n      add\n      tag_69\n      swap1\n      tag_70\n      jump\t// in\n    tag_69:\n      mload(0x40)\n      dup1\n      swap2\n      sub\n      swap1\n      revert\n    tag_68:\n        /* \"contracts/Cars.sol\":3117:3126  CarToSold */\n      dup1\n        /* \"contracts/Cars.sol\":3117:3134  CarToSold.OwnedBy */\n      0xa0\n      add\n      mload\n        /* \"contracts/Cars.sol\":3117:3143  CarToSold.OwnedBy.transfer */\n      0xffffffffffffffffffffffffffffffffffffffff\n      and\n        /* \"contracts/Cars.sol\":3117:3164  CarToSold.OwnedBy.transfer(CarToSold.Car_Price) */\n      0x08fc\n        /* \"contracts/Cars.sol\":3144:3153  CarToSold */\n      dup3\n        /* \"contracts/Cars.sol\":3144:3163  CarToSold.Car_Price */\n      0x60\n      add\n      mload\n        /* \"contracts/Cars.sol\":3117:3164  CarToSold.OwnedBy.transfer(CarToSold.Car_Price) */\n      swap1\n      dup2\n      iszero\n      mul\n      swap1\n      mload(0x40)\n      0x00\n      mload(0x40)\n      dup1\n      dup4\n      sub\n      dup2\n      dup6\n      dup9\n      dup9\n      call\n      swap4\n      pop\n      pop\n      pop\n      pop\n      iszero\n      dup1\n      iszero\n      tag_72\n      jumpi\n      returndatasize\n      0x00\n      dup1\n      returndatacopy\n      revert(0x00, returndatasize)\n    tag_72:\n      pop\n        /* \"contracts/Cars.sol\":3179:3223  EvntSellingCar(_CarID, _TheBuyer, _CarPrice) */\n      0x66262d29b39f82a7838ea037c521cd5b4821f21fb16fe0aa690dd7270e1cb971\n        /* \"contracts/Cars.sol\":3194:3200  _CarID */\n      dup5\n        /* \"contracts/Cars.sol\":3202:3211  _TheBuyer */\n      dup5\n        /* \"contracts/Cars.sol\":3213:3222  _CarPrice */\n      dup5\n        /* \"contracts/Cars.sol\":3179:3223  EvntSellingCar(_CarID, _TheBuyer, _CarPrice) */\n      mload(0x40)\n      tag_73\n      swap4\n      swap3\n      swap2\n      swap1\n      tag_74\n      jump\t// in\n    tag_73:\n      mload(0x40)\n      dup1\n      swap2\n      sub\n      swap1\n      log1\n        /* \"contracts/Cars.sol\":2838:3230  {... */\n      pop\n        /* \"contracts/Cars.sol\":2730:3230  function SellCar (uint256 _CarID, address _TheBuyer, uint256 _CarPrice) public payable OnlyAgencySeller... */\n      pop\n      pop\n      pop\n      jump\t// out\n        /* \"contracts/Cars.sol\":2276:2624  function AllCars() public view returns (Struct_Car[] memory) {... */\n    tag_18:\n        /* \"contracts/Cars.sol\":2316:2335  Struct_Car[] memory */\n      0x60\n        /* \"contracts/Cars.sol\":2347:2363  uint SizeOfArrat */\n      0x00\n        /* \"contracts/Cars.sol\":2366:2374  ListCars */\n      0x03\n        /* \"contracts/Cars.sol\":2366:2381  ListCars.length */\n      dup1\n      sload\n      swap1\n      pop\n        /* \"contracts/Cars.sol\":2347:2381  uint SizeOfArrat = ListCars.length */\n      swap1\n      pop\n        /* \"contracts/Cars.sol\":2391:2418  Struct_Car[] memory GetCars */\n      0x00\n        /* \"contracts/Cars.sol\":2438:2449  SizeOfArrat */\n      dup2\n        /* \"contracts/Cars.sol\":2421:2450  new Struct_Car[](SizeOfArrat) */\n      0xffffffffffffffff\n      dup2\n      gt\n      iszero\n      tag_76\n      jumpi\n      tag_77\n      tag_78\n      jump\t// in\n    tag_77:\n    tag_76:\n      mload(0x40)\n      swap1\n      dup1\n      dup3\n      mstore\n      dup1\n      0x20\n      mul\n      0x20\n      add\n      dup3\n      add\n      0x40\n      mstore\n      dup1\n      iszero\n      tag_79\n      jumpi\n      dup2\n      0x20\n      add\n    tag_80:\n      tag_81\n      tag_82\n      jump\t// in\n    tag_81:\n      dup2\n      mstore\n      0x20\n      add\n      swap1\n      0x01\n      swap1\n      sub\n      swap1\n      dup2\n      tag_80\n      jumpi\n      swap1\n      pop\n    tag_79:\n      pop\n        /* \"contracts/Cars.sol\":2391:2450  Struct_Car[] memory GetCars = new Struct_Car[](SizeOfArrat) */\n      swap1\n      pop\n        /* \"contracts/Cars.sol\":2465:2471  uint i */\n      0x00\n        /* \"contracts/Cars.sol\":2460:2594  for (uint i = 0; i < SizeOfArrat; i++) {... */\n    tag_83:\n        /* \"contracts/Cars.sol\":2481:2492  SizeOfArrat */\n      dup3\n        /* \"contracts/Cars.sol\":2477:2478  i */\n      dup2\n        /* \"contracts/Cars.sol\":2477:2492  i < SizeOfArrat */\n      lt\n        /* \"contracts/Cars.sol\":2460:2594  for (uint i = 0; i < SizeOfArrat; i++) {... */\n      iszero\n      tag_84\n      jumpi\n        /* \"contracts/Cars.sol\":2513:2527  uint256 CarIDs */\n      0x00\n        /* \"contracts/Cars.sol\":2530:2538  ListCars */\n      0x03\n        /* \"contracts/Cars.sol\":2539:2540  i */\n      dup3\n        /* \"contracts/Cars.sol\":2530:2541  ListCars[i] */\n      dup2\n      sload\n      dup2\n      lt\n      tag_86\n      jumpi\n      tag_87\n      tag_88\n      jump\t// in\n    tag_87:\n    tag_86:\n      swap1\n      0x00\n      mstore\n      keccak256(0x00, 0x20)\n      add\n      sload\n        /* \"contracts/Cars.sol\":2513:2541  uint256 CarIDs = ListCars[i] */\n      swap1\n      pop\n        /* \"contracts/Cars.sol\":2568:2575  MapCars */\n      0x02\n        /* \"contracts/Cars.sol\":2568:2583  MapCars[CarIDs] */\n      0x00\n        /* \"contracts/Cars.sol\":2576:2582  CarIDs */\n      dup3\n        /* \"contracts/Cars.sol\":2568:2583  MapCars[CarIDs] */\n      dup2\n      mstore\n      0x20\n      add\n      swap1\n      dup2\n      mstore\n      0x20\n      add\n      0x00\n      keccak256\n        /* \"contracts/Cars.sol\":2555:2583  GetCars[i] = MapCars[CarIDs] */\n      mload(0x40)\n      dup1\n      0xc0\n      add\n      0x40\n      mstore\n      swap1\n      dup2\n      0x00\n      dup3\n      add\n      sload\n      dup2\n      mstore\n      0x20\n      add\n      0x01\n      dup3\n      add\n      sload\n      dup2\n      mstore\n      0x20\n      add\n      0x02\n      dup3\n      add\n      dup1\n      sload\n      tag_90\n      swap1\n      tag_58\n      jump\t// in\n    tag_90:\n      dup1\n      0x1f\n      add\n      0x20\n      dup1\n      swap2\n      div\n      mul\n      0x20\n      add\n      mload(0x40)\n      swap1\n      dup2\n      add\n      0x40\n      mstore\n      dup1\n      swap3\n      swap2\n      swap1\n      dup2\n      dup2\n      mstore\n      0x20\n      add\n      dup3\n      dup1\n      sload\n      tag_91\n      swap1\n      tag_58\n      jump\t// in\n    tag_91:\n      dup1\n      iszero\n      tag_92\n      jumpi\n      dup1\n      0x1f\n      lt\n      tag_93\n      jumpi\n      0x0100\n      dup1\n      dup4\n      sload\n      div\n      mul\n      dup4\n      mstore\n      swap2\n      0x20\n      add\n      swap2\n      jump(tag_92)\n    tag_93:\n      dup3\n      add\n      swap2\n      swap1\n      0x00\n      mstore\n      keccak256(0x00, 0x20)\n      swap1\n    tag_94:\n      dup2\n      sload\n      dup2\n      mstore\n      swap1\n      0x01\n      add\n      swap1\n      0x20\n      add\n      dup1\n      dup4\n      gt\n      tag_94\n      jumpi\n      dup3\n      swap1\n      sub\n      0x1f\n      and\n      dup3\n      add\n      swap2\n    tag_92:\n      pop\n      pop\n      pop\n      pop\n      pop\n      dup2\n      mstore\n      0x20\n      add\n      0x03\n      dup3\n      add\n      sload\n      dup2\n      mstore\n      0x20\n      add\n      0x04\n      dup3\n      add\n      dup1\n      sload\n      tag_95\n      swap1\n      tag_58\n      jump\t// in\n    tag_95:\n      dup1\n      0x1f\n      add\n      0x20\n      dup1\n      swap2\n      div\n      mul\n      0x20\n      add\n      mload(0x40)\n      swap1\n      dup2\n      add\n      0x40\n      mstore\n      dup1\n      swap3\n      swap2\n      swap1\n      dup2\n      dup2\n      mstore\n      0x20\n      add\n      dup3\n      dup1\n      sload\n      tag_96\n      swap1\n      tag_58\n      jump\t// in\n    tag_96:\n      dup1\n      iszero\n      tag_97\n      jumpi\n      dup1\n      0x1f\n      lt\n      tag_98\n      jumpi\n      0x0100\n      dup1\n      dup4\n      sload\n      div\n      mul\n      dup4\n      mstore\n      swap2\n      0x20\n      add\n      swap2\n      jump(tag_97)\n    tag_98:\n      dup3\n      add\n      swap2\n      swap1\n      0x00\n      mstore\n      keccak256(0x00, 0x20)\n      swap1\n    tag_99:\n      dup2\n      sload\n      dup2\n      mstore\n      swap1\n      0x01\n      add\n      swap1\n      0x20\n      add\n      dup1\n      dup4\n      gt\n      tag_99\n      jumpi\n      dup3\n      swap1\n      sub\n      0x1f\n      and\n      dup3\n      add\n      swap2\n    tag_97:\n      pop\n      pop\n      pop\n      pop\n      pop\n      dup2\n      mstore\n      0x20\n      add\n      0x05\n      dup3\n      add\n      0x00\n      swap1\n      sload\n      swap1\n      0x0100\n      exp\n      swap1\n      div\n      0xffffffffffffffffffffffffffffffffffffffff\n      and\n      0xffffffffffffffffffffffffffffffffffffffff\n      and\n      0xffffffffffffffffffffffffffffffffffffffff\n      and\n      dup2\n      mstore\n      pop\n      pop\n        /* \"contracts/Cars.sol\":2555:2562  GetCars */\n      dup4\n        /* \"contracts/Cars.sol\":2563:2564  i */\n      dup4\n        /* \"contracts/Cars.sol\":2555:2565  GetCars[i] */\n      dup2\n      mload\n      dup2\n      lt\n      tag_100\n      jumpi\n      tag_101\n      tag_88\n      jump\t// in\n    tag_101:\n    tag_100:\n      0x20\n      mul\n      0x20\n      add\n      add\n        /* \"contracts/Cars.sol\":2555:2583  GetCars[i] = MapCars[CarIDs] */\n      dup2\n      swap1\n      mstore\n      pop\n        /* \"contracts/Cars.sol\":2499:2594  {... */\n      pop\n        /* \"contracts/Cars.sol\":2494:2497  i++ */\n      dup1\n      dup1\n      0x01\n      add\n      swap2\n      pop\n      pop\n        /* \"contracts/Cars.sol\":2460:2594  for (uint i = 0; i < SizeOfArrat; i++) {... */\n      jump(tag_83)\n    tag_84:\n      pop\n        /* \"contracts/Cars.sol\":2610:2617  GetCars */\n      dup1\n        /* \"contracts/Cars.sol\":2603:2617  return GetCars */\n      swap3\n      pop\n      pop\n      pop\n        /* \"contracts/Cars.sol\":2276:2624  function AllCars() public view returns (Struct_Car[] memory) {... */\n      swap1\n      jump\t// out\n        /* \"contracts/Cars.sol\":1065:1110  mapping(uint256 => Struct_Car) public MapCars */\n    tag_25:\n      mstore(0x20, 0x02)\n      dup1\n      0x00\n      mstore\n      keccak256(0x00, 0x40)\n      0x00\n      swap2\n      pop\n      swap1\n      pop\n      dup1\n      0x00\n      add\n      sload\n      swap1\n      dup1\n      0x01\n      add\n      sload\n      swap1\n      dup1\n      0x02\n      add\n      dup1\n      sload\n      tag_102\n      swap1\n      tag_58\n      jump\t// in\n    tag_102:\n      dup1\n      0x1f\n      add\n      0x20\n      dup1\n      swap2\n      div\n      mul\n      0x20\n      add\n      mload(0x40)\n      swap1\n      dup2\n      add\n      0x40\n      mstore\n      dup1\n      swap3\n      swap2\n      swap1\n      dup2\n      dup2\n      mstore\n      0x20\n      add\n      dup3\n      dup1\n      sload\n      tag_103\n      swap1\n      tag_58\n      jump\t// in\n    tag_103:\n      dup1\n      iszero\n      tag_104\n      jumpi\n      dup1\n      0x1f\n      lt\n      tag_105\n      jumpi\n      0x0100\n      dup1\n      dup4\n      sload\n      div\n      mul\n      dup4\n      mstore\n      swap2\n      0x20\n      add\n      swap2\n      jump(tag_104)\n    tag_105:\n      dup3\n      add\n      swap2\n      swap1\n      0x00\n      mstore\n      keccak256(0x00, 0x20)\n      swap1\n    tag_106:\n      dup2\n      sload\n      dup2\n      mstore\n      swap1\n      0x01\n      add\n      swap1\n      0x20\n      add\n      dup1\n      dup4\n      gt\n      tag_106\n      jumpi\n      dup3\n      swap1\n      sub\n      0x1f\n      and\n      dup3\n      add\n      swap2\n    tag_104:\n      pop\n      pop\n      pop\n      pop\n      pop\n      swap1\n      dup1\n      0x03\n      add\n      sload\n      swap1\n      dup1\n      0x04\n      add\n      dup1\n      sload\n      tag_107\n      swap1\n      tag_58\n      jump\t// in\n    tag_107:\n      dup1\n      0x1f\n      add\n      0x20\n      dup1\n      swap2\n      div\n      mul\n      0x20\n      add\n      mload(0x40)\n      swap1\n      dup2\n      add\n      0x40\n      mstore\n      dup1\n      swap3\n      swap2\n      swap1\n      dup2\n      dup2\n      mstore\n      0x20\n      add\n      dup3\n      dup1\n      sload\n      tag_108\n      swap1\n      tag_58\n      jump\t// in\n    tag_108:\n      dup1\n      iszero\n      tag_109\n      jumpi\n      dup1\n      0x1f\n      lt\n      tag_110\n      jumpi\n      0x0100\n      dup1\n      dup4\n      sload\n      div\n      mul\n      dup4\n      mstore\n      swap2\n      0x20\n      add\n      swap2\n      jump(tag_109)\n    tag_110:\n      dup3\n      add\n      swap2\n      swap1\n      0x00\n      mstore\n      keccak256(0x00, 0x20)\n      swap1\n    tag_111:\n      dup2\n      sload\n      dup2\n      mstore\n      swap1\n      0x01\n      add\n      swap1\n      0x20\n      add\n      dup1\n      dup4\n      gt\n      tag_111\n      jumpi\n      dup3\n      swap1\n      sub\n      0x1f\n      and\n      dup3\n      add\n      swap2\n    tag_109:\n      pop\n      pop\n      pop\n      pop\n      pop\n      swap1\n      dup1\n      0x05\n      add\n      0x00\n      swap1\n      sload\n      swap1\n      0x0100\n      exp\n      swap1\n      div\n      0xffffffffffffffffffffffffffffffffffffffff\n      and\n      swap1\n      pop\n      dup7\n      jump\t// out\n        /* \"contracts/Cars.sol\":1116:1141  uint256[] public ListCars */\n    tag_31:\n      0x03\n      dup2\n      dup2\n      sload\n      dup2\n      lt\n      tag_112\n      jumpi\n      0x00\n      dup1\n      revert\n    tag_112:\n      swap1\n      0x00\n      mstore\n      keccak256(0x00, 0x20)\n      add\n      0x00\n      swap2\n      pop\n      swap1\n      pop\n      sload\n      dup2\n      jump\t// out\n        /* \"@openzeppelin/contracts/utils/Counters.sol\":945:1068  function increment(Counter storage counter) internal {... */\n    tag_40:\n        /* \"@openzeppelin/contracts/utils/Counters.sol\":1050:1051  1 */\n      0x01\n        /* \"@openzeppelin/contracts/utils/Counters.sol\":1032:1039  counter */\n      dup2\n        /* \"@openzeppelin/contracts/utils/Counters.sol\":1032:1046  counter._value */\n      0x00\n      add\n      0x00\n        /* \"@openzeppelin/contracts/utils/Counters.sol\":1032:1051  counter._value += 1 */\n      dup3\n      dup3\n      sload\n      add\n      swap3\n      pop\n      pop\n      dup2\n      swap1\n      sstore\n      pop\n        /* \"@openzeppelin/contracts/utils/Counters.sol\":945:1068  function increment(Counter storage counter) internal {... */\n      pop\n      jump\t// out\n        /* \"@openzeppelin/contracts/utils/Counters.sol\":827:939  function current(Counter storage counter) internal view returns (uint256) {... */\n    tag_42:\n        /* \"@openzeppelin/contracts/utils/Counters.sol\":892:899  uint256 */\n      0x00\n        /* \"@openzeppelin/contracts/utils/Counters.sol\":918:925  counter */\n      dup2\n        /* \"@openzeppelin/contracts/utils/Counters.sol\":918:932  counter._value */\n      0x00\n      add\n      sload\n        /* \"@openzeppelin/contracts/utils/Counters.sol\":911:932  return counter._value */\n      swap1\n      pop\n        /* \"@openzeppelin/contracts/utils/Counters.sol\":827:939  function current(Counter storage counter) internal view returns (uint256) {... */\n      swap2\n      swap1\n      pop\n      jump\t// out\n    tag_82:\n      mload(0x40)\n      dup1\n      0xc0\n      add\n      0x40\n      mstore\n      dup1\n      0x00\n      dup2\n      mstore\n      0x20\n      add\n      0x00\n      dup2\n      mstore\n      0x20\n      add\n      0x60\n      dup2\n      mstore\n      0x20\n      add\n      0x00\n      dup2\n      mstore\n      0x20\n      add\n      0x60\n      dup2\n      mstore\n      0x20\n      add\n      and(0xffffffffffffffffffffffffffffffffffffffff, 0x00)\n      dup2\n      mstore\n      pop\n      swap1\n      jump\t// out\n        /* \"#utility.yul\":7:82   */\n    tag_116:\n        /* \"#utility.yul\":40:46   */\n      0x00\n        /* \"#utility.yul\":73:75   */\n      0x40\n        /* \"#utility.yul\":67:76   */\n      mload\n        /* \"#utility.yul\":57:76   */\n      swap1\n      pop\n        /* \"#utility.yul\":7:82   */\n      swap1\n      jump\t// out\n        /* \"#utility.yul\":88:205   */\n    tag_117:\n        /* \"#utility.yul\":197:198   */\n      0x00\n        /* \"#utility.yul\":194:195   */\n      dup1\n        /* \"#utility.yul\":187:199   */\n      revert\n        /* \"#utility.yul\":211:328   */\n    tag_118:\n        /* \"#utility.yul\":320:321   */\n      0x00\n        /* \"#utility.yul\":317:318   */\n      dup1\n        /* \"#utility.yul\":310:322   */\n      revert\n        /* \"#utility.yul\":334:411   */\n    tag_119:\n        /* \"#utility.yul\":371:378   */\n      0x00\n        /* \"#utility.yul\":400:405   */\n      dup2\n        /* \"#utility.yul\":389:405   */\n      swap1\n      pop\n        /* \"#utility.yul\":334:411   */\n      swap2\n      swap1\n      pop\n      jump\t// out\n        /* \"#utility.yul\":417:539   */\n    tag_120:\n        /* \"#utility.yul\":490:514   */\n      tag_182\n        /* \"#utility.yul\":508:513   */\n      dup2\n        /* \"#utility.yul\":490:514   */\n      tag_119\n      jump\t// in\n    tag_182:\n        /* \"#utility.yul\":483:488   */\n      dup2\n        /* \"#utility.yul\":480:515   */\n      eq\n        /* \"#utility.yul\":470:533   */\n      tag_183\n      jumpi\n        /* \"#utility.yul\":529:530   */\n      0x00\n        /* \"#utility.yul\":526:527   */\n      dup1\n        /* \"#utility.yul\":519:531   */\n      revert\n        /* \"#utility.yul\":470:533   */\n    tag_183:\n        /* \"#utility.yul\":417:539   */\n      pop\n      jump\t// out\n        /* \"#utility.yul\":545:684   */\n    tag_121:\n        /* \"#utility.yul\":591:596   */\n      0x00\n        /* \"#utility.yul\":629:635   */\n      dup2\n        /* \"#utility.yul\":616:636   */\n      calldataload\n        /* \"#utility.yul\":607:636   */\n      swap1\n      pop\n        /* \"#utility.yul\":645:678   */\n      tag_185\n        /* \"#utility.yul\":672:677   */\n      dup2\n        /* \"#utility.yul\":645:678   */\n      tag_120\n      jump\t// in\n    tag_185:\n        /* \"#utility.yul\":545:684   */\n      swap3\n      swap2\n      pop\n      pop\n      jump\t// out\n        /* \"#utility.yul\":690:807   */\n    tag_122:\n        /* \"#utility.yul\":799:800   */\n      0x00\n        /* \"#utility.yul\":796:797   */\n      dup1\n        /* \"#utility.yul\":789:801   */\n      revert\n        /* \"#utility.yul\":813:930   */\n    tag_123:\n        /* \"#utility.yul\":922:923   */\n      0x00\n        /* \"#utility.yul\":919:920   */\n      dup1\n        /* \"#utility.yul\":912:924   */\n      revert\n        /* \"#utility.yul\":936:1038   */\n    tag_124:\n        /* \"#utility.yul\":977:983   */\n      0x00\n        /* \"#utility.yul\":1028:1030   */\n      0x1f\n        /* \"#utility.yul\":1024:1031   */\n      not\n        /* \"#utility.yul\":1019:1021   */\n      0x1f\n        /* \"#utility.yul\":1012:1017   */\n      dup4\n        /* \"#utility.yul\":1008:1022   */\n      add\n        /* \"#utility.yul\":1004:1032   */\n      and\n        /* \"#utility.yul\":994:1032   */\n      swap1\n      pop\n        /* \"#utility.yul\":936:1038   */\n      swap2\n      swap1\n      pop\n      jump\t// out\n        /* \"#utility.yul\":1044:1224   */\n    tag_78:\n        /* \"#utility.yul\":1092:1169   */\n      0x4e487b7100000000000000000000000000000000000000000000000000000000\n        /* \"#utility.yul\":1089:1090   */\n      0x00\n        /* \"#utility.yul\":1082:1170   */\n      mstore\n        /* \"#utility.yul\":1189:1193   */\n      0x41\n        /* \"#utility.yul\":1186:1187   */\n      0x04\n        /* \"#utility.yul\":1179:1194   */\n      mstore\n        /* \"#utility.yul\":1213:1217   */\n      0x24\n        /* \"#utility.yul\":1210:1211   */\n      0x00\n        /* \"#utility.yul\":1203:1218   */\n      revert\n        /* \"#utility.yul\":1230:1511   */\n    tag_125:\n        /* \"#utility.yul\":1313:1340   */\n      tag_191\n        /* \"#utility.yul\":1335:1339   */\n      dup3\n        /* \"#utility.yul\":1313:1340   */\n      tag_124\n      jump\t// in\n    tag_191:\n        /* \"#utility.yul\":1305:1311   */\n      dup2\n        /* \"#utility.yul\":1301:1341   */\n      add\n        /* \"#utility.yul\":1443:1449   */\n      dup2\n        /* \"#utility.yul\":1431:1441   */\n      dup2\n        /* \"#utility.yul\":1428:1450   */\n      lt\n        /* \"#utility.yul\":1407:1425   */\n      0xffffffffffffffff\n        /* \"#utility.yul\":1395:1405   */\n      dup3\n        /* \"#utility.yul\":1392:1426   */\n      gt\n        /* \"#utility.yul\":1389:1451   */\n      or\n        /* \"#utility.yul\":1386:1474   */\n      iszero\n      tag_192\n      jumpi\n        /* \"#utility.yul\":1454:1472   */\n      tag_193\n      tag_78\n      jump\t// in\n    tag_193:\n        /* \"#utility.yul\":1386:1474   */\n    tag_192:\n        /* \"#utility.yul\":1494:1504   */\n      dup1\n        /* \"#utility.yul\":1490:1492   */\n      0x40\n        /* \"#utility.yul\":1483:1505   */\n      mstore\n        /* \"#utility.yul\":1273:1511   */\n      pop\n        /* \"#utility.yul\":1230:1511   */\n      pop\n      pop\n      jump\t// out\n        /* \"#utility.yul\":1517:1646   */\n    tag_126:\n        /* \"#utility.yul\":1551:1557   */\n      0x00\n        /* \"#utility.yul\":1578:1598   */\n      tag_195\n      tag_116\n      jump\t// in\n    tag_195:\n        /* \"#utility.yul\":1568:1598   */\n      swap1\n      pop\n        /* \"#utility.yul\":1607:1640   */\n      tag_196\n        /* \"#utility.yul\":1635:1639   */\n      dup3\n        /* \"#utility.yul\":1627:1633   */\n      dup3\n        /* \"#utility.yul\":1607:1640   */\n      tag_125\n      jump\t// in\n    tag_196:\n        /* \"#utility.yul\":1517:1646   */\n      swap2\n      swap1\n      pop\n      jump\t// out\n        /* \"#utility.yul\":1652:1960   */\n    tag_127:\n        /* \"#utility.yul\":1714:1718   */\n      0x00\n        /* \"#utility.yul\":1804:1822   */\n      0xffffffffffffffff\n        /* \"#utility.yul\":1796:1802   */\n      dup3\n        /* \"#utility.yul\":1793:1823   */\n      gt\n        /* \"#utility.yul\":1790:1846   */\n      iszero\n      tag_198\n      jumpi\n        /* \"#utility.yul\":1826:1844   */\n      tag_199\n      tag_78\n      jump\t// in\n    tag_199:\n        /* \"#utility.yul\":1790:1846   */\n    tag_198:\n        /* \"#utility.yul\":1864:1893   */\n      tag_200\n        /* \"#utility.yul\":1886:1892   */\n      dup3\n        /* \"#utility.yul\":1864:1893   */\n      tag_124\n      jump\t// in\n    tag_200:\n        /* \"#utility.yul\":1856:1893   */\n      swap1\n      pop\n        /* \"#utility.yul\":1948:1952   */\n      0x20\n        /* \"#utility.yul\":1942:1946   */\n      dup2\n        /* \"#utility.yul\":1938:1953   */\n      add\n        /* \"#utility.yul\":1930:1953   */\n      swap1\n      pop\n        /* \"#utility.yul\":1652:1960   */\n      swap2\n      swap1\n      pop\n      jump\t// out\n        /* \"#utility.yul\":1966:2112   */\n    tag_128:\n        /* \"#utility.yul\":2063:2069   */\n      dup3\n        /* \"#utility.yul\":2058:2061   */\n      dup2\n        /* \"#utility.yul\":2053:2056   */\n      dup4\n        /* \"#utility.yul\":2040:2070   */\n      calldatacopy\n        /* \"#utility.yul\":2104:2105   */\n      0x00\n        /* \"#utility.yul\":2095:2101   */\n      dup4\n        /* \"#utility.yul\":2090:2093   */\n      dup4\n        /* \"#utility.yul\":2086:2102   */\n      add\n        /* \"#utility.yul\":2079:2106   */\n      mstore\n        /* \"#utility.yul\":1966:2112   */\n      pop\n      pop\n      pop\n      jump\t// out\n        /* \"#utility.yul\":2118:2543   */\n    tag_129:\n        /* \"#utility.yul\":2196:2201   */\n      0x00\n        /* \"#utility.yul\":2221:2287   */\n      tag_203\n        /* \"#utility.yul\":2237:2286   */\n      tag_204\n        /* \"#utility.yul\":2279:2285   */\n      dup5\n        /* \"#utility.yul\":2237:2286   */\n      tag_127\n      jump\t// in\n    tag_204:\n        /* \"#utility.yul\":2221:2287   */\n      tag_126\n      jump\t// in\n    tag_203:\n        /* \"#utility.yul\":2212:2287   */\n      swap1\n      pop\n        /* \"#utility.yul\":2310:2316   */\n      dup3\n        /* \"#utility.yul\":2303:2308   */\n      dup2\n        /* \"#utility.yul\":2296:2317   */\n      mstore\n        /* \"#utility.yul\":2348:2352   */\n      0x20\n        /* \"#utility.yul\":2341:2346   */\n      dup2\n        /* \"#utility.yul\":2337:2353   */\n      add\n        /* \"#utility.yul\":2386:2389   */\n      dup5\n        /* \"#utility.yul\":2377:2383   */\n      dup5\n        /* \"#utility.yul\":2372:2375   */\n      dup5\n        /* \"#utility.yul\":2368:2384   */\n      add\n        /* \"#utility.yul\":2365:2390   */\n      gt\n        /* \"#utility.yul\":2362:2474   */\n      iszero\n      tag_205\n      jumpi\n        /* \"#utility.yul\":2393:2472   */\n      tag_206\n      tag_123\n      jump\t// in\n    tag_206:\n        /* \"#utility.yul\":2362:2474   */\n    tag_205:\n        /* \"#utility.yul\":2483:2537   */\n      tag_207\n        /* \"#utility.yul\":2530:2536   */\n      dup5\n        /* \"#utility.yul\":2525:2528   */\n      dup3\n        /* \"#utility.yul\":2520:2523   */\n      dup6\n        /* \"#utility.yul\":2483:2537   */\n      tag_128\n      jump\t// in\n    tag_207:\n        /* \"#utility.yul\":2202:2543   */\n      pop\n        /* \"#utility.yul\":2118:2543   */\n      swap4\n      swap3\n      pop\n      pop\n      pop\n      jump\t// out\n        /* \"#utility.yul\":2563:2903   */\n    tag_130:\n        /* \"#utility.yul\":2619:2624   */\n      0x00\n        /* \"#utility.yul\":2668:2671   */\n      dup3\n        /* \"#utility.yul\":2661:2665   */\n      0x1f\n        /* \"#utility.yul\":2653:2659   */\n      dup4\n        /* \"#utility.yul\":2649:2666   */\n      add\n        /* \"#utility.yul\":2645:2672   */\n      slt\n        /* \"#utility.yul\":2635:2757   */\n      tag_209\n      jumpi\n        /* \"#utility.yul\":2676:2755   */\n      tag_210\n      tag_122\n      jump\t// in\n    tag_210:\n        /* \"#utility.yul\":2635:2757   */\n    tag_209:\n        /* \"#utility.yul\":2793:2799   */\n      dup2\n        /* \"#utility.yul\":2780:2800   */\n      calldataload\n        /* \"#utility.yul\":2818:2897   */\n      tag_211\n        /* \"#utility.yul\":2893:2896   */\n      dup5\n        /* \"#utility.yul\":2885:2891   */\n      dup3\n        /* \"#utility.yul\":2878:2882   */\n      0x20\n        /* \"#utility.yul\":2870:2876   */\n      dup7\n        /* \"#utility.yul\":2866:2883   */\n      add\n        /* \"#utility.yul\":2818:2897   */\n      tag_129\n      jump\t// in\n    tag_211:\n        /* \"#utility.yul\":2809:2897   */\n      swap2\n      pop\n        /* \"#utility.yul\":2625:2903   */\n      pop\n        /* \"#utility.yul\":2563:2903   */\n      swap3\n      swap2\n      pop\n      pop\n      jump\t// out\n        /* \"#utility.yul\":2909:3035   */\n    tag_131:\n        /* \"#utility.yul\":2946:2953   */\n      0x00\n        /* \"#utility.yul\":2986:3028   */\n      0xffffffffffffffffffffffffffffffffffffffff\n        /* \"#utility.yul\":2979:2984   */\n      dup3\n        /* \"#utility.yul\":2975:3029   */\n      and\n        /* \"#utility.yul\":2964:3029   */\n      swap1\n      pop\n        /* \"#utility.yul\":2909:3035   */\n      swap2\n      swap1\n      pop\n      jump\t// out\n        /* \"#utility.yul\":3041:3137   */\n    tag_132:\n        /* \"#utility.yul\":3078:3085   */\n      0x00\n        /* \"#utility.yul\":3107:3131   */\n      tag_214\n        /* \"#utility.yul\":3125:3130   */\n      dup3\n        /* \"#utility.yul\":3107:3131   */\n      tag_131\n      jump\t// in\n    tag_214:\n        /* \"#utility.yul\":3096:3131   */\n      swap1\n      pop\n        /* \"#utility.yul\":3041:3137   */\n      swap2\n      swap1\n      pop\n      jump\t// out\n        /* \"#utility.yul\":3143:3265   */\n    tag_133:\n        /* \"#utility.yul\":3216:3240   */\n      tag_216\n        /* \"#utility.yul\":3234:3239   */\n      dup2\n        /* \"#utility.yul\":3216:3240   */\n      tag_132\n      jump\t// in\n    tag_216:\n        /* \"#utility.yul\":3209:3214   */\n      dup2\n        /* \"#utility.yul\":3206:3241   */\n      eq\n        /* \"#utility.yul\":3196:3259   */\n      tag_217\n      jumpi\n        /* \"#utility.yul\":3255:3256   */\n      0x00\n        /* \"#utility.yul\":3252:3253   */\n      dup1\n        /* \"#utility.yul\":3245:3257   */\n      revert\n        /* \"#utility.yul\":3196:3259   */\n    tag_217:\n        /* \"#utility.yul\":3143:3265   */\n      pop\n      jump\t// out\n        /* \"#utility.yul\":3271:3410   */\n    tag_134:\n        /* \"#utility.yul\":3317:3322   */\n      0x00\n        /* \"#utility.yul\":3355:3361   */\n      dup2\n        /* \"#utility.yul\":3342:3362   */\n      calldataload\n        /* \"#utility.yul\":3333:3362   */\n      swap1\n      pop\n        /* \"#utility.yul\":3371:3404   */\n      tag_219\n        /* \"#utility.yul\":3398:3403   */\n      dup2\n        /* \"#utility.yul\":3371:3404   */\n      tag_133\n      jump\t// in\n    tag_219:\n        /* \"#utility.yul\":3271:3410   */\n      swap3\n      swap2\n      pop\n      pop\n      jump\t// out\n        /* \"#utility.yul\":3416:4687   */\n    tag_10:\n        /* \"#utility.yul\":3531:3537   */\n      0x00\n        /* \"#utility.yul\":3539:3545   */\n      dup1\n        /* \"#utility.yul\":3547:3553   */\n      0x00\n        /* \"#utility.yul\":3555:3561   */\n      dup1\n        /* \"#utility.yul\":3563:3569   */\n      0x00\n        /* \"#utility.yul\":3612:3615   */\n      0xa0\n        /* \"#utility.yul\":3600:3609   */\n      dup7\n        /* \"#utility.yul\":3591:3598   */\n      dup9\n        /* \"#utility.yul\":3587:3610   */\n      sub\n        /* \"#utility.yul\":3583:3616   */\n      slt\n        /* \"#utility.yul\":3580:3700   */\n      iszero\n      tag_221\n      jumpi\n        /* \"#utility.yul\":3619:3698   */\n      tag_222\n      tag_117\n      jump\t// in\n    tag_222:\n        /* \"#utility.yul\":3580:3700   */\n    tag_221:\n        /* \"#utility.yul\":3739:3740   */\n      0x00\n        /* \"#utility.yul\":3764:3817   */\n      tag_223\n        /* \"#utility.yul\":3809:3816   */\n      dup9\n        /* \"#utility.yul\":3800:3806   */\n      dup3\n        /* \"#utility.yul\":3789:3798   */\n      dup10\n        /* \"#utility.yul\":3785:3807   */\n      add\n        /* \"#utility.yul\":3764:3817   */\n      tag_121\n      jump\t// in\n    tag_223:\n        /* \"#utility.yul\":3754:3817   */\n      swap6\n      pop\n        /* \"#utility.yul\":3710:3827   */\n      pop\n        /* \"#utility.yul\":3894:3896   */\n      0x20\n        /* \"#utility.yul\":3883:3892   */\n      dup7\n        /* \"#utility.yul\":3879:3897   */\n      add\n        /* \"#utility.yul\":3866:3898   */\n      calldataload\n        /* \"#utility.yul\":3925:3943   */\n      0xffffffffffffffff\n        /* \"#utility.yul\":3917:3923   */\n      dup2\n        /* \"#utility.yul\":3914:3944   */\n      gt\n        /* \"#utility.yul\":3911:4028   */\n      iszero\n      tag_224\n      jumpi\n        /* \"#utility.yul\":3947:4026   */\n      tag_225\n      tag_118\n      jump\t// in\n    tag_225:\n        /* \"#utility.yul\":3911:4028   */\n    tag_224:\n        /* \"#utility.yul\":4052:4115   */\n      tag_226\n        /* \"#utility.yul\":4107:4114   */\n      dup9\n        /* \"#utility.yul\":4098:4104   */\n      dup3\n        /* \"#utility.yul\":4087:4096   */\n      dup10\n        /* \"#utility.yul\":4083:4105   */\n      add\n        /* \"#utility.yul\":4052:4115   */\n      tag_130\n      jump\t// in\n    tag_226:\n        /* \"#utility.yul\":4042:4115   */\n      swap5\n      pop\n        /* \"#utility.yul\":3837:4125   */\n      pop\n        /* \"#utility.yul\":4164:4166   */\n      0x40\n        /* \"#utility.yul\":4190:4243   */\n      tag_227\n        /* \"#utility.yul\":4235:4242   */\n      dup9\n        /* \"#utility.yul\":4226:4232   */\n      dup3\n        /* \"#utility.yul\":4215:4224   */\n      dup10\n        /* \"#utility.yul\":4211:4233   */\n      add\n        /* \"#utility.yul\":4190:4243   */\n      tag_121\n      jump\t// in\n    tag_227:\n        /* \"#utility.yul\":4180:4243   */\n      swap4\n      pop\n        /* \"#utility.yul\":4135:4253   */\n      pop\n        /* \"#utility.yul\":4320:4322   */\n      0x60\n        /* \"#utility.yul\":4309:4318   */\n      dup7\n        /* \"#utility.yul\":4305:4323   */\n      add\n        /* \"#utility.yul\":4292:4324   */\n      calldataload\n        /* \"#utility.yul\":4351:4369   */\n      0xffffffffffffffff\n        /* \"#utility.yul\":4343:4349   */\n      dup2\n        /* \"#utility.yul\":4340:4370   */\n      gt\n        /* \"#utility.yul\":4337:4454   */\n      iszero\n      tag_228\n      jumpi\n        /* \"#utility.yul\":4373:4452   */\n      tag_229\n      tag_118\n      jump\t// in\n    tag_229:\n        /* \"#utility.yul\":4337:4454   */\n    tag_228:\n        /* \"#utility.yul\":4478:4541   */\n      tag_230\n        /* \"#utility.yul\":4533:4540   */\n      dup9\n        /* \"#utility.yul\":4524:4530   */\n      dup3\n        /* \"#utility.yul\":4513:4522   */\n      dup10\n        /* \"#utility.yul\":4509:4531   */\n      add\n        /* \"#utility.yul\":4478:4541   */\n      tag_130\n      jump\t// in\n    tag_230:\n        /* \"#utility.yul\":4468:4541   */\n      swap3\n      pop\n        /* \"#utility.yul\":4263:4551   */\n      pop\n        /* \"#utility.yul\":4590:4593   */\n      0x80\n        /* \"#utility.yul\":4617:4670   */\n      tag_231\n        /* \"#utility.yul\":4662:4669   */\n      dup9\n        /* \"#utility.yul\":4653:4659   */\n      dup3\n        /* \"#utility.yul\":4642:4651   */\n      dup10\n        /* \"#utility.yul\":4638:4660   */\n      add\n        /* \"#utility.yul\":4617:4670   */\n      tag_134\n      jump\t// in\n    tag_231:\n        /* \"#utility.yul\":4607:4670   */\n      swap2\n      pop\n        /* \"#utility.yul\":4561:4680   */\n      pop\n        /* \"#utility.yul\":3416:4687   */\n      swap3\n      swap6\n      pop\n      swap3\n      swap6\n      swap1\n      swap4\n      pop\n      jump\t// out\n        /* \"#utility.yul\":4693:5312   */\n    tag_14:\n        /* \"#utility.yul\":4770:4776   */\n      0x00\n        /* \"#utility.yul\":4778:4784   */\n      dup1\n        /* \"#utility.yul\":4786:4792   */\n      0x00\n        /* \"#utility.yul\":4835:4837   */\n      0x60\n        /* \"#utility.yul\":4823:4832   */\n      dup5\n        /* \"#utility.yul\":4814:4821   */\n      dup7\n        /* \"#utility.yul\":4810:4833   */\n      sub\n        /* \"#utility.yul\":4806:4838   */\n      slt\n        /* \"#utility.yul\":4803:4922   */\n      iszero\n      tag_233\n      jumpi\n        /* \"#utility.yul\":4841:4920   */\n      tag_234\n      tag_117\n      jump\t// in\n    tag_234:\n        /* \"#utility.yul\":4803:4922   */\n    tag_233:\n        /* \"#utility.yul\":4961:4962   */\n      0x00\n        /* \"#utility.yul\":4986:5039   */\n      tag_235\n        /* \"#utility.yul\":5031:5038   */\n      dup7\n        /* \"#utility.yul\":5022:5028   */\n      dup3\n        /* \"#utility.yul\":5011:5020   */\n      dup8\n        /* \"#utility.yul\":5007:5029   */\n      add\n        /* \"#utility.yul\":4986:5039   */\n      tag_121\n      jump\t// in\n    tag_235:\n        /* \"#utility.yul\":4976:5039   */\n      swap4\n      pop\n        /* \"#utility.yul\":4932:5049   */\n      pop\n        /* \"#utility.yul\":5088:5090   */\n      0x20\n        /* \"#utility.yul\":5114:5167   */\n      tag_236\n        /* \"#utility.yul\":5159:5166   */\n      dup7\n        /* \"#utility.yul\":5150:5156   */\n      dup3\n        /* \"#utility.yul\":5139:5148   */\n      dup8\n        /* \"#utility.yul\":5135:5157   */\n      add\n        /* \"#utility.yul\":5114:5167   */\n      tag_134\n      jump\t// in\n    tag_236:\n        /* \"#utility.yul\":5104:5167   */\n      swap3\n      pop\n        /* \"#utility.yul\":5059:5177   */\n      pop\n        /* \"#utility.yul\":5216:5218   */\n      0x40\n        /* \"#utility.yul\":5242:5295   */\n      tag_237\n        /* \"#utility.yul\":5287:5294   */\n      dup7\n        /* \"#utility.yul\":5278:5284   */\n      dup3\n        /* \"#utility.yul\":5267:5276   */\n      dup8\n        /* \"#utility.yul\":5263:5285   */\n      add\n        /* \"#utility.yul\":5242:5295   */\n      tag_121\n      jump\t// in\n    tag_237:\n        /* \"#utility.yul\":5232:5295   */\n      swap2\n      pop\n        /* \"#utility.yul\":5187:5305   */\n      pop\n        /* \"#utility.yul\":4693:5312   */\n      swap3\n      pop\n      swap3\n      pop\n      swap3\n      jump\t// out\n        /* \"#utility.yul\":5318:5458   */\n    tag_135:\n        /* \"#utility.yul\":5411:5417   */\n      0x00\n        /* \"#utility.yul\":5445:5450   */\n      dup2\n        /* \"#utility.yul\":5439:5451   */\n      mload\n        /* \"#utility.yul\":5429:5451   */\n      swap1\n      pop\n        /* \"#utility.yul\":5318:5458   */\n      swap2\n      swap1\n      pop\n      jump\t// out\n        /* \"#utility.yul\":5464:5674   */\n    tag_136:\n        /* \"#utility.yul\":5589:5600   */\n      0x00\n        /* \"#utility.yul\":5623:5629   */\n      dup3\n        /* \"#utility.yul\":5618:5621   */\n      dup3\n        /* \"#utility.yul\":5611:5630   */\n      mstore\n        /* \"#utility.yul\":5663:5667   */\n      0x20\n        /* \"#utility.yul\":5658:5661   */\n      dup3\n        /* \"#utility.yul\":5654:5668   */\n      add\n        /* \"#utility.yul\":5639:5668   */\n      swap1\n      pop\n        /* \"#utility.yul\":5464:5674   */\n      swap3\n      swap2\n      pop\n      pop\n      jump\t// out\n        /* \"#utility.yul\":5680:5838   */\n    tag_137:\n        /* \"#utility.yul\":5773:5777   */\n      0x00\n        /* \"#utility.yul\":5796:5799   */\n      dup2\n        /* \"#utility.yul\":5788:5799   */\n      swap1\n      pop\n        /* \"#utility.yul\":5826:5830   */\n      0x20\n        /* \"#utility.yul\":5821:5824   */\n      dup3\n        /* \"#utility.yul\":5817:5831   */\n      add\n        /* \"#utility.yul\":5809:5831   */\n      swap1\n      pop\n        /* \"#utility.yul\":5680:5838   */\n      swap2\n      swap1\n      pop\n      jump\t// out\n        /* \"#utility.yul\":5844:5952   */\n    tag_138:\n        /* \"#utility.yul\":5921:5945   */\n      tag_242\n        /* \"#utility.yul\":5939:5944   */\n      dup2\n        /* \"#utility.yul\":5921:5945   */\n      tag_119\n      jump\t// in\n    tag_242:\n        /* \"#utility.yul\":5916:5919   */\n      dup3\n        /* \"#utility.yul\":5909:5946   */\n      mstore\n        /* \"#utility.yul\":5844:5952   */\n      pop\n      pop\n      jump\t// out\n        /* \"#utility.yul\":5958:6057   */\n    tag_139:\n        /* \"#utility.yul\":6010:6016   */\n      0x00\n        /* \"#utility.yul\":6044:6049   */\n      dup2\n        /* \"#utility.yul\":6038:6050   */\n      mload\n        /* \"#utility.yul\":6028:6050   */\n      swap1\n      pop\n        /* \"#utility.yul\":5958:6057   */\n      swap2\n      swap1\n      pop\n      jump\t// out\n        /* \"#utility.yul\":6063:6222   */\n    tag_140:\n        /* \"#utility.yul\":6137:6148   */\n      0x00\n        /* \"#utility.yul\":6171:6177   */\n      dup3\n        /* \"#utility.yul\":6166:6169   */\n      dup3\n        /* \"#utility.yul\":6159:6178   */\n      mstore\n        /* \"#utility.yul\":6211:6215   */\n      0x20\n        /* \"#utility.yul\":6206:6209   */\n      dup3\n        /* \"#utility.yul\":6202:6216   */\n      add\n        /* \"#utility.yul\":6187:6216   */\n      swap1\n      pop\n        /* \"#utility.yul\":6063:6222   */\n      swap3\n      swap2\n      pop\n      pop\n      jump\t// out\n        /* \"#utility.yul\":6228:6474   */\n    tag_141:\n        /* \"#utility.yul\":6309:6310   */\n      0x00\n        /* \"#utility.yul\":6319:6432   */\n    tag_246:\n        /* \"#utility.yul\":6333:6339   */\n      dup4\n        /* \"#utility.yul\":6330:6331   */\n      dup2\n        /* \"#utility.yul\":6327:6340   */\n      lt\n        /* \"#utility.yul\":6319:6432   */\n      iszero\n      tag_248\n      jumpi\n        /* \"#utility.yul\":6418:6419   */\n      dup1\n        /* \"#utility.yul\":6413:6416   */\n      dup3\n        /* \"#utility.yul\":6409:6420   */\n      add\n        /* \"#utility.yul\":6403:6421   */\n      mload\n        /* \"#utility.yul\":6399:6400   */\n      dup2\n        /* \"#utility.yul\":6394:6397   */\n      dup5\n        /* \"#utility.yul\":6390:6401   */\n      add\n        /* \"#utility.yul\":6383:6422   */\n      mstore\n        /* \"#utility.yul\":6355:6357   */\n      0x20\n        /* \"#utility.yul\":6352:6353   */\n      dup2\n        /* \"#utility.yul\":6348:6358   */\n      add\n        /* \"#utility.yul\":6343:6358   */\n      swap1\n      pop\n        /* \"#utility.yul\":6319:6432   */\n      jump(tag_246)\n    tag_248:\n        /* \"#utility.yul\":6466:6467   */\n      0x00\n        /* \"#utility.yul\":6457:6463   */\n      dup5\n        /* \"#utility.yul\":6452:6455   */\n      dup5\n        /* \"#utility.yul\":6448:6464   */\n      add\n        /* \"#utility.yul\":6441:6468   */\n      mstore\n        /* \"#utility.yul\":6290:6474   */\n      pop\n        /* \"#utility.yul\":6228:6474   */\n      pop\n      pop\n      pop\n      jump\t// out\n        /* \"#utility.yul\":6480:6837   */\n    tag_142:\n        /* \"#utility.yul\":6558:6561   */\n      0x00\n        /* \"#utility.yul\":6586:6625   */\n      tag_250\n        /* \"#utility.yul\":6619:6624   */\n      dup3\n        /* \"#utility.yul\":6586:6625   */\n      tag_139\n      jump\t// in\n    tag_250:\n        /* \"#utility.yul\":6641:6702   */\n      tag_251\n        /* \"#utility.yul\":6695:6701   */\n      dup2\n        /* \"#utility.yul\":6690:6693   */\n      dup6\n        /* \"#utility.yul\":6641:6702   */\n      tag_140\n      jump\t// in\n    tag_251:\n        /* \"#utility.yul\":6634:6702   */\n      swap4\n      pop\n        /* \"#utility.yul\":6711:6776   */\n      tag_252\n        /* \"#utility.yul\":6769:6775   */\n      dup2\n        /* \"#utility.yul\":6764:6767   */\n      dup6\n        /* \"#utility.yul\":6757:6761   */\n      0x20\n        /* \"#utility.yul\":6750:6755   */\n      dup7\n        /* \"#utility.yul\":6746:6762   */\n      add\n        /* \"#utility.yul\":6711:6776   */\n      tag_141\n      jump\t// in\n    tag_252:\n        /* \"#utility.yul\":6801:6830   */\n      tag_253\n        /* \"#utility.yul\":6823:6829   */\n      dup2\n        /* \"#utility.yul\":6801:6830   */\n      tag_124\n      jump\t// in\n    tag_253:\n        /* \"#utility.yul\":6796:6799   */\n      dup5\n        /* \"#utility.yul\":6792:6831   */\n      add\n        /* \"#utility.yul\":6785:6831   */\n      swap2\n      pop\n        /* \"#utility.yul\":6562:6837   */\n      pop\n        /* \"#utility.yul\":6480:6837   */\n      swap3\n      swap2\n      pop\n      pop\n      jump\t// out\n        /* \"#utility.yul\":6843:6947   */\n    tag_143:\n        /* \"#utility.yul\":6888:6895   */\n      0x00\n        /* \"#utility.yul\":6917:6941   */\n      tag_255\n        /* \"#utility.yul\":6935:6940   */\n      dup3\n        /* \"#utility.yul\":6917:6941   */\n      tag_131\n      jump\t// in\n    tag_255:\n        /* \"#utility.yul\":6906:6941   */\n      swap1\n      pop\n        /* \"#utility.yul\":6843:6947   */\n      swap2\n      swap1\n      pop\n      jump\t// out\n        /* \"#utility.yul\":6953:7085   */\n    tag_144:\n        /* \"#utility.yul\":7046:7078   */\n      tag_257\n        /* \"#utility.yul\":7072:7077   */\n      dup2\n        /* \"#utility.yul\":7046:7078   */\n      tag_143\n      jump\t// in\n    tag_257:\n        /* \"#utility.yul\":7041:7044   */\n      dup3\n        /* \"#utility.yul\":7034:7079   */\n      mstore\n        /* \"#utility.yul\":6953:7085   */\n      pop\n      pop\n      jump\t// out\n        /* \"#utility.yul\":7157:8562   */\n    tag_145:\n        /* \"#utility.yul\":7268:7271   */\n      0x00\n        /* \"#utility.yul\":7304:7308   */\n      0xc0\n        /* \"#utility.yul\":7299:7302   */\n      dup4\n        /* \"#utility.yul\":7295:7309   */\n      add\n        /* \"#utility.yul\":7393:7397   */\n      0x00\n        /* \"#utility.yul\":7386:7391   */\n      dup4\n        /* \"#utility.yul\":7382:7398   */\n      add\n        /* \"#utility.yul\":7376:7399   */\n      mload\n        /* \"#utility.yul\":7412:7475   */\n      tag_259\n        /* \"#utility.yul\":7469:7473   */\n      0x00\n        /* \"#utility.yul\":7464:7467   */\n      dup7\n        /* \"#utility.yul\":7460:7474   */\n      add\n        /* \"#utility.yul\":7446:7458   */\n      dup3\n        /* \"#utility.yul\":7412:7475   */\n      tag_138\n      jump\t// in\n    tag_259:\n        /* \"#utility.yul\":7319:7485   */\n      pop\n        /* \"#utility.yul\":7572:7576   */\n      0x20\n        /* \"#utility.yul\":7565:7570   */\n      dup4\n        /* \"#utility.yul\":7561:7577   */\n      add\n        /* \"#utility.yul\":7555:7578   */\n      mload\n        /* \"#utility.yul\":7591:7654   */\n      tag_260\n        /* \"#utility.yul\":7648:7652   */\n      0x20\n        /* \"#utility.yul\":7643:7646   */\n      dup7\n        /* \"#utility.yul\":7639:7653   */\n      add\n        /* \"#utility.yul\":7625:7637   */\n      dup3\n        /* \"#utility.yul\":7591:7654   */\n      tag_138\n      jump\t// in\n    tag_260:\n        /* \"#utility.yul\":7495:7664   */\n      pop\n        /* \"#utility.yul\":7751:7755   */\n      0x40\n        /* \"#utility.yul\":7744:7749   */\n      dup4\n        /* \"#utility.yul\":7740:7756   */\n      add\n        /* \"#utility.yul\":7734:7757   */\n      mload\n        /* \"#utility.yul\":7804:7807   */\n      dup5\n        /* \"#utility.yul\":7798:7802   */\n      dup3\n        /* \"#utility.yul\":7794:7808   */\n      sub\n        /* \"#utility.yul\":7787:7791   */\n      0x40\n        /* \"#utility.yul\":7782:7785   */\n      dup7\n        /* \"#utility.yul\":7778:7792   */\n      add\n        /* \"#utility.yul\":7771:7809   */\n      mstore\n        /* \"#utility.yul\":7830:7903   */\n      tag_261\n        /* \"#utility.yul\":7898:7902   */\n      dup3\n        /* \"#utility.yul\":7884:7896   */\n      dup3\n        /* \"#utility.yul\":7830:7903   */\n      tag_142\n      jump\t// in\n    tag_261:\n        /* \"#utility.yul\":7822:7903   */\n      swap2\n      pop\n        /* \"#utility.yul\":7674:7914   */\n      pop\n        /* \"#utility.yul\":8001:8005   */\n      0x60\n        /* \"#utility.yul\":7994:7999   */\n      dup4\n        /* \"#utility.yul\":7990:8006   */\n      add\n        /* \"#utility.yul\":7984:8007   */\n      mload\n        /* \"#utility.yul\":8020:8083   */\n      tag_262\n        /* \"#utility.yul\":8077:8081   */\n      0x60\n        /* \"#utility.yul\":8072:8075   */\n      dup7\n        /* \"#utility.yul\":8068:8082   */\n      add\n        /* \"#utility.yul\":8054:8066   */\n      dup3\n        /* \"#utility.yul\":8020:8083   */\n      tag_138\n      jump\t// in\n    tag_262:\n        /* \"#utility.yul\":7924:8093   */\n      pop\n        /* \"#utility.yul\":8179:8183   */\n      0x80\n        /* \"#utility.yul\":8172:8177   */\n      dup4\n        /* \"#utility.yul\":8168:8184   */\n      add\n        /* \"#utility.yul\":8162:8185   */\n      mload\n        /* \"#utility.yul\":8232:8235   */\n      dup5\n        /* \"#utility.yul\":8226:8230   */\n      dup3\n        /* \"#utility.yul\":8222:8236   */\n      sub\n        /* \"#utility.yul\":8215:8219   */\n      0x80\n        /* \"#utility.yul\":8210:8213   */\n      dup7\n        /* \"#utility.yul\":8206:8220   */\n      add\n        /* \"#utility.yul\":8199:8237   */\n      mstore\n        /* \"#utility.yul\":8258:8331   */\n      tag_263\n        /* \"#utility.yul\":8326:8330   */\n      dup3\n        /* \"#utility.yul\":8312:8324   */\n      dup3\n        /* \"#utility.yul\":8258:8331   */\n      tag_142\n      jump\t// in\n    tag_263:\n        /* \"#utility.yul\":8250:8331   */\n      swap2\n      pop\n        /* \"#utility.yul\":8103:8342   */\n      pop\n        /* \"#utility.yul\":8427:8431   */\n      0xa0\n        /* \"#utility.yul\":8420:8425   */\n      dup4\n        /* \"#utility.yul\":8416:8432   */\n      add\n        /* \"#utility.yul\":8410:8433   */\n      mload\n        /* \"#utility.yul\":8446:8525   */\n      tag_264\n        /* \"#utility.yul\":8519:8523   */\n      0xa0\n        /* \"#utility.yul\":8514:8517   */\n      dup7\n        /* \"#utility.yul\":8510:8524   */\n      add\n        /* \"#utility.yul\":8496:8508   */\n      dup3\n        /* \"#utility.yul\":8446:8525   */\n      tag_144\n      jump\t// in\n    tag_264:\n        /* \"#utility.yul\":8352:8535   */\n      pop\n        /* \"#utility.yul\":8552:8556   */\n      dup1\n        /* \"#utility.yul\":8545:8556   */\n      swap2\n      pop\n        /* \"#utility.yul\":7273:8562   */\n      pop\n        /* \"#utility.yul\":7157:8562   */\n      swap3\n      swap2\n      pop\n      pop\n      jump\t// out\n        /* \"#utility.yul\":8568:8828   */\n    tag_146:\n        /* \"#utility.yul\":8689:8699   */\n      0x00\n        /* \"#utility.yul\":8724:8822   */\n      tag_266\n        /* \"#utility.yul\":8818:8821   */\n      dup4\n        /* \"#utility.yul\":8810:8816   */\n      dup4\n        /* \"#utility.yul\":8724:8822   */\n      tag_145\n      jump\t// in\n    tag_266:\n        /* \"#utility.yul\":8710:8822   */\n      swap1\n      pop\n        /* \"#utility.yul\":8568:8828   */\n      swap3\n      swap2\n      pop\n      pop\n      jump\t// out\n        /* \"#utility.yul\":8834:8973   */\n    tag_147:\n        /* \"#utility.yul\":8930:8934   */\n      0x00\n        /* \"#utility.yul\":8962:8966   */\n      0x20\n        /* \"#utility.yul\":8957:8960   */\n      dup3\n        /* \"#utility.yul\":8953:8967   */\n      add\n        /* \"#utility.yul\":8945:8967   */\n      swap1\n      pop\n        /* \"#utility.yul\":8834:8973   */\n      swap2\n      swap1\n      pop\n      jump\t// out\n        /* \"#utility.yul\":9049:10168   */\n    tag_148:\n        /* \"#utility.yul\":9220:9223   */\n      0x00\n        /* \"#utility.yul\":9249:9329   */\n      tag_269\n        /* \"#utility.yul\":9323:9328   */\n      dup3\n        /* \"#utility.yul\":9249:9329   */\n      tag_135\n      jump\t// in\n    tag_269:\n        /* \"#utility.yul\":9345:9457   */\n      tag_270\n        /* \"#utility.yul\":9450:9456   */\n      dup2\n        /* \"#utility.yul\":9445:9448   */\n      dup6\n        /* \"#utility.yul\":9345:9457   */\n      tag_136\n      jump\t// in\n    tag_270:\n        /* \"#utility.yul\":9338:9457   */\n      swap4\n      pop\n        /* \"#utility.yul\":9483:9486   */\n      dup4\n        /* \"#utility.yul\":9528:9532   */\n      0x20\n        /* \"#utility.yul\":9520:9526   */\n      dup3\n        /* \"#utility.yul\":9516:9533   */\n      mul\n        /* \"#utility.yul\":9511:9514   */\n      dup6\n        /* \"#utility.yul\":9507:9534   */\n      add\n        /* \"#utility.yul\":9558:9640   */\n      tag_271\n        /* \"#utility.yul\":9634:9639   */\n      dup6\n        /* \"#utility.yul\":9558:9640   */\n      tag_137\n      jump\t// in\n    tag_271:\n        /* \"#utility.yul\":9663:9670   */\n      dup1\n        /* \"#utility.yul\":9694:9695   */\n      0x00\n        /* \"#utility.yul\":9679:10123   */\n    tag_272:\n        /* \"#utility.yul\":9704:9710   */\n      dup6\n        /* \"#utility.yul\":9701:9702   */\n      dup2\n        /* \"#utility.yul\":9698:9711   */\n      lt\n        /* \"#utility.yul\":9679:10123   */\n      iszero\n      tag_274\n      jumpi\n        /* \"#utility.yul\":9775:9784   */\n      dup5\n        /* \"#utility.yul\":9769:9773   */\n      dup5\n        /* \"#utility.yul\":9765:9785   */\n      sub\n        /* \"#utility.yul\":9760:9763   */\n      dup10\n        /* \"#utility.yul\":9753:9786   */\n      mstore\n        /* \"#utility.yul\":9826:9832   */\n      dup2\n        /* \"#utility.yul\":9820:9833   */\n      mload\n        /* \"#utility.yul\":9854:9970   */\n      tag_275\n        /* \"#utility.yul\":9965:9969   */\n      dup6\n        /* \"#utility.yul\":9950:9963   */\n      dup3\n        /* \"#utility.yul\":9854:9970   */\n      tag_146\n      jump\t// in\n    tag_275:\n        /* \"#utility.yul\":9846:9970   */\n      swap5\n      pop\n        /* \"#utility.yul\":9993:10079   */\n      tag_276\n        /* \"#utility.yul\":10072:10078   */\n      dup4\n        /* \"#utility.yul\":9993:10079   */\n      tag_147\n      jump\t// in\n    tag_276:\n        /* \"#utility.yul\":9983:10079   */\n      swap3\n      pop\n        /* \"#utility.yul\":10108:10112   */\n      0x20\n        /* \"#utility.yul\":10103:10106   */\n      dup11\n        /* \"#utility.yul\":10099:10113   */\n      add\n        /* \"#utility.yul\":10092:10113   */\n      swap10\n      pop\n        /* \"#utility.yul\":9739:10123   */\n      pop\n        /* \"#utility.yul\":9726:9727   */\n      0x01\n        /* \"#utility.yul\":9723:9724   */\n      dup2\n        /* \"#utility.yul\":9719:9728   */\n      add\n        /* \"#utility.yul\":9714:9728   */\n      swap1\n      pop\n        /* \"#utility.yul\":9679:10123   */\n      jump(tag_272)\n    tag_274:\n        /* \"#utility.yul\":9683:9697   */\n      pop\n        /* \"#utility.yul\":10139:10143   */\n      dup3\n        /* \"#utility.yul\":10132:10143   */\n      swap8\n      pop\n        /* \"#utility.yul\":10159:10162   */\n      dup8\n        /* \"#utility.yul\":10152:10162   */\n      swap6\n      pop\n        /* \"#utility.yul\":9225:10168   */\n      pop\n      pop\n      pop\n      pop\n      pop\n        /* \"#utility.yul\":9049:10168   */\n      swap3\n      swap2\n      pop\n      pop\n      jump\t// out\n        /* \"#utility.yul\":10174:10651   */\n    tag_20:\n        /* \"#utility.yul\":10369:10373   */\n      0x00\n        /* \"#utility.yul\":10407:10409   */\n      0x20\n        /* \"#utility.yul\":10396:10405   */\n      dup3\n        /* \"#utility.yul\":10392:10410   */\n      add\n        /* \"#utility.yul\":10384:10410   */\n      swap1\n      pop\n        /* \"#utility.yul\":10456:10465   */\n      dup2\n        /* \"#utility.yul\":10450:10454   */\n      dup2\n        /* \"#utility.yul\":10446:10466   */\n      sub\n        /* \"#utility.yul\":10442:10443   */\n      0x00\n        /* \"#utility.yul\":10431:10440   */\n      dup4\n        /* \"#utility.yul\":10427:10444   */\n      add\n        /* \"#utility.yul\":10420:10467   */\n      mstore\n        /* \"#utility.yul\":10484:10644   */\n      tag_278\n        /* \"#utility.yul\":10639:10643   */\n      dup2\n        /* \"#utility.yul\":10630:10636   */\n      dup5\n        /* \"#utility.yul\":10484:10644   */\n      tag_148\n      jump\t// in\n    tag_278:\n        /* \"#utility.yul\":10476:10644   */\n      swap1\n      pop\n        /* \"#utility.yul\":10174:10651   */\n      swap3\n      swap2\n      pop\n      pop\n      jump\t// out\n        /* \"#utility.yul\":10657:10986   */\n    tag_24:\n        /* \"#utility.yul\":10716:10722   */\n      0x00\n        /* \"#utility.yul\":10765:10767   */\n      0x20\n        /* \"#utility.yul\":10753:10762   */\n      dup3\n        /* \"#utility.yul\":10744:10751   */\n      dup5\n        /* \"#utility.yul\":10740:10763   */\n      sub\n        /* \"#utility.yul\":10736:10768   */\n      slt\n        /* \"#utility.yul\":10733:10852   */\n      iszero\n      tag_280\n      jumpi\n        /* \"#utility.yul\":10771:10850   */\n      tag_281\n      tag_117\n      jump\t// in\n    tag_281:\n        /* \"#utility.yul\":10733:10852   */\n    tag_280:\n        /* \"#utility.yul\":10891:10892   */\n      0x00\n        /* \"#utility.yul\":10916:10969   */\n      tag_282\n        /* \"#utility.yul\":10961:10968   */\n      dup5\n        /* \"#utility.yul\":10952:10958   */\n      dup3\n        /* \"#utility.yul\":10941:10950   */\n      dup6\n        /* \"#utility.yul\":10937:10959   */\n      add\n        /* \"#utility.yul\":10916:10969   */\n      tag_121\n      jump\t// in\n    tag_282:\n        /* \"#utility.yul\":10906:10969   */\n      swap2\n      pop\n        /* \"#utility.yul\":10862:10979   */\n      pop\n        /* \"#utility.yul\":10657:10986   */\n      swap3\n      swap2\n      pop\n      pop\n      jump\t// out\n        /* \"#utility.yul\":10992:11110   */\n    tag_149:\n        /* \"#utility.yul\":11079:11103   */\n      tag_284\n        /* \"#utility.yul\":11097:11102   */\n      dup2\n        /* \"#utility.yul\":11079:11103   */\n      tag_119\n      jump\t// in\n    tag_284:\n        /* \"#utility.yul\":11074:11077   */\n      dup3\n        /* \"#utility.yul\":11067:11104   */\n      mstore\n        /* \"#utility.yul\":10992:11110   */\n      pop\n      pop\n      jump\t// out\n        /* \"#utility.yul\":11116:11285   */\n    tag_150:\n        /* \"#utility.yul\":11200:11211   */\n      0x00\n        /* \"#utility.yul\":11234:11240   */\n      dup3\n        /* \"#utility.yul\":11229:11232   */\n      dup3\n        /* \"#utility.yul\":11222:11241   */\n      mstore\n        /* \"#utility.yul\":11274:11278   */\n      0x20\n        /* \"#utility.yul\":11269:11272   */\n      dup3\n        /* \"#utility.yul\":11265:11279   */\n      add\n        /* \"#utility.yul\":11250:11279   */\n      swap1\n      pop\n        /* \"#utility.yul\":11116:11285   */\n      swap3\n      swap2\n      pop\n      pop\n      jump\t// out\n        /* \"#utility.yul\":11291:11668   */\n    tag_151:\n        /* \"#utility.yul\":11379:11382   */\n      0x00\n        /* \"#utility.yul\":11407:11446   */\n      tag_287\n        /* \"#utility.yul\":11440:11445   */\n      dup3\n        /* \"#utility.yul\":11407:11446   */\n      tag_139\n      jump\t// in\n    tag_287:\n        /* \"#utility.yul\":11462:11533   */\n      tag_288\n        /* \"#utility.yul\":11526:11532   */\n      dup2\n        /* \"#utility.yul\":11521:11524   */\n      dup6\n        /* \"#utility.yul\":11462:11533   */\n      tag_150\n      jump\t// in\n    tag_288:\n        /* \"#utility.yul\":11455:11533   */\n      swap4\n      pop\n        /* \"#utility.yul\":11542:11607   */\n      tag_289\n        /* \"#utility.yul\":11600:11606   */\n      dup2\n        /* \"#utility.yul\":11595:11598   */\n      dup6\n        /* \"#utility.yul\":11588:11592   */\n      0x20\n        /* \"#utility.yul\":11581:11586   */\n      dup7\n        /* \"#utility.yul\":11577:11593   */\n      add\n        /* \"#utility.yul\":11542:11607   */\n      tag_141\n      jump\t// in\n    tag_289:\n        /* \"#utility.yul\":11632:11661   */\n      tag_290\n        /* \"#utility.yul\":11654:11660   */\n      dup2\n        /* \"#utility.yul\":11632:11661   */\n      tag_124\n      jump\t// in\n    tag_290:\n        /* \"#utility.yul\":11627:11630   */\n      dup5\n        /* \"#utility.yul\":11623:11662   */\n      add\n        /* \"#utility.yul\":11616:11662   */\n      swap2\n      pop\n        /* \"#utility.yul\":11383:11668   */\n      pop\n        /* \"#utility.yul\":11291:11668   */\n      swap3\n      swap2\n      pop\n      pop\n      jump\t// out\n        /* \"#utility.yul\":11674:11816   */\n    tag_152:\n        /* \"#utility.yul\":11777:11809   */\n      tag_292\n        /* \"#utility.yul\":11803:11808   */\n      dup2\n        /* \"#utility.yul\":11777:11809   */\n      tag_143\n      jump\t// in\n    tag_292:\n        /* \"#utility.yul\":11772:11775   */\n      dup3\n        /* \"#utility.yul\":11765:11810   */\n      mstore\n        /* \"#utility.yul\":11674:11816   */\n      pop\n      pop\n      jump\t// out\n        /* \"#utility.yul\":11822:12811   */\n    tag_27:\n        /* \"#utility.yul\":12111:12115   */\n      0x00\n        /* \"#utility.yul\":12149:12152   */\n      0xc0\n        /* \"#utility.yul\":12138:12147   */\n      dup3\n        /* \"#utility.yul\":12134:12153   */\n      add\n        /* \"#utility.yul\":12126:12153   */\n      swap1\n      pop\n        /* \"#utility.yul\":12163:12234   */\n      tag_294\n        /* \"#utility.yul\":12231:12232   */\n      0x00\n        /* \"#utility.yul\":12220:12229   */\n      dup4\n        /* \"#utility.yul\":12216:12233   */\n      add\n        /* \"#utility.yul\":12207:12213   */\n      dup10\n        /* \"#utility.yul\":12163:12234   */\n      tag_149\n      jump\t// in\n    tag_294:\n        /* \"#utility.yul\":12244:12316   */\n      tag_295\n        /* \"#utility.yul\":12312:12314   */\n      0x20\n        /* \"#utility.yul\":12301:12310   */\n      dup4\n        /* \"#utility.yul\":12297:12315   */\n      add\n        /* \"#utility.yul\":12288:12294   */\n      dup9\n        /* \"#utility.yul\":12244:12316   */\n      tag_149\n      jump\t// in\n    tag_295:\n        /* \"#utility.yul\":12363:12372   */\n      dup2\n        /* \"#utility.yul\":12357:12361   */\n      dup2\n        /* \"#utility.yul\":12353:12373   */\n      sub\n        /* \"#utility.yul\":12348:12350   */\n      0x40\n        /* \"#utility.yul\":12337:12346   */\n      dup4\n        /* \"#utility.yul\":12333:12351   */\n      add\n        /* \"#utility.yul\":12326:12374   */\n      mstore\n        /* \"#utility.yul\":12391:12469   */\n      tag_296\n        /* \"#utility.yul\":12464:12468   */\n      dup2\n        /* \"#utility.yul\":12455:12461   */\n      dup8\n        /* \"#utility.yul\":12391:12469   */\n      tag_151\n      jump\t// in\n    tag_296:\n        /* \"#utility.yul\":12383:12469   */\n      swap1\n      pop\n        /* \"#utility.yul\":12479:12551   */\n      tag_297\n        /* \"#utility.yul\":12547:12549   */\n      0x60\n        /* \"#utility.yul\":12536:12545   */\n      dup4\n        /* \"#utility.yul\":12532:12550   */\n      add\n        /* \"#utility.yul\":12523:12529   */\n      dup7\n        /* \"#utility.yul\":12479:12551   */\n      tag_149\n      jump\t// in\n    tag_297:\n        /* \"#utility.yul\":12599:12608   */\n      dup2\n        /* \"#utility.yul\":12593:12597   */\n      dup2\n        /* \"#utility.yul\":12589:12609   */\n      sub\n        /* \"#utility.yul\":12583:12586   */\n      0x80\n        /* \"#utility.yul\":12572:12581   */\n      dup4\n        /* \"#utility.yul\":12568:12587   */\n      add\n        /* \"#utility.yul\":12561:12610   */\n      mstore\n        /* \"#utility.yul\":12627:12705   */\n      tag_298\n        /* \"#utility.yul\":12700:12704   */\n      dup2\n        /* \"#utility.yul\":12691:12697   */\n      dup6\n        /* \"#utility.yul\":12627:12705   */\n      tag_151\n      jump\t// in\n    tag_298:\n        /* \"#utility.yul\":12619:12705   */\n      swap1\n      pop\n        /* \"#utility.yul\":12715:12804   */\n      tag_299\n        /* \"#utility.yul\":12799:12802   */\n      0xa0\n        /* \"#utility.yul\":12788:12797   */\n      dup4\n        /* \"#utility.yul\":12784:12803   */\n      add\n        /* \"#utility.yul\":12775:12781   */\n      dup5\n        /* \"#utility.yul\":12715:12804   */\n      tag_152\n      jump\t// in\n    tag_299:\n        /* \"#utility.yul\":11822:12811   */\n      swap8\n      swap7\n      pop\n      pop\n      pop\n      pop\n      pop\n      pop\n      pop\n      jump\t// out\n        /* \"#utility.yul\":12817:13039   */\n    tag_33:\n        /* \"#utility.yul\":12910:12914   */\n      0x00\n        /* \"#utility.yul\":12948:12950   */\n      0x20\n        /* \"#utility.yul\":12937:12946   */\n      dup3\n        /* \"#utility.yul\":12933:12951   */\n      add\n        /* \"#utility.yul\":12925:12951   */\n      swap1\n      pop\n        /* \"#utility.yul\":12961:13032   */\n      tag_301\n        /* \"#utility.yul\":13029:13030   */\n      0x00\n        /* \"#utility.yul\":13018:13027   */\n      dup4\n        /* \"#utility.yul\":13014:13031   */\n      add\n        /* \"#utility.yul\":13005:13011   */\n      dup5\n        /* \"#utility.yul\":12961:13032   */\n      tag_149\n      jump\t// in\n    tag_301:\n        /* \"#utility.yul\":12817:13039   */\n      swap3\n      swap2\n      pop\n      pop\n      jump\t// out\n        /* \"#utility.yul\":13045:13269   */\n    tag_153:\n        /* \"#utility.yul\":13185:13219   */\n      0x4f6e6c7920546865204167656e6379204f776e65722043616e20416464206361\n        /* \"#utility.yul\":13181:13182   */\n      0x00\n        /* \"#utility.yul\":13173:13179   */\n      dup3\n        /* \"#utility.yul\":13169:13183   */\n      add\n        /* \"#utility.yul\":13162:13220   */\n      mstore\n        /* \"#utility.yul\":13254:13261   */\n      0x7273212121000000000000000000000000000000000000000000000000000000\n        /* \"#utility.yul\":13249:13251   */\n      0x20\n        /* \"#utility.yul\":13241:13247   */\n      dup3\n        /* \"#utility.yul\":13237:13252   */\n      add\n        /* \"#utility.yul\":13230:13262   */\n      mstore\n        /* \"#utility.yul\":13045:13269   */\n      pop\n      jump\t// out\n        /* \"#utility.yul\":13275:13641   */\n    tag_154:\n        /* \"#utility.yul\":13417:13420   */\n      0x00\n        /* \"#utility.yul\":13438:13505   */\n      tag_304\n        /* \"#utility.yul\":13502:13504   */\n      0x25\n        /* \"#utility.yul\":13497:13500   */\n      dup4\n        /* \"#utility.yul\":13438:13505   */\n      tag_150\n      jump\t// in\n    tag_304:\n        /* \"#utility.yul\":13431:13505   */\n      swap2\n      pop\n        /* \"#utility.yul\":13514:13607   */\n      tag_305\n        /* \"#utility.yul\":13603:13606   */\n      dup3\n        /* \"#utility.yul\":13514:13607   */\n      tag_153\n      jump\t// in\n    tag_305:\n        /* \"#utility.yul\":13632:13634   */\n      0x40\n        /* \"#utility.yul\":13627:13630   */\n      dup3\n        /* \"#utility.yul\":13623:13635   */\n      add\n        /* \"#utility.yul\":13616:13635   */\n      swap1\n      pop\n        /* \"#utility.yul\":13275:13641   */\n      swap2\n      swap1\n      pop\n      jump\t// out\n        /* \"#utility.yul\":13647:14066   */\n    tag_37:\n        /* \"#utility.yul\":13813:13817   */\n      0x00\n        /* \"#utility.yul\":13851:13853   */\n      0x20\n        /* \"#utility.yul\":13840:13849   */\n      dup3\n        /* \"#utility.yul\":13836:13854   */\n      add\n        /* \"#utility.yul\":13828:13854   */\n      swap1\n      pop\n        /* \"#utility.yul\":13900:13909   */\n      dup2\n        /* \"#utility.yul\":13894:13898   */\n      dup2\n        /* \"#utility.yul\":13890:13910   */\n      sub\n        /* \"#utility.yul\":13886:13887   */\n      0x00\n        /* \"#utility.yul\":13875:13884   */\n      dup4\n        /* \"#utility.yul\":13871:13888   */\n      add\n        /* \"#utility.yul\":13864:13911   */\n      mstore\n        /* \"#utility.yul\":13928:14059   */\n      tag_307\n        /* \"#utility.yul\":14054:14058   */\n      dup2\n        /* \"#utility.yul\":13928:14059   */\n      tag_154\n      jump\t// in\n    tag_307:\n        /* \"#utility.yul\":13920:14059   */\n      swap1\n      pop\n        /* \"#utility.yul\":13647:14066   */\n      swap2\n      swap1\n      pop\n      jump\t// out\n        /* \"#utility.yul\":14072:14252   */\n    tag_155:\n        /* \"#utility.yul\":14120:14197   */\n      0x4e487b7100000000000000000000000000000000000000000000000000000000\n        /* \"#utility.yul\":14117:14118   */\n      0x00\n        /* \"#utility.yul\":14110:14198   */\n      mstore\n        /* \"#utility.yul\":14217:14221   */\n      0x22\n        /* \"#utility.yul\":14214:14215   */\n      0x04\n        /* \"#utility.yul\":14207:14222   */\n      mstore\n        /* \"#utility.yul\":14241:14245   */\n      0x24\n        /* \"#utility.yul\":14238:14239   */\n      0x00\n        /* \"#utility.yul\":14231:14246   */\n      revert\n        /* \"#utility.yul\":14258:14578   */\n    tag_58:\n        /* \"#utility.yul\":14302:14308   */\n      0x00\n        /* \"#utility.yul\":14339:14340   */\n      0x02\n        /* \"#utility.yul\":14333:14337   */\n      dup3\n        /* \"#utility.yul\":14329:14341   */\n      div\n        /* \"#utility.yul\":14319:14341   */\n      swap1\n      pop\n        /* \"#utility.yul\":14386:14387   */\n      0x01\n        /* \"#utility.yul\":14380:14384   */\n      dup3\n        /* \"#utility.yul\":14376:14388   */\n      and\n        /* \"#utility.yul\":14407:14425   */\n      dup1\n        /* \"#utility.yul\":14397:14478   */\n      tag_310\n      jumpi\n        /* \"#utility.yul\":14463:14467   */\n      0x7f\n        /* \"#utility.yul\":14455:14461   */\n      dup3\n        /* \"#utility.yul\":14451:14468   */\n      and\n        /* \"#utility.yul\":14441:14468   */\n      swap2\n      pop\n        /* \"#utility.yul\":14397:14478   */\n    tag_310:\n        /* \"#utility.yul\":14525:14527   */\n      0x20\n        /* \"#utility.yul\":14517:14523   */\n      dup3\n        /* \"#utility.yul\":14514:14528   */\n      lt\n        /* \"#utility.yul\":14494:14512   */\n      dup2\n        /* \"#utility.yul\":14491:14529   */\n      sub\n        /* \"#utility.yul\":14488:14572   */\n      tag_311\n      jumpi\n        /* \"#utility.yul\":14544:14562   */\n      tag_312\n      tag_155\n      jump\t// in\n    tag_312:\n        /* \"#utility.yul\":14488:14572   */\n    tag_311:\n        /* \"#utility.yul\":14309:14578   */\n      pop\n        /* \"#utility.yul\":14258:14578   */\n      swap2\n      swap1\n      pop\n      jump\t// out\n        /* \"#utility.yul\":14584:14725   */\n    tag_156:\n        /* \"#utility.yul\":14633:14637   */\n      0x00\n        /* \"#utility.yul\":14656:14659   */\n      dup2\n        /* \"#utility.yul\":14648:14659   */\n      swap1\n      pop\n        /* \"#utility.yul\":14679:14682   */\n      dup2\n        /* \"#utility.yul\":14676:14677   */\n      0x00\n        /* \"#utility.yul\":14669:14683   */\n      mstore\n        /* \"#utility.yul\":14713:14717   */\n      0x20\n        /* \"#utility.yul\":14710:14711   */\n      0x00\n        /* \"#utility.yul\":14700:14718   */\n      keccak256\n        /* \"#utility.yul\":14692:14718   */\n      swap1\n      pop\n        /* \"#utility.yul\":14584:14725   */\n      swap2\n      swap1\n      pop\n      jump\t// out\n        /* \"#utility.yul\":14731:14824   */\n    tag_157:\n        /* \"#utility.yul\":14768:14774   */\n      0x00\n        /* \"#utility.yul\":14815:14817   */\n      0x20\n        /* \"#utility.yul\":14810:14812   */\n      0x1f\n        /* \"#utility.yul\":14803:14808   */\n      dup4\n        /* \"#utility.yul\":14799:14813   */\n      add\n        /* \"#utility.yul\":14795:14818   */\n      div\n        /* \"#utility.yul\":14785:14818   */\n      swap1\n      pop\n        /* \"#utility.yul\":14731:14824   */\n      swap2\n      swap1\n      pop\n      jump\t// out\n        /* \"#utility.yul\":14830:14937   */\n    tag_158:\n        /* \"#utility.yul\":14874:14882   */\n      0x00\n        /* \"#utility.yul\":14924:14929   */\n      dup3\n        /* \"#utility.yul\":14918:14922   */\n      dup3\n        /* \"#utility.yul\":14914:14930   */\n      shl\n        /* \"#utility.yul\":14893:14930   */\n      swap1\n      pop\n        /* \"#utility.yul\":14830:14937   */\n      swap3\n      swap2\n      pop\n      pop\n      jump\t// out\n        /* \"#utility.yul\":14943:15336   */\n    tag_159:\n        /* \"#utility.yul\":15012:15018   */\n      0x00\n        /* \"#utility.yul\":15062:15063   */\n      0x08\n        /* \"#utility.yul\":15050:15060   */\n      dup4\n        /* \"#utility.yul\":15046:15064   */\n      mul\n        /* \"#utility.yul\":15085:15182   */\n      tag_317\n        /* \"#utility.yul\":15115:15181   */\n      0xffffffffffffffffffffffffffffffffffffffffffffffffffffffffffffffff\n        /* \"#utility.yul\":15104:15113   */\n      dup3\n        /* \"#utility.yul\":15085:15182   */\n      tag_158\n      jump\t// in\n    tag_317:\n        /* \"#utility.yul\":15203:15242   */\n      tag_318\n        /* \"#utility.yul\":15233:15241   */\n      dup7\n        /* \"#utility.yul\":15222:15231   */\n      dup4\n        /* \"#utility.yul\":15203:15242   */\n      tag_158\n      jump\t// in\n    tag_318:\n        /* \"#utility.yul\":15191:15242   */\n      swap6\n      pop\n        /* \"#utility.yul\":15275:15279   */\n      dup1\n        /* \"#utility.yul\":15271:15280   */\n      not\n        /* \"#utility.yul\":15264:15269   */\n      dup5\n        /* \"#utility.yul\":15260:15281   */\n      and\n        /* \"#utility.yul\":15251:15281   */\n      swap4\n      pop\n        /* \"#utility.yul\":15324:15328   */\n      dup1\n        /* \"#utility.yul\":15314:15322   */\n      dup7\n        /* \"#utility.yul\":15310:15329   */\n      and\n        /* \"#utility.yul\":15303:15308   */\n      dup5\n        /* \"#utility.yul\":15300:15330   */\n      or\n        /* \"#utility.yul\":15290:15330   */\n      swap3\n      pop\n        /* \"#utility.yul\":15019:15336   */\n      pop\n      pop\n        /* \"#utility.yul\":14943:15336   */\n      swap4\n      swap3\n      pop\n      pop\n      pop\n      jump\t// out\n        /* \"#utility.yul\":15342:15402   */\n    tag_160:\n        /* \"#utility.yul\":15370:15373   */\n      0x00\n        /* \"#utility.yul\":15391:15396   */\n      dup2\n        /* \"#utility.yul\":15384:15396   */\n      swap1\n      pop\n        /* \"#utility.yul\":15342:15402   */\n      swap2\n      swap1\n      pop\n      jump\t// out\n        /* \"#utility.yul\":15408:15550   */\n    tag_161:\n        /* \"#utility.yul\":15458:15467   */\n      0x00\n        /* \"#utility.yul\":15491:15544   */\n      tag_321\n        /* \"#utility.yul\":15509:15543   */\n      tag_322\n        /* \"#utility.yul\":15518:15542   */\n      tag_323\n        /* \"#utility.yul\":15536:15541   */\n      dup5\n        /* \"#utility.yul\":15518:15542   */\n      tag_119\n      jump\t// in\n    tag_323:\n        /* \"#utility.yul\":15509:15543   */\n      tag_160\n      jump\t// in\n    tag_322:\n        /* \"#utility.yul\":15491:15544   */\n      tag_119\n      jump\t// in\n    tag_321:\n        /* \"#utility.yul\":15478:15544   */\n      swap1\n      pop\n        /* \"#utility.yul\":15408:15550   */\n      swap2\n      swap1\n      pop\n      jump\t// out\n        /* \"#utility.yul\":15556:15631   */\n    tag_162:\n        /* \"#utility.yul\":15599:15602   */\n      0x00\n        /* \"#utility.yul\":15620:15625   */\n      dup2\n        /* \"#utility.yul\":15613:15625   */\n      swap1\n      pop\n        /* \"#utility.yul\":15556:15631   */\n      swap2\n      swap1\n      pop\n      jump\t// out\n        /* \"#utility.yul\":15637:15906   */\n    tag_163:\n        /* \"#utility.yul\":15747:15786   */\n      tag_326\n        /* \"#utility.yul\":15778:15785   */\n      dup4\n        /* \"#utility.yul\":15747:15786   */\n      tag_161\n      jump\t// in\n    tag_326:\n        /* \"#utility.yul\":15808:15899   */\n      tag_327\n        /* \"#utility.yul\":15857:15898   */\n      tag_328\n        /* \"#utility.yul\":15881:15897   */\n      dup3\n        /* \"#utility.yul\":15857:15898   */\n      tag_162\n      jump\t// in\n    tag_328:\n        /* \"#utility.yul\":15849:15855   */\n      dup5\n        /* \"#utility.yul\":15842:15846   */\n      dup5\n        /* \"#utility.yul\":15836:15847   */\n      sload\n        /* \"#utility.yul\":15808:15899   */\n      tag_159\n      jump\t// in\n    tag_327:\n        /* \"#utility.yul\":15802:15806   */\n      dup3\n        /* \"#utility.yul\":15795:15900   */\n      sstore\n        /* \"#utility.yul\":15713:15906   */\n      pop\n        /* \"#utility.yul\":15637:15906   */\n      pop\n      pop\n      pop\n      jump\t// out\n        /* \"#utility.yul\":15912:15985   */\n    tag_164:\n        /* \"#utility.yul\":15957:15960   */\n      0x00\n        /* \"#utility.yul\":15912:15985   */\n      swap1\n      jump\t// out\n        /* \"#utility.yul\":15991:16180   */\n    tag_165:\n        /* \"#utility.yul\":16068:16100   */\n      tag_331\n      tag_164\n      jump\t// in\n    tag_331:\n        /* \"#utility.yul\":16109:16174   */\n      tag_332\n        /* \"#utility.yul\":16167:16173   */\n      dup2\n        /* \"#utility.yul\":16159:16165   */\n      dup5\n        /* \"#utility.yul\":16153:16157   */\n      dup5\n        /* \"#utility.yul\":16109:16174   */\n      tag_163\n      jump\t// in\n    tag_332:\n        /* \"#utility.yul\":16044:16180   */\n      pop\n        /* \"#utility.yul\":15991:16180   */\n      pop\n      pop\n      jump\t// out\n        /* \"#utility.yul\":16186:16372   */\n    tag_166:\n        /* \"#utility.yul\":16246:16366   */\n    tag_334:\n        /* \"#utility.yul\":16263:16266   */\n      dup2\n        /* \"#utility.yul\":16256:16261   */\n      dup2\n        /* \"#utility.yul\":16253:16267   */\n      lt\n        /* \"#utility.yul\":16246:16366   */\n      iszero\n      tag_336\n      jumpi\n        /* \"#utility.yul\":16317:16356   */\n      tag_337\n        /* \"#utility.yul\":16354:16355   */\n      0x00\n        /* \"#utility.yul\":16347:16352   */\n      dup3\n        /* \"#utility.yul\":16317:16356   */\n      tag_165\n      jump\t// in\n    tag_337:\n        /* \"#utility.yul\":16290:16291   */\n      0x01\n        /* \"#utility.yul\":16283:16288   */\n      dup2\n        /* \"#utility.yul\":16279:16292   */\n      add\n        /* \"#utility.yul\":16270:16292   */\n      swap1\n      pop\n        /* \"#utility.yul\":16246:16366   */\n      jump(tag_334)\n    tag_336:\n        /* \"#utility.yul\":16186:16372   */\n      pop\n      pop\n      jump\t// out\n        /* \"#utility.yul\":16378:16921   */\n    tag_167:\n        /* \"#utility.yul\":16479:16481   */\n      0x1f\n        /* \"#utility.yul\":16474:16477   */\n      dup3\n        /* \"#utility.yul\":16471:16482   */\n      gt\n        /* \"#utility.yul\":16468:16914   */\n      iszero\n      tag_339\n      jumpi\n        /* \"#utility.yul\":16513:16551   */\n      tag_340\n        /* \"#utility.yul\":16545:16550   */\n      dup2\n        /* \"#utility.yul\":16513:16551   */\n      tag_156\n      jump\t// in\n    tag_340:\n        /* \"#utility.yul\":16597:16626   */\n      tag_341\n        /* \"#utility.yul\":16615:16625   */\n      dup5\n        /* \"#utility.yul\":16597:16626   */\n      tag_157\n      jump\t// in\n    tag_341:\n        /* \"#utility.yul\":16587:16595   */\n      dup2\n        /* \"#utility.yul\":16583:16627   */\n      add\n        /* \"#utility.yul\":16780:16782   */\n      0x20\n        /* \"#utility.yul\":16768:16778   */\n      dup6\n        /* \"#utility.yul\":16765:16783   */\n      lt\n        /* \"#utility.yul\":16762:16811   */\n      iszero\n      tag_342\n      jumpi\n        /* \"#utility.yul\":16801:16809   */\n      dup2\n        /* \"#utility.yul\":16786:16809   */\n      swap1\n      pop\n        /* \"#utility.yul\":16762:16811   */\n    tag_342:\n        /* \"#utility.yul\":16824:16904   */\n      tag_343\n        /* \"#utility.yul\":16880:16902   */\n      tag_344\n        /* \"#utility.yul\":16898:16901   */\n      dup6\n        /* \"#utility.yul\":16880:16902   */\n      tag_157\n      jump\t// in\n    tag_344:\n        /* \"#utility.yul\":16870:16878   */\n      dup4\n        /* \"#utility.yul\":16866:16903   */\n      add\n        /* \"#utility.yul\":16853:16864   */\n      dup3\n        /* \"#utility.yul\":16824:16904   */\n      tag_166\n      jump\t// in\n    tag_343:\n        /* \"#utility.yul\":16483:16914   */\n      pop\n      pop\n        /* \"#utility.yul\":16468:16914   */\n    tag_339:\n        /* \"#utility.yul\":16378:16921   */\n      pop\n      pop\n      pop\n      jump\t// out\n        /* \"#utility.yul\":16927:17044   */\n    tag_168:\n        /* \"#utility.yul\":16981:16989   */\n      0x00\n        /* \"#utility.yul\":17031:17036   */\n      dup3\n        /* \"#utility.yul\":17025:17029   */\n      dup3\n        /* \"#utility.yul\":17021:17037   */\n      shr\n        /* \"#utility.yul\":17000:17037   */\n      swap1\n      pop\n        /* \"#utility.yul\":16927:17044   */\n      swap3\n      swap2\n      pop\n      pop\n      jump\t// out\n        /* \"#utility.yul\":17050:17219   */\n    tag_169:\n        /* \"#utility.yul\":17094:17100   */\n      0x00\n        /* \"#utility.yul\":17127:17178   */\n      tag_347\n        /* \"#utility.yul\":17175:17176   */\n      0x00\n        /* \"#utility.yul\":17171:17177   */\n      not\n        /* \"#utility.yul\":17163:17168   */\n      dup5\n        /* \"#utility.yul\":17160:17161   */\n      0x08\n        /* \"#utility.yul\":17156:17169   */\n      mul\n        /* \"#utility.yul\":17127:17178   */\n      tag_168\n      jump\t// in\n    tag_347:\n        /* \"#utility.yul\":17123:17179   */\n      not\n        /* \"#utility.yul\":17208:17212   */\n      dup1\n        /* \"#utility.yul\":17202:17206   */\n      dup4\n        /* \"#utility.yul\":17198:17213   */\n      and\n        /* \"#utility.yul\":17188:17213   */\n      swap2\n      pop\n        /* \"#utility.yul\":17101:17219   */\n      pop\n        /* \"#utility.yul\":17050:17219   */\n      swap3\n      swap2\n      pop\n      pop\n      jump\t// out\n        /* \"#utility.yul\":17224:17519   */\n    tag_170:\n        /* \"#utility.yul\":17300:17304   */\n      0x00\n        /* \"#utility.yul\":17446:17475   */\n      tag_349\n        /* \"#utility.yul\":17471:17474   */\n      dup4\n        /* \"#utility.yul\":17465:17469   */\n      dup4\n        /* \"#utility.yul\":17446:17475   */\n      tag_169\n      jump\t// in\n    tag_349:\n        /* \"#utility.yul\":17438:17475   */\n      swap2\n      pop\n        /* \"#utility.yul\":17508:17511   */\n      dup3\n        /* \"#utility.yul\":17505:17506   */\n      0x02\n        /* \"#utility.yul\":17501:17512   */\n      mul\n        /* \"#utility.yul\":17495:17499   */\n      dup3\n        /* \"#utility.yul\":17492:17513   */\n      or\n        /* \"#utility.yul\":17484:17513   */\n      swap1\n      pop\n        /* \"#utility.yul\":17224:17519   */\n      swap3\n      swap2\n      pop\n      pop\n      jump\t// out\n        /* \"#utility.yul\":17524:18919   */\n    tag_45:\n        /* \"#utility.yul\":17641:17678   */\n      tag_351\n        /* \"#utility.yul\":17674:17677   */\n      dup3\n        /* \"#utility.yul\":17641:17678   */\n      tag_139\n      jump\t// in\n    tag_351:\n        /* \"#utility.yul\":17743:17761   */\n      0xffffffffffffffff\n        /* \"#utility.yul\":17735:17741   */\n      dup2\n        /* \"#utility.yul\":17732:17762   */\n      gt\n        /* \"#utility.yul\":17729:17785   */\n      iszero\n      tag_352\n      jumpi\n        /* \"#utility.yul\":17765:17783   */\n      tag_353\n      tag_78\n      jump\t// in\n    tag_353:\n        /* \"#utility.yul\":17729:17785   */\n    tag_352:\n        /* \"#utility.yul\":17809:17847   */\n      tag_354\n        /* \"#utility.yul\":17841:17845   */\n      dup3\n        /* \"#utility.yul\":17835:17846   */\n      sload\n        /* \"#utility.yul\":17809:17847   */\n      tag_58\n      jump\t// in\n    tag_354:\n        /* \"#utility.yul\":17894:17961   */\n      tag_355\n        /* \"#utility.yul\":17954:17960   */\n      dup3\n        /* \"#utility.yul\":17946:17952   */\n      dup3\n        /* \"#utility.yul\":17940:17944   */\n      dup6\n        /* \"#utility.yul\":17894:17961   */\n      tag_167\n      jump\t// in\n    tag_355:\n        /* \"#utility.yul\":17988:17989   */\n      0x00\n        /* \"#utility.yul\":18012:18016   */\n      0x20\n        /* \"#utility.yul\":17999:18016   */\n      swap1\n      pop\n        /* \"#utility.yul\":18044:18046   */\n      0x1f\n        /* \"#utility.yul\":18036:18042   */\n      dup4\n        /* \"#utility.yul\":18033:18047   */\n      gt\n        /* \"#utility.yul\":18061:18062   */\n      0x01\n        /* \"#utility.yul\":18056:18674   */\n      dup2\n      eq\n      tag_357\n      jumpi\n        /* \"#utility.yul\":18718:18719   */\n      0x00\n        /* \"#utility.yul\":18735:18741   */\n      dup5\n        /* \"#utility.yul\":18732:18809   */\n      iszero\n      tag_358\n      jumpi\n        /* \"#utility.yul\":18784:18793   */\n      dup3\n        /* \"#utility.yul\":18779:18782   */\n      dup8\n        /* \"#utility.yul\":18775:18794   */\n      add\n        /* \"#utility.yul\":18769:18795   */\n      mload\n        /* \"#utility.yul\":18760:18795   */\n      swap1\n      pop\n        /* \"#utility.yul\":18732:18809   */\n    tag_358:\n        /* \"#utility.yul\":18835:18902   */\n      tag_359\n        /* \"#utility.yul\":18895:18901   */\n      dup6\n        /* \"#utility.yul\":18888:18893   */\n      dup3\n        /* \"#utility.yul\":18835:18902   */\n      tag_170\n      jump\t// in\n    tag_359:\n        /* \"#utility.yul\":18829:18833   */\n      dup7\n        /* \"#utility.yul\":18822:18903   */\n      sstore\n        /* \"#utility.yul\":18691:18913   */\n      pop\n        /* \"#utility.yul\":18026:18913   */\n      jump(tag_356)\n        /* \"#utility.yul\":18056:18674   */\n    tag_357:\n        /* \"#utility.yul\":18108:18112   */\n      0x1f\n        /* \"#utility.yul\":18104:18113   */\n      not\n        /* \"#utility.yul\":18096:18102   */\n      dup5\n        /* \"#utility.yul\":18092:18114   */\n      and\n        /* \"#utility.yul\":18142:18179   */\n      tag_360\n        /* \"#utility.yul\":18174:18178   */\n      dup7\n        /* \"#utility.yul\":18142:18179   */\n      tag_156\n      jump\t// in\n    tag_360:\n        /* \"#utility.yul\":18201:18202   */\n      0x00\n        /* \"#utility.yul\":18215:18423   */\n    tag_361:\n        /* \"#utility.yul\":18229:18236   */\n      dup3\n        /* \"#utility.yul\":18226:18227   */\n      dup2\n        /* \"#utility.yul\":18223:18237   */\n      lt\n        /* \"#utility.yul\":18215:18423   */\n      iszero\n      tag_363\n      jumpi\n        /* \"#utility.yul\":18308:18317   */\n      dup5\n        /* \"#utility.yul\":18303:18306   */\n      dup10\n        /* \"#utility.yul\":18299:18318   */\n      add\n        /* \"#utility.yul\":18293:18319   */\n      mload\n        /* \"#utility.yul\":18285:18291   */\n      dup3\n        /* \"#utility.yul\":18278:18320   */\n      sstore\n        /* \"#utility.yul\":18359:18360   */\n      0x01\n        /* \"#utility.yul\":18351:18357   */\n      dup3\n        /* \"#utility.yul\":18347:18361   */\n      add\n        /* \"#utility.yul\":18337:18361   */\n      swap2\n      pop\n        /* \"#utility.yul\":18406:18408   */\n      0x20\n        /* \"#utility.yul\":18395:18404   */\n      dup6\n        /* \"#utility.yul\":18391:18409   */\n      add\n        /* \"#utility.yul\":18378:18409   */\n      swap5\n      pop\n        /* \"#utility.yul\":18252:18256   */\n      0x20\n        /* \"#utility.yul\":18249:18250   */\n      dup2\n        /* \"#utility.yul\":18245:18257   */\n      add\n        /* \"#utility.yul\":18240:18257   */\n      swap1\n      pop\n        /* \"#utility.yul\":18215:18423   */\n      jump(tag_361)\n    tag_363:\n        /* \"#utility.yul\":18451:18457   */\n      dup7\n        /* \"#utility.yul\":18442:18449   */\n      dup4\n        /* \"#utility.yul\":18439:18458   */\n      lt\n        /* \"#utility.yul\":18436:18615   */\n      iszero\n      tag_364\n      jumpi\n        /* \"#utility.yul\":18509:18518   */\n      dup5\n        /* \"#utility.yul\":18504:18507   */\n      dup10\n        /* \"#utility.yul\":18500:18519   */\n      add\n        /* \"#utility.yul\":18494:18520   */\n      mload\n        /* \"#utility.yul\":18552:18600   */\n      tag_365\n        /* \"#utility.yul\":18594:18598   */\n      0x1f\n        /* \"#utility.yul\":18586:18592   */\n      dup10\n        /* \"#utility.yul\":18582:18599   */\n      and\n        /* \"#utility.yul\":18571:18580   */\n      dup3\n        /* \"#utility.yul\":18552:18600   */\n      tag_169\n      jump\t// in\n    tag_365:\n        /* \"#utility.yul\":18544:18550   */\n      dup4\n        /* \"#utility.yul\":18537:18601   */\n      sstore\n        /* \"#utility.yul\":18459:18615   */\n      pop\n        /* \"#utility.yul\":18436:18615   */\n    tag_364:\n        /* \"#utility.yul\":18661:18662   */\n      0x01\n        /* \"#utility.yul\":18657:18658   */\n      0x02\n        /* \"#utility.yul\":18649:18655   */\n      dup9\n        /* \"#utility.yul\":18645:18659   */\n      mul\n        /* \"#utility.yul\":18641:18663   */\n      add\n        /* \"#utility.yul\":18635:18639   */\n      dup9\n        /* \"#utility.yul\":18628:18664   */\n      sstore\n        /* \"#utility.yul\":18063:18674   */\n      pop\n      pop\n      pop\n        /* \"#utility.yul\":18026:18913   */\n    tag_356:\n      pop\n        /* \"#utility.yul\":17616:18919   */\n      pop\n      pop\n      pop\n        /* \"#utility.yul\":17524:18919   */\n      pop\n      pop\n      jump\t// out\n        /* \"#utility.yul\":18925:19043   */\n    tag_171:\n        /* \"#utility.yul\":19012:19036   */\n      tag_367\n        /* \"#utility.yul\":19030:19035   */\n      dup2\n        /* \"#utility.yul\":19012:19036   */\n      tag_132\n      jump\t// in\n    tag_367:\n        /* \"#utility.yul\":19007:19010   */\n      dup3\n        /* \"#utility.yul\":19000:19037   */\n      mstore\n        /* \"#utility.yul\":18925:19043   */\n      pop\n      pop\n      jump\t// out\n        /* \"#utility.yul\":19049:20006   */\n    tag_51:\n        /* \"#utility.yul\":19322:19326   */\n      0x00\n        /* \"#utility.yul\":19360:19363   */\n      0xc0\n        /* \"#utility.yul\":19349:19358   */\n      dup3\n        /* \"#utility.yul\":19345:19364   */\n      add\n        /* \"#utility.yul\":19337:19364   */\n      swap1\n      pop\n        /* \"#utility.yul\":19374:19445   */\n      tag_369\n        /* \"#utility.yul\":19442:19443   */\n      0x00\n        /* \"#utility.yul\":19431:19440   */\n      dup4\n        /* \"#utility.yul\":19427:19444   */\n      add\n        /* \"#utility.yul\":19418:19424   */\n      dup10\n        /* \"#utility.yul\":19374:19445   */\n      tag_149\n      jump\t// in\n    tag_369:\n        /* \"#utility.yul\":19455:19527   */\n      tag_370\n        /* \"#utility.yul\":19523:19525   */\n      0x20\n        /* \"#utility.yul\":19512:19521   */\n      dup4\n        /* \"#utility.yul\":19508:19526   */\n      add\n        /* \"#utility.yul\":19499:19505   */\n      dup9\n        /* \"#utility.yul\":19455:19527   */\n      tag_149\n      jump\t// in\n    tag_370:\n        /* \"#utility.yul\":19574:19583   */\n      dup2\n        /* \"#utility.yul\":19568:19572   */\n      dup2\n        /* \"#utility.yul\":19564:19584   */\n      sub\n        /* \"#utility.yul\":19559:19561   */\n      0x40\n        /* \"#utility.yul\":19548:19557   */\n      dup4\n        /* \"#utility.yul\":19544:19562   */\n      add\n        /* \"#utility.yul\":19537:19585   */\n      mstore\n        /* \"#utility.yul\":19602:19680   */\n      tag_371\n        /* \"#utility.yul\":19675:19679   */\n      dup2\n        /* \"#utility.yul\":19666:19672   */\n      dup8\n        /* \"#utility.yul\":19602:19680   */\n      tag_151\n      jump\t// in\n    tag_371:\n        /* \"#utility.yul\":19594:19680   */\n      swap1\n      pop\n        /* \"#utility.yul\":19690:19762   */\n      tag_372\n        /* \"#utility.yul\":19758:19760   */\n      0x60\n        /* \"#utility.yul\":19747:19756   */\n      dup4\n        /* \"#utility.yul\":19743:19761   */\n      add\n        /* \"#utility.yul\":19734:19740   */\n      dup7\n        /* \"#utility.yul\":19690:19762   */\n      tag_149\n      jump\t// in\n    tag_372:\n        /* \"#utility.yul\":19810:19819   */\n      dup2\n        /* \"#utility.yul\":19804:19808   */\n      dup2\n        /* \"#utility.yul\":19800:19820   */\n      sub\n        /* \"#utility.yul\":19794:19797   */\n      0x80\n        /* \"#utility.yul\":19783:19792   */\n      dup4\n        /* \"#utility.yul\":19779:19798   */\n      add\n        /* \"#utility.yul\":19772:19821   */\n      mstore\n        /* \"#utility.yul\":19838:19916   */\n      tag_373\n        /* \"#utility.yul\":19911:19915   */\n      dup2\n        /* \"#utility.yul\":19902:19908   */\n      dup6\n        /* \"#utility.yul\":19838:19916   */\n      tag_151\n      jump\t// in\n    tag_373:\n        /* \"#utility.yul\":19830:19916   */\n      swap1\n      pop\n        /* \"#utility.yul\":19926:19999   */\n      tag_374\n        /* \"#utility.yul\":19994:19997   */\n      0xa0\n        /* \"#utility.yul\":19983:19992   */\n      dup4\n        /* \"#utility.yul\":19979:19998   */\n      add\n        /* \"#utility.yul\":19970:19976   */\n      dup5\n        /* \"#utility.yul\":19926:19999   */\n      tag_171\n      jump\t// in\n    tag_374:\n        /* \"#utility.yul\":19049:20006   */\n      swap8\n      swap7\n      pop\n      pop\n      pop\n      pop\n      pop\n      pop\n      pop\n      jump\t// out\n        /* \"#utility.yul\":20012:20237   */\n    tag_172:\n        /* \"#utility.yul\":20152:20186   */\n      0x4f6e6c7920546865204167656e6379204f776e65722043616e2053656c6c2063\n        /* \"#utility.yul\":20148:20149   */\n      0x00\n        /* \"#utility.yul\":20140:20146   */\n      dup3\n        /* \"#utility.yul\":20136:20150   */\n      add\n        /* \"#utility.yul\":20129:20187   */\n      mstore\n        /* \"#utility.yul\":20221:20229   */\n      0x6172732121210000000000000000000000000000000000000000000000000000\n        /* \"#utility.yul\":20216:20218   */\n      0x20\n        /* \"#utility.yul\":20208:20214   */\n      dup3\n        /* \"#utility.yul\":20204:20219   */\n      add\n        /* \"#utility.yul\":20197:20230   */\n      mstore\n        /* \"#utility.yul\":20012:20237   */\n      pop\n      jump\t// out\n        /* \"#utility.yul\":20243:20609   */\n    tag_173:\n        /* \"#utility.yul\":20385:20388   */\n      0x00\n        /* \"#utility.yul\":20406:20473   */\n      tag_377\n        /* \"#utility.yul\":20470:20472   */\n      0x26\n        /* \"#utility.yul\":20465:20468   */\n      dup4\n        /* \"#utility.yul\":20406:20473   */\n      tag_150\n      jump\t// in\n    tag_377:\n        /* \"#utility.yul\":20399:20473   */\n      swap2\n      pop\n        /* \"#utility.yul\":20482:20575   */\n      tag_378\n        /* \"#utility.yul\":20571:20574   */\n      dup3\n        /* \"#utility.yul\":20482:20575   */\n      tag_172\n      jump\t// in\n    tag_378:\n        /* \"#utility.yul\":20600:20602   */\n      0x40\n        /* \"#utility.yul\":20595:20598   */\n      dup3\n        /* \"#utility.yul\":20591:20603   */\n      add\n        /* \"#utility.yul\":20584:20603   */\n      swap1\n      pop\n        /* \"#utility.yul\":20243:20609   */\n      swap2\n      swap1\n      pop\n      jump\t// out\n        /* \"#utility.yul\":20615:21034   */\n    tag_55:\n        /* \"#utility.yul\":20781:20785   */\n      0x00\n        /* \"#utility.yul\":20819:20821   */\n      0x20\n        /* \"#utility.yul\":20808:20817   */\n      dup3\n        /* \"#utility.yul\":20804:20822   */\n      add\n        /* \"#utility.yul\":20796:20822   */\n      swap1\n      pop\n        /* \"#utility.yul\":20868:20877   */\n      dup2\n        /* \"#utility.yul\":20862:20866   */\n      dup2\n        /* \"#utility.yul\":20858:20878   */\n      sub\n        /* \"#utility.yul\":20854:20855   */\n      0x00\n        /* \"#utility.yul\":20843:20852   */\n      dup4\n        /* \"#utility.yul\":20839:20856   */\n      add\n        /* \"#utility.yul\":20832:20879   */\n      mstore\n        /* \"#utility.yul\":20896:21027   */\n      tag_380\n        /* \"#utility.yul\":21022:21026   */\n      dup2\n        /* \"#utility.yul\":20896:21027   */\n      tag_173\n      jump\t// in\n    tag_380:\n        /* \"#utility.yul\":20888:21027   */\n      swap1\n      pop\n        /* \"#utility.yul\":20615:21034   */\n      swap2\n      swap1\n      pop\n      jump\t// out\n        /* \"#utility.yul\":21040:21206   */\n    tag_174:\n        /* \"#utility.yul\":21180:21198   */\n      0x57726f6e67204361722076616c75652000000000000000000000000000000000\n        /* \"#utility.yul\":21176:21177   */\n      0x00\n        /* \"#utility.yul\":21168:21174   */\n      dup3\n        /* \"#utility.yul\":21164:21178   */\n      add\n        /* \"#utility.yul\":21157:21199   */\n      mstore\n        /* \"#utility.yul\":21040:21206   */\n      pop\n      jump\t// out\n        /* \"#utility.yul\":21212:21578   */\n    tag_175:\n        /* \"#utility.yul\":21354:21357   */\n      0x00\n        /* \"#utility.yul\":21375:21442   */\n      tag_383\n        /* \"#utility.yul\":21439:21441   */\n      0x10\n        /* \"#utility.yul\":21434:21437   */\n      dup4\n        /* \"#utility.yul\":21375:21442   */\n      tag_150\n      jump\t// in\n    tag_383:\n        /* \"#utility.yul\":21368:21442   */\n      swap2\n      pop\n        /* \"#utility.yul\":21451:21544   */\n      tag_384\n        /* \"#utility.yul\":21540:21543   */\n      dup3\n        /* \"#utility.yul\":21451:21544   */\n      tag_174\n      jump\t// in\n    tag_384:\n        /* \"#utility.yul\":21569:21571   */\n      0x20\n        /* \"#utility.yul\":21564:21567   */\n      dup3\n        /* \"#utility.yul\":21560:21572   */\n      add\n        /* \"#utility.yul\":21553:21572   */\n      swap1\n      pop\n        /* \"#utility.yul\":21212:21578   */\n      swap2\n      swap1\n      pop\n      jump\t// out\n        /* \"#utility.yul\":21584:22003   */\n    tag_70:\n        /* \"#utility.yul\":21750:21754   */\n      0x00\n        /* \"#utility.yul\":21788:21790   */\n      0x20\n        /* \"#utility.yul\":21777:21786   */\n      dup3\n        /* \"#utility.yul\":21773:21791   */\n      add\n        /* \"#utility.yul\":21765:21791   */\n      swap1\n      pop\n        /* \"#utility.yul\":21837:21846   */\n      dup2\n        /* \"#utility.yul\":21831:21835   */\n      dup2\n        /* \"#utility.yul\":21827:21847   */\n      sub\n        /* \"#utility.yul\":21823:21824   */\n      0x00\n        /* \"#utility.yul\":21812:21821   */\n      dup4\n        /* \"#utility.yul\":21808:21825   */\n      add\n        /* \"#utility.yul\":21801:21848   */\n      mstore\n        /* \"#utility.yul\":21865:21996   */\n      tag_386\n        /* \"#utility.yul\":21991:21995   */\n      dup2\n        /* \"#utility.yul\":21865:21996   */\n      tag_175\n      jump\t// in\n    tag_386:\n        /* \"#utility.yul\":21857:21996   */\n      swap1\n      pop\n        /* \"#utility.yul\":21584:22003   */\n      swap2\n      swap1\n      pop\n      jump\t// out\n        /* \"#utility.yul\":22009:22451   */\n    tag_74:\n        /* \"#utility.yul\":22158:22162   */\n      0x00\n        /* \"#utility.yul\":22196:22198   */\n      0x60\n        /* \"#utility.yul\":22185:22194   */\n      dup3\n        /* \"#utility.yul\":22181:22199   */\n      add\n        /* \"#utility.yul\":22173:22199   */\n      swap1\n      pop\n        /* \"#utility.yul\":22209:22280   */\n      tag_388\n        /* \"#utility.yul\":22277:22278   */\n      0x00\n        /* \"#utility.yul\":22266:22275   */\n      dup4\n        /* \"#utility.yul\":22262:22279   */\n      add\n        /* \"#utility.yul\":22253:22259   */\n      dup7\n        /* \"#utility.yul\":22209:22280   */\n      tag_149\n      jump\t// in\n    tag_388:\n        /* \"#utility.yul\":22290:22362   */\n      tag_389\n        /* \"#utility.yul\":22358:22360   */\n      0x20\n        /* \"#utility.yul\":22347:22356   */\n      dup4\n        /* \"#utility.yul\":22343:22361   */\n      add\n        /* \"#utility.yul\":22334:22340   */\n      dup6\n        /* \"#utility.yul\":22290:22362   */\n      tag_171\n      jump\t// in\n    tag_389:\n        /* \"#utility.yul\":22372:22444   */\n      tag_390\n        /* \"#utility.yul\":22440:22442   */\n      0x40\n        /* \"#utility.yul\":22429:22438   */\n      dup4\n        /* \"#utility.yul\":22425:22443   */\n      add\n        /* \"#utility.yul\":22416:22422   */\n      dup5\n        /* \"#utility.yul\":22372:22444   */\n      tag_149\n      jump\t// in\n    tag_390:\n        /* \"#utility.yul\":22009:22451   */\n      swap5\n      swap4\n      pop\n      pop\n      pop\n      pop\n      jump\t// out\n        /* \"#utility.yul\":22457:22637   */\n    tag_88:\n        /* \"#utility.yul\":22505:22582   */\n      0x4e487b7100000000000000000000000000000000000000000000000000000000\n        /* \"#utility.yul\":22502:22503   */\n      0x00\n        /* \"#utility.yul\":22495:22583   */\n      mstore\n        /* \"#utility.yul\":22602:22606   */\n      0x32\n        /* \"#utility.yul\":22599:22600   */\n      0x04\n        /* \"#utility.yul\":22592:22607   */\n      mstore\n        /* \"#utility.yul\":22626:22630   */\n      0x24\n        /* \"#utility.yul\":22623:22624   */\n      0x00\n        /* \"#utility.yul\":22616:22631   */\n      revert\n\n    auxdata: 0xa2646970667358221220b1c4d88f976021bfc0e7b9decc52c9319f796f50e6655e71662272cf15878f3064736f6c63430008160033\n}\n",
				"bytecode": {
					"linkReferences": {},
					"object": "608060405234801561000f575f80fd5b503360015f6101000a81548173ffffffffffffffffffffffffffffffffffffffff021916908373ffffffffffffffffffffffffffffffffffffffff16021790555061165a8061005d5f395ff3fe608060405260043610610049575f3560e01c80632809069e1461004d5780633b3bdd10146100755780639537d6cf146100915780639abb94d4146100bb578063d923b3d8146100fc575b5f80fd5b348015610058575f80fd5b50610073600480360381019061006e9190610cd2565b610138565b005b61008f600480360381019061008a9190610d81565b61038a565b005b34801561009c575f80fd5b506100a561069e565b6040516100b29190610fc2565b60405180910390f35b3480156100c6575f80fd5b506100e160048036038101906100dc9190610fe2565b61090d565b6040516100f396959493929190611073565b60405180910390f35b348015610107575f80fd5b50610122600480360381019061011d9190610fe2565b610a70565b60405161012f91906110e0565b60405180910390f35b60015f9054906101000a900473ffffffffffffffffffffffffffffffffffffffff1673ffffffffffffffffffffffffffffffffffffffff163373ffffffffffffffffffffffffffffffffffffffff16146101c7576040517f08c379a00000000000000000000000000000000000000000000000000000000081526004016101be90611169565b60405180910390fd5b6101d05f610a90565b5f6040518060c001604052806101e55f610aa4565b815260200187815260200186815260200185815260200184815260200160015f9054906101000a900473ffffffffffffffffffffffffffffffffffffffff1673ffffffffffffffffffffffffffffffffffffffff1681525090508060025f61024c5f610aa4565b81526020019081526020015f205f820151815f01556020820151816001015560408201518160020190816102809190611381565b506060820151816003015560808201518160040190816102a09190611381565b5060a0820151816005015f6101000a81548173ffffffffffffffffffffffffffffffffffffffff021916908373ffffffffffffffffffffffffffffffffffffffff16021790555090505060036102f55f610aa4565b908060018154018082558091505060019003905f5260205f20015f90919091909150557f683895df9244c6b966398398862181ac8d8d4ba9285a6c1df6d24a0cdac053786103425f610aa4565b8787878760015f9054906101000a900473ffffffffffffffffffffffffffffffffffffffff1660405161037a9695949392919061145f565b60405180910390a1505050505050565b60015f9054906101000a900473ffffffffffffffffffffffffffffffffffffffff1673ffffffffffffffffffffffffffffffffffffffff163373ffffffffffffffffffffffffffffffffffffffff1614610419576040517f08c379a00000000000000000000000000000000000000000000000000000000081526004016104109061153c565b60405180910390fd5b5f60025f8581526020019081526020015f206040518060c00160405290815f820154815260200160018201548152602001600282018054610459906111b4565b80601f0160208091040260200160405190810160405280929190818152602001828054610485906111b4565b80156104d05780601f106104a7576101008083540402835291602001916104d0565b820191905f5260205f20905b8154815290600101906020018083116104b357829003601f168201915b50505050508152602001600382015481526020016004820180546104f3906111b4565b80601f016020809104026020016040519081016040528092919081815260200182805461051f906111b4565b801561056a5780601f106105415761010080835404028352916020019161056a565b820191905f5260205f20905b81548152906001019060200180831161054d57829003601f168201915b50505050508152602001600582015f9054906101000a900473ffffffffffffffffffffffffffffffffffffffff1673ffffffffffffffffffffffffffffffffffffffff1673ffffffffffffffffffffffffffffffffffffffff168152505090508181606001511015610611576040517f08c379a0000000000000000000000000000000000000000000000000000000008152600401610608906115a4565b60405180910390fd5b8060a0015173ffffffffffffffffffffffffffffffffffffffff166108fc826060015190811502906040515f60405180830381858888f1935050505015801561065c573d5f803e3d5ffd5b507f66262d29b39f82a7838ea037c521cd5b4821f21fb16fe0aa690dd7270e1cb971848484604051610690939291906115c2565b60405180910390a150505050565b60605f60038054905090505f8167ffffffffffffffff8111156106c4576106c3610b54565b5b6040519080825280602002602001820160405280156106fd57816020015b6106ea610ab0565b8152602001906001900390816106e25790505b5090505f5b82811015610904575f6003828154811061071f5761071e6115f7565b5b905f5260205f200154905060025f8281526020019081526020015f206040518060c00160405290815f820154815260200160018201548152602001600282018054610769906111b4565b80601f0160208091040260200160405190810160405280929190818152602001828054610795906111b4565b80156107e05780601f106107b7576101008083540402835291602001916107e0565b820191905f5260205f20905b8154815290600101906020018083116107c357829003601f168201915b5050505050815260200160038201548152602001600482018054610803906111b4565b80601f016020809104026020016040519081016040528092919081815260200182805461082f906111b4565b801561087a5780601f106108515761010080835404028352916020019161087a565b820191905f5260205f20905b81548152906001019060200180831161085d57829003601f168201915b50505050508152602001600582015f9054906101000a900473ffffffffffffffffffffffffffffffffffffffff1673ffffffffffffffffffffffffffffffffffffffff1673ffffffffffffffffffffffffffffffffffffffff16815250508383815181106108eb576108ea6115f7565b5b6020026020010181905250508080600101915050610702565b50809250505090565b6002602052805f5260405f205f91509050805f015490806001015490806002018054610938906111b4565b80601f0160208091040260200160405190810160405280929190818152602001828054610964906111b4565b80156109af5780601f10610986576101008083540402835291602001916109af565b820191905f5260205f20905b81548152906001019060200180831161099257829003601f168201915b5050505050908060030154908060040180546109ca906111b4565b80601f01602080910402602001604051908101604052809291908181526020018280546109f6906111b4565b8015610a415780601f10610a1857610100808354040283529160200191610a41565b820191905f5260205f20905b815481529060010190602001808311610a2457829003601f168201915b505050505090806005015f9054906101000a900473ffffffffffffffffffffffffffffffffffffffff16905086565b60038181548110610a7f575f80fd5b905f5260205f20015f915090505481565b6001815f015f828254019250508190555050565b5f815f01549050919050565b6040518060c001604052805f81526020015f8152602001606081526020015f8152602001606081526020015f73ffffffffffffffffffffffffffffffffffffffff1681525090565b5f604051905090565b5f80fd5b5f80fd5b5f819050919050565b610b1b81610b09565b8114610b25575f80fd5b50565b5f81359050610b3681610b12565b92915050565b5f80fd5b5f80fd5b5f601f19601f8301169050919050565b7f4e487b71000000000000000000000000000000000000000000000000000000005f52604160045260245ffd5b610b8a82610b44565b810181811067ffffffffffffffff82111715610ba957610ba8610b54565b5b80604052505050565b5f610bbb610af8565b9050610bc78282610b81565b919050565b5f67ffffffffffffffff821115610be657610be5610b54565b5b610bef82610b44565b9050602081019050919050565b828183375f83830152505050565b5f610c1c610c1784610bcc565b610bb2565b905082815260208101848484011115610c3857610c37610b40565b5b610c43848285610bfc565b509392505050565b5f82601f830112610c5f57610c5e610b3c565b5b8135610c6f848260208601610c0a565b91505092915050565b5f73ffffffffffffffffffffffffffffffffffffffff82169050919050565b5f610ca182610c78565b9050919050565b610cb181610c97565b8114610cbb575f80fd5b50565b5f81359050610ccc81610ca8565b92915050565b5f805f805f60a08688031215610ceb57610cea610b01565b5b5f610cf888828901610b28565b955050602086013567ffffffffffffffff811115610d1957610d18610b05565b5b610d2588828901610c4b565b9450506040610d3688828901610b28565b935050606086013567ffffffffffffffff811115610d5757610d56610b05565b5b610d6388828901610c4b565b9250506080610d7488828901610cbe565b9150509295509295909350565b5f805f60608486031215610d9857610d97610b01565b5b5f610da586828701610b28565b9350506020610db686828701610cbe565b9250506040610dc786828701610b28565b9150509250925092565b5f81519050919050565b5f82825260208201905092915050565b5f819050602082019050919050565b610e0381610b09565b82525050565b5f81519050919050565b5f82825260208201905092915050565b5f5b83811015610e40578082015181840152602081019050610e25565b5f8484015250505050565b5f610e5582610e09565b610e5f8185610e13565b9350610e6f818560208601610e23565b610e7881610b44565b840191505092915050565b5f610e8d82610c78565b9050919050565b610e9d81610e83565b82525050565b5f60c083015f830151610eb85f860182610dfa565b506020830151610ecb6020860182610dfa565b5060408301518482036040860152610ee38282610e4b565b9150506060830151610ef86060860182610dfa565b5060808301518482036080860152610f108282610e4b565b91505060a0830151610f2560a0860182610e94565b508091505092915050565b5f610f3b8383610ea3565b905092915050565b5f602082019050919050565b5f610f5982610dd1565b610f638185610ddb565b935083602082028501610f7585610deb565b805f5b85811015610fb05784840389528151610f918582610f30565b9450610f9c83610f43565b925060208a01995050600181019050610f78565b50829750879550505050505092915050565b5f6020820190508181035f830152610fda8184610f4f565b905092915050565b5f60208284031215610ff757610ff6610b01565b5b5f61100484828501610b28565b91505092915050565b61101681610b09565b82525050565b5f82825260208201905092915050565b5f61103682610e09565b611040818561101c565b9350611050818560208601610e23565b61105981610b44565b840191505092915050565b61106d81610e83565b82525050565b5f60c0820190506110865f83018961100d565b611093602083018861100d565b81810360408301526110a5818761102c565b90506110b4606083018661100d565b81810360808301526110c6818561102c565b90506110d560a0830184611064565b979650505050505050565b5f6020820190506110f35f83018461100d565b92915050565b7f4f6e6c7920546865204167656e6379204f776e65722043616e204164642063615f8201527f7273212121000000000000000000000000000000000000000000000000000000602082015250565b5f61115360258361101c565b915061115e826110f9565b604082019050919050565b5f6020820190508181035f83015261118081611147565b9050919050565b7f4e487b71000000000000000000000000000000000000000000000000000000005f52602260045260245ffd5b5f60028204905060018216806111cb57607f821691505b6020821081036111de576111dd611187565b5b50919050565b5f819050815f5260205f209050919050565b5f6020601f8301049050919050565b5f82821b905092915050565b5f600883026112407fffffffffffffffffffffffffffffffffffffffffffffffffffffffffffffffff82611205565b61124a8683611205565b95508019841693508086168417925050509392505050565b5f819050919050565b5f61128561128061127b84610b09565b611262565b610b09565b9050919050565b5f819050919050565b61129e8361126b565b6112b26112aa8261128c565b848454611211565b825550505050565b5f90565b6112c66112ba565b6112d1818484611295565b505050565b5b818110156112f4576112e95f826112be565b6001810190506112d7565b5050565b601f8211156113395761130a816111e4565b611313846111f6565b81016020851015611322578190505b61133661132e856111f6565b8301826112d6565b50505b505050565b5f82821c905092915050565b5f6113595f198460080261133e565b1980831691505092915050565b5f611371838361134a565b9150826002028217905092915050565b61138a82610e09565b67ffffffffffffffff8111156113a3576113a2610b54565b5b6113ad82546111b4565b6113b88282856112f8565b5f60209050601f8311600181146113e9575f84156113d7578287015190505b6113e18582611366565b865550611448565b601f1984166113f7866111e4565b5f5b8281101561141e578489015182556001820191506020850194506020810190506113f9565b8683101561143b5784890151611437601f89168261134a565b8355505b6001600288020188555050505b505050505050565b61145981610c97565b82525050565b5f60c0820190506114725f83018961100d565b61147f602083018861100d565b8181036040830152611491818761102c565b90506114a0606083018661100d565b81810360808301526114b2818561102c565b90506114c160a0830184611450565b979650505050505050565b7f4f6e6c7920546865204167656e6379204f776e65722043616e2053656c6c20635f8201527f6172732121210000000000000000000000000000000000000000000000000000602082015250565b5f61152660268361101c565b9150611531826114cc565b604082019050919050565b5f6020820190508181035f8301526115538161151a565b9050919050565b7f57726f6e67204361722076616c756520000000000000000000000000000000005f82015250565b5f61158e60108361101c565b91506115998261155a565b602082019050919050565b5f6020820190508181035f8301526115bb81611582565b9050919050565b5f6060820190506115d55f83018661100d565b6115e26020830185611450565b6115ef604083018461100d565b949350505050565b7f4e487b71000000000000000000000000000000000000000000000000000000005f52603260045260245ffdfea2646970667358221220b1c4d88f976021bfc0e7b9decc52c9319f796f50e6655e71662272cf15878f3064736f6c63430008160033",
					"opcodes": "PUSH1 0x80 PUSH1 0x40 MSTORE CALLVALUE DUP1 ISZERO PUSH2 0xF JUMPI PUSH0 DUP1 REVERT JUMPDEST POP CALLER PUSH1 0x1 PUSH0 PUSH2 0x100 EXP DUP2 SLOAD DUP2 PUSH20 0xFFFFFFFFFFFFFFFFFFFFFFFFFFFFFFFFFFFFFFFF MUL NOT AND SWAP1 DUP4 PUSH20 0xFFFFFFFFFFFFFFFFFFFFFFFFFFFFFFFFFFFFFFFF AND MUL OR SWAP1 SSTORE POP PUSH2 0x165A DUP1 PUSH2 0x5D PUSH0 CODECOPY PUSH0 RETURN INVALID PUSH1 0x80 PUSH1 0x40 MSTORE PUSH1 0x4 CALLDATASIZE LT PUSH2 0x49 JUMPI PUSH0 CALLDATALOAD PUSH1 0xE0 SHR DUP1 PUSH4 0x2809069E EQ PUSH2 0x4D JUMPI DUP1 PUSH4 0x3B3BDD10 EQ PUSH2 0x75 JUMPI DUP1 PUSH4 0x9537D6CF EQ PUSH2 0x91 JUMPI DUP1 PUSH4 0x9ABB94D4 EQ PUSH2 0xBB JUMPI DUP1 PUSH4 0xD923B3D8 EQ PUSH2 0xFC JUMPI JUMPDEST PUSH0 DUP1 REVERT JUMPDEST CALLVALUE DUP1 ISZERO PUSH2 0x58 JUMPI PUSH0 DUP1 REVERT JUMPDEST POP PUSH2 0x73 PUSH1 0x4 DUP1 CALLDATASIZE SUB DUP2 ADD SWAP1 PUSH2 0x6E SWAP2 SWAP1 PUSH2 0xCD2 JUMP JUMPDEST PUSH2 0x138 JUMP JUMPDEST STOP JUMPDEST PUSH2 0x8F PUSH1 0x4 DUP1 CALLDATASIZE SUB DUP2 ADD SWAP1 PUSH2 0x8A SWAP2 SWAP1 PUSH2 0xD81 JUMP JUMPDEST PUSH2 0x38A JUMP JUMPDEST STOP JUMPDEST CALLVALUE DUP1 ISZERO PUSH2 0x9C JUMPI PUSH0 DUP1 REVERT JUMPDEST POP PUSH2 0xA5 PUSH2 0x69E JUMP JUMPDEST PUSH1 0x40 MLOAD PUSH2 0xB2 SWAP2 SWAP1 PUSH2 0xFC2 JUMP JUMPDEST PUSH1 0x40 MLOAD DUP1 SWAP2 SUB SWAP1 RETURN JUMPDEST CALLVALUE DUP1 ISZERO PUSH2 0xC6 JUMPI PUSH0 DUP1 REVERT JUMPDEST POP PUSH2 0xE1 PUSH1 0x4 DUP1 CALLDATASIZE SUB DUP2 ADD SWAP1 PUSH2 0xDC SWAP2 SWAP1 PUSH2 0xFE2 JUMP JUMPDEST PUSH2 0x90D JUMP JUMPDEST PUSH1 0x40 MLOAD PUSH2 0xF3 SWAP7 SWAP6 SWAP5 SWAP4 SWAP3 SWAP2 SWAP1 PUSH2 0x1073 JUMP JUMPDEST PUSH1 0x40 MLOAD DUP1 SWAP2 SUB SWAP1 RETURN JUMPDEST CALLVALUE DUP1 ISZERO PUSH2 0x107 JUMPI PUSH0 DUP1 REVERT JUMPDEST POP PUSH2 0x122 PUSH1 0x4 DUP1 CALLDATASIZE SUB DUP2 ADD SWAP1 PUSH2 0x11D SWAP2 SWAP1 PUSH2 0xFE2 JUMP JUMPDEST PUSH2 0xA70 JUMP JUMPDEST PUSH1 0x40 MLOAD PUSH2 0x12F SWAP2 SWAP1 PUSH2 0x10E0 JUMP JUMPDEST PUSH1 0x40 MLOAD DUP1 SWAP2 SUB SWAP1 RETURN JUMPDEST PUSH1 0x1 PUSH0 SWAP1 SLOAD SWAP1 PUSH2 0x100 EXP SWAP1 DIV PUSH20 0xFFFFFFFFFFFFFFFFFFFFFFFFFFFFFFFFFFFFFFFF AND PUSH20 0xFFFFFFFFFFFFFFFFFFFFFFFFFFFFFFFFFFFFFFFF AND CALLER PUSH20 0xFFFFFFFFFFFFFFFFFFFFFFFFFFFFFFFFFFFFFFFF AND EQ PUSH2 0x1C7 JUMPI PUSH1 0x40 MLOAD PUSH32 0x8C379A000000000000000000000000000000000000000000000000000000000 DUP2 MSTORE PUSH1 0x4 ADD PUSH2 0x1BE SWAP1 PUSH2 0x1169 JUMP JUMPDEST PUSH1 0x40 MLOAD DUP1 SWAP2 SUB SWAP1 REVERT JUMPDEST PUSH2 0x1D0 PUSH0 PUSH2 0xA90 JUMP JUMPDEST PUSH0 PUSH1 0x40 MLOAD DUP1 PUSH1 0xC0 ADD PUSH1 0x40 MSTORE DUP1 PUSH2 0x1E5 PUSH0 PUSH2 0xAA4 JUMP JUMPDEST DUP2 MSTORE PUSH1 0x20 ADD DUP8 DUP2 MSTORE PUSH1 0x20 ADD DUP7 DUP2 MSTORE PUSH1 0x20 ADD DUP6 DUP2 MSTORE PUSH1 0x20 ADD DUP5 DUP2 MSTORE PUSH1 0x20 ADD PUSH1 0x1 PUSH0 SWAP1 SLOAD SWAP1 PUSH2 0x100 EXP SWAP1 DIV PUSH20 0xFFFFFFFFFFFFFFFFFFFFFFFFFFFFFFFFFFFFFFFF AND PUSH20 0xFFFFFFFFFFFFFFFFFFFFFFFFFFFFFFFFFFFFFFFF AND DUP2 MSTORE POP SWAP1 POP DUP1 PUSH1 0x2 PUSH0 PUSH2 0x24C PUSH0 PUSH2 0xAA4 JUMP JUMPDEST DUP2 MSTORE PUSH1 0x20 ADD SWAP1 DUP2 MSTORE PUSH1 0x20 ADD PUSH0 KECCAK256 PUSH0 DUP3 ADD MLOAD DUP2 PUSH0 ADD SSTORE PUSH1 0x20 DUP3 ADD MLOAD DUP2 PUSH1 0x1 ADD SSTORE PUSH1 0x40 DUP3 ADD MLOAD DUP2 PUSH1 0x2 ADD SWAP1 DUP2 PUSH2 0x280 SWAP2 SWAP1 PUSH2 0x1381 JUMP JUMPDEST POP PUSH1 0x60 DUP3 ADD MLOAD DUP2 PUSH1 0x3 ADD SSTORE PUSH1 0x80 DUP3 ADD MLOAD DUP2 PUSH1 0x4 ADD SWAP1 DUP2 PUSH2 0x2A0 SWAP2 SWAP1 PUSH2 0x1381 JUMP JUMPDEST POP PUSH1 0xA0 DUP3 ADD MLOAD DUP2 PUSH1 0x5 ADD PUSH0 PUSH2 0x100 EXP DUP2 SLOAD DUP2 PUSH20 0xFFFFFFFFFFFFFFFFFFFFFFFFFFFFFFFFFFFFFFFF MUL NOT AND SWAP1 DUP4 PUSH20 0xFFFFFFFFFFFFFFFFFFFFFFFFFFFFFFFFFFFFFFFF AND MUL OR SWAP1 SSTORE POP SWAP1 POP POP PUSH1 0x3 PUSH2 0x2F5 PUSH0 PUSH2 0xAA4 JUMP JUMPDEST SWAP1 DUP1 PUSH1 0x1 DUP2 SLOAD ADD DUP1 DUP3 SSTORE DUP1 SWAP2 POP POP PUSH1 0x1 SWAP1 SUB SWAP1 PUSH0 MSTORE PUSH1 0x20 PUSH0 KECCAK256 ADD PUSH0 SWAP1 SWAP2 SWAP1 SWAP2 SWAP1 SWAP2 POP SSTORE PUSH32 0x683895DF9244C6B966398398862181AC8D8D4BA9285A6C1DF6D24A0CDAC05378 PUSH2 0x342 PUSH0 PUSH2 0xAA4 JUMP JUMPDEST DUP8 DUP8 DUP8 DUP8 PUSH1 0x1 PUSH0 SWAP1 SLOAD SWAP1 PUSH2 0x100 EXP SWAP1 DIV PUSH20 0xFFFFFFFFFFFFFFFFFFFFFFFFFFFFFFFFFFFFFFFF AND PUSH1 0x40 MLOAD PUSH2 0x37A SWAP7 SWAP6 SWAP5 SWAP4 SWAP3 SWAP2 SWAP1 PUSH2 0x145F JUMP JUMPDEST PUSH1 0x40 MLOAD DUP1 SWAP2 SUB SWAP1 LOG1 POP POP POP POP POP POP JUMP JUMPDEST PUSH1 0x1 PUSH0 SWAP1 SLOAD SWAP1 PUSH2 0x100 EXP SWAP1 DIV PUSH20 0xFFFFFFFFFFFFFFFFFFFFFFFFFFFFFFFFFFFFFFFF AND PUSH20 0xFFFFFFFFFFFFFFFFFFFFFFFFFFFFFFFFFFFFFFFF AND CALLER PUSH20 0xFFFFFFFFFFFFFFFFFFFFFFFFFFFFFFFFFFFFFFFF AND EQ PUSH2 0x419 JUMPI PUSH1 0x40 MLOAD PUSH32 0x8C379A000000000000000000000000000000000000000000000000000000000 DUP2 MSTORE PUSH1 0x4 ADD PUSH2 0x410 SWAP1 PUSH2 0x153C JUMP JUMPDEST PUSH1 0x40 MLOAD DUP1 SWAP2 SUB SWAP1 REVERT JUMPDEST PUSH0 PUSH1 0x2 PUSH0 DUP6 DUP2 MSTORE PUSH1 0x20 ADD SWAP1 DUP2 MSTORE PUSH1 0x20 ADD PUSH0 KECCAK256 PUSH1 0x40 MLOAD DUP1 PUSH1 0xC0 ADD PUSH1 0x40 MSTORE SWAP1 DUP2 PUSH0 DUP3 ADD SLOAD DUP2 MSTORE PUSH1 0x20 ADD PUSH1 0x1 DUP3 ADD SLOAD DUP2 MSTORE PUSH1 0x20 ADD PUSH1 0x2 DUP3 ADD DUP1 SLOAD PUSH2 0x459 SWAP1 PUSH2 0x11B4 JUMP JUMPDEST DUP1 PUSH1 0x1F ADD PUSH1 0x20 DUP1 SWAP2 DIV MUL PUSH1 0x20 ADD PUSH1 0x40 MLOAD SWAP1 DUP2 ADD PUSH1 0x40 MSTORE DUP1 SWAP3 SWAP2 SWAP1 DUP2 DUP2 MSTORE PUSH1 0x20 ADD DUP3 DUP1 SLOAD PUSH2 0x485 SWAP1 PUSH2 0x11B4 JUMP JUMPDEST DUP1 ISZERO PUSH2 0x4D0 JUMPI DUP1 PUSH1 0x1F LT PUSH2 0x4A7 JUMPI PUSH2 0x100 DUP1 DUP4 SLOAD DIV MUL DUP4 MSTORE SWAP2 PUSH1 0x20 ADD SWAP2 PUSH2 0x4D0 JUMP JUMPDEST DUP3 ADD SWAP2 SWAP1 PUSH0 MSTORE PUSH1 0x20 PUSH0 KECCAK256 SWAP1 JUMPDEST DUP2 SLOAD DUP2 MSTORE SWAP1 PUSH1 0x1 ADD SWAP1 PUSH1 0x20 ADD DUP1 DUP4 GT PUSH2 0x4B3 JUMPI DUP3 SWAP1 SUB PUSH1 0x1F AND DUP3 ADD SWAP2 JUMPDEST POP POP POP POP POP DUP2 MSTORE PUSH1 0x20 ADD PUSH1 0x3 DUP3 ADD SLOAD DUP2 MSTORE PUSH1 0x20 ADD PUSH1 0x4 DUP3 ADD DUP1 SLOAD PUSH2 0x4F3 SWAP1 PUSH2 0x11B4 JUMP JUMPDEST DUP1 PUSH1 0x1F ADD PUSH1 0x20 DUP1 SWAP2 DIV MUL PUSH1 0x20 ADD PUSH1 0x40 MLOAD SWAP1 DUP2 ADD PUSH1 0x40 MSTORE DUP1 SWAP3 SWAP2 SWAP1 DUP2 DUP2 MSTORE PUSH1 0x20 ADD DUP3 DUP1 SLOAD PUSH2 0x51F SWAP1 PUSH2 0x11B4 JUMP JUMPDEST DUP1 ISZERO PUSH2 0x56A JUMPI DUP1 PUSH1 0x1F LT PUSH2 0x541 JUMPI PUSH2 0x100 DUP1 DUP4 SLOAD DIV MUL DUP4 MSTORE SWAP2 PUSH1 0x20 ADD SWAP2 PUSH2 0x56A JUMP JUMPDEST DUP3 ADD SWAP2 SWAP1 PUSH0 MSTORE PUSH1 0x20 PUSH0 KECCAK256 SWAP1 JUMPDEST DUP2 SLOAD DUP2 MSTORE SWAP1 PUSH1 0x1 ADD SWAP1 PUSH1 0x20 ADD DUP1 DUP4 GT PUSH2 0x54D JUMPI DUP3 SWAP1 SUB PUSH1 0x1F AND DUP3 ADD SWAP2 JUMPDEST POP POP POP POP POP DUP2 MSTORE PUSH1 0x20 ADD PUSH1 0x5 DUP3 ADD PUSH0 SWAP1 SLOAD SWAP1 PUSH2 0x100 EXP SWAP1 DIV PUSH20 0xFFFFFFFFFFFFFFFFFFFFFFFFFFFFFFFFFFFFFFFF AND PUSH20 0xFFFFFFFFFFFFFFFFFFFFFFFFFFFFFFFFFFFFFFFF AND PUSH20 0xFFFFFFFFFFFFFFFFFFFFFFFFFFFFFFFFFFFFFFFF AND DUP2 MSTORE POP POP SWAP1 POP DUP2 DUP2 PUSH1 0x60 ADD MLOAD LT ISZERO PUSH2 0x611 JUMPI PUSH1 0x40 MLOAD PUSH32 0x8C379A000000000000000000000000000000000000000000000000000000000 DUP2 MSTORE PUSH1 0x4 ADD PUSH2 0x608 SWAP1 PUSH2 0x15A4 JUMP JUMPDEST PUSH1 0x40 MLOAD DUP1 SWAP2 SUB SWAP1 REVERT JUMPDEST DUP1 PUSH1 0xA0 ADD MLOAD PUSH20 0xFFFFFFFFFFFFFFFFFFFFFFFFFFFFFFFFFFFFFFFF AND PUSH2 0x8FC DUP3 PUSH1 0x60 ADD MLOAD SWAP1 DUP2 ISZERO MUL SWAP1 PUSH1 0x40 MLOAD PUSH0 PUSH1 0x40 MLOAD DUP1 DUP4 SUB DUP2 DUP6 DUP9 DUP9 CALL SWAP4 POP POP POP POP ISZERO DUP1 ISZERO PUSH2 0x65C JUMPI RETURNDATASIZE PUSH0 DUP1 RETURNDATACOPY RETURNDATASIZE PUSH0 REVERT JUMPDEST POP PUSH32 0x66262D29B39F82A7838EA037C521CD5B4821F21FB16FE0AA690DD7270E1CB971 DUP5 DUP5 DUP5 PUSH1 0x40 MLOAD PUSH2 0x690 SWAP4 SWAP3 SWAP2 SWAP1 PUSH2 0x15C2 JUMP JUMPDEST PUSH1 0x40 MLOAD DUP1 SWAP2 SUB SWAP1 LOG1 POP POP POP POP JUMP JUMPDEST PUSH1 0x60 PUSH0 PUSH1 0x3 DUP1 SLOAD SWAP1 POP SWAP1 POP PUSH0 DUP2 PUSH8 0xFFFFFFFFFFFFFFFF DUP2 GT ISZERO PUSH2 0x6C4 JUMPI PUSH2 0x6C3 PUSH2 0xB54 JUMP JUMPDEST JUMPDEST PUSH1 0x40 MLOAD SWAP1 DUP1 DUP3 MSTORE DUP1 PUSH1 0x20 MUL PUSH1 0x20 ADD DUP3 ADD PUSH1 0x40 MSTORE DUP1 ISZERO PUSH2 0x6FD JUMPI DUP2 PUSH1 0x20 ADD JUMPDEST PUSH2 0x6EA PUSH2 0xAB0 JUMP JUMPDEST DUP2 MSTORE PUSH1 0x20 ADD SWAP1 PUSH1 0x1 SWAP1 SUB SWAP1 DUP2 PUSH2 0x6E2 JUMPI SWAP1 POP JUMPDEST POP SWAP1 POP PUSH0 JUMPDEST DUP3 DUP2 LT ISZERO PUSH2 0x904 JUMPI PUSH0 PUSH1 0x3 DUP3 DUP2 SLOAD DUP2 LT PUSH2 0x71F JUMPI PUSH2 0x71E PUSH2 0x15F7 JUMP JUMPDEST JUMPDEST SWAP1 PUSH0 MSTORE PUSH1 0x20 PUSH0 KECCAK256 ADD SLOAD SWAP1 POP PUSH1 0x2 PUSH0 DUP3 DUP2 MSTORE PUSH1 0x20 ADD SWAP1 DUP2 MSTORE PUSH1 0x20 ADD PUSH0 KECCAK256 PUSH1 0x40 MLOAD DUP1 PUSH1 0xC0 ADD PUSH1 0x40 MSTORE SWAP1 DUP2 PUSH0 DUP3 ADD SLOAD DUP2 MSTORE PUSH1 0x20 ADD PUSH1 0x1 DUP3 ADD SLOAD DUP2 MSTORE PUSH1 0x20 ADD PUSH1 0x2 DUP3 ADD DUP1 SLOAD PUSH2 0x769 SWAP1 PUSH2 0x11B4 JUMP JUMPDEST DUP1 PUSH1 0x1F ADD PUSH1 0x20 DUP1 SWAP2 DIV MUL PUSH1 0x20 ADD PUSH1 0x40 MLOAD SWAP1 DUP2 ADD PUSH1 0x40 MSTORE DUP1 SWAP3 SWAP2 SWAP1 DUP2 DUP2 MSTORE PUSH1 0x20 ADD DUP3 DUP1 SLOAD PUSH2 0x795 SWAP1 PUSH2 0x11B4 JUMP JUMPDEST DUP1 ISZERO PUSH2 0x7E0 JUMPI DUP1 PUSH1 0x1F LT PUSH2 0x7B7 JUMPI PUSH2 0x100 DUP1 DUP4 SLOAD DIV MUL DUP4 MSTORE SWAP2 PUSH1 0x20 ADD SWAP2 PUSH2 0x7E0 JUMP JUMPDEST DUP3 ADD SWAP2 SWAP1 PUSH0 MSTORE PUSH1 0x20 PUSH0 KECCAK256 SWAP1 JUMPDEST DUP2 SLOAD DUP2 MSTORE SWAP1 PUSH1 0x1 ADD SWAP1 PUSH1 0x20 ADD DUP1 DUP4 GT PUSH2 0x7C3 JUMPI DUP3 SWAP1 SUB PUSH1 0x1F AND DUP3 ADD SWAP2 JUMPDEST POP POP POP POP POP DUP2 MSTORE PUSH1 0x20 ADD PUSH1 0x3 DUP3 ADD SLOAD DUP2 MSTORE PUSH1 0x20 ADD PUSH1 0x4 DUP3 ADD DUP1 SLOAD PUSH2 0x803 SWAP1 PUSH2 0x11B4 JUMP JUMPDEST DUP1 PUSH1 0x1F ADD PUSH1 0x20 DUP1 SWAP2 DIV MUL PUSH1 0x20 ADD PUSH1 0x40 MLOAD SWAP1 DUP2 ADD PUSH1 0x40 MSTORE DUP1 SWAP3 SWAP2 SWAP1 DUP2 DUP2 MSTORE PUSH1 0x20 ADD DUP3 DUP1 SLOAD PUSH2 0x82F SWAP1 PUSH2 0x11B4 JUMP JUMPDEST DUP1 ISZERO PUSH2 0x87A JUMPI DUP1 PUSH1 0x1F LT PUSH2 0x851 JUMPI PUSH2 0x100 DUP1 DUP4 SLOAD DIV MUL DUP4 MSTORE SWAP2 PUSH1 0x20 ADD SWAP2 PUSH2 0x87A JUMP JUMPDEST DUP3 ADD SWAP2 SWAP1 PUSH0 MSTORE PUSH1 0x20 PUSH0 KECCAK256 SWAP1 JUMPDEST DUP2 SLOAD DUP2 MSTORE SWAP1 PUSH1 0x1 ADD SWAP1 PUSH1 0x20 ADD DUP1 DUP4 GT PUSH2 0x85D JUMPI DUP3 SWAP1 SUB PUSH1 0x1F AND DUP3 ADD SWAP2 JUMPDEST POP POP POP POP POP DUP2 MSTORE PUSH1 0x20 ADD PUSH1 0x5 DUP3 ADD PUSH0 SWAP1 SLOAD SWAP1 PUSH2 0x100 EXP SWAP1 DIV PUSH20 0xFFFFFFFFFFFFFFFFFFFFFFFFFFFFFFFFFFFFFFFF AND PUSH20 0xFFFFFFFFFFFFFFFFFFFFFFFFFFFFFFFFFFFFFFFF AND PUSH20 0xFFFFFFFFFFFFFFFFFFFFFFFFFFFFFFFFFFFFFFFF AND DUP2 MSTORE POP POP DUP4 DUP4 DUP2 MLOAD DUP2 LT PUSH2 0x8EB JUMPI PUSH2 0x8EA PUSH2 0x15F7 JUMP JUMPDEST JUMPDEST PUSH1 0x20 MUL PUSH1 0x20 ADD ADD DUP2 SWAP1 MSTORE POP POP DUP1 DUP1 PUSH1 0x1 ADD SWAP2 POP POP PUSH2 0x702 JUMP JUMPDEST POP DUP1 SWAP3 POP POP POP SWAP1 JUMP JUMPDEST PUSH1 0x2 PUSH1 0x20 MSTORE DUP1 PUSH0 MSTORE PUSH1 0x40 PUSH0 KECCAK256 PUSH0 SWAP2 POP SWAP1 POP DUP1 PUSH0 ADD SLOAD SWAP1 DUP1 PUSH1 0x1 ADD SLOAD SWAP1 DUP1 PUSH1 0x2 ADD DUP1 SLOAD PUSH2 0x938 SWAP1 PUSH2 0x11B4 JUMP JUMPDEST DUP1 PUSH1 0x1F ADD PUSH1 0x20 DUP1 SWAP2 DIV MUL PUSH1 0x20 ADD PUSH1 0x40 MLOAD SWAP1 DUP2 ADD PUSH1 0x40 MSTORE DUP1 SWAP3 SWAP2 SWAP1 DUP2 DUP2 MSTORE PUSH1 0x20 ADD DUP3 DUP1 SLOAD PUSH2 0x964 SWAP1 PUSH2 0x11B4 JUMP JUMPDEST DUP1 ISZERO PUSH2 0x9AF JUMPI DUP1 PUSH1 0x1F LT PUSH2 0x986 JUMPI PUSH2 0x100 DUP1 DUP4 SLOAD DIV MUL DUP4 MSTORE SWAP2 PUSH1 0x20 ADD SWAP2 PUSH2 0x9AF JUMP JUMPDEST DUP3 ADD SWAP2 SWAP1 PUSH0 MSTORE PUSH1 0x20 PUSH0 KECCAK256 SWAP1 JUMPDEST DUP2 SLOAD DUP2 MSTORE SWAP1 PUSH1 0x1 ADD SWAP1 PUSH1 0x20 ADD DUP1 DUP4 GT PUSH2 0x992 JUMPI DUP3 SWAP1 SUB PUSH1 0x1F AND DUP3 ADD SWAP2 JUMPDEST POP POP POP POP POP SWAP1 DUP1 PUSH1 0x3 ADD SLOAD SWAP1 DUP1 PUSH1 0x4 ADD DUP1 SLOAD PUSH2 0x9CA SWAP1 PUSH2 0x11B4 JUMP JUMPDEST DUP1 PUSH1 0x1F ADD PUSH1 0x20 DUP1 SWAP2 DIV MUL PUSH1 0x20 ADD PUSH1 0x40 MLOAD SWAP1 DUP2 ADD PUSH1 0x40 MSTORE DUP1 SWAP3 SWAP2 SWAP1 DUP2 DUP2 MSTORE PUSH1 0x20 ADD DUP3 DUP1 SLOAD PUSH2 0x9F6 SWAP1 PUSH2 0x11B4 JUMP JUMPDEST DUP1 ISZERO PUSH2 0xA41 JUMPI DUP1 PUSH1 0x1F LT PUSH2 0xA18 JUMPI PUSH2 0x100 DUP1 DUP4 SLOAD DIV MUL DUP4 MSTORE SWAP2 PUSH1 0x20 ADD SWAP2 PUSH2 0xA41 JUMP JUMPDEST DUP3 ADD SWAP2 SWAP1 PUSH0 MSTORE PUSH1 0x20 PUSH0 KECCAK256 SWAP1 JUMPDEST DUP2 SLOAD DUP2 MSTORE SWAP1 PUSH1 0x1 ADD SWAP1 PUSH1 0x20 ADD DUP1 DUP4 GT PUSH2 0xA24 JUMPI DUP3 SWAP1 SUB PUSH1 0x1F AND DUP3 ADD SWAP2 JUMPDEST POP POP POP POP POP SWAP1 DUP1 PUSH1 0x5 ADD PUSH0 SWAP1 SLOAD SWAP1 PUSH2 0x100 EXP SWAP1 DIV PUSH20 0xFFFFFFFFFFFFFFFFFFFFFFFFFFFFFFFFFFFFFFFF AND SWAP1 POP DUP7 JUMP JUMPDEST PUSH1 0x3 DUP2 DUP2 SLOAD DUP2 LT PUSH2 0xA7F JUMPI PUSH0 DUP1 REVERT JUMPDEST SWAP1 PUSH0 MSTORE PUSH1 0x20 PUSH0 KECCAK256 ADD PUSH0 SWAP2 POP SWAP1 POP SLOAD DUP2 JUMP JUMPDEST PUSH1 0x1 DUP2 PUSH0 ADD PUSH0 DUP3 DUP3 SLOAD ADD SWAP3 POP POP DUP2 SWAP1 SSTORE POP POP JUMP JUMPDEST PUSH0 DUP2 PUSH0 ADD SLOAD SWAP1 POP SWAP2 SWAP1 POP JUMP JUMPDEST PUSH1 0x40 MLOAD DUP1 PUSH1 0xC0 ADD PUSH1 0x40 MSTORE DUP1 PUSH0 DUP2 MSTORE PUSH1 0x20 ADD PUSH0 DUP2 MSTORE PUSH1 0x20 ADD PUSH1 0x60 DUP2 MSTORE PUSH1 0x20 ADD PUSH0 DUP2 MSTORE PUSH1 0x20 ADD PUSH1 0x60 DUP2 MSTORE PUSH1 0x20 ADD PUSH0 PUSH20 0xFFFFFFFFFFFFFFFFFFFFFFFFFFFFFFFFFFFFFFFF AND DUP2 MSTORE POP SWAP1 JUMP JUMPDEST PUSH0 PUSH1 0x40 MLOAD SWAP1 POP SWAP1 JUMP JUMPDEST PUSH0 DUP1 REVERT JUMPDEST PUSH0 DUP1 REVERT JUMPDEST PUSH0 DUP2 SWAP1 POP SWAP2 SWAP1 POP JUMP JUMPDEST PUSH2 0xB1B DUP2 PUSH2 0xB09 JUMP JUMPDEST DUP2 EQ PUSH2 0xB25 JUMPI PUSH0 DUP1 REVERT JUMPDEST POP JUMP JUMPDEST PUSH0 DUP2 CALLDATALOAD SWAP1 POP PUSH2 0xB36 DUP2 PUSH2 0xB12 JUMP JUMPDEST SWAP3 SWAP2 POP POP JUMP JUMPDEST PUSH0 DUP1 REVERT JUMPDEST PUSH0 DUP1 REVERT JUMPDEST PUSH0 PUSH1 0x1F NOT PUSH1 0x1F DUP4 ADD AND SWAP1 POP SWAP2 SWAP1 POP JUMP JUMPDEST PUSH32 0x4E487B7100000000000000000000000000000000000000000000000000000000 PUSH0 MSTORE PUSH1 0x41 PUSH1 0x4 MSTORE PUSH1 0x24 PUSH0 REVERT JUMPDEST PUSH2 0xB8A DUP3 PUSH2 0xB44 JUMP JUMPDEST DUP2 ADD DUP2 DUP2 LT PUSH8 0xFFFFFFFFFFFFFFFF DUP3 GT OR ISZERO PUSH2 0xBA9 JUMPI PUSH2 0xBA8 PUSH2 0xB54 JUMP JUMPDEST JUMPDEST DUP1 PUSH1 0x40 MSTORE POP POP POP JUMP JUMPDEST PUSH0 PUSH2 0xBBB PUSH2 0xAF8 JUMP JUMPDEST SWAP1 POP PUSH2 0xBC7 DUP3 DUP3 PUSH2 0xB81 JUMP JUMPDEST SWAP2 SWAP1 POP JUMP JUMPDEST PUSH0 PUSH8 0xFFFFFFFFFFFFFFFF DUP3 GT ISZERO PUSH2 0xBE6 JUMPI PUSH2 0xBE5 PUSH2 0xB54 JUMP JUMPDEST JUMPDEST PUSH2 0xBEF DUP3 PUSH2 0xB44 JUMP JUMPDEST SWAP1 POP PUSH1 0x20 DUP2 ADD SWAP1 POP SWAP2 SWAP1 POP JUMP JUMPDEST DUP3 DUP2 DUP4 CALLDATACOPY PUSH0 DUP4 DUP4 ADD MSTORE POP POP POP JUMP JUMPDEST PUSH0 PUSH2 0xC1C PUSH2 0xC17 DUP5 PUSH2 0xBCC JUMP JUMPDEST PUSH2 0xBB2 JUMP JUMPDEST SWAP1 POP DUP3 DUP2 MSTORE PUSH1 0x20 DUP2 ADD DUP5 DUP5 DUP5 ADD GT ISZERO PUSH2 0xC38 JUMPI PUSH2 0xC37 PUSH2 0xB40 JUMP JUMPDEST JUMPDEST PUSH2 0xC43 DUP5 DUP3 DUP6 PUSH2 0xBFC JUMP JUMPDEST POP SWAP4 SWAP3 POP POP POP JUMP JUMPDEST PUSH0 DUP3 PUSH1 0x1F DUP4 ADD SLT PUSH2 0xC5F JUMPI PUSH2 0xC5E PUSH2 0xB3C JUMP JUMPDEST JUMPDEST DUP2 CALLDATALOAD PUSH2 0xC6F DUP5 DUP3 PUSH1 0x20 DUP7 ADD PUSH2 0xC0A JUMP JUMPDEST SWAP2 POP POP SWAP3 SWAP2 POP POP JUMP JUMPDEST PUSH0 PUSH20 0xFFFFFFFFFFFFFFFFFFFFFFFFFFFFFFFFFFFFFFFF DUP3 AND SWAP1 POP SWAP2 SWAP1 POP JUMP JUMPDEST PUSH0 PUSH2 0xCA1 DUP3 PUSH2 0xC78 JUMP JUMPDEST SWAP1 POP SWAP2 SWAP1 POP JUMP JUMPDEST PUSH2 0xCB1 DUP2 PUSH2 0xC97 JUMP JUMPDEST DUP2 EQ PUSH2 0xCBB JUMPI PUSH0 DUP1 REVERT JUMPDEST POP JUMP JUMPDEST PUSH0 DUP2 CALLDATALOAD SWAP1 POP PUSH2 0xCCC DUP2 PUSH2 0xCA8 JUMP JUMPDEST SWAP3 SWAP2 POP POP JUMP JUMPDEST PUSH0 DUP1 PUSH0 DUP1 PUSH0 PUSH1 0xA0 DUP7 DUP9 SUB SLT ISZERO PUSH2 0xCEB JUMPI PUSH2 0xCEA PUSH2 0xB01 JUMP JUMPDEST JUMPDEST PUSH0 PUSH2 0xCF8 DUP9 DUP3 DUP10 ADD PUSH2 0xB28 JUMP JUMPDEST SWAP6 POP POP PUSH1 0x20 DUP7 ADD CALLDATALOAD PUSH8 0xFFFFFFFFFFFFFFFF DUP2 GT ISZERO PUSH2 0xD19 JUMPI PUSH2 0xD18 PUSH2 0xB05 JUMP JUMPDEST JUMPDEST PUSH2 0xD25 DUP9 DUP3 DUP10 ADD PUSH2 0xC4B JUMP JUMPDEST SWAP5 POP POP PUSH1 0x40 PUSH2 0xD36 DUP9 DUP3 DUP10 ADD PUSH2 0xB28 JUMP JUMPDEST SWAP4 POP POP PUSH1 0x60 DUP7 ADD CALLDATALOAD PUSH8 0xFFFFFFFFFFFFFFFF DUP2 GT ISZERO PUSH2 0xD57 JUMPI PUSH2 0xD56 PUSH2 0xB05 JUMP JUMPDEST JUMPDEST PUSH2 0xD63 DUP9 DUP3 DUP10 ADD PUSH2 0xC4B JUMP JUMPDEST SWAP3 POP POP PUSH1 0x80 PUSH2 0xD74 DUP9 DUP3 DUP10 ADD PUSH2 0xCBE JUMP JUMPDEST SWAP2 POP POP SWAP3 SWAP6 POP SWAP3 SWAP6 SWAP1 SWAP4 POP JUMP JUMPDEST PUSH0 DUP1 PUSH0 PUSH1 0x60 DUP5 DUP7 SUB SLT ISZERO PUSH2 0xD98 JUMPI PUSH2 0xD97 PUSH2 0xB01 JUMP JUMPDEST JUMPDEST PUSH0 PUSH2 0xDA5 DUP7 DUP3 DUP8 ADD PUSH2 0xB28 JUMP JUMPDEST SWAP4 POP POP PUSH1 0x20 PUSH2 0xDB6 DUP7 DUP3 DUP8 ADD PUSH2 0xCBE JUMP JUMPDEST SWAP3 POP POP PUSH1 0x40 PUSH2 0xDC7 DUP7 DUP3 DUP8 ADD PUSH2 0xB28 JUMP JUMPDEST SWAP2 POP POP SWAP3 POP SWAP3 POP SWAP3 JUMP JUMPDEST PUSH0 DUP2 MLOAD SWAP1 POP SWAP2 SWAP1 POP JUMP JUMPDEST PUSH0 DUP3 DUP3 MSTORE PUSH1 0x20 DUP3 ADD SWAP1 POP SWAP3 SWAP2 POP POP JUMP JUMPDEST PUSH0 DUP2 SWAP1 POP PUSH1 0x20 DUP3 ADD SWAP1 POP SWAP2 SWAP1 POP JUMP JUMPDEST PUSH2 0xE03 DUP2 PUSH2 0xB09 JUMP JUMPDEST DUP3 MSTORE POP POP JUMP JUMPDEST PUSH0 DUP2 MLOAD SWAP1 POP SWAP2 SWAP1 POP JUMP JUMPDEST PUSH0 DUP3 DUP3 MSTORE PUSH1 0x20 DUP3 ADD SWAP1 POP SWAP3 SWAP2 POP POP JUMP JUMPDEST PUSH0 JUMPDEST DUP4 DUP2 LT ISZERO PUSH2 0xE40 JUMPI DUP1 DUP3 ADD MLOAD DUP2 DUP5 ADD MSTORE PUSH1 0x20 DUP2 ADD SWAP1 POP PUSH2 0xE25 JUMP JUMPDEST PUSH0 DUP5 DUP5 ADD MSTORE POP POP POP POP JUMP JUMPDEST PUSH0 PUSH2 0xE55 DUP3 PUSH2 0xE09 JUMP JUMPDEST PUSH2 0xE5F DUP2 DUP6 PUSH2 0xE13 JUMP JUMPDEST SWAP4 POP PUSH2 0xE6F DUP2 DUP6 PUSH1 0x20 DUP7 ADD PUSH2 0xE23 JUMP JUMPDEST PUSH2 0xE78 DUP2 PUSH2 0xB44 JUMP JUMPDEST DUP5 ADD SWAP2 POP POP SWAP3 SWAP2 POP POP JUMP JUMPDEST PUSH0 PUSH2 0xE8D DUP3 PUSH2 0xC78 JUMP JUMPDEST SWAP1 POP SWAP2 SWAP1 POP JUMP JUMPDEST PUSH2 0xE9D DUP2 PUSH2 0xE83 JUMP JUMPDEST DUP3 MSTORE POP POP JUMP JUMPDEST PUSH0 PUSH1 0xC0 DUP4 ADD PUSH0 DUP4 ADD MLOAD PUSH2 0xEB8 PUSH0 DUP7 ADD DUP3 PUSH2 0xDFA JUMP JUMPDEST POP PUSH1 0x20 DUP4 ADD MLOAD PUSH2 0xECB PUSH1 0x20 DUP7 ADD DUP3 PUSH2 0xDFA JUMP JUMPDEST POP PUSH1 0x40 DUP4 ADD MLOAD DUP5 DUP3 SUB PUSH1 0x40 DUP7 ADD MSTORE PUSH2 0xEE3 DUP3 DUP3 PUSH2 0xE4B JUMP JUMPDEST SWAP2 POP POP PUSH1 0x60 DUP4 ADD MLOAD PUSH2 0xEF8 PUSH1 0x60 DUP7 ADD DUP3 PUSH2 0xDFA JUMP JUMPDEST POP PUSH1 0x80 DUP4 ADD MLOAD DUP5 DUP3 SUB PUSH1 0x80 DUP7 ADD MSTORE PUSH2 0xF10 DUP3 DUP3 PUSH2 0xE4B JUMP JUMPDEST SWAP2 POP POP PUSH1 0xA0 DUP4 ADD MLOAD PUSH2 0xF25 PUSH1 0xA0 DUP7 ADD DUP3 PUSH2 0xE94 JUMP JUMPDEST POP DUP1 SWAP2 POP POP SWAP3 SWAP2 POP POP JUMP JUMPDEST PUSH0 PUSH2 0xF3B DUP4 DUP4 PUSH2 0xEA3 JUMP JUMPDEST SWAP1 POP SWAP3 SWAP2 POP POP JUMP JUMPDEST PUSH0 PUSH1 0x20 DUP3 ADD SWAP1 POP SWAP2 SWAP1 POP JUMP JUMPDEST PUSH0 PUSH2 0xF59 DUP3 PUSH2 0xDD1 JUMP JUMPDEST PUSH2 0xF63 DUP2 DUP6 PUSH2 0xDDB JUMP JUMPDEST SWAP4 POP DUP4 PUSH1 0x20 DUP3 MUL DUP6 ADD PUSH2 0xF75 DUP6 PUSH2 0xDEB JUMP JUMPDEST DUP1 PUSH0 JUMPDEST DUP6 DUP2 LT ISZERO PUSH2 0xFB0 JUMPI DUP5 DUP5 SUB DUP10 MSTORE DUP2 MLOAD PUSH2 0xF91 DUP6 DUP3 PUSH2 0xF30 JUMP JUMPDEST SWAP5 POP PUSH2 0xF9C DUP4 PUSH2 0xF43 JUMP JUMPDEST SWAP3 POP PUSH1 0x20 DUP11 ADD SWAP10 POP POP PUSH1 0x1 DUP2 ADD SWAP1 POP PUSH2 0xF78 JUMP JUMPDEST POP DUP3 SWAP8 POP DUP8 SWAP6 POP POP POP POP POP POP SWAP3 SWAP2 POP POP JUMP JUMPDEST PUSH0 PUSH1 0x20 DUP3 ADD SWAP1 POP DUP2 DUP2 SUB PUSH0 DUP4 ADD MSTORE PUSH2 0xFDA DUP2 DUP5 PUSH2 0xF4F JUMP JUMPDEST SWAP1 POP SWAP3 SWAP2 POP POP JUMP JUMPDEST PUSH0 PUSH1 0x20 DUP3 DUP5 SUB SLT ISZERO PUSH2 0xFF7 JUMPI PUSH2 0xFF6 PUSH2 0xB01 JUMP JUMPDEST JUMPDEST PUSH0 PUSH2 0x1004 DUP5 DUP3 DUP6 ADD PUSH2 0xB28 JUMP JUMPDEST SWAP2 POP POP SWAP3 SWAP2 POP POP JUMP JUMPDEST PUSH2 0x1016 DUP2 PUSH2 0xB09 JUMP JUMPDEST DUP3 MSTORE POP POP JUMP JUMPDEST PUSH0 DUP3 DUP3 MSTORE PUSH1 0x20 DUP3 ADD SWAP1 POP SWAP3 SWAP2 POP POP JUMP JUMPDEST PUSH0 PUSH2 0x1036 DUP3 PUSH2 0xE09 JUMP JUMPDEST PUSH2 0x1040 DUP2 DUP6 PUSH2 0x101C JUMP JUMPDEST SWAP4 POP PUSH2 0x1050 DUP2 DUP6 PUSH1 0x20 DUP7 ADD PUSH2 0xE23 JUMP JUMPDEST PUSH2 0x1059 DUP2 PUSH2 0xB44 JUMP JUMPDEST DUP5 ADD SWAP2 POP POP SWAP3 SWAP2 POP POP JUMP JUMPDEST PUSH2 0x106D DUP2 PUSH2 0xE83 JUMP JUMPDEST DUP3 MSTORE POP POP JUMP JUMPDEST PUSH0 PUSH1 0xC0 DUP3 ADD SWAP1 POP PUSH2 0x1086 PUSH0 DUP4 ADD DUP10 PUSH2 0x100D JUMP JUMPDEST PUSH2 0x1093 PUSH1 0x20 DUP4 ADD DUP9 PUSH2 0x100D JUMP JUMPDEST DUP2 DUP2 SUB PUSH1 0x40 DUP4 ADD MSTORE PUSH2 0x10A5 DUP2 DUP8 PUSH2 0x102C JUMP JUMPDEST SWAP1 POP PUSH2 0x10B4 PUSH1 0x60 DUP4 ADD DUP7 PUSH2 0x100D JUMP JUMPDEST DUP2 DUP2 SUB PUSH1 0x80 DUP4 ADD MSTORE PUSH2 0x10C6 DUP2 DUP6 PUSH2 0x102C JUMP JUMPDEST SWAP1 POP PUSH2 0x10D5 PUSH1 0xA0 DUP4 ADD DUP5 PUSH2 0x1064 JUMP JUMPDEST SWAP8 SWAP7 POP POP POP POP POP POP POP JUMP JUMPDEST PUSH0 PUSH1 0x20 DUP3 ADD SWAP1 POP PUSH2 0x10F3 PUSH0 DUP4 ADD DUP5 PUSH2 0x100D JUMP JUMPDEST SWAP3 SWAP2 POP POP JUMP JUMPDEST PUSH32 0x4F6E6C7920546865204167656E6379204F776E65722043616E20416464206361 PUSH0 DUP3 ADD MSTORE PUSH32 0x7273212121000000000000000000000000000000000000000000000000000000 PUSH1 0x20 DUP3 ADD MSTORE POP JUMP JUMPDEST PUSH0 PUSH2 0x1153 PUSH1 0x25 DUP4 PUSH2 0x101C JUMP JUMPDEST SWAP2 POP PUSH2 0x115E DUP3 PUSH2 0x10F9 JUMP JUMPDEST PUSH1 0x40 DUP3 ADD SWAP1 POP SWAP2 SWAP1 POP JUMP JUMPDEST PUSH0 PUSH1 0x20 DUP3 ADD SWAP1 POP DUP2 DUP2 SUB PUSH0 DUP4 ADD MSTORE PUSH2 0x1180 DUP2 PUSH2 0x1147 JUMP JUMPDEST SWAP1 POP SWAP2 SWAP1 POP JUMP JUMPDEST PUSH32 0x4E487B7100000000000000000000000000000000000000000000000000000000 PUSH0 MSTORE PUSH1 0x22 PUSH1 0x4 MSTORE PUSH1 0x24 PUSH0 REVERT JUMPDEST PUSH0 PUSH1 0x2 DUP3 DIV SWAP1 POP PUSH1 0x1 DUP3 AND DUP1 PUSH2 0x11CB JUMPI PUSH1 0x7F DUP3 AND SWAP2 POP JUMPDEST PUSH1 0x20 DUP3 LT DUP2 SUB PUSH2 0x11DE JUMPI PUSH2 0x11DD PUSH2 0x1187 JUMP JUMPDEST JUMPDEST POP SWAP2 SWAP1 POP JUMP JUMPDEST PUSH0 DUP2 SWAP1 POP DUP2 PUSH0 MSTORE PUSH1 0x20 PUSH0 KECCAK256 SWAP1 POP SWAP2 SWAP1 POP JUMP JUMPDEST PUSH0 PUSH1 0x20 PUSH1 0x1F DUP4 ADD DIV SWAP1 POP SWAP2 SWAP1 POP JUMP JUMPDEST PUSH0 DUP3 DUP3 SHL SWAP1 POP SWAP3 SWAP2 POP POP JUMP JUMPDEST PUSH0 PUSH1 0x8 DUP4 MUL PUSH2 0x1240 PUSH32 0xFFFFFFFFFFFFFFFFFFFFFFFFFFFFFFFFFFFFFFFFFFFFFFFFFFFFFFFFFFFFFFFF DUP3 PUSH2 0x1205 JUMP JUMPDEST PUSH2 0x124A DUP7 DUP4 PUSH2 0x1205 JUMP JUMPDEST SWAP6 POP DUP1 NOT DUP5 AND SWAP4 POP DUP1 DUP7 AND DUP5 OR SWAP3 POP POP POP SWAP4 SWAP3 POP POP POP JUMP JUMPDEST PUSH0 DUP2 SWAP1 POP SWAP2 SWAP1 POP JUMP JUMPDEST PUSH0 PUSH2 0x1285 PUSH2 0x1280 PUSH2 0x127B DUP5 PUSH2 0xB09 JUMP JUMPDEST PUSH2 0x1262 JUMP JUMPDEST PUSH2 0xB09 JUMP JUMPDEST SWAP1 POP SWAP2 SWAP1 POP JUMP JUMPDEST PUSH0 DUP2 SWAP1 POP SWAP2 SWAP1 POP JUMP JUMPDEST PUSH2 0x129E DUP4 PUSH2 0x126B JUMP JUMPDEST PUSH2 0x12B2 PUSH2 0x12AA DUP3 PUSH2 0x128C JUMP JUMPDEST DUP5 DUP5 SLOAD PUSH2 0x1211 JUMP JUMPDEST DUP3 SSTORE POP POP POP POP JUMP JUMPDEST PUSH0 SWAP1 JUMP JUMPDEST PUSH2 0x12C6 PUSH2 0x12BA JUMP JUMPDEST PUSH2 0x12D1 DUP2 DUP5 DUP5 PUSH2 0x1295 JUMP JUMPDEST POP POP POP JUMP JUMPDEST JUMPDEST DUP2 DUP2 LT ISZERO PUSH2 0x12F4 JUMPI PUSH2 0x12E9 PUSH0 DUP3 PUSH2 0x12BE JUMP JUMPDEST PUSH1 0x1 DUP2 ADD SWAP1 POP PUSH2 0x12D7 JUMP JUMPDEST POP POP JUMP JUMPDEST PUSH1 0x1F DUP3 GT ISZERO PUSH2 0x1339 JUMPI PUSH2 0x130A DUP2 PUSH2 0x11E4 JUMP JUMPDEST PUSH2 0x1313 DUP5 PUSH2 0x11F6 JUMP JUMPDEST DUP2 ADD PUSH1 0x20 DUP6 LT ISZERO PUSH2 0x1322 JUMPI DUP2 SWAP1 POP JUMPDEST PUSH2 0x1336 PUSH2 0x132E DUP6 PUSH2 0x11F6 JUMP JUMPDEST DUP4 ADD DUP3 PUSH2 0x12D6 JUMP JUMPDEST POP POP JUMPDEST POP POP POP JUMP JUMPDEST PUSH0 DUP3 DUP3 SHR SWAP1 POP SWAP3 SWAP2 POP POP JUMP JUMPDEST PUSH0 PUSH2 0x1359 PUSH0 NOT DUP5 PUSH1 0x8 MUL PUSH2 0x133E JUMP JUMPDEST NOT DUP1 DUP4 AND SWAP2 POP POP SWAP3 SWAP2 POP POP JUMP JUMPDEST PUSH0 PUSH2 0x1371 DUP4 DUP4 PUSH2 0x134A JUMP JUMPDEST SWAP2 POP DUP3 PUSH1 0x2 MUL DUP3 OR SWAP1 POP SWAP3 SWAP2 POP POP JUMP JUMPDEST PUSH2 0x138A DUP3 PUSH2 0xE09 JUMP JUMPDEST PUSH8 0xFFFFFFFFFFFFFFFF DUP2 GT ISZERO PUSH2 0x13A3 JUMPI PUSH2 0x13A2 PUSH2 0xB54 JUMP JUMPDEST JUMPDEST PUSH2 0x13AD DUP3 SLOAD PUSH2 0x11B4 JUMP JUMPDEST PUSH2 0x13B8 DUP3 DUP3 DUP6 PUSH2 0x12F8 JUMP JUMPDEST PUSH0 PUSH1 0x20 SWAP1 POP PUSH1 0x1F DUP4 GT PUSH1 0x1 DUP2 EQ PUSH2 0x13E9 JUMPI PUSH0 DUP5 ISZERO PUSH2 0x13D7 JUMPI DUP3 DUP8 ADD MLOAD SWAP1 POP JUMPDEST PUSH2 0x13E1 DUP6 DUP3 PUSH2 0x1366 JUMP JUMPDEST DUP7 SSTORE POP PUSH2 0x1448 JUMP JUMPDEST PUSH1 0x1F NOT DUP5 AND PUSH2 0x13F7 DUP7 PUSH2 0x11E4 JUMP JUMPDEST PUSH0 JUMPDEST DUP3 DUP2 LT ISZERO PUSH2 0x141E JUMPI DUP5 DUP10 ADD MLOAD DUP3 SSTORE PUSH1 0x1 DUP3 ADD SWAP2 POP PUSH1 0x20 DUP6 ADD SWAP5 POP PUSH1 0x20 DUP2 ADD SWAP1 POP PUSH2 0x13F9 JUMP JUMPDEST DUP7 DUP4 LT ISZERO PUSH2 0x143B JUMPI DUP5 DUP10 ADD MLOAD PUSH2 0x1437 PUSH1 0x1F DUP10 AND DUP3 PUSH2 0x134A JUMP JUMPDEST DUP4 SSTORE POP JUMPDEST PUSH1 0x1 PUSH1 0x2 DUP9 MUL ADD DUP9 SSTORE POP POP POP JUMPDEST POP POP POP POP POP POP JUMP JUMPDEST PUSH2 0x1459 DUP2 PUSH2 0xC97 JUMP JUMPDEST DUP3 MSTORE POP POP JUMP JUMPDEST PUSH0 PUSH1 0xC0 DUP3 ADD SWAP1 POP PUSH2 0x1472 PUSH0 DUP4 ADD DUP10 PUSH2 0x100D JUMP JUMPDEST PUSH2 0x147F PUSH1 0x20 DUP4 ADD DUP9 PUSH2 0x100D JUMP JUMPDEST DUP2 DUP2 SUB PUSH1 0x40 DUP4 ADD MSTORE PUSH2 0x1491 DUP2 DUP8 PUSH2 0x102C JUMP JUMPDEST SWAP1 POP PUSH2 0x14A0 PUSH1 0x60 DUP4 ADD DUP7 PUSH2 0x100D JUMP JUMPDEST DUP2 DUP2 SUB PUSH1 0x80 DUP4 ADD MSTORE PUSH2 0x14B2 DUP2 DUP6 PUSH2 0x102C JUMP JUMPDEST SWAP1 POP PUSH2 0x14C1 PUSH1 0xA0 DUP4 ADD DUP5 PUSH2 0x1450 JUMP JUMPDEST SWAP8 SWAP7 POP POP POP POP POP POP POP JUMP JUMPDEST PUSH32 0x4F6E6C7920546865204167656E6379204F776E65722043616E2053656C6C2063 PUSH0 DUP3 ADD MSTORE PUSH32 0x6172732121210000000000000000000000000000000000000000000000000000 PUSH1 0x20 DUP3 ADD MSTORE POP JUMP JUMPDEST PUSH0 PUSH2 0x1526 PUSH1 0x26 DUP4 PUSH2 0x101C JUMP JUMPDEST SWAP2 POP PUSH2 0x1531 DUP3 PUSH2 0x14CC JUMP JUMPDEST PUSH1 0x40 DUP3 ADD SWAP1 POP SWAP2 SWAP1 POP JUMP JUMPDEST PUSH0 PUSH1 0x20 DUP3 ADD SWAP1 POP DUP2 DUP2 SUB PUSH0 DUP4 ADD MSTORE PUSH2 0x1553 DUP2 PUSH2 0x151A JUMP JUMPDEST SWAP1 POP SWAP2 SWAP1 POP JUMP JUMPDEST PUSH32 0x57726F6E67204361722076616C75652000000000000000000000000000000000 PUSH0 DUP3 ADD MSTORE POP JUMP JUMPDEST PUSH0 PUSH2 0x158E PUSH1 0x10 DUP4 PUSH2 0x101C JUMP JUMPDEST SWAP2 POP PUSH2 0x1599 DUP3 PUSH2 0x155A JUMP JUMPDEST PUSH1 0x20 DUP3 ADD SWAP1 POP SWAP2 SWAP1 POP JUMP JUMPDEST PUSH0 PUSH1 0x20 DUP3 ADD SWAP1 POP DUP2 DUP2 SUB PUSH0 DUP4 ADD MSTORE PUSH2 0x15BB DUP2 PUSH2 0x1582 JUMP JUMPDEST SWAP1 POP SWAP2 SWAP1 POP JUMP JUMPDEST PUSH0 PUSH1 0x60 DUP3 ADD SWAP1 POP PUSH2 0x15D5 PUSH0 DUP4 ADD DUP7 PUSH2 0x100D JUMP JUMPDEST PUSH2 0x15E2 PUSH1 0x20 DUP4 ADD DUP6 PUSH2 0x1450 JUMP JUMPDEST PUSH2 0x15EF PUSH1 0x40 DUP4 ADD DUP5 PUSH2 0x100D JUMP JUMPDEST SWAP5 SWAP4 POP POP POP POP JUMP JUMPDEST PUSH32 0x4E487B7100000000000000000000000000000000000000000000000000000000 PUSH0 MSTORE PUSH1 0x32 PUSH1 0x4 MSTORE PUSH1 0x24 PUSH0 REVERT INVALID LOG2 PUSH5 0x6970667358 0x22 SLT KECCAK256 0xB1 0xC4 0xD8 DUP16 SWAP8 PUSH1 0x21 0xBF 0xC0 0xE7 0xB9 0xDE 0xCC MSTORE 0xC9 BALANCE SWAP16 PUSH26 0x6F50E6655E71662272CF15878F3064736F6C6343000816003300 "
				},
				"gasEstimates": {
					"creation": {
						"codeDepositCost": "1144400",
						"executionCost": "25450",
						"totalCost": "1169850"
					},
					"external": {
						"AddCar(uint256,string,uint256,string,address)": "infinite",
						"AllCars()": "infinite",
						"ListCars(uint256)": "infinite",
						"MapCars(uint256)": "infinite",
						"SellCar(uint256,address,uint256)": "infinite"
					}
				},
				"methodIdentifiers": {
					"AddCar(uint256,string,uint256,string,address)": "2809069e",
					"AllCars()": "9537d6cf",
					"ListCars(uint256)": "d923b3d8",
					"MapCars(uint256)": "9abb94d4",
					"SellCar(uint256,address,uint256)": "3b3bdd10"
				}
			},
			"storageLayout": {
				"storage": [
					{
						"astId": 96,
						"contract": "contracts/Cars.sol:CarAgency",
						"label": "_CurrentCarID",
						"offset": 0,
						"slot": "0",
						"type": "t_struct(Counter)5_storage"
					},
					{
						"astId": 120,
						"contract": "contracts/Cars.sol:CarAgency",
						"label": "AgencyOwner",
						"offset": 0,
						"slot": "1",
						"type": "t_address"
					},
					{
						"astId": 134,
						"contract": "contracts/Cars.sol:CarAgency",
						"label": "MapCars",
						"offset": 0,
						"slot": "2",
						"type": "t_mapping(t_uint256,t_struct(Struct_Car)93_storage)"
					},
					{
						"astId": 137,
						"contract": "contracts/Cars.sol:CarAgency",
						"label": "ListCars",
						"offset": 0,
						"slot": "3",
						"type": "t_array(t_uint256)dyn_storage"
					}
				],
				"types": {
					"t_address": {
						"encoding": "inplace",
						"label": "address",
						"numberOfBytes": "20"
					},
					"t_address_payable": {
						"encoding": "inplace",
						"label": "address payable",
						"numberOfBytes": "20"
					},
					"t_array(t_uint256)dyn_storage": {
						"base": "t_uint256",
						"encoding": "dynamic_array",
						"label": "uint256[]",
						"numberOfBytes": "32"
					},
					"t_mapping(t_uint256,t_struct(Struct_Car)93_storage)": {
						"encoding": "mapping",
						"key": "t_uint256",
						"label": "mapping(uint256 => struct CarAgency.Struct_Car)",
						"numberOfBytes": "32",
						"value": "t_struct(Struct_Car)93_storage"
					},
					"t_string_storage": {
						"encoding": "bytes",
						"label": "string",
						"numberOfBytes": "32"
					},
					"t_struct(Counter)5_storage": {
						"encoding": "inplace",
						"label": "struct Counters.Counter",
						"members": [
							{
								"astId": 4,
								"contract": "contracts/Cars.sol:CarAgency",
								"label": "_value",
								"offset": 0,
								"slot": "0",
								"type": "t_uint256"
							}
						],
						"numberOfBytes": "32"
					},
					"t_struct(Struct_Car)93_storage": {
						"encoding": "inplace",
						"label": "struct CarAgency.Struct_Car",
						"members": [
							{
								"astId": 82,
								"contract": "contracts/Cars.sol:CarAgency",
								"label": "Car_id",
								"offset": 0,
								"slot": "0",
								"type": "t_uint256"
							},
							{
								"astId": 84,
								"contract": "contracts/Cars.sol:CarAgency",
								"label": "Car_model",
								"offset": 0,
								"slot": "1",
								"type": "t_uint256"
							},
							{
								"astId": 86,
								"contract": "contracts/Cars.sol:CarAgency",
								"label": "Car_color",
								"offset": 0,
								"slot": "2",
								"type": "t_string_storage"
							},
							{
								"astId": 88,
								"contract": "contracts/Cars.sol:CarAgency",
								"label": "Car_Price",
								"offset": 0,
								"slot": "3",
								"type": "t_uint256"
							},
							{
								"astId": 90,
								"contract": "contracts/Cars.sol:CarAgency",
								"label": "Car_Name",
								"offset": 0,
								"slot": "4",
								"type": "t_string_storage"
							},
							{
								"astId": 92,
								"contract": "contracts/Cars.sol:CarAgency",
								"label": "OwnedBy",
								"offset": 0,
								"slot": "5",
								"type": "t_address_payable"
							}
						],
						"numberOfBytes": "192"
					},
					"t_uint256": {
						"encoding": "inplace",
						"label": "uint256",
						"numberOfBytes": "32"
					}
				}
			},
			"userdoc": {
				"kind": "user",
				"methods": {},
				"version": 1
			}
		}
	}
}