{
	"data": {
		"bytecode": {
			"linkReferences": {},
			"object": "608060405234801561000f575f80fd5b503360015f6101000a81548173ffffffffffffffffffffffffffffffffffffffff021916908373ffffffffffffffffffffffffffffffffffffffff1602179055506115c58061005d5f395ff3fe608060405260043610610049575f3560e01c80633b3bdd101461004d5780639537d6cf146100695780639abb94d414610093578063d923b3d8146100d5578063e98d838314610111575b5f80fd5b61006760048036038101906100629190610aa1565b610139565b005b348015610074575f80fd5b5061007d610336565b60405161008a9190610d0e565b60405180910390f35b34801561009e575f80fd5b506100b960048036038101906100b49190610d2e565b6105c0565b6040516100cc9796959493929190610dce565b60405180910390f35b3480156100e0575f80fd5b506100fb60048036038101906100f69190610d2e565b610736565b6040516101089190610e49565b60405180910390f35b34801561011c575f80fd5b5061013760048036038101906101329190610ff3565b610756565b005b5f60025f8581526020019081526020015f2090508060050160149054906101000a900460ff1661019e576040517f08c379a0000000000000000000000000000000000000000000000000000000008152600401610195906110fe565b60405180910390fd5b818160030154146101e4576040517f08c379a00000000000000000000000000000000000000000000000000000000081526004016101db90611166565b60405180910390fd5b806005015f9054906101000a900473ffffffffffffffffffffffffffffffffffffffff1673ffffffffffffffffffffffffffffffffffffffff166108fc826003015490811502906040515f60405180830381858888f1935050505015801561024e573d5f803e3d5ffd5b508273ffffffffffffffffffffffffffffffffffffffff166108fc826003015490811502906040515f60405180830381858888f19350505050158015610296573d5f803e3d5ffd5b5082816005015f6101000a81548173ffffffffffffffffffffffffffffffffffffffff021916908373ffffffffffffffffffffffffffffffffffffffff1602179055505f8160050160146101000a81548160ff0219169083151502179055507f66262d29b39f82a7838ea037c521cd5b4821f21fb16fe0aa690dd7270e1cb971848484604051610328939291906111df565b60405180910390a150505050565b60605f60038054905090505f8167ffffffffffffffff81111561035c5761035b610e6a565b5b60405190808252806020026020018201604052801561039557816020015b6103826109b3565b81526020019060019003908161037a5790505b5090505f5b828110156105b7575f600382815481106103b7576103b6611214565b5b905f5260205f200154905060025f8281526020019081526020015f206040518060e00160405290815f8201548152602001600182015481526020016002820180546104019061126e565b80601f016020809104026020016040519081016040528092919081815260200182805461042d9061126e565b80156104785780601f1061044f57610100808354040283529160200191610478565b820191905f5260205f20905b81548152906001019060200180831161045b57829003601f168201915b505050505081526020016003820154815260200160048201805461049b9061126e565b80601f01602080910402602001604051908101604052809291908181526020018280546104c79061126e565b80156105125780601f106104e957610100808354040283529160200191610512565b820191905f5260205f20905b8154815290600101906020018083116104f557829003601f168201915b50505050508152602001600582015f9054906101000a900473ffffffffffffffffffffffffffffffffffffffff1673ffffffffffffffffffffffffffffffffffffffff1673ffffffffffffffffffffffffffffffffffffffff1681526020016005820160149054906101000a900460ff16151515158152505083838151811061059e5761059d611214565b5b602002602001018190525050808060010191505061039a565b50809250505090565b6002602052805f5260405f205f91509050805f0154908060010154908060020180546105eb9061126e565b80601f01602080910402602001604051908101604052809291908181526020018280546106179061126e565b80156106625780601f1061063957610100808354040283529160200191610662565b820191905f5260205f20905b81548152906001019060200180831161064557829003601f168201915b50505050509080600301549080600401805461067d9061126e565b80601f01602080910402602001604051908101604052809291908181526020018280546106a99061126e565b80156106f45780601f106106cb576101008083540402835291602001916106f4565b820191905f5260205f20905b8154815290600101906020018083116106d757829003601f168201915b505050505090806005015f9054906101000a900473ffffffffffffffffffffffffffffffffffffffff16908060050160149054906101000a900460ff16905087565b60038181548110610745575f80fd5b905f5260205f20015f915090505481565b60015f9054906101000a900473ffffffffffffffffffffffffffffffffffffffff1673ffffffffffffffffffffffffffffffffffffffff163373ffffffffffffffffffffffffffffffffffffffff16146107e5576040517f08c379a00000000000000000000000000000000000000000000000000000000081526004016107dc9061130e565b60405180910390fd5b6107ee5f610993565b5f6040518060e001604052806108035f6109a7565b81526020018881526020018781526020018681526020018581526020013073ffffffffffffffffffffffffffffffffffffffff1681526020016001151581525090508060025f6108525f6109a7565b81526020019081526020015f205f820151815f015560208201518160010155604082015181600201908161088691906114c0565b506060820151816003015560808201518160040190816108a691906114c0565b5060a0820151816005015f6101000a81548173ffffffffffffffffffffffffffffffffffffffff021916908373ffffffffffffffffffffffffffffffffffffffff16021790555060c08201518160050160146101000a81548160ff021916908315150217905550905050600361091b5f6109a7565b908060018154018082558091505060019003905f5260205f20015f90919091909150557fd37f8caa8cbf6ba249a853b50d83a4b0916cb52d083755767c3d4d086f9e3df46109685f6109a7565b888888883060016040516109829796959493929190610dce565b60405180910390a150505050505050565b6001815f015f828254019250508190555050565b5f815f01549050919050565b6040518060e001604052805f81526020015f8152602001606081526020015f8152602001606081526020015f73ffffffffffffffffffffffffffffffffffffffff1681526020015f151581525090565b5f604051905090565b5f80fd5b5f80fd5b5f819050919050565b610a2681610a14565b8114610a30575f80fd5b50565b5f81359050610a4181610a1d565b92915050565b5f73ffffffffffffffffffffffffffffffffffffffff82169050919050565b5f610a7082610a47565b9050919050565b610a8081610a66565b8114610a8a575f80fd5b50565b5f81359050610a9b81610a77565b92915050565b5f805f60608486031215610ab857610ab7610a0c565b5b5f610ac586828701610a33565b9350506020610ad686828701610a8d565b9250506040610ae786828701610a33565b9150509250925092565b5f81519050919050565b5f82825260208201905092915050565b5f819050602082019050919050565b610b2381610a14565b82525050565b5f81519050919050565b5f82825260208201905092915050565b5f5b83811015610b60578082015181840152602081019050610b45565b5f8484015250505050565b5f601f19601f8301169050919050565b5f610b8582610b29565b610b8f8185610b33565b9350610b9f818560208601610b43565b610ba881610b6b565b840191505092915050565b610bbc81610a66565b82525050565b5f8115159050919050565b610bd681610bc2565b82525050565b5f60e083015f830151610bf15f860182610b1a565b506020830151610c046020860182610b1a565b5060408301518482036040860152610c1c8282610b7b565b9150506060830151610c316060860182610b1a565b5060808301518482036080860152610c498282610b7b565b91505060a0830151610c5e60a0860182610bb3565b5060c0830151610c7160c0860182610bcd565b508091505092915050565b5f610c878383610bdc565b905092915050565b5f602082019050919050565b5f610ca582610af1565b610caf8185610afb565b935083602082028501610cc185610b0b565b805f5b85811015610cfc5784840389528151610cdd8582610c7c565b9450610ce883610c8f565b925060208a01995050600181019050610cc4565b50829750879550505050505092915050565b5f6020820190508181035f830152610d268184610c9b565b905092915050565b5f60208284031215610d4357610d42610a0c565b5b5f610d5084828501610a33565b91505092915050565b610d6281610a14565b82525050565b5f82825260208201905092915050565b5f610d8282610b29565b610d8c8185610d68565b9350610d9c818560208601610b43565b610da581610b6b565b840191505092915050565b610db981610a66565b82525050565b610dc881610bc2565b82525050565b5f60e082019050610de15f83018a610d59565b610dee6020830189610d59565b8181036040830152610e008188610d78565b9050610e0f6060830187610d59565b8181036080830152610e218186610d78565b9050610e3060a0830185610db0565b610e3d60c0830184610dbf565b98975050505050505050565b5f602082019050610e5c5f830184610d59565b92915050565b5f80fd5b5f80fd5b7f4e487b71000000000000000000000000000000000000000000000000000000005f52604160045260245ffd5b610ea082610b6b565b810181811067ffffffffffffffff82111715610ebf57610ebe610e6a565b5b80604052505050565b5f610ed1610a03565b9050610edd8282610e97565b919050565b5f67ffffffffffffffff821115610efc57610efb610e6a565b5b610f0582610b6b565b9050602081019050919050565b828183375f83830152505050565b5f610f32610f2d84610ee2565b610ec8565b905082815260208101848484011115610f4e57610f4d610e66565b5b610f59848285610f12565b509392505050565b5f82601f830112610f7557610f74610e62565b5b8135610f85848260208601610f20565b91505092915050565b5f610f9882610a47565b9050919050565b610fa881610f8e565b8114610fb2575f80fd5b50565b5f81359050610fc381610f9f565b92915050565b610fd281610bc2565b8114610fdc575f80fd5b50565b5f81359050610fed81610fc9565b92915050565b5f805f805f8060c0878903121561100d5761100c610a0c565b5b5f61101a89828a01610a33565b965050602087013567ffffffffffffffff81111561103b5761103a610a10565b5b61104789828a01610f61565b955050604061105889828a01610a33565b945050606087013567ffffffffffffffff81111561107957611078610a10565b5b61108589828a01610f61565b935050608061109689828a01610fb5565b92505060a06110a789828a01610fdf565b9150509295509295509295565b7f43617220697320616c726561647920536f6c64000000000000000000000000005f82015250565b5f6110e8601383610d68565b91506110f3826110b4565b602082019050919050565b5f6020820190508181035f830152611115816110dc565b9050919050565b7f57726f6e672043617220707269636500000000000000000000000000000000005f82015250565b5f611150600f83610d68565b915061115b8261111c565b602082019050919050565b5f6020820190508181035f83015261117d81611144565b9050919050565b5f819050919050565b5f6111a76111a261119d84610a47565b611184565b610a47565b9050919050565b5f6111b88261118d565b9050919050565b5f6111c9826111ae565b9050919050565b6111d9816111bf565b82525050565b5f6060820190506111f25f830186610d59565b6111ff60208301856111d0565b61120c6040830184610d59565b949350505050565b7f4e487b71000000000000000000000000000000000000000000000000000000005f52603260045260245ffd5b7f4e487b71000000000000000000000000000000000000000000000000000000005f52602260045260245ffd5b5f600282049050600182168061128557607f821691505b60208210810361129857611297611241565b5b50919050565b7f4f6e6c7920546865204167656e6379204f776e65722043616e204164642063615f8201527f7273212121000000000000000000000000000000000000000000000000000000602082015250565b5f6112f8602583610d68565b91506113038261129e565b604082019050919050565b5f6020820190508181035f830152611325816112ec565b9050919050565b5f819050815f5260205f209050919050565b5f6020601f8301049050919050565b5f82821b905092915050565b5f600883026113887fffffffffffffffffffffffffffffffffffffffffffffffffffffffffffffffff8261134d565b611392868361134d565b95508019841693508086168417925050509392505050565b5f6113c46113bf6113ba84610a14565b611184565b610a14565b9050919050565b5f819050919050565b6113dd836113aa565b6113f16113e9826113cb565b848454611359565b825550505050565b5f90565b6114056113f9565b6114108184846113d4565b505050565b5b81811015611433576114285f826113fd565b600181019050611416565b5050565b601f821115611478576114498161132c565b6114528461133e565b81016020851015611461578190505b61147561146d8561133e565b830182611415565b50505b505050565b5f82821c905092915050565b5f6114985f198460080261147d565b1980831691505092915050565b5f6114b08383611489565b9150826002028217905092915050565b6114c982610b29565b67ffffffffffffffff8111156114e2576114e1610e6a565b5b6114ec825461126e565b6114f7828285611437565b5f60209050601f831160018114611528575f8415611516578287015190505b61152085826114a5565b865550611587565b601f1984166115368661132c565b5f5b8281101561155d57848901518255600182019150602085019450602081019050611538565b8683101561157a5784890151611576601f891682611489565b8355505b6001600288020188555050505b50505050505056fea2646970667358221220a545abf89d69019da27e91ca6d43eaccaa3bd1a7acf8544f3d9103ef42c99c2f64736f6c63430008160033",
			"opcodes": "PUSH1 0x80 PUSH1 0x40 MSTORE CALLVALUE DUP1 ISZERO PUSH2 0xF JUMPI PUSH0 DUP1 REVERT JUMPDEST POP CALLER PUSH1 0x1 PUSH0 PUSH2 0x100 EXP DUP2 SLOAD DUP2 PUSH20 0xFFFFFFFFFFFFFFFFFFFFFFFFFFFFFFFFFFFFFFFF MUL NOT AND SWAP1 DUP4 PUSH20 0xFFFFFFFFFFFFFFFFFFFFFFFFFFFFFFFFFFFFFFFF AND MUL OR SWAP1 SSTORE POP PUSH2 0x15C5 DUP1 PUSH2 0x5D PUSH0 CODECOPY PUSH0 RETURN INVALID PUSH1 0x80 PUSH1 0x40 MSTORE PUSH1 0x4 CALLDATASIZE LT PUSH2 0x49 JUMPI PUSH0 CALLDATALOAD PUSH1 0xE0 SHR DUP1 PUSH4 0x3B3BDD10 EQ PUSH2 0x4D JUMPI DUP1 PUSH4 0x9537D6CF EQ PUSH2 0x69 JUMPI DUP1 PUSH4 0x9ABB94D4 EQ PUSH2 0x93 JUMPI DUP1 PUSH4 0xD923B3D8 EQ PUSH2 0xD5 JUMPI DUP1 PUSH4 0xE98D8383 EQ PUSH2 0x111 JUMPI JUMPDEST PUSH0 DUP1 REVERT JUMPDEST PUSH2 0x67 PUSH1 0x4 DUP1 CALLDATASIZE SUB DUP2 ADD SWAP1 PUSH2 0x62 SWAP2 SWAP1 PUSH2 0xAA1 JUMP JUMPDEST PUSH2 0x139 JUMP JUMPDEST STOP JUMPDEST CALLVALUE DUP1 ISZERO PUSH2 0x74 JUMPI PUSH0 DUP1 REVERT JUMPDEST POP PUSH2 0x7D PUSH2 0x336 JUMP JUMPDEST PUSH1 0x40 MLOAD PUSH2 0x8A SWAP2 SWAP1 PUSH2 0xD0E JUMP JUMPDEST PUSH1 0x40 MLOAD DUP1 SWAP2 SUB SWAP1 RETURN JUMPDEST CALLVALUE DUP1 ISZERO PUSH2 0x9E JUMPI PUSH0 DUP1 REVERT JUMPDEST POP PUSH2 0xB9 PUSH1 0x4 DUP1 CALLDATASIZE SUB DUP2 ADD SWAP1 PUSH2 0xB4 SWAP2 SWAP1 PUSH2 0xD2E JUMP JUMPDEST PUSH2 0x5C0 JUMP JUMPDEST PUSH1 0x40 MLOAD PUSH2 0xCC SWAP8 SWAP7 SWAP6 SWAP5 SWAP4 SWAP3 SWAP2 SWAP1 PUSH2 0xDCE JUMP JUMPDEST PUSH1 0x40 MLOAD DUP1 SWAP2 SUB SWAP1 RETURN JUMPDEST CALLVALUE DUP1 ISZERO PUSH2 0xE0 JUMPI PUSH0 DUP1 REVERT JUMPDEST POP PUSH2 0xFB PUSH1 0x4 DUP1 CALLDATASIZE SUB DUP2 ADD SWAP1 PUSH2 0xF6 SWAP2 SWAP1 PUSH2 0xD2E JUMP JUMPDEST PUSH2 0x736 JUMP JUMPDEST PUSH1 0x40 MLOAD PUSH2 0x108 SWAP2 SWAP1 PUSH2 0xE49 JUMP JUMPDEST PUSH1 0x40 MLOAD DUP1 SWAP2 SUB SWAP1 RETURN JUMPDEST CALLVALUE DUP1 ISZERO PUSH2 0x11C JUMPI PUSH0 DUP1 REVERT JUMPDEST POP PUSH2 0x137 PUSH1 0x4 DUP1 CALLDATASIZE SUB DUP2 ADD SWAP1 PUSH2 0x132 SWAP2 SWAP1 PUSH2 0xFF3 JUMP JUMPDEST PUSH2 0x756 JUMP JUMPDEST STOP JUMPDEST PUSH0 PUSH1 0x2 PUSH0 DUP6 DUP2 MSTORE PUSH1 0x20 ADD SWAP1 DUP2 MSTORE PUSH1 0x20 ADD PUSH0 KECCAK256 SWAP1 POP DUP1 PUSH1 0x5 ADD PUSH1 0x14 SWAP1 SLOAD SWAP1 PUSH2 0x100 EXP SWAP1 DIV PUSH1 0xFF AND PUSH2 0x19E JUMPI PUSH1 0x40 MLOAD PUSH32 0x8C379A000000000000000000000000000000000000000000000000000000000 DUP2 MSTORE PUSH1 0x4 ADD PUSH2 0x195 SWAP1 PUSH2 0x10FE JUMP JUMPDEST PUSH1 0x40 MLOAD DUP1 SWAP2 SUB SWAP1 REVERT JUMPDEST DUP2 DUP2 PUSH1 0x3 ADD SLOAD EQ PUSH2 0x1E4 JUMPI PUSH1 0x40 MLOAD PUSH32 0x8C379A000000000000000000000000000000000000000000000000000000000 DUP2 MSTORE PUSH1 0x4 ADD PUSH2 0x1DB SWAP1 PUSH2 0x1166 JUMP JUMPDEST PUSH1 0x40 MLOAD DUP1 SWAP2 SUB SWAP1 REVERT JUMPDEST DUP1 PUSH1 0x5 ADD PUSH0 SWAP1 SLOAD SWAP1 PUSH2 0x100 EXP SWAP1 DIV PUSH20 0xFFFFFFFFFFFFFFFFFFFFFFFFFFFFFFFFFFFFFFFF AND PUSH20 0xFFFFFFFFFFFFFFFFFFFFFFFFFFFFFFFFFFFFFFFF AND PUSH2 0x8FC DUP3 PUSH1 0x3 ADD SLOAD SWAP1 DUP2 ISZERO MUL SWAP1 PUSH1 0x40 MLOAD PUSH0 PUSH1 0x40 MLOAD DUP1 DUP4 SUB DUP2 DUP6 DUP9 DUP9 CALL SWAP4 POP POP POP POP ISZERO DUP1 ISZERO PUSH2 0x24E JUMPI RETURNDATASIZE PUSH0 DUP1 RETURNDATACOPY RETURNDATASIZE PUSH0 REVERT JUMPDEST POP DUP3 PUSH20 0xFFFFFFFFFFFFFFFFFFFFFFFFFFFFFFFFFFFFFFFF AND PUSH2 0x8FC DUP3 PUSH1 0x3 ADD SLOAD SWAP1 DUP2 ISZERO MUL SWAP1 PUSH1 0x40 MLOAD PUSH0 PUSH1 0x40 MLOAD DUP1 DUP4 SUB DUP2 DUP6 DUP9 DUP9 CALL SWAP4 POP POP POP POP ISZERO DUP1 ISZERO PUSH2 0x296 JUMPI RETURNDATASIZE PUSH0 DUP1 RETURNDATACOPY RETURNDATASIZE PUSH0 REVERT JUMPDEST POP DUP3 DUP2 PUSH1 0x5 ADD PUSH0 PUSH2 0x100 EXP DUP2 SLOAD DUP2 PUSH20 0xFFFFFFFFFFFFFFFFFFFFFFFFFFFFFFFFFFFFFFFF MUL NOT AND SWAP1 DUP4 PUSH20 0xFFFFFFFFFFFFFFFFFFFFFFFFFFFFFFFFFFFFFFFF AND MUL OR SWAP1 SSTORE POP PUSH0 DUP2 PUSH1 0x5 ADD PUSH1 0x14 PUSH2 0x100 EXP DUP2 SLOAD DUP2 PUSH1 0xFF MUL NOT AND SWAP1 DUP4 ISZERO ISZERO MUL OR SWAP1 SSTORE POP PUSH32 0x66262D29B39F82A7838EA037C521CD5B4821F21FB16FE0AA690DD7270E1CB971 DUP5 DUP5 DUP5 PUSH1 0x40 MLOAD PUSH2 0x328 SWAP4 SWAP3 SWAP2 SWAP1 PUSH2 0x11DF JUMP JUMPDEST PUSH1 0x40 MLOAD DUP1 SWAP2 SUB SWAP1 LOG1 POP POP POP POP JUMP JUMPDEST PUSH1 0x60 PUSH0 PUSH1 0x3 DUP1 SLOAD SWAP1 POP SWAP1 POP PUSH0 DUP2 PUSH8 0xFFFFFFFFFFFFFFFF DUP2 GT ISZERO PUSH2 0x35C JUMPI PUSH2 0x35B PUSH2 0xE6A JUMP JUMPDEST JUMPDEST PUSH1 0x40 MLOAD SWAP1 DUP1 DUP3 MSTORE DUP1 PUSH1 0x20 MUL PUSH1 0x20 ADD DUP3 ADD PUSH1 0x40 MSTORE DUP1 ISZERO PUSH2 0x395 JUMPI DUP2 PUSH1 0x20 ADD JUMPDEST PUSH2 0x382 PUSH2 0x9B3 JUMP JUMPDEST DUP2 MSTORE PUSH1 0x20 ADD SWAP1 PUSH1 0x1 SWAP1 SUB SWAP1 DUP2 PUSH2 0x37A JUMPI SWAP1 POP JUMPDEST POP SWAP1 POP PUSH0 JUMPDEST DUP3 DUP2 LT ISZERO PUSH2 0x5B7 JUMPI PUSH0 PUSH1 0x3 DUP3 DUP2 SLOAD DUP2 LT PUSH2 0x3B7 JUMPI PUSH2 0x3B6 PUSH2 0x1214 JUMP JUMPDEST JUMPDEST SWAP1 PUSH0 MSTORE PUSH1 0x20 PUSH0 KECCAK256 ADD SLOAD SWAP1 POP PUSH1 0x2 PUSH0 DUP3 DUP2 MSTORE PUSH1 0x20 ADD SWAP1 DUP2 MSTORE PUSH1 0x20 ADD PUSH0 KECCAK256 PUSH1 0x40 MLOAD DUP1 PUSH1 0xE0 ADD PUSH1 0x40 MSTORE SWAP1 DUP2 PUSH0 DUP3 ADD SLOAD DUP2 MSTORE PUSH1 0x20 ADD PUSH1 0x1 DUP3 ADD SLOAD DUP2 MSTORE PUSH1 0x20 ADD PUSH1 0x2 DUP3 ADD DUP1 SLOAD PUSH2 0x401 SWAP1 PUSH2 0x126E JUMP JUMPDEST DUP1 PUSH1 0x1F ADD PUSH1 0x20 DUP1 SWAP2 DIV MUL PUSH1 0x20 ADD PUSH1 0x40 MLOAD SWAP1 DUP2 ADD PUSH1 0x40 MSTORE DUP1 SWAP3 SWAP2 SWAP1 DUP2 DUP2 MSTORE PUSH1 0x20 ADD DUP3 DUP1 SLOAD PUSH2 0x42D SWAP1 PUSH2 0x126E JUMP JUMPDEST DUP1 ISZERO PUSH2 0x478 JUMPI DUP1 PUSH1 0x1F LT PUSH2 0x44F JUMPI PUSH2 0x100 DUP1 DUP4 SLOAD DIV MUL DUP4 MSTORE SWAP2 PUSH1 0x20 ADD SWAP2 PUSH2 0x478 JUMP JUMPDEST DUP3 ADD SWAP2 SWAP1 PUSH0 MSTORE PUSH1 0x20 PUSH0 KECCAK256 SWAP1 JUMPDEST DUP2 SLOAD DUP2 MSTORE SWAP1 PUSH1 0x1 ADD SWAP1 PUSH1 0x20 ADD DUP1 DUP4 GT PUSH2 0x45B JUMPI DUP3 SWAP1 SUB PUSH1 0x1F AND DUP3 ADD SWAP2 JUMPDEST POP POP POP POP POP DUP2 MSTORE PUSH1 0x20 ADD PUSH1 0x3 DUP3 ADD SLOAD DUP2 MSTORE PUSH1 0x20 ADD PUSH1 0x4 DUP3 ADD DUP1 SLOAD PUSH2 0x49B SWAP1 PUSH2 0x126E JUMP JUMPDEST DUP1 PUSH1 0x1F ADD PUSH1 0x20 DUP1 SWAP2 DIV MUL PUSH1 0x20 ADD PUSH1 0x40 MLOAD SWAP1 DUP2 ADD PUSH1 0x40 MSTORE DUP1 SWAP3 SWAP2 SWAP1 DUP2 DUP2 MSTORE PUSH1 0x20 ADD DUP3 DUP1 SLOAD PUSH2 0x4C7 SWAP1 PUSH2 0x126E JUMP JUMPDEST DUP1 ISZERO PUSH2 0x512 JUMPI DUP1 PUSH1 0x1F LT PUSH2 0x4E9 JUMPI PUSH2 0x100 DUP1 DUP4 SLOAD DIV MUL DUP4 MSTORE SWAP2 PUSH1 0x20 ADD SWAP2 PUSH2 0x512 JUMP JUMPDEST DUP3 ADD SWAP2 SWAP1 PUSH0 MSTORE PUSH1 0x20 PUSH0 KECCAK256 SWAP1 JUMPDEST DUP2 SLOAD DUP2 MSTORE SWAP1 PUSH1 0x1 ADD SWAP1 PUSH1 0x20 ADD DUP1 DUP4 GT PUSH2 0x4F5 JUMPI DUP3 SWAP1 SUB PUSH1 0x1F AND DUP3 ADD SWAP2 JUMPDEST POP POP POP POP POP DUP2 MSTORE PUSH1 0x20 ADD PUSH1 0x5 DUP3 ADD PUSH0 SWAP1 SLOAD SWAP1 PUSH2 0x100 EXP SWAP1 DIV PUSH20 0xFFFFFFFFFFFFFFFFFFFFFFFFFFFFFFFFFFFFFFFF AND PUSH20 0xFFFFFFFFFFFFFFFFFFFFFFFFFFFFFFFFFFFFFFFF AND PUSH20 0xFFFFFFFFFFFFFFFFFFFFFFFFFFFFFFFFFFFFFFFF AND DUP2 MSTORE PUSH1 0x20 ADD PUSH1 0x5 DUP3 ADD PUSH1 0x14 SWAP1 SLOAD SWAP1 PUSH2 0x100 EXP SWAP1 DIV PUSH1 0xFF AND ISZERO ISZERO ISZERO ISZERO DUP2 MSTORE POP POP DUP4 DUP4 DUP2 MLOAD DUP2 LT PUSH2 0x59E JUMPI PUSH2 0x59D PUSH2 0x1214 JUMP JUMPDEST JUMPDEST PUSH1 0x20 MUL PUSH1 0x20 ADD ADD DUP2 SWAP1 MSTORE POP POP DUP1 DUP1 PUSH1 0x1 ADD SWAP2 POP POP PUSH2 0x39A JUMP JUMPDEST POP DUP1 SWAP3 POP POP POP SWAP1 JUMP JUMPDEST PUSH1 0x2 PUSH1 0x20 MSTORE DUP1 PUSH0 MSTORE PUSH1 0x40 PUSH0 KECCAK256 PUSH0 SWAP2 POP SWAP1 POP DUP1 PUSH0 ADD SLOAD SWAP1 DUP1 PUSH1 0x1 ADD SLOAD SWAP1 DUP1 PUSH1 0x2 ADD DUP1 SLOAD PUSH2 0x5EB SWAP1 PUSH2 0x126E JUMP JUMPDEST DUP1 PUSH1 0x1F ADD PUSH1 0x20 DUP1 SWAP2 DIV MUL PUSH1 0x20 ADD PUSH1 0x40 MLOAD SWAP1 DUP2 ADD PUSH1 0x40 MSTORE DUP1 SWAP3 SWAP2 SWAP1 DUP2 DUP2 MSTORE PUSH1 0x20 ADD DUP3 DUP1 SLOAD PUSH2 0x617 SWAP1 PUSH2 0x126E JUMP JUMPDEST DUP1 ISZERO PUSH2 0x662 JUMPI DUP1 PUSH1 0x1F LT PUSH2 0x639 JUMPI PUSH2 0x100 DUP1 DUP4 SLOAD DIV MUL DUP4 MSTORE SWAP2 PUSH1 0x20 ADD SWAP2 PUSH2 0x662 JUMP JUMPDEST DUP3 ADD SWAP2 SWAP1 PUSH0 MSTORE PUSH1 0x20 PUSH0 KECCAK256 SWAP1 JUMPDEST DUP2 SLOAD DUP2 MSTORE SWAP1 PUSH1 0x1 ADD SWAP1 PUSH1 0x20 ADD DUP1 DUP4 GT PUSH2 0x645 JUMPI DUP3 SWAP1 SUB PUSH1 0x1F AND DUP3 ADD SWAP2 JUMPDEST POP POP POP POP POP SWAP1 DUP1 PUSH1 0x3 ADD SLOAD SWAP1 DUP1 PUSH1 0x4 ADD DUP1 SLOAD PUSH2 0x67D SWAP1 PUSH2 0x126E JUMP JUMPDEST DUP1 PUSH1 0x1F ADD PUSH1 0x20 DUP1 SWAP2 DIV MUL PUSH1 0x20 ADD PUSH1 0x40 MLOAD SWAP1 DUP2 ADD PUSH1 0x40 MSTORE DUP1 SWAP3 SWAP2 SWAP1 DUP2 DUP2 MSTORE PUSH1 0x20 ADD DUP3 DUP1 SLOAD PUSH2 0x6A9 SWAP1 PUSH2 0x126E JUMP JUMPDEST DUP1 ISZERO PUSH2 0x6F4 JUMPI DUP1 PUSH1 0x1F LT PUSH2 0x6CB JUMPI PUSH2 0x100 DUP1 DUP4 SLOAD DIV MUL DUP4 MSTORE SWAP2 PUSH1 0x20 ADD SWAP2 PUSH2 0x6F4 JUMP JUMPDEST DUP3 ADD SWAP2 SWAP1 PUSH0 MSTORE PUSH1 0x20 PUSH0 KECCAK256 SWAP1 JUMPDEST DUP2 SLOAD DUP2 MSTORE SWAP1 PUSH1 0x1 ADD SWAP1 PUSH1 0x20 ADD DUP1 DUP4 GT PUSH2 0x6D7 JUMPI DUP3 SWAP1 SUB PUSH1 0x1F AND DUP3 ADD SWAP2 JUMPDEST POP POP POP POP POP SWAP1 DUP1 PUSH1 0x5 ADD PUSH0 SWAP1 SLOAD SWAP1 PUSH2 0x100 EXP SWAP1 DIV PUSH20 0xFFFFFFFFFFFFFFFFFFFFFFFFFFFFFFFFFFFFFFFF AND SWAP1 DUP1 PUSH1 0x5 ADD PUSH1 0x14 SWAP1 SLOAD SWAP1 PUSH2 0x100 EXP SWAP1 DIV PUSH1 0xFF AND SWAP1 POP DUP8 JUMP JUMPDEST PUSH1 0x3 DUP2 DUP2 SLOAD DUP2 LT PUSH2 0x745 JUMPI PUSH0 DUP1 REVERT JUMPDEST SWAP1 PUSH0 MSTORE PUSH1 0x20 PUSH0 KECCAK256 ADD PUSH0 SWAP2 POP SWAP1 POP SLOAD DUP2 JUMP JUMPDEST PUSH1 0x1 PUSH0 SWAP1 SLOAD SWAP1 PUSH2 0x100 EXP SWAP1 DIV PUSH20 0xFFFFFFFFFFFFFFFFFFFFFFFFFFFFFFFFFFFFFFFF AND PUSH20 0xFFFFFFFFFFFFFFFFFFFFFFFFFFFFFFFFFFFFFFFF AND CALLER PUSH20 0xFFFFFFFFFFFFFFFFFFFFFFFFFFFFFFFFFFFFFFFF AND EQ PUSH2 0x7E5 JUMPI PUSH1 0x40 MLOAD PUSH32 0x8C379A000000000000000000000000000000000000000000000000000000000 DUP2 MSTORE PUSH1 0x4 ADD PUSH2 0x7DC SWAP1 PUSH2 0x130E JUMP JUMPDEST PUSH1 0x40 MLOAD DUP1 SWAP2 SUB SWAP1 REVERT JUMPDEST PUSH2 0x7EE PUSH0 PUSH2 0x993 JUMP JUMPDEST PUSH0 PUSH1 0x40 MLOAD DUP1 PUSH1 0xE0 ADD PUSH1 0x40 MSTORE DUP1 PUSH2 0x803 PUSH0 PUSH2 0x9A7 JUMP JUMPDEST DUP2 MSTORE PUSH1 0x20 ADD DUP9 DUP2 MSTORE PUSH1 0x20 ADD DUP8 DUP2 MSTORE PUSH1 0x20 ADD DUP7 DUP2 MSTORE PUSH1 0x20 ADD DUP6 DUP2 MSTORE PUSH1 0x20 ADD ADDRESS PUSH20 0xFFFFFFFFFFFFFFFFFFFFFFFFFFFFFFFFFFFFFFFF AND DUP2 MSTORE PUSH1 0x20 ADD PUSH1 0x1 ISZERO ISZERO DUP2 MSTORE POP SWAP1 POP DUP1 PUSH1 0x2 PUSH0 PUSH2 0x852 PUSH0 PUSH2 0x9A7 JUMP JUMPDEST DUP2 MSTORE PUSH1 0x20 ADD SWAP1 DUP2 MSTORE PUSH1 0x20 ADD PUSH0 KECCAK256 PUSH0 DUP3 ADD MLOAD DUP2 PUSH0 ADD SSTORE PUSH1 0x20 DUP3 ADD MLOAD DUP2 PUSH1 0x1 ADD SSTORE PUSH1 0x40 DUP3 ADD MLOAD DUP2 PUSH1 0x2 ADD SWAP1 DUP2 PUSH2 0x886 SWAP2 SWAP1 PUSH2 0x14C0 JUMP JUMPDEST POP PUSH1 0x60 DUP3 ADD MLOAD DUP2 PUSH1 0x3 ADD SSTORE PUSH1 0x80 DUP3 ADD MLOAD DUP2 PUSH1 0x4 ADD SWAP1 DUP2 PUSH2 0x8A6 SWAP2 SWAP1 PUSH2 0x14C0 JUMP JUMPDEST POP PUSH1 0xA0 DUP3 ADD MLOAD DUP2 PUSH1 0x5 ADD PUSH0 PUSH2 0x100 EXP DUP2 SLOAD DUP2 PUSH20 0xFFFFFFFFFFFFFFFFFFFFFFFFFFFFFFFFFFFFFFFF MUL NOT AND SWAP1 DUP4 PUSH20 0xFFFFFFFFFFFFFFFFFFFFFFFFFFFFFFFFFFFFFFFF AND MUL OR SWAP1 SSTORE POP PUSH1 0xC0 DUP3 ADD MLOAD DUP2 PUSH1 0x5 ADD PUSH1 0x14 PUSH2 0x100 EXP DUP2 SLOAD DUP2 PUSH1 0xFF MUL NOT AND SWAP1 DUP4 ISZERO ISZERO MUL OR SWAP1 SSTORE POP SWAP1 POP POP PUSH1 0x3 PUSH2 0x91B PUSH0 PUSH2 0x9A7 JUMP JUMPDEST SWAP1 DUP1 PUSH1 0x1 DUP2 SLOAD ADD DUP1 DUP3 SSTORE DUP1 SWAP2 POP POP PUSH1 0x1 SWAP1 SUB SWAP1 PUSH0 MSTORE PUSH1 0x20 PUSH0 KECCAK256 ADD PUSH0 SWAP1 SWAP2 SWAP1 SWAP2 SWAP1 SWAP2 POP SSTORE PUSH32 0xD37F8CAA8CBF6BA249A853B50D83A4B0916CB52D083755767C3D4D086F9E3DF4 PUSH2 0x968 PUSH0 PUSH2 0x9A7 JUMP JUMPDEST DUP9 DUP9 DUP9 DUP9 ADDRESS PUSH1 0x1 PUSH1 0x40 MLOAD PUSH2 0x982 SWAP8 SWAP7 SWAP6 SWAP5 SWAP4 SWAP3 SWAP2 SWAP1 PUSH2 0xDCE JUMP JUMPDEST PUSH1 0x40 MLOAD DUP1 SWAP2 SUB SWAP1 LOG1 POP POP POP POP POP POP POP JUMP JUMPDEST PUSH1 0x1 DUP2 PUSH0 ADD PUSH0 DUP3 DUP3 SLOAD ADD SWAP3 POP POP DUP2 SWAP1 SSTORE POP POP JUMP JUMPDEST PUSH0 DUP2 PUSH0 ADD SLOAD SWAP1 POP SWAP2 SWAP1 POP JUMP JUMPDEST PUSH1 0x40 MLOAD DUP1 PUSH1 0xE0 ADD PUSH1 0x40 MSTORE DUP1 PUSH0 DUP2 MSTORE PUSH1 0x20 ADD PUSH0 DUP2 MSTORE PUSH1 0x20 ADD PUSH1 0x60 DUP2 MSTORE PUSH1 0x20 ADD PUSH0 DUP2 MSTORE PUSH1 0x20 ADD PUSH1 0x60 DUP2 MSTORE PUSH1 0x20 ADD PUSH0 PUSH20 0xFFFFFFFFFFFFFFFFFFFFFFFFFFFFFFFFFFFFFFFF AND DUP2 MSTORE PUSH1 0x20 ADD PUSH0 ISZERO ISZERO DUP2 MSTORE POP SWAP1 JUMP JUMPDEST PUSH0 PUSH1 0x40 MLOAD SWAP1 POP SWAP1 JUMP JUMPDEST PUSH0 DUP1 REVERT JUMPDEST PUSH0 DUP1 REVERT JUMPDEST PUSH0 DUP2 SWAP1 POP SWAP2 SWAP1 POP JUMP JUMPDEST PUSH2 0xA26 DUP2 PUSH2 0xA14 JUMP JUMPDEST DUP2 EQ PUSH2 0xA30 JUMPI PUSH0 DUP1 REVERT JUMPDEST POP JUMP JUMPDEST PUSH0 DUP2 CALLDATALOAD SWAP1 POP PUSH2 0xA41 DUP2 PUSH2 0xA1D JUMP JUMPDEST SWAP3 SWAP2 POP POP JUMP JUMPDEST PUSH0 PUSH20 0xFFFFFFFFFFFFFFFFFFFFFFFFFFFFFFFFFFFFFFFF DUP3 AND SWAP1 POP SWAP2 SWAP1 POP JUMP JUMPDEST PUSH0 PUSH2 0xA70 DUP3 PUSH2 0xA47 JUMP JUMPDEST SWAP1 POP SWAP2 SWAP1 POP JUMP JUMPDEST PUSH2 0xA80 DUP2 PUSH2 0xA66 JUMP JUMPDEST DUP2 EQ PUSH2 0xA8A JUMPI PUSH0 DUP1 REVERT JUMPDEST POP JUMP JUMPDEST PUSH0 DUP2 CALLDATALOAD SWAP1 POP PUSH2 0xA9B DUP2 PUSH2 0xA77 JUMP JUMPDEST SWAP3 SWAP2 POP POP JUMP JUMPDEST PUSH0 DUP1 PUSH0 PUSH1 0x60 DUP5 DUP7 SUB SLT ISZERO PUSH2 0xAB8 JUMPI PUSH2 0xAB7 PUSH2 0xA0C JUMP JUMPDEST JUMPDEST PUSH0 PUSH2 0xAC5 DUP7 DUP3 DUP8 ADD PUSH2 0xA33 JUMP JUMPDEST SWAP4 POP POP PUSH1 0x20 PUSH2 0xAD6 DUP7 DUP3 DUP8 ADD PUSH2 0xA8D JUMP JUMPDEST SWAP3 POP POP PUSH1 0x40 PUSH2 0xAE7 DUP7 DUP3 DUP8 ADD PUSH2 0xA33 JUMP JUMPDEST SWAP2 POP POP SWAP3 POP SWAP3 POP SWAP3 JUMP JUMPDEST PUSH0 DUP2 MLOAD SWAP1 POP SWAP2 SWAP1 POP JUMP JUMPDEST PUSH0 DUP3 DUP3 MSTORE PUSH1 0x20 DUP3 ADD SWAP1 POP SWAP3 SWAP2 POP POP JUMP JUMPDEST PUSH0 DUP2 SWAP1 POP PUSH1 0x20 DUP3 ADD SWAP1 POP SWAP2 SWAP1 POP JUMP JUMPDEST PUSH2 0xB23 DUP2 PUSH2 0xA14 JUMP JUMPDEST DUP3 MSTORE POP POP JUMP JUMPDEST PUSH0 DUP2 MLOAD SWAP1 POP SWAP2 SWAP1 POP JUMP JUMPDEST PUSH0 DUP3 DUP3 MSTORE PUSH1 0x20 DUP3 ADD SWAP1 POP SWAP3 SWAP2 POP POP JUMP JUMPDEST PUSH0 JUMPDEST DUP4 DUP2 LT ISZERO PUSH2 0xB60 JUMPI DUP1 DUP3 ADD MLOAD DUP2 DUP5 ADD MSTORE PUSH1 0x20 DUP2 ADD SWAP1 POP PUSH2 0xB45 JUMP JUMPDEST PUSH0 DUP5 DUP5 ADD MSTORE POP POP POP POP JUMP JUMPDEST PUSH0 PUSH1 0x1F NOT PUSH1 0x1F DUP4 ADD AND SWAP1 POP SWAP2 SWAP1 POP JUMP JUMPDEST PUSH0 PUSH2 0xB85 DUP3 PUSH2 0xB29 JUMP JUMPDEST PUSH2 0xB8F DUP2 DUP6 PUSH2 0xB33 JUMP JUMPDEST SWAP4 POP PUSH2 0xB9F DUP2 DUP6 PUSH1 0x20 DUP7 ADD PUSH2 0xB43 JUMP JUMPDEST PUSH2 0xBA8 DUP2 PUSH2 0xB6B JUMP JUMPDEST DUP5 ADD SWAP2 POP POP SWAP3 SWAP2 POP POP JUMP JUMPDEST PUSH2 0xBBC DUP2 PUSH2 0xA66 JUMP JUMPDEST DUP3 MSTORE POP POP JUMP JUMPDEST PUSH0 DUP2 ISZERO ISZERO SWAP1 POP SWAP2 SWAP1 POP JUMP JUMPDEST PUSH2 0xBD6 DUP2 PUSH2 0xBC2 JUMP JUMPDEST DUP3 MSTORE POP POP JUMP JUMPDEST PUSH0 PUSH1 0xE0 DUP4 ADD PUSH0 DUP4 ADD MLOAD PUSH2 0xBF1 PUSH0 DUP7 ADD DUP3 PUSH2 0xB1A JUMP JUMPDEST POP PUSH1 0x20 DUP4 ADD MLOAD PUSH2 0xC04 PUSH1 0x20 DUP7 ADD DUP3 PUSH2 0xB1A JUMP JUMPDEST POP PUSH1 0x40 DUP4 ADD MLOAD DUP5 DUP3 SUB PUSH1 0x40 DUP7 ADD MSTORE PUSH2 0xC1C DUP3 DUP3 PUSH2 0xB7B JUMP JUMPDEST SWAP2 POP POP PUSH1 0x60 DUP4 ADD MLOAD PUSH2 0xC31 PUSH1 0x60 DUP7 ADD DUP3 PUSH2 0xB1A JUMP JUMPDEST POP PUSH1 0x80 DUP4 ADD MLOAD DUP5 DUP3 SUB PUSH1 0x80 DUP7 ADD MSTORE PUSH2 0xC49 DUP3 DUP3 PUSH2 0xB7B JUMP JUMPDEST SWAP2 POP POP PUSH1 0xA0 DUP4 ADD MLOAD PUSH2 0xC5E PUSH1 0xA0 DUP7 ADD DUP3 PUSH2 0xBB3 JUMP JUMPDEST POP PUSH1 0xC0 DUP4 ADD MLOAD PUSH2 0xC71 PUSH1 0xC0 DUP7 ADD DUP3 PUSH2 0xBCD JUMP JUMPDEST POP DUP1 SWAP2 POP POP SWAP3 SWAP2 POP POP JUMP JUMPDEST PUSH0 PUSH2 0xC87 DUP4 DUP4 PUSH2 0xBDC JUMP JUMPDEST SWAP1 POP SWAP3 SWAP2 POP POP JUMP JUMPDEST PUSH0 PUSH1 0x20 DUP3 ADD SWAP1 POP SWAP2 SWAP1 POP JUMP JUMPDEST PUSH0 PUSH2 0xCA5 DUP3 PUSH2 0xAF1 JUMP JUMPDEST PUSH2 0xCAF DUP2 DUP6 PUSH2 0xAFB JUMP JUMPDEST SWAP4 POP DUP4 PUSH1 0x20 DUP3 MUL DUP6 ADD PUSH2 0xCC1 DUP6 PUSH2 0xB0B JUMP JUMPDEST DUP1 PUSH0 JUMPDEST DUP6 DUP2 LT ISZERO PUSH2 0xCFC JUMPI DUP5 DUP5 SUB DUP10 MSTORE DUP2 MLOAD PUSH2 0xCDD DUP6 DUP3 PUSH2 0xC7C JUMP JUMPDEST SWAP5 POP PUSH2 0xCE8 DUP4 PUSH2 0xC8F JUMP JUMPDEST SWAP3 POP PUSH1 0x20 DUP11 ADD SWAP10 POP POP PUSH1 0x1 DUP2 ADD SWAP1 POP PUSH2 0xCC4 JUMP JUMPDEST POP DUP3 SWAP8 POP DUP8 SWAP6 POP POP POP POP POP POP SWAP3 SWAP2 POP POP JUMP JUMPDEST PUSH0 PUSH1 0x20 DUP3 ADD SWAP1 POP DUP2 DUP2 SUB PUSH0 DUP4 ADD MSTORE PUSH2 0xD26 DUP2 DUP5 PUSH2 0xC9B JUMP JUMPDEST SWAP1 POP SWAP3 SWAP2 POP POP JUMP JUMPDEST PUSH0 PUSH1 0x20 DUP3 DUP5 SUB SLT ISZERO PUSH2 0xD43 JUMPI PUSH2 0xD42 PUSH2 0xA0C JUMP JUMPDEST JUMPDEST PUSH0 PUSH2 0xD50 DUP5 DUP3 DUP6 ADD PUSH2 0xA33 JUMP JUMPDEST SWAP2 POP POP SWAP3 SWAP2 POP POP JUMP JUMPDEST PUSH2 0xD62 DUP2 PUSH2 0xA14 JUMP JUMPDEST DUP3 MSTORE POP POP JUMP JUMPDEST PUSH0 DUP3 DUP3 MSTORE PUSH1 0x20 DUP3 ADD SWAP1 POP SWAP3 SWAP2 POP POP JUMP JUMPDEST PUSH0 PUSH2 0xD82 DUP3 PUSH2 0xB29 JUMP JUMPDEST PUSH2 0xD8C DUP2 DUP6 PUSH2 0xD68 JUMP JUMPDEST SWAP4 POP PUSH2 0xD9C DUP2 DUP6 PUSH1 0x20 DUP7 ADD PUSH2 0xB43 JUMP JUMPDEST PUSH2 0xDA5 DUP2 PUSH2 0xB6B JUMP JUMPDEST DUP5 ADD SWAP2 POP POP SWAP3 SWAP2 POP POP JUMP JUMPDEST PUSH2 0xDB9 DUP2 PUSH2 0xA66 JUMP JUMPDEST DUP3 MSTORE POP POP JUMP JUMPDEST PUSH2 0xDC8 DUP2 PUSH2 0xBC2 JUMP JUMPDEST DUP3 MSTORE POP POP JUMP JUMPDEST PUSH0 PUSH1 0xE0 DUP3 ADD SWAP1 POP PUSH2 0xDE1 PUSH0 DUP4 ADD DUP11 PUSH2 0xD59 JUMP JUMPDEST PUSH2 0xDEE PUSH1 0x20 DUP4 ADD DUP10 PUSH2 0xD59 JUMP JUMPDEST DUP2 DUP2 SUB PUSH1 0x40 DUP4 ADD MSTORE PUSH2 0xE00 DUP2 DUP9 PUSH2 0xD78 JUMP JUMPDEST SWAP1 POP PUSH2 0xE0F PUSH1 0x60 DUP4 ADD DUP8 PUSH2 0xD59 JUMP JUMPDEST DUP2 DUP2 SUB PUSH1 0x80 DUP4 ADD MSTORE PUSH2 0xE21 DUP2 DUP7 PUSH2 0xD78 JUMP JUMPDEST SWAP1 POP PUSH2 0xE30 PUSH1 0xA0 DUP4 ADD DUP6 PUSH2 0xDB0 JUMP JUMPDEST PUSH2 0xE3D PUSH1 0xC0 DUP4 ADD DUP5 PUSH2 0xDBF JUMP JUMPDEST SWAP9 SWAP8 POP POP POP POP POP POP POP POP JUMP JUMPDEST PUSH0 PUSH1 0x20 DUP3 ADD SWAP1 POP PUSH2 0xE5C PUSH0 DUP4 ADD DUP5 PUSH2 0xD59 JUMP JUMPDEST SWAP3 SWAP2 POP POP JUMP JUMPDEST PUSH0 DUP1 REVERT JUMPDEST PUSH0 DUP1 REVERT JUMPDEST PUSH32 0x4E487B7100000000000000000000000000000000000000000000000000000000 PUSH0 MSTORE PUSH1 0x41 PUSH1 0x4 MSTORE PUSH1 0x24 PUSH0 REVERT JUMPDEST PUSH2 0xEA0 DUP3 PUSH2 0xB6B JUMP JUMPDEST DUP2 ADD DUP2 DUP2 LT PUSH8 0xFFFFFFFFFFFFFFFF DUP3 GT OR ISZERO PUSH2 0xEBF JUMPI PUSH2 0xEBE PUSH2 0xE6A JUMP JUMPDEST JUMPDEST DUP1 PUSH1 0x40 MSTORE POP POP POP JUMP JUMPDEST PUSH0 PUSH2 0xED1 PUSH2 0xA03 JUMP JUMPDEST SWAP1 POP PUSH2 0xEDD DUP3 DUP3 PUSH2 0xE97 JUMP JUMPDEST SWAP2 SWAP1 POP JUMP JUMPDEST PUSH0 PUSH8 0xFFFFFFFFFFFFFFFF DUP3 GT ISZERO PUSH2 0xEFC JUMPI PUSH2 0xEFB PUSH2 0xE6A JUMP JUMPDEST JUMPDEST PUSH2 0xF05 DUP3 PUSH2 0xB6B JUMP JUMPDEST SWAP1 POP PUSH1 0x20 DUP2 ADD SWAP1 POP SWAP2 SWAP1 POP JUMP JUMPDEST DUP3 DUP2 DUP4 CALLDATACOPY PUSH0 DUP4 DUP4 ADD MSTORE POP POP POP JUMP JUMPDEST PUSH0 PUSH2 0xF32 PUSH2 0xF2D DUP5 PUSH2 0xEE2 JUMP JUMPDEST PUSH2 0xEC8 JUMP JUMPDEST SWAP1 POP DUP3 DUP2 MSTORE PUSH1 0x20 DUP2 ADD DUP5 DUP5 DUP5 ADD GT ISZERO PUSH2 0xF4E JUMPI PUSH2 0xF4D PUSH2 0xE66 JUMP JUMPDEST JUMPDEST PUSH2 0xF59 DUP5 DUP3 DUP6 PUSH2 0xF12 JUMP JUMPDEST POP SWAP4 SWAP3 POP POP POP JUMP JUMPDEST PUSH0 DUP3 PUSH1 0x1F DUP4 ADD SLT PUSH2 0xF75 JUMPI PUSH2 0xF74 PUSH2 0xE62 JUMP JUMPDEST JUMPDEST DUP2 CALLDATALOAD PUSH2 0xF85 DUP5 DUP3 PUSH1 0x20 DUP7 ADD PUSH2 0xF20 JUMP JUMPDEST SWAP2 POP POP SWAP3 SWAP2 POP POP JUMP JUMPDEST PUSH0 PUSH2 0xF98 DUP3 PUSH2 0xA47 JUMP JUMPDEST SWAP1 POP SWAP2 SWAP1 POP JUMP JUMPDEST PUSH2 0xFA8 DUP2 PUSH2 0xF8E JUMP JUMPDEST DUP2 EQ PUSH2 0xFB2 JUMPI PUSH0 DUP1 REVERT JUMPDEST POP JUMP JUMPDEST PUSH0 DUP2 CALLDATALOAD SWAP1 POP PUSH2 0xFC3 DUP2 PUSH2 0xF9F JUMP JUMPDEST SWAP3 SWAP2 POP POP JUMP JUMPDEST PUSH2 0xFD2 DUP2 PUSH2 0xBC2 JUMP JUMPDEST DUP2 EQ PUSH2 0xFDC JUMPI PUSH0 DUP1 REVERT JUMPDEST POP JUMP JUMPDEST PUSH0 DUP2 CALLDATALOAD SWAP1 POP PUSH2 0xFED DUP2 PUSH2 0xFC9 JUMP JUMPDEST SWAP3 SWAP2 POP POP JUMP JUMPDEST PUSH0 DUP1 PUSH0 DUP1 PUSH0 DUP1 PUSH1 0xC0 DUP8 DUP10 SUB SLT ISZERO PUSH2 0x100D JUMPI PUSH2 0x100C PUSH2 0xA0C JUMP JUMPDEST JUMPDEST PUSH0 PUSH2 0x101A DUP10 DUP3 DUP11 ADD PUSH2 0xA33 JUMP JUMPDEST SWAP7 POP POP PUSH1 0x20 DUP8 ADD CALLDATALOAD PUSH8 0xFFFFFFFFFFFFFFFF DUP2 GT ISZERO PUSH2 0x103B JUMPI PUSH2 0x103A PUSH2 0xA10 JUMP JUMPDEST JUMPDEST PUSH2 0x1047 DUP10 DUP3 DUP11 ADD PUSH2 0xF61 JUMP JUMPDEST SWAP6 POP POP PUSH1 0x40 PUSH2 0x1058 DUP10 DUP3 DUP11 ADD PUSH2 0xA33 JUMP JUMPDEST SWAP5 POP POP PUSH1 0x60 DUP8 ADD CALLDATALOAD PUSH8 0xFFFFFFFFFFFFFFFF DUP2 GT ISZERO PUSH2 0x1079 JUMPI PUSH2 0x1078 PUSH2 0xA10 JUMP JUMPDEST JUMPDEST PUSH2 0x1085 DUP10 DUP3 DUP11 ADD PUSH2 0xF61 JUMP JUMPDEST SWAP4 POP POP PUSH1 0x80 PUSH2 0x1096 DUP10 DUP3 DUP11 ADD PUSH2 0xFB5 JUMP JUMPDEST SWAP3 POP POP PUSH1 0xA0 PUSH2 0x10A7 DUP10 DUP3 DUP11 ADD PUSH2 0xFDF JUMP JUMPDEST SWAP2 POP POP SWAP3 SWAP6 POP SWAP3 SWAP6 POP SWAP3 SWAP6 JUMP JUMPDEST PUSH32 0x43617220697320616C726561647920536F6C6400000000000000000000000000 PUSH0 DUP3 ADD MSTORE POP JUMP JUMPDEST PUSH0 PUSH2 0x10E8 PUSH1 0x13 DUP4 PUSH2 0xD68 JUMP JUMPDEST SWAP2 POP PUSH2 0x10F3 DUP3 PUSH2 0x10B4 JUMP JUMPDEST PUSH1 0x20 DUP3 ADD SWAP1 POP SWAP2 SWAP1 POP JUMP JUMPDEST PUSH0 PUSH1 0x20 DUP3 ADD SWAP1 POP DUP2 DUP2 SUB PUSH0 DUP4 ADD MSTORE PUSH2 0x1115 DUP2 PUSH2 0x10DC JUMP JUMPDEST SWAP1 POP SWAP2 SWAP1 POP JUMP JUMPDEST PUSH32 0x57726F6E67204361722070726963650000000000000000000000000000000000 PUSH0 DUP3 ADD MSTORE POP JUMP JUMPDEST PUSH0 PUSH2 0x1150 PUSH1 0xF DUP4 PUSH2 0xD68 JUMP JUMPDEST SWAP2 POP PUSH2 0x115B DUP3 PUSH2 0x111C JUMP JUMPDEST PUSH1 0x20 DUP3 ADD SWAP1 POP SWAP2 SWAP1 POP JUMP JUMPDEST PUSH0 PUSH1 0x20 DUP3 ADD SWAP1 POP DUP2 DUP2 SUB PUSH0 DUP4 ADD MSTORE PUSH2 0x117D DUP2 PUSH2 0x1144 JUMP JUMPDEST SWAP1 POP SWAP2 SWAP1 POP JUMP JUMPDEST PUSH0 DUP2 SWAP1 POP SWAP2 SWAP1 POP JUMP JUMPDEST PUSH0 PUSH2 0x11A7 PUSH2 0x11A2 PUSH2 0x119D DUP5 PUSH2 0xA47 JUMP JUMPDEST PUSH2 0x1184 JUMP JUMPDEST PUSH2 0xA47 JUMP JUMPDEST SWAP1 POP SWAP2 SWAP1 POP JUMP JUMPDEST PUSH0 PUSH2 0x11B8 DUP3 PUSH2 0x118D JUMP JUMPDEST SWAP1 POP SWAP2 SWAP1 POP JUMP JUMPDEST PUSH0 PUSH2 0x11C9 DUP3 PUSH2 0x11AE JUMP JUMPDEST SWAP1 POP SWAP2 SWAP1 POP JUMP JUMPDEST PUSH2 0x11D9 DUP2 PUSH2 0x11BF JUMP JUMPDEST DUP3 MSTORE POP POP JUMP JUMPDEST PUSH0 PUSH1 0x60 DUP3 ADD SWAP1 POP PUSH2 0x11F2 PUSH0 DUP4 ADD DUP7 PUSH2 0xD59 JUMP JUMPDEST PUSH2 0x11FF PUSH1 0x20 DUP4 ADD DUP6 PUSH2 0x11D0 JUMP JUMPDEST PUSH2 0x120C PUSH1 0x40 DUP4 ADD DUP5 PUSH2 0xD59 JUMP JUMPDEST SWAP5 SWAP4 POP POP POP POP JUMP JUMPDEST PUSH32 0x4E487B7100000000000000000000000000000000000000000000000000000000 PUSH0 MSTORE PUSH1 0x32 PUSH1 0x4 MSTORE PUSH1 0x24 PUSH0 REVERT JUMPDEST PUSH32 0x4E487B7100000000000000000000000000000000000000000000000000000000 PUSH0 MSTORE PUSH1 0x22 PUSH1 0x4 MSTORE PUSH1 0x24 PUSH0 REVERT JUMPDEST PUSH0 PUSH1 0x2 DUP3 DIV SWAP1 POP PUSH1 0x1 DUP3 AND DUP1 PUSH2 0x1285 JUMPI PUSH1 0x7F DUP3 AND SWAP2 POP JUMPDEST PUSH1 0x20 DUP3 LT DUP2 SUB PUSH2 0x1298 JUMPI PUSH2 0x1297 PUSH2 0x1241 JUMP JUMPDEST JUMPDEST POP SWAP2 SWAP1 POP JUMP JUMPDEST PUSH32 0x4F6E6C7920546865204167656E6379204F776E65722043616E20416464206361 PUSH0 DUP3 ADD MSTORE PUSH32 0x7273212121000000000000000000000000000000000000000000000000000000 PUSH1 0x20 DUP3 ADD MSTORE POP JUMP JUMPDEST PUSH0 PUSH2 0x12F8 PUSH1 0x25 DUP4 PUSH2 0xD68 JUMP JUMPDEST SWAP2 POP PUSH2 0x1303 DUP3 PUSH2 0x129E JUMP JUMPDEST PUSH1 0x40 DUP3 ADD SWAP1 POP SWAP2 SWAP1 POP JUMP JUMPDEST PUSH0 PUSH1 0x20 DUP3 ADD SWAP1 POP DUP2 DUP2 SUB PUSH0 DUP4 ADD MSTORE PUSH2 0x1325 DUP2 PUSH2 0x12EC JUMP JUMPDEST SWAP1 POP SWAP2 SWAP1 POP JUMP JUMPDEST PUSH0 DUP2 SWAP1 POP DUP2 PUSH0 MSTORE PUSH1 0x20 PUSH0 KECCAK256 SWAP1 POP SWAP2 SWAP1 POP JUMP JUMPDEST PUSH0 PUSH1 0x20 PUSH1 0x1F DUP4 ADD DIV SWAP1 POP SWAP2 SWAP1 POP JUMP JUMPDEST PUSH0 DUP3 DUP3 SHL SWAP1 POP SWAP3 SWAP2 POP POP JUMP JUMPDEST PUSH0 PUSH1 0x8 DUP4 MUL PUSH2 0x1388 PUSH32 0xFFFFFFFFFFFFFFFFFFFFFFFFFFFFFFFFFFFFFFFFFFFFFFFFFFFFFFFFFFFFFFFF DUP3 PUSH2 0x134D JUMP JUMPDEST PUSH2 0x1392 DUP7 DUP4 PUSH2 0x134D JUMP JUMPDEST SWAP6 POP DUP1 NOT DUP5 AND SWAP4 POP DUP1 DUP7 AND DUP5 OR SWAP3 POP POP POP SWAP4 SWAP3 POP POP POP JUMP JUMPDEST PUSH0 PUSH2 0x13C4 PUSH2 0x13BF PUSH2 0x13BA DUP5 PUSH2 0xA14 JUMP JUMPDEST PUSH2 0x1184 JUMP JUMPDEST PUSH2 0xA14 JUMP JUMPDEST SWAP1 POP SWAP2 SWAP1 POP JUMP JUMPDEST PUSH0 DUP2 SWAP1 POP SWAP2 SWAP1 POP JUMP JUMPDEST PUSH2 0x13DD DUP4 PUSH2 0x13AA JUMP JUMPDEST PUSH2 0x13F1 PUSH2 0x13E9 DUP3 PUSH2 0x13CB JUMP JUMPDEST DUP5 DUP5 SLOAD PUSH2 0x1359 JUMP JUMPDEST DUP3 SSTORE POP POP POP POP JUMP JUMPDEST PUSH0 SWAP1 JUMP JUMPDEST PUSH2 0x1405 PUSH2 0x13F9 JUMP JUMPDEST PUSH2 0x1410 DUP2 DUP5 DUP5 PUSH2 0x13D4 JUMP JUMPDEST POP POP POP JUMP JUMPDEST JUMPDEST DUP2 DUP2 LT ISZERO PUSH2 0x1433 JUMPI PUSH2 0x1428 PUSH0 DUP3 PUSH2 0x13FD JUMP JUMPDEST PUSH1 0x1 DUP2 ADD SWAP1 POP PUSH2 0x1416 JUMP JUMPDEST POP POP JUMP JUMPDEST PUSH1 0x1F DUP3 GT ISZERO PUSH2 0x1478 JUMPI PUSH2 0x1449 DUP2 PUSH2 0x132C JUMP JUMPDEST PUSH2 0x1452 DUP5 PUSH2 0x133E JUMP JUMPDEST DUP2 ADD PUSH1 0x20 DUP6 LT ISZERO PUSH2 0x1461 JUMPI DUP2 SWAP1 POP JUMPDEST PUSH2 0x1475 PUSH2 0x146D DUP6 PUSH2 0x133E JUMP JUMPDEST DUP4 ADD DUP3 PUSH2 0x1415 JUMP JUMPDEST POP POP JUMPDEST POP POP POP JUMP JUMPDEST PUSH0 DUP3 DUP3 SHR SWAP1 POP SWAP3 SWAP2 POP POP JUMP JUMPDEST PUSH0 PUSH2 0x1498 PUSH0 NOT DUP5 PUSH1 0x8 MUL PUSH2 0x147D JUMP JUMPDEST NOT DUP1 DUP4 AND SWAP2 POP POP SWAP3 SWAP2 POP POP JUMP JUMPDEST PUSH0 PUSH2 0x14B0 DUP4 DUP4 PUSH2 0x1489 JUMP JUMPDEST SWAP2 POP DUP3 PUSH1 0x2 MUL DUP3 OR SWAP1 POP SWAP3 SWAP2 POP POP JUMP JUMPDEST PUSH2 0x14C9 DUP3 PUSH2 0xB29 JUMP JUMPDEST PUSH8 0xFFFFFFFFFFFFFFFF DUP2 GT ISZERO PUSH2 0x14E2 JUMPI PUSH2 0x14E1 PUSH2 0xE6A JUMP JUMPDEST JUMPDEST PUSH2 0x14EC DUP3 SLOAD PUSH2 0x126E JUMP JUMPDEST PUSH2 0x14F7 DUP3 DUP3 DUP6 PUSH2 0x1437 JUMP JUMPDEST PUSH0 PUSH1 0x20 SWAP1 POP PUSH1 0x1F DUP4 GT PUSH1 0x1 DUP2 EQ PUSH2 0x1528 JUMPI PUSH0 DUP5 ISZERO PUSH2 0x1516 JUMPI DUP3 DUP8 ADD MLOAD SWAP1 POP JUMPDEST PUSH2 0x1520 DUP6 DUP3 PUSH2 0x14A5 JUMP JUMPDEST DUP7 SSTORE POP PUSH2 0x1587 JUMP JUMPDEST PUSH1 0x1F NOT DUP5 AND PUSH2 0x1536 DUP7 PUSH2 0x132C JUMP JUMPDEST PUSH0 JUMPDEST DUP3 DUP2 LT ISZERO PUSH2 0x155D JUMPI DUP5 DUP10 ADD MLOAD DUP3 SSTORE PUSH1 0x1 DUP3 ADD SWAP2 POP PUSH1 0x20 DUP6 ADD SWAP5 POP PUSH1 0x20 DUP2 ADD SWAP1 POP PUSH2 0x1538 JUMP JUMPDEST DUP7 DUP4 LT ISZERO PUSH2 0x157A JUMPI DUP5 DUP10 ADD MLOAD PUSH2 0x1576 PUSH1 0x1F DUP10 AND DUP3 PUSH2 0x1489 JUMP JUMPDEST DUP4 SSTORE POP JUMPDEST PUSH1 0x1 PUSH1 0x2 DUP9 MUL ADD DUP9 SSTORE POP POP POP JUMPDEST POP POP POP POP POP POP JUMP INVALID LOG2 PUSH5 0x6970667358 0x22 SLT KECCAK256 0xA5 GASLIMIT 0xAB 0xF8 SWAP14 PUSH10 0x19DA27E91CA6D43EACC 0xAA EXTCODESIZE 0xD1 0xA7 0xAC 0xF8 SLOAD 0x4F RETURNDATASIZE SWAP2 SUB 0xEF TIMESTAMP 0xC9 SWAP13 0x2F PUSH5 0x736F6C6343 STOP ADDMOD AND STOP CALLER "
		},
		"gasEstimates": {
			"creation": {
				"codeDepositCost": "1114600",
				"executionCost": "25423",
				"totalCost": "1140023"
			},
			"external": {
				"AddCar(uint256,string,uint256,string,address,bool)": "infinite",
				"AllCars()": "infinite",
				"ListCars(uint256)": "infinite",
				"MapCars(uint256)": "infinite",
				"SellCar(uint256,address,uint256)": "infinite"
			}
		},
		"methodIdentifiers": {
			"AddCar(uint256,string,uint256,string,address,bool)": "e98d8383",
			"AllCars()": "9537d6cf",
			"ListCars(uint256)": "d923b3d8",
			"MapCars(uint256)": "9abb94d4",
			"SellCar(uint256,address,uint256)": "3b3bdd10"
		}
	},
	"abi": [
		{
			"inputs": [],
			"stateMutability": "nonpayable",
			"type": "constructor"
		},
		{
			"anonymous": false,
			"inputs": [
				{
					"indexed": false,
					"internalType": "uint256",
					"name": "Car_id",
					"type": "uint256"
				},
				{
					"indexed": false,
					"internalType": "uint256",
					"name": "Car_model",
					"type": "uint256"
				},
				{
					"indexed": false,
					"internalType": "string",
					"name": "Car_color",
					"type": "string"
				},
				{
					"indexed": false,
					"internalType": "uint256",
					"name": "Car_Price",
					"type": "uint256"
				},
				{
					"indexed": false,
					"internalType": "string",
					"name": "Car_Name",
					"type": "string"
				},
				{
					"indexed": false,
					"internalType": "address payable",
					"name": "OwnedBy",
					"type": "address"
				},
				{
					"indexed": false,
					"internalType": "bool",
					"name": "Car_State",
					"type": "bool"
				}
			],
			"name": "EvntNewCarAdd",
			"type": "event"
		},
		{
			"anonymous": false,
			"inputs": [
				{
					"indexed": false,
					"internalType": "uint256",
					"name": "CarID",
					"type": "uint256"
				},
				{
					"indexed": false,
					"internalType": "address",
					"name": "Newowner",
					"type": "address"
				},
				{
					"indexed": false,
					"internalType": "uint256",
					"name": "CarPrice",
					"type": "uint256"
				}
			],
			"name": "EvntSellingCar",
			"type": "event"
		},
		{
			"inputs": [
				{
					"internalType": "uint256",
					"name": "_Car_model",
					"type": "uint256"
				},
				{
					"internalType": "string",
					"name": "_Car_color",
					"type": "string"
				},
				{
					"internalType": "uint256",
					"name": "_Car_Price",
					"type": "uint256"
				},
				{
					"internalType": "string",
					"name": "_Car_Name",
					"type": "string"
				},
				{
					"internalType": "address",
					"name": "",
					"type": "address"
				},
				{
					"internalType": "bool",
					"name": "",
					"type": "bool"
				}
			],
			"name": "AddCar",
			"outputs": [],
			"stateMutability": "nonpayable",
			"type": "function"
		},
		{
			"inputs": [],
			"name": "AllCars",
			"outputs": [
				{
					"components": [
						{
							"internalType": "uint256",
							"name": "Car_id",
							"type": "uint256"
						},
						{
							"internalType": "uint256",
							"name": "Car_model",
							"type": "uint256"
						},
						{
							"internalType": "string",
							"name": "Car_color",
							"type": "string"
						},
						{
							"internalType": "uint256",
							"name": "Car_Price",
							"type": "uint256"
						},
						{
							"internalType": "string",
							"name": "Car_Name",
							"type": "string"
						},
						{
							"internalType": "address payable",
							"name": "OwnedBy",
							"type": "address"
						},
						{
							"internalType": "bool",
							"name": "Car_State",
							"type": "bool"
						}
					],
					"internalType": "struct CarAgency.Struct_Car[]",
					"name": "",
					"type": "tuple[]"
				}
			],
			"stateMutability": "view",
			"type": "function"
		},
		{
			"inputs": [
				{
					"internalType": "uint256",
					"name": "",
					"type": "uint256"
				}
			],
			"name": "ListCars",
			"outputs": [
				{
					"internalType": "uint256",
					"name": "",
					"type": "uint256"
				}
			],
			"stateMutability": "view",
			"type": "function"
		},
		{
			"inputs": [
				{
					"internalType": "uint256",
					"name": "",
					"type": "uint256"
				}
			],
			"name": "MapCars",
			"outputs": [
				{
					"internalType": "uint256",
					"name": "Car_id",
					"type": "uint256"
				},
				{
					"internalType": "uint256",
					"name": "Car_model",
					"type": "uint256"
				},
				{
					"internalType": "string",
					"name": "Car_color",
					"type": "string"
				},
				{
					"internalType": "uint256",
					"name": "Car_Price",
					"type": "uint256"
				},
				{
					"internalType": "string",
					"name": "Car_Name",
					"type": "string"
				},
				{
					"internalType": "address payable",
					"name": "OwnedBy",
					"type": "address"
				},
				{
					"internalType": "bool",
					"name": "Car_State",
					"type": "bool"
				}
			],
			"stateMutability": "view",
			"type": "function"
		},
		{
			"inputs": [
				{
					"internalType": "uint256",
					"name": "_CarID",
					"type": "uint256"
				},
				{
					"internalType": "address payable",
					"name": "_NewOwner",
					"type": "address"
				},
				{
					"internalType": "uint256",
					"name": "_CarPrice",
					"type": "uint256"
				}
			],
			"name": "SellCar",
			"outputs": [],
			"stateMutability": "payable",
			"type": "function"
		}
	]
}