{
	"data": {
		"bytecode": {
			"linkReferences": {
				"contracts/AddressArrayUtils.sol": {
					"AddressArrayUtils": [
						{
							"length": 20,
							"start": 4076
						}
					]
				}
			},
			"object": "6080604052600a600155348015610014575f80fd5b5060015f819055503360035f6101000a81548173ffffffffffffffffffffffffffffffffffffffff021916908373ffffffffffffffffffffffffffffffffffffffff160217905550612806806100695f395ff3fe608060405234801561000f575f80fd5b5060043610610055575f3560e01c80632ea3ad2114610059578063634513ca146100895780638f84ac81146100b9578063a0282d9e146100e9578063ab070c9214610119575b5f80fd5b610073600480360381019061006e91906115c2565b610135565b60405161008091906118c6565b60405180910390f35b6100a3600480360381019061009e91906118e6565b610635565b6040516100b0919061192b565b60405180910390f35b6100d360048036038101906100ce9190611944565b61079c565b6040516100e09190611a4d565b60405180910390f35b61010360048036038101906100fe9190611944565b610a4a565b6040516101109190611a4d565b60405180910390f35b610133600480360381019061012e9190611b99565b610f80565b005b60605f8411610179576040517f08c379a000000000000000000000000000000000000000000000000000000000815260040161017090611cda565b60405180910390fd5b5f83116101bb576040517f08c379a00000000000000000000000000000000000000000000000000000000081526004016101b290611d68565b60405180910390fd5b5f806101c76002611425565b67ffffffffffffffff8111156101e0576101df611a75565b5b60405190808252806020026020018201604052801561021957816020015b61020661149b565b8152602001906001900390816101fe5790505b5090505f5b6102286002611425565b811015610545578473ffffffffffffffffffffffffffffffffffffffff1660045f6001846102569190611db3565b81526020019081526020015f206008015f9054906101000a900473ffffffffffffffffffffffffffffffffffffffff1673ffffffffffffffffffffffffffffffffffffffff1603610538575f6001826102af9190611db3565b90505f60045f8381526020019081526020015f20905080604051806101400160405290815f8201548152602001600182015481526020016002820180546102f590611e13565b80601f016020809104026020016040519081016040528092919081815260200182805461032190611e13565b801561036c5780601f106103435761010080835404028352916020019161036c565b820191905f5260205f20905b81548152906001019060200180831161034f57829003601f168201915b505050505081526020016003820154815260200160048201805461038f90611e13565b80601f01602080910402602001604051908101604052809291908181526020018280546103bb90611e13565b80156104065780601f106103dd57610100808354040283529160200191610406565b820191905f5260205f20905b8154815290600101906020018083116103e957829003601f168201915b505050505081526020016005820154815260200160068201548152602001600782015f9054906101000a900460ff166004811115610447576104466116d4565b5b6004811115610459576104586116d4565b5b81526020016007820160019054906101000a900473ffffffffffffffffffffffffffffffffffffffff1673ffffffffffffffffffffffffffffffffffffffff1673ffffffffffffffffffffffffffffffffffffffff168152602001600882015f9054906101000a900473ffffffffffffffffffffffffffffffffffffffff1673ffffffffffffffffffffffffffffffffffffffff1673ffffffffffffffffffffffffffffffffffffffff168152505084868151811061051b5761051a611e43565b5b60200260200101819052506001856105339190611db3565b945050505b808060010191505061021e565b505f856001886105559190611e70565b61055f9190611ea3565b90505f868261056e9190611db3565b90505f828261057d9190611e70565b67ffffffffffffffff81111561059657610595611a75565b5b6040519080825280602002602001820160405280156105cf57816020015b6105bc61149b565b8152602001906001900390816105b45790505b5090505f8390505b82811015610625578481815181106105f2576105f1611e43565b5b602002602001015182828151811061060d5761060c611e43565b5b602002602001018190525080806001019150506105d7565b5080955050505050509392505050565b5f60035f9054906101000a900473ffffffffffffffffffffffffffffffffffffffff1673ffffffffffffffffffffffffffffffffffffffff163373ffffffffffffffffffffffffffffffffffffffff16146106c5576040517f08c379a00000000000000000000000000000000000000000000000000000000081526004016106bc90611f54565b60405180910390fd5b5f73ffffffffffffffffffffffffffffffffffffffff168273ffffffffffffffffffffffffffffffffffffffff1603610733576040517f08c379a000000000000000000000000000000000000000000000000000000000815260040161072a90611f54565b60405180910390fd5b600582908060018154018082558091505060019003905f5260205f20015f9091909190916101000a81548173ffffffffffffffffffffffffffffffffffffffff021916908373ffffffffffffffffffffffffffffffffffffffff16021790555060019050919050565b6107a461149b565b6107ae6002611425565b8211156107f0576040517f08c379a00000000000000000000000000000000000000000000000000000000081526004016107e790611fbc565b60405180910390fd5b60045f8381526020019081526020015f20604051806101400160405290815f82015481526020016001820154815260200160028201805461083090611e13565b80601f016020809104026020016040519081016040528092919081815260200182805461085c90611e13565b80156108a75780601f1061087e576101008083540402835291602001916108a7565b820191905f5260205f20905b81548152906001019060200180831161088a57829003601f168201915b50505050508152602001600382015481526020016004820180546108ca90611e13565b80601f01602080910402602001604051908101604052809291908181526020018280546108f690611e13565b80156109415780601f1061091857610100808354040283529160200191610941565b820191905f5260205f20905b81548152906001019060200180831161092457829003601f168201915b505050505081526020016005820154815260200160068201548152602001600782015f9054906101000a900460ff166004811115610982576109816116d4565b5b6004811115610994576109936116d4565b5b81526020016007820160019054906101000a900473ffffffffffffffffffffffffffffffffffffffff1673ffffffffffffffffffffffffffffffffffffffff1673ffffffffffffffffffffffffffffffffffffffff168152602001600882015f9054906101000a900473ffffffffffffffffffffffffffffffffffffffff1673ffffffffffffffffffffffffffffffffffffffff1673ffffffffffffffffffffffffffffffffffffffff16815250509050919050565b610a5261149b565b610a5c6002611425565b821115610a9e576040517f08c379a0000000000000000000000000000000000000000000000000000000008152600401610a9590611fbc565b60405180910390fd5b5f60045f8481526020019081526020015f20604051806101400160405290815f820154815260200160018201548152602001600282018054610adf90611e13565b80601f0160208091040260200160405190810160405280929190818152602001828054610b0b90611e13565b8015610b565780601f10610b2d57610100808354040283529160200191610b56565b820191905f5260205f20905b815481529060010190602001808311610b3957829003601f168201915b5050505050815260200160038201548152602001600482018054610b7990611e13565b80601f0160208091040260200160405190810160405280929190818152602001828054610ba590611e13565b8015610bf05780601f10610bc757610100808354040283529160200191610bf0565b820191905f5260205f20905b815481529060010190602001808311610bd357829003601f168201915b505050505081526020016005820154815260200160068201548152602001600782015f9054906101000a900460ff166004811115610c3157610c306116d4565b5b6004811115610c4357610c426116d4565b5b81526020016007820160019054906101000a900473ffffffffffffffffffffffffffffffffffffffff1673ffffffffffffffffffffffffffffffffffffffff1673ffffffffffffffffffffffffffffffffffffffff168152602001600882015f9054906101000a900473ffffffffffffffffffffffffffffffffffffffff1673ffffffffffffffffffffffffffffffffffffffff1673ffffffffffffffffffffffffffffffffffffffff1681525050905060018160e001906004811115610d0d57610d0c6116d4565b5b90816004811115610d2157610d206116d4565b5b8152505060045f8481526020019081526020015f20604051806101400160405290815f820154815260200160018201548152602001600282018054610d6590611e13565b80601f0160208091040260200160405190810160405280929190818152602001828054610d9190611e13565b8015610ddc5780601f10610db357610100808354040283529160200191610ddc565b820191905f5260205f20905b815481529060010190602001808311610dbf57829003601f168201915b5050505050815260200160038201548152602001600482018054610dff90611e13565b80601f0160208091040260200160405190810160405280929190818152602001828054610e2b90611e13565b8015610e765780601f10610e4d57610100808354040283529160200191610e76565b820191905f5260205f20905b815481529060010190602001808311610e5957829003601f168201915b505050505081526020016005820154815260200160068201548152602001600782015f9054906101000a900460ff166004811115610eb757610eb66116d4565b5b6004811115610ec957610ec86116d4565b5b81526020016007820160019054906101000a900473ffffffffffffffffffffffffffffffffffffffff1673ffffffffffffffffffffffffffffffffffffffff1673ffffffffffffffffffffffffffffffffffffffff168152602001600882015f9054906101000a900473ffffffffffffffffffffffffffffffffffffffff1673ffffffffffffffffffffffffffffffffffffffff1673ffffffffffffffffffffffffffffffffffffffff1681525050915050919050565b5f73__$85b83db452d38098d8d3d5028bb4e3a81a$__633b3eebf63360056040518363ffffffff1660e01b8152600401610fbb9291906120ff565b602060405180830381865af4158015610fd6573d5f803e3d5ffd5b505050506040513d601f19601f82011682018060405250810190610ffa9190612157565b90506001151581151514611043576040517f08c379a000000000000000000000000000000000000000000000000000000000815260040161103a90611f54565b60405180910390fd5b61104b611431565b6107dd871161108f576040517f08c379a0000000000000000000000000000000000000000000000000000000008152600401611086906121f2565b60405180910390fd5b60018651116110d3576040517f08c379a00000000000000000000000000000000000000000000000000000000081526004016110ca90612280565b60405180910390fd5b5f8511611115576040517f08c379a000000000000000000000000000000000000000000000000000000000815260040161110c9061230e565b60405180910390fd5b5f73ffffffffffffffffffffffffffffffffffffffff168273ffffffffffffffffffffffffffffffffffffffff1603611183576040517f08c379a000000000000000000000000000000000000000000000000000000000815260040161117a9061239c565b60405180910390fd5b5f600154886111929190611e70565b905061119e600261147e565b5f6111a96002611425565b90505f6040518061014001604052808381526020018b81526020018a81526020018981526020018781526020018881526020018481526020018260048111156111f5576111f46116d4565b5b81526020013073ffffffffffffffffffffffffffffffffffffffff1681526020013373ffffffffffffffffffffffffffffffffffffffff1681525060045f8481526020019081526020015f205f820151815f01556020820151816001015560408201518160020190816112689190612557565b506060820151816003015560808201518160040190816112889190612557565b5060a0820151816005015560c0820151816006015560e0820151816007015f6101000a81548160ff021916908360048111156112c7576112c66116d4565b5b02179055506101008201518160070160016101000a81548173ffffffffffffffffffffffffffffffffffffffff021916908373ffffffffffffffffffffffffffffffffffffffff160217905550610120820151816008015f6101000a81548173ffffffffffffffffffffffffffffffffffffffff021916908373ffffffffffffffffffffffffffffffffffffffff1602179055509050508473ffffffffffffffffffffffffffffffffffffffff166323b872dd33308a6040518463ffffffff1660e01b815260040161139b93929190612644565b5f604051808303815f87803b1580156113b2575f80fd5b505af11580156113c4573d5f803e3d5ffd5b505050507f2306f6b321708807713355e7300d65dc8da9237f920f61733611393207fd9481828b8b8b8a8c898830336040516114099a999897969594939291906126c0565b60405180910390a150505061141c611492565b50505050505050565b5f815f01549050919050565b60025f5403611475576040517f08c379a000000000000000000000000000000000000000000000000000000000815260040161146c906127b2565b60405180910390fd5b60025f81905550565b6001815f015f828254019250508190555050565b60015f81905550565b6040518061014001604052805f81526020015f8152602001606081526020015f8152602001606081526020015f81526020015f81526020015f60048111156114e6576114e56116d4565b5b81526020015f73ffffffffffffffffffffffffffffffffffffffff1681526020015f73ffffffffffffffffffffffffffffffffffffffff1681525090565b5f604051905090565b5f80fd5b5f80fd5b5f819050919050565b61154781611535565b8114611551575f80fd5b50565b5f813590506115628161153e565b92915050565b5f73ffffffffffffffffffffffffffffffffffffffff82169050919050565b5f61159182611568565b9050919050565b6115a181611587565b81146115ab575f80fd5b50565b5f813590506115bc81611598565b92915050565b5f805f606084860312156115d9576115d861152d565b5b5f6115e686828701611554565b93505060206115f786828701611554565b9250506040611608868287016115ae565b9150509250925092565b5f81519050919050565b5f82825260208201905092915050565b5f819050602082019050919050565b61164481611535565b82525050565b5f81519050919050565b5f82825260208201905092915050565b5f5b83811015611681578082015181840152602081019050611666565b5f8484015250505050565b5f601f19601f8301169050919050565b5f6116a68261164a565b6116b08185611654565b93506116c0818560208601611664565b6116c98161168c565b840191505092915050565b7f4e487b71000000000000000000000000000000000000000000000000000000005f52602160045260245ffd5b60058110611712576117116116d4565b5b50565b5f81905061172282611701565b919050565b5f61173182611715565b9050919050565b61174181611727565b82525050565b61175081611587565b82525050565b5f61014083015f83015161176c5f86018261163b565b50602083015161177f602086018261163b565b5060408301518482036040860152611797828261169c565b91505060608301516117ac606086018261163b565b50608083015184820360808601526117c4828261169c565b91505060a08301516117d960a086018261163b565b5060c08301516117ec60c086018261163b565b5060e08301516117ff60e0860182611738565b50610100830151611814610100860182611747565b50610120830151611829610120860182611747565b508091505092915050565b5f61183f8383611756565b905092915050565b5f602082019050919050565b5f61185d82611612565b611867818561161c565b9350836020820285016118798561162c565b805f5b858110156118b457848403895281516118958582611834565b94506118a083611847565b925060208a0199505060018101905061187c565b50829750879550505050505092915050565b5f6020820190508181035f8301526118de8184611853565b905092915050565b5f602082840312156118fb576118fa61152d565b5b5f611908848285016115ae565b91505092915050565b5f8115159050919050565b61192581611911565b82525050565b5f60208201905061193e5f83018461191c565b92915050565b5f602082840312156119595761195861152d565b5b5f61196684828501611554565b91505092915050565b5f61014083015f8301516119855f86018261163b565b506020830151611998602086018261163b565b50604083015184820360408601526119b0828261169c565b91505060608301516119c5606086018261163b565b50608083015184820360808601526119dd828261169c565b91505060a08301516119f260a086018261163b565b5060c0830151611a0560c086018261163b565b5060e0830151611a1860e0860182611738565b50610100830151611a2d610100860182611747565b50610120830151611a42610120860182611747565b508091505092915050565b5f6020820190508181035f830152611a65818461196f565b905092915050565b5f80fd5b5f80fd5b7f4e487b71000000000000000000000000000000000000000000000000000000005f52604160045260245ffd5b611aab8261168c565b810181811067ffffffffffffffff82111715611aca57611ac9611a75565b5b80604052505050565b5f611adc611524565b9050611ae88282611aa2565b919050565b5f67ffffffffffffffff821115611b0757611b06611a75565b5b611b108261168c565b9050602081019050919050565b828183375f83830152505050565b5f611b3d611b3884611aed565b611ad3565b905082815260208101848484011115611b5957611b58611a71565b5b611b64848285611b1d565b509392505050565b5f82601f830112611b8057611b7f611a6d565b5b8135611b90848260208601611b2b565b91505092915050565b5f805f805f8060c08789031215611bb357611bb261152d565b5b5f611bc089828a01611554565b965050602087013567ffffffffffffffff811115611be157611be0611531565b5b611bed89828a01611b6c565b9550506040611bfe89828a01611554565b9450506060611c0f89828a01611554565b935050608087013567ffffffffffffffff811115611c3057611c2f611531565b5b611c3c89828a01611b6c565b92505060a0611c4d89828a016115ae565b9150509295509295509295565b5f82825260208201905092915050565b7f50616765206e756d6265722073686f756c6420626520677265617465722074685f8201527f616e203000000000000000000000000000000000000000000000000000000000602082015250565b5f611cc4602483611c5a565b9150611ccf82611c6a565b604082019050919050565b5f6020820190508181035f830152611cf181611cb8565b9050919050565b7f506167652073697a652073686f756c642062652067726561746572207468616e5f8201527f2030000000000000000000000000000000000000000000000000000000000000602082015250565b5f611d52602283611c5a565b9150611d5d82611cf8565b604082019050919050565b5f6020820190508181035f830152611d7f81611d46565b9050919050565b7f4e487b71000000000000000000000000000000000000000000000000000000005f52601160045260245ffd5b5f611dbd82611535565b9150611dc883611535565b9250828201905080821115611de057611ddf611d86565b5b92915050565b7f4e487b71000000000000000000000000000000000000000000000000000000005f52602260045260245ffd5b5f6002820490506001821680611e2a57607f821691505b602082108103611e3d57611e3c611de6565b5b50919050565b7f4e487b71000000000000000000000000000000000000000000000000000000005f52603260045260245ffd5b5f611e7a82611535565b9150611e8583611535565b9250828203905081811115611e9d57611e9c611d86565b5b92915050565b5f611ead82611535565b9150611eb883611535565b9250828202611ec681611535565b91508282048414831517611edd57611edc611d86565b5b5092915050565b7f446f6e742068617665207065726d697373696f6e20746f20646f2074686973205f8201527f6f7065726174696f6e0000000000000000000000000000000000000000000000602082015250565b5f611f3e602983611c5a565b9150611f4982611ee4565b604082019050919050565b5f6020820190508181035f830152611f6b81611f32565b9050919050565b7f4964204e6f7420466f756e6400000000000000000000000000000000000000005f82015250565b5f611fa6600c83611c5a565b9150611fb182611f72565b602082019050919050565b5f6020820190508181035f830152611fd381611f9a565b9050919050565b611fe381611587565b82525050565b5f81549050919050565b5f82825260208201905092915050565b5f819050815f5260205f209050919050565b61201e81611587565b82525050565b5f61202f8383612015565b60208301905092915050565b5f815f1c9050919050565b5f73ffffffffffffffffffffffffffffffffffffffff82169050919050565b5f6120776120728361203b565b612046565b9050919050565b5f6120898254612065565b9050919050565b5f600182019050919050565b5f6120a682611fe9565b6120b08185611ff3565b93506120bb83612003565b805f5b838110156120f2576120cf8261207e565b6120d98882612024565b97506120e483612090565b9250506001810190506120be565b5085935050505092915050565b5f6040820190506121125f830185611fda565b8181036020830152612124818461209c565b90509392505050565b61213681611911565b8114612140575f80fd5b50565b5f815190506121518161212d565b92915050565b5f6020828403121561216c5761216b61152d565b5b5f61217984828501612143565b91505092915050565b7f436172204d6f64656c2073686f75646c206265206c6172676572207468616e205f8201527f3230313300000000000000000000000000000000000000000000000000000000602082015250565b5f6121dc602483611c5a565b91506121e782612182565b604082019050919050565b5f6020820190508181035f830152612209816121d0565b9050919050565b7f436172205f76696d5f6e756d6265722073686f75646c206265206c61726765725f8201527f207468616e203234206368617273000000000000000000000000000000000000602082015250565b5f61226a602e83611c5a565b915061227582612210565b604082019050919050565b5f6020820190508181035f8301526122978161225e565b9050919050565b7f5f636f6d70616e795f6e756d6265722073686f75646c206265206c61726765725f8201527f207468616e205a65726f00000000000000000000000000000000000000000000602082015250565b5f6122f8602a83611c5a565b91506123038261229e565b604082019050919050565b5f6020820190508181035f830152612325816122ec565b9050919050565b7f416464726573732073686f756c64206e6f7420626520657175616c20307830205f8201527f6f72206e756c6c65640000000000000000000000000000000000000000000000602082015250565b5f612386602983611c5a565b91506123918261232c565b604082019050919050565b5f6020820190508181035f8301526123b38161237a565b9050919050565b5f819050815f5260205f209050919050565b5f6020601f8301049050919050565b5f82821b905092915050565b5f600883026124167fffffffffffffffffffffffffffffffffffffffffffffffffffffffffffffffff826123db565b61242086836123db565b95508019841693508086168417925050509392505050565b5f819050919050565b5f61245b61245661245184611535565b612438565b611535565b9050919050565b5f819050919050565b61247483612441565b61248861248082612462565b8484546123e7565b825550505050565b5f90565b61249c612490565b6124a781848461246b565b505050565b5b818110156124ca576124bf5f82612494565b6001810190506124ad565b5050565b601f82111561250f576124e0816123ba565b6124e9846123cc565b810160208510156124f8578190505b61250c612504856123cc565b8301826124ac565b50505b505050565b5f82821c905092915050565b5f61252f5f1984600802612514565b1980831691505092915050565b5f6125478383612520565b9150826002028217905092915050565b6125608261164a565b67ffffffffffffffff81111561257957612578611a75565b5b6125838254611e13565b61258e8282856124ce565b5f60209050601f8311600181146125bf575f84156125ad578287015190505b6125b7858261253c565b86555061261e565b601f1984166125cd866123ba565b5f5b828110156125f4578489015182556001820191506020850194506020810190506125cf565b86831015612611578489015161260d601f891682612520565b8355505b6001600288020188555050505b505050505050565b61262f81611587565b82525050565b61263e81611535565b82525050565b5f6060820190506126575f830186612626565b6126646020830185612626565b6126716040830184612635565b949350505050565b5f6126838261164a565b61268d8185611c5a565b935061269d818560208601611664565b6126a68161168c565b840191505092915050565b6126ba81611727565b82525050565b5f610140820190506126d45f83018d612635565b6126e1602083018c612635565b81810360408301526126f3818b612679565b9050612702606083018a612635565b81810360808301526127148189612679565b905061272360a0830188612635565b61273060c0830187612635565b61273d60e08301866126b1565b61274b610100830185612626565b612759610120830184612626565b9b9a5050505050505050505050565b7f5265656e7472616e637947756172643a207265656e7472616e742063616c6c005f82015250565b5f61279c601f83611c5a565b91506127a782612768565b602082019050919050565b5f6020820190508181035f8301526127c981612790565b905091905056fea2646970667358221220416121b2011f02c6e6b47dd91cbd16c7a27ed33dc8c6715d1d56a5b012517b0664736f6c63430008160033",
			"opcodes": "PUSH1 0x80 PUSH1 0x40 MSTORE PUSH1 0xA PUSH1 0x1 SSTORE CALLVALUE DUP1 ISZERO PUSH2 0x14 JUMPI PUSH0 DUP1 REVERT JUMPDEST POP PUSH1 0x1 PUSH0 DUP2 SWAP1 SSTORE POP CALLER PUSH1 0x3 PUSH0 PUSH2 0x100 EXP DUP2 SLOAD DUP2 PUSH20 0xFFFFFFFFFFFFFFFFFFFFFFFFFFFFFFFFFFFFFFFF MUL NOT AND SWAP1 DUP4 PUSH20 0xFFFFFFFFFFFFFFFFFFFFFFFFFFFFFFFFFFFFFFFF AND MUL OR SWAP1 SSTORE POP PUSH2 0x2806 DUP1 PUSH2 0x69 PUSH0 CODECOPY PUSH0 RETURN INVALID PUSH1 0x80 PUSH1 0x40 MSTORE CALLVALUE DUP1 ISZERO PUSH2 0xF JUMPI PUSH0 DUP1 REVERT JUMPDEST POP PUSH1 0x4 CALLDATASIZE LT PUSH2 0x55 JUMPI PUSH0 CALLDATALOAD PUSH1 0xE0 SHR DUP1 PUSH4 0x2EA3AD21 EQ PUSH2 0x59 JUMPI DUP1 PUSH4 0x634513CA EQ PUSH2 0x89 JUMPI DUP1 PUSH4 0x8F84AC81 EQ PUSH2 0xB9 JUMPI DUP1 PUSH4 0xA0282D9E EQ PUSH2 0xE9 JUMPI DUP1 PUSH4 0xAB070C92 EQ PUSH2 0x119 JUMPI JUMPDEST PUSH0 DUP1 REVERT JUMPDEST PUSH2 0x73 PUSH1 0x4 DUP1 CALLDATASIZE SUB DUP2 ADD SWAP1 PUSH2 0x6E SWAP2 SWAP1 PUSH2 0x15C2 JUMP JUMPDEST PUSH2 0x135 JUMP JUMPDEST PUSH1 0x40 MLOAD PUSH2 0x80 SWAP2 SWAP1 PUSH2 0x18C6 JUMP JUMPDEST PUSH1 0x40 MLOAD DUP1 SWAP2 SUB SWAP1 RETURN JUMPDEST PUSH2 0xA3 PUSH1 0x4 DUP1 CALLDATASIZE SUB DUP2 ADD SWAP1 PUSH2 0x9E SWAP2 SWAP1 PUSH2 0x18E6 JUMP JUMPDEST PUSH2 0x635 JUMP JUMPDEST PUSH1 0x40 MLOAD PUSH2 0xB0 SWAP2 SWAP1 PUSH2 0x192B JUMP JUMPDEST PUSH1 0x40 MLOAD DUP1 SWAP2 SUB SWAP1 RETURN JUMPDEST PUSH2 0xD3 PUSH1 0x4 DUP1 CALLDATASIZE SUB DUP2 ADD SWAP1 PUSH2 0xCE SWAP2 SWAP1 PUSH2 0x1944 JUMP JUMPDEST PUSH2 0x79C JUMP JUMPDEST PUSH1 0x40 MLOAD PUSH2 0xE0 SWAP2 SWAP1 PUSH2 0x1A4D JUMP JUMPDEST PUSH1 0x40 MLOAD DUP1 SWAP2 SUB SWAP1 RETURN JUMPDEST PUSH2 0x103 PUSH1 0x4 DUP1 CALLDATASIZE SUB DUP2 ADD SWAP1 PUSH2 0xFE SWAP2 SWAP1 PUSH2 0x1944 JUMP JUMPDEST PUSH2 0xA4A JUMP JUMPDEST PUSH1 0x40 MLOAD PUSH2 0x110 SWAP2 SWAP1 PUSH2 0x1A4D JUMP JUMPDEST PUSH1 0x40 MLOAD DUP1 SWAP2 SUB SWAP1 RETURN JUMPDEST PUSH2 0x133 PUSH1 0x4 DUP1 CALLDATASIZE SUB DUP2 ADD SWAP1 PUSH2 0x12E SWAP2 SWAP1 PUSH2 0x1B99 JUMP JUMPDEST PUSH2 0xF80 JUMP JUMPDEST STOP JUMPDEST PUSH1 0x60 PUSH0 DUP5 GT PUSH2 0x179 JUMPI PUSH1 0x40 MLOAD PUSH32 0x8C379A000000000000000000000000000000000000000000000000000000000 DUP2 MSTORE PUSH1 0x4 ADD PUSH2 0x170 SWAP1 PUSH2 0x1CDA JUMP JUMPDEST PUSH1 0x40 MLOAD DUP1 SWAP2 SUB SWAP1 REVERT JUMPDEST PUSH0 DUP4 GT PUSH2 0x1BB JUMPI PUSH1 0x40 MLOAD PUSH32 0x8C379A000000000000000000000000000000000000000000000000000000000 DUP2 MSTORE PUSH1 0x4 ADD PUSH2 0x1B2 SWAP1 PUSH2 0x1D68 JUMP JUMPDEST PUSH1 0x40 MLOAD DUP1 SWAP2 SUB SWAP1 REVERT JUMPDEST PUSH0 DUP1 PUSH2 0x1C7 PUSH1 0x2 PUSH2 0x1425 JUMP JUMPDEST PUSH8 0xFFFFFFFFFFFFFFFF DUP2 GT ISZERO PUSH2 0x1E0 JUMPI PUSH2 0x1DF PUSH2 0x1A75 JUMP JUMPDEST JUMPDEST PUSH1 0x40 MLOAD SWAP1 DUP1 DUP3 MSTORE DUP1 PUSH1 0x20 MUL PUSH1 0x20 ADD DUP3 ADD PUSH1 0x40 MSTORE DUP1 ISZERO PUSH2 0x219 JUMPI DUP2 PUSH1 0x20 ADD JUMPDEST PUSH2 0x206 PUSH2 0x149B JUMP JUMPDEST DUP2 MSTORE PUSH1 0x20 ADD SWAP1 PUSH1 0x1 SWAP1 SUB SWAP1 DUP2 PUSH2 0x1FE JUMPI SWAP1 POP JUMPDEST POP SWAP1 POP PUSH0 JUMPDEST PUSH2 0x228 PUSH1 0x2 PUSH2 0x1425 JUMP JUMPDEST DUP2 LT ISZERO PUSH2 0x545 JUMPI DUP5 PUSH20 0xFFFFFFFFFFFFFFFFFFFFFFFFFFFFFFFFFFFFFFFF AND PUSH1 0x4 PUSH0 PUSH1 0x1 DUP5 PUSH2 0x256 SWAP2 SWAP1 PUSH2 0x1DB3 JUMP JUMPDEST DUP2 MSTORE PUSH1 0x20 ADD SWAP1 DUP2 MSTORE PUSH1 0x20 ADD PUSH0 KECCAK256 PUSH1 0x8 ADD PUSH0 SWAP1 SLOAD SWAP1 PUSH2 0x100 EXP SWAP1 DIV PUSH20 0xFFFFFFFFFFFFFFFFFFFFFFFFFFFFFFFFFFFFFFFF AND PUSH20 0xFFFFFFFFFFFFFFFFFFFFFFFFFFFFFFFFFFFFFFFF AND SUB PUSH2 0x538 JUMPI PUSH0 PUSH1 0x1 DUP3 PUSH2 0x2AF SWAP2 SWAP1 PUSH2 0x1DB3 JUMP JUMPDEST SWAP1 POP PUSH0 PUSH1 0x4 PUSH0 DUP4 DUP2 MSTORE PUSH1 0x20 ADD SWAP1 DUP2 MSTORE PUSH1 0x20 ADD PUSH0 KECCAK256 SWAP1 POP DUP1 PUSH1 0x40 MLOAD DUP1 PUSH2 0x140 ADD PUSH1 0x40 MSTORE SWAP1 DUP2 PUSH0 DUP3 ADD SLOAD DUP2 MSTORE PUSH1 0x20 ADD PUSH1 0x1 DUP3 ADD SLOAD DUP2 MSTORE PUSH1 0x20 ADD PUSH1 0x2 DUP3 ADD DUP1 SLOAD PUSH2 0x2F5 SWAP1 PUSH2 0x1E13 JUMP JUMPDEST DUP1 PUSH1 0x1F ADD PUSH1 0x20 DUP1 SWAP2 DIV MUL PUSH1 0x20 ADD PUSH1 0x40 MLOAD SWAP1 DUP2 ADD PUSH1 0x40 MSTORE DUP1 SWAP3 SWAP2 SWAP1 DUP2 DUP2 MSTORE PUSH1 0x20 ADD DUP3 DUP1 SLOAD PUSH2 0x321 SWAP1 PUSH2 0x1E13 JUMP JUMPDEST DUP1 ISZERO PUSH2 0x36C JUMPI DUP1 PUSH1 0x1F LT PUSH2 0x343 JUMPI PUSH2 0x100 DUP1 DUP4 SLOAD DIV MUL DUP4 MSTORE SWAP2 PUSH1 0x20 ADD SWAP2 PUSH2 0x36C JUMP JUMPDEST DUP3 ADD SWAP2 SWAP1 PUSH0 MSTORE PUSH1 0x20 PUSH0 KECCAK256 SWAP1 JUMPDEST DUP2 SLOAD DUP2 MSTORE SWAP1 PUSH1 0x1 ADD SWAP1 PUSH1 0x20 ADD DUP1 DUP4 GT PUSH2 0x34F JUMPI DUP3 SWAP1 SUB PUSH1 0x1F AND DUP3 ADD SWAP2 JUMPDEST POP POP POP POP POP DUP2 MSTORE PUSH1 0x20 ADD PUSH1 0x3 DUP3 ADD SLOAD DUP2 MSTORE PUSH1 0x20 ADD PUSH1 0x4 DUP3 ADD DUP1 SLOAD PUSH2 0x38F SWAP1 PUSH2 0x1E13 JUMP JUMPDEST DUP1 PUSH1 0x1F ADD PUSH1 0x20 DUP1 SWAP2 DIV MUL PUSH1 0x20 ADD PUSH1 0x40 MLOAD SWAP1 DUP2 ADD PUSH1 0x40 MSTORE DUP1 SWAP3 SWAP2 SWAP1 DUP2 DUP2 MSTORE PUSH1 0x20 ADD DUP3 DUP1 SLOAD PUSH2 0x3BB SWAP1 PUSH2 0x1E13 JUMP JUMPDEST DUP1 ISZERO PUSH2 0x406 JUMPI DUP1 PUSH1 0x1F LT PUSH2 0x3DD JUMPI PUSH2 0x100 DUP1 DUP4 SLOAD DIV MUL DUP4 MSTORE SWAP2 PUSH1 0x20 ADD SWAP2 PUSH2 0x406 JUMP JUMPDEST DUP3 ADD SWAP2 SWAP1 PUSH0 MSTORE PUSH1 0x20 PUSH0 KECCAK256 SWAP1 JUMPDEST DUP2 SLOAD DUP2 MSTORE SWAP1 PUSH1 0x1 ADD SWAP1 PUSH1 0x20 ADD DUP1 DUP4 GT PUSH2 0x3E9 JUMPI DUP3 SWAP1 SUB PUSH1 0x1F AND DUP3 ADD SWAP2 JUMPDEST POP POP POP POP POP DUP2 MSTORE PUSH1 0x20 ADD PUSH1 0x5 DUP3 ADD SLOAD DUP2 MSTORE PUSH1 0x20 ADD PUSH1 0x6 DUP3 ADD SLOAD DUP2 MSTORE PUSH1 0x20 ADD PUSH1 0x7 DUP3 ADD PUSH0 SWAP1 SLOAD SWAP1 PUSH2 0x100 EXP SWAP1 DIV PUSH1 0xFF AND PUSH1 0x4 DUP2 GT ISZERO PUSH2 0x447 JUMPI PUSH2 0x446 PUSH2 0x16D4 JUMP JUMPDEST JUMPDEST PUSH1 0x4 DUP2 GT ISZERO PUSH2 0x459 JUMPI PUSH2 0x458 PUSH2 0x16D4 JUMP JUMPDEST JUMPDEST DUP2 MSTORE PUSH1 0x20 ADD PUSH1 0x7 DUP3 ADD PUSH1 0x1 SWAP1 SLOAD SWAP1 PUSH2 0x100 EXP SWAP1 DIV PUSH20 0xFFFFFFFFFFFFFFFFFFFFFFFFFFFFFFFFFFFFFFFF AND PUSH20 0xFFFFFFFFFFFFFFFFFFFFFFFFFFFFFFFFFFFFFFFF AND PUSH20 0xFFFFFFFFFFFFFFFFFFFFFFFFFFFFFFFFFFFFFFFF AND DUP2 MSTORE PUSH1 0x20 ADD PUSH1 0x8 DUP3 ADD PUSH0 SWAP1 SLOAD SWAP1 PUSH2 0x100 EXP SWAP1 DIV PUSH20 0xFFFFFFFFFFFFFFFFFFFFFFFFFFFFFFFFFFFFFFFF AND PUSH20 0xFFFFFFFFFFFFFFFFFFFFFFFFFFFFFFFFFFFFFFFF AND PUSH20 0xFFFFFFFFFFFFFFFFFFFFFFFFFFFFFFFFFFFFFFFF AND DUP2 MSTORE POP POP DUP5 DUP7 DUP2 MLOAD DUP2 LT PUSH2 0x51B JUMPI PUSH2 0x51A PUSH2 0x1E43 JUMP JUMPDEST JUMPDEST PUSH1 0x20 MUL PUSH1 0x20 ADD ADD DUP2 SWAP1 MSTORE POP PUSH1 0x1 DUP6 PUSH2 0x533 SWAP2 SWAP1 PUSH2 0x1DB3 JUMP JUMPDEST SWAP5 POP POP POP JUMPDEST DUP1 DUP1 PUSH1 0x1 ADD SWAP2 POP POP PUSH2 0x21E JUMP JUMPDEST POP PUSH0 DUP6 PUSH1 0x1 DUP9 PUSH2 0x555 SWAP2 SWAP1 PUSH2 0x1E70 JUMP JUMPDEST PUSH2 0x55F SWAP2 SWAP1 PUSH2 0x1EA3 JUMP JUMPDEST SWAP1 POP PUSH0 DUP7 DUP3 PUSH2 0x56E SWAP2 SWAP1 PUSH2 0x1DB3 JUMP JUMPDEST SWAP1 POP PUSH0 DUP3 DUP3 PUSH2 0x57D SWAP2 SWAP1 PUSH2 0x1E70 JUMP JUMPDEST PUSH8 0xFFFFFFFFFFFFFFFF DUP2 GT ISZERO PUSH2 0x596 JUMPI PUSH2 0x595 PUSH2 0x1A75 JUMP JUMPDEST JUMPDEST PUSH1 0x40 MLOAD SWAP1 DUP1 DUP3 MSTORE DUP1 PUSH1 0x20 MUL PUSH1 0x20 ADD DUP3 ADD PUSH1 0x40 MSTORE DUP1 ISZERO PUSH2 0x5CF JUMPI DUP2 PUSH1 0x20 ADD JUMPDEST PUSH2 0x5BC PUSH2 0x149B JUMP JUMPDEST DUP2 MSTORE PUSH1 0x20 ADD SWAP1 PUSH1 0x1 SWAP1 SUB SWAP1 DUP2 PUSH2 0x5B4 JUMPI SWAP1 POP JUMPDEST POP SWAP1 POP PUSH0 DUP4 SWAP1 POP JUMPDEST DUP3 DUP2 LT ISZERO PUSH2 0x625 JUMPI DUP5 DUP2 DUP2 MLOAD DUP2 LT PUSH2 0x5F2 JUMPI PUSH2 0x5F1 PUSH2 0x1E43 JUMP JUMPDEST JUMPDEST PUSH1 0x20 MUL PUSH1 0x20 ADD ADD MLOAD DUP3 DUP3 DUP2 MLOAD DUP2 LT PUSH2 0x60D JUMPI PUSH2 0x60C PUSH2 0x1E43 JUMP JUMPDEST JUMPDEST PUSH1 0x20 MUL PUSH1 0x20 ADD ADD DUP2 SWAP1 MSTORE POP DUP1 DUP1 PUSH1 0x1 ADD SWAP2 POP POP PUSH2 0x5D7 JUMP JUMPDEST POP DUP1 SWAP6 POP POP POP POP POP POP SWAP4 SWAP3 POP POP POP JUMP JUMPDEST PUSH0 PUSH1 0x3 PUSH0 SWAP1 SLOAD SWAP1 PUSH2 0x100 EXP SWAP1 DIV PUSH20 0xFFFFFFFFFFFFFFFFFFFFFFFFFFFFFFFFFFFFFFFF AND PUSH20 0xFFFFFFFFFFFFFFFFFFFFFFFFFFFFFFFFFFFFFFFF AND CALLER PUSH20 0xFFFFFFFFFFFFFFFFFFFFFFFFFFFFFFFFFFFFFFFF AND EQ PUSH2 0x6C5 JUMPI PUSH1 0x40 MLOAD PUSH32 0x8C379A000000000000000000000000000000000000000000000000000000000 DUP2 MSTORE PUSH1 0x4 ADD PUSH2 0x6BC SWAP1 PUSH2 0x1F54 JUMP JUMPDEST PUSH1 0x40 MLOAD DUP1 SWAP2 SUB SWAP1 REVERT JUMPDEST PUSH0 PUSH20 0xFFFFFFFFFFFFFFFFFFFFFFFFFFFFFFFFFFFFFFFF AND DUP3 PUSH20 0xFFFFFFFFFFFFFFFFFFFFFFFFFFFFFFFFFFFFFFFF AND SUB PUSH2 0x733 JUMPI PUSH1 0x40 MLOAD PUSH32 0x8C379A000000000000000000000000000000000000000000000000000000000 DUP2 MSTORE PUSH1 0x4 ADD PUSH2 0x72A SWAP1 PUSH2 0x1F54 JUMP JUMPDEST PUSH1 0x40 MLOAD DUP1 SWAP2 SUB SWAP1 REVERT JUMPDEST PUSH1 0x5 DUP3 SWAP1 DUP1 PUSH1 0x1 DUP2 SLOAD ADD DUP1 DUP3 SSTORE DUP1 SWAP2 POP POP PUSH1 0x1 SWAP1 SUB SWAP1 PUSH0 MSTORE PUSH1 0x20 PUSH0 KECCAK256 ADD PUSH0 SWAP1 SWAP2 SWAP1 SWAP2 SWAP1 SWAP2 PUSH2 0x100 EXP DUP2 SLOAD DUP2 PUSH20 0xFFFFFFFFFFFFFFFFFFFFFFFFFFFFFFFFFFFFFFFF MUL NOT AND SWAP1 DUP4 PUSH20 0xFFFFFFFFFFFFFFFFFFFFFFFFFFFFFFFFFFFFFFFF AND MUL OR SWAP1 SSTORE POP PUSH1 0x1 SWAP1 POP SWAP2 SWAP1 POP JUMP JUMPDEST PUSH2 0x7A4 PUSH2 0x149B JUMP JUMPDEST PUSH2 0x7AE PUSH1 0x2 PUSH2 0x1425 JUMP JUMPDEST DUP3 GT ISZERO PUSH2 0x7F0 JUMPI PUSH1 0x40 MLOAD PUSH32 0x8C379A000000000000000000000000000000000000000000000000000000000 DUP2 MSTORE PUSH1 0x4 ADD PUSH2 0x7E7 SWAP1 PUSH2 0x1FBC JUMP JUMPDEST PUSH1 0x40 MLOAD DUP1 SWAP2 SUB SWAP1 REVERT JUMPDEST PUSH1 0x4 PUSH0 DUP4 DUP2 MSTORE PUSH1 0x20 ADD SWAP1 DUP2 MSTORE PUSH1 0x20 ADD PUSH0 KECCAK256 PUSH1 0x40 MLOAD DUP1 PUSH2 0x140 ADD PUSH1 0x40 MSTORE SWAP1 DUP2 PUSH0 DUP3 ADD SLOAD DUP2 MSTORE PUSH1 0x20 ADD PUSH1 0x1 DUP3 ADD SLOAD DUP2 MSTORE PUSH1 0x20 ADD PUSH1 0x2 DUP3 ADD DUP1 SLOAD PUSH2 0x830 SWAP1 PUSH2 0x1E13 JUMP JUMPDEST DUP1 PUSH1 0x1F ADD PUSH1 0x20 DUP1 SWAP2 DIV MUL PUSH1 0x20 ADD PUSH1 0x40 MLOAD SWAP1 DUP2 ADD PUSH1 0x40 MSTORE DUP1 SWAP3 SWAP2 SWAP1 DUP2 DUP2 MSTORE PUSH1 0x20 ADD DUP3 DUP1 SLOAD PUSH2 0x85C SWAP1 PUSH2 0x1E13 JUMP JUMPDEST DUP1 ISZERO PUSH2 0x8A7 JUMPI DUP1 PUSH1 0x1F LT PUSH2 0x87E JUMPI PUSH2 0x100 DUP1 DUP4 SLOAD DIV MUL DUP4 MSTORE SWAP2 PUSH1 0x20 ADD SWAP2 PUSH2 0x8A7 JUMP JUMPDEST DUP3 ADD SWAP2 SWAP1 PUSH0 MSTORE PUSH1 0x20 PUSH0 KECCAK256 SWAP1 JUMPDEST DUP2 SLOAD DUP2 MSTORE SWAP1 PUSH1 0x1 ADD SWAP1 PUSH1 0x20 ADD DUP1 DUP4 GT PUSH2 0x88A JUMPI DUP3 SWAP1 SUB PUSH1 0x1F AND DUP3 ADD SWAP2 JUMPDEST POP POP POP POP POP DUP2 MSTORE PUSH1 0x20 ADD PUSH1 0x3 DUP3 ADD SLOAD DUP2 MSTORE PUSH1 0x20 ADD PUSH1 0x4 DUP3 ADD DUP1 SLOAD PUSH2 0x8CA SWAP1 PUSH2 0x1E13 JUMP JUMPDEST DUP1 PUSH1 0x1F ADD PUSH1 0x20 DUP1 SWAP2 DIV MUL PUSH1 0x20 ADD PUSH1 0x40 MLOAD SWAP1 DUP2 ADD PUSH1 0x40 MSTORE DUP1 SWAP3 SWAP2 SWAP1 DUP2 DUP2 MSTORE PUSH1 0x20 ADD DUP3 DUP1 SLOAD PUSH2 0x8F6 SWAP1 PUSH2 0x1E13 JUMP JUMPDEST DUP1 ISZERO PUSH2 0x941 JUMPI DUP1 PUSH1 0x1F LT PUSH2 0x918 JUMPI PUSH2 0x100 DUP1 DUP4 SLOAD DIV MUL DUP4 MSTORE SWAP2 PUSH1 0x20 ADD SWAP2 PUSH2 0x941 JUMP JUMPDEST DUP3 ADD SWAP2 SWAP1 PUSH0 MSTORE PUSH1 0x20 PUSH0 KECCAK256 SWAP1 JUMPDEST DUP2 SLOAD DUP2 MSTORE SWAP1 PUSH1 0x1 ADD SWAP1 PUSH1 0x20 ADD DUP1 DUP4 GT PUSH2 0x924 JUMPI DUP3 SWAP1 SUB PUSH1 0x1F AND DUP3 ADD SWAP2 JUMPDEST POP POP POP POP POP DUP2 MSTORE PUSH1 0x20 ADD PUSH1 0x5 DUP3 ADD SLOAD DUP2 MSTORE PUSH1 0x20 ADD PUSH1 0x6 DUP3 ADD SLOAD DUP2 MSTORE PUSH1 0x20 ADD PUSH1 0x7 DUP3 ADD PUSH0 SWAP1 SLOAD SWAP1 PUSH2 0x100 EXP SWAP1 DIV PUSH1 0xFF AND PUSH1 0x4 DUP2 GT ISZERO PUSH2 0x982 JUMPI PUSH2 0x981 PUSH2 0x16D4 JUMP JUMPDEST JUMPDEST PUSH1 0x4 DUP2 GT ISZERO PUSH2 0x994 JUMPI PUSH2 0x993 PUSH2 0x16D4 JUMP JUMPDEST JUMPDEST DUP2 MSTORE PUSH1 0x20 ADD PUSH1 0x7 DUP3 ADD PUSH1 0x1 SWAP1 SLOAD SWAP1 PUSH2 0x100 EXP SWAP1 DIV PUSH20 0xFFFFFFFFFFFFFFFFFFFFFFFFFFFFFFFFFFFFFFFF AND PUSH20 0xFFFFFFFFFFFFFFFFFFFFFFFFFFFFFFFFFFFFFFFF AND PUSH20 0xFFFFFFFFFFFFFFFFFFFFFFFFFFFFFFFFFFFFFFFF AND DUP2 MSTORE PUSH1 0x20 ADD PUSH1 0x8 DUP3 ADD PUSH0 SWAP1 SLOAD SWAP1 PUSH2 0x100 EXP SWAP1 DIV PUSH20 0xFFFFFFFFFFFFFFFFFFFFFFFFFFFFFFFFFFFFFFFF AND PUSH20 0xFFFFFFFFFFFFFFFFFFFFFFFFFFFFFFFFFFFFFFFF AND PUSH20 0xFFFFFFFFFFFFFFFFFFFFFFFFFFFFFFFFFFFFFFFF AND DUP2 MSTORE POP POP SWAP1 POP SWAP2 SWAP1 POP JUMP JUMPDEST PUSH2 0xA52 PUSH2 0x149B JUMP JUMPDEST PUSH2 0xA5C PUSH1 0x2 PUSH2 0x1425 JUMP JUMPDEST DUP3 GT ISZERO PUSH2 0xA9E JUMPI PUSH1 0x40 MLOAD PUSH32 0x8C379A000000000000000000000000000000000000000000000000000000000 DUP2 MSTORE PUSH1 0x4 ADD PUSH2 0xA95 SWAP1 PUSH2 0x1FBC JUMP JUMPDEST PUSH1 0x40 MLOAD DUP1 SWAP2 SUB SWAP1 REVERT JUMPDEST PUSH0 PUSH1 0x4 PUSH0 DUP5 DUP2 MSTORE PUSH1 0x20 ADD SWAP1 DUP2 MSTORE PUSH1 0x20 ADD PUSH0 KECCAK256 PUSH1 0x40 MLOAD DUP1 PUSH2 0x140 ADD PUSH1 0x40 MSTORE SWAP1 DUP2 PUSH0 DUP3 ADD SLOAD DUP2 MSTORE PUSH1 0x20 ADD PUSH1 0x1 DUP3 ADD SLOAD DUP2 MSTORE PUSH1 0x20 ADD PUSH1 0x2 DUP3 ADD DUP1 SLOAD PUSH2 0xADF SWAP1 PUSH2 0x1E13 JUMP JUMPDEST DUP1 PUSH1 0x1F ADD PUSH1 0x20 DUP1 SWAP2 DIV MUL PUSH1 0x20 ADD PUSH1 0x40 MLOAD SWAP1 DUP2 ADD PUSH1 0x40 MSTORE DUP1 SWAP3 SWAP2 SWAP1 DUP2 DUP2 MSTORE PUSH1 0x20 ADD DUP3 DUP1 SLOAD PUSH2 0xB0B SWAP1 PUSH2 0x1E13 JUMP JUMPDEST DUP1 ISZERO PUSH2 0xB56 JUMPI DUP1 PUSH1 0x1F LT PUSH2 0xB2D JUMPI PUSH2 0x100 DUP1 DUP4 SLOAD DIV MUL DUP4 MSTORE SWAP2 PUSH1 0x20 ADD SWAP2 PUSH2 0xB56 JUMP JUMPDEST DUP3 ADD SWAP2 SWAP1 PUSH0 MSTORE PUSH1 0x20 PUSH0 KECCAK256 SWAP1 JUMPDEST DUP2 SLOAD DUP2 MSTORE SWAP1 PUSH1 0x1 ADD SWAP1 PUSH1 0x20 ADD DUP1 DUP4 GT PUSH2 0xB39 JUMPI DUP3 SWAP1 SUB PUSH1 0x1F AND DUP3 ADD SWAP2 JUMPDEST POP POP POP POP POP DUP2 MSTORE PUSH1 0x20 ADD PUSH1 0x3 DUP3 ADD SLOAD DUP2 MSTORE PUSH1 0x20 ADD PUSH1 0x4 DUP3 ADD DUP1 SLOAD PUSH2 0xB79 SWAP1 PUSH2 0x1E13 JUMP JUMPDEST DUP1 PUSH1 0x1F ADD PUSH1 0x20 DUP1 SWAP2 DIV MUL PUSH1 0x20 ADD PUSH1 0x40 MLOAD SWAP1 DUP2 ADD PUSH1 0x40 MSTORE DUP1 SWAP3 SWAP2 SWAP1 DUP2 DUP2 MSTORE PUSH1 0x20 ADD DUP3 DUP1 SLOAD PUSH2 0xBA5 SWAP1 PUSH2 0x1E13 JUMP JUMPDEST DUP1 ISZERO PUSH2 0xBF0 JUMPI DUP1 PUSH1 0x1F LT PUSH2 0xBC7 JUMPI PUSH2 0x100 DUP1 DUP4 SLOAD DIV MUL DUP4 MSTORE SWAP2 PUSH1 0x20 ADD SWAP2 PUSH2 0xBF0 JUMP JUMPDEST DUP3 ADD SWAP2 SWAP1 PUSH0 MSTORE PUSH1 0x20 PUSH0 KECCAK256 SWAP1 JUMPDEST DUP2 SLOAD DUP2 MSTORE SWAP1 PUSH1 0x1 ADD SWAP1 PUSH1 0x20 ADD DUP1 DUP4 GT PUSH2 0xBD3 JUMPI DUP3 SWAP1 SUB PUSH1 0x1F AND DUP3 ADD SWAP2 JUMPDEST POP POP POP POP POP DUP2 MSTORE PUSH1 0x20 ADD PUSH1 0x5 DUP3 ADD SLOAD DUP2 MSTORE PUSH1 0x20 ADD PUSH1 0x6 DUP3 ADD SLOAD DUP2 MSTORE PUSH1 0x20 ADD PUSH1 0x7 DUP3 ADD PUSH0 SWAP1 SLOAD SWAP1 PUSH2 0x100 EXP SWAP1 DIV PUSH1 0xFF AND PUSH1 0x4 DUP2 GT ISZERO PUSH2 0xC31 JUMPI PUSH2 0xC30 PUSH2 0x16D4 JUMP JUMPDEST JUMPDEST PUSH1 0x4 DUP2 GT ISZERO PUSH2 0xC43 JUMPI PUSH2 0xC42 PUSH2 0x16D4 JUMP JUMPDEST JUMPDEST DUP2 MSTORE PUSH1 0x20 ADD PUSH1 0x7 DUP3 ADD PUSH1 0x1 SWAP1 SLOAD SWAP1 PUSH2 0x100 EXP SWAP1 DIV PUSH20 0xFFFFFFFFFFFFFFFFFFFFFFFFFFFFFFFFFFFFFFFF AND PUSH20 0xFFFFFFFFFFFFFFFFFFFFFFFFFFFFFFFFFFFFFFFF AND PUSH20 0xFFFFFFFFFFFFFFFFFFFFFFFFFFFFFFFFFFFFFFFF AND DUP2 MSTORE PUSH1 0x20 ADD PUSH1 0x8 DUP3 ADD PUSH0 SWAP1 SLOAD SWAP1 PUSH2 0x100 EXP SWAP1 DIV PUSH20 0xFFFFFFFFFFFFFFFFFFFFFFFFFFFFFFFFFFFFFFFF AND PUSH20 0xFFFFFFFFFFFFFFFFFFFFFFFFFFFFFFFFFFFFFFFF AND PUSH20 0xFFFFFFFFFFFFFFFFFFFFFFFFFFFFFFFFFFFFFFFF AND DUP2 MSTORE POP POP SWAP1 POP PUSH1 0x1 DUP2 PUSH1 0xE0 ADD SWAP1 PUSH1 0x4 DUP2 GT ISZERO PUSH2 0xD0D JUMPI PUSH2 0xD0C PUSH2 0x16D4 JUMP JUMPDEST JUMPDEST SWAP1 DUP2 PUSH1 0x4 DUP2 GT ISZERO PUSH2 0xD21 JUMPI PUSH2 0xD20 PUSH2 0x16D4 JUMP JUMPDEST JUMPDEST DUP2 MSTORE POP POP PUSH1 0x4 PUSH0 DUP5 DUP2 MSTORE PUSH1 0x20 ADD SWAP1 DUP2 MSTORE PUSH1 0x20 ADD PUSH0 KECCAK256 PUSH1 0x40 MLOAD DUP1 PUSH2 0x140 ADD PUSH1 0x40 MSTORE SWAP1 DUP2 PUSH0 DUP3 ADD SLOAD DUP2 MSTORE PUSH1 0x20 ADD PUSH1 0x1 DUP3 ADD SLOAD DUP2 MSTORE PUSH1 0x20 ADD PUSH1 0x2 DUP3 ADD DUP1 SLOAD PUSH2 0xD65 SWAP1 PUSH2 0x1E13 JUMP JUMPDEST DUP1 PUSH1 0x1F ADD PUSH1 0x20 DUP1 SWAP2 DIV MUL PUSH1 0x20 ADD PUSH1 0x40 MLOAD SWAP1 DUP2 ADD PUSH1 0x40 MSTORE DUP1 SWAP3 SWAP2 SWAP1 DUP2 DUP2 MSTORE PUSH1 0x20 ADD DUP3 DUP1 SLOAD PUSH2 0xD91 SWAP1 PUSH2 0x1E13 JUMP JUMPDEST DUP1 ISZERO PUSH2 0xDDC JUMPI DUP1 PUSH1 0x1F LT PUSH2 0xDB3 JUMPI PUSH2 0x100 DUP1 DUP4 SLOAD DIV MUL DUP4 MSTORE SWAP2 PUSH1 0x20 ADD SWAP2 PUSH2 0xDDC JUMP JUMPDEST DUP3 ADD SWAP2 SWAP1 PUSH0 MSTORE PUSH1 0x20 PUSH0 KECCAK256 SWAP1 JUMPDEST DUP2 SLOAD DUP2 MSTORE SWAP1 PUSH1 0x1 ADD SWAP1 PUSH1 0x20 ADD DUP1 DUP4 GT PUSH2 0xDBF JUMPI DUP3 SWAP1 SUB PUSH1 0x1F AND DUP3 ADD SWAP2 JUMPDEST POP POP POP POP POP DUP2 MSTORE PUSH1 0x20 ADD PUSH1 0x3 DUP3 ADD SLOAD DUP2 MSTORE PUSH1 0x20 ADD PUSH1 0x4 DUP3 ADD DUP1 SLOAD PUSH2 0xDFF SWAP1 PUSH2 0x1E13 JUMP JUMPDEST DUP1 PUSH1 0x1F ADD PUSH1 0x20 DUP1 SWAP2 DIV MUL PUSH1 0x20 ADD PUSH1 0x40 MLOAD SWAP1 DUP2 ADD PUSH1 0x40 MSTORE DUP1 SWAP3 SWAP2 SWAP1 DUP2 DUP2 MSTORE PUSH1 0x20 ADD DUP3 DUP1 SLOAD PUSH2 0xE2B SWAP1 PUSH2 0x1E13 JUMP JUMPDEST DUP1 ISZERO PUSH2 0xE76 JUMPI DUP1 PUSH1 0x1F LT PUSH2 0xE4D JUMPI PUSH2 0x100 DUP1 DUP4 SLOAD DIV MUL DUP4 MSTORE SWAP2 PUSH1 0x20 ADD SWAP2 PUSH2 0xE76 JUMP JUMPDEST DUP3 ADD SWAP2 SWAP1 PUSH0 MSTORE PUSH1 0x20 PUSH0 KECCAK256 SWAP1 JUMPDEST DUP2 SLOAD DUP2 MSTORE SWAP1 PUSH1 0x1 ADD SWAP1 PUSH1 0x20 ADD DUP1 DUP4 GT PUSH2 0xE59 JUMPI DUP3 SWAP1 SUB PUSH1 0x1F AND DUP3 ADD SWAP2 JUMPDEST POP POP POP POP POP DUP2 MSTORE PUSH1 0x20 ADD PUSH1 0x5 DUP3 ADD SLOAD DUP2 MSTORE PUSH1 0x20 ADD PUSH1 0x6 DUP3 ADD SLOAD DUP2 MSTORE PUSH1 0x20 ADD PUSH1 0x7 DUP3 ADD PUSH0 SWAP1 SLOAD SWAP1 PUSH2 0x100 EXP SWAP1 DIV PUSH1 0xFF AND PUSH1 0x4 DUP2 GT ISZERO PUSH2 0xEB7 JUMPI PUSH2 0xEB6 PUSH2 0x16D4 JUMP JUMPDEST JUMPDEST PUSH1 0x4 DUP2 GT ISZERO PUSH2 0xEC9 JUMPI PUSH2 0xEC8 PUSH2 0x16D4 JUMP JUMPDEST JUMPDEST DUP2 MSTORE PUSH1 0x20 ADD PUSH1 0x7 DUP3 ADD PUSH1 0x1 SWAP1 SLOAD SWAP1 PUSH2 0x100 EXP SWAP1 DIV PUSH20 0xFFFFFFFFFFFFFFFFFFFFFFFFFFFFFFFFFFFFFFFF AND PUSH20 0xFFFFFFFFFFFFFFFFFFFFFFFFFFFFFFFFFFFFFFFF AND PUSH20 0xFFFFFFFFFFFFFFFFFFFFFFFFFFFFFFFFFFFFFFFF AND DUP2 MSTORE PUSH1 0x20 ADD PUSH1 0x8 DUP3 ADD PUSH0 SWAP1 SLOAD SWAP1 PUSH2 0x100 EXP SWAP1 DIV PUSH20 0xFFFFFFFFFFFFFFFFFFFFFFFFFFFFFFFFFFFFFFFF AND PUSH20 0xFFFFFFFFFFFFFFFFFFFFFFFFFFFFFFFFFFFFFFFF AND PUSH20 0xFFFFFFFFFFFFFFFFFFFFFFFFFFFFFFFFFFFFFFFF AND DUP2 MSTORE POP POP SWAP2 POP POP SWAP2 SWAP1 POP JUMP JUMPDEST PUSH0 PUSH20 0x0 PUSH4 0x3B3EEBF6 CALLER PUSH1 0x5 PUSH1 0x40 MLOAD DUP4 PUSH4 0xFFFFFFFF AND PUSH1 0xE0 SHL DUP2 MSTORE PUSH1 0x4 ADD PUSH2 0xFBB SWAP3 SWAP2 SWAP1 PUSH2 0x20FF JUMP JUMPDEST PUSH1 0x20 PUSH1 0x40 MLOAD DUP1 DUP4 SUB DUP2 DUP7 GAS DELEGATECALL ISZERO DUP1 ISZERO PUSH2 0xFD6 JUMPI RETURNDATASIZE PUSH0 DUP1 RETURNDATACOPY RETURNDATASIZE PUSH0 REVERT JUMPDEST POP POP POP POP PUSH1 0x40 MLOAD RETURNDATASIZE PUSH1 0x1F NOT PUSH1 0x1F DUP3 ADD AND DUP3 ADD DUP1 PUSH1 0x40 MSTORE POP DUP2 ADD SWAP1 PUSH2 0xFFA SWAP2 SWAP1 PUSH2 0x2157 JUMP JUMPDEST SWAP1 POP PUSH1 0x1 ISZERO ISZERO DUP2 ISZERO ISZERO EQ PUSH2 0x1043 JUMPI PUSH1 0x40 MLOAD PUSH32 0x8C379A000000000000000000000000000000000000000000000000000000000 DUP2 MSTORE PUSH1 0x4 ADD PUSH2 0x103A SWAP1 PUSH2 0x1F54 JUMP JUMPDEST PUSH1 0x40 MLOAD DUP1 SWAP2 SUB SWAP1 REVERT JUMPDEST PUSH2 0x104B PUSH2 0x1431 JUMP JUMPDEST PUSH2 0x7DD DUP8 GT PUSH2 0x108F JUMPI PUSH1 0x40 MLOAD PUSH32 0x8C379A000000000000000000000000000000000000000000000000000000000 DUP2 MSTORE PUSH1 0x4 ADD PUSH2 0x1086 SWAP1 PUSH2 0x21F2 JUMP JUMPDEST PUSH1 0x40 MLOAD DUP1 SWAP2 SUB SWAP1 REVERT JUMPDEST PUSH1 0x1 DUP7 MLOAD GT PUSH2 0x10D3 JUMPI PUSH1 0x40 MLOAD PUSH32 0x8C379A000000000000000000000000000000000000000000000000000000000 DUP2 MSTORE PUSH1 0x4 ADD PUSH2 0x10CA SWAP1 PUSH2 0x2280 JUMP JUMPDEST PUSH1 0x40 MLOAD DUP1 SWAP2 SUB SWAP1 REVERT JUMPDEST PUSH0 DUP6 GT PUSH2 0x1115 JUMPI PUSH1 0x40 MLOAD PUSH32 0x8C379A000000000000000000000000000000000000000000000000000000000 DUP2 MSTORE PUSH1 0x4 ADD PUSH2 0x110C SWAP1 PUSH2 0x230E JUMP JUMPDEST PUSH1 0x40 MLOAD DUP1 SWAP2 SUB SWAP1 REVERT JUMPDEST PUSH0 PUSH20 0xFFFFFFFFFFFFFFFFFFFFFFFFFFFFFFFFFFFFFFFF AND DUP3 PUSH20 0xFFFFFFFFFFFFFFFFFFFFFFFFFFFFFFFFFFFFFFFF AND SUB PUSH2 0x1183 JUMPI PUSH1 0x40 MLOAD PUSH32 0x8C379A000000000000000000000000000000000000000000000000000000000 DUP2 MSTORE PUSH1 0x4 ADD PUSH2 0x117A SWAP1 PUSH2 0x239C JUMP JUMPDEST PUSH1 0x40 MLOAD DUP1 SWAP2 SUB SWAP1 REVERT JUMPDEST PUSH0 PUSH1 0x1 SLOAD DUP9 PUSH2 0x1192 SWAP2 SWAP1 PUSH2 0x1E70 JUMP JUMPDEST SWAP1 POP PUSH2 0x119E PUSH1 0x2 PUSH2 0x147E JUMP JUMPDEST PUSH0 PUSH2 0x11A9 PUSH1 0x2 PUSH2 0x1425 JUMP JUMPDEST SWAP1 POP PUSH0 PUSH1 0x40 MLOAD DUP1 PUSH2 0x140 ADD PUSH1 0x40 MSTORE DUP1 DUP4 DUP2 MSTORE PUSH1 0x20 ADD DUP12 DUP2 MSTORE PUSH1 0x20 ADD DUP11 DUP2 MSTORE PUSH1 0x20 ADD DUP10 DUP2 MSTORE PUSH1 0x20 ADD DUP8 DUP2 MSTORE PUSH1 0x20 ADD DUP9 DUP2 MSTORE PUSH1 0x20 ADD DUP5 DUP2 MSTORE PUSH1 0x20 ADD DUP3 PUSH1 0x4 DUP2 GT ISZERO PUSH2 0x11F5 JUMPI PUSH2 0x11F4 PUSH2 0x16D4 JUMP JUMPDEST JUMPDEST DUP2 MSTORE PUSH1 0x20 ADD ADDRESS PUSH20 0xFFFFFFFFFFFFFFFFFFFFFFFFFFFFFFFFFFFFFFFF AND DUP2 MSTORE PUSH1 0x20 ADD CALLER PUSH20 0xFFFFFFFFFFFFFFFFFFFFFFFFFFFFFFFFFFFFFFFF AND DUP2 MSTORE POP PUSH1 0x4 PUSH0 DUP5 DUP2 MSTORE PUSH1 0x20 ADD SWAP1 DUP2 MSTORE PUSH1 0x20 ADD PUSH0 KECCAK256 PUSH0 DUP3 ADD MLOAD DUP2 PUSH0 ADD SSTORE PUSH1 0x20 DUP3 ADD MLOAD DUP2 PUSH1 0x1 ADD SSTORE PUSH1 0x40 DUP3 ADD MLOAD DUP2 PUSH1 0x2 ADD SWAP1 DUP2 PUSH2 0x1268 SWAP2 SWAP1 PUSH2 0x2557 JUMP JUMPDEST POP PUSH1 0x60 DUP3 ADD MLOAD DUP2 PUSH1 0x3 ADD SSTORE PUSH1 0x80 DUP3 ADD MLOAD DUP2 PUSH1 0x4 ADD SWAP1 DUP2 PUSH2 0x1288 SWAP2 SWAP1 PUSH2 0x2557 JUMP JUMPDEST POP PUSH1 0xA0 DUP3 ADD MLOAD DUP2 PUSH1 0x5 ADD SSTORE PUSH1 0xC0 DUP3 ADD MLOAD DUP2 PUSH1 0x6 ADD SSTORE PUSH1 0xE0 DUP3 ADD MLOAD DUP2 PUSH1 0x7 ADD PUSH0 PUSH2 0x100 EXP DUP2 SLOAD DUP2 PUSH1 0xFF MUL NOT AND SWAP1 DUP4 PUSH1 0x4 DUP2 GT ISZERO PUSH2 0x12C7 JUMPI PUSH2 0x12C6 PUSH2 0x16D4 JUMP JUMPDEST JUMPDEST MUL OR SWAP1 SSTORE POP PUSH2 0x100 DUP3 ADD MLOAD DUP2 PUSH1 0x7 ADD PUSH1 0x1 PUSH2 0x100 EXP DUP2 SLOAD DUP2 PUSH20 0xFFFFFFFFFFFFFFFFFFFFFFFFFFFFFFFFFFFFFFFF MUL NOT AND SWAP1 DUP4 PUSH20 0xFFFFFFFFFFFFFFFFFFFFFFFFFFFFFFFFFFFFFFFF AND MUL OR SWAP1 SSTORE POP PUSH2 0x120 DUP3 ADD MLOAD DUP2 PUSH1 0x8 ADD PUSH0 PUSH2 0x100 EXP DUP2 SLOAD DUP2 PUSH20 0xFFFFFFFFFFFFFFFFFFFFFFFFFFFFFFFFFFFFFFFF MUL NOT AND SWAP1 DUP4 PUSH20 0xFFFFFFFFFFFFFFFFFFFFFFFFFFFFFFFFFFFFFFFF AND MUL OR SWAP1 SSTORE POP SWAP1 POP POP DUP5 PUSH20 0xFFFFFFFFFFFFFFFFFFFFFFFFFFFFFFFFFFFFFFFF AND PUSH4 0x23B872DD CALLER ADDRESS DUP11 PUSH1 0x40 MLOAD DUP5 PUSH4 0xFFFFFFFF AND PUSH1 0xE0 SHL DUP2 MSTORE PUSH1 0x4 ADD PUSH2 0x139B SWAP4 SWAP3 SWAP2 SWAP1 PUSH2 0x2644 JUMP JUMPDEST PUSH0 PUSH1 0x40 MLOAD DUP1 DUP4 SUB DUP2 PUSH0 DUP8 DUP1 EXTCODESIZE ISZERO DUP1 ISZERO PUSH2 0x13B2 JUMPI PUSH0 DUP1 REVERT JUMPDEST POP GAS CALL ISZERO DUP1 ISZERO PUSH2 0x13C4 JUMPI RETURNDATASIZE PUSH0 DUP1 RETURNDATACOPY RETURNDATASIZE PUSH0 REVERT JUMPDEST POP POP POP POP PUSH32 0x2306F6B321708807713355E7300D65DC8DA9237F920F61733611393207FD9481 DUP3 DUP12 DUP12 DUP12 DUP11 DUP13 DUP10 DUP9 ADDRESS CALLER PUSH1 0x40 MLOAD PUSH2 0x1409 SWAP11 SWAP10 SWAP9 SWAP8 SWAP7 SWAP6 SWAP5 SWAP4 SWAP3 SWAP2 SWAP1 PUSH2 0x26C0 JUMP JUMPDEST PUSH1 0x40 MLOAD DUP1 SWAP2 SUB SWAP1 LOG1 POP POP POP PUSH2 0x141C PUSH2 0x1492 JUMP JUMPDEST POP POP POP POP POP POP POP JUMP JUMPDEST PUSH0 DUP2 PUSH0 ADD SLOAD SWAP1 POP SWAP2 SWAP1 POP JUMP JUMPDEST PUSH1 0x2 PUSH0 SLOAD SUB PUSH2 0x1475 JUMPI PUSH1 0x40 MLOAD PUSH32 0x8C379A000000000000000000000000000000000000000000000000000000000 DUP2 MSTORE PUSH1 0x4 ADD PUSH2 0x146C SWAP1 PUSH2 0x27B2 JUMP JUMPDEST PUSH1 0x40 MLOAD DUP1 SWAP2 SUB SWAP1 REVERT JUMPDEST PUSH1 0x2 PUSH0 DUP2 SWAP1 SSTORE POP JUMP JUMPDEST PUSH1 0x1 DUP2 PUSH0 ADD PUSH0 DUP3 DUP3 SLOAD ADD SWAP3 POP POP DUP2 SWAP1 SSTORE POP POP JUMP JUMPDEST PUSH1 0x1 PUSH0 DUP2 SWAP1 SSTORE POP JUMP JUMPDEST PUSH1 0x40 MLOAD DUP1 PUSH2 0x140 ADD PUSH1 0x40 MSTORE DUP1 PUSH0 DUP2 MSTORE PUSH1 0x20 ADD PUSH0 DUP2 MSTORE PUSH1 0x20 ADD PUSH1 0x60 DUP2 MSTORE PUSH1 0x20 ADD PUSH0 DUP2 MSTORE PUSH1 0x20 ADD PUSH1 0x60 DUP2 MSTORE PUSH1 0x20 ADD PUSH0 DUP2 MSTORE PUSH1 0x20 ADD PUSH0 DUP2 MSTORE PUSH1 0x20 ADD PUSH0 PUSH1 0x4 DUP2 GT ISZERO PUSH2 0x14E6 JUMPI PUSH2 0x14E5 PUSH2 0x16D4 JUMP JUMPDEST JUMPDEST DUP2 MSTORE PUSH1 0x20 ADD PUSH0 PUSH20 0xFFFFFFFFFFFFFFFFFFFFFFFFFFFFFFFFFFFFFFFF AND DUP2 MSTORE PUSH1 0x20 ADD PUSH0 PUSH20 0xFFFFFFFFFFFFFFFFFFFFFFFFFFFFFFFFFFFFFFFF AND DUP2 MSTORE POP SWAP1 JUMP JUMPDEST PUSH0 PUSH1 0x40 MLOAD SWAP1 POP SWAP1 JUMP JUMPDEST PUSH0 DUP1 REVERT JUMPDEST PUSH0 DUP1 REVERT JUMPDEST PUSH0 DUP2 SWAP1 POP SWAP2 SWAP1 POP JUMP JUMPDEST PUSH2 0x1547 DUP2 PUSH2 0x1535 JUMP JUMPDEST DUP2 EQ PUSH2 0x1551 JUMPI PUSH0 DUP1 REVERT JUMPDEST POP JUMP JUMPDEST PUSH0 DUP2 CALLDATALOAD SWAP1 POP PUSH2 0x1562 DUP2 PUSH2 0x153E JUMP JUMPDEST SWAP3 SWAP2 POP POP JUMP JUMPDEST PUSH0 PUSH20 0xFFFFFFFFFFFFFFFFFFFFFFFFFFFFFFFFFFFFFFFF DUP3 AND SWAP1 POP SWAP2 SWAP1 POP JUMP JUMPDEST PUSH0 PUSH2 0x1591 DUP3 PUSH2 0x1568 JUMP JUMPDEST SWAP1 POP SWAP2 SWAP1 POP JUMP JUMPDEST PUSH2 0x15A1 DUP2 PUSH2 0x1587 JUMP JUMPDEST DUP2 EQ PUSH2 0x15AB JUMPI PUSH0 DUP1 REVERT JUMPDEST POP JUMP JUMPDEST PUSH0 DUP2 CALLDATALOAD SWAP1 POP PUSH2 0x15BC DUP2 PUSH2 0x1598 JUMP JUMPDEST SWAP3 SWAP2 POP POP JUMP JUMPDEST PUSH0 DUP1 PUSH0 PUSH1 0x60 DUP5 DUP7 SUB SLT ISZERO PUSH2 0x15D9 JUMPI PUSH2 0x15D8 PUSH2 0x152D JUMP JUMPDEST JUMPDEST PUSH0 PUSH2 0x15E6 DUP7 DUP3 DUP8 ADD PUSH2 0x1554 JUMP JUMPDEST SWAP4 POP POP PUSH1 0x20 PUSH2 0x15F7 DUP7 DUP3 DUP8 ADD PUSH2 0x1554 JUMP JUMPDEST SWAP3 POP POP PUSH1 0x40 PUSH2 0x1608 DUP7 DUP3 DUP8 ADD PUSH2 0x15AE JUMP JUMPDEST SWAP2 POP POP SWAP3 POP SWAP3 POP SWAP3 JUMP JUMPDEST PUSH0 DUP2 MLOAD SWAP1 POP SWAP2 SWAP1 POP JUMP JUMPDEST PUSH0 DUP3 DUP3 MSTORE PUSH1 0x20 DUP3 ADD SWAP1 POP SWAP3 SWAP2 POP POP JUMP JUMPDEST PUSH0 DUP2 SWAP1 POP PUSH1 0x20 DUP3 ADD SWAP1 POP SWAP2 SWAP1 POP JUMP JUMPDEST PUSH2 0x1644 DUP2 PUSH2 0x1535 JUMP JUMPDEST DUP3 MSTORE POP POP JUMP JUMPDEST PUSH0 DUP2 MLOAD SWAP1 POP SWAP2 SWAP1 POP JUMP JUMPDEST PUSH0 DUP3 DUP3 MSTORE PUSH1 0x20 DUP3 ADD SWAP1 POP SWAP3 SWAP2 POP POP JUMP JUMPDEST PUSH0 JUMPDEST DUP4 DUP2 LT ISZERO PUSH2 0x1681 JUMPI DUP1 DUP3 ADD MLOAD DUP2 DUP5 ADD MSTORE PUSH1 0x20 DUP2 ADD SWAP1 POP PUSH2 0x1666 JUMP JUMPDEST PUSH0 DUP5 DUP5 ADD MSTORE POP POP POP POP JUMP JUMPDEST PUSH0 PUSH1 0x1F NOT PUSH1 0x1F DUP4 ADD AND SWAP1 POP SWAP2 SWAP1 POP JUMP JUMPDEST PUSH0 PUSH2 0x16A6 DUP3 PUSH2 0x164A JUMP JUMPDEST PUSH2 0x16B0 DUP2 DUP6 PUSH2 0x1654 JUMP JUMPDEST SWAP4 POP PUSH2 0x16C0 DUP2 DUP6 PUSH1 0x20 DUP7 ADD PUSH2 0x1664 JUMP JUMPDEST PUSH2 0x16C9 DUP2 PUSH2 0x168C JUMP JUMPDEST DUP5 ADD SWAP2 POP POP SWAP3 SWAP2 POP POP JUMP JUMPDEST PUSH32 0x4E487B7100000000000000000000000000000000000000000000000000000000 PUSH0 MSTORE PUSH1 0x21 PUSH1 0x4 MSTORE PUSH1 0x24 PUSH0 REVERT JUMPDEST PUSH1 0x5 DUP2 LT PUSH2 0x1712 JUMPI PUSH2 0x1711 PUSH2 0x16D4 JUMP JUMPDEST JUMPDEST POP JUMP JUMPDEST PUSH0 DUP2 SWAP1 POP PUSH2 0x1722 DUP3 PUSH2 0x1701 JUMP JUMPDEST SWAP2 SWAP1 POP JUMP JUMPDEST PUSH0 PUSH2 0x1731 DUP3 PUSH2 0x1715 JUMP JUMPDEST SWAP1 POP SWAP2 SWAP1 POP JUMP JUMPDEST PUSH2 0x1741 DUP2 PUSH2 0x1727 JUMP JUMPDEST DUP3 MSTORE POP POP JUMP JUMPDEST PUSH2 0x1750 DUP2 PUSH2 0x1587 JUMP JUMPDEST DUP3 MSTORE POP POP JUMP JUMPDEST PUSH0 PUSH2 0x140 DUP4 ADD PUSH0 DUP4 ADD MLOAD PUSH2 0x176C PUSH0 DUP7 ADD DUP3 PUSH2 0x163B JUMP JUMPDEST POP PUSH1 0x20 DUP4 ADD MLOAD PUSH2 0x177F PUSH1 0x20 DUP7 ADD DUP3 PUSH2 0x163B JUMP JUMPDEST POP PUSH1 0x40 DUP4 ADD MLOAD DUP5 DUP3 SUB PUSH1 0x40 DUP7 ADD MSTORE PUSH2 0x1797 DUP3 DUP3 PUSH2 0x169C JUMP JUMPDEST SWAP2 POP POP PUSH1 0x60 DUP4 ADD MLOAD PUSH2 0x17AC PUSH1 0x60 DUP7 ADD DUP3 PUSH2 0x163B JUMP JUMPDEST POP PUSH1 0x80 DUP4 ADD MLOAD DUP5 DUP3 SUB PUSH1 0x80 DUP7 ADD MSTORE PUSH2 0x17C4 DUP3 DUP3 PUSH2 0x169C JUMP JUMPDEST SWAP2 POP POP PUSH1 0xA0 DUP4 ADD MLOAD PUSH2 0x17D9 PUSH1 0xA0 DUP7 ADD DUP3 PUSH2 0x163B JUMP JUMPDEST POP PUSH1 0xC0 DUP4 ADD MLOAD PUSH2 0x17EC PUSH1 0xC0 DUP7 ADD DUP3 PUSH2 0x163B JUMP JUMPDEST POP PUSH1 0xE0 DUP4 ADD MLOAD PUSH2 0x17FF PUSH1 0xE0 DUP7 ADD DUP3 PUSH2 0x1738 JUMP JUMPDEST POP PUSH2 0x100 DUP4 ADD MLOAD PUSH2 0x1814 PUSH2 0x100 DUP7 ADD DUP3 PUSH2 0x1747 JUMP JUMPDEST POP PUSH2 0x120 DUP4 ADD MLOAD PUSH2 0x1829 PUSH2 0x120 DUP7 ADD DUP3 PUSH2 0x1747 JUMP JUMPDEST POP DUP1 SWAP2 POP POP SWAP3 SWAP2 POP POP JUMP JUMPDEST PUSH0 PUSH2 0x183F DUP4 DUP4 PUSH2 0x1756 JUMP JUMPDEST SWAP1 POP SWAP3 SWAP2 POP POP JUMP JUMPDEST PUSH0 PUSH1 0x20 DUP3 ADD SWAP1 POP SWAP2 SWAP1 POP JUMP JUMPDEST PUSH0 PUSH2 0x185D DUP3 PUSH2 0x1612 JUMP JUMPDEST PUSH2 0x1867 DUP2 DUP6 PUSH2 0x161C JUMP JUMPDEST SWAP4 POP DUP4 PUSH1 0x20 DUP3 MUL DUP6 ADD PUSH2 0x1879 DUP6 PUSH2 0x162C JUMP JUMPDEST DUP1 PUSH0 JUMPDEST DUP6 DUP2 LT ISZERO PUSH2 0x18B4 JUMPI DUP5 DUP5 SUB DUP10 MSTORE DUP2 MLOAD PUSH2 0x1895 DUP6 DUP3 PUSH2 0x1834 JUMP JUMPDEST SWAP5 POP PUSH2 0x18A0 DUP4 PUSH2 0x1847 JUMP JUMPDEST SWAP3 POP PUSH1 0x20 DUP11 ADD SWAP10 POP POP PUSH1 0x1 DUP2 ADD SWAP1 POP PUSH2 0x187C JUMP JUMPDEST POP DUP3 SWAP8 POP DUP8 SWAP6 POP POP POP POP POP POP SWAP3 SWAP2 POP POP JUMP JUMPDEST PUSH0 PUSH1 0x20 DUP3 ADD SWAP1 POP DUP2 DUP2 SUB PUSH0 DUP4 ADD MSTORE PUSH2 0x18DE DUP2 DUP5 PUSH2 0x1853 JUMP JUMPDEST SWAP1 POP SWAP3 SWAP2 POP POP JUMP JUMPDEST PUSH0 PUSH1 0x20 DUP3 DUP5 SUB SLT ISZERO PUSH2 0x18FB JUMPI PUSH2 0x18FA PUSH2 0x152D JUMP JUMPDEST JUMPDEST PUSH0 PUSH2 0x1908 DUP5 DUP3 DUP6 ADD PUSH2 0x15AE JUMP JUMPDEST SWAP2 POP POP SWAP3 SWAP2 POP POP JUMP JUMPDEST PUSH0 DUP2 ISZERO ISZERO SWAP1 POP SWAP2 SWAP1 POP JUMP JUMPDEST PUSH2 0x1925 DUP2 PUSH2 0x1911 JUMP JUMPDEST DUP3 MSTORE POP POP JUMP JUMPDEST PUSH0 PUSH1 0x20 DUP3 ADD SWAP1 POP PUSH2 0x193E PUSH0 DUP4 ADD DUP5 PUSH2 0x191C JUMP JUMPDEST SWAP3 SWAP2 POP POP JUMP JUMPDEST PUSH0 PUSH1 0x20 DUP3 DUP5 SUB SLT ISZERO PUSH2 0x1959 JUMPI PUSH2 0x1958 PUSH2 0x152D JUMP JUMPDEST JUMPDEST PUSH0 PUSH2 0x1966 DUP5 DUP3 DUP6 ADD PUSH2 0x1554 JUMP JUMPDEST SWAP2 POP POP SWAP3 SWAP2 POP POP JUMP JUMPDEST PUSH0 PUSH2 0x140 DUP4 ADD PUSH0 DUP4 ADD MLOAD PUSH2 0x1985 PUSH0 DUP7 ADD DUP3 PUSH2 0x163B JUMP JUMPDEST POP PUSH1 0x20 DUP4 ADD MLOAD PUSH2 0x1998 PUSH1 0x20 DUP7 ADD DUP3 PUSH2 0x163B JUMP JUMPDEST POP PUSH1 0x40 DUP4 ADD MLOAD DUP5 DUP3 SUB PUSH1 0x40 DUP7 ADD MSTORE PUSH2 0x19B0 DUP3 DUP3 PUSH2 0x169C JUMP JUMPDEST SWAP2 POP POP PUSH1 0x60 DUP4 ADD MLOAD PUSH2 0x19C5 PUSH1 0x60 DUP7 ADD DUP3 PUSH2 0x163B JUMP JUMPDEST POP PUSH1 0x80 DUP4 ADD MLOAD DUP5 DUP3 SUB PUSH1 0x80 DUP7 ADD MSTORE PUSH2 0x19DD DUP3 DUP3 PUSH2 0x169C JUMP JUMPDEST SWAP2 POP POP PUSH1 0xA0 DUP4 ADD MLOAD PUSH2 0x19F2 PUSH1 0xA0 DUP7 ADD DUP3 PUSH2 0x163B JUMP JUMPDEST POP PUSH1 0xC0 DUP4 ADD MLOAD PUSH2 0x1A05 PUSH1 0xC0 DUP7 ADD DUP3 PUSH2 0x163B JUMP JUMPDEST POP PUSH1 0xE0 DUP4 ADD MLOAD PUSH2 0x1A18 PUSH1 0xE0 DUP7 ADD DUP3 PUSH2 0x1738 JUMP JUMPDEST POP PUSH2 0x100 DUP4 ADD MLOAD PUSH2 0x1A2D PUSH2 0x100 DUP7 ADD DUP3 PUSH2 0x1747 JUMP JUMPDEST POP PUSH2 0x120 DUP4 ADD MLOAD PUSH2 0x1A42 PUSH2 0x120 DUP7 ADD DUP3 PUSH2 0x1747 JUMP JUMPDEST POP DUP1 SWAP2 POP POP SWAP3 SWAP2 POP POP JUMP JUMPDEST PUSH0 PUSH1 0x20 DUP3 ADD SWAP1 POP DUP2 DUP2 SUB PUSH0 DUP4 ADD MSTORE PUSH2 0x1A65 DUP2 DUP5 PUSH2 0x196F JUMP JUMPDEST SWAP1 POP SWAP3 SWAP2 POP POP JUMP JUMPDEST PUSH0 DUP1 REVERT JUMPDEST PUSH0 DUP1 REVERT JUMPDEST PUSH32 0x4E487B7100000000000000000000000000000000000000000000000000000000 PUSH0 MSTORE PUSH1 0x41 PUSH1 0x4 MSTORE PUSH1 0x24 PUSH0 REVERT JUMPDEST PUSH2 0x1AAB DUP3 PUSH2 0x168C JUMP JUMPDEST DUP2 ADD DUP2 DUP2 LT PUSH8 0xFFFFFFFFFFFFFFFF DUP3 GT OR ISZERO PUSH2 0x1ACA JUMPI PUSH2 0x1AC9 PUSH2 0x1A75 JUMP JUMPDEST JUMPDEST DUP1 PUSH1 0x40 MSTORE POP POP POP JUMP JUMPDEST PUSH0 PUSH2 0x1ADC PUSH2 0x1524 JUMP JUMPDEST SWAP1 POP PUSH2 0x1AE8 DUP3 DUP3 PUSH2 0x1AA2 JUMP JUMPDEST SWAP2 SWAP1 POP JUMP JUMPDEST PUSH0 PUSH8 0xFFFFFFFFFFFFFFFF DUP3 GT ISZERO PUSH2 0x1B07 JUMPI PUSH2 0x1B06 PUSH2 0x1A75 JUMP JUMPDEST JUMPDEST PUSH2 0x1B10 DUP3 PUSH2 0x168C JUMP JUMPDEST SWAP1 POP PUSH1 0x20 DUP2 ADD SWAP1 POP SWAP2 SWAP1 POP JUMP JUMPDEST DUP3 DUP2 DUP4 CALLDATACOPY PUSH0 DUP4 DUP4 ADD MSTORE POP POP POP JUMP JUMPDEST PUSH0 PUSH2 0x1B3D PUSH2 0x1B38 DUP5 PUSH2 0x1AED JUMP JUMPDEST PUSH2 0x1AD3 JUMP JUMPDEST SWAP1 POP DUP3 DUP2 MSTORE PUSH1 0x20 DUP2 ADD DUP5 DUP5 DUP5 ADD GT ISZERO PUSH2 0x1B59 JUMPI PUSH2 0x1B58 PUSH2 0x1A71 JUMP JUMPDEST JUMPDEST PUSH2 0x1B64 DUP5 DUP3 DUP6 PUSH2 0x1B1D JUMP JUMPDEST POP SWAP4 SWAP3 POP POP POP JUMP JUMPDEST PUSH0 DUP3 PUSH1 0x1F DUP4 ADD SLT PUSH2 0x1B80 JUMPI PUSH2 0x1B7F PUSH2 0x1A6D JUMP JUMPDEST JUMPDEST DUP2 CALLDATALOAD PUSH2 0x1B90 DUP5 DUP3 PUSH1 0x20 DUP7 ADD PUSH2 0x1B2B JUMP JUMPDEST SWAP2 POP POP SWAP3 SWAP2 POP POP JUMP JUMPDEST PUSH0 DUP1 PUSH0 DUP1 PUSH0 DUP1 PUSH1 0xC0 DUP8 DUP10 SUB SLT ISZERO PUSH2 0x1BB3 JUMPI PUSH2 0x1BB2 PUSH2 0x152D JUMP JUMPDEST JUMPDEST PUSH0 PUSH2 0x1BC0 DUP10 DUP3 DUP11 ADD PUSH2 0x1554 JUMP JUMPDEST SWAP7 POP POP PUSH1 0x20 DUP8 ADD CALLDATALOAD PUSH8 0xFFFFFFFFFFFFFFFF DUP2 GT ISZERO PUSH2 0x1BE1 JUMPI PUSH2 0x1BE0 PUSH2 0x1531 JUMP JUMPDEST JUMPDEST PUSH2 0x1BED DUP10 DUP3 DUP11 ADD PUSH2 0x1B6C JUMP JUMPDEST SWAP6 POP POP PUSH1 0x40 PUSH2 0x1BFE DUP10 DUP3 DUP11 ADD PUSH2 0x1554 JUMP JUMPDEST SWAP5 POP POP PUSH1 0x60 PUSH2 0x1C0F DUP10 DUP3 DUP11 ADD PUSH2 0x1554 JUMP JUMPDEST SWAP4 POP POP PUSH1 0x80 DUP8 ADD CALLDATALOAD PUSH8 0xFFFFFFFFFFFFFFFF DUP2 GT ISZERO PUSH2 0x1C30 JUMPI PUSH2 0x1C2F PUSH2 0x1531 JUMP JUMPDEST JUMPDEST PUSH2 0x1C3C DUP10 DUP3 DUP11 ADD PUSH2 0x1B6C JUMP JUMPDEST SWAP3 POP POP PUSH1 0xA0 PUSH2 0x1C4D DUP10 DUP3 DUP11 ADD PUSH2 0x15AE JUMP JUMPDEST SWAP2 POP POP SWAP3 SWAP6 POP SWAP3 SWAP6 POP SWAP3 SWAP6 JUMP JUMPDEST PUSH0 DUP3 DUP3 MSTORE PUSH1 0x20 DUP3 ADD SWAP1 POP SWAP3 SWAP2 POP POP JUMP JUMPDEST PUSH32 0x50616765206E756D6265722073686F756C642062652067726561746572207468 PUSH0 DUP3 ADD MSTORE PUSH32 0x616E203000000000000000000000000000000000000000000000000000000000 PUSH1 0x20 DUP3 ADD MSTORE POP JUMP JUMPDEST PUSH0 PUSH2 0x1CC4 PUSH1 0x24 DUP4 PUSH2 0x1C5A JUMP JUMPDEST SWAP2 POP PUSH2 0x1CCF DUP3 PUSH2 0x1C6A JUMP JUMPDEST PUSH1 0x40 DUP3 ADD SWAP1 POP SWAP2 SWAP1 POP JUMP JUMPDEST PUSH0 PUSH1 0x20 DUP3 ADD SWAP1 POP DUP2 DUP2 SUB PUSH0 DUP4 ADD MSTORE PUSH2 0x1CF1 DUP2 PUSH2 0x1CB8 JUMP JUMPDEST SWAP1 POP SWAP2 SWAP1 POP JUMP JUMPDEST PUSH32 0x506167652073697A652073686F756C642062652067726561746572207468616E PUSH0 DUP3 ADD MSTORE PUSH32 0x2030000000000000000000000000000000000000000000000000000000000000 PUSH1 0x20 DUP3 ADD MSTORE POP JUMP JUMPDEST PUSH0 PUSH2 0x1D52 PUSH1 0x22 DUP4 PUSH2 0x1C5A JUMP JUMPDEST SWAP2 POP PUSH2 0x1D5D DUP3 PUSH2 0x1CF8 JUMP JUMPDEST PUSH1 0x40 DUP3 ADD SWAP1 POP SWAP2 SWAP1 POP JUMP JUMPDEST PUSH0 PUSH1 0x20 DUP3 ADD SWAP1 POP DUP2 DUP2 SUB PUSH0 DUP4 ADD MSTORE PUSH2 0x1D7F DUP2 PUSH2 0x1D46 JUMP JUMPDEST SWAP1 POP SWAP2 SWAP1 POP JUMP JUMPDEST PUSH32 0x4E487B7100000000000000000000000000000000000000000000000000000000 PUSH0 MSTORE PUSH1 0x11 PUSH1 0x4 MSTORE PUSH1 0x24 PUSH0 REVERT JUMPDEST PUSH0 PUSH2 0x1DBD DUP3 PUSH2 0x1535 JUMP JUMPDEST SWAP2 POP PUSH2 0x1DC8 DUP4 PUSH2 0x1535 JUMP JUMPDEST SWAP3 POP DUP3 DUP3 ADD SWAP1 POP DUP1 DUP3 GT ISZERO PUSH2 0x1DE0 JUMPI PUSH2 0x1DDF PUSH2 0x1D86 JUMP JUMPDEST JUMPDEST SWAP3 SWAP2 POP POP JUMP JUMPDEST PUSH32 0x4E487B7100000000000000000000000000000000000000000000000000000000 PUSH0 MSTORE PUSH1 0x22 PUSH1 0x4 MSTORE PUSH1 0x24 PUSH0 REVERT JUMPDEST PUSH0 PUSH1 0x2 DUP3 DIV SWAP1 POP PUSH1 0x1 DUP3 AND DUP1 PUSH2 0x1E2A JUMPI PUSH1 0x7F DUP3 AND SWAP2 POP JUMPDEST PUSH1 0x20 DUP3 LT DUP2 SUB PUSH2 0x1E3D JUMPI PUSH2 0x1E3C PUSH2 0x1DE6 JUMP JUMPDEST JUMPDEST POP SWAP2 SWAP1 POP JUMP JUMPDEST PUSH32 0x4E487B7100000000000000000000000000000000000000000000000000000000 PUSH0 MSTORE PUSH1 0x32 PUSH1 0x4 MSTORE PUSH1 0x24 PUSH0 REVERT JUMPDEST PUSH0 PUSH2 0x1E7A DUP3 PUSH2 0x1535 JUMP JUMPDEST SWAP2 POP PUSH2 0x1E85 DUP4 PUSH2 0x1535 JUMP JUMPDEST SWAP3 POP DUP3 DUP3 SUB SWAP1 POP DUP2 DUP2 GT ISZERO PUSH2 0x1E9D JUMPI PUSH2 0x1E9C PUSH2 0x1D86 JUMP JUMPDEST JUMPDEST SWAP3 SWAP2 POP POP JUMP JUMPDEST PUSH0 PUSH2 0x1EAD DUP3 PUSH2 0x1535 JUMP JUMPDEST SWAP2 POP PUSH2 0x1EB8 DUP4 PUSH2 0x1535 JUMP JUMPDEST SWAP3 POP DUP3 DUP3 MUL PUSH2 0x1EC6 DUP2 PUSH2 0x1535 JUMP JUMPDEST SWAP2 POP DUP3 DUP3 DIV DUP5 EQ DUP4 ISZERO OR PUSH2 0x1EDD JUMPI PUSH2 0x1EDC PUSH2 0x1D86 JUMP JUMPDEST JUMPDEST POP SWAP3 SWAP2 POP POP JUMP JUMPDEST PUSH32 0x446F6E742068617665207065726D697373696F6E20746F20646F207468697320 PUSH0 DUP3 ADD MSTORE PUSH32 0x6F7065726174696F6E0000000000000000000000000000000000000000000000 PUSH1 0x20 DUP3 ADD MSTORE POP JUMP JUMPDEST PUSH0 PUSH2 0x1F3E PUSH1 0x29 DUP4 PUSH2 0x1C5A JUMP JUMPDEST SWAP2 POP PUSH2 0x1F49 DUP3 PUSH2 0x1EE4 JUMP JUMPDEST PUSH1 0x40 DUP3 ADD SWAP1 POP SWAP2 SWAP1 POP JUMP JUMPDEST PUSH0 PUSH1 0x20 DUP3 ADD SWAP1 POP DUP2 DUP2 SUB PUSH0 DUP4 ADD MSTORE PUSH2 0x1F6B DUP2 PUSH2 0x1F32 JUMP JUMPDEST SWAP1 POP SWAP2 SWAP1 POP JUMP JUMPDEST PUSH32 0x4964204E6F7420466F756E640000000000000000000000000000000000000000 PUSH0 DUP3 ADD MSTORE POP JUMP JUMPDEST PUSH0 PUSH2 0x1FA6 PUSH1 0xC DUP4 PUSH2 0x1C5A JUMP JUMPDEST SWAP2 POP PUSH2 0x1FB1 DUP3 PUSH2 0x1F72 JUMP JUMPDEST PUSH1 0x20 DUP3 ADD SWAP1 POP SWAP2 SWAP1 POP JUMP JUMPDEST PUSH0 PUSH1 0x20 DUP3 ADD SWAP1 POP DUP2 DUP2 SUB PUSH0 DUP4 ADD MSTORE PUSH2 0x1FD3 DUP2 PUSH2 0x1F9A JUMP JUMPDEST SWAP1 POP SWAP2 SWAP1 POP JUMP JUMPDEST PUSH2 0x1FE3 DUP2 PUSH2 0x1587 JUMP JUMPDEST DUP3 MSTORE POP POP JUMP JUMPDEST PUSH0 DUP2 SLOAD SWAP1 POP SWAP2 SWAP1 POP JUMP JUMPDEST PUSH0 DUP3 DUP3 MSTORE PUSH1 0x20 DUP3 ADD SWAP1 POP SWAP3 SWAP2 POP POP JUMP JUMPDEST PUSH0 DUP2 SWAP1 POP DUP2 PUSH0 MSTORE PUSH1 0x20 PUSH0 KECCAK256 SWAP1 POP SWAP2 SWAP1 POP JUMP JUMPDEST PUSH2 0x201E DUP2 PUSH2 0x1587 JUMP JUMPDEST DUP3 MSTORE POP POP JUMP JUMPDEST PUSH0 PUSH2 0x202F DUP4 DUP4 PUSH2 0x2015 JUMP JUMPDEST PUSH1 0x20 DUP4 ADD SWAP1 POP SWAP3 SWAP2 POP POP JUMP JUMPDEST PUSH0 DUP2 PUSH0 SHR SWAP1 POP SWAP2 SWAP1 POP JUMP JUMPDEST PUSH0 PUSH20 0xFFFFFFFFFFFFFFFFFFFFFFFFFFFFFFFFFFFFFFFF DUP3 AND SWAP1 POP SWAP2 SWAP1 POP JUMP JUMPDEST PUSH0 PUSH2 0x2077 PUSH2 0x2072 DUP4 PUSH2 0x203B JUMP JUMPDEST PUSH2 0x2046 JUMP JUMPDEST SWAP1 POP SWAP2 SWAP1 POP JUMP JUMPDEST PUSH0 PUSH2 0x2089 DUP3 SLOAD PUSH2 0x2065 JUMP JUMPDEST SWAP1 POP SWAP2 SWAP1 POP JUMP JUMPDEST PUSH0 PUSH1 0x1 DUP3 ADD SWAP1 POP SWAP2 SWAP1 POP JUMP JUMPDEST PUSH0 PUSH2 0x20A6 DUP3 PUSH2 0x1FE9 JUMP JUMPDEST PUSH2 0x20B0 DUP2 DUP6 PUSH2 0x1FF3 JUMP JUMPDEST SWAP4 POP PUSH2 0x20BB DUP4 PUSH2 0x2003 JUMP JUMPDEST DUP1 PUSH0 JUMPDEST DUP4 DUP2 LT ISZERO PUSH2 0x20F2 JUMPI PUSH2 0x20CF DUP3 PUSH2 0x207E JUMP JUMPDEST PUSH2 0x20D9 DUP9 DUP3 PUSH2 0x2024 JUMP JUMPDEST SWAP8 POP PUSH2 0x20E4 DUP4 PUSH2 0x2090 JUMP JUMPDEST SWAP3 POP POP PUSH1 0x1 DUP2 ADD SWAP1 POP PUSH2 0x20BE JUMP JUMPDEST POP DUP6 SWAP4 POP POP POP POP SWAP3 SWAP2 POP POP JUMP JUMPDEST PUSH0 PUSH1 0x40 DUP3 ADD SWAP1 POP PUSH2 0x2112 PUSH0 DUP4 ADD DUP6 PUSH2 0x1FDA JUMP JUMPDEST DUP2 DUP2 SUB PUSH1 0x20 DUP4 ADD MSTORE PUSH2 0x2124 DUP2 DUP5 PUSH2 0x209C JUMP JUMPDEST SWAP1 POP SWAP4 SWAP3 POP POP POP JUMP JUMPDEST PUSH2 0x2136 DUP2 PUSH2 0x1911 JUMP JUMPDEST DUP2 EQ PUSH2 0x2140 JUMPI PUSH0 DUP1 REVERT JUMPDEST POP JUMP JUMPDEST PUSH0 DUP2 MLOAD SWAP1 POP PUSH2 0x2151 DUP2 PUSH2 0x212D JUMP JUMPDEST SWAP3 SWAP2 POP POP JUMP JUMPDEST PUSH0 PUSH1 0x20 DUP3 DUP5 SUB SLT ISZERO PUSH2 0x216C JUMPI PUSH2 0x216B PUSH2 0x152D JUMP JUMPDEST JUMPDEST PUSH0 PUSH2 0x2179 DUP5 DUP3 DUP6 ADD PUSH2 0x2143 JUMP JUMPDEST SWAP2 POP POP SWAP3 SWAP2 POP POP JUMP JUMPDEST PUSH32 0x436172204D6F64656C2073686F75646C206265206C6172676572207468616E20 PUSH0 DUP3 ADD MSTORE PUSH32 0x3230313300000000000000000000000000000000000000000000000000000000 PUSH1 0x20 DUP3 ADD MSTORE POP JUMP JUMPDEST PUSH0 PUSH2 0x21DC PUSH1 0x24 DUP4 PUSH2 0x1C5A JUMP JUMPDEST SWAP2 POP PUSH2 0x21E7 DUP3 PUSH2 0x2182 JUMP JUMPDEST PUSH1 0x40 DUP3 ADD SWAP1 POP SWAP2 SWAP1 POP JUMP JUMPDEST PUSH0 PUSH1 0x20 DUP3 ADD SWAP1 POP DUP2 DUP2 SUB PUSH0 DUP4 ADD MSTORE PUSH2 0x2209 DUP2 PUSH2 0x21D0 JUMP JUMPDEST SWAP1 POP SWAP2 SWAP1 POP JUMP JUMPDEST PUSH32 0x436172205F76696D5F6E756D6265722073686F75646C206265206C6172676572 PUSH0 DUP3 ADD MSTORE PUSH32 0x207468616E203234206368617273000000000000000000000000000000000000 PUSH1 0x20 DUP3 ADD MSTORE POP JUMP JUMPDEST PUSH0 PUSH2 0x226A PUSH1 0x2E DUP4 PUSH2 0x1C5A JUMP JUMPDEST SWAP2 POP PUSH2 0x2275 DUP3 PUSH2 0x2210 JUMP JUMPDEST PUSH1 0x40 DUP3 ADD SWAP1 POP SWAP2 SWAP1 POP JUMP JUMPDEST PUSH0 PUSH1 0x20 DUP3 ADD SWAP1 POP DUP2 DUP2 SUB PUSH0 DUP4 ADD MSTORE PUSH2 0x2297 DUP2 PUSH2 0x225E JUMP JUMPDEST SWAP1 POP SWAP2 SWAP1 POP JUMP JUMPDEST PUSH32 0x5F636F6D70616E795F6E756D6265722073686F75646C206265206C6172676572 PUSH0 DUP3 ADD MSTORE PUSH32 0x207468616E205A65726F00000000000000000000000000000000000000000000 PUSH1 0x20 DUP3 ADD MSTORE POP JUMP JUMPDEST PUSH0 PUSH2 0x22F8 PUSH1 0x2A DUP4 PUSH2 0x1C5A JUMP JUMPDEST SWAP2 POP PUSH2 0x2303 DUP3 PUSH2 0x229E JUMP JUMPDEST PUSH1 0x40 DUP3 ADD SWAP1 POP SWAP2 SWAP1 POP JUMP JUMPDEST PUSH0 PUSH1 0x20 DUP3 ADD SWAP1 POP DUP2 DUP2 SUB PUSH0 DUP4 ADD MSTORE PUSH2 0x2325 DUP2 PUSH2 0x22EC JUMP JUMPDEST SWAP1 POP SWAP2 SWAP1 POP JUMP JUMPDEST PUSH32 0x416464726573732073686F756C64206E6F7420626520657175616C2030783020 PUSH0 DUP3 ADD MSTORE PUSH32 0x6F72206E756C6C65640000000000000000000000000000000000000000000000 PUSH1 0x20 DUP3 ADD MSTORE POP JUMP JUMPDEST PUSH0 PUSH2 0x2386 PUSH1 0x29 DUP4 PUSH2 0x1C5A JUMP JUMPDEST SWAP2 POP PUSH2 0x2391 DUP3 PUSH2 0x232C JUMP JUMPDEST PUSH1 0x40 DUP3 ADD SWAP1 POP SWAP2 SWAP1 POP JUMP JUMPDEST PUSH0 PUSH1 0x20 DUP3 ADD SWAP1 POP DUP2 DUP2 SUB PUSH0 DUP4 ADD MSTORE PUSH2 0x23B3 DUP2 PUSH2 0x237A JUMP JUMPDEST SWAP1 POP SWAP2 SWAP1 POP JUMP JUMPDEST PUSH0 DUP2 SWAP1 POP DUP2 PUSH0 MSTORE PUSH1 0x20 PUSH0 KECCAK256 SWAP1 POP SWAP2 SWAP1 POP JUMP JUMPDEST PUSH0 PUSH1 0x20 PUSH1 0x1F DUP4 ADD DIV SWAP1 POP SWAP2 SWAP1 POP JUMP JUMPDEST PUSH0 DUP3 DUP3 SHL SWAP1 POP SWAP3 SWAP2 POP POP JUMP JUMPDEST PUSH0 PUSH1 0x8 DUP4 MUL PUSH2 0x2416 PUSH32 0xFFFFFFFFFFFFFFFFFFFFFFFFFFFFFFFFFFFFFFFFFFFFFFFFFFFFFFFFFFFFFFFF DUP3 PUSH2 0x23DB JUMP JUMPDEST PUSH2 0x2420 DUP7 DUP4 PUSH2 0x23DB JUMP JUMPDEST SWAP6 POP DUP1 NOT DUP5 AND SWAP4 POP DUP1 DUP7 AND DUP5 OR SWAP3 POP POP POP SWAP4 SWAP3 POP POP POP JUMP JUMPDEST PUSH0 DUP2 SWAP1 POP SWAP2 SWAP1 POP JUMP JUMPDEST PUSH0 PUSH2 0x245B PUSH2 0x2456 PUSH2 0x2451 DUP5 PUSH2 0x1535 JUMP JUMPDEST PUSH2 0x2438 JUMP JUMPDEST PUSH2 0x1535 JUMP JUMPDEST SWAP1 POP SWAP2 SWAP1 POP JUMP JUMPDEST PUSH0 DUP2 SWAP1 POP SWAP2 SWAP1 POP JUMP JUMPDEST PUSH2 0x2474 DUP4 PUSH2 0x2441 JUMP JUMPDEST PUSH2 0x2488 PUSH2 0x2480 DUP3 PUSH2 0x2462 JUMP JUMPDEST DUP5 DUP5 SLOAD PUSH2 0x23E7 JUMP JUMPDEST DUP3 SSTORE POP POP POP POP JUMP JUMPDEST PUSH0 SWAP1 JUMP JUMPDEST PUSH2 0x249C PUSH2 0x2490 JUMP JUMPDEST PUSH2 0x24A7 DUP2 DUP5 DUP5 PUSH2 0x246B JUMP JUMPDEST POP POP POP JUMP JUMPDEST JUMPDEST DUP2 DUP2 LT ISZERO PUSH2 0x24CA JUMPI PUSH2 0x24BF PUSH0 DUP3 PUSH2 0x2494 JUMP JUMPDEST PUSH1 0x1 DUP2 ADD SWAP1 POP PUSH2 0x24AD JUMP JUMPDEST POP POP JUMP JUMPDEST PUSH1 0x1F DUP3 GT ISZERO PUSH2 0x250F JUMPI PUSH2 0x24E0 DUP2 PUSH2 0x23BA JUMP JUMPDEST PUSH2 0x24E9 DUP5 PUSH2 0x23CC JUMP JUMPDEST DUP2 ADD PUSH1 0x20 DUP6 LT ISZERO PUSH2 0x24F8 JUMPI DUP2 SWAP1 POP JUMPDEST PUSH2 0x250C PUSH2 0x2504 DUP6 PUSH2 0x23CC JUMP JUMPDEST DUP4 ADD DUP3 PUSH2 0x24AC JUMP JUMPDEST POP POP JUMPDEST POP POP POP JUMP JUMPDEST PUSH0 DUP3 DUP3 SHR SWAP1 POP SWAP3 SWAP2 POP POP JUMP JUMPDEST PUSH0 PUSH2 0x252F PUSH0 NOT DUP5 PUSH1 0x8 MUL PUSH2 0x2514 JUMP JUMPDEST NOT DUP1 DUP4 AND SWAP2 POP POP SWAP3 SWAP2 POP POP JUMP JUMPDEST PUSH0 PUSH2 0x2547 DUP4 DUP4 PUSH2 0x2520 JUMP JUMPDEST SWAP2 POP DUP3 PUSH1 0x2 MUL DUP3 OR SWAP1 POP SWAP3 SWAP2 POP POP JUMP JUMPDEST PUSH2 0x2560 DUP3 PUSH2 0x164A JUMP JUMPDEST PUSH8 0xFFFFFFFFFFFFFFFF DUP2 GT ISZERO PUSH2 0x2579 JUMPI PUSH2 0x2578 PUSH2 0x1A75 JUMP JUMPDEST JUMPDEST PUSH2 0x2583 DUP3 SLOAD PUSH2 0x1E13 JUMP JUMPDEST PUSH2 0x258E DUP3 DUP3 DUP6 PUSH2 0x24CE JUMP JUMPDEST PUSH0 PUSH1 0x20 SWAP1 POP PUSH1 0x1F DUP4 GT PUSH1 0x1 DUP2 EQ PUSH2 0x25BF JUMPI PUSH0 DUP5 ISZERO PUSH2 0x25AD JUMPI DUP3 DUP8 ADD MLOAD SWAP1 POP JUMPDEST PUSH2 0x25B7 DUP6 DUP3 PUSH2 0x253C JUMP JUMPDEST DUP7 SSTORE POP PUSH2 0x261E JUMP JUMPDEST PUSH1 0x1F NOT DUP5 AND PUSH2 0x25CD DUP7 PUSH2 0x23BA JUMP JUMPDEST PUSH0 JUMPDEST DUP3 DUP2 LT ISZERO PUSH2 0x25F4 JUMPI DUP5 DUP10 ADD MLOAD DUP3 SSTORE PUSH1 0x1 DUP3 ADD SWAP2 POP PUSH1 0x20 DUP6 ADD SWAP5 POP PUSH1 0x20 DUP2 ADD SWAP1 POP PUSH2 0x25CF JUMP JUMPDEST DUP7 DUP4 LT ISZERO PUSH2 0x2611 JUMPI DUP5 DUP10 ADD MLOAD PUSH2 0x260D PUSH1 0x1F DUP10 AND DUP3 PUSH2 0x2520 JUMP JUMPDEST DUP4 SSTORE POP JUMPDEST PUSH1 0x1 PUSH1 0x2 DUP9 MUL ADD DUP9 SSTORE POP POP POP JUMPDEST POP POP POP POP POP POP JUMP JUMPDEST PUSH2 0x262F DUP2 PUSH2 0x1587 JUMP JUMPDEST DUP3 MSTORE POP POP JUMP JUMPDEST PUSH2 0x263E DUP2 PUSH2 0x1535 JUMP JUMPDEST DUP3 MSTORE POP POP JUMP JUMPDEST PUSH0 PUSH1 0x60 DUP3 ADD SWAP1 POP PUSH2 0x2657 PUSH0 DUP4 ADD DUP7 PUSH2 0x2626 JUMP JUMPDEST PUSH2 0x2664 PUSH1 0x20 DUP4 ADD DUP6 PUSH2 0x2626 JUMP JUMPDEST PUSH2 0x2671 PUSH1 0x40 DUP4 ADD DUP5 PUSH2 0x2635 JUMP JUMPDEST SWAP5 SWAP4 POP POP POP POP JUMP JUMPDEST PUSH0 PUSH2 0x2683 DUP3 PUSH2 0x164A JUMP JUMPDEST PUSH2 0x268D DUP2 DUP6 PUSH2 0x1C5A JUMP JUMPDEST SWAP4 POP PUSH2 0x269D DUP2 DUP6 PUSH1 0x20 DUP7 ADD PUSH2 0x1664 JUMP JUMPDEST PUSH2 0x26A6 DUP2 PUSH2 0x168C JUMP JUMPDEST DUP5 ADD SWAP2 POP POP SWAP3 SWAP2 POP POP JUMP JUMPDEST PUSH2 0x26BA DUP2 PUSH2 0x1727 JUMP JUMPDEST DUP3 MSTORE POP POP JUMP JUMPDEST PUSH0 PUSH2 0x140 DUP3 ADD SWAP1 POP PUSH2 0x26D4 PUSH0 DUP4 ADD DUP14 PUSH2 0x2635 JUMP JUMPDEST PUSH2 0x26E1 PUSH1 0x20 DUP4 ADD DUP13 PUSH2 0x2635 JUMP JUMPDEST DUP2 DUP2 SUB PUSH1 0x40 DUP4 ADD MSTORE PUSH2 0x26F3 DUP2 DUP12 PUSH2 0x2679 JUMP JUMPDEST SWAP1 POP PUSH2 0x2702 PUSH1 0x60 DUP4 ADD DUP11 PUSH2 0x2635 JUMP JUMPDEST DUP2 DUP2 SUB PUSH1 0x80 DUP4 ADD MSTORE PUSH2 0x2714 DUP2 DUP10 PUSH2 0x2679 JUMP JUMPDEST SWAP1 POP PUSH2 0x2723 PUSH1 0xA0 DUP4 ADD DUP9 PUSH2 0x2635 JUMP JUMPDEST PUSH2 0x2730 PUSH1 0xC0 DUP4 ADD DUP8 PUSH2 0x2635 JUMP JUMPDEST PUSH2 0x273D PUSH1 0xE0 DUP4 ADD DUP7 PUSH2 0x26B1 JUMP JUMPDEST PUSH2 0x274B PUSH2 0x100 DUP4 ADD DUP6 PUSH2 0x2626 JUMP JUMPDEST PUSH2 0x2759 PUSH2 0x120 DUP4 ADD DUP5 PUSH2 0x2626 JUMP JUMPDEST SWAP12 SWAP11 POP POP POP POP POP POP POP POP POP POP POP JUMP JUMPDEST PUSH32 0x5265656E7472616E637947756172643A207265656E7472616E742063616C6C00 PUSH0 DUP3 ADD MSTORE POP JUMP JUMPDEST PUSH0 PUSH2 0x279C PUSH1 0x1F DUP4 PUSH2 0x1C5A JUMP JUMPDEST SWAP2 POP PUSH2 0x27A7 DUP3 PUSH2 0x2768 JUMP JUMPDEST PUSH1 0x20 DUP3 ADD SWAP1 POP SWAP2 SWAP1 POP JUMP JUMPDEST PUSH0 PUSH1 0x20 DUP3 ADD SWAP1 POP DUP2 DUP2 SUB PUSH0 DUP4 ADD MSTORE PUSH2 0x27C9 DUP2 PUSH2 0x2790 JUMP JUMPDEST SWAP1 POP SWAP2 SWAP1 POP JUMP INVALID LOG2 PUSH5 0x6970667358 0x22 SLT KECCAK256 COINBASE PUSH2 0x21B2 ADD 0x1F MUL 0xC6 0xE6 0xB4 PUSH30 0xD91CBD16C7A27ED33DC8C6715D1D56A5B012517B0664736F6C6343000816 STOP CALLER "
		},
		"gasEstimates": {
			"creation": {
				"codeDepositCost": "2049200",
				"executionCost": "70660",
				"totalCost": "2119860"
			},
			"external": {
				"addBus(uint256,string,uint256,uint256,string,address)": "infinite",
				"addCompany(address)": "51426",
				"changeBusStatusToAPPROVED(uint256)": "infinite",
				"getBusListForCompanyOwner(uint256,uint256,address)": "infinite",
				"getSingleBus(uint256)": "infinite"
			}
		},
		"methodIdentifiers": {
			"addBus(uint256,string,uint256,uint256,string,address)": "ab070c92",
			"addCompany(address)": "634513ca",
			"changeBusStatusToAPPROVED(uint256)": "a0282d9e",
			"getBusListForCompanyOwner(uint256,uint256,address)": "2ea3ad21",
			"getSingleBus(uint256)": "8f84ac81"
		}
	},
	"abi": [
		{
			"inputs": [],
			"stateMutability": "nonpayable",
			"type": "constructor"
		},
		{
			"anonymous": false,
			"inputs": [
				{
					"indexed": false,
					"internalType": "uint256",
					"name": "id",
					"type": "uint256"
				},
				{
					"indexed": false,
					"internalType": "uint256",
					"name": "model",
					"type": "uint256"
				},
				{
					"indexed": false,
					"internalType": "string",
					"name": "vim_number",
					"type": "string"
				},
				{
					"indexed": false,
					"internalType": "uint256",
					"name": "company_number",
					"type": "uint256"
				},
				{
					"indexed": false,
					"internalType": "string",
					"name": "plate_number",
					"type": "string"
				},
				{
					"indexed": false,
					"internalType": "uint256",
					"name": "nft_token_id",
					"type": "uint256"
				},
				{
					"indexed": false,
					"internalType": "uint256",
					"name": "expire_date",
					"type": "uint256"
				},
				{
					"indexed": false,
					"internalType": "enum HTMCNftMarketplace.BusStatus",
					"name": "status",
					"type": "uint8"
				},
				{
					"indexed": false,
					"internalType": "address",
					"name": "owner",
					"type": "address"
				},
				{
					"indexed": false,
					"internalType": "address",
					"name": "creatore",
					"type": "address"
				}
			],
			"name": "BusCreateted",
			"type": "event"
		},
		{
			"inputs": [
				{
					"internalType": "uint256",
					"name": "_model",
					"type": "uint256"
				},
				{
					"internalType": "string",
					"name": "_vim_number",
					"type": "string"
				},
				{
					"internalType": "uint256",
					"name": "_company_number",
					"type": "uint256"
				},
				{
					"internalType": "uint256",
					"name": "tokenId",
					"type": "uint256"
				},
				{
					"internalType": "string",
					"name": "_plate_number",
					"type": "string"
				},
				{
					"internalType": "address",
					"name": "nftContract",
					"type": "address"
				}
			],
			"name": "addBus",
			"outputs": [],
			"stateMutability": "nonpayable",
			"type": "function"
		},
		{
			"inputs": [
				{
					"internalType": "address",
					"name": "companyAddress",
					"type": "address"
				}
			],
			"name": "addCompany",
			"outputs": [
				{
					"internalType": "bool",
					"name": "",
					"type": "bool"
				}
			],
			"stateMutability": "nonpayable",
			"type": "function"
		},
		{
			"inputs": [
				{
					"internalType": "uint256",
					"name": "id",
					"type": "uint256"
				}
			],
			"name": "changeBusStatusToAPPROVED",
			"outputs": [
				{
					"components": [
						{
							"internalType": "uint256",
							"name": "id",
							"type": "uint256"
						},
						{
							"internalType": "uint256",
							"name": "model",
							"type": "uint256"
						},
						{
							"internalType": "string",
							"name": "vim_number",
							"type": "string"
						},
						{
							"internalType": "uint256",
							"name": "company_number",
							"type": "uint256"
						},
						{
							"internalType": "string",
							"name": "plate_number",
							"type": "string"
						},
						{
							"internalType": "uint256",
							"name": "nft_token_id",
							"type": "uint256"
						},
						{
							"internalType": "uint256",
							"name": "expire_date",
							"type": "uint256"
						},
						{
							"internalType": "enum HTMCNftMarketplace.BusStatus",
							"name": "status",
							"type": "uint8"
						},
						{
							"internalType": "address",
							"name": "owner",
							"type": "address"
						},
						{
							"internalType": "address",
							"name": "creatore",
							"type": "address"
						}
					],
					"internalType": "struct HTMCNftMarketplace.BusItem",
					"name": "",
					"type": "tuple"
				}
			],
			"stateMutability": "view",
			"type": "function"
		},
		{
			"inputs": [
				{
					"internalType": "uint256",
					"name": "pageNumber",
					"type": "uint256"
				},
				{
					"internalType": "uint256",
					"name": "pageSize",
					"type": "uint256"
				},
				{
					"internalType": "address",
					"name": "companyOwner",
					"type": "address"
				}
			],
			"name": "getBusListForCompanyOwner",
			"outputs": [
				{
					"components": [
						{
							"internalType": "uint256",
							"name": "id",
							"type": "uint256"
						},
						{
							"internalType": "uint256",
							"name": "model",
							"type": "uint256"
						},
						{
							"internalType": "string",
							"name": "vim_number",
							"type": "string"
						},
						{
							"internalType": "uint256",
							"name": "company_number",
							"type": "uint256"
						},
						{
							"internalType": "string",
							"name": "plate_number",
							"type": "string"
						},
						{
							"internalType": "uint256",
							"name": "nft_token_id",
							"type": "uint256"
						},
						{
							"internalType": "uint256",
							"name": "expire_date",
							"type": "uint256"
						},
						{
							"internalType": "enum HTMCNftMarketplace.BusStatus",
							"name": "status",
							"type": "uint8"
						},
						{
							"internalType": "address",
							"name": "owner",
							"type": "address"
						},
						{
							"internalType": "address",
							"name": "creatore",
							"type": "address"
						}
					],
					"internalType": "struct HTMCNftMarketplace.BusItem[]",
					"name": "",
					"type": "tuple[]"
				}
			],
			"stateMutability": "view",
			"type": "function"
		},
		{
			"inputs": [
				{
					"internalType": "uint256",
					"name": "id",
					"type": "uint256"
				}
			],
			"name": "getSingleBus",
			"outputs": [
				{
					"components": [
						{
							"internalType": "uint256",
							"name": "id",
							"type": "uint256"
						},
						{
							"internalType": "uint256",
							"name": "model",
							"type": "uint256"
						},
						{
							"internalType": "string",
							"name": "vim_number",
							"type": "string"
						},
						{
							"internalType": "uint256",
							"name": "company_number",
							"type": "uint256"
						},
						{
							"internalType": "string",
							"name": "plate_number",
							"type": "string"
						},
						{
							"internalType": "uint256",
							"name": "nft_token_id",
							"type": "uint256"
						},
						{
							"internalType": "uint256",
							"name": "expire_date",
							"type": "uint256"
						},
						{
							"internalType": "enum HTMCNftMarketplace.BusStatus",
							"name": "status",
							"type": "uint8"
						},
						{
							"internalType": "address",
							"name": "owner",
							"type": "address"
						},
						{
							"internalType": "address",
							"name": "creatore",
							"type": "address"
						}
					],
					"internalType": "struct HTMCNftMarketplace.BusItem",
					"name": "",
					"type": "tuple"
				}
			],
			"stateMutability": "view",
			"type": "function"
		}
	]
}