{
	"data": {
		"bytecode": {
			"linkReferences": {},
			"object": "608060405234801561000f575f80fd5b506109198061001d5f395ff3fe608060405234801561000f575f80fd5b5060043610610034575f3560e01c80632d10fa28146100385780634241331514610056575b5f80fd5b610040610072565b60405161004d919061040c565b60405180910390f35b610070600480360381019061006b9190610593565b6101e7565b005b60605f60018054905090505f8167ffffffffffffffff8111156100985761009761046f565b5b6040519080825280602002602001820160405280156100d157816020015b6100be61025c565b8152602001906001900390816100b65790505b5090505f5b828110156101de575f600182815481106100f3576100f26105ed565b5b905f5260205f20015490505f808281526020019081526020015f206040518060400160405290815f820154815260200160018201805461013290610647565b80601f016020809104026020016040519081016040528092919081815260200182805461015e90610647565b80156101a95780601f10610180576101008083540402835291602001916101a9565b820191905f5260205f20905b81548152906001019060200180831161018c57829003601f168201915b5050505050815250508383815181106101c5576101c46105ed565b5b60200260200101819052505080806001019150506100d6565b50809250505090565b5f6040518060400160405280848152602001838152509050805f808581526020019081526020015f205f820151815f0155602082015181600101908161022d9190610814565b50905050600183908060018154018082558091505060019003905f5260205f20015f9091909190915055505050565b60405180604001604052805f8152602001606081525090565b5f81519050919050565b5f82825260208201905092915050565b5f819050602082019050919050565b5f819050919050565b6102b08161029e565b82525050565b5f81519050919050565b5f82825260208201905092915050565b5f5b838110156102ed5780820151818401526020810190506102d2565b5f8484015250505050565b5f601f19601f8301169050919050565b5f610312826102b6565b61031c81856102c0565b935061032c8185602086016102d0565b610335816102f8565b840191505092915050565b5f604083015f8301516103555f8601826102a7565b506020830151848203602086015261036d8282610308565b9150508091505092915050565b5f6103858383610340565b905092915050565b5f602082019050919050565b5f6103a382610275565b6103ad818561027f565b9350836020820285016103bf8561028f565b805f5b858110156103fa57848403895281516103db858261037a565b94506103e68361038d565b925060208a019950506001810190506103c2565b50829750879550505050505092915050565b5f6020820190508181035f8301526104248184610399565b905092915050565b5f604051905090565b5f80fd5b5f80fd5b6104468161029e565b8114610450575f80fd5b50565b5f813590506104618161043d565b92915050565b5f80fd5b5f80fd5b7f4e487b71000000000000000000000000000000000000000000000000000000005f52604160045260245ffd5b6104a5826102f8565b810181811067ffffffffffffffff821117156104c4576104c361046f565b5b80604052505050565b5f6104d661042c565b90506104e2828261049c565b919050565b5f67ffffffffffffffff8211156105015761050061046f565b5b61050a826102f8565b9050602081019050919050565b828183375f83830152505050565b5f610537610532846104e7565b6104cd565b9050828152602081018484840111156105535761055261046b565b5b61055e848285610517565b509392505050565b5f82601f83011261057a57610579610467565b5b813561058a848260208601610525565b91505092915050565b5f80604083850312156105a9576105a8610435565b5b5f6105b685828601610453565b925050602083013567ffffffffffffffff8111156105d7576105d6610439565b5b6105e385828601610566565b9150509250929050565b7f4e487b71000000000000000000000000000000000000000000000000000000005f52603260045260245ffd5b7f4e487b71000000000000000000000000000000000000000000000000000000005f52602260045260245ffd5b5f600282049050600182168061065e57607f821691505b6020821081036106715761067061061a565b5b50919050565b5f819050815f5260205f209050919050565b5f6020601f8301049050919050565b5f82821b905092915050565b5f600883026106d37fffffffffffffffffffffffffffffffffffffffffffffffffffffffffffffffff82610698565b6106dd8683610698565b95508019841693508086168417925050509392505050565b5f819050919050565b5f61071861071361070e8461029e565b6106f5565b61029e565b9050919050565b5f819050919050565b610731836106fe565b61074561073d8261071f565b8484546106a4565b825550505050565b5f90565b61075961074d565b610764818484610728565b505050565b5b818110156107875761077c5f82610751565b60018101905061076a565b5050565b601f8211156107cc5761079d81610677565b6107a684610689565b810160208510156107b5578190505b6107c96107c185610689565b830182610769565b50505b505050565b5f82821c905092915050565b5f6107ec5f19846008026107d1565b1980831691505092915050565b5f61080483836107dd565b9150826002028217905092915050565b61081d826102b6565b67ffffffffffffffff8111156108365761083561046f565b5b6108408254610647565b61084b82828561078b565b5f60209050601f83116001811461087c575f841561086a578287015190505b61087485826107f9565b8655506108db565b601f19841661088a86610677565b5f5b828110156108b15784890151825560018201915060208501945060208101905061088c565b868310156108ce57848901516108ca601f8916826107dd565b8355505b6001600288020188555050505b50505050505056fea26469706673582212201a32e23231830e6ad3505269dcaa263423e26e913932883963174ba08ea7ff5464736f6c63430008160033",
			"opcodes": "PUSH1 0x80 PUSH1 0x40 MSTORE CALLVALUE DUP1 ISZERO PUSH2 0xF JUMPI PUSH0 DUP1 REVERT JUMPDEST POP PUSH2 0x919 DUP1 PUSH2 0x1D PUSH0 CODECOPY PUSH0 RETURN INVALID PUSH1 0x80 PUSH1 0x40 MSTORE CALLVALUE DUP1 ISZERO PUSH2 0xF JUMPI PUSH0 DUP1 REVERT JUMPDEST POP PUSH1 0x4 CALLDATASIZE LT PUSH2 0x34 JUMPI PUSH0 CALLDATALOAD PUSH1 0xE0 SHR DUP1 PUSH4 0x2D10FA28 EQ PUSH2 0x38 JUMPI DUP1 PUSH4 0x42413315 EQ PUSH2 0x56 JUMPI JUMPDEST PUSH0 DUP1 REVERT JUMPDEST PUSH2 0x40 PUSH2 0x72 JUMP JUMPDEST PUSH1 0x40 MLOAD PUSH2 0x4D SWAP2 SWAP1 PUSH2 0x40C JUMP JUMPDEST PUSH1 0x40 MLOAD DUP1 SWAP2 SUB SWAP1 RETURN JUMPDEST PUSH2 0x70 PUSH1 0x4 DUP1 CALLDATASIZE SUB DUP2 ADD SWAP1 PUSH2 0x6B SWAP2 SWAP1 PUSH2 0x593 JUMP JUMPDEST PUSH2 0x1E7 JUMP JUMPDEST STOP JUMPDEST PUSH1 0x60 PUSH0 PUSH1 0x1 DUP1 SLOAD SWAP1 POP SWAP1 POP PUSH0 DUP2 PUSH8 0xFFFFFFFFFFFFFFFF DUP2 GT ISZERO PUSH2 0x98 JUMPI PUSH2 0x97 PUSH2 0x46F JUMP JUMPDEST JUMPDEST PUSH1 0x40 MLOAD SWAP1 DUP1 DUP3 MSTORE DUP1 PUSH1 0x20 MUL PUSH1 0x20 ADD DUP3 ADD PUSH1 0x40 MSTORE DUP1 ISZERO PUSH2 0xD1 JUMPI DUP2 PUSH1 0x20 ADD JUMPDEST PUSH2 0xBE PUSH2 0x25C JUMP JUMPDEST DUP2 MSTORE PUSH1 0x20 ADD SWAP1 PUSH1 0x1 SWAP1 SUB SWAP1 DUP2 PUSH2 0xB6 JUMPI SWAP1 POP JUMPDEST POP SWAP1 POP PUSH0 JUMPDEST DUP3 DUP2 LT ISZERO PUSH2 0x1DE JUMPI PUSH0 PUSH1 0x1 DUP3 DUP2 SLOAD DUP2 LT PUSH2 0xF3 JUMPI PUSH2 0xF2 PUSH2 0x5ED JUMP JUMPDEST JUMPDEST SWAP1 PUSH0 MSTORE PUSH1 0x20 PUSH0 KECCAK256 ADD SLOAD SWAP1 POP PUSH0 DUP1 DUP3 DUP2 MSTORE PUSH1 0x20 ADD SWAP1 DUP2 MSTORE PUSH1 0x20 ADD PUSH0 KECCAK256 PUSH1 0x40 MLOAD DUP1 PUSH1 0x40 ADD PUSH1 0x40 MSTORE SWAP1 DUP2 PUSH0 DUP3 ADD SLOAD DUP2 MSTORE PUSH1 0x20 ADD PUSH1 0x1 DUP3 ADD DUP1 SLOAD PUSH2 0x132 SWAP1 PUSH2 0x647 JUMP JUMPDEST DUP1 PUSH1 0x1F ADD PUSH1 0x20 DUP1 SWAP2 DIV MUL PUSH1 0x20 ADD PUSH1 0x40 MLOAD SWAP1 DUP2 ADD PUSH1 0x40 MSTORE DUP1 SWAP3 SWAP2 SWAP1 DUP2 DUP2 MSTORE PUSH1 0x20 ADD DUP3 DUP1 SLOAD PUSH2 0x15E SWAP1 PUSH2 0x647 JUMP JUMPDEST DUP1 ISZERO PUSH2 0x1A9 JUMPI DUP1 PUSH1 0x1F LT PUSH2 0x180 JUMPI PUSH2 0x100 DUP1 DUP4 SLOAD DIV MUL DUP4 MSTORE SWAP2 PUSH1 0x20 ADD SWAP2 PUSH2 0x1A9 JUMP JUMPDEST DUP3 ADD SWAP2 SWAP1 PUSH0 MSTORE PUSH1 0x20 PUSH0 KECCAK256 SWAP1 JUMPDEST DUP2 SLOAD DUP2 MSTORE SWAP1 PUSH1 0x1 ADD SWAP1 PUSH1 0x20 ADD DUP1 DUP4 GT PUSH2 0x18C JUMPI DUP3 SWAP1 SUB PUSH1 0x1F AND DUP3 ADD SWAP2 JUMPDEST POP POP POP POP POP DUP2 MSTORE POP POP DUP4 DUP4 DUP2 MLOAD DUP2 LT PUSH2 0x1C5 JUMPI PUSH2 0x1C4 PUSH2 0x5ED JUMP JUMPDEST JUMPDEST PUSH1 0x20 MUL PUSH1 0x20 ADD ADD DUP2 SWAP1 MSTORE POP POP DUP1 DUP1 PUSH1 0x1 ADD SWAP2 POP POP PUSH2 0xD6 JUMP JUMPDEST POP DUP1 SWAP3 POP POP POP SWAP1 JUMP JUMPDEST PUSH0 PUSH1 0x40 MLOAD DUP1 PUSH1 0x40 ADD PUSH1 0x40 MSTORE DUP1 DUP5 DUP2 MSTORE PUSH1 0x20 ADD DUP4 DUP2 MSTORE POP SWAP1 POP DUP1 PUSH0 DUP1 DUP6 DUP2 MSTORE PUSH1 0x20 ADD SWAP1 DUP2 MSTORE PUSH1 0x20 ADD PUSH0 KECCAK256 PUSH0 DUP3 ADD MLOAD DUP2 PUSH0 ADD SSTORE PUSH1 0x20 DUP3 ADD MLOAD DUP2 PUSH1 0x1 ADD SWAP1 DUP2 PUSH2 0x22D SWAP2 SWAP1 PUSH2 0x814 JUMP JUMPDEST POP SWAP1 POP POP PUSH1 0x1 DUP4 SWAP1 DUP1 PUSH1 0x1 DUP2 SLOAD ADD DUP1 DUP3 SSTORE DUP1 SWAP2 POP POP PUSH1 0x1 SWAP1 SUB SWAP1 PUSH0 MSTORE PUSH1 0x20 PUSH0 KECCAK256 ADD PUSH0 SWAP1 SWAP2 SWAP1 SWAP2 SWAP1 SWAP2 POP SSTORE POP POP POP JUMP JUMPDEST PUSH1 0x40 MLOAD DUP1 PUSH1 0x40 ADD PUSH1 0x40 MSTORE DUP1 PUSH0 DUP2 MSTORE PUSH1 0x20 ADD PUSH1 0x60 DUP2 MSTORE POP SWAP1 JUMP JUMPDEST PUSH0 DUP2 MLOAD SWAP1 POP SWAP2 SWAP1 POP JUMP JUMPDEST PUSH0 DUP3 DUP3 MSTORE PUSH1 0x20 DUP3 ADD SWAP1 POP SWAP3 SWAP2 POP POP JUMP JUMPDEST PUSH0 DUP2 SWAP1 POP PUSH1 0x20 DUP3 ADD SWAP1 POP SWAP2 SWAP1 POP JUMP JUMPDEST PUSH0 DUP2 SWAP1 POP SWAP2 SWAP1 POP JUMP JUMPDEST PUSH2 0x2B0 DUP2 PUSH2 0x29E JUMP JUMPDEST DUP3 MSTORE POP POP JUMP JUMPDEST PUSH0 DUP2 MLOAD SWAP1 POP SWAP2 SWAP1 POP JUMP JUMPDEST PUSH0 DUP3 DUP3 MSTORE PUSH1 0x20 DUP3 ADD SWAP1 POP SWAP3 SWAP2 POP POP JUMP JUMPDEST PUSH0 JUMPDEST DUP4 DUP2 LT ISZERO PUSH2 0x2ED JUMPI DUP1 DUP3 ADD MLOAD DUP2 DUP5 ADD MSTORE PUSH1 0x20 DUP2 ADD SWAP1 POP PUSH2 0x2D2 JUMP JUMPDEST PUSH0 DUP5 DUP5 ADD MSTORE POP POP POP POP JUMP JUMPDEST PUSH0 PUSH1 0x1F NOT PUSH1 0x1F DUP4 ADD AND SWAP1 POP SWAP2 SWAP1 POP JUMP JUMPDEST PUSH0 PUSH2 0x312 DUP3 PUSH2 0x2B6 JUMP JUMPDEST PUSH2 0x31C DUP2 DUP6 PUSH2 0x2C0 JUMP JUMPDEST SWAP4 POP PUSH2 0x32C DUP2 DUP6 PUSH1 0x20 DUP7 ADD PUSH2 0x2D0 JUMP JUMPDEST PUSH2 0x335 DUP2 PUSH2 0x2F8 JUMP JUMPDEST DUP5 ADD SWAP2 POP POP SWAP3 SWAP2 POP POP JUMP JUMPDEST PUSH0 PUSH1 0x40 DUP4 ADD PUSH0 DUP4 ADD MLOAD PUSH2 0x355 PUSH0 DUP7 ADD DUP3 PUSH2 0x2A7 JUMP JUMPDEST POP PUSH1 0x20 DUP4 ADD MLOAD DUP5 DUP3 SUB PUSH1 0x20 DUP7 ADD MSTORE PUSH2 0x36D DUP3 DUP3 PUSH2 0x308 JUMP JUMPDEST SWAP2 POP POP DUP1 SWAP2 POP POP SWAP3 SWAP2 POP POP JUMP JUMPDEST PUSH0 PUSH2 0x385 DUP4 DUP4 PUSH2 0x340 JUMP JUMPDEST SWAP1 POP SWAP3 SWAP2 POP POP JUMP JUMPDEST PUSH0 PUSH1 0x20 DUP3 ADD SWAP1 POP SWAP2 SWAP1 POP JUMP JUMPDEST PUSH0 PUSH2 0x3A3 DUP3 PUSH2 0x275 JUMP JUMPDEST PUSH2 0x3AD DUP2 DUP6 PUSH2 0x27F JUMP JUMPDEST SWAP4 POP DUP4 PUSH1 0x20 DUP3 MUL DUP6 ADD PUSH2 0x3BF DUP6 PUSH2 0x28F JUMP JUMPDEST DUP1 PUSH0 JUMPDEST DUP6 DUP2 LT ISZERO PUSH2 0x3FA JUMPI DUP5 DUP5 SUB DUP10 MSTORE DUP2 MLOAD PUSH2 0x3DB DUP6 DUP3 PUSH2 0x37A JUMP JUMPDEST SWAP5 POP PUSH2 0x3E6 DUP4 PUSH2 0x38D JUMP JUMPDEST SWAP3 POP PUSH1 0x20 DUP11 ADD SWAP10 POP POP PUSH1 0x1 DUP2 ADD SWAP1 POP PUSH2 0x3C2 JUMP JUMPDEST POP DUP3 SWAP8 POP DUP8 SWAP6 POP POP POP POP POP POP SWAP3 SWAP2 POP POP JUMP JUMPDEST PUSH0 PUSH1 0x20 DUP3 ADD SWAP1 POP DUP2 DUP2 SUB PUSH0 DUP4 ADD MSTORE PUSH2 0x424 DUP2 DUP5 PUSH2 0x399 JUMP JUMPDEST SWAP1 POP SWAP3 SWAP2 POP POP JUMP JUMPDEST PUSH0 PUSH1 0x40 MLOAD SWAP1 POP SWAP1 JUMP JUMPDEST PUSH0 DUP1 REVERT JUMPDEST PUSH0 DUP1 REVERT JUMPDEST PUSH2 0x446 DUP2 PUSH2 0x29E JUMP JUMPDEST DUP2 EQ PUSH2 0x450 JUMPI PUSH0 DUP1 REVERT JUMPDEST POP JUMP JUMPDEST PUSH0 DUP2 CALLDATALOAD SWAP1 POP PUSH2 0x461 DUP2 PUSH2 0x43D JUMP JUMPDEST SWAP3 SWAP2 POP POP JUMP JUMPDEST PUSH0 DUP1 REVERT JUMPDEST PUSH0 DUP1 REVERT JUMPDEST PUSH32 0x4E487B7100000000000000000000000000000000000000000000000000000000 PUSH0 MSTORE PUSH1 0x41 PUSH1 0x4 MSTORE PUSH1 0x24 PUSH0 REVERT JUMPDEST PUSH2 0x4A5 DUP3 PUSH2 0x2F8 JUMP JUMPDEST DUP2 ADD DUP2 DUP2 LT PUSH8 0xFFFFFFFFFFFFFFFF DUP3 GT OR ISZERO PUSH2 0x4C4 JUMPI PUSH2 0x4C3 PUSH2 0x46F JUMP JUMPDEST JUMPDEST DUP1 PUSH1 0x40 MSTORE POP POP POP JUMP JUMPDEST PUSH0 PUSH2 0x4D6 PUSH2 0x42C JUMP JUMPDEST SWAP1 POP PUSH2 0x4E2 DUP3 DUP3 PUSH2 0x49C JUMP JUMPDEST SWAP2 SWAP1 POP JUMP JUMPDEST PUSH0 PUSH8 0xFFFFFFFFFFFFFFFF DUP3 GT ISZERO PUSH2 0x501 JUMPI PUSH2 0x500 PUSH2 0x46F JUMP JUMPDEST JUMPDEST PUSH2 0x50A DUP3 PUSH2 0x2F8 JUMP JUMPDEST SWAP1 POP PUSH1 0x20 DUP2 ADD SWAP1 POP SWAP2 SWAP1 POP JUMP JUMPDEST DUP3 DUP2 DUP4 CALLDATACOPY PUSH0 DUP4 DUP4 ADD MSTORE POP POP POP JUMP JUMPDEST PUSH0 PUSH2 0x537 PUSH2 0x532 DUP5 PUSH2 0x4E7 JUMP JUMPDEST PUSH2 0x4CD JUMP JUMPDEST SWAP1 POP DUP3 DUP2 MSTORE PUSH1 0x20 DUP2 ADD DUP5 DUP5 DUP5 ADD GT ISZERO PUSH2 0x553 JUMPI PUSH2 0x552 PUSH2 0x46B JUMP JUMPDEST JUMPDEST PUSH2 0x55E DUP5 DUP3 DUP6 PUSH2 0x517 JUMP JUMPDEST POP SWAP4 SWAP3 POP POP POP JUMP JUMPDEST PUSH0 DUP3 PUSH1 0x1F DUP4 ADD SLT PUSH2 0x57A JUMPI PUSH2 0x579 PUSH2 0x467 JUMP JUMPDEST JUMPDEST DUP2 CALLDATALOAD PUSH2 0x58A DUP5 DUP3 PUSH1 0x20 DUP7 ADD PUSH2 0x525 JUMP JUMPDEST SWAP2 POP POP SWAP3 SWAP2 POP POP JUMP JUMPDEST PUSH0 DUP1 PUSH1 0x40 DUP4 DUP6 SUB SLT ISZERO PUSH2 0x5A9 JUMPI PUSH2 0x5A8 PUSH2 0x435 JUMP JUMPDEST JUMPDEST PUSH0 PUSH2 0x5B6 DUP6 DUP3 DUP7 ADD PUSH2 0x453 JUMP JUMPDEST SWAP3 POP POP PUSH1 0x20 DUP4 ADD CALLDATALOAD PUSH8 0xFFFFFFFFFFFFFFFF DUP2 GT ISZERO PUSH2 0x5D7 JUMPI PUSH2 0x5D6 PUSH2 0x439 JUMP JUMPDEST JUMPDEST PUSH2 0x5E3 DUP6 DUP3 DUP7 ADD PUSH2 0x566 JUMP JUMPDEST SWAP2 POP POP SWAP3 POP SWAP3 SWAP1 POP JUMP JUMPDEST PUSH32 0x4E487B7100000000000000000000000000000000000000000000000000000000 PUSH0 MSTORE PUSH1 0x32 PUSH1 0x4 MSTORE PUSH1 0x24 PUSH0 REVERT JUMPDEST PUSH32 0x4E487B7100000000000000000000000000000000000000000000000000000000 PUSH0 MSTORE PUSH1 0x22 PUSH1 0x4 MSTORE PUSH1 0x24 PUSH0 REVERT JUMPDEST PUSH0 PUSH1 0x2 DUP3 DIV SWAP1 POP PUSH1 0x1 DUP3 AND DUP1 PUSH2 0x65E JUMPI PUSH1 0x7F DUP3 AND SWAP2 POP JUMPDEST PUSH1 0x20 DUP3 LT DUP2 SUB PUSH2 0x671 JUMPI PUSH2 0x670 PUSH2 0x61A JUMP JUMPDEST JUMPDEST POP SWAP2 SWAP1 POP JUMP JUMPDEST PUSH0 DUP2 SWAP1 POP DUP2 PUSH0 MSTORE PUSH1 0x20 PUSH0 KECCAK256 SWAP1 POP SWAP2 SWAP1 POP JUMP JUMPDEST PUSH0 PUSH1 0x20 PUSH1 0x1F DUP4 ADD DIV SWAP1 POP SWAP2 SWAP1 POP JUMP JUMPDEST PUSH0 DUP3 DUP3 SHL SWAP1 POP SWAP3 SWAP2 POP POP JUMP JUMPDEST PUSH0 PUSH1 0x8 DUP4 MUL PUSH2 0x6D3 PUSH32 0xFFFFFFFFFFFFFFFFFFFFFFFFFFFFFFFFFFFFFFFFFFFFFFFFFFFFFFFFFFFFFFFF DUP3 PUSH2 0x698 JUMP JUMPDEST PUSH2 0x6DD DUP7 DUP4 PUSH2 0x698 JUMP JUMPDEST SWAP6 POP DUP1 NOT DUP5 AND SWAP4 POP DUP1 DUP7 AND DUP5 OR SWAP3 POP POP POP SWAP4 SWAP3 POP POP POP JUMP JUMPDEST PUSH0 DUP2 SWAP1 POP SWAP2 SWAP1 POP JUMP JUMPDEST PUSH0 PUSH2 0x718 PUSH2 0x713 PUSH2 0x70E DUP5 PUSH2 0x29E JUMP JUMPDEST PUSH2 0x6F5 JUMP JUMPDEST PUSH2 0x29E JUMP JUMPDEST SWAP1 POP SWAP2 SWAP1 POP JUMP JUMPDEST PUSH0 DUP2 SWAP1 POP SWAP2 SWAP1 POP JUMP JUMPDEST PUSH2 0x731 DUP4 PUSH2 0x6FE JUMP JUMPDEST PUSH2 0x745 PUSH2 0x73D DUP3 PUSH2 0x71F JUMP JUMPDEST DUP5 DUP5 SLOAD PUSH2 0x6A4 JUMP JUMPDEST DUP3 SSTORE POP POP POP POP JUMP JUMPDEST PUSH0 SWAP1 JUMP JUMPDEST PUSH2 0x759 PUSH2 0x74D JUMP JUMPDEST PUSH2 0x764 DUP2 DUP5 DUP5 PUSH2 0x728 JUMP JUMPDEST POP POP POP JUMP JUMPDEST JUMPDEST DUP2 DUP2 LT ISZERO PUSH2 0x787 JUMPI PUSH2 0x77C PUSH0 DUP3 PUSH2 0x751 JUMP JUMPDEST PUSH1 0x1 DUP2 ADD SWAP1 POP PUSH2 0x76A JUMP JUMPDEST POP POP JUMP JUMPDEST PUSH1 0x1F DUP3 GT ISZERO PUSH2 0x7CC JUMPI PUSH2 0x79D DUP2 PUSH2 0x677 JUMP JUMPDEST PUSH2 0x7A6 DUP5 PUSH2 0x689 JUMP JUMPDEST DUP2 ADD PUSH1 0x20 DUP6 LT ISZERO PUSH2 0x7B5 JUMPI DUP2 SWAP1 POP JUMPDEST PUSH2 0x7C9 PUSH2 0x7C1 DUP6 PUSH2 0x689 JUMP JUMPDEST DUP4 ADD DUP3 PUSH2 0x769 JUMP JUMPDEST POP POP JUMPDEST POP POP POP JUMP JUMPDEST PUSH0 DUP3 DUP3 SHR SWAP1 POP SWAP3 SWAP2 POP POP JUMP JUMPDEST PUSH0 PUSH2 0x7EC PUSH0 NOT DUP5 PUSH1 0x8 MUL PUSH2 0x7D1 JUMP JUMPDEST NOT DUP1 DUP4 AND SWAP2 POP POP SWAP3 SWAP2 POP POP JUMP JUMPDEST PUSH0 PUSH2 0x804 DUP4 DUP4 PUSH2 0x7DD JUMP JUMPDEST SWAP2 POP DUP3 PUSH1 0x2 MUL DUP3 OR SWAP1 POP SWAP3 SWAP2 POP POP JUMP JUMPDEST PUSH2 0x81D DUP3 PUSH2 0x2B6 JUMP JUMPDEST PUSH8 0xFFFFFFFFFFFFFFFF DUP2 GT ISZERO PUSH2 0x836 JUMPI PUSH2 0x835 PUSH2 0x46F JUMP JUMPDEST JUMPDEST PUSH2 0x840 DUP3 SLOAD PUSH2 0x647 JUMP JUMPDEST PUSH2 0x84B DUP3 DUP3 DUP6 PUSH2 0x78B JUMP JUMPDEST PUSH0 PUSH1 0x20 SWAP1 POP PUSH1 0x1F DUP4 GT PUSH1 0x1 DUP2 EQ PUSH2 0x87C JUMPI PUSH0 DUP5 ISZERO PUSH2 0x86A JUMPI DUP3 DUP8 ADD MLOAD SWAP1 POP JUMPDEST PUSH2 0x874 DUP6 DUP3 PUSH2 0x7F9 JUMP JUMPDEST DUP7 SSTORE POP PUSH2 0x8DB JUMP JUMPDEST PUSH1 0x1F NOT DUP5 AND PUSH2 0x88A DUP7 PUSH2 0x677 JUMP JUMPDEST PUSH0 JUMPDEST DUP3 DUP2 LT ISZERO PUSH2 0x8B1 JUMPI DUP5 DUP10 ADD MLOAD DUP3 SSTORE PUSH1 0x1 DUP3 ADD SWAP2 POP PUSH1 0x20 DUP6 ADD SWAP5 POP PUSH1 0x20 DUP2 ADD SWAP1 POP PUSH2 0x88C JUMP JUMPDEST DUP7 DUP4 LT ISZERO PUSH2 0x8CE JUMPI DUP5 DUP10 ADD MLOAD PUSH2 0x8CA PUSH1 0x1F DUP10 AND DUP3 PUSH2 0x7DD JUMP JUMPDEST DUP4 SSTORE POP JUMPDEST PUSH1 0x1 PUSH1 0x2 DUP9 MUL ADD DUP9 SSTORE POP POP POP JUMPDEST POP POP POP POP POP POP JUMP INVALID LOG2 PUSH5 0x6970667358 0x22 SLT KECCAK256 BYTE ORIGIN 0xE2 ORIGIN BALANCE DUP4 0xE PUSH11 0xD3505269DCAA263423E26E SWAP2 CODECOPY ORIGIN DUP9 CODECOPY PUSH4 0x174BA08E 0xA7 SELFDESTRUCT SLOAD PUSH5 0x736F6C6343 STOP ADDMOD AND STOP CALLER "
		},
		"gasEstimates": {
			"creation": {
				"codeDepositCost": "465800",
				"executionCost": "497",
				"totalCost": "466297"
			},
			"external": {
				"addData(uint256,string)": "infinite",
				"getAllData()": "infinite"
			}
		},
		"methodIdentifiers": {
			"addData(uint256,string)": "42413315",
			"getAllData()": "2d10fa28"
		}
	},
	"abi": [
		{
			"inputs": [
				{
					"internalType": "uint256",
					"name": "_id",
					"type": "uint256"
				},
				{
					"internalType": "string",
					"name": "_name",
					"type": "string"
				}
			],
			"name": "addData",
			"outputs": [],
			"stateMutability": "nonpayable",
			"type": "function"
		},
		{
			"inputs": [],
			"name": "getAllData",
			"outputs": [
				{
					"components": [
						{
							"internalType": "uint256",
							"name": "id",
							"type": "uint256"
						},
						{
							"internalType": "string",
							"name": "name",
							"type": "string"
						}
					],
					"internalType": "struct MappingWithStructToArray.Data[]",
					"name": "",
					"type": "tuple[]"
				}
			],
			"stateMutability": "view",
			"type": "function"
		}
	]
}